:020000040800F2
:10000000E0380020252000082120000821200008D9
:100010002120000821200008212000080000000005
:100020000000000000000000000000002120000887
:10003000212000080000000021200008E134000811
:10004000212000082120000821200008212000088C
:10005000212000082120000821200008212000087C
:10006000212000082120000821200008212000086C
:10007000212000082120000821200008212000085C
:10008000490D0008550D0008212000082120000816
:100090003D3500082120000821200008212000080B
:1000A000212000082120000821200008413D0008EF
:1000B0002120000821200008212000082D0D000823
:1000C000390D000821200008212000082120000807
:1000D000212000086D4E00082120000831A30008EF
:1000E00021200008212000082120000821200008EC
:1000F0002120000821200008B13E0008212000082E
:100100002120000821200008FD9600082120000879
:100110005D3500082120000821200008212000086A
:1001200021200008212000082120000821200008AB
:100130005FF808F110B5064C18B9236801221A823D
:1001400010BD044B1B681B68984720680A3010BD1F
:10015000440A0020400A002010B5064C18B9236854
:1001600001221A8210BD044B1B689B6898472068C7
:100170000C3010BD440A0020400A002010B5204A6F
:1001800018B9136802221A8210BD1E481468002391
:1001900003802178024611F07F010DD1637A990620
:1001A00044BF0221017013F0400F037814BF43F0E5
:1001B000010323F0010314E0012920D002291DD1FD
:1001C000617901F00F039B0003F1804303F5B8430D
:1001D00011F0800F1B6806D003F03003102B07D1FD
:1001E0000123137004E003F44053B3F5805FF6E796
:1001F000054B1B681B699847024810BD184610BD87
:10020000440A0020D2050020400A00202DE9F843CE
:10021000234FDFF8A0803C68238AC3B9267A042ED6
:1002200015D120480278012A0CD11F4A11681F4AB3
:1002300089B20A445200138053803022A8F800206B
:10024000037029E01023A8F80030072624E0A58ACF
:10025000AB4294BF042602269D4228BF1D46A369D7
:10026000284698478146002002F006F82A460146B3
:10027000484617F0FFF82946002001F09BFF238A2B
:100280004FF440525B1B2382638A1D443023A8F83D
:100290000030074B65821A803B681E72BDE8F88308
:1002A000440A002094050020505C004002300020E9
:1002B000100600201206002010B50A4B0A491B68E0
:1002C0004978DA7891420AD3997841B99C8834B94F
:1002D0009A72064B1B685B689847204610BD022047
:1002E00010BD00BF440A002014010020400A002075
:1002F00038B50E4A0E4D12682B689269D978587934
:1003000090472B689A7A7AB170B91A7962B99C7859
:1003100054B9084B1B68DB6898472B6820465A790C
:10032000DA72DA781A7338BD022038BD1C0A002050
:10033000440A0020400A002038B5314B1B68187869
:1003400010F07F0004D15A7A22F020025A7238BD90
:10035000022853D15A88002A51D11A79002A4ED145
:100360005979284D21F08000840004F1804202F583
:10037000B84212682D7811F0800F14BF02F03002DD
:1003800002F44052A84239D2002A37D09B7A002B7F
:1003900034D004F1804404F5B8440A0623680CD52F
:1003A00003F03003102B23D1C4B2204601F0F0FE3D
:1003B0003021204601F070FE1AE003F44053B3F5FB
:1003C000805F15D128B9104B93F82C1001F000FF75
:1003D00001E001F0CBFE236823F4804323F0700397
:1003E0009BB283F4405343F4004343F08003236003
:1003F000064B1B685B699847002038BD022038BD5A
:10040000440A00201401002090000020400A00202F
:1004100038B51F4B1F4D18682D78417921F08004A5
:10042000A30003F1804202F5B842126811F0800F78
:1004300014BF02F0300202F44052AC4225D244888C
:100440001CBB12B3827A02B303F1804303F5B843B5
:100450001A6809064BBF22F4E04222F4804222F0DF
:10046000400222F070024BBF92B292B282F01002B0
:1004700082F4805242F4004242F080021A60064B3D
:100480001B689B699847002038BD022038BD00BF1B
:10049000440A002014010020400A002008B5064B41
:1004A0001A68537A43F020035372044B1B68DB69CC
:1004B0009847002008BD00BF440A0020400A0020E1
:1004C000054B10B51C68628A18B98B889B1A238269
:1004D00010BD0868104410BD440A002008B50B4B3D
:1004E000002093F82C1001F073FE094B1B68187A5A
:1004F000082806D1074B4FF480521A80064B102271
:100500001A80A0F109035842584108BD900000200C
:10051000440A00201006002012060020F7B59E4D68
:100520009E4E2F6832683B7A092B1AD09C4B92B2B0
:1005300013445B001C68A4B2640004F1804404F519
:10054000C04423783B7063787B70A08801F0BAFECA
:10055000788020892F6801F0B5FEB880A2892B68C9
:10056000DA802B6801221A72DA885C78002A56D168
:100570001A7812F07F0238D1092C02D1FFF79CFEC5
:1005800042E0052C10D193F90320002A01DA082358
:1005900042E09A78002AFAD19A88002AF7D19B7A09
:1005A000002B00F01381F2E7032C10D1DA78012A36
:1005B00007D07C4B20461B685B699847032827D1EE
:1005C00029E09B88002BF4D1FFF768FF1CE0012C89
:1005D000EFD1DA78012AECD19A88002AE9D15B7A46
:1005E0009906E6D5FFF7A8FE0EE0012A04D10B2CF0
:1005F000DFD1FFF77DFE07E0022ADAD1012CF1D02E
:10060000032CD6D1FFF704FF002800F0DF80D0E7ED
:100610000028BCD1DAE009232A681372D2E0062C44
:1006200015D11A78520640F0E0809A785D4B012A85
:1006300002D11B68DB6972E0022A02D11B681B6AC7
:100640006DE0032A40F0D1801B685B6A67E0002CF4
:1006500041D15988002940F0C8805A6822F47F426D
:10066000B2F5003F40F0C1801A7812F07F0204D149
:100670009B88002B00F0B780B7E0012A0BD1494AD4
:100680005879126892699047002840F0AE80424B3A
:100690001B689B7A1BE0022A40F0A7805A794248E7
:1006A00002F00F018B0003F1804303F5B8431B6890
:1006B000007812F0800F14BF03F0300303F44053AE
:1006C000814280F0928012F0700F40F08E80002BFB
:1006D00040F0898089E0082C05D11B785B0640F04A
:1006E0008480324B1DE00A2C7FD11A7802F07F0201
:1006F000012A7AD19A7A002A77D05988002974D1B0
:100700005A6822F47F42B2F5803F6ED1254A58796B
:10071000126892699047002867D1254B01E0002BB1
:1007200063D02A680024548293612046984720466B
:100730004FF6FF712B681A8A8A4201D1092203E021
:10074000022800D012B908221A723BE093F9001077
:10075000002931DAD988134C01910198824202D9DB
:10076000019A1A8210E08A420ED2216891F82C0078
:10077000824201D2002105E092FBF0F100FB112240
:1007800012B901210B4A1170226892F82C209A822A
:10079000FFF73CFD16E000BF440A0020505C00401B
:1007A000043000201C0A002014010020350100083C
:1007B000590100089405002003221A72104B4FF4CF
:1007C00040521A80FFF78AFE03B0F0BD32680D4B2D
:1007D00092B213445B0000221A805A800A4B3022E6
:1007E0001A80062318E7094B9BE7094B2A681B6808
:1007F00050781B69984703289AD1064B1B689DE7E0
:100800001006002002300020120600207D010008A2
:100810001C0A0020440A0020F8B52C4D2C68237ACD
:10082000022B4CD0042B4AD0032B01D0052B40D1F6
:10083000A169268AA9B1A6B1A38A9E4228BF1E46F5
:1008400030468847238A07469B1B2382638A002001
:100850003344638201F022FD32460146384616F0E9
:100860001BFE238A53B11A4B00214FF44052084615
:100870001A8001F09FFC174B30221A80A38A228A2B
:1008800093422B6801D8032201E012B105221A72AB
:100890000CE006211972104B1968104B89B20B44F9
:1008A0005B001A805A800B4B30221A802B681B7A0F
:1008B00006E0072B03D10A4B1B68DB689847082327
:1008C0002A681372BDE8F840FFF708BE440A00200A
:1008D0001006002012060020505C0040023000206C
:1008E0001C0A002070B50D4B00221D78AA4210D2C0
:1008F00040F60F7102F1805303F5B8539B001E6858
:1009000042F4004444F08004314021431960013234
:10091000ECE7034B40F08000186070BD140100202C
:100920004C5C004010B5134C23681A7A022A01D09F
:10093000042A04D1FFF76AFC23681B7A13E0062A15
:1009400010D15A78052A09D11A78520606D1D878DA
:10095000FFF7C8FF084B1B681B6A9847074B1B68CB
:100960009B689847082322681372BDE81040FFF780
:10097000B5BD00BF440A0020400A00201C0A002028
:1009800070470000084B10B553F820400121204665
:1009900002F08CF82046002102F088F82046BDE8DD
:1009A0001040012102F06AB8309E0108084B10B5D2
:1009B00053F820400121204602F078F8204600211B
:1009C00002F074F82046BDE81040002102F056B84D
:1009D000309E01082DE9F3410746134C8500631949
:1009E00098681B690121184302F03CF803238DF835
:1009F000063004EB47041C238DF80730238B02AE2E
:100A0000DFF8288026F8043D314658F8270001F029
:100A1000FFFD4544A38B3146A868ADF8043001F0D2
:100A2000F7FD02B0BDE8F081309E01080000002013
:100A3000F7B507460E4E032306EB40068DF8063049
:100A400004238DF80730338B02AD0A4C25F8043DA2
:100A5000294654F8200001F0DBFD04EB8704B38B3A
:100A60002946A068ADF8043001F0D2FD03B0F0BD16
:100A7000309E01080000002070B5184C85002C4401
:100A80000E46206A012101F0E1FF4FF6FF73144981
:100A90008022CB6000230B618B61CB618B62A36AE8
:100AA0004A6116F0010F4FF440524A620B600C4647
:100AB00006D010238B600B4B2B44186916F0F2FB09
:100AC000B30709D50023A360064B05491D44A86957
:100AD000BDE8704016F0E6BB70BD00BF309E010857
:100AE000D40500200000002010B40C4B0C684968AD
:100AF0008000D9600A4912F480420144896A18BF13
:100B000020221A6210225C6019609A60054B03492A
:100B10001844006910BC16F0C5BB00BFD405002006
:100B2000309E01080000002010B40C4B0C6849688E
:100B30008000D9600A4912F400420144896A18BF52
:100B400020221A6200225C6019609A60054B0349FA
:100B50001844806910BC16F0A5BB00BFD405002066
:100B6000309E010800000020CA0738B504460D4633
:100B700005D5084B03EB8003186916F01BFBAB0788
:100B800007D5044800EB84008069BDE8384016F0C2
:100B900011BB38BD000000202DE9F74305460F4684
:100BA000404C90466619994616F0B6FB01238DF825
:100BB000073096F8303001A88DF8043096F83230BE
:100BC0008DF8053096F834308DF8063016F0B2FB0B
:100BD000780217D496F8363001A88DF8043096F8CC
:100BE00038308DF8053096F83A308DF8063016F02A
:100BF000A1FB2D4B03EB85031A6A93889BB243F448
:100C000080739380B9F1020F49D118F0010F21D000
:100C1000631993F83C2001A88DF8042093F83E2036
:100C200093F840308DF805208DF8063016F082FBE1
:100C30001D4BB90503EB85031B691A6842F00202DC
:100C40001A601A6842F008021A6042BF1A6842F03D
:100C500004021A6018F0020F21D0631993F84220A1
:100C600001A88DF8042093F8442093F846308DF8BD
:100C700005208DF8063016F05DFB0B4B03EB850568
:100C8000AB691A6842F002021A601A6842F0080260
:100C90001A60FA0442BF1A6842F004021A6003B0F4
:100CA000BDE8F083309E0108000000202DE9F347E5
:100CB0008A461D4E9946371800238DF805308DF869
:100CC00006308DF8073097F8303002AC04F8043D58
:100CD00005462046904616F02DFB1AF4800F06D1EB
:100CE00097F8363020468DF8043016F023FBB9F122
:100CF000020F15D118F0010F07D0731993F83C308B
:100D000020468DF8043016F015FB18F0020F07D0BE
:100D1000354495F8423020468DF8043016F00AFB31
:100D200002B0BDE8F08700BF309E0108014800F026
:100D3000CBBE00BF2800002008B5024800F09EFB93
:100D4000002008BD28000020014800F007BC00BFBB
:100D500028000020014800F08FBC00BF28000020C0
:100D600030B5058C25F001052D042D0C0584058B6F
:100D7000048CADB225F0F3052A4342EA03139AB27C
:100D8000104BA4B2984212D003F5006398420ED0E3
:100D9000B0F1804F0BD0A3F59833984207D003F5FC
:100DA0008063984203D003F58063984202D124F017
:100DB000020401E024F00A0444F001042143028308
:100DC000018430BD002C014030B5048C24F01004A7
:100DD0002404240C0484058B048C25F440752D0513
:100DE0002D0D45EA022242EA0333144AA4B290428E
:100DF0009BB212D002F5006290420ED0B0F1804F4B
:100E00000BD0A2F59832904207D002F58062904252
:100E100003D002F58062904207D124F0200444F010
:100E2000100444EA011189B204E024F0A00444F063
:100E3000100421430383018430BD00BF002C014016
:100E4000224A038890429BB212D002F5006290427F
:100E50000ED0B0F1804F0BD0A2F59832904207D05F
:100E600002F58062904203D002F58062904203D185
:100E70004A8823F070031343154A904208D002F5C4
:100E8000806290421FBF23F44073CA889BB2134311
:100E900003808B8883850B8803850C4B98420FD089
:100EA00003F5006398420BD003F54063984207D0E6
:100EB00003F58063984203D003F58063984201D123
:100EC0000B7A038601238382704700BF002C014008
:100ED00000100040038C70B523F001031B041B0CB1
:100EE0000384028C8688038B0D8823F073031B0414
:100EF0001B0C1D4322F002020C894B881204120CB9
:100F000023431343144AB6B290429BB20FD002F56A
:100F1000006290420BD002F54062904207D002F589
:100F20008062904203D002F5806290420ED14C89DB
:100F300023F008031C438B8824F0040426F4407239
:100F400023438E89CC893443224396B2CA88868053
:100F500005838286038470BD002C0140038C30B56C
:100F600023F010031B041B0C0384038C8588028B65
:100F70000C8822F4E6421204120C42EA042223F006
:100F8000200394B21B040A891B0C43EA02134A880B
:100F9000ADB243EA0213124A9BB2904203D002F56B
:100FA0000062904215D123F080034A899BB243EA44
:100FB00002124FF6BF7313408A8825F4406543EA56
:100FC00002138A899BB245EA8205CA8945EA8205ED
:100FD000ADB2CA88858004830287038430BD00BF18
:100FE000002C0140038C30B523F480731B041B0CD0
:100FF0000384038C8488828B0D8822F07302120490
:10100000120C23F4007315431B040A891B0C43EADA
:1010100002234A88A4B243EA0223124A9BB29042B6
:1010200003D002F50062904215D123F400634A898F
:101030009BB243EA02224FF6FF3313408A8824F41E
:10104000405443EA02238A899BB244EA0214CA89C3
:1010500044EA0214A4B2CA88848085838287038408
:1010600030BD00BF002C0140038C30B523F4805309
:101070001B041B0C0384038C8488828B0D8822F450
:10108000E6421204120C23F4005342EA05221B0428
:101090000D891B0C43EA05334D88A4B243EA05339E
:1010A0000A4D92B2A8429BB203D005F50065A84252
:1010B00005D18D8924F4804444EA8514A4B2848047
:1010C0008283CA88A0F84020038430BD002C0140F0
:1010D000038819B19BB243F0010303E023F001033D
:1010E0001B041B0C0380704783899BB20AB1194310
:1010F00001E023EA010181817047FFF7F5BF038B0F
:1011000023F00C031B041B0C0383038B9BB21943BA
:1011100001837047038B23F440631B041B0C038380
:10112000038B9BB243EA012189B201837047838B11
:1011300023F00C031B041B0C8383838B9BB219438A
:1011400081837047838B23F440631B041B0C8383D0
:10115000838B9BB243EA012189B2818370470000EF
:10116000F8B50E880D460B898A880446498836B939
:10117000FFF7F6FDE988BDE8F840FFF7C0BF042E91
:1011800006D1FFF721FEE988BDE8F840FFF7C2BFAE
:10119000082EEF88008C39D120F480700004000CF8
:1011A0002084A68B208CB6B226F0F30646EA031301
:1011B0009BB21A43354B80B29C4212D003F50063B8
:1011C0009C420ED0B4F1804F0BD0A3F598339C42D3
:1011D00007D003F580639C4203D003F580639C42F3
:1011E00007D120F4007040EA012080B240F4807002
:1011F00004E020F4206341F480701843A283394650
:1012000020842046BDE8F840FFF791BF20F48050CD
:101210000004000C2084A68BB4F820E026F440756E
:101220002D052D0D45EA0225184A45EA033394425F
:101230001FFA8EFE9BB212D002F5006294420ED0CD
:10124000B4F1804F0BD0A2F59832944207D002F54A
:101250008062944203D002F58062944207D12EF45A
:10126000005040EA013080B240F4805006E047F67A
:10127000FF5241F480500EEA02021043A383394624
:1012800020842046BDE8F840FFF75CBF002C0140F9
:10129000808E80B27047008F80B27047808F80B29E
:1012A0007047B0F8400080B27047808C80B27047C1
:1012B000038A828911EA030092B203D0114214BF5B
:1012C000012000207047C94389B20182704780F332
:1012D0000888704780F3108870474FF0FF328261B2
:1012E00010220273FF22026101F044BF037B70B53C
:1012F000012B044605D0037B102B02D0037B002B6F
:1013000062D12078314D55F82020138823F0010355
:101310001B041B0C1380FFF78BFB2078FFF746FBA9
:10132000E378022B03D161782078FFF71DFC207849
:10133000FFF728FB2078FFF74DFB2378E16955F88C
:10134000230003889BB243F00103038016F028F8C2
:101350006269207812F4801F07D01C4B53F82010CC
:101360000B889BB243F040030B80D10712D555F890
:10137000201002F0FE068B899BB243F001038B81A3
:101380008B8923F0FE031B041B0C8B818B899BB282
:1013900033438B81530007D555F820100B8823F475
:1013A00080631B041B0C0B80E378022B02D1617855
:1013B000FFF762FBE378207862786169FFF7ECFB66
:1013C00001232373002070BD012070BD2000002088
:1013D000037B10B5012B044604D0037B102B01D0F6
:1013E000037B13BB2078FFF723FB2078104B53F8C7
:1013F0002020138823F001031B041B0C1380FFF72C
:10140000D5FAE378022B03D161782078FFF7ACFBA3
:10141000E378207862786169FFF748FC00204FF09C
:10142000FF3320732061A36110BD012010BD00BFF8
:10143000200000200F4A1049034611604BF6FF714F
:10144000D1804FF4806151814FF48041002091811F
:1014500003211081908059700221D9704FF0FF3123
:101460001873987018615860986058619961DA61D2
:10147000704700BF00060020A0860100837810B5E9
:10148000012B0478344B38D142685268002A34D199
:10149000027B012A02D0027B062A2ED153F8242097
:1014A0004FF2FF039382C378012B53D1938823F427
:1014B00000731B041B0C9380938823F480631B042C
:1014C0001B0C938006238361138B9C0705D58369CE
:1014D000012B02D083690133F6D18369012B02D03D
:1014E0008369013303D1BDE81040FFF7F6BE4FF02A
:1014F000FF338361012303732CE053F824309A8A6D
:1015000002F470620261102202734FF2FF029A82AB
:101510000269D1050AD51A886FEA42426FEA52423F
:1015200092B21A801A88C2F30E021A8002699205DA
:101530000AD51A886FEA42426FEA524292B21A8082
:101540001A88C2F30E021A800369036901692046F2
:1015500001F02CFE002010BD200000204FF0FF33D2
:1015600070B43F4A836103783E4952F8234051F8F2
:10157000235022682A4253D04268466900215160B4
:10158000720461D48278002A5ED1374A52F823204F
:10159000918821F400610904090C91800521816181
:1015A000918A490705D48169012902D081690131F5
:1015B000F6D1816901291DD0816901311AD04FF01E
:1015C000FF31360281611BD4118889B241F4007168
:1015D000118006218161118B890705D58169012957
:1015E00002D081690131F6D18169012902D0816976
:1015F000013102D170BCFFF770BE4FF0FF31816145
:101600001A4951F82360316821F001013160918855
:1016100021F400710904090C91800122027313E086
:10162000134A216852F8232011420DD1114A216832
:1016300052F82320114207D00C49102251F82310F0
:101640000273496842685160094A0A4952F82320E6
:1016500051F823302A4313436360002070BC704765
:1016600048000020A09E010820000020100000205B
:10167000989E0108909E01084FF0FF3370B4374ADE
:1016800083610378364952F8234051F82350226889
:101690002A4243D08268002151604269160451D425
:1016A0008278002A4ED12F4A52F82320118889B21D
:1016B00041F400711180918821F400610904090C42
:1016C000918006218161118B890705D581690129E6
:1016D00002D081690131F6D18169012902D0816985
:1016E000013102D170BCFFF7F8BD4FF0FF318161CD
:1016F0001D4951F82360316821F001013160918862
:1017000021F400710904090C9180918821F4805121
:101710000904090C91800122027313E0134A216825
:1017200052F8232011420DD1114A216852F823208A
:10173000114207D00C49102251F823100273496856
:1017400082685160094A0A4952F8232051F823302F
:101750002A4313436360002070BC70474800002098
:10176000889E01082000002018000020809E0108AB
:10177000789E0108F8B50F4D00244FF0FF36102772
:1017800055F8240088B1836943B9866107730369FA
:101790005BB9FF23036101F0EDFC06E083690133CF
:1017A0001EBF836903F1FF3383610134022CE7D14B
:1017B000F8BD00BF5000002038B5C3780446012BA7
:1017C00002D0022B0AD047E00278264B53F82220A1
:1017D00093889BB243F48063938041E00078214D6D
:1017E00055F82020938823F400731B041B0C93806E
:1017F00093889BB243F400639380237B062B01D034
:1018000001290ED162696168FFF76EF9227855F8F7
:1018100022108B8823F480531B041B0C8B80124BEB
:1018200013E0237B0A2B01D0022919D16269A16838
:10183000FFF77AF9A378227833B955F822108B880C
:101840009BB243F480538B80084B53F822201368DB
:1018500043F00103136003E010230373012038BD3C
:10186000002038BD200000201000002018000020BB
:1018700038B5037B044698074BD4237B032B48D011
:10188000237B052B45D0237B002B42D0237B102BC1
:101890003FD06269022312F0807F23731E4D2378AC
:1018A0001AD1062155F82300A161018B890705D5BE
:1018B000A169012902D0A1690131F6D1A1690129EB
:1018C00002D0A169013104D12046BDE83840FFF7BC
:1018D00004BD4FF0FF31A161A17881B955F8231003
:1018E0000B889BB243F480730B80D30303D5012193
:1018F0002046FFF761FF032323731F23A36123788F
:10190000002055F8232093889BB243F40073938002
:1019100038BD012038BD00BF2000002038B5037B52
:101920000446990700F1CB80037B032B00F0C780AE
:10193000037B052B00F0C380037B002B00F0BF80EE
:10194000037B102B00F0BB800223037343695D4DC2
:1019500013F0807F16D106228261027855F822109A
:101960000A8B920705D5A269012A02D0A269013229
:10197000F6D1A269012A7CD0A269013279D04FF058
:10198000FF32A261E278022A07D1A2685268012AD6
:1019900002BF43F400136361E2706169CB0371D449
:1019A000A378002B6ED1237855F823301A8892B291
:1019B00042F480721A801F22A2619A8AD00705D44D
:1019C000A269012A02D0A2690132F6D1A269012AD4
:1019D0004FD0A26901324CD04FF0FF32A261E269D0
:1019E0009289B2F5804F18D1A268926802F0FE0287
:1019F0001A820422A2619A8A920705D4A269012A56
:101A000002D0A2690132F6D1A269012A31D0A269BD
:101A100001322ED04FF0FF32A2619A8A1A8B032234
:101A2000A2619A8A100605D4A269012A02D0A2698D
:101A30000132F6D1A269012A1BD0A269013218D065
:101A40004FF0FF328903A26122D4A268127B1A826E
:101A50000322A2619A8A120605D4A269012A02D041
:101A6000A2690132F6D1A369012B02D0A369013327
:101A700004D12046BDE83840FFF72FBC4FF0FF33BC
:101A8000A36105E0E178022902D12046FFF794FE28
:101A900005232373A378227843B955F822100B88C5
:101AA0009BB243F480730B801F23A36155F822205F
:101AB000002093889BB243F40073938038BD0120CB
:101AC00038BD00BF2000002073B50023ADF80630FC
:101AD000914E0378044656F823309A8A02F0DF02CA
:101AE000ADF806208278FAB9BDF80620D5071DD5D5
:101AF0004FF0FF328261C2699289B2F5804F13D1F3
:101B0000027B052A07D18268926842F00102D2B2B4
:101B10001A820A2305E04268926802F0FE021A82E5
:101B2000062323730423A361002542E1BDF80620A8
:101B300002F0020292B2002A69D0C17802290BD1C8
:101B4000027B062A01D1426803E0027B0A2A03D104
:101B500082685268013201E04FF0FF32A261227BBD
:101B60000A2A0DD101290BD1A268556845B91A88F6
:101B700092B242F400721A809A8A1B8B217318E188
:101B8000237B0A2B05D1012903D102212046FFF72F
:101B900013FE237856F823309A8A1A8B227B0A2A5E
:101BA0000ED1A2685268012A0AD11A8822F48062F2
:101BB0001204120C1A801A8892B242F400721A802F
:101BC000626912F48035AFD1217B06291AD19003C6
:101BD00018D46268127B1A820322A2619A8A1106C3
:101BE00005D4A269012A02D0A2690132F6D1A36903
:101BF000012B00F0C980A369013300F0C5804FF0CC
:101C0000FF33A36103212046FFF7D6FDD1E0BDF8E5
:101C100006100A064BD5017B062948D1C178012957
:101C200082D141684D6865B1086804781C824B68B0
:101C3000013B4B604B68002B3FF476AF01300860EE
:101C400072E7426912F4000101BF1A8892B242F4AD
:101C500000721A809A8822F400721204120C9A8080
:101C60009A8822F480621204120C9A800622826101
:101C700081B99A8A02F084027AB1A269012A0CD051
:101C8000A2690132F5D108E0A269012A05D0A26952
:101C9000013202D09A8A1606F6D4A369012B73D0BA
:101CA000A369013370D04FF0FF33A3617FE0BDF82B
:101CB000062050067FF538AF227B0A2A7FF434AF26
:101CC000E278012A7FF430AFA1684A68022A0A68E4
:101CD00017D11B8A1370237856F82320138823F416
:101CE00080631B041B0C138013889BB243F40073A6
:101CF0001380A3685A68013A5A601A6801321A6060
:101D000013E049681B8A0129137007D1A268536840
:101D1000013B536009E000BF20000020A3681A685F
:101D200001321A605A68013A5A60A3685D68002D52
:101D30007FF4FAAE237856F823309A8822F40072A2
:101D40001204120C9A809A8822F480621204120CF7
:101D50009A809A8A1A8A6269910241BF22F400121B
:101D600062610222E2700622A2611A8B920705D5F7
:101D7000A269012A02D0A2690132F6D1A269012A20
:101D800002D0A269013204D12046FFF7A6FA054627
:101D90000FE04FF0FF32A2611A8892B242F48062E3
:101DA0001A801A8822F400621204120C1A8001238D
:101DB0002373284602B070BD2DE9F743534E00232C
:101DC000B046534FADF806303B68524A99B21B04F7
:101DD000118040F19880138803F00F033370002BBB
:101DE00063D14D4C4D4D23684D499BB22B802B88C0
:101DF000894603F030030B802B8803F440532B807B
:101E00004BF6BF732068034083F4005383F0200334
:101E100043F4004343F080032360138813F0100F52
:101E200007D148F60F73226813402360FEF77AFD4E
:101E30001AE023689BB2ADF80630BDF806301A05EB
:101E400007D540F68F73226813402360FEF766FBC8
:101E50000AE0BDF806301B04B6D540F68F73226841
:101E600013402360FEF7D8FC4BF6BF732268134083
:101E70002A88D6042A8848BF83F480539504B9F889
:101E8000002048BF83F40053D406B9F8002048BFAF
:101E900083F01003900648BF83F0200343F400430F
:101EA0001D4A43F0800313602DE09A0002F1804246
:101EB00002F5B842116889B2ADF80610BDF80610F7
:101EC000090409D540F68F711068013B014011608B
:101ED000144A52F823309847BDF806301A067FF5A9
:101EE00073AF48F60F7198F80020930003F1804318
:101EF00003F5B8431868013A014019600A4B53F8DA
:101F00002230984760E703B0BDE8F083200A002044
:101F1000445C0040DC340020005C004010060020DF
:101F2000120600202C01002048010020384B82B00E
:101F30001A6842F001021A605968364A0A405A602B
:101F40001A6822F0847222F480321A601A6822F42D
:101F500080221A605A6822F4FE025A604FF41F026F
:101F60009A600022009201921A6842F480321A604C
:101F70001A6802F400320192009A01320092019A2A
:101F80001AB9009AB2F5A06FF2D11A6812F40032B1
:101F900018BF01220192019A012A05D01E4B4FF071
:101FA00000629A6002B070471C4A116841F010014B
:101FB0001160116821F003011160116841F0020104
:101FC00011605A685A605A685A605A6842F48062CE
:101FD0005A605A6822F47C125A605A6842F4E81235
:101FE0005A601A6842F080721A601968084A8901BA
:101FF000FBD5516821F003015160516841F00201A5
:1020000051605A6802F00C02082AFAD1C6E700BFF4
:10201000001002400000FFF800ED00E00020024048
:10202000FEE7000008B50C4A0C4B0D498B4204D268
:1020300052F8040F43F8040BF8E70A480A494FF036
:1020400000028842B8BF40F8042BFADBFFF76EFFAE
:10205000BDE8084011F088BF20C201080000002040
:102060009405002094050020E03400204FF6F8731A
:10207000014A034013607047505C0040800000F14B
:10208000804000F5B840036823F4EC4323F070036C
:10209000194389B201607047800000F1804000F56B
:1020A000B8400368CA0623F4E04323F040039BB220
:1020B00048BF83F010038A0648BF83F0200343F42F
:1020C000004343F0800303607047800000F18040CC
:1020D00000F5B8400368CA0423F4804323F070037A
:1020E0009BB248BF83F480538A0448BF83F40053F3
:1020F00043F4004343F0800303607047800000F125
:10210000804000F5B840036823F4E04323F0400327
:102110009BB283F0300343F4004343F08003036039
:102120007047800000F1804000F5B840036823F458
:10213000804323F070039BB283F4405343F4004385
:1021400043F0800303607047800000F1804000F599
:10215000B840036823F4F8731B051B0D43F40043D8
:1021600043F0800303607047FFF7EEBF800000F18B
:10217000804000F5B84003685B0408D540F60F7353
:102180000268134043F4404343F080030360704708
:10219000800000F1804000F5B84003685B0608D578
:1021A00040F60F730268134043F4004343F0C0034A
:1021B00003607047044B1B689BB203EBC000034BEA
:1021C00003445B0019607047505C004002300020FF
:1021D0000D4B3E291B689BB203EBC0000B4B034425
:1021E0004FEA430209D94B09C80604BF03F1FF3384
:1021F0009BB29B0243F4004304E04B08C90748BF6D
:1022000001339B0213607047505C00400630002091
:10221000064B49081B6849009BB203EBC00000F164
:10222000005000F54050400001607047505C004095
:10223000FFF7EEBF054B49081B6849009BB203EB53
:10224000C000034B03445B0019607047505C0040C2
:1022500004300020FFF7EEBF064B1B689BB203EB78
:10226000C00000F1005000F540504000006880B20E
:10227000704700BF505C0040FFF7EEBF054B1B6886
:102280009BB203EBC000044B03445B00186880B2B0
:10229000704700BF505C004004300020FFF7EEBFE5
:1022A000054B1B689BB203EBC000044B03445B006F
:1022B0001868C0F309007047505C004006300020E9
:1022C000FFF7EEBFC3B2000A40EA032070470023C5
:1022D00030B51D46DCB2A2420CD9040F092C94BFC4
:1022E0003034373401F8134001EB430400016570CA
:1022F0000133EFE730BD000038B5114B1A6859685B
:102300003C2A88B205D93C313C3A59601A603C25D8
:1023100004E095B20A445A6000221A6001241C723B
:10232000084B2A461844C02115F0A4F82046294637
:10233000FFF740FF2046BDE83840FFF7DFBE00BF93
:10234000980500201406002007B50121082000F0A0
:1023500089FB2023ADF8043003238DF8063001A952
:10236000102304488DF8073000F052F903B05DF8EF
:1023700004FB00BF000C014008B5002000F014FB76
:10238000BDE8084001214FF4000000F077BB07B51D
:102390004FF4A06014F0C4FF14238DF8043002231E
:1023A0008DF805308DF8063001A801238DF807302F
:1023B00014F0C0FF03B05DF804FB0000202110B151
:1023C000024800F07AB9014800F079B9000C0140E8
:1023D000094A0A4B10B51B681468506818180AD0CF
:1023E00008220749FFF773FF2046BDE8104004228A
:1023F0000449FFF76CBF10BDECF7FF1FE8F7FF1FA4
:102400006E0000207E0000200246F0B50A4D0B4E03
:102410000B4F131A9BB299420CD92B883488013385
:10242000C3F30803A4B2A34204D012F8014BFC5436
:102430002B80EEE7F0BD00BF160A00201408002034
:1024400016080020054B1A7A012A05D11A680AB924
:102450001A727047FFF750BF704700BF9805002001
:102460000C4B1A7A012A14D05A680A49B2F5007F37
:1024700004BF00225A605A68DB689A4202D10023E6
:102480000B7270478CBFC2F500729A1A0A60FFF790
:1024900033BF704798050020064B10B5D968064C2D
:1024A0004A1CB2F5007FDA60605404BF0022DA6093
:1024B00010BD00BF9805002014060020013938B572
:1024C000451E4418A54204D015F8010FFFF7E4FF9C
:1024D000F8E738BD044B1888044B80B21B889BB2C8
:1024E000C01A18BF01207047160A002014080020E7
:1024F00010B50948094C2188038889B29BB29942DA
:10250000054AF8D013880133C3F3080313801388F6
:10251000034A9BB2D05C10BD14080020160A0020AC
:1025200016080020024A00231380024A13807047D5
:1025300014080020160A0020044A00231380044ACD
:102540001380044A13605360D3607047140800205E
:10255000160A00209805002008B5264B984206D19F
:102560000121042000F096FA002104203CE0224BD7
:10257000984206D10121082000F08CFA00210820A1
:1025800032E01E4B984206D10121102000F082FA61
:102590000021102028E01A4B984206D1012120206A
:1025A00000F078FA002120201EE0164B984206D158
:1025B0000121402000F06EFA0021402014E0124B6F
:1025C000984206D10121802000F064FA0021802089
:1025D0000AE00E4B98420BD101214FF4807000F0BD
:1025E00059FA00214FF48070BDE8084000F052BA5B
:1025F00008BD00BF00080140000C01400010014070
:102600000014014000180140001C0140002001405E
:10261000CA782DE9F041D40648BF8C780E8802F0C4
:102620000F0348BF234316F0FF0F1ED0016800249C
:102630004FF0010E4FF00F0C0EFA04F737EA0605C3
:102640000FD1A5000CFA05F821EA080103FA05F5F7
:10265000282A41EA050101D1476102E0482A08BF62
:1026600007610134082CE7D10160FF2E20D94168B1
:1026700000244FF0010E4FF00F0C04F108050EFA84
:1026800005F535EA06070FD1A7000CFA07F821EA8D
:10269000080103FA07F7282A41EA070101D1456139
:1026A00002E0482A08BF05610134082CE5D14160E9
:1026B000BDE8F081806880B2704701617047416178
:1026C00070470AB10161704741617047034B9B7AC3
:1026D00013B1034B05221A60704700BF240A002083
:1026E000AC050020014B04221A607047AC050020A5
:1026F000034B1A78202A04BF00221A70704700BFCB
:10270000A805002070470000212810B508D1114B02
:102710001B681B7803F07F03212B10D0022010BD13
:102720002028FBD10B4B0C4A1B681B78107003F060
:102730007F03212B094B18BF00230BB9EEE7084B91
:10274000044A002412682046936154829847204628
:1027500010BD00BF440A0020A805002099270008EA
:10276000B1270008074B1B681B7803F07F03212B60
:1027700006D100F0DF00022814BF022000207047BD
:1027800002207047440A002021B901288CBF022092
:10279000002070470220704720B9034B08221B68B5
:1027A0001A82704701487047440A002088000020C0
:1027B000FFF7F2BF10B5FFF70BFE054B00241B68B7
:1027C0009C7200F095F814F007FC024B1C6010BDE1
:1027D000440A0020AC050020334B344A1B68D279F0
:1027E00010B500245A729C72DC722046FFF73EFC42
:1027F0004FF400712046FFF741FC10212046FFF7FF
:102800004BFC40212046FFF725FD80212046FFF7A5
:102810000FFD2046FFF7A8FC254B204693F8341007
:10282000FFF7D6FC2046FFF77CFC21460120FFF78E
:1028300025FCC0210120FFF7FBFC20210120FFF730
:102840002BFC21460120FFF740FC4FF4C061022021
:10285000FFF714FC4FF480710220FFF7E9FC2146DA
:102860000220FFF732FC20210220FFF715FC214651
:102870000320FFF703FC4FF488710320FFF7EAFC05
:1028800040210320FFF7A4FC4FF440510320FFF741
:102890001CFC21460320FFF7FFFB2046FEF722F831
:1028A000044B01221A6010BD440A0020049F010855
:1028B00088000020AC0500200149FDF701BE00BFE3
:1028C000C00000200149FDF7FBBD00BFC80000208B
:1028D000054B1B68DB78042B04D8044901EBC301CA
:1028E000FDF7EEBD00207047440A0020D000002014
:1028F00008B50120FFF762FD064B01221A60064A67
:1029000000200649186010604FF4E0520A801A60F7
:1029100008BD00BF405C0040445C0040480A002005
:10292000064B074A0749136002221A72064B074AF0
:102930001360074A1B681160184700BF240A002073
:10294000440A0020F0000020900000201C0A002013
:10295000400A00200D4B1A6842F001021A605968C3
:102960000B4A0A405A601A6822F0847222F48032BC
:102970001A601A6822F480221A605A6822F4FE0251
:102980005A604FF41F029A60704700BF0010024067
:102990000000FFF8034A536823F003031843506014
:1029A000704700BF00100240014B1860704700BF25
:1029B000D8004242034A536823F44043184350600E
:1029C000704700BF001002401C4A10B5536803F066
:1029D0000C03042B01D0082B01D0194B0EE05368D7
:1029E0005168C3F38343CC0303F1020302D551685A
:1029F000890301D5134900E011494B430360536833
:102A00001149C3F30313CC5C0368E340436054688B
:102A1000C4F302240C5D23FA04F484605468C4F304
:102A2000C2240C5DE340C3605268C2F381320A44A1
:102A3000127CB3FBF2F3036110BD00BF0010024033
:102A400000127A0000093D0016010020044B5A696B
:102A500009B1104301E022EA00005861704700BF4D
:102A600000100240044B9A6909B1104301E022EAC8
:102A700000009861704700BF00100240044BDA6903
:102A800009B1104301E022EA0000D861704700BF9D
:102A900000100240044BDA6809B1104301E022EA59
:102AA0000000D860704700BF00100240044B1A6954
:102AB00009B1104301E022EA00001861704700BF2D
:102AC00000100240436810B523F470220B6822F412
:102AD000807213430A7943EA02234360CA688B6811
:102AE00084681A43084B234013434A7943EA42035C
:102AF0008360C36A23F470020B7C013BDBB242EAC1
:102B00000353C36210BD00BFFDF7F1FF836811B12D
:102B100043F0010301E023F0010383607047836801
:102B200011B143F4807301E023F480738360704734
:102B3000836843F00803836070478068C0F3C00077
:102B40007047836843F00403836070478068C0F374
:102B500080007047836811B143F4A00301E023F4BF
:102B6000A00383607047092970B50DD9A1F10A044B
:102B7000C66804EB44040725A54026EA050503FAC8
:102B800004F42C43C4600AE0066901EB4104072504
:102B9000A54026EA050503FA04F42C430461062A3D
:102BA0000CD8013A446B02EB82021F23934024EAC3
:102BB000030301FA02F21A43426370BD0C2A0CD8D7
:102BC000073A046B02EB82021F23934024EA0303BB
:102BD00001FA02F21A43026370BD0D3AC46A02EBB5
:102BE00082021F23934024EA030301FA02F21A43EC
:102BF000C26270BDC06C80B27047000008B5214B46
:102C000098420BD101214FF48040FFF743FFBDE80C
:102C1000084000214FF48040FFF73CBF1A4B984218
:102C200008D101214FF40030FFF740FF00214FF49D
:102C3000003022E0154B984208D101214FF480204A
:102C4000FFF734FF00214FF4802016E0104B98422C
:102C500008D101214FF40020FFF728FF00214FF495
:102C600000200AE00B4B98420BD101214FF4801059
:102C7000FFF71CFF00214FF48010BDE80840FFF76C
:102C800015BF08BD00380140004400400048004026
:102C9000004C00400050004070B50E460446038AC8
:102CA000CA889BB223F440531343038282898988E4
:102CB000338992B20B43718922F4B0520B4322F054
:102CC0000C0213439BB28381838AB2899BB223F4A3
:102CD000407386B01343838201A8FFF775FE174A3D
:102CE000039B049D3168944218BF1D4619226A4314
:102CF000A389642613F4004F14BF4D008D00B2FB6E
:102D0000F5F5B5FBF6F0A28900010109120406FBF6
:102D1000115307D5D9003231B1FBF6F202F00702A8
:102D2000104306E01A013232B2FBF6F303F00F0350
:102D3000184380B2208106B070BD00BF003801404A
:102D40004B8810B50C88028A23438C88C98892B2BC
:102D500023430B4322F4706213439BB2038210BDE2
:102D60000023038043808380C3807047838919B127
:102D70009BB243F4005303E023F400531B041B0CE9
:102D800083817047012310B5C1F342149C4201F0C6
:102D90001F0103FA01F101D10C3003E0022C0CBF3A
:102DA0001030143003680AB1194301E023EA01012D
:102DB000016010BD838A9BB20AB1194301E023EA86
:102DC0000101818270478088C0F308007047C943C1
:102DD00089B201807047012310B5C1F3421401F09C
:102DE0001F029C4203FA02F201D1838903E0022C04
:102DF0000CBF038A838A9BB21340028892B243B10C
:102E00000123090A03FA01F10A4214BF18460020FF
:102E100010BD184610BD090A012303FA01F1C94388
:102E200089B20180704700000449054BCA6802F46A
:102E3000E0621343CB60BFF34F8FFEE700ED00E08D
:102E40000400FA0510B5074C40F225512046FFF763
:102E5000E2FF2046BDE81040012240F22551FFF775
:102E600091BF00BF004C004010B5074C40F2255107
:102E70002046FFF7D0FF2046BDE81040012240F277
:102E80002551FFF77FBF00BF0038014010B5074C48
:102E900040F225512046FFF7BEFF2046BDE8104016
:102EA000012240F22551FFF76DBF00BF00480040EE
:102EB00000EB8000430018460138FDD870474028D9
:102EC00008B5024609D8BDE80840C0EB401002EB47
:102ED0008000C00080B2FFF7EBBF4FF47A70FFF7BD
:102EE000E7FF013A92B2002AF7D108BD70B542F26D
:102EF0000F763025049C0D70B04207D90D78A0F5EF
:102F00001C50013510380D7080B2F5E7302111707A
:102F1000B0F57A7F06D31178A0F57A70013111707F
:102F200080B2F5E730221A70632805D91A78643820
:102F300001321A7080B2F7E730232370092805D9CF
:102F400023780A380133237080B2F7E7059B3030CD
:102F5000187070BD2DE9F043DDF81CC04FF030084B
:102F6000DDF820E0099F0A9E0B9D0C9CDFF8049180
:102F700081F8008048450CD991F8008000F1444068
:102F800008F1010800F5CA0081F8008000F55850EA
:102F9000F0E73021DFF8E0801170404509D9117861
:102FA00000F17A40013100F52120117000F57060C8
:102FB000F3E730222C491A70884207D91A78A0F515
:102FC000190001321A7000F5D340F5E73023274A83
:102FD0008CF80030904209D99CF80030A0F574209C
:102FE00001338CF80030A0F51070F3E73023204A4D
:102FF0008EF80030904208D99EF80030A0F5C3301A
:1030000001338EF80030A038F4E742F20F7230231B
:103010003B70904206D93B78A0F51C5001333B70C1
:103020001038F6E730233370B0F57A7F05D3337864
:10303000A0F57A7001333370F6E730232B706328E4
:1030400004D92B78643801332B70F8E730232370D0
:10305000092804D923780A3801332370F8E70D9B37
:1030600030301870BDE8F0837F9698003F420F0023
:103070009F860100FFC99A3BFFE0F50513B50028C4
:10308000B5BF2D2320230B700B70B8BF404201F158
:103090000503B8BF00B201930B1D0C4600938A1CB8
:1030A000CB1C80B20131FFF721FF0023A37102B0D6
:1030B00010BD10B50028B5BF2D2320230B700B7059
:1030C00088B001F10A03069301F10903059301F1A8
:1030D0000803049301F10703039301F1060302932C
:1030E00001F10503019301F104030C46009301F182
:1030F000020201F10303B8BF40420131FFF72AFF8A
:103100000023E37208B010BDA0F14103052B02D8E3
:10311000373880B27047A0F16103052B94BF573850
:10312000303880B27047000070B504460E46154630
:10313000FEF74EF92046FEF77DF94BF6FF720323AA
:1031400063700223E370E3690020A0706660A560ED
:10315000DA804FF480625A814FF480429A81044AA7
:10316000988018811A602046FEF7C0F880B270BDC2
:1031700000350C00084A08B51388084901339BB292
:103180001380074A0748136801331360064AFFF7A4
:10319000CBFF002008BD00BF300D0020DC12002056
:1031A0003422002028000020D4110020064A0749BC
:1031B0001388074801339BB21380064A1368013312
:1031C0001360054AFFF7B0BF300D0020DC1200206D
:1031D0002800002034220020D4110020024A034994
:1031E0000348FFF7A1BF00BFD4110020DC1200206C
:1031F00028000020024A136801331360704700BFA3
:103200003422002013B5014690BB01210820FFF7AE
:1032100029FC03238DF80630142302AC8DF8073007
:10322000402324F8043D21463148FFF7F1F90423F7
:103230008DF8073021464FF400632D48ADF8043077
:10324000FFF7E6F90A24012240212948FFF739FA5D
:103250000220FFF72DFE013C002240212448FFF709
:1032600030FAA4B20220FFF723FE002CEBD13CE0A1
:1032700001283AD10820FFF7F5FB03238DF806302B
:10328000142302AC8DF807304FF4806324F8043D1A
:1032900021461748FFF7BCF904238DF80730214673
:1032A0004FF400631248ADF80430FFF7B1F9002481
:1032B00001224FF480610E48FFF703FA0A20FFF75E
:1032C000F7FD00224FF480610948FFF7FAF90A2060
:1032D000FFF7EEFD092C03D80134142CE8D104E0EB
:1032E0000348FFF7E7F94305F6D502B010BD00BF6C
:1032F000000C0140024608B506490B7B012B06D0A5
:103300000120FFF7D5FD013AF7D1012008BD0020CB
:1033100008BD00BF2800002010B50E4C4000A06082
:103320000D4822606360E160FEF7F8FA28B10B4AAD
:10333000012013680133136010BDBDF80830012B64
:1033400006D142F21070FFF7D5FF003018BF012000
:1033500010BD00BFD411002028000020342200201E
:1033600010B50E4C4000A0600D4822606360E16023
:10337000FEF77EFA28B10B4A01201368013313606F
:1033800010BDBDF80830012B06D142F21070FFF7D6
:10339000B1FF003018BF012010BD00BFDC120020BB
:1033A000280000203422002013B5064B1C7800238F
:1033B000009313460A4601462046FFF7ADFF02B0D0
:1033C00010BD00BF6220002013B5064B1C780123FE
:1033D000009313460A4601462046FFF79DFF02B0C0
:1033E00010BD00BF6220002013B5064B1C780123DE
:1033F000009313460A4601462046FFF7B1FF02B08C
:1034000010BD00BF6220002008B50122FFF7DCFFDD
:1034100020B1034A012013680133136008BD00BFC7
:1034200034220020F7B50C461E46174612B93270FA
:10343000104613E00DF10701FFF7E6FF012560B923
:103440006119C9B2BD40C91B013D9DF807308D40CF
:103450001D4045FA01F1317000E0284603B0F0BD8F
:1034600007B502AB03F8011D01221946FFF7BCFFA7
:1034700020B1044A012013680133136003B05DF8E2
:1034800004FB00BF342200202DE9F34106460F461D
:103490009846154602B30DF10701FFF7B5FF012469
:1034A000C0B93919C9B2AC40491B013C8C409DF8E8
:1034B000073008FA01F1C9B223EA04030C4043EAD9
:1034C000040130468DF80710FFF7CAFF003018BF1F
:1034D000012002E0204600E0104602B0BDE8F08185
:1034E000034B01221A805A6801325A60FEF742B932
:1034F000B00500200C4B0021198059600B4B0C4A81
:103500001B68F020B3FBF2F340F2DC525343094A4C
:10351000013B5360084B83F8230007209160106043
:1035200083F82310704700BFB0050020580000202A
:1035300040420F0010E000E000ED00E013F0BEBFDD
:1035400008B5FEF701FFFEF717FFFFF7E9F9FEF7F1
:10355000F3FFBDE80840FEF71ABF0000194B10B595
:10356000198889B28A060FD5174C18489A8823887B
:1035700000880133C3F3080380B2834292B21FBFB5
:103580001348D2B2C25423800B0619D5114B124AEC
:103590001988138889B29BB299420AD013880133E3
:1035A000DBB2138013880D4A9BB2D35C054A93802B
:1035B00010BD044A938923F080031B041B0C9381E4
:1035C00010BD00BF004C0040901400209414002057
:1035D000441C0020C6100020901B0020601E00200C
:1035E0000A490B4A0B8812880133DBB292B293422C
:1035F0000AD0084AD054084A0B80938901209BB214
:1036000043F080039381704700207047C61000206C
:10361000901B0020601E0020004C0040044B1888C6
:10362000044B80B21B889BB2C01A18BF01207047A0
:10363000901400209414002010B50948094C2188EA
:10364000038889B29BB29942054AF8D013880133A6
:10365000C3F3080313801388034A9BB2D05C10BDE8
:103660009414002090140020441C0020024A0023DF
:103670001380024A13807047941400209014002095
:103680001FB5002300900C2269460848ADF80430AD
:10369000ADF80630ADF80830ADF80A20ADF80C30C2
:1036A000FFF7FAFA05B05DF804FB00BF004C0040DC
:1036B0007FB501214FF40020FFF7E0F9324C0121E2
:1036C0001120FFF7CFF94FF48063ADF800300325E8
:1036D0001823694620468DF803308DF80250FEF716
:1036E00097FF4FF400636946ADF800302046482349
:1036F000A4F544448DF803308DF80250FEF788FF9E
:1037000002A8FFF72DFB02A92046FFF719FB4FF493
:10371000E130FFF7B5FF34238DF8043001260F2385
:1037200001A88DF805308DF806308DF8076013F08C
:1037300001FE0022204640F22771FFF723FB2046BE
:1037400040F22771FFF767FB204640F22661FFF742
:1037500062FB0E4B00251D800D4B2A46204640F291
:1037600025511D80FFF70EFB204640F22551FFF743
:1037700052FB084B31461D80074B20461D80FFF74A
:10378000F5FA04B070BD00BF00100140901B00208E
:10379000C6100020941400209014002008B5FFF7F4
:1037A00087FFBDE80840FFF74DBB01231A460721FC
:1037B0006B20FFF769BE0023012206216B20FFF773
:1037C00063BE0346032202216B20FFF75DBE014664
:1037D0001920FFF745BE01461920FFF715BE034625
:1037E000032202211A20FFF74FBE034603220221C3
:1037F0001A20FFF717BE0346022204211B20FFF701
:1038000043BE0346022204211B20FFF70BBE0346E2
:10381000022204211C20FFF737BE034602220421A6
:103820001C20FFF7FFBD10B5044600F0070303227C
:1038300002211A20FFF728FEC4F3011302220121FE
:103840001B20BDE81040FFF71FBE13B5032204463E
:103850000DF1060302211A20FFF7E4FD0DF1070325
:10386000022201211B20FFF7DDFD9DF8063003F049
:103870000703237002B010BD10B5044600F0070323
:10388000032202211D20FFF7FFFDC4F300130122D4
:1038900003211D20BDE81040FFF7F6BD13B503223C
:1038A00004460DF1060302211D20FFF7BBFD0DF1BB
:1038B0000703012203211D20FFF7B4FD9DF8073007
:1038C0001B0103F010029DF8063003F007031344B8
:1038D000237002B010BD000037B50D4D00240DF16E
:1038E000070175202C70FFF78FFD58B99DF8073040
:1038F000C3F34503342B2B7006D0382B14BF0020A4
:10390000022002E0204600E0012003B030BD00BFED
:10391000C81000202DE9F04180460F4616461D468E
:103920000A209DF81840FFF7C3FA4046FFF749FF09
:103930003846FFF760FF3046FFF751FF2846FFF794
:1039400066FF2046FFF743FFBDE8F041FFF733BFB6
:1039500073B50C460A2016461D46FFF7A9FA0DF16D
:103960000700FFF74EFF9DF807300A20A34214BF5F
:1039700002240024FFF79CFA0DF10700FFF735FF42
:103980009DF807300A20B3421CBF44F00404A4B2DF
:10399000FFF78EFA0DF10700FFF73FFF9DF80730A4
:1039A0000A20AB4218BF44F00804FFF781FA0DF17A
:1039B0000700FFF710FF9DF807209DF818309A4286
:1039C00018BF44F01004204602B070BD2DE9F84342
:1039D0008146884617461E460A209DF820509DF8CD
:1039E0002440FFF765FA4846FFF7EBFE4046FFF735
:1039F00002FF3846FFF717FF3046FFF708FF28465B
:103A0000FFF73AFF2046FFF7E2FEBDE8F843FFF775
:103A1000D2BE73B50C460A2016461D46FFF748FA7B
:103A20000DF10700FFF7EDFE9DF807300A20A342D5
:103A300014BF02240024FFF73BFA0DF10700FFF743
:103A400004FF9DF807300A20B3421CBF44F0040471
:103A5000A4B2FFF72DFA0DF10700FFF7DEFE9DF887
:103A600007300A20AB4218BF44F00804FFF720FAE1
:103A70000DF10700FFF7AFFE9DF807209DF81C3001
:103A80000A209A4218BF44F01004FFF711FA0DF112
:103A90000700FFF703FF9DF807209DF818309A42B2
:103AA00018BF44F02004204602B070BD2DE9F34158
:103AB0002D4F0A240A20FFF7FBF968233B70FFF71C
:103AC0000BFF294D86B2A84686B90A20FFF7F0F908
:103AD00069233B70FFF700FF86B24EB9013CA4B2E8
:103AE000002CE7D1214B2C701C6038E0012700E04E
:103AF00002270A240025022E13D131460123002279
:103B0000019500950320FFF761FF6420FFF7D7F9C7
:103B1000019500950123002231460320FFF779FF2C
:103B200010E001230022022103200095FFF7F2FE9E
:103B30006420FFF7C4F9009501230022022103202D
:103B4000FFF706FF40B1013CA4B2002CD3D1074BD4
:103B500088F800401C6002E03C46044B1860204698
:103B600002B0BDE8F08100BF6220002034220020B6
:103B700008B5074B00221A8006490E223B20FFF7AA
:103B800013FC18B1BDE80840FFF734BB08BD00BF07
:103B9000300D0020C81000202DE9F84F254B264D90
:103BA00001281CBFAA461D46894614462349244ABB
:103BB00006BF9A468846904613F03CFA284613F012
:103BC000B1FA0428074630D14FF6FF7BB9F1000F58
:103BD00008BF4FF4FD64013405F1100624F0010420
:103BE0003444C5EB0A0AA64217D0B9F1000F03D13D
:103BF0003AF8061089B203E0731B4B4433F8101CEB
:103C0000594501D10236EEE7B0450DD9304613F0E3
:103C100043FA04280746F5D007E04FF01131284653
:103C200013F056FA074600E0802713F00DFA3846E5
:103C3000BDE8F88F00D0070800D80708FFDF0708A5
:103C4000FFD7070810B513F0F5F9074813F06AFA23
:103C50000428044603D1054813F064FA044613F01F
:103C6000F3F9204610BD00BF00D0070800D80708B0
:103C70000131C1F34F0100239AB291420AD9B3F541
:103C80007E7F09D0054A1A445200128820F813207A
:103C90000133F1E7042070478020704708E80304EF
:103CA00038B50A4604460D4601460020FFF774FF6A
:103CB000C0B2042801D080B238BD2A462146012076
:103CC000FFF76AFFC0B238BD38B5164B1D68D3F890
:103CD0000048B5F1113F07D1B4F1113F01D10420E3
:103CE0001DE0621C0ED104E06B1C0BD1B4F1113F3E
:103CF00008D1002211460120FFF74EFFC0B2042870
:103D00000DD1ECE7FFF79EFFC0B2042807D10135C3
:103D100004D1013414BF4020202000E0402080B2B4
:103D200038BD00BF00D00708034B00219A8C034B1D
:103D300019609A80704700BF002C0140A414002035
:103D4000F8B5504D022128462C8CFDF7B1FA012818
:103D5000A4B22CD14C4E02212846FDF7B4FA3368A8
:103D6000DA050ED5494A28461388013303F01F03AC
:103D700013801688FDF78CFA454BB6B223F816006F
:103D800015E014F0020F434F0BD02846FDF780FAE0
:103D90007880336824F0020443F00403A4B2336053
:103DA00005E02846FDF774FA44F002043880354DEA
:103DB00004212846FDF77CFA01283ED1324E042129
:103DC0002846FDF780FA33689B0520D53248334AF0
:103DD000C36813F4007F09D013882A8F4FF4007151
:103DE00013449BB22B87FEF76AFC26E02C490B8814
:103DF0002E8F33449BB22B872A4B1B8809885B1A72
:103E00009BB24FF400711380FEF757FC15E014F0DD
:103E1000200F254F0BD02846FDF73DFA78803368F8
:103E200024F0200443F00203A4B2336005E02846E6
:103E3000FDF731FA44F02004388008211148FDF7DD
:103E400037FA01281AD108210E48FDF73CFA14F47C
:103E5000007F164D0CD00B48FDF720FA0A4A688007
:103E6000136824F4007443F00103A4B2136005E066
:103E70000448FDF713FA44F400742880014B1C84B5
:103E8000F8BD00BF002C0140EC1400209A1B00205C
:103E9000760F00206014002000080140801B0020E5
:103EA000640E0020E01F0020920A00202E22002035
:103EB00070B5454D022128462C8CFDF7F9F90128F3
:103EC000A4B21AD102212846FDF7FDF914F0020F21
:103ED0003E4E0CD02846FDF7DBF93D4A7080136852
:103EE00024F0020443F00803A4B2136005E028465E
:103EF000FDF7CEF944F00204308004213248FDF78A
:103F0000D7F901281AD104212F48FDF7DCF914F064
:103F1000200F304D0CD02C48FDF7BDF92C4A68809D
:103F2000136824F0200443F01003A4B2136005E0EA
:103F30002548FDF7B0F944F02004288008212248E4
:103F4000FDF7B6F901281AD108211F48FDF7BBF982
:103F500014F4007F204D0CD01B48FDF79FF91C4A3C
:103F60006880136824F4007443F02003A4B2136043
:103F700005E01548FDF792F944F4007428801021FB
:103F80001148FDF795F901281AD110210E48FDF7C7
:103F90009AF914F4005F114D0CD00B48FDF781F92C
:103FA0000B4A6880136824F4005443F04003A4B221
:103FB000136005E00448FDF774F944F400542880C8
:103FC000014B1C8470BD00BF003401406C0E00200A
:103FD000EC140020961B0020CC1300203A1B00207C
:103FE00010B5062800F2DA80DFE810F0070025009F
:103FF000430061007F009D00BB00694C0022082146
:104000002046FDF77AF872B6238C664A23F40073D3
:104010001B041B0C2384136823F00103136062B696
:10402000614B1A6822F007021A6064229A8040F2FB
:10403000DC525A8210BD5A4C002204212046FDF762
:104040005CF872B6238C574A23F020031B041B0C28
:104050002384136823F00203136062B6524B1A687C
:1040600022F038021A606422DA8040F2DC529A822E
:1040700010BD4B4C002202212046FDF73EF872B6DF
:10408000238C484A23F002031B041B0C238413686F
:1040900023F00403136062B6434B1A6822F4E07203
:1040A0001A6064221A8140F2DC52DA8210BD3F4C61
:1040B000002202212046FDF720F872B6238C394AEF
:1040C00023F002031B041B0C2384136823F0080352
:1040D000136062B6344B1A6822F460621A6064227C
:1040E0005A8140F2DC521A8310BD304C0022042168
:1040F0002046FDF702F872B6238C2A4A23F02003EB
:104100001B041B0C2384136823F01003136062B696
:10411000254B1A6822F4E0421A6064229A8140F228
:10412000DC525A8310BD214C002208212046FCF7A6
:10413000E4FF72B6238C1B4A23F400731B041B0C90
:104140002384136823F02003136062B6164B1A68A9
:1041500022F460321A606422DA8140F2DC529A83DF
:1041600010BD124C002210212046FCF7C6FF72B68B
:10417000238C0C4A23F400531B041B0C2384136868
:1041800023F04003136062B6074B1A6822F4E01272
:104190001A6064221A8240F2DC52DA8310BD00BF3A
:1041A000002C0140EC140020481B0020003401408A
:1041B00010B5184C002202212046FCF79EFF72B673
:1041C000238C154A9BB243F002032384136823F423
:1041D0008073136062B600231946104A1380104A98
:1041E00022F813100133202BFAD10E4A0021136854
:1041F00023F0306313600C4B64225A801A4622F875
:10420000021B40F2DC511A3322F8021F9A42FBD102
:1042100010BD00BF002C0140EC1400209A1B0020B0
:10422000760F0020481B00209C1B00201FB5214C4E
:10423000002204212046FCF760FF72B61E4A136874
:1042400023F40073136062B640F2DC5344F620613D
:104250001A4A13801A4B19801B8810881B1A9BB2AC
:104260001380184A184B19481980136804A923F0C1
:104270008053136028238DF8033003238DF8023018
:104280004FF4007321F8103DFEF7C2F90023ADF89A
:104290000630ADF80A300F23ADF80C3004A9042322
:1042A000012221F80C3D2046ADF80820FCF758FF0C
:1042B00004B010BD002C0140EC140020640E00205E
:1042C000E01F0020481B00203012002000080140A1
:1042D00010B50C46062800F2F680DFE810F0070063
:1042E0002A004D0070009100B200D30021B9764B36
:1042F0001B68DA0707D410BD012904D1724B1B6873
:10430000DB0700F1E0800020FFF76AFE012C40F09F
:10431000DA806D4A082113686C4843F0010313608A
:10432000FCF7D1FF2246BDE8104008216748FCF7A2
:10433000E4BE21B9644B1B68180707D410BD0129DE
:1043400004D1614B1B68190700F1BD800120FFF704
:1043500047FE012C40F0B7805B4A042113685B489C
:1043600043F008031360FCF7AEFF2246BDE810409F
:1043700004215648FCF7C1BE21B9534B1B685A06AD
:1043800007D410BD012904D14F4B1B685B0600F117
:104390009A800220FFF724FE012C40F094804A4AC4
:1043A00002211368494843F040031360FCF78BFF78
:1043B0002246BDE8104002214448FCF79EBE21B9C8
:1043C000414B1B68980506D410BD012903D13E4B13
:1043D0001B68990577D40320FFF702FE012C72D1E8
:1043E000394A022113683A4843F400731360FCF71A
:1043F0006AFF2246BDE8104002213548FCF77DBE29
:1044000021B9314B1B68DA0406D410BD012903D150
:104410002D4B1B68DB0456D40420FFF7E1FD012C73
:1044200051D1294A04211368294843F48053136069
:10443000FCF749FF2246BDE8104004212448FCF760
:104440005CBE21B9204B1B68180406D410BD01299D
:1044500003D11D4B1B68190435D40520FFF7C0FD9F
:10446000012C30D1184A08211368194843F400433D
:104470001360FCF728FF2246BDE8104008211448CD
:10448000FCF73BBE21B9104B1B685A0306D410BD84
:10449000012903D10C4B1B685B0314D40620FFF7E2
:1044A0009FFD012C0FD1084A10211368084843F4DE
:1044B00080231360FCF707FF2246BDE8104010215F
:1044C0000348FCF71ABE10BD481B0020002C014019
:1044D0000034014038B505460C4621B9164B1B681F
:1044E000DA010AD438BD012907D1144B1B88834255
:1044F00003D1114B1B68DB011DD4FFF759FE012CC2
:1045000019D1C5B10C4A0D4B1D80136843F080735F
:10451000136072B60A4A136843F48073136062B67C
:1045200002210848FCF7CFFE2246BDE838400221B0
:104530000448FCF7E2BD38BD481B00209C1B00204E
:10454000EC140020002C014030B5054687B00C4625
:1045500021B9334B1B68DA000AD45EE0012907D188
:10456000304B1B88834203D12D4B1B68DB0054D496
:10457000FFF75CFE012C50D12A4B2B4A1D8040F2E4
:10458000DC531380294B06A91D801B8812884FF429
:1045900000759B1A264A9BB2138010238DF80730B2
:1045A00021F8145D032323488DF80630FEF730F818
:1045B000002229461F48FEF784F83023ADF8083062
:1045C0001D480023ADF81430ADF81630ADF81030AA
:1045D000ADF81230ADF80A30ADF80C30FCF765FEDE
:1045E00000F51C501030ADF80E0002A91248FCF77F
:1045F000B5FC0B4A136843F08053136072B60F4A40
:1046000013682B43136062B604210B48FCF75BFE72
:10461000224604210848FCF770FD07B030BD00BFFA
:10462000481B002030120020640E0020E01F0020F4
:10463000801B002000080140002C0140EC140020E9
:10464000624B1A68D10717D51A68614922F0010236
:104650001A6008884A88121A40F2EA4092B2A2F21E
:104660007B3189B2814207D85A494A8264228A80C2
:104670000A6842F004020A601A685449920717D582
:104680000A6822F002020A60534908884A88121A0E
:1046900040F2EA4092B2A2F27B3189B2814207D85D
:1046A0004C498A826422CA800A6842F020020A6069
:1046B0001A684649500717D50A6822F004020A60B2
:1046C000464908884A88121A40F2EA4092B2A2F299
:1046D0007B3189B2814207D83E49CA8264220A816D
:1046E0000A6842F480720A601A683849120717D5BE
:1046F0000A6822F008020A60394908884A88121AB2
:1047000040F2EA4092B2A2F27B3189B2814207D8EC
:1047100030490A8364224A810A6842F400620A60CE
:104720001A682A49D00617D50A6822F010020A60D2
:104730002C4908884A88121A40F2EA4092B2A2F242
:104740007B3189B2814207D822494A8364228A8117
:104750000A6842F480420A601A681C49920617D51A
:104760000A6822F020020A601F4908884A88121A43
:1047700040F2EA4092B2A2F27B3189B2814207D87C
:1047800014498A836422CA810A6842F400320A60AA
:104790001B680E4A5B0617D5136823F040031360AD
:1047A000124A118853885B1A40F2EA419BB2A3F285
:1047B0007B3292B28A4207D8064AD383642313829B
:1047C000136843F480131360704700BFEC1400209B
:1047D0002E220020481B0020920A00206014002096
:1047E0006C0E0020961B0020CC1300203A1B0020EA
:1047F0002DE9F041344C86B02568EB0161D5334E8C
:1048000030880C285DD872B6314B324A1B88928CA6
:104810009BB292B262B6304F37F81310521A40F67C
:10482000853192B28A424CD92C4A1189994248D09A
:1048300040F2EC48138137F813204FF0000E92B28B
:104840001FFA8EF1884214D9013B03F01F0337F899
:1048500013C01FFA8CFCCCEB020189B22DF81E109C
:10486000A1F27A3189B241450EF1010E03D86246B8
:10487000E6E7012100E00021013B03F01F0337F8C8
:104880001330D21A40F66D7392B29A4219D9144B72
:10489000434303F5C34328339A4212DC89B11149DB
:1048A0000DEB4003002297B2B84205D933F8027DE0
:1048B000013221F8027FF6E7642345F0006573803A
:1048C000256006B0BDE8F081481B00209C1B00203D
:1048D0009A1B0020002C0140760F0020B00500201C
:1048E00086FCFFFF9E1B0020044B1B68DB0003D5EA
:1048F00072B6034B188062B6704700BF481B002099
:10490000640E0020854B10B59A8812B31868013ADE
:1049100092B220F00201012A196001D99A8018E0B0
:1049200000229A80C20744BF41F0020119601A6850
:1049300022F004021A6072B679490A6822F0010274
:104940000A6078490A8C22F400721204120C0A845C
:1049500062B6DA88714912B30C68013A92B224F057
:104960001000012A086001D9CA8018E0240744BF5A
:1049700040F0100008600022CA801A6822F020026D
:104980001A6072B666490A6822F002020A60654936
:104990000A8C22F020021204120C0A8462B61A89D0
:1049A0005E4912B30C68013A92B224F08000012AE9
:1049B000086001D90A8118E000220A81620644BF1A
:1049C00040F0800008601A6822F480721A6072B6A3
:1049D00053490A6822F004020A6052490A8C22F004
:1049E00002021204120C0A8462B65A894B4912B3AD
:1049F0000C68013A92B224F48060012A086001D95F
:104A00004A8118E0A40544BF40F480600860002299
:104A10004A811A6822F400621A6072B640490A6834
:104A200022F008020A6040490A8C22F002021204B5
:104A3000120C0A8462B69A89384912B30C68013A9A
:104A400092B224F40050012A086001D98A8118E04A
:104A500000228A81E20444BF40F4005008601A68D2
:104A600022F480421A6072B62D490A6822F01002C0
:104A70000A602D490A8C22F020021204120C0A84CA
:104A800062B6DA89254912B30C68013A92B224F46D
:104A90008030012A086001D9CA8118E0240444BF8B
:104AA00040F4803008600022CA811A6822F4003283
:104AB0001A6072B61A490A6822F020020A601A497E
:104AC0000A8C22F400721204120C0A8462B61A8A4A
:104AD000124912B30C68013A92B224F40020012A60
:104AE000086001D90A8210BD00220A82620344BF15
:104AF00040F4002008601A6822F480121A6072B62E
:104B0000074A136823F040031360074A138C23F409
:104B100000531B041B0C138462B610BD481B0020FD
:104B2000EC140020002C0140003401400D4810B569
:104B30004288AAB10C4B013A1C6892B224F0007171
:104B4000012A196001D9428010BD00224280E20191
:104B500044BF41F0007119601A6822F000621A60C7
:104B600010BD00BF9C1B0020481B0020062828D831
:104B7000DFE800F004090E13181D2200124B18681C
:104B8000C0F340007047104B1868C0F30010704726
:104B90000D4B1868C0F3C01070470B4B1868C0F37A
:104BA00080207047084B1868C0F340307047064BB0
:104BB000588800F001007047034B1868C0F3C040EC
:104BC00070470020704700BF481B0020024B186848
:104BD000C0F34060704700BF481B0020062828D85B
:104BE000DFE800F004090E13181D2200124B1868AC
:104BF000C0F380007047104B1868C0F34010704736
:104C00000D4B1868C0F3002070470B4B1868C0F3B9
:104C1000C0207047084B1868C0F380307047064BBF
:104C20001868C0F340407047034B1868C0F3005049
:104C300070470020704700BF481B0020024B1868D7
:104C4000C0F3C060704700BF481B00202DE9F04F43
:104C500001218BB040F60400FDF704FF03238DF81B
:104C60000A3000934FF4807328220DEB020626F8D9
:104C7000203D00240AAD01274FF00F08314672484D
:104C80008DF80B200192ADF81E40ADF82070ADF804
:104C90002240ADF82480FDF7BBFC25F80C4D2946D9
:104CA0006A48FCF75DFA4FF4007331466648ADF888
:104CB00008304FF0040BFDF7ABFC29466348ADF814
:104CC0001CB0FCF74DFA4FF48061ADF808105E4857
:104CD0003146FDF79DFC4FF0080329465B48ADF8CF
:104CE0001C30FCF73DFA4FF0FF33DFF87CA1ADF844
:104CF0001430DAF80010564B0DF12809B1FBF3F12E
:104D0000013929F8181D49465048ADF81640ADF84C
:104D10001240FCF795F839464C48FCF7D9F91B21AD
:104D200003A88DF80C108DF80D808DF80E408DF8CD
:104D30000F7012F0FFFA394642F21000FDF792FEB2
:104D4000009B019A8DF80A303146402341488DF886
:104D50000B20ADF80830ADF81E40ADF82070ADF86E
:104D60002240ADF82480FDF753FC29463A48ADF8BF
:104D70001C40FCF7F5F9802331463648ADF8083081
:104D8000FDF746FC29463448ADF81CB0FCF7E8F9BD
:104D90004FF4807331462F48ADF80830FDF738FCEA
:104DA0004FF0080329462C48ADF81C30FCF7D8F921
:104DB0004FF4007331462748ADF80830FDF728FC62
:104DC0000C2329462448ADF81C30FCF7C9F94FF0F4
:104DD000FF331F4AADF81430DAF800304946B3FB10
:104DE000F2F31D48013BADF81030ADF81640ADF8B8
:104DF0001240FCF725F839461748FCF769F92E23CD
:104E000003A88DF80C308DF80D808DF80E408DF8CC
:104E10000F7012F08FFA114B114A1C60134640F2CA
:104E2000DC5143F8104B1E3223F8021F9342FBD192
:104E300040F2DC510B4B03F1180223F8021F93429E
:104E4000FBD10BB0BDE8F08F00080140002C014001
:104E500040420F000010014000340140EC140020DB
:104E6000481B00209E1B00205800002010B540F277
:104E700025510B48FDF7AFFF04460948FDF7A3FF96
:104E800064B10849084A0B881288013303F07F0394
:104E900092B293421EBF054A0B80D05410BD00BF92
:104EA000003801402C220020700B0020B81B00208D
:104EB000044B1888044B80B21B889BB2C01A18BFE1
:104EC000012070472C220020700B002010B50948EB
:104ED000094C2188038889B29BB29942054AF8D0CF
:104EE0001388013303F07F0313801388034A9BB2B6
:104EF000D05C10BD700B00202C220020B81B0020BD
:104F00001FB5002300900C2269460848ADF8043014
:104F1000ADF80630ADF80830ADF80A20ADF80C3029
:104F2000FDF7BAFE05B05DF804FB00BF0038014094
:104F3000012808B503D1BDE80840FDF795BF40F250
:104F4000255105480022FDF71DFFBDE8084040F24D
:104F500025510148FDF75FBF0038014030B5012100
:104F600085B044F20500FDF77DFD4FF48063ADF898
:104F700000304823234C69468DF803302248032330
:104F80008DF80230FDF744FB02A8FDF7E9FE02A907
:104F90002046FDF7D5FE4FF4E130FFF7B1FF2523A2
:104FA0008DF8043001250F2301A88DF805308DF808
:104FB00006308DF8075012F0BDF90022204640F26D
:104FC0002771FDF7DFFE204640F22771FDF723FF32
:104FD000204640F22661FDF71EFF0C4B00221A808E
:104FE0000B4B204640F225511A80FDF7CBFE2046A0
:104FF00040F22551FDF70FFF29462046FDF7B6FE8A
:1050000005B030BD0038014000080140700B0020A1
:105010002C22002008B50020FFF78AFF0022102173
:105020000E48FDF74EFB0E4B00221A809A8503F1C5
:105030002D0103F1AD0001F8012F8142FBD140F2B7
:10504000DC5164229A8400225A84064B03F1200228
:1050500023F8021B9342FBD108BD00BF00100140A2
:105060009020002092200020F8B5BD4C2388DA075C
:1050700040F1748172B6BB4B5D6862B6FFF718FFF2
:1050800088B12746FFF714FF58B1A68DFFF71EFF22
:10509000A38D26447E2B86F82E00F3D80133BB85E2
:1050A000F0E7A562F8BDA36AED1A022D40F2568121
:1050B000638C43BBA38D102B40F04E8140F2DC513A
:1050C000A31C04F1220223F8021B9342FBD100210E
:1050D000621892F8303092F83120C3F383051B0236
:1050E00003F4407302F2E632023104EB4505134447
:1050F0000E299B486B80EBD164238384038843F0A3
:1051000004030380B2E0012B1FD1A38D102B40F0CC
:105110002381221892F8303092F83120C3F3C3056E
:105120001B0203F4E06313445B10023004EB4505FB
:1051300003F2E6330E288A496B80EAD164238B841C
:105140000B8843F004030B8006E1022B40F08E80B5
:10515000E36A854A23F07F43934240F0FD8094F850
:105160004630002B40F0F88094F845301B070FD5EF
:1051700040F2DC51A31C04F1220223F8021B9A42E4
:10518000FBD16423A384238843F0040323806DE0D0
:1051900094F8303094F82F2003F0070342EA0323F9
:1051A0006380238E94F83320C3F3CA03A380236B58
:1051B00004F12201C3F38A33E38094F8343003F01E
:1051C0000F03DB0143EA52032381A38E94F83720B7
:1051D000C3F30A136381636BC3F3CA33A38194F8E7
:1051E000383003F01F039B0143EA9203E381238FCE
:1051F00094F83B20C3F34A132382638FC3F30A035B
:10520000638294F83C3003F03F035B0143EAD2032E
:10521000A382E36B94F83F20C3F38A13E382E38F06
:10522000C3F34A03238394F8403003F07F031B0148
:1052300043EA12136383236CC3F3CA13A383B4F842
:10524000423094F84320C3F38A03E38394F8443054
:10525000DB0043EA52132384A21C13885B0803F586
:10526000777322F8023B9142F7D18AE7628C3C4B7C
:10527000032A2CD1998DA1F109021C2A6CD893F82C
:105280002E20A82A68D193F82F2002F07F02012A4D
:1052900062D193F83000420005328A425CD19A1CF8
:1052A000114640F2DC55223321F8025B9942FBD1D2
:1052B0000021CBB2984249D992F82F5092F8303061
:1052C000013103EB0523DB1022F8023BF1E7042A4E
:1052D00042D1DA6A254922F07F428A421AD19A1CC9
:1052E000114640F2DC50223321F8020B9942FBD1E7
:1052F0001F494FF4AF6092F82D5092F82E3003EB17
:10530000052343431B0B03F5487322F8023B9142EC
:10531000F1D11BE017498A421ED1991C0A4640F27E
:10532000DC50223322F8020B9A42FBD14FF4AF60DB
:1053300091F82D5091F82E2002EB05224243120BDA
:1053400002F5487221F8022B8B42F1D16423A38429
:10535000238843F0040323800023A385F8BD00BF06
:1053600090200020B005002019000F001B00A100B4
:10537000AA2000202300A2000D4910B58B8CABB1F0
:105380000C88013B24F002029BB292B2012B0A80EE
:1053900001D98B8410BD00238B84E30744BF42F006
:1053A00002020A800B8823F004030B8010BD00BFAB
:1053B0009020002070B505460E4621B9414B1B8850
:1053C000DA0742D470BD01293FD13E4C2388DB0768
:1053D0003BD5638C834273D004282AD8DFE800F0E1
:1053E000030F111C1E0000254FF4E1306584FFF708
:1053F00087FD2A4610213448FDF763F919E001239F
:105400000DE0022331486384FFF77AFD0122102169
:105410002D48FDF756F90CE0032300E004234FF478
:10542000E1306384FFF76CFD002210212648FDF770
:1054300048F940F2DC5101232380254B03F120027F
:1054400023F8021B9342FBD170BDFFF7E3FD012E51
:1054500036D1042D34D8DFE805F00310121E2000E9
:10546000184B00244FF4E1305C84FFF749FD2246DD
:1054700010211548FDF725F91BE001220EE0114B24
:10548000022212485A84FFF73BFD012210210E48E8
:10549000FDF717F90DE0032200E00422094B4FF459
:1054A000E1305A84FFF72CFD002210210648FDF759
:1054B00008F9BDE87040034B01221A80FDF7D4BC07
:1054C00070BD00BF9020002000100140A0860100A8
:1054D00092200020024B1888C0F34000704700BFA4
:1054E00090200020024B1888C0F38000704700BF56
:1054F0009020002013B501211020FDF7B3FA1024ED
:10550000032301A910488DF80630ADF804408DF84A
:105510000740FDF77DF8002221460B48FDF7D1F842
:10552000FFF71CFDFFF776FD084B00211A46998412
:1055300022F8021B40F2DC51223322F8021B9A426D
:10554000FBD102B010BD00BF001001409020002030
:10555000030223F0404323F0FF0303F160432DE9EE
:10556000F04383FB0345A40F44EA8504354EAD1791
:10557000C4F1000E06FB05ECA4FB066767444FEA86
:10558000967C314E4CEA870C664406FB05FC4FEADC
:10559000E67904FB09CCA6FB046767444FEA967CD6
:1055A0002A4E4CEA870C664406FB05FC4FEAE67976
:1055B00004FB09CCA6FB04676744B60FDFF898C06C
:1055C00046EA8706B444224EC0F3815006FB05EE3E
:1055D000A4FB06677744B60FDFF880E046EA87064B
:1055E000B64476460EFB05F5F71704FB0756AEFBEF
:1055F00004453544A60F174C46EA8506344483FB20
:105600000445A40F44EA85040228C4EB0C050CEB06
:1056100004030BD003280FD001280BBF6D420D608F
:105620000B60136008BF1560BDE8F0836D425B42FC
:105630000D601360BDE8F0835B420B601560BDE850
:10564000F08300BF9D2B16FF60DC780B00732BC826
:105650001CBB8CFC00C7EAB8C03C412D20B5311DF5
:1056600010B50A4913F0ECFB094911F0A1FF002124
:10567000044613F09FFE054918B1204613F0DEFBE7
:1056800010BD204613F0DCFB10BD00BF000034430A
:105690000000B443024B00229A805A801A8070475F
:1056A0009A2400202DE9F041064686B0884607205E
:1056B0000121FDF7E3F901210D20FDF7D3F91825AC
:1056C000CE23032401A93D48ADF804308DF80750DE
:1056D0008DF80640FCF79CFF40F203338DF807502D
:1056E0008DF80640002506AC01A93548ADF8043018
:1056F000FCF78EFF24F8105DADF80C60314E324F90
:10570000202321464FF08040ADF80A30ADF80E500E
:10571000FBF796FB21463046FBF792FB21463846C5
:10572000FBF78EFB602321464FF08040ADF8083038
:10573000ADF81450ADF81650ADF81050ADF8125049
:10574000ADF80A50ADF80C50ADF80E80FBF706FC32
:1057500021464FF08040FBF745FC21464FF080404A
:10576000FBF782FC21463046FBF7B4FB214630466E
:10577000FBF7F4FB21463046FBF734FC214630466C
:10578000FBF772FC21463846FBF72CFC21463846D5
:10579000FBF76AFC4FF0804213889BB243F0010391
:1057A000138033889BB243F0010333803B889BB264
:1057B00043F001033B8006B0BDE8F08100080140E2
:1057C000000C014000040040000800408C4B70B504
:1057D0009A8A598A002A40F091808A4A8A48052983
:1057E00073D8DFE801F072031C2E40591988DC8859
:1057F000988991864FF08041A1F8404088871C89A4
:10580000D8895D88A2F84050948710879C881A8AAE
:1058100058897D4BA3F8404008879A8770BD198846
:10582000DC889A89A0F840104FF080410C8782876D
:105830005D881C89D889734AA2F8405094871087E4
:1058400022E01988DC889A89A0F840104FF0804146
:105850000C8782875D881C89D8896A4A9586A1F859
:105860004040888729E01C88D8889989A2F8404060
:1058700090871187598864481D89DC89A0F84010F9
:105880004FF080410D8784879C8858891B8A9486B5
:10589000A1F840008B8770BD1988DC8898899186B3
:1058A0004FF08041A1F8404088875E881D89DC89DF
:1058B0005548A0F840600D878487988859891B8ACD
:1058C000A2F840009187138770BD1C88D8889989F9
:1058D000A2F84040908711875C881889D9899486FE
:1058E0004FF08042A2F8400091879C88198A58891D
:1058F000454BA3F840401087998770BD052900F2F9
:105900005A81DFE811F05801060036008300CA0012
:1059100011011A883B4D02EB4200C2EBC00290B26B
:10592000DA8802EB4201C2EBC10291B29A89A886E1
:1059300002EB4204C2EBC40292B24FF08040A0F8E6
:10594000401082875A8802EB4204C2EBC40294B230
:105950001A8902EB4201C2EBC10291B2DA89A5F8C1
:10596000404002EB4206C2EBC60292B2A9872A87E8
:1059700050E11A8802EB4200C2EBC00290B2DA8812
:1059800002EB4201C2EBC10291B29A8902EB4204DE
:10599000C2EBC4021C4C92B2A4F840004FF080400D
:1059A0000187A2875A8802EB4205C2EBC50295B275
:1059B0001A8902EB4201C2EBC10291B2DA8902EB11
:1059C0004204C2EBC4020F4C92B2A4F84050A1872B
:1059D00022879A8802EB4201C2EBC10291B25A8936
:1059E0001B8A02EB4205C2EBC50203EB4305C3EB86
:1059F000C50392B29BB2A186A0F84020838770BDF8
:105A0000A024002000040040000800401A884FF045
:105A1000804502EB4200C2EBC00290B2DA8802EB92
:105A20004201C2EBC10291B29A8902EB4204C2EB7D
:105A3000C402844C92B2A4F840002987A2875A88F5
:105A400002EB4200C2EBC00290B21A8902EB4201A3
:105A5000C2EBC10291B2DA8902EB4204C2EBC4028A
:105A6000794C92B2A086A5F84010AA879A8802EBDA
:105A70004201C2EBC10291B25A891B8A02EB420079
:105A8000C2EBC00203EB4300C3EBC00392B29BB274
:105A9000A4F84010A287238770BD1A8802EB420445
:105AA000C2EBC40294B2DA8802EB4201C2EBC1023B
:105AB00091B29A8902EB4200C2EBC002624892B2F4
:105AC000A0F84040818702875A8802EB4204C2EB6B
:105AD000C40294B21A8902EB4201C2EBC10291B234
