:020000040800F2
:10000000003C0020252000082120000821200008B5
:100010002120000821200008212000080000000005
:100020000000000000000000000000002120000887
:100030002120000800000000212000089D36000853
:10004000212000082120000821200008212000088C
:10005000212000082120000821200008212000087C
:10006000212000082120000821200008212000086C
:10007000212000082120000821200008212000085C
:10008000490D0008550D0008212000082120000816
:10009000F93600082120000821200008212000084E
:1000A000212000082120000821200008D545000853
:1000B0002120000821200008212000082D0D000823
:1000C000390D000821200008212000082120000807
:1000D000212000085152000821200008B9B400086E
:1000E00021200008212000082120000821200008EC
:1000F00021200008212000083D4700082120000899
:10010000212000082120000831A300082120000838
:1001100019370008212000082120000821200008AC
:1001200021200008212000082120000821200008AB
:100130005FF808F110B5064C18B9236801221A823D
:1001400010BD044B1B681B68984720680A3010BD1F
:100150004C0A0020480A002010B5064C18B9236844
:1001600001221A8210BD044B1B689B6898472068C7
:100170000C3010BD4C0A0020480A002010B5204A5F
:1001800018B9136802221A8210BD1E481468002391
:1001900003802178024611F07F010DD1637A990620
:1001A00044BF0221017013F0400F037814BF43F0E5
:1001B000010323F0010314E0012920D002291DD1FD
:1001C000617901F00F039B0003F1804303F5B8430D
:1001D00011F0800F1B6806D003F03003102B07D1FD
:1001E0000123137004E003F44053B3F5805FF6E796
:1001F000054B1B681B699847024810BD184610BD87
:100200004C0A0020DA050020480A00202DE9F843B6
:10021000234FDFF8A0803C68238AC3B9267A042ED6
:1002200015D120480278012A0CD11F4A11681F4AB3
:1002300089B20A445200138053803022A8F800206B
:10024000037029E01023A8F80030072624E0A58ACF
:10025000AB4294BF042602269D4228BF1D46A369D7
:10026000284698478146002002F006F82A460146B3
:10027000484619F00DFD2946002001F09BFF238A16
:100280004FF440525B1B2382638A1D443023A8F83D
:100290000030074B65821A803B681E72BDE8F88308
:1002A0004C0A002098050020505C004002300020DD
:1002B000180600201A06002010B50A4B0A491B68D0
:1002C0004978DA7891420AD3997841B99C8834B94F
:1002D0009A72064B1B685B689847204610BD022047
:1002E00010BD00BF4C0A002014010020480A002065
:1002F00038B50E4A0E4D12682B689269D978587934
:1003000090472B689A7A7AB170B91A7962B99C7859
:1003100054B9084B1B68DB6898472B6820465A790C
:10032000DA72DA781A7338BD022038BD240A002048
:100330004C0A0020480A002038B5314B1B68187859
:1003400010F07F0004D15A7A22F020025A7238BD90
:10035000022853D15A88002A51D11A79002A4ED145
:100360005979284D21F08000840004F1804202F583
:10037000B84212682D7811F0800F14BF02F03002DD
:1003800002F44052A84239D2002A37D09B7A002B7F
:1003900034D004F1804404F5B8440A0623680CD52F
:1003A00003F03003102B23D1C4B2204601F0F0FE3D
:1003B0003021204601F070FE1AE003F44053B3F5FB
:1003C000805F15D128B9104B93F82C1001F000FF75
:1003D00001E001F0CBFE236823F4804323F0700397
:1003E0009BB283F4405343F4004343F08003236003
:1003F000064B1B685B699847002038BD022038BD5A
:100400004C0A00201401002090000020480A00201F
:1004100038B51F4B1F4D18682D78417921F08004A5
:10042000A30003F1804202F5B842126811F0800F78
:1004300014BF02F0300202F44052AC4225D244888C
:100440001CBB12B3827A02B303F1804303F5B843B5
:100450001A6809064BBF22F4E04222F4804222F0DF
:10046000400222F070024BBF92B292B282F01002B0
:1004700082F4805242F4004242F080021A60064B3D
:100480001B689B699847002038BD022038BD00BF1B
:100490004C0A002014010020480A002008B5064B31
:1004A0001A68537A43F020035372044B1B68DB69CC
:1004B0009847002008BD00BF4C0A0020480A0020D1
:1004C000054B10B51C68628A18B98B889B1A238269
:1004D00010BD0868104410BD4C0A002008B50B4B35
:1004E000002093F82C1001F073FE094B1B68187A5A
:1004F000082806D1074B4FF480521A80064B102271
:100500001A80A0F109035842584108BD900000200C
:100510004C0A0020180600201A060020F7B59E4D50
:100520009E4E2F6832683B7A092B1AD09C4B92B2B0
:1005300013445B001C68A4B2640004F1804404F519
:10054000C04423783B7063787B70A08801F0BAFECA
:10055000788020892F6801F0B5FEB880A2892B68C9
:10056000DA802B6801221A72DA885C78002A56D168
:100570001A7812F07F0238D1092C02D1FFF79CFEC5
:1005800042E0052C10D193F90320002A01DA082358
:1005900042E09A78002AFAD19A88002AF7D19B7A09
:1005A000002B00F01381F2E7032C10D1DA78012A36
:1005B00007D07C4B20461B685B699847032827D1EE
:1005C00029E09B88002BF4D1FFF768FF1CE0012C89
:1005D000EFD1DA78012AECD19A88002AE9D15B7A46
:1005E0009906E6D5FFF7A8FE0EE0012A04D10B2CF0
:1005F000DFD1FFF77DFE07E0022ADAD1012CF1D02E
:10060000032CD6D1FFF704FF002800F0DF80D0E7ED
:100610000028BCD1DAE009232A681372D2E0062C44
:1006200015D11A78520640F0E0809A785D4B012A85
:1006300002D11B68DB6972E0022A02D11B681B6AC7
:100640006DE0032A40F0D1801B685B6A67E0002CF4
:1006500041D15988002940F0C8805A6822F47F426D
:10066000B2F5003F40F0C1801A7812F07F0204D149
:100670009B88002B00F0B780B7E0012A0BD1494AD4
:100680005879126892699047002840F0AE80424B3A
:100690001B689B7A1BE0022A40F0A7805A794248E7
:1006A00002F00F018B0003F1804303F5B8431B6890
:1006B000007812F0800F14BF03F0300303F44053AE
:1006C000814280F0928012F0700F40F08E80002BFB
:1006D00040F0898089E0082C05D11B785B0640F04A
:1006E0008480324B1DE00A2C7FD11A7802F07F0201
:1006F000012A7AD19A7A002A77D05988002974D1B0
:100700005A6822F47F42B2F5803F6ED1254A58796B
:10071000126892699047002867D1254B01E0002BB1
:1007200063D02A680024548293612046984720466B
:100730004FF6FF712B681A8A8A4201D1092203E021
:10074000022800D012B908221A723BE093F9001077
:10075000002931DAD988134C01910198824202D9DB
:10076000019A1A8210E08A420ED2216891F82C0078
:10077000824201D2002105E092FBF0F100FB112240
:1007800012B901210B4A1170226892F82C209A822A
:10079000FFF73CFD16E000BF4C0A0020505C004013
:1007A00004300020240A0020140100203501000834
:1007B000590100089805002003221A72104B4FF4CB
:1007C00040521A80FFF78AFE03B0F0BD32680D4B2D
:1007D00092B213445B0000221A805A800A4B3022E6
:1007E0001A80062318E7094B9BE7094B2A681B6808
:1007F00050781B69984703289AD1064B1B689DE7E0
:1008000018060020023000201A0600207D01000892
:10081000240A00204C0A0020F8B52C4D2C68237ABD
:10082000022B4CD0042B4AD0032B01D0052B40D1F6
:10083000A169268AA9B1A6B1A38A9E4228BF1E46F5
:1008400030468847238A07469B1B2382638A002001
:100850003344638201F022FD32460146384619F0E6
:1008600029FA238A53B11A4B00214FF4405208460B
:100870001A8001F09FFC174B30221A80A38A228A2B
:1008800093422B6801D8032201E012B105221A72AB
:100890000CE006211972104B1968104B89B20B44F9
:1008A0005B001A805A800B4B30221A802B681B7A0F
:1008B00006E0072B03D10A4B1B68DB689847082327
:1008C0002A681372BDE8F840FFF708BE4C0A002002
:1008D000180600201A060020505C0040023000205C
:1008E000240A002070B50D4B00221D78AA4210D2B8
:1008F00040F60F7102F1805303F5B8539B001E6858
:1009000042F4004444F08004314021431960013234
:10091000ECE7034B40F08000186070BD140100202C
:100920004C5C004010B5134C23681A7A022A01D09F
:10093000042A04D1FFF76AFC23681B7A13E0062A15
:1009400010D15A78052A09D11A78520606D1D878DA
:10095000FFF7C8FF084B1B681B6A9847074B1B68CB
:100960009B689847082322681372BDE81040FFF780
:10097000B5BD00BF4C0A0020480A0020240A002010
:1009800070470000084B10B553F820400121204665
:1009900002F08CF82046002102F088F82046BDE8DD
:1009A0001040012102F06AB840C50108084B10B59B
:1009B00053F820400121204602F078F8204600211B
:1009C00002F074F82046BDE81040002102F056B84D
:1009D00040C501082DE9F3410746134C8500631912
:1009E00098681B690121184302F03CF803238DF835
:1009F000063004EB47041C238DF80730238B02AE2E
:100A0000DFF8288026F8043D314658F8270001F029
:100A1000FFFD4544A38B3146A868ADF8043001F0D2
:100A2000F7FD02B0BDE8F08140C5010800000020DC
:100A3000F7B507460E4E032306EB40068DF8063049
:100A400004238DF80730338B02AD0A4C25F8043DA2
:100A5000294654F8200001F0DBFD04EB8704B38B3A
:100A60002946A068ADF8043001F0D2FD03B0F0BD16
:100A700040C501080000002070B5184C85002C44CA
:100A80000E46206A012101F0E1FF4FF6FF73144981
:100A90008022CB6000230B618B61CB618B62A36AE8
:100AA0004A6116F0010F4FF440524A620B600C4647
:100AB00006D010238B600B4B2B44186919F000F8FB
:100AC000B30709D50023A360064B05491D44A86957
:100AD000BDE8704018F0F4BF70BD00BF40C501080C
:100AE000DC0500200000002010B40C4B0C684968A5
:100AF0008000D9600A4912F480420144896A18BF13
:100B000020221A6210225C6019609A60054B03492A
:100B10001844006910BC18F0D3BF00BFDC050020EA
:100B200040C501080000002010B40C4B0C68496857
:100B30008000D9600A4912F400420144896A18BF52
:100B400020221A6200225C6019609A60054B0349FA
:100B50001844806910BC18F0B3BF00BFDC0500204A
:100B600040C5010800000020CA0738B504460D46FC
:100B700005D5084B03EB8003186918F029FFAB0774
:100B800007D5044800EB84008069BDE8384018F0C0
:100B90001FBF38BD000000202DE9F74305460F4672
:100BA000404C90466619994618F0C4FF01238DF811
:100BB000073096F8303001A88DF8043096F83230BE
:100BC0008DF8053096F834308DF8063018F0C0FFF7
:100BD000780217D496F8363001A88DF8043096F8CC
:100BE00038308DF8053096F83A308DF8063018F028
:100BF000AFFF2D4B03EB85031A6A93889BB243F436
:100C000080739380B9F1020F49D118F0010F21D000
:100C1000631993F83C2001A88DF8042093F83E2036
:100C200093F840308DF805208DF8063018F090FFCD
:100C30001D4BB90503EB85031B691A6842F00202DC
:100C40001A601A6842F008021A6042BF1A6842F03D
:100C500004021A6018F0020F21D0631993F84220A1
:100C600001A88DF8042093F8442093F846308DF8BD
:100C700005208DF8063018F06BFF0B4B03EB850554
:100C8000AB691A6842F002021A601A6842F0080260
:100C90001A60FA0442BF1A6842F004021A6003B0F4
:100CA000BDE8F08340C50108000000202DE9F347AE
:100CB0008A461D4E9946371800238DF805308DF869
:100CC00006308DF8073097F8303002AC04F8043D58
:100CD00005462046904618F03BFF1AF4800F06D1D7
:100CE00097F8363020468DF8043018F031FFB9F10E
:100CF000020F15D118F0010F07D0731993F83C308B
:100D000020468DF8043018F023FF18F0020F07D0AA
:100D1000354495F8423020468DF8043018F018FF1D
:100D200002B0BDE8F08700BF40C50108014800F0EF
:100D3000CBBE00BF2800002008B5024800F09EFB93
:100D4000002008BD28000020014800F007BC00BFBB
:100D500028000020014800F08FBC00BF28000020C0
:100D600030B5058C25F001052D042D0C0584058B6F
:100D7000048CADB225F0F3052A4342EA03139AB27C
:100D8000104BA4B2984212D003F5006398420ED0E3
:100D9000B0F1804F0BD0A3F59833984207D003F5FC
:100DA0008063984203D003F58063984202D124F017
:100DB000020401E024F00A0444F001042143028308
:100DC000018430BD002C014030B5048C24F01004A7
:100DD0002404240C0484058B048C25F440752D0513
:100DE0002D0D45EA022242EA0333144AA4B290428E
:100DF0009BB212D002F5006290420ED0B0F1804F4B
:100E00000BD0A2F59832904207D002F58062904252
:100E100003D002F58062904207D124F0200444F010
:100E2000100444EA011189B204E024F0A00444F063
:100E3000100421430383018430BD00BF002C014016
:100E4000224A038890429BB212D002F5006290427F
:100E50000ED0B0F1804F0BD0A2F59832904207D05F
:100E600002F58062904203D002F58062904203D185
:100E70004A8823F070031343154A904208D002F5C4
:100E8000806290421FBF23F44073CA889BB2134311
:100E900003808B8883850B8803850C4B98420FD089
:100EA00003F5006398420BD003F54063984207D0E6
:100EB00003F58063984203D003F58063984201D123
:100EC0000B7A038601238382704700BF002C014008
:100ED00000100040038C70B523F001031B041B0CB1
:100EE0000384028C8688038B0D8823F073031B0414
:100EF0001B0C1D4322F002020C894B881204120CB9
:100F000023431343144AB6B290429BB20FD002F56A
:100F1000006290420BD002F54062904207D002F589
:100F20008062904203D002F5806290420ED14C89DB
:100F300023F008031C438B8824F0040426F4407239
:100F400023438E89CC893443224396B2CA88868053
:100F500005838286038470BD002C0140038C30B56C
:100F600023F010031B041B0C0384038C8588028B65
:100F70000C8822F4E6421204120C42EA042223F006
:100F8000200394B21B040A891B0C43EA02134A880B
:100F9000ADB243EA0213124A9BB2904203D002F56B
:100FA0000062904215D123F080034A899BB243EA44
:100FB00002124FF6BF7313408A8825F4406543EA56
:100FC00002138A899BB245EA8205CA8945EA8205ED
:100FD000ADB2CA88858004830287038430BD00BF18
:100FE000002C0140038C30B523F480731B041B0CD0
:100FF0000384038C8488828B0D8822F07302120490
:10100000120C23F4007315431B040A891B0C43EADA
:1010100002234A88A4B243EA0223124A9BB29042B6
:1010200003D002F50062904215D123F400634A898F
:101030009BB243EA02224FF6FF3313408A8824F41E
:10104000405443EA02238A899BB244EA0214CA89C3
:1010500044EA0214A4B2CA88848085838287038408
:1010600030BD00BF002C0140038C30B523F4805309
:101070001B041B0C0384038C8488828B0D8822F450
:10108000E6421204120C23F4005342EA05221B0428
:101090000D891B0C43EA05334D88A4B243EA05339E
:1010A0000A4D92B2A8429BB203D005F50065A84252
:1010B00005D18D8924F4804444EA8514A4B2848047
:1010C0008283CA88A0F84020038430BD002C0140F0
:1010D000038819B19BB243F0010303E023F001033D
:1010E0001B041B0C0380704783899BB20AB1194310
:1010F00001E023EA010181817047FFF7F5BF038B0F
:1011000023F00C031B041B0C0383038B9BB21943BA
:1011100001837047038B23F440631B041B0C038380
:10112000038B9BB243EA012189B201837047838B11
:1011300023F00C031B041B0C8383838B9BB219438A
:1011400081837047838B23F440631B041B0C8383D0
:10115000838B9BB243EA012189B2818370470000EF
:10116000F8B50E880D460B898A880446498836B939
:10117000FFF7F6FDE988BDE8F840FFF7C0BF042E91
:1011800006D1FFF721FEE988BDE8F840FFF7C2BFAE
:10119000082EEF88008C39D120F480700004000CF8
:1011A0002084A68B208CB6B226F0F30646EA031301
:1011B0009BB21A43354B80B29C4212D003F50063B8
:1011C0009C420ED0B4F1804F0BD0A3F598339C42D3
:1011D00007D003F580639C4203D003F580639C42F3
:1011E00007D120F4007040EA012080B240F4807002
:1011F00004E020F4206341F480701843A283394650
:1012000020842046BDE8F840FFF791BF20F48050CD
:101210000004000C2084A68BB4F820E026F440756E
:101220002D052D0D45EA0225184A45EA033394425F
:101230001FFA8EFE9BB212D002F5006294420ED0CD
:10124000B4F1804F0BD0A2F59832944207D002F54A
:101250008062944203D002F58062944207D12EF45A
:10126000005040EA013080B240F4805006E047F67A
:10127000FF5241F480500EEA02021043A383394624
:1012800020842046BDE8F840FFF75CBF002C0140F9
:10129000808E80B27047008F80B27047808F80B29E
:1012A0007047B0F8400080B27047808C80B27047C1
:1012B000038A828911EA030092B203D0114214BF5B
:1012C000012000207047C94389B20182704780F332
:1012D0000888704780F3108870474FF0FF328261B2
:1012E00010220273FF22026101F0EABF037B70B596
:1012F000012B044605D0037B102B02D0037B002B6F
:1013000062D12078314D55F82020138823F0010355
:101310001B041B0C1380FFF78BFB2078FFF746FBA9
:10132000E378022B03D161782078FFF71DFC207849
:10133000FFF728FB2078FFF74DFB2378E16955F88C
:10134000230003889BB243F00103038018F036FCAE
:101350006269207812F4801F07D01C4B53F82010CC
:101360000B889BB243F040030B80D10712D555F890
:10137000201002F0FE068B899BB243F001038B81A3
:101380008B8923F0FE031B041B0C8B818B899BB282
:1013900033438B81530007D555F820100B8823F475
:1013A00080631B041B0C0B80E378022B02D1617855
:1013B000FFF762FBE378207862786169FFF7ECFB66
:1013C00001232373002070BD012070BD2000002088
:1013D000037B10B5012B044604D0037B102B01D0F6
:1013E000037B13BB2078FFF723FB2078104B53F8C7
:1013F0002020138823F001031B041B0C1380FFF72C
:10140000D5FAE378022B03D161782078FFF7ACFBA3
:10141000E378207862786169FFF748FC00204FF09C
:10142000FF3320732061A36110BD012010BD00BFF8
:10143000200000200F4A1049034611604BF6FF714F
:10144000D1804FF4806151814FF48041002091811F
:1014500003211081908059700221D9704FF0FF3123
:101460001873987018615860986058619961DA61D2
:10147000704700BF08060020A0860100837810B5E1
:10148000012B0478344B38D142685268002A34D199
:10149000027B012A02D0027B062A2ED153F8242097
:1014A0004FF2FF039382C378012B53D1938823F427
:1014B00000731B041B0C9380938823F480631B042C
:1014C0001B0C938006238361138B9C0705D58369CE
:1014D000012B02D083690133F6D18369012B02D03D
:1014E0008369013303D1BDE81040FFF7F6BE4FF02A
:1014F000FF338361012303732CE053F824309A8A6D
:1015000002F470620261102202734FF2FF029A82AB
:101510000269D1050AD51A886FEA42426FEA52423F
:1015200092B21A801A88C2F30E021A8002699205DA
:101530000AD51A886FEA42426FEA524292B21A8082
:101540001A88C2F30E021A800369036901692046F2
:1015500001F0D2FE002010BD200000204FF0FF332C
:1015600070B43F4A836103783E4952F8234051F8F2
:10157000235022682A4253D04268466900215160B4
:10158000720461D48278002A5ED1374A52F823204F
:10159000918821F400610904090C91800521816181
:1015A000918A490705D48169012902D081690131F5
:1015B000F6D1816901291DD0816901311AD04FF01E
:1015C000FF31360281611BD4118889B241F4007168
:1015D000118006218161118B890705D58169012957
:1015E00002D081690131F6D18169012902D0816976
:1015F000013102D170BCFFF770BE4FF0FF31816145
:101600001A4951F82360316821F001013160918855
:1016100021F400710904090C91800122027313E086
:10162000134A216852F8232011420DD1114A216832
:1016300052F82320114207D00C49102251F82310F0
:101640000273496842685160094A0A4952F82320E6
:1016500051F823302A4313436360002070BC704765
:1016600048000020B0C50108200000201000002024
:10167000A8C50108A0C501084FF0FF3370B4374A70
:1016800083610378364952F8234051F82350226889
:101690002A4243D08268002151604269160451D425
:1016A0008278002A4ED12F4A52F82320118889B21D
:1016B00041F400711180918821F400610904090C42
:1016C000918006218161118B890705D581690129E6
:1016D00002D081690131F6D18169012902D0816985
:1016E000013102D170BCFFF7F8BD4FF0FF318161CD
:1016F0001D4951F82360316821F001013160918862
:1017000021F400710904090C9180918821F4805121
:101710000904090C91800122027313E0134A216825
:1017200052F8232011420DD1114A216852F823208A
:10173000114207D00C49102251F823100273496856
:1017400082685160094A0A4952F8232051F823302F
:101750002A4313436360002070BC70474800002098
:1017600098C50108200000201800002090C501083D
:1017700088C50108F8B50F4D00244FF0FF3610273B
:1017800055F8240088B1836943B9866107730369FA
:101790005BB9FF23036101F093FD06E08369013328
:1017A0001EBF836903F1FF3383610134022CE7D14B
:1017B000F8BD00BF5000002038B5C3780446012BA7
:1017C00002D0022B0AD047E00278264B53F82220A1
:1017D00093889BB243F48063938041E00078214D6D
:1017E00055F82020938823F400731B041B0C93806E
:1017F00093889BB243F400639380237B062B01D034
:1018000001290ED162696168FFF76EF9227855F8F7
:1018100022108B8823F480531B041B0C8B80124BEB
:1018200013E0237B0A2B01D0022919D16269A16838
:10183000FFF77AF9A378227833B955F822108B880C
:101840009BB243F480538B80084B53F822201368DB
:1018500043F00103136003E010230373012038BD3C
:10186000002038BD200000201000002018000020BB
:1018700038B5037B044698074BD4237B032B48D011
:10188000237B052B45D0237B002B42D0237B102BC1
:101890003FD06269022312F0807F23731E4D2378AC
:1018A0001AD1062155F82300A161018B890705D5BE
:1018B000A169012902D0A1690131F6D1A1690129EB
:1018C00002D0A169013104D12046BDE83840FFF7BC
:1018D00004BD4FF0FF31A161A17881B955F8231003
:1018E0000B889BB243F480730B80D30303D5012193
:1018F0002046FFF761FF032323731F23A36123788F
:10190000002055F8232093889BB243F40073938002
:1019100038BD012038BD00BF2000002038B5037B52
:101920000446990700F1CB80037B032B00F0C780AE
:10193000037B052B00F0C380037B002B00F0BF80EE
:10194000037B102B00F0BB800223037343695D4DC2
:1019500013F0807F16D106228261027855F822109A
:101960000A8B920705D5A269012A02D0A269013229
:10197000F6D1A269012A7CD0A269013279D04FF058
:10198000FF32A261E278022A07D1A2685268012AD6
:1019900002BF43F400136361E2706169CB0371D449
:1019A000A378002B6ED1237855F823301A8892B291
:1019B00042F480721A801F22A2619A8AD00705D44D
:1019C000A269012A02D0A2690132F6D1A269012AD4
:1019D0004FD0A26901324CD04FF0FF32A261E269D0
:1019E0009289B2F5804F18D1A268926802F0FE0287
:1019F0001A820422A2619A8A920705D4A269012A56
:101A000002D0A2690132F6D1A269012A31D0A269BD
:101A100001322ED04FF0FF32A2619A8A1A8B032234
:101A2000A2619A8A100605D4A269012A02D0A2698D
:101A30000132F6D1A269012A1BD0A269013218D065
:101A40004FF0FF328903A26122D4A268127B1A826E
:101A50000322A2619A8A120605D4A269012A02D041
:101A6000A2690132F6D1A369012B02D0A369013327
:101A700004D12046BDE83840FFF72FBC4FF0FF33BC
:101A8000A36105E0E178022902D12046FFF794FE28
:101A900005232373A378227843B955F822100B88C5
:101AA0009BB243F480730B801F23A36155F822205F
:101AB000002093889BB243F40073938038BD0120CB
:101AC00038BD00BF2000002073B50023ADF80630FC
:101AD000914E0378044656F823309A8A02F0DF02CA
:101AE000ADF806208278FAB9BDF80620D5071DD5D5
:101AF0004FF0FF328261C2699289B2F5804F13D1F3
:101B0000027B052A07D18268926842F00102D2B2B4
:101B10001A820A2305E04268926802F0FE021A82E5
:101B2000062323730423A361002542E1BDF80620A8
:101B300002F0020292B2002A69D0C17802290BD1C8
:101B4000027B062A01D1426803E0027B0A2A03D104
:101B500082685268013201E04FF0FF32A261227BBD
:101B60000A2A0DD101290BD1A268556845B91A88F6
:101B700092B242F400721A809A8A1B8B217318E188
:101B8000237B0A2B05D1012903D102212046FFF72F
:101B900013FE237856F823309A8A1A8B227B0A2A5E
:101BA0000ED1A2685268012A0AD11A8822F48062F2
:101BB0001204120C1A801A8892B242F400721A802F
:101BC000626912F48035AFD1217B06291AD19003C6
:101BD00018D46268127B1A820322A2619A8A1106C3
:101BE00005D4A269012A02D0A2690132F6D1A36903
:101BF000012B00F0C980A369013300F0C5804FF0CC
:101C0000FF33A36103212046FFF7D6FDD1E0BDF8E5
:101C100006100A064BD5017B062948D1C178012957
:101C200082D141684D6865B1086804781C824B68B0
:101C3000013B4B604B68002B3FF476AF01300860EE
:101C400072E7426912F4000101BF1A8892B242F4AD
:101C500000721A809A8822F400721204120C9A8080
:101C60009A8822F480621204120C9A800622826101
:101C700081B99A8A02F084027AB1A269012A0CD051
:101C8000A2690132F5D108E0A269012A05D0A26952
:101C9000013202D09A8A1606F6D4A369012B73D0BA
:101CA000A369013370D04FF0FF33A3617FE0BDF82B
:101CB000062050067FF538AF227B0A2A7FF434AF26
:101CC000E278012A7FF430AFA1684A68022A0A68E4
:101CD00017D11B8A1370237856F82320138823F416
:101CE00080631B041B0C138013889BB243F40073A6
:101CF0001380A3685A68013A5A601A6801321A6060
:101D000013E049681B8A0129137007D1A268536840
:101D1000013B536009E000BF20000020A3681A685F
:101D200001321A605A68013A5A60A3685D68002D52
:101D30007FF4FAAE237856F823309A8822F40072A2
:101D40001204120C9A809A8822F480621204120CF7
:101D50009A809A8A1A8A6269910241BF22F400121B
:101D600062610222E2700622A2611A8B920705D5F7
:101D7000A269012A02D0A2690132F6D1A269012A20
:101D800002D0A269013204D12046FFF7A6FA054627
:101D90000FE04FF0FF32A2611A8892B242F48062E3
:101DA0001A801A8822F400621204120C1A8001238D
:101DB0002373284602B070BD2DE9F743534E00232C
:101DC000B046534FADF806303B68524A99B21B04F7
:101DD000118040F19880138803F00F033370002BBB
:101DE00063D14D4C4D4D23684D499BB22B802B88C0
:101DF000894603F030030B802B8803F440532B807B
:101E00004BF6BF732068034083F4005383F0200334
:101E100043F4004343F080032360138813F0100F52
:101E200007D148F60F73226813402360FEF77AFD4E
:101E30001AE023689BB2ADF80630BDF806301A05EB
:101E400007D540F68F73226813402360FEF766FBC8
:101E50000AE0BDF806301B04B6D540F68F73226841
:101E600013402360FEF7D8FC4BF6BF732268134083
:101E70002A88D6042A8848BF83F480539504B9F889
:101E8000002048BF83F40053D406B9F8002048BFAF
:101E900083F01003900648BF83F0200343F400430F
:101EA0001D4A43F0800313602DE09A0002F1804246
:101EB00002F5B842116889B2ADF80610BDF80610F7
:101EC000090409D540F68F711068013B014011608B
:101ED000144A52F823309847BDF806301A067FF5A9
:101EE00073AF48F60F7198F80020930003F1804318
:101EF00003F5B8431868013A014019600A4B53F8DA
:101F00002230984760E703B0BDE8F083280A00203C
:101F1000445C0040F8370020005C004018060020B8
:101F20001A0600202C01002048010020384B82B006
:101F30001A6842F001021A605968364A0A405A602B
:101F40001A6822F0847222F480321A601A6822F42D
:101F500080221A605A6822F4FE025A604FF41F026F
:101F60009A600022009201921A6842F480321A604C
:101F70001A6802F400320192009A01320092019A2A
:101F80001AB9009AB2F5A06FF2D11A6812F40032B1
:101F900018BF01220192019A012A05D01E4B4FF071
:101FA00000629A6002B070471C4A116841F010014B
:101FB0001160116821F003011160116841F0020104
:101FC00011605A685A605A685A605A6842F48062CE
:101FD0005A605A6822F47C125A605A6842F4E81235
:101FE0005A601A6842F080721A601968084A8901BA
:101FF000FBD5516821F003015160516841F00201A5
:1020000051605A6802F00C02082AFAD1C6E700BFF4
:10201000001002400000FFF800ED00E00020024048
:10202000FEE7000008B50C4A0C4B0D498B4204D268
:1020300052F8040F43F8040BF8E70A480A494FF036
:1020400000028842B8BF40F8042BFADBFFF76EFFAE
:10205000BDE8084014F0EABB00EA010800000020D7
:102060009405002098050020FC3700204FF6F873F7
:10207000014A034013607047505C0040800000F14B
:10208000804000F5B840036823F4EC4323F070036C
:10209000194389B201607047800000F1804000F56B
:1020A000B8400368CA0623F4E04323F040039BB220
:1020B00048BF83F010038A0648BF83F0200343F42F
:1020C000004343F0800303607047800000F18040CC
:1020D00000F5B8400368CA0423F4804323F070037A
:1020E0009BB248BF83F480538A0448BF83F40053F3
:1020F00043F4004343F0800303607047800000F125
:10210000804000F5B840036823F4E04323F0400327
:102110009BB283F0300343F4004343F08003036039
:102120007047800000F1804000F5B840036823F458
:10213000804323F070039BB283F4405343F4004385
:1021400043F0800303607047800000F1804000F599
:10215000B840036823F4F8731B051B0D43F40043D8
:1021600043F0800303607047FFF7EEBF800000F18B
:10217000804000F5B84003685B0408D540F60F7353
:102180000268134043F4404343F080030360704708
:10219000800000F1804000F5B84003685B0608D578
:1021A00040F60F730268134043F4004343F0C0034A
:1021B00003607047044B1B689BB203EBC000034BEA
:1021C00003445B0019607047505C004002300020FF
:1021D0000D4B3E291B689BB203EBC0000B4B034425
:1021E0004FEA430209D94B09C80604BF03F1FF3384
:1021F0009BB29B0243F4004304E04B08C90748BF6D
:1022000001339B0213607047505C00400630002091
:10221000064B49081B6849009BB203EBC00000F164
:10222000005000F54050400001607047505C004095
:10223000FFF7EEBF054B49081B6849009BB203EB53
:10224000C000034B03445B0019607047505C0040C2
:1022500004300020FFF7EEBF064B1B689BB203EB78
:10226000C00000F1005000F540504000006880B20E
:10227000704700BF505C0040FFF7EEBF054B1B6886
:102280009BB203EBC000044B03445B00186880B2B0
:10229000704700BF505C004004300020FFF7EEBFE5
:1022A000054B1B689BB203EBC000044B03445B006F
:1022B0001868C0F309007047505C004006300020E9
:1022C000FFF7EEBFC3B2000A40EA032070470023C5
:1022D00030B51D46DCB2A2420CD9040F092C94BFC4
:1022E0003034373401F8134001EB430400016570CA
:1022F0000133EFE730BD000038B5114B1A6859685B
:102300003C2A88B205D93C313C3A59601A603C25D8
:1023100004E095B20A445A6000221A6001241C723B
:10232000084B2A461844C02117F0B2FC2046294623
:10233000FFF740FF2046BDE83840FFF7DFBE00BF93
:102340009C0500201C06002007B50121082000F094
:1023500089FB2023ADF8043003238DF8063001A952
:10236000102304488DF8073000F052F903B05DF8EF
:1023700004FB00BF000C014008B5002000F014FB76
:10238000BDE8084001214FF4000000F077BB07B51D
:102390004FF4A06017F0D2FB14238DF80430022311
:1023A0008DF805308DF8063001A801238DF807302F
:1023B00017F0CEFB03B05DF804FB0000202110B144
:1023C000024800F07AB9014800F079B9000C0140E8
:1023D000094A0A4B10B51B681468506818180AD0CF
:1023E00008220749FFF773FF2046BDE8104004228A
:1023F0000449FFF76CBF10BDECF7FF1FE8F7FF1FA4
:102400006E0000207E0000200246F0B50A4D0B4E03
:102410000B4F131A9BB299420CD92B883488013385
:10242000C3F30803A4B2A34204D012F8014BFC5436
:102430002B80EEE7F0BD00BF1E0A00201C08002024
:102440001E080020054B1A7A012A05D11A680AB91C
:102450001A727047FFF750BF704700BF9C050020FD
:102460000C4B1A7A012A14D05A680A49B2F5007F37
:1024700004BF00225A605A68DB689A4202D10023E6
:102480000B7270478CBFC2F500729A1A0A60FFF790
:1024900033BF70479C050020064B10B5D968064C29
:1024A0004A1CB2F5007FDA60605404BF0022DA6093
:1024B00010BD00BF9C0500201C060020013938B566
:1024C000451E4418A54204D015F8010FFFF7E4FF9C
:1024D000F8E738BD044B1888044B80B21B889BB2C8
:1024E000C01A18BF012070471E0A00201C080020D7
:1024F00010B50948094C2188038889B29BB29942DA
:10250000054AF8D013880133C3F3080313801388F6
:10251000034A9BB2D05C10BD1C0800201E0A00209C
:102520001E080020024A00231380024A13807047CD
:102530001C0800201E0A0020044A00231380044ABD
:102540001380044A13605360D36070471C08002056
:102550001E0A00209C05002008B5264B984206D193
:102560000121042000F096FA002104203CE0224BD7
:10257000984206D10121082000F08CFA00210820A1
:1025800032E01E4B984206D10121102000F082FA61
:102590000021102028E01A4B984206D1012120206A
:1025A00000F078FA002120201EE0164B984206D158
:1025B0000121402000F06EFA0021402014E0124B6F
:1025C000984206D10121802000F064FA0021802089
:1025D0000AE00E4B98420BD101214FF4807000F0BD
:1025E00059FA00214FF48070BDE8084000F052BA5B
:1025F00008BD00BF00080140000C01400010014070
:102600000014014000180140001C0140002001405E
:10261000CA782DE9F041D40648BF8C780E8802F0C4
:102620000F0348BF234316F0FF0F1ED0016800249C
:102630004FF0010E4FF00F0C0EFA04F737EA0605C3
:102640000FD1A5000CFA05F821EA080103FA05F5F7
:10265000282A41EA050101D1476102E0482A08BF62
:1026600007610134082CE7D10160FF2E20D94168B1
:1026700000244FF0010E4FF00F0C04F108050EFA84
:1026800005F535EA06070FD1A7000CFA07F821EA8D
:10269000080103FA07F7282A41EA070101D1456139
:1026A00002E0482A08BF05610134082CE5D14160E9
:1026B000BDE8F081806880B2704701617047416178
:1026C00070470AB10161704741617047034B9B7AC3
:1026D00013B1034B05221A60704700BF2C0A00207B
:1026E000B0050020014B04221A607047B00500209D
:1026F000034B1A78202A04BF00221A70704700BFCB
:10270000AC05002070470000212810B508D1114BFE
:102710001B681B7803F07F03212B10D0022010BD13
:102720002028FBD10B4B0C4A1B681B78107003F060
:102730007F03212B094B18BF00230BB9EEE7084B91
:10274000044A002412682046936154829847204628
:1027500010BD00BF4C0A0020AC05002099270008DE
:10276000B1270008074B1B681B7803F07F03212B60
:1027700006D100F0DF00022814BF022000207047BD
:10278000022070474C0A002021B901288CBF02208A
:10279000002070470220704720B9034B08221B68B5
:1027A0001A827047014870474C0A002088000020B8
:1027B000FFF7F2BF10B5FFF70BFE054B00241B68B7
:1027C0009C7200F095F800F027FB024B1C6010BDD6
:1027D0004C0A0020B0050020334B344A1B68D279E4
:1027E00010B500245A729C72DC722046FFF73EFC42
:1027F0004FF400712046FFF741FC10212046FFF7FF
:102800004BFC40212046FFF725FD80212046FFF7A5
:102810000FFD2046FFF7A8FC254B204693F8341007
:10282000FFF7D6FC2046FFF77CFC21460120FFF78E
:1028300025FCC0210120FFF7FBFC20210120FFF730
:102840002BFC21460120FFF740FC4FF4C061022021
:10285000FFF714FC4FF480710220FFF7E9FC2146DA
:102860000220FFF732FC20210220FFF715FC214651
:102870000320FFF703FC4FF488710320FFF7EAFC05
:1028800040210320FFF7A4FC4FF440510320FFF741
:102890001CFC21460320FFF7FFFB2046FEF722F831
:1028A000044B01221A6010BD4C0A002014C6010816
:1028B00088000020B00500200149FDF701BE00BFDF
:1028C000C00000200149FDF7FBBD00BFC80000208B
:1028D000054B1B68DB78042B04D8044901EBC301CA
:1028E000FDF7EEBD002070474C0A0020D00000200C
:1028F00008B50120FFF762FD064B01221A60064A67
:1029000000200649186010604FF4E0520A801A60F7
:1029100008BD00BF405C0040445C0040500A0020FD
:10292000064B074A0749136002221A72064B074AF0
:102930001360074A1B681160184700BF2C0A00206B
:102940004C0A0020F000002090000020240A002003
:10295000480A00200D4B1A6842F001021A605968BB
:102960000B4A0A405A601A6822F0847222F48032BC
:102970001A601A6822F480221A605A6822F4FE0251
:102980005A604FF41F029A60704700BF0010024067
:102990000000FFF8034A536823F003031843506014
:1029A000704700BF00100240014B1860704700BF25
:1029B000D8004242034A536823F44043184350600E
:1029C000704700BF001002401C4A10B5536803F066
:1029D0000C03042B01D0082B01D0194B0EE05368D7
:1029E0005168C3F38343CC0303F1020302D551685A
:1029F000890301D5134900E011494B430360536833
:102A00001149C3F30313CC5C0368E340436054688B
:102A1000C4F302240C5D23FA04F484605468C4F304
:102A2000C2240C5DE340C3605268C2F381320A44A1
:102A3000127CB3FBF2F3036110BD00BF0010024033
:102A400000127A0000093D0016010020044B5A696B
:102A500009B1104301E022EA00005861704700BF4D
:102A600000100240044B9A6909B1104301E022EAC8
:102A700000009861704700BF00100240044BDA6903
:102A800009B1104301E022EA0000D861704700BF9D
:102A900000100240044BDA6809B1104301E022EA59
:102AA0000000D860704700BF00100240044B1A6954
:102AB00009B1104301E022EA00001861704700BF2D
:102AC000001002404209012A074B01D11B6803E0B4
:102AD000022A0CBF1B6A5B6A00F01F0023FA00F099
:102AE00000F00100704700BF00100240024A536A24
:102AF00043F080735362704700100240436810B582
:102B000023F470220B6822F4807213430A7943EA9B
:102B100002234360CA688B6884681A43084B2340C9
:102B200013434A7943EA42038360C36A23F4700281
:102B30000B7C013BDBB242EA0353C36210BD00BF12
:102B4000FDF7F1FF836811B143F0010301E023F0C9
:102B5000010383607047836811B143F4807301E01F
:102B600023F4807383607047836843F008038360B5
:102B700070478068C0F3C0007047836843F0040367
:102B8000836070478068C0F380007047836811B12C
:102B900043F4A00301E023F4A003836070470929F4
:102BA00070B50DD9A1F10A04C66804EB44040725E9
:102BB000A54026EA050503FA04F42C43C4600AE0A4
:102BC000066901EB41040725A54026EA050503FA3D
:102BD00004F42C430461062A0CD8013A446B02EB3E
:102BE00082021F23934024EA030301FA02F21A43EC
:102BF000426370BD0C2A0CD8073A046B02EB8202C8
:102C00001F23934024EA030301FA02F21A430263EA
:102C100070BD0D3AC46A02EB82021F23934024EA7E
:102C2000030301FA02F21A43C26270BDC06C80B2A3
:102C30007047000008B5214B98420BD101214FF499
:102C40008040FFF727FFBDE8084000214FF4804097
:102C5000FFF720BF1A4B984208D101214FF40030F2
:102C6000FFF724FF00214FF4003022E0154B98427B
:102C700008D101214FF48020FFF718FF00214FF405
:102C8000802016E0104B984208D101214FF400201B
:102C9000FFF70CFF00214FF400200AE00B4B984295
:102CA0000BD101214FF48010FFF700FF00214FF4FA
:102CB0008010BDE80840FFF7F9BE08BD00380140AC
:102CC0000044004000480040004C004000500040DC
:102CD00070B50E460446038ACA889BB223F440535B
:102CE0001343038282898988338992B20B437189A5
:102CF00022F4B0520B4322F00C0213439BB28381A7
:102D0000838AB2899BB223F4407386B013438382D3
:102D100001A8FFF759FE174A039B049D31689442AE
:102D200018BF1D4619226A43A389642613F4004F75
:102D300014BF4D008D00B2FBF5F5B5FBF6F0A2898E
:102D400000010109120406FB115307D5D9003231E5
:102D5000B1FBF6F202F00702104306E01A0132322C
:102D6000B2FBF6F303F00F03184380B2208106B0E4
:102D700070BD00BF003801404B8810B50C88028A36
:102D800023438C88C98892B223430B4322F4706298
:102D900013439BB2038210BD0023038043808380D2
:102DA000C3807047838919B19BB243F4005303E099
:102DB00023F400531B041B0C83817047012310B5BF
:102DC000C1F342149C4201F01F0103FA01F101D149
:102DD0000C3003E0022C0CBF1030143003680AB131
:102DE000194301E023EA0101016010BD838A9BB20F
:102DF0000AB1194301E023EA010181827047C94306
:102E000089B201807047090A012303FA01F1C9431D
:102E100089B2018070470000044B0020044A18600A
:102E20004FF406431380034A13607047445C00402C
:102E3000500A0020405C004070B500F07F05284635
:102E40000E46FFF73DFA04462846FFF727FA2246CA
:102E50000146304616F02EFF204670BD034B044A53
:102E60005A6002F188325A60704700BF0020024069
:102E700023016745FFF7F2BF024A136943F080035D
:102E80001361704700200240FFF7F6BF084BDA6875
:102E9000D10709D4DA68520708D4DB6813F0100FA1
:102EA00014BF0320042070470120704702207047A0
:102EB0000020024010B50446FFF7E8FF012806D1C4
:102EC0001CB1FFF7E3FF013CF8E7052010BD002C23
:102ED00008BF052010BD000070B505464FF4005036
:102EE0000E46FFF7E7FF04280ED1084C4FF40050C0
:102EF000236943F0010323612E80FFF7DBFF41F6D6
:102F0000FE7322691340236170BD00BF00200240A0
:102F100073B5002306464FF400500D460193FFF7AA
:102F2000C9FF04281AD10E4C4FF40050236943F016
:102F300001032361ABB23380FFF7BCFF042808D143
:102F400002360196019B2D0C1D804FF40050FFF7B7
:102F5000B1FF41F6FE7322691340236102B070BDD8
:102F60000020024038B505464FF43020FFF7A2FF9D
:102F7000042812D1094C4FF43020236943F0020396
:102F800023616561236943F040032361FFF792FFEA
:102F900041F6FD7322691340236138BD00200240D1
:102FA00010B5074C40F225512046FFF72CFF204674
:102FB000BDE81040012240F22551FFF7FFBE00BFDF
:102FC000004C004010B5074C40F225512046FFF759
:102FD0001AFF2046BDE81040012240F22551FFF7BC
:102FE000EDBE00BF00380140002210210148FFF76C
:102FF00068BB00BF0010014010B5074C40F22551DE
:103000002046FFF700FF2046BDE81040012240F2B5
:103010002551FFF7D3BE00BF0048004000EB800001
:10302000430018460138FDD87047402808B50246CD
:1030300009D8BDE80840C0EB401002EB8000C0009A
:1030400080B2FFF7EBBF4FF47A70FFF7E7FF013A6A
:1030500092B2002AF7D108BD70B542F20F76302542
:10306000049C0D70B04207D90D78A0F51C500135B5
:1030700010380D7080B2F5E730211170B0F57A7F0D
:1030800006D31178A0F57A700131117080B2F5E79E
:1030900030221A70632805D91A78643801321A7000
:1030A00080B2F7E730232370092805D923780A383E
:1030B0000133237080B2F7E7059B3030187070BD84
:1030C0002DE9F043DDF81CC04FF03008DDF820E0BA
:1030D000099F0A9E0B9D0C9CDFF8049181F80080EB
:1030E00048450CD991F8008000F1444008F10108EE
:1030F00000F5CA0081F8008000F55850F0E7302153
:10310000DFF8E0801170404509D9117800F17A406C
:10311000013100F52120117000F57060F3E73022D5
:103120002C491A70884207D91A78A0F51900013283
:103130001A7000F5D340F5E73023274A8CF80030A9
:10314000904209D99CF80030A0F5742001338CF826
:103150000030A0F51070F3E73023204A8EF80030DD
:10316000904208D99EF80030A0F5C33001338EF8A4
:103170000030A038F4E742F20F7230233B709042E7
:1031800006D93B78A0F51C5001333B701038F6E7A8
:1031900030233370B0F57A7F05D33378A0F57A7099
:1031A00001333370F6E730232B70632804D92B7872
:1031B000643801332B70F8E730232370092804D9D1
:1031C00023780A3801332370F8E70D9B30301870EC
:1031D000BDE8F0837F9698003F420F009F86010074
:1031E000FFC99A3BFFE0F50513B50028B5BF2D23B5
:1031F00020230B700B70B8BF404201F10503B8BF2C
:1032000000B201930B1D0C4600938A1CCB1C80B2AC
:103210000131FFF721FF0023A37102B010BD10B5EB
:103220000028B5BF2D2320230B700B7088B001F14F
:103230000A03069301F10903059301F108030493BE
:1032400001F10703039301F10603029301F1050362
:10325000019301F104030C46009301F1020201F114
:103260000303B8BF40420131FFF72AFF0023E37296
:1032700008B010BD70B504460E461546FEF7A8F816
:103280002046FEF7D7F84BF6FF7203236370022344
:10329000E370E3690020A0706660A560DA804FF4F7
:1032A00080625A814FF480429A81044A9880188142
:1032B0001A602046FEF71AF880B270BD00350C0087
:1032C000084A08B51388084901339BB21380074A9E
:1032D0000748136801331360064AFFF7CBFF00204D
:1032E00008BD00BF700D0020841400200C250020B4
:1032F000280000207C130020064A0749138807484D
:1033000001339BB21380064A136801331360054AE8
:10331000FFF7B0BF700D00208414002028000020AB
:103320000C2500207C130020024A03490348FFF7C4
:10333000A1BF00BF7C1300208414002028000020BF
:10334000024A136801331360704700BF0C25002048
:1033500037B5044600284FD101210820FFF782FB32
:1033600003238DF80630142302AD8DF80730402377
:1033700025F8043D29464D48FFF74AF904238DF806
:10338000073029464FF400634848ADF80430FFF792
:103390003FF9012240214548FFF793F90A20FFF742
:1033A0003DFE002240214148FFF78BF90A20FFF73C
:1033B00035FE092C1BD93D48FFF77CF9020616D5CE
:1033C000012240213948FFF77CF90A20FFF726FE49
:1033D000002280213548FFF774F90A20FFF71EFE0E
:1033E000324801228021FFF76CF901205CE00134B2
:1033F000142CCED1002057E00128FBD10146082033
:10340000FFF730FB03238DF80630142302AC8DF850
:1034100007304FF4806324F8043D21462348FFF72A
:10342000F7F804238DF8073021464FF400631F4856
:10343000ADF80430FFF7ECF8002401224FF480616E
:103440001A48FFF73EF90A20FFF7E8FD00224FF483
:1034500080611648FFF735F90A20FFF7DFFD092CD8
:103460001ED91248FFF726F9030519D501224FF49A
:1034700080610E48FFF725F90A20FFF7CFFD0022F3
:103480004FF400610948FFF71CF90A20FFF7C6FD59
:10349000064801224FF40061FFF713F9012003E011
:1034A0000134142CC9D1A5E703B030BD000C014094
:1034B000024608B506490B7B012B06D00120FFF719
:1034C000ADFD013AF7D1012008BD002008BD00BFC5
:1034D0002800002010B50E4C4000A0600D4822606E
:1034E0006360E160FEF71AFA28B10B4A0120136805
:1034F0000133136010BDBDF80830012B06D142F234
:103500001070FFF7D5FF003018BF012010BD00BFBD
:103510007C130020280000200C25002010B50E4C44
:103520004000A0600D4822606360E160FEF7A0F9F2
:1035300028B10B4A012013680133136010BDBDF898
:103540000830012B06D142F21070FFF7B1FF0030B6
:1035500018BF012010BD00BF8414002028000020E7
:103560000C25002013B5064B1C780023009313464E
:103570000A4601462046FFF7ADFF02B010BD00BF6E
:103580004623002013B5064B1C78012300931346F5
:103590000A4601462046FFF79DFF02B010BD00BF5E
:1035A0004623002013B5064B1C78012300931346D5
:1035B0000A4601462046FFF7B1FF02B010BD00BF2A
:1035C0004623002008B50122FFF7DCFF20B1034AA3
:1035D000012013680133136008BD00BF0C250020D3
:1035E000F7B50C461E46174612B93270104613E066
:1035F0000DF10701FFF7E6FF012560B96119C9B2B6
:10360000BD40C91B013D9DF807308D401D4045FA66
:1036100001F1317000E0284603B0F0BD07B502AB00
:1036200003F8011D01221946FFF7BCFF20B1044A2F
:10363000012013680133136003B05DF804FB00BF81
:103640000C2500202DE9F34106460F469846154605
:1036500002B30DF10701FFF7B5FF0124C0B9391915
:10366000C9B2AC40491B013C8C409DF8073008FAB8
:1036700001F1C9B223EA04030C4043EA04013046D5
:103680008DF80710FFF7CAFF003018BF012002E0D5
:10369000204600E0104602B0BDE8F081034B012255
:1036A0001A805A6801325A60FEF764B8B4050020E7
:1036B0000C4B0021198059600B4B0C4A1B68F02001
:1036C000B3FBF2F340F2DC525343094A013B53602F
:1036D000084B83F8230007209160106083F82310C3
:1036E000704700BFB40500205800002040420F0082
:1036F00010E000E000ED00E016F0EEBA08B5FEF7CD
:1037000023FEFEF739FEFFF70BF9FEF715FFBDE8C4
:103710000840FEF73CBE0000194B10B5198889B26D
:103720008A060FD5174C18489A88238800880133D9
:10373000C3F3080380B2834292B21FBF1348D2B2D0
:10374000C25423800B061AD5114B124A19881388CC
:1037500089B29BB299420BD013880133C3F308039B
:10376000138013880C4A9BB2D35C054A938010BD2A
:10377000034A938923F080031B041B0C938110BD23
:10378000004C0040181600202A160020081E0020B9
:10379000A2110020561D0020282000200B490C4AB1
:1037A0000B8812880133C3F3080392B293420AD004
:1037B000084AD054084A0B80938901209BB243F0F9
:1037C0008003938170470020704700BFA211002042
:1037D000561D002028200020004C0040044B188873
:1037E000044B80B21B889BB2C01A18BF01207047DF
:1037F000181600202A16002010B50948094C218807
:10380000038889B29BB29942054AF8D013880133E4
:10381000C3F3080313801388034A9BB2D05C10BD26
:103820002A16002018160020081E0020024A002335
:103830001380024A138070472A16002018160020B1
:103840001FB5002300900C2269460848ADF80430EB
:10385000ADF80630ADF80830ADF80A20ADF80C3000
:10386000FFF736FA05B05DF804FB00BF004C0040DE
:103870007FB501214FF40020FFF700F9324C012100
:103880001120FFF7EFF84FF48063ADF80030032507
:103890001823694620468DF803308DF80250FEF754
:1038A000B7FE4FF400636946ADF800302046482368
:1038B000A4F544448DF803308DF80250FEF7A8FEBD
:1038C00002A8FFF769FA02A92046FFF755FA4FF45C
:1038D000E130FFF7B5FF34238DF8043001260F23C4
:1038E00001A88DF805308DF806308DF8076016F0C8
:1038F0002FF90022204640F22771FFF75FFA204699
:1039000040F22771FFF77FFA204640F22661FFF769
:103910007AFA0E4B00251D800D4B2A46204640F2B8
:1039200025511D80FFF74AFA204640F22551FFF746
:103930006AFA084B31461D80074B20461D80FFF771
:1039400031FA04B070BD00BF00100140561D0020C8
:10395000A21100202A1600201816002008B5FFF733
:1039600087FFBDE80840FFF71BBB01231A4607216C
:103970006B20FFF767BE0023012206216B20FFF7B3
:1039800061BE0346032202216B20FFF75BBE0146A6
:103990001920FFF743BE01461920FFF713BE034667
:1039A000032202211A20FFF74DBE03460322022103
:1039B0001A20FFF715BE0346022204211B20FFF741
:1039C00041BE0346022204211B20FFF709BE034625
:1039D000022204211C20FFF735BE034602220421E7
:1039E0001C20FFF7FDBD10B5044600F007030322BD
:1039F00002211A20FFF726FEC4F30113022201213F
:103A00001B20BDE81040FFF71DBE13B5032204467E
:103A10000DF1060302211A20FFF7E2FD0DF1070365
:103A2000022201211B20FFF7DBFD9DF8063003F089
:103A30000703237002B010BD10B5044600F0070361
:103A4000032202211D20FFF7FDFDC4F30013012214
:103A500003211D20BDE81040FFF7F4BD13B503227C
:103A600004460DF1060302211D20FFF7B9FD0DF1FB
:103A70000703012203211D20FFF7B2FD9DF8073047
:103A80001B0103F010029DF8063003F007031344F6
:103A9000237002B010BD000038B50C4D002429463B
:103AA00075202C70FFF78EFD48B92B78682B08D055
:103AB000712B08D0122B14BF2046032038BD20469E
:103AC00038BD012038BD022038BD00BFA411002040
:103AD0002DE9F04180460F4616461D460A209DF806
:103AE0001840FFF79BFA4046FFF74BFF3846FFF7B9
:103AF00062FF3046FFF753FF2846FFF768FF204676
:103B0000FFF745FFBDE8F041FFF735BF73B50C4641
:103B10000A2016461D46FFF781FA0DF10700FFF750
:103B200050FF9DF807300A20A34214BF022400244E
:103B3000FFF774FA0DF10700FFF737FF9DF8073024
:103B40000A20B3421CBF44F00404A4B2FFF766FA93
:103B50000DF10700FFF741FF9DF807300A20AB4247
:103B600018BF44F00804FFF759FA0DF10700FFF7FA
:103B700012FF9DF807209DF818309A4218BF44F0B4
:103B80001004204602B070BD2DE9F84381468846F6
:103B900017461E460A209DF820509DF82440FFF746
:103BA0003DFA4846FFF7EDFE4046FFF704FF384672
:103BB000FFF719FF3046FFF70AFF2846FFF73CFFE3
:103BC0002046FFF7E4FEBDE8F843FFF7D4BE73B527
:103BD0000C460A2016461D46FFF720FA0DF1070095
:103BE000FFF7EFFE9DF807300A20A34214BF02241E
:103BF0000024FFF713FA0DF10700FFF706FF9DF809
:103C000007300A20B3421CBF44F00404A4B2FFF7FB
:103C100005FA0DF10700FFF7E0FE9DF807300A20D6
:103C2000AB4218BF44F00804FFF7F8F90DF10700A4
:103C3000FFF7B1FE9DF807209DF81C300A209A423C
:103C400018BF44F01004FFF7E9F90DF10700FFF782
:103C500005FF9DF807209DF818309A4218BF44F0E0
:103C60002004204602B070BD2DE9F04180460F4689
:103C700016461D460A209DF81840FFF7CFF940462A
:103C8000FFF799FE3846FFF7AEFE3046FFF79FFE7E
:103C90002846FFF7D1FE2046FFF779FEFFF76BFEBF
:103CA0000A20FFF7BBF900210420FFF7B7FC002131
:103CB0000520FFF7B3FC00210720FFF7AFFC002130
:103CC0000820FFF7ABFC00210A20FFF7A7FCBDE8A6
:103CD000F04100210B20FFF7A1BCF7B504460A20F4
:103CE0000F4616461D46FFF799F90DF10700FFF73D
:103CF00068FE9DF807300A20A34214BF0224002466
:103D0000FFF78CF90DF10700FFF77FFE9DF80730F4
:103D10000A20BB421CBF44F00404A4B2FFF77EF9A2
:103D20000DF10700FFF759FE9DF807300A20B34256
:103D300018BF44F00804FFF771F90DF10700FFF711
:103D40002AFE9DF820309DF807200A209A4218BFCD
:103D500044F01004FFF762F90DF10700FFF77EFE53
:103D60009DF807300DF10701AB424FF004004FF012
:103D7000000318BF44F020048DF80730FFF722FC41
:103D800010B99DF807300BB144F080040DF1070124
:103D90000520FFF717FC10B99DF807300BB144F070
:103DA00080040DF107010720FFF70CFC10B99DF806
:103DB00007300BB144F080040DF107010820FFF734
:103DC00001FC10B99DF807300BB144F080040DF1EF
:103DD00007010A20FFF7F6FB10B99DF807300BB179
:103DE00044F080040DF107010B20FFF7EBFB10B945
:103DF0009DF807300BB144F08004204603B0F0BDBD
:103E00002DE9F341374F0A240A20FFF707F9682309
:103E10003B70FFF741FE334D86B2A84686B90A20B3
:103E2000FFF7FCF869233B70FFF736FE86B24EB908
:103E3000013CA4B2002CE7D12B4B2C701C604CE051
:103E4000012700E002270A240025032E11D10023B8
:103E50001946012200950220FFF706FF6420FFF7B4
:103E6000E4F800230095012219460220FFF735FFF0
:103E700026E0022E13D13146012300220195009540
:103E80000320FFF781FE6420FFF7CFF8019500952E
:103E90000123002231460320FFF799FE10E00123A1
:103EA0000022022103200095FFF712FE6420FFF795
:103EB000BCF800950123002202210320FFF726FE13
:103EC00040B1013CA4B2002CBFD1074B88F80040A0
:103ED0001C6002E03C46044B1860204602B0BDE87E
:103EE000F08100BF462300200C25002008B5074BB9
:103EF00000221A8006490E223B20FFF733FB18B13F
:103F0000BDE80840FFF71CBA08BD00BF700D0020D7
:103F1000A4110020B0F90020642353434FF4AA7287
:103F200093FBF2F303F64563038070472DE9F84FE6
:103F3000254B264D01281CBFAA461D46894614461E
:103F40002349244A06BF9A4688469046FEF792FFC8
:103F50002846FFF707F80428074630D14FF6FF7BC5
:103F6000B9F1000F08BF4FF4FD64013405F11006EC
:103F700024F001043444C5EB0A0AA64217D0B9F173
:103F8000000F03D13AF8061089B203E0731B4B44CB
:103F900033F8101C594501D10236EEE7B0450DD972
:103FA0003046FEF799FF04280746F5D007E04FF0AA
:103FB00011312846FEF7ACFF074600E08027FEF7E8
:103FC00063FF3846BDE8F88F00D0070800D807081F
:103FD000FFDF0708FFD7070810B5FEF74BFF0748BC
:103FE000FEF7C0FF0428044603D10548FEF7BAFFD8
:103FF0000446FEF749FF204610BD00BF00D0070869
:1040000000D807080131C1F34F0100239AB2914251
:104010000AD9B3F57E7F09D0054A1A4452001288A6
:1040200020F813200133F1E7042070478020704707
:1040300008E8030438B50A4604460D460146002048
:10404000FFF774FFC0B2042801D080B238BD2A4601
:1040500021460120FFF76AFFC0B238BD38B5164BC4
:104060001D68D3F80048B5F1113F07D1B4F1113FF5
:1040700001D104201DE0621C0ED104E06B1C0BD1A9
:10408000B4F1113F08D1002211460120FFF74EFF85
:10409000C0B204280DD1ECE7FFF79EFFC0B20428A0
:1040A00007D1013504D1013414BF4020202000E0A5
:1040B000402080B238BD00BF00D0070872B6074B61
:1040C0009B8C9BB262B6064A91881068994284BF65
:1040D00001301060938003EB00407047002C0140DA
:1040E00030160020034B00219A8C034B19609A80F4
:1040F000704700BF002C0140301600200AB9FCF7C1
:10410000E9BE042A01D1FCF729BF082A01D1FCF736
:1041100069BFFCF7A9BF000030B5012185B040F6AA
:104120000400FEF79FFC4FF6FF73ADF80830134B09
:10413000134A1B68134DB3FBF2F304A9013B00249F
:1041400021F80C3D2846ADF80A40ADF80640FCF7D2
:1041500077FE01212846FCF7BBFF1B238DF80030BA
:104160000F238DF80130684601238DF802408DF849
:10417000033015F0EDFC05B030BD00BF5800002045
:1041800040420F00002C014030B5012185B042F2C1
:104190001000FEF767FC4FF6FF73ADF80830134BC5
:1041A000134A1B68134DB3FBF2F304A9013B00242F
:1041B00021F80C3D2846ADF80A40ADF80640FCF762
:1041C0003FFE01212846FCF783FF2E238DF80030A7
:1041D0000F238DF80130684601238DF802408DF8D9
:1041E000033015F0B5FC05B030BD00BF580000200D
:1041F00040420F000034014007B50323ADF804101E
:1042000001A98DF807208DF80630FEF701FA03B0FA
:104210005DF804FB1FB50123ADF808300023ADF8AD
:104220000A300F23ADF80C3004AB23F80C1D1946EF
:10423000ADF80620FCF794FF05B05DF804FB000024
:1042400010B50B4C28224FF480710A48FFF7D4FFB9
:10425000022220460021FFF7DDFF20460221FDF764
:1042600032F82046BDE8104001220221FCF745BF8C
:10427000002C01400008014030B5302385B0ADF876
:10428000003000230D460446ADF80C30ADF80E307A
:10429000ADF80830ADF80A30ADF80230ADF80430B2
:1042A000FDF703F800F51C501030ADF806002A4663
:1042B00069462046FFF722FF05B030BD10B50F4C10
:1042C000102220464FF40071FFF796FF002220468F
:1042D0004FF4007104F51054FEF7F3F92046042161
:1042E000FFF7CAFF20460421FCF7EDFF2046BDE89A
:1042F000104001220421FCF700BF00BF000801406C
:1043000010B50C46062800F22481DFE810F0070003
:10431000300059008200A900D000F900012915D110
:1043200028224FF480618B48FFF766FF00220821A6
:104330008948FFF76FFF08218748FCF7C4FF224632
:10434000BDE8104008218448FCF7D7BE00220821B0
:104350008148FCF7D2FE08217F48FCF7B4FFBDE896
:10436000104048224FF480617A48FFF745BF012989
:1043700015D128224FF400717648FFF73DFF002247
:1043800004217548FFF746FF04217348FCF79BFFA3
:104390002246BDE8104004216F48FCF7AEBE002263
:1043A00004216D48FCF7A9FE04216B48FCF78BFF44
:1043B000BDE8104048224FF400716648FFF71CBF6B
:1043C000012915D128224FF480716248FFF714FFAC
:1043D000002211466048FFF71DFF02215E48FCF7EE
:1043E00072FF2246BDE8104002215B48FCF785BE03
:1043F000002202215848FCF780FE02215648FCF7B3
:1044000062FFBDE8104048224FF480715148FFF729
:10441000F3BE012914D1282240215048FFF7ECFEB9
:10442000002211464E48FFF7F5FE02214C48FCF7EA
:104430004AFF2246BDE8104002214948FCF75DBE14
:10444000002202214648FCF758FE02214448FCF7AE
:104450003AFFBDE81040482240214048FFF7CCBE5B
:10446000012914D1282280213C48FFF7C5FE0022F3
:1044700004213B48FFF7CEFE04213948FCF723FF17
:104480002246BDE8104004213548FCF736BE002224
:1044900004213348FCF731FE04213148FCF713FFB7
:1044A000BDE81040482280212C48FFF7A5BE012915
:1044B00015D128224FF480712848FFF79DFE002275
:1044C00008212748FFF7A6FE08212548FCF7FBFE38
:1044D0002246BDE8104008212148FCF70EBE00220C
:1044E00008211F48FCF709FE08211D48FCF7EBFED8
:1044F000BDE8104048224FF480711848FFF77CBE99
:10450000012915D128224FF400711448FFF774FED9
:1045100000220C211248FFF77DFE10211048FCF705
:10452000D2FE2246BDE8104010210D48FCF7E5BD43
:10453000002210210A48FCF7E0FD10210848FCF792
:10454000C2FEBDE8104048224FF400710348FFF757
:1045500053BE10BD00080140002C01400010014076
:1045600000340140012808B503D1BDE80840FFF739
:1045700067BE002202210748FCF7BFFD0221054863
:10458000FCF7A1FEBDE8084048224FF480710248C4
:10459000FFF732BE002C014000080140012808B599
:1045A00003D1BDE80840FFF789BE00220421074877
:1045B000FCF7A3FD04210548FCF785FEBDE8084093
:1045C00048224FF400710248FFF716BE002C01404C
:1045D00000080140F8B5504D022128462C8CFCF70C
:1045E00067FE0128A4B22CD14C4E02212846FCF7CC
:1045F0006AFE3368DA050ED5494A28461388013326
:1046000003F01F0313801688FCF742FE454BB6B239
:1046100023F8160015E014F0020F434F0BD0284684
:10462000FCF736FE7881336824F0020443F004037B
:10463000A4B2336005E02846FCF72AFE44F00204E9
:104640003881354D04212846FCF732FE01283ED141
:10465000324E04212846FCF736FE33689B0520D5F0
:104660003248334AC36813F4007F09D013882A8F75
:104670004FF4007113449BB22B87FEF720F826E01D
:104680002C490B882E8F33449BB22B872A4B1B88D7
:1046900009885B1A9BB24FF400711380FEF70DF886
:1046A00015E014F0200F204F0BD02846FCF7F3FD47
:1046B000F880336824F0200443F00203A4B233608E
:1046C00005E02846FCF7E7FD44F02004B880082107
:1046D0001148FCF7EDFD01281AD108210E48FCF71E
:1046E000F2FD14F4007F104D0CD00B48FCF7D6FD02
:1046F0000A4A6880136824F4007443F00103A4B2EA
:10470000136005E00448FCF7C9FD44F400742880F8
:10471000014B1C84F8BD00BF002C0140781600201E
:104720005C1D0020561000203A1D002000080140AA
:10473000381D0020C80E0020C422002070B5454D51
:10474000022128462C8CFCF7B3FD0128A4B21AD113
:1047500002212846FCF7B7FD14F0020F3E4E0CD0A4
:104760002846FCF795FD3D4AF081136824F00204C9
:1047700043F00803A4B2136005E02846FCF788FD67
:1047800044F00204B08104213248FCF791FD012875
:104790001AD104212F48FCF796FD14F0200F2E4D5E
:1047A0000CD02C48FCF777FD2C4A6882136824F063
:1047B000200443F01003A4B2136005E02548FCF781
:1047C0006AFD44F02004288208212248FCF770FD8D
:1047D00001281AD108211F48FCF775FD14F4007F49
:1047E0001D4D0CD01B48FCF759FD1C4AE88213688C
:1047F00024F4007443F02003A4B2136005E01548CC
:10480000FCF74CFD44F40074A88210211148FCF719
:104810004FFD01281AD110210E48FCF754FD14F465
:10482000005F0D4D0CD00B48FCF73BFD0B4A688335
:10483000136824F4005443F04003A4B2136005E06D
:104840000448FCF72EFD44F400542883014B1C84DB
:1048500070BD00BF003401403A1D002078160020D2
:10486000634B644A1868F0B4C707116810D540F26A
:10487000EA451868604C20F00100186026886088BE
:10488000801B80B2A0F27B34A4B2AC4240F2A18083
:1048900000241868564D860710D540F2EA4728686C
:1048A000554E20F002002860B588F088401B80B289
:1048B000A0F27B35ADB2BD4240F2928018684C4DFB
:1048C00040070FD540F2EA4728684B4E20F004001D
:1048D000286035897089401B80B2A0F27B35ADB26B
:1048E000BD426FD91868424D07070FD540F2EA471D
:1048F0002868414E20F008002860B589F089401BE7
:1049000080B2A0F27B35ADB2BD4254D91868384DA3
:10491000C6060FD540F2EA472868374E20F010004F
:104920002860358A708A401B80B2A0F27B35ADB218
:10493000BD4239D918682E4D80060FD540F2EA479E
:1049400028682D4E20F020002860B58AF08A401B90
:1049500080B2A0F27B35ADB2BD421ED91B6824489F
:104960005B0616D540F2EA460368234D23F0400368
:104970000360288B6B8B1B1A9BB2A3F27B3080B237
:10498000B04206D86420D38341F4801110821160B4
:1049900001E0002CFBD1F0BC70476424D4819083EB
:1049A00041F400310124D9E764249481508341F417
:1049B00080410124BEE764245481108341F40061E6
:1049C0000124A3E764241481D08241F4807101247E
:1049D00088E764249480508241F00401012458E760
:1049E0006424D480908241F02001012466E700BF56
:1049F00078160020001D00203A1D00202DE9F0430C
:104A0000054C87B02068C30103D5044D29880C29C3
:104A100006D907B0BDE8F083001D00205E1D002010
:104A200072B6D44BD44A1B88928C9BB292B262B6B7
:104A300040F68536DFF850E33EF81370D21B92B291
:104A4000B242E6D9CD4E32899A42E2D03EF81320E6
:104A5000338192B2002900F0068140F2EC4C013B18
:104A600003F01F033EF81370BFB2D61BB6B2A6F216
:104A70007A381FFA88F8E045ADF8006000F27281DC
:104A8000012900F07181013B03F01F033EF8132060
:104A900092B2BE1AB6B2A6F27A381FFA88F8E0458A
:104AA000ADF8026000F25D81022900F0DC80013B7C
:104AB00003F01F033EF81370BFB2D61BB6B2A6F2C6
:104AC0007A381FFA88F8E045ADF8046000F24A81B0
:104AD000032900F0498140F2EC46013B03F01F033B
:104AE0003EF81320DFF8A0C292B2C2EB07081FFA0B
:104AF00088F8A8F27A391FFA89F9B145ADF806802D
:104B000000F22F81042900F0AE80013B03F01F0367
:104B10003CF81370BFB2C7EB02081FFA88F8A8F27E
:104B20007A391FFA89F9B145ADF8088000F21A8187
:104B3000052900F01981013B03F01F033CF8132005
:104B400092B2C2EB07081FFA88F8A8F27A391FFA66
:104B500089F9B145ADF80A8000F20381062900F019
:104B60008280013B03F01F033CF81370BFB2C7EB18
:104B700002081FFA88F8A8F27A391FFA89F9B145B4
:104B8000ADF80C8000F2EE80072900F0ED80013BCB
:104B900003F01F033CF8132092B2C2EB070C1FFA7C
:104BA0008CFCACF27A381FFA88F8B045ADF80EC02C
:104BB00000F2D780082956D03746013B03F01F0387
:104BC0003EF81360DFF8C081B6B2C6EB020C1FFAE4
:104BD0008CFCACF27A391FFA89F9B945ADF810C0EE
:104BE00000F2C080092900F0C180013B03F01F03DF
:104BF00038F8132092B2C2EB060C1FFA8CFCACF210
:104C00007A391FFA89F9B945ADF812C000F2B080BF
:104C10000A2928D0013B03F01F0338F81360B6B20D
:104C2000C6EB020C1FFA8CFCACF27A391FFA89F938
:104C3000B945ADF814C000F295800C2940F096807B
:104C4000013B03F01F0338F8132092B2C2EB060CAD
:104C50001FFA8CFCACF27A381FFA88F8B845ADF828
:104C600016C000F28580012640F66D77013B03F007
:104C70001F033EF81330D21A92B2BA427FF6C9AE81
:104C80003F4B03FB01F303F5D24378339A423FF7DE
:104C9000C0AE002E3FF4BDAE00295CD006AB03EBE6
:104CA000410333F81A2C0129364BAA8053D006AAA7
:104CB00002EB410232F81C2C0229DA804BD006AA02
:104CC00002EB410232F81E2C03291A8143D006AAB6
:104CD00002EB410232F8202C04295A813BD006AA6B
:104CE00002EB410232F8222C05299A8133D006AA20
:104CF00002EB410232F8242C0629DA812BD006ABD4
:104D000003EB410333F8262C07291E4B2A8222D0BD
:104D100006AA02EB410232F8282C08295A821AD03E
:104D200006AA02EB410232F82A2C09299A8212D0F3
:104D300006AA02EB410232F82C2C0A29DA820AD0A8
:104D400006AA02EB410232F82E2C0C291A8302D15A
:104D5000BDF800205A8340F00060642320606B801F
:104D600057E63A4600267FE73A467CE732467AE73E
:104D70003246F7E75C1D0020002C0140B4050020FE
:104D800086FCFFFF5E1D002056100020044B1B68B0
:104D9000DB0003D572B6034B188062B6704700BFC4
:104DA000001D0020C80E0020834A10B493881168AB
:104DB0004BB1013B9BB2012B21F0020040F2CA80B3
:104DC000014693800123D0887B4C48B1013880B2E2
:104DD000012821F0100340F2D5801946E08001231C
:104DE0001089754C40B1013880B2012821F0800350
:104DF00037D919462081012350896F4C40B10138C1
:104E000080B2012821F4806343D9194660810123CF
:104E10009089694C40B1013880B2012821F40053D7
:104E20004FD91946A0810123D089634C40B1013884
:104E300080B2012821F480335BD91946E081012337
:104E4000108A5D4C40B1013880B2012821F4002362
:104E500067D92082136002E0002B40F0AB8010BCC9
:104E6000704700202081480601D541F0800323F4DB
:104E7000807172B65148036823F00403036062B680
:104E80004F4C0123208C20F002000004000C2084F1
:104E9000B2E7002060818C0501D541F4806323F4E2
:104EA000006172B64548036823F00803036062B6E8
:104EB000444C0123208C20F002000004000C2084CC
:104EC000A6E70020A081C80401D541F4005323F4D3
:104ED000804172B63948036823F01003036062B65C
:104EE000384C0123208C20F020000004000C20848A
:104EF0009AE70020E0810C0401D541F4803323F4CB
:104F0000003172B62D48036823F02003036062B6B7
:104F10002C4C0123208C20F400700004000C208411
:104F20008EE700202082480348BF41F4002372B678
:104F30002248016821F04001016062B6214923F452
:104F4000801313600B8C10BC23F400531B041B0C48
:104F50000B84704700239380CB0701D541F00200FA
:104F600020F0040172B61548036823F001030360C2
:104F700062B6134C0123208C20F400700004000C56
:104F8000208420E70020E0800C0701D541F01003C9
:104F900023F0200172B60948036823F0020303607E
:104FA00062B6074C0123208C20F020000004000C86
:104FB000208415E70B464DE7001D002078160020E1
:104FC000002C0140003401400D4A53885BB10D486C
:104FD00010B4013B04689BB224F00071012B016006
:104FE00002D910BC5380704700235380E30148BFAF
:104FF00041F0007121F00061016010BCF3E700BFD7
:105000005E1D0020001D002008B50F4A0F4B002137
:105010001960134643F8101B40F2DC511E3223F88E
:10502000021F9342FBD140F2DC51094B03F11802FD
:1050300023F8021F9342FBD10120FFF76DF8BDE872
:1050400008400120FFF7A0B8001D002078160020BE
:10505000601D002006282DE9F84305460F463AD882
:105060004FEA400808EB0009012303FA09F61B4C3C
:1050700021B923681E4206D1BDE8F883012902D177
:1050800023681E4227D100212846FFF739F972B65E
:10509000134B01221968AA4021EA02021A6062B683
:1050A0000723226803FA09F322EA0303A0446422D7
:1050B000A8F8042040F2DC522360012F04EB4504E1
:1050C000628208D1054A3343136039462846BDE859
:1050D000F843FFF715B9BDE8F88300BF001D0020B5
:1050E000781600202DE9F04107468846244E21B964
:1050F0003368DA010AD4BDE8F081012906D13368AA
:10510000DB0103D51F4B1B88834237D00020FFF7FC
:1051100029FA72B61C48036823F48073036062B6F0
:105120003368044623F0306500231846154A64218D
:105130005180164935600B801549138021F8130002
:105140000133202BFAD140F2DC51124800F1180350
:1051500020F8021F9842FBD1B8F1010F0ED16FB1B8
:1051600045F080731780336072B6236843F4807310
:10517000236062B6BDE8F041FFF762B8BDE8F08198
:10518000001D00205E1D0020781600205C1D002000
:1051900056100020601D0020F8B506460F46264C2C
:1051A00019B92368DA0009D4F8BD012906D12368AA
:1051B000DB0003D5214B1B8883423BD00020FFF747
:1051C000EDF972B61E48036823F40073036062B6FB
:1051D00044F6206240F2DC5E23681A4D23F08053CF
:1051E0002360194CDFF854C0A4F800E02A80ACF822
:1051F00000202A882188012FA2EB0102134992B2D4
:105200000A8017D1A4F800E02E802A88248843F071
:105210008053121B92B20A80074AACF800601360F8
:1052200072B6036843F40073036062B6BDE8F840E9
:10523000FFF744B8F8BD00BF001D0020D8130020C0
:1052400078160020C4220020C80E0020381D00203F
:10525000194B10B519889A8889B2880692B20DD573
:10526000164C174823880088013303F07F0380B26F
:1052700083421FBF1348D2B2C25423800B061AD5F3
:10528000114B124A1988138889B29BB299420BD0EC
:105290001388013303F07F03138013880C4A9BB2F9
:1052A000D35C054A938010BD034A938923F08003A1
:1052B0001B041B0C938110BD003801400825002001
:1052C000CE0A00207A1D00202C16002098270020EE
:1052D000CA0E00200B490C4A0B881288013303F0D8
:1052E0007F0392B293420AD0084AD054084A0B80F6
:1052F000938901209BB243F0800393817047002083
:10530000704700BF2C16002098270020CA0E0020EE
:1053100000380140013938B5451E4418A54204D073
:1053200015F8010FFFF7D6FFF8E738BD024A002352
:105330001380024A13807047982700202C16002003
:10534000044B1888044B80B21B889BB2C01A18BF4C
:105350000120704708250020CE0A002010B509481A
:10536000094C2188038889B29BB29942054AF8D03A
:105370001388013303F07F0313801388034A9BB221
:10538000D05C10BDCE0A0020082500207A1D002028
:10539000024A00231380024A13807047CE0A00207D
:1053A000082500201FB521F40073B3F5806F0CBFF2
:1053B0004FF480530023ADF804300C230090ADF877
:1053C0000810ADF80A30694600230548ADF80620FC
:1053D000ADF80C30FDF77CFC05B05DF804FB00BFB8
:1053E000003801401FB5002300900C226946084890
:1053F000ADF80430ADF80630ADF80830ADF80A204D
:10540000ADF80C30FDF764FC05B05DF804FB00BF9F
:105410000038014007B54FF400730128ADF804309F
:105420000CBF182300238DF8073001A9032304487B
:105430008DF80630FDF7ECF803B05DF804FB00BF13
:1054400000080140012808B503D1BDE80840FDF778
:10545000B9BD40F2255105480022FDF7AFFCBDE87B
:10546000084040F225510148FDF7CDBC003801400D
:105470007FB5334C012144F20500FDF7F3FA4FF4F8
:105480000073ADF8003003251823694620468DF8D7
:1054900003308DF80250FDF7BBF84FF48063694686
:1054A000ADF800302046482304F540548DF8033011
:1054B0008DF80250FDF7ACF802A8FDF76DFC02A9CB
:1054C0002046FDF759FC4FF4E130FFF78BFF252311
:1054D0008DF8043001260F2301A88DF805308DF8D2
:1054E00006308DF8076014F033FB0022204640F2AE
:1054F0002771FDF763FC204640F22771FDF783FC1E
:10550000204640F22661FDF77EFC0E4B00251D80F3
:105510000D4B2A46204640F225511D80FDF74EFCDA
:10552000204640F22551FDF76EFC084B31461D80A8
:10553000074B20461D80FDF735FC04B070BD00BF51
:1055400000080140982700202C160020CE0A0020D9
:105550000825002010B50C46FFF744FF1CB9BDE834
:105560001040FDF741BD012210210248BDE8104066
:10557000FDF7A7B800100140012808B505D1FFF7D5
:1055800007FFBDE80840FDF71DBD0020FFF75AFFEB
:10559000BDE80840002210210148FDF792B800BF85
:1055A0000010014037B5104D01211020FDF75AFAC7
:1055B0001024032301A928468DF80630ADF80440D5
:1055C0008DF80740FDF724F8002221462846FDF714
:1055D00078F8FFF74DFF0020FFF71CFF0020FFF7D2
:1055E000CBFF03B030BD00BF00100140A84A1188B6
:1055F000CB075FD52DE9F04F89B072B6A54B9B8CD8
:105600009BB262B6A44DA54CA888278898428ABF51
:105610002868D5F800E000F1010EA148BFB2068865
:1056200088BFC5F800E0B6B2B742AB8003EB0E4EC0
:1056300025D00546968DDFF870C24FF00008971907
:105640002188038889B29BB299422AD02188038895
:1056500089B29BB29942F9D02B887E2E03F10103C7
:1056600003F07F032B802B889BB21CF8033087F854
:105670002E30E5D80136B6B24FF00108DFE7906A68
:10568000834BC0EB0E00B0F57A6F07D3588C90B9FE
:10569000988D102800F00A810023938509B0BDE899
:1056A000F08FB8F1000F40F04F82C2F828E009B047
:1056B000BDE8F08F7047012840F0BE80988D10281B
:1056C000EAD193F830A093F8329093F831004FEA82
:1056D0000A2404F4E06404444FEA092093F8348077
:1056E00000F4E06593F8330093F836C028444FEA9D
:1056F000082505F4E06B93F8355093F838E05D44E5
:105700006D10A5F5FF7502954FEA0C2B93F83750F5
:105710000BF4E06B5D446D10A5F5FF7503954FEA42
:105720000E2B93F839500BF4E06B5D4493F83A700C
:105730006D10A5F5FF7BCEF3C30E41F0040101917E
:10574000CDF810B003EB4E014FEA072BC7F3C307A8
:10575000059103EB47010691BDF804104010198034
:10576000A0F5FF704FF4967101FB00F06410A4F5F2
:10577000FF7493F83B5001FB04F40BF4E06B93F8D7
:105780003C6001905D4404986D1001FB00FEA5F59E
:10579000FF7B01983502CAF3C30AC6F3C30624127D
:1057A00003EB460604F2DC5403EB4A0AAAF8024073
:1057B000079693F83D40029E039FC9F3C309001268
:1057C00000F2DC5005F4E06503EB4909A9F802009A
:1057D00001FB06F601FB07F728194010A0F5FF7042
:1057E00001FB0BFB01FB00F1C8F3C308CCF3C30CB6
:1057F00036123F1206F2DC5603EB480803EB4C0C62
:1058000007F2DC57A8F802604FEA2E2EACF80270BF
:1058100005984FEA2B2B0EF2DC5E0912069C079EC0
:10582000A0F802E00BF2DC5B01F2DC516420A4F88A
:1058300002B0988471802FE7022840F08781D86AEF
:10584000184C20F07F40A0427FF426AF93F846002A
:1058500000287FF421AF93F84500000740F1DE8077
:1058600040F2DC5058809880D88018815881988107
:10587000D881188258829882D88218835883988356
:10588000D883188441F0040164231180938403E7D2
:105890007C230020002C0140301600200825002029
:1058A000CE0A002019000F007A1D002040F2DC50C3
:1058B00093F830A093F831504FEA0A2404F440746E
:1058C000A4F5FF7493F8348025444FF4967493F84C
:1058D000329093F836C004FB05F54FEA082693F89A
:1058E00038E04FEA09274FEA0C2B06F44076A6F57C
:1058F000FF760BF4407B07F440770396A7F5FF771C
:10590000ABF5FF762D124FEA0E2BCEF3830E0297E6
:10591000054403EB4E07CCF3830C93F833E0019579
:10592000049703EB4C05029F93F837C00595774425
:10593000039D93F835E0B4440BF4407B93F8396051
:10594000ABF5FF7BAE445E4404FB07F704FB0EFEA1
:1059500004FB0CFC04FB06F63F124FEA2E2E4FEA26
:105960002C2C361207448644064458809880D880F0
:105970008444188158819881D881188258829882ED
:10598000D882188358839883D883CAF3830A1884EB
:10599000C9F38309BDF80400C8F3830803EB4A0A7E
:1059A00003EB490903EB4808AAF80200059DA9F892
:1059B0000270A8F802E0049F93F83AE0A5F802C04C
:1059C0007E804FEA0E2593F83C7093F83B0005F477
:1059D00040753E02A5F5FF75054406F4407693F840
:1059E0003D00A6F5FF76304404FB05F504FB00F00E
:1059F000CEF383062C120012C7F3830541F0040195
:105A000004F2DC5403EB460603EB450500F2DC50E0
:105A10006427748019809F8468803DE693F8340081
:105A200093F833E000F00F0093F830C093F838702B
:105A3000C00193F83C5040EA5E0093F840400CF0FF
:105A4000070807F01F0793F837C0400893F83BE0BA
:105A5000BF0100F5777005F03F0547EA9C0C1881FF
:105A600093F83F70586B04F07F046D0193F8446025
:105A700045EADE05240193F82FE044EA1714C0F349
:105A8000094093F843704EEA082800F5777AF6004B
:105A9000D86B46EA57164FEA58081F6B08F5777817
:105AA000C0F3C910C7F3C93EA3F8028000F57778A8
:105AB000D88FB3F830900EF5777EA3F806E0C0F3E8
:105AC000890E186C4FEA5C0C6D08C9F309190CF5C6
:105AD000777C05F5777509F57779C0F309209F8EF6
