:020000040800F2
:10000000484A0020BD020008B9020008B9020008F1
:10001000B9020008B9020008B90200080000000097
:10002000000000000000000000000000B90200080D
:10003000B902000800000000B902000841130008DE
:10004000B9020008B9020008B9020008B9020008A4
:10005000B9020008B9020008B9020008B902000894
:10006000B9020008B9020008B9020008B902000884
:10007000B9020008B9020008B9020008B902000874
:10008000B9020008B9020008B9020008B902000864
:10009000B9020008B9020008B9020008B902000854
:1000A000B9020008B9020008B9020008B902000844
:1000B000B9020008B9020008B9020008B902000834
:1000C000B9020008B9020008B9020008B902000824
:1000D000B902000891080008B9020008B902000836
:1000E000B9020008B9020008B902000800000000C7
:1000F0000000000000000000000000000000000000
:1001000000000000000000005FF808F1224A0388A8
:1001100090429BB212D002F5006290420ED0B0F134
:10012000804F0BD0A2F59832904207D002F5806242
:10013000904203D002F58062904203D14A8823F0B6
:1001400070031343154A904208D002F58062904232
:100150001FBF23F44073CA889BB2134303808B886C
:1001600083850B8803850C4B98420FD003F5006301
:1001700098420BD003F54063984207D003F58063A3
:10018000984203D003F58063984201D10B7A03862D
:1001900001238382704700BF002C01400010004003
:1001A000038819B19BB243F0010303E023F001037C
:1001B0001B041B0C0380704780F30888704780F392
:1001C00010887047384B82B01A6842F001021A60FA
:1001D0005968364A0A405A601A6822F0847222F43A
:1001E00080321A601A6822F480221A605A6822F457
:1001F000FE025A604FF41F029A60002200920192A0
:100200001A6842F480321A601A6802F400320192CD
:10021000009A01320092019A1AB9009AB2F5A06FC1
:10022000F2D11A6812F4003218BF01220192019A29
:10023000012A05D01E4B4FF000629A6002B0704751
:100240001C4A116841F010011160116821F003018E
:100250001160116841F0020111605A685A605A68D1
:100260005A605A6842F480625A605A6822F47C12DA
:100270005A605A6842F4E8125A601A6842F0807272
:100280001A601968084A8901FBD5516821F00301F9
:100290005160516841F0020151605A6802F00C024D
:1002A000082AFAD1C6E700BF001002400000FFF89C
:1002B00000ED00E000200240FEE7000008B50C4A17
:1002C0000C4B0D498B4204D252F8041F43F8041B17
:1002D000F7E70A480A494FF000028842B8BF40F8E1
:1002E000042BFADBFFF76EFFBDE8084001F0FCBB12
:1002F00080320008000000202C0000202C0000208C
:100300004446002008B5234B984205D10420012122
:1003100000F02AF9042036E01F4B984205D108204E
:10032000012100F021F908202DE01C4B984205D155
:100330001020012100F018F9102024E0184B9842F9
:1003400005D12020012100F00FF920201BE0154BE2
:10035000984205D14020012100F006F9402012E02A
:10036000114B984205D18020012100F0FDF880203A
:1003700009E00E4B98420BD14FF48070012100F040
:10038000F3F84FF480700021BDE8084000F0ECB8AD
:1003900008BD00BF00080140000C014000100140F2
:1003A0000014014000180140001C014000200140E1
:1003B000CA78F0B5D40648BF8C780D8802F00F03D8
:1003C00048BF234315F0FF0F1DD00168002401260C
:1003D000A64006EA0507B74211D14FEA840E0F2660
:1003E00006FA0EF621EA0601282A03FA0EF641EA79
:1003F000060101D1476102E0482A08BF07610134C4
:10040000082CE4D10160FF2D1FD94168002404F1BC
:1004100008070126BE4006EA0507B74211D14FEA98
:10042000840E0F2606FA0EF621EA0601282A03FAA0
:100430000EF641EA060101D1476102E0482A08BFF1
:1004400007610134082CE2D14160F0BD01617047C1
:10045000416170470AB10161704741617047000016
:100460000D4B1A6842F001021A6059680B4A0A40A3
:100470005A601A6822F0847222F480321A601A6874
:1004800022F480221A605A6822F4FE025A604FF465
:100490001F029A60704700BF001002400000FFF882
:1004A000034A536823F0030318435060704700BFAA
:1004B000001002401C4A10B5536803F00C03042BD3
:1004C00001D0082B01D0194B0EE053685168C3F3DB
:1004D0008343CC0303F1020302D55168890301D59C
:1004E000134900E011494B43036053681149C3F3BA
:1004F0000313CC5C0368E34043605468C4F30224F4
:100500000C5D23FA04F484605468C4F3C2240C5DC7
:10051000E340C3605268C2F381320A44127CB3FBE9
:10052000F2F3036110BD00BF0010024000127A0018
:1005300000093D0014000020044B5A6909B1104322
:1005400001E022EA00005861704700BF001002403D
:10055000044B9A6909B1104301E022EA0000986156
:10056000704700BF00100240044BDA6809B1104325
:1005700001E022EA0000D860704700BF001002408E
:10058000044B1A6909B1104301E022EA0000186126
:10059000704700BF0010024008B5204B98420BD1B5
:1005A0004FF480400121FFF7DFFFBDE808404FF422
:1005B00080400021FFF7D8BF194B984207D14FF474
:1005C00000300121FFF7DCFF4FF400301FE0154B36
:1005D000984207D14FF480200121FFF7D1FF4FF45B
:1005E000802014E0104B984207D14FF400200121E5
:1005F000FFF7C6FF4FF4002009E00C4B98420BD1E7
:100600004FF480100121FFF7BBFF4FF48010002151
:10061000BDE80840FFF7B4BF08BD00BF0038014087
:100620000044004000480040004C004000500040A2
:1006300070B50E460446038ACA889BB223F4405321
:100640001343038282890989B38892B20B4371896B
:1006500022F4B0520B4322F00C0213439BB283816D
:10066000838AB2899BB223F4407386B0134383829A
:1006700001A8FFF71FFF039B049D174A31689442AE
:1006800018BF1D46A38919226A431BB2002BB4BFB1
:100690004D008D00B2FBF5F56426B5FBF6F00001C8
:1006A000010906FB1153A28912B2002AADBF1A013B
:1006B000D90032313232B5BFB1FBF6F2B2FBF6F3FC
:1006C00002F0070203F00F03B4BF1043184380B2D7
:1006D000208106B070BD00BF003801400B8810B506
:1006E0004C88028A23438C88C98892B223430B43E7
:1006F00022F4706213439BB2038210BD0023038077
:1007000043808380C3807047838919B19BB243F4CF
:10071000005303E023F400531B041B0C8381704738
:1007200010B5C1F34214012301F01F01012C03FA9B
:1007300001F301D10C3003E0022C0CBF1030143057
:1007400012B10268134302E0026822EA0303036065
:1007500010BD0388194214BF012000207047090A08
:1007600001238B40DB439BB20380704700EB80008A
:10077000430018460138FDD870470288838810B5B9
:10078000541C234044889C421FBF8468A1540380AA
:10079000012008BF002010BD70B50646013A4D1E6D
:1007A0008C18A54205D0304615F8011FFFF7E5FF6C
:1007B000F7E770BD428803889B1A9BB21A0441BFB9
:1007C000808801301B1898B258BF1846704741887E
:1007D000038880885B1A99B28BB213F4004F1EBF56
:1007E000421C8B189BB2C01A80B2704730B5039C74
:1007F00030250D7042F20F75A84207D90D78A0F58B
:100800001C50013510380D7080B2F3E730211170A3
:10081000B0F57A7F06D31178A0F57A7001311170A6
:1008200080B2F5E730221A70632805D91A78643847
:1008300001321A7080B2F7E730232370092805D9F6
:1008400023780A380133237080B2F7E7049B3030F5
:10085000187030BD13B5CB1C00930B1D01934A1CBF
:100860008B1C0C46FFF7C2FF0023637102B010BD62
:10087000002110B5044608468BB2E25C013132B16A
:1008800000EB800302EB4303303B98B2F4E710BD6A
:100890000A4B1A8892060FD509480A499A88038894
:1008A00009880133C3F30C0389B2994218BF064982
:1008B000D2B21CBFCA540380704700BF0038014049
:1008C000FC050020FE0500203A26002008B503485C
:1008D0004021FFF73EFF0028F9D008BD0038014055
:1008E000044B1888044B80B21B889BB2C01A18BFF7
:1008F00001207047FC050020FE050020084B094A36
:100900001988138889B29BB29942F7D013880133B2
:10091000C3F30C0313801388034A9BB2D05C704767
:10092000FC050020FE0500203A2600201FB500230C
:1009300000900C2208486946ADF80430ADF8063046
:10094000ADF80830ADF80A20ADF80C30FFF770FEB6
:1009500005B05DF804FB00BF0038014030B544F23B
:10096000050085B0234C0121FFF7F2FD4FF4007321
:10097000ADF8003003251823204669468DF8033072
:100980008DF80250FFF714FD4FF480636946ADF80F
:1009900000308DF802504823174D20468DF8033063
:1009A000FFF706FD02A8FFF7A9FE02A92846FFF7F8
:1009B00095FE1248FFF7BAFF252301248DF8043075
:1009C00001A80F238DF806308DF805408DF80740FB
:1009D00002F05AFA0A4B00221A800A4B284640F2CB
:1009E00025511A80FFF79CFE28462146FFF78CFE12
:1009F00005B030BD000801400038014080841E0071
:100A0000FE050020FC05002010B5084CFFF7A6FFEE
:100A1000204640F22551FFF7A2FE2046BDE81040D7
:100A200040F225510122FFF77BBE00BF0038014094
:100A300001481021FFF70CBD0008014001481021BA
:100A4000FFF704BD00080140014608B5064802F062
:100A5000B7FA0548012102F0C4FA0028F9D002488B
:100A600002F0B0FAC0B208BD00300140FF20FFF72D
:100A7000EBBFFFF7FBBF000010B5064C322323602D
:100A8000FFF7F7FFFFF7F2FFFF2802D02368002BE4
:100A9000F8D110BD2C000020020638B504460D46E2
:100AA00007D577200021FFF7F7FF012833D804F09E
:100AB0007F04FFF7C3FFFFF7BBFFFFF7DDFFFF2852
:100AC00028D12046FFF7C0FF280EFFF7BDFFC5F372
:100AD0000740FFF7B9FFC5F30720FFF7B5FFE8B2FE
:100AE000FFF7B2FF402C04D0482C0CBF8720012018
:100AF00000E09520FFF7A8FF4C2C01D1FFF7B9FFCC
:100B00000A24FFF7B3FF030605D5013C14F0FF04E8
:100B1000F7D138BDFF2038BD4FF6FF7310B58CB04C
:100B2000ADF80230244B00245A6842F0F0025A60BB
:100B30005A6842F470625A60A3F54F43F43B019344
:100B40004FF4405304910A93029080231B4801A95B
:100B5000069305940794089409940B94039402F067
:100B60005BF90DF1020302931548102301A90393C9
:100B7000069402F051F91148012102F06BF9104876
:100B8000012102F067F90F480321012202F00FFA58
:100B9000202002F06BF90028FAD000220948032136
:100BA00002F005FA0548002102F054F9044800213A
:100BB00002F050F90CB010BD000002401C000240D1
:100BC00030000240003001400E4B70B506460D4625
:100BD0001C460A225A60FFF749FFFF2803D16068CC
:100BE0000028F8D170BDFE2809D1A9B23046FFF720
:100BF00093FFFFF73EFFFFF73CFF012070BD002091
:100C000070BD00BF2C0000204FF6FF7330B50D46BD
:100C100004468DB02348ADF8023002F085F8224832
:100C200002F082F8214B4FF4405201930A920023C4
:100C30000DF102021B4801A9029207930893059344
:100C400009930B9303930693049502F0E5F81023A0
:100C500003931548802301A90693029402F0DCF85F
:100C60001048012102F0F6F80F48012102F0F2F8D5
:100C70000F480321012202F09AF9202002F0F6F831
:100C80000028FAD00748002102F0E4F806480021C5
:100C900002F0E0F806480321002202F088F90DB0C6
:100CA00030BD00BF1C000240300002400C3001404B
:100CB0000030014008B54FF40071FFF7A5FFFF2099
:100CC000FFF7C2FEFF20FFF7BFFEFFF7CFFE00F0E9
:100CD0001F00431F5842584108BD0000054900F05D
:100CE00007000A8822F038031B041B0C43EAC003E8
:100CF0000B8070470030014030B54FF4805089B010
:100D00000121FFF725FC05200121FFF721FC04202C
:100D10000121FFF71DFC03241023344802A9ADF87C
:100D200008308DF80B308DF80A40FFF741FBFFF7D4
:100D300085FEA023ADF808302C48182302A98DF8B1
:100D40000B308DF80A40FFF733FB4023ADF8083035
:100D50002648482302A98DF80B308DF80A40FFF78A
:100D600027FB4FF48273ADF80E300223ADF812303A
:100D70004FF40073ADF81630382300240125ADF888
:100D800018301B48072303A9ADF81C30ADF80C4000
:100D9000ADF81040ADF81450ADF81A4002F0DCF890
:100DA0001348214602F011F91148294602F0F3F8E0
:100DB0000F48022102F015F90028F9D00C4802F082
:100DC00001F9C0B28DF807009DF807300948DBB281
:100DD0008DF8073001F0A8FF074801F0A5FF0120BA
:100DE0000146FFF7A9FB09B030BD00BF0008014074
:100DF000003001401C0002403000024013B50C4C92
:100E0000FFF71CFE204602F075F82046002102F094
:100E1000C2F8E023ADF8043028238DF807300548E8
:100E2000032301A98DF80630FFF7C2FA02B010BD06
:100E3000003001400008014010B5094C2378DB0761
:100E400007D4FFF7F5FDFFF717FEFFF7F7FDFFF7F4
:100E500010FEFFF7D3FF237843F00103237010BD8A
:100E600028000020F7B5002840F08F80484B1A7802
:100E70001E4612F0020F01D0187884E0454D192368
:100E80006B606B68002BFCD1FFF736FF0720FFF784
:100E900025FF0A24013CFFF7ECFD14F0FF04F9D113
:100EA00040202146FFF7F8FD012801D0002459E039
:100EB000642348204FF4D5716B60FFF7EDFD0128E6
:100EC00031D1FFF7D3FD01AF38550134042CF8D1EF
:100ED0009DF80630012BE9D19DF80730AA2BE5D10A
:100EE0006B681BB96B68002BE0D007E0E9204FF07E
:100EF0008041FFF7D1FD0028F2D1F3E77A200021ED
:100F0000FFF7CAFD0028D1D10446FFF7AFFD3855E1
:100F10000134042CF9D19DF8043013F0400F14BFB4
:100F20000C2404241EE02146E920FFF7B5FD022829
:100F300035BF02240124E92741276B685BB96B6840
:100F4000002BB3D050204FF40071FFF7A5FD00280F
:100F500018BF002406E038460021FFF79DFD002859
:100F6000EBD1ECE72C72FFF769FDFFF782FD3CB196
:100F70003378012003F0FE033370FFF7AFFE01E08A
:100F8000FFF75AFF3078C0B200E0012003B0F0BD97
:100F9000280000202C00002018B9034B1878C0B29C
:100FA00070470120704700BF2800002038B50D466B
:100FB0001C46114690BB8BB31A4B1B78DA072FD413
:100FC000194B1B7A1B0758BF4902012C0CD1512029
:100FD000FFF762FDD0B928464FF40071FFF7F4FD2A
:100FE000B0FA80F4640911E05220FFF755FD68B9AA
:100FF00028464FF40071FFF7E7FD18B1013C05F5F5
:101000000075F5D14C200021FFF746FDFFF716FDD6
:10101000FFF72FFD201C18BF012038BD042038BD6C
:10102000032038BD280000202C00002070B50D469C
:1010300016461C4600284ED1002B4CD0294B1A785E
:10104000D0074AD41B78590749D4274B1B7A1A0773
:1010500058BF7602012C14D158203146FFF71CFDF1
:1010600008B101242FE0FFF707FDFF28F9D1FE208A
:10107000FFF7EAFC2846FFF71DFEB0FA80F464098A
:1010800021E013F0060F03D0D7202146FFF704FD1F
:1010900059203146FFF700FDA8B9FFF7EDFCFF2806
:1010A0000AD1FC20FFF7D0FC2846FFF703FE18B159
:1010B000013C05F50075F0D1FFF7DEFCFF28D0D12B
:1010C000FD20FFF7C1FCFFF7B9FCFFF7D2FC201CA5
:1010D00018BF012070BD042070BD032070BD022028
:1010E00070BD00BF280000202C0000207FB51546F1
:1010F0000446002840F0FA80052915D11378012B09
:1011000009D005D3022B40F0F18001235370EBE0AE
:10111000FFF792FEE8E0784B19225A605C68002CD9
:10112000FCD1FFF7E9FDDFE0744B1B78DB0700F132
:10113000DF800E2900F2D380DFE801F008114D5165
:10114000D1D1D1D1D1D1A0A5A7B1C000FFF770FCFA
:10115000FFF792FCB0F1FF0418BF0124C0E0492062
:101160000021FFF799FC044608B10124B8E0684665
:101170001021FFF729FD0028F7D09DF800309DF8D9
:1011800009009B09012B9DF8083005D1013000EBC7
:1011900003239BB29B021CE09DF80710890001EB22
:1011A00093135A1C9DF806309DF8051003F00303B5
:1011B00002EB83239DF80A2001F00F0101EBD2120C
:1011C000911C00F0030201EB4202D2B29BB2093A39
:1011D00093402B6084E04FF40073138051E0464E3F
:1011E000337A03F0040303F0FF01CBB1CD200021DB
:1011F000FFF752FC0028B8D1FFF73BFC68461021EE
:10120000FFF7E2FC0028B0D03024013CFFF731FCAE
:1012100014F0FF04F9D19DF80A2010231209D7E732
:101220004920FFF739FC044600289ED1684610216A
:10123000FFF7CAFC002898D0317A9DF80A2001F007
:10124000020101F0FF009DF80B3051B102F03F02A6
:10125000DB0903EB42039DF80D2001339209013AAB
:10126000B6E703F00304C2F384015A0902EBC40297
:10127000531C01FB033304462B6031E01E4B1B7AE9
:10128000137000242CE0492000E04A200021FFF7E1
:1012900003FC00287FF469AF2846102119E07A206A
:1012A0000021FFF7F9FB00287FF45FAF2C1DFFF74B
:1012B000DDFB05F8010BA542F9D1E2E7CD200021C5
:1012C000FFF7EAFB00287FF450AFFFF7D2FB284678
:1012D0004021FFF779FCB0FA80F4640900E00424AF
:1012E000FFF7ACFBFFF7C5FB204602E0042000E05F
:1012F000032004B070BD00BF2C0000202800002097
:101300000D4A536813F0FF031EBF03F1FF33DBB236
:101310005360136813F0FF031FBF03F1FF33064947
:10132000DBB20B60D3680021D16023B9034A137884
:1013300003F0F903137070472C00002028000020F0
:101340000A4B01221A825A6901325A611A8B92B2EF
:101350000AB9092202E01A8B013A92B21A831B8B56
:101360009BB20BB9FFF7CCBF704700BF2C00002029
:101370000B4B0021198259610A4B0B4A1B68F02064
:10138000B3FBF2F34FF47A725343084A013B5360C4
:10139000074B83F82300072391601360704700BF59
:1013A0002C0000200000002040420F0010E000E070
:1013B00000ED00E0064B9A8C064B92B219881A8019
:1013C000914281BF0448018801310180704700BF0C
:1013D000002C0140EC0400207E020020074B084A4C
:1013E0009B8C11889BB299420649138082BF088862
:1013F00001300880088803EB00407047002C014052
:10140000EC0400207E02002030B54FF4006085B06F
:101410000121FFF79DF84FF6FF73ADF808300E4B32
:101420000E4A1B680E4CB3FBF2F304A9013B0025E6
:1014300021F80C3D2046ADF80A50ADF80650FEF7F5
:1014400065FE20460121FEF7ABFE064B1D80A28CF7
:10145000054B1A8005B030BD0000002040420F004F
:10146000002C01407E020020EC04002007B54FF460
:101470000073ADF8043018238DF8073001A9032359
:1014800005488DF80630FEF793FF0120FFF76EF94F
:1014900003B05DF804FB00BF0008014007B5FFF78B
:1014A00015FA0120FFF762F94FF40073ADF804302C
:1014B00048238DF807300548032301A98DF806302D
:1014C000FEF776FF03B05DF804FB00BF00080140A3
:1014D0002DE9FF41134C0D4607466118684601F09F
:1014E00087FD013D04F1FF38254400260124A8456D
:1014F00015D0802C04BF0136B6B204AB334413F8C8
:10150000103C08BF012418F8011F234218BF41F006
:10151000800138466400FFF730F9A4B2E7E704B071
:10152000BDE8F081EE04002007B504200121FFF79B
:101530000FF80423ADF8043010230A4801A98DF8F0
:10154000073003238DF80630FEF732FFFFF75CFA11
:10155000FFF7A4FFFFF758FFFFF70AFF03B05DF89E
:1015600004FB00BF0008014008B5114B114C1B687B
:1015700011482360FEF7C6FE1048FEF7C3FE104870
:10158000FEF7C0FE0F48FFF707F8FEF769FF0E4BA6
:101590000020186058609860FEF782FF0120FEF777
:1015A0000EFE0A4B1868FEF707FE23689847FEE711
:1015B00004F0FF1F3C46002000080140000C0140E1
:1015C000001001400038014010E000E000F0FF1F73
:1015D000074A50B1138801339BB20A2B138005D9F7
:1015E00048F20202034B1A8070471080704700BF18
:1015F000F405002076020020F0B5034687B01E48AF
:101600001E491F4A01F080FB002832D104461B4BC3
:101610005A7A1E4642B300273D461A4801F0DCFDC7
:10162000BBB283420ED233445B7A0137A3F130025E
:10163000092A9FBF06A96A1C6D1805F8143C98BFBB
:1016400095B2EAE706AB1D4401A8002305F8143C57
:10165000FFF70EF9A04238BF2046084984B2064879
:1016600001F03BFB0028D2D0034801F0B6FA204637
:1016700000E0002007B0F0BD9802002080020020AA
:10168000353200088902002010B51148FFF79FF895
:101690000C281BD945210E48FFF76FF80D4C092186
:1016A0000B48FFF76AF8042209480B49FFF774F862
:1016B00021780748FFF761F861780548FFF75DF882
:1016C000A1780348BDE81040FFF757B810BD00BF30
:1016D0002C26002026260020F005002070B5404C66
:1016E0002046FFF774F8312879D9522120463D4D24
:1016F0002688FFF742F800212046FFF73EF8042233
:1017000020463949FFF748F829782046FFF735F891
:1017100069782046FFF731F82046A978FFF72DF8C1
:101720002B78402B27D16B78032B1ED12F492046D5
:101730004B78CA785B004B708B7803EBC2134B80FD
:101740000B798A795B000B714B7903EBC213A1F81B
:101750000530CB794A7A5B00CB710B7A03EBC2136D
:101760000B810A22FFF718F826E00B2B24D1204624
:10177000212106221EE0FBB96B780B2B1CD1AB7824
:10178000233B092B18D8DFE803F00B0E12121705C4
:101790000505080812480E210BE011480D2108E04C
:1017A0000F480C2105E00E481621042202E00C48E7
:1017B0000A210222FFF78CFE23889B1B9AB293B268
:1017C000190448BF064B06F1010642BF9B8801334E
:1017D0009B18A28848BF9BB21640A268935570BD63
:1017E0002C26002026260020F0050020EE040020F4
:1017F000F8B543B2002B6C4CBCBF00222280278876
:101800000546022F684E5CD003D857B1012F40D057
:10181000F8BD042F00F0998079D3642F00F0B280D6
:10182000F8BD002B80F2BF80FFF7D8FD5F4B604A08
:10183000186005F07003FF2105F00F05302B1370C1
:101840005570917008D002D8E3B1102B02E0402B04
:1018500006D0502B40F09D80BDE8F840FFF73EBF1A
:10186000032D06D00B2D40F09E80012333802823CA
:1018700002E0012333800B23B3804E4BF7809B8C17
:101880007380F8BD0B2D0CBF02226422494B3280BD
:10189000F5E7F388484AD0540133B0889BB28342BD
:1018A000F3806BD3002319465D1CDBB2834203D265
:1018B000D35C59402B46F7E7404A002313800325A9
:1018C0003CE03B4BA0F123059870092D1CD8DFE8C4
:1018D00005F00D1115151B050505090903232380C6
:1018E00011230EE00323238010230AE00323238027
:1018F0000F2306E0032323801B2302E0032323801E
:101900000D23A380002338E000232380F8BDF38853
:10191000294AD0540133B0889BB28342F3802DD33F
:10192000002319465D1CDBB2834203D2D35C5940CD
:101930002B46F7E7214A0023138002252048058023
:1019400009B101211180238018E0F388042B13D8FA
:10195000DFE803F003080A0C0E0046280CD0002232
:10196000228009E04C28F9E74128F7E75328F5E7FA
:101970004828F4D1FFF7F8FD0133E3800D4B9B8C31
:101980006380F8BD0A4B9870FFF7A8FE00233380F0
:10199000F8BD702B07D10B4B1B88AB4200D015B99B
:1019A00004232380AEE7F8BD00060020F0050020E8
:1019B00026260020002C0140EE040020F80500201F
:1019C000242600207A020020094B0B221A80094BA2
:1019D00064221A80084B00221A80084B1A80084B98
:1019E0005A801A8041F6FF729A80064A9A607047C0
:1019F0007A020020FA050020382600200A0600207E
:101A00002C2600200C06002000B5194891B0194979
:101A1000012200F071FE18B148F20202164B1A8042
:101A20001648FFF7E9FD013080B26946FEF712FF64
:101A3000134908A801F072FB0DF1010108A801F09B
:101A40004DFB104908A801F049FB0F4808A90A22DC
:101A500000F07AFE18B148F20202074B1A800B4BD5
:101A6000002201205A801A8011B05DF804FB00BFEB
:101A7000B802002035320008760200206A320008E1
:101A80006F3200086E320008500000202C26002023
:101A900008B5094B1A8812B941F64B5200E0013AD9
:101AA0001A801B8833B9054801F007F8BDE80840E3
:101AB000FFF78EBD08BD00BF382600205000002073
:101AC000034B1B880BB1FFF7DFBDFFF707BE00BF5D
:101AD000F8050020034B1B880BB1FFF7D5BDFFF7BE
:101AE000FDBD00BFF80500202DE9F743FFF71CFD01
:101AF000684B00261E80684B684F1E80684D694BFE
:101B00003E801E802E80FFF75FFF4FF400432B8046
:101B10004FF6FF73644C3246644804216380FEF73D
:101B200099FCB4F90230DFF88481B3423E4604DA0E
:101B3000404604210122FEF78DFCFEF7D1FE18B1CC
:101B4000FEF7DCFEFFF754FEDFF880914846FEF713
:101B500031FEB0F5805F15D9B9F80230D9F8081018
:101B60004FF480521944524801AB00F0E9FEFFF7F0
:101B70002FFDB9F8023003F58052B9F80430134054
:101B8000A9F8023033889BB2013B062B19D8DFE855
:101B900003F004070A160D0F140000233B80A5E78D
:101BA000FFF78EFF0BE0FFF795FF08E0FFF75EFC05
:101BB000404B00221A80072302E0FFF76FFC00234E
:101BC00033803D4A138A9BB2002BB6D04FF00009F8
:101BD000A2F81090FFF7EEFBB4F90210494512DDB0
:101BE000364A138801339BB28B42A1BFD8F80C3020
:101BF000A2F80090DB4303F00403AABF43F4802360
:101C00001380C8F810302B88254923F4FE4292B285
:101C1000B2F5004F0FD004D8012A1FD010D3032AE9
:101C200007E048F2020082421BD011D348F20303BE
:101C30009A421CD081E7C3F30E030B8032236380EA
:101C4000FFF7E2FE6FEA40406FEA5040288074E7F9
:101C5000C3F30E030B804FF4FA736380FFF718FF92
:101C60006BE7C3F30E030B806423638065E7144ABC
:101C7000138801339BB21380124A12889A42BFF430
:101C80005CAF114B1B886FEA43436FEA53432B80D1
:101C900053E700BF404600207802002024260020A1
:101CA00076020020000600202800002000080140E5
:101CB00050000020F80500202C00002074020020B5
:101CC000F6050020080600207C0200202C260020BB
:101CD00001380A44914204D011F8013B00F8013F59
:101CE000F8E7704703685A1C02601878A0F1610396
:101CF000192B9CBF203880B27047F0B505461E46B0
:101D0000144685B001913CB101A8FFF7EBFF013CFF
:101D10000028F8D1002039E02B78002B32D1002E9A
:101D200030D0012032E02A2B0FD002A8FFF7DAFFD3
:101D3000074603A8FFF7D6FF874204461BD1002FB2
:101D4000EFD0029B1B783F2BEDD100231A4602995E
:101D5000481C02900C7849783F2C0CBF01320123BB
:101D60003F29F4D02A29F2D00399FFF7C6FF0028B3
:101D7000D7D1039B1C7801A8FFF7B4FF002EC9D070
:101D8000002CC7D0019B02950393DAE705B0F0BDA4
:101D9000036810B593B11A46144612F8011B2029A6
:101DA0000AD93A29F8D11A4612F8011B944205D1F2
:101DB000302903D102330360002010BD4FF0FF3003
:101DC00010BD08B580B1036873B11A7862B1D988C3
:101DD0008288914208D15878FFF7DEF810F0010FA1
:101DE00014BF0320002008BD092008BDCA7E8B7ED9
:101DF000032843EA022301BF487D0A7D42EA00220C
:101E000043EA024318467047F8B5037904460BB914
:101E10000020F8BDC56A00F13007394640782A46EF
:101E20000123FFF703F990B9236AA269EB1A9342E1
:101E30002071EDD2E678012EEAD9A36960781D44BD
:101E400039462A460123FFF7F1F8013EF3E7012066
:101E5000F8BDC36A70B5994206460D4611D0FFF72A
:101E6000D3FF044670B92A46707806F13001012389
:101E7000FFF79CF800281CBF4FF0FF350124F562E6
:101E800000E00024204670BD002310B503714FF020
:101E9000FF33C3620446FFF7DCFF80BB94F82F22B8
:101EA00094F82E3243EA02234AF65522934228D16F
:101EB00094F8683094F869201B0443EA026394F8AC
:101EC0006620134394F8672043EA02230E4A23F066
:101ED0007F43934216D094F8843094F885001B0415
:101EE00043EA006094F88230034394F8830043EAA5
:101EF000002020F07F40801A18BF012010BD032071
:101F000010BD022010BD00BF464154002DE9FF4125
:101F100000230360804608461646FFF739FF071E78
:101F2000C0F22081964D55F82740002C00F01C810E
:101F3000C8F80040237883B16078FFF72DF8C30715
:101F40000BD4002E00F00C8100F0040303F0FF001E
:101F5000002B00F011810A200EE1F8B2002323705B
:101F60006070FEF77FFFC70700F100810EB14107E7
:101F7000F1D420460021FFF787FF012828D1214610
:101F8000002091F8F2316BB191F8F83191F8F92114
:101F90001B0443EA026391F8F621134391F8F721F9
:101FA00043EA02234DF820300130042801F11001EA
:101FB000E7D100275DF827602EB120463146FFF7B4
:101FC00063FF08B90CE002200137042FF2D1CFE003
:101FD00003284FF0000600F0CE8008B10D20CBE0C2
:101FE00094F83C2094F83B3043EA0223B3F5007F99
:101FF000F4D194F8470094F8463053EA00200DD10C
:1020000094F8563094F857001B0443EA006394F8A0
:102010005400034394F8550043EA002094F84080AC
:10202000A06108F1FF33012B84F80380D6D894F81F
:102030003D30A370002BD1D05A1E1A42CED194F855
:10204000412094F8427042EA07273A072781C5D118
:1020500094F8441094F8432052EA01220DD194F8E8
:10206000521094F85320090441EA026294F8501087
:102070000A4394F8511042EA012294F83FC094F8C0
:102080003E1051EA0C2CA9D008FB00F80CEB1711FC
:1020900041448A42A2D3521AB2FBF3F3002B9DD0E3
:1020A00040F6F572934208D94FF6F57E73458CBF22
:1020B0004FF0030E4FF0020E01E04FF0010E02331D
:1020C00006EB0C023144BEF1030F6361E66122624C
:1020D000A16212D1002F81D194F85E2094F85F1094
:1020E000120442EA016294F85C109B000A4394F8DF
:1020F0005D1042EA012262620FE0002F3FF46EAFF2
:102100004244BEF1020F62624FEA43020FBF134620
:10211000D21803F0010303EB520303F2FF13B0EBF9
:10212000532FFFF45BAF4FF0FF332361E360802355
:102130006371AB8894F8592001339BB2AB80E38084
:1021400094F8583084F800E043EA0223A4F83032CF
:1021500094F8612094F8603043EA0223A4F8323204
:10216000002009E00B2007E00C2005E0032003E03D
:1021700003287FF433AF012004B0BDE8F08100BF35
:102180004800002043690239023B99423DBF8278F2
:10219000836A02FB0130002070470129F8B506462A
:1021A0000C465ED9436999425BD20378022B29D051
:1021B000032B3AD0012B54D101EB5105016A01EBFD
:1021C0005521FFF746FE10B14FF0FF30F8BD316AE0
:1021D0006F1CC5F308053544304601EB572195F8CF
:1021E0003050FFF736FE0028EED1C7F308073E4413
:1021F00096F83000E30745EA00204CBF0009C0F321
:102200000B00F8BD016A01EB1421FFF722FE002844
:10221000DAD1640004F4FF743319344493F8303095
:1022200094F8310043EA0020F8BD016A01EBD411B3
:10223000FFF70FFE0028C7D1A30003F4FE7404F1DA
:1022400030033344D8789A7800065B7840EA02403D
:10225000344440EA032094F83030184320F07040B2
:10226000F8BD0120F8BD70B584680023012C064636
:10227000C38001D1022070BD05686B699C42F9D210
:1022800054B92B78032B01D16B6A23B92B89002B0E
:10229000F0D0686A14E01C46AB786BB92146306810
:1022A000FFF77BFF431C044612D00128E2D93368B4
:1022B0005B699842F2D3DDE728462146FFF762FFCB
:1022C000F4600028D6D0303530617561002070BDD3
:1022D000012070BD01292DE9F04106460C46154646
:1022E00070D9436999426DD20378022B3AD0032BFF
:1022F00049D0012B66D101EB5107016A01EB57214F
:10230000FFF7A7FD00285ED107F10108C7F3080712
:1023100014F00104374418BF97F83020EBB21EBF09
:1023200002F00F0242EA0313DBB2316A87F8303061
:1023300001233371304601EB5821FFF78AFD002855
:1023400041D1C8F30803334414B1C5F3071506E0BF
:1023500093F83020C5F3032522F00F02154383F8CC
:1023600030502BE0016A01EB1421FFF772FD50BBE6
:10237000640004F4FF74331983F83050C5F3072563
:1023800083F831501AE0016A01EBD411FFF761FDC7
:10239000C8B9A40004F4FE7404F130033344DA78BD
:1023A0003444120602F070421543C5F3072284F844
:1023B00030505A702A0C2D0E9A70DD700123337143
:1023C000BDE8F0810220BDE8F081F8B505460F4672
:1023D00031B9C66896B143699E4228BF01260EE016
:1023E000FFF7DBFE01283FD9441C02D14FF0FF303C
:1023F000F8BD6B69984238D33E4600E0012634466A
:102400006B6901349C4204D3012E01D80020F8BD31
:10241000022428462146FFF7C0FE30B1411C24D0DB
:10242000012822D0B442EBD1F0E7284621466FF0D4
:102430007042FFF74FFFA8B957B92B69EC605A1CDF
:102440000ED0013B2B616B7943F001036B7107E008
:10245000284639462246FFF73DFF0028EDD001E02F
:102460002046F8BD0128C1D00120F8BD2DE9F0417A
:10247000C68804460136B3B2884613B90420BDE8C5
:10248000F0810369002BF9D016F00F0761D1C16804
:1024900001330361006819B903899E42EED258E006
:1024A0008378013B13EA161353D1FFF776FE012818
:1024B000054602D80220BDE8F081421C02D101206D
:1024C000BDE8F081206843699D423CD3B8F1000F1C
:1024D000D4D0E168FFF779FF0546002842D00128F3
:1024E000E8D0431CEBD02068FFF78EFC0028E6D133
:1024F000236803F1300203F50C739A4203D00021E4
:1025000002F8011BF9E7D4F8008029464046FFF79E
:1025100039FEC8F82C004FF0000823689A789045DF
:102520000DD201221A712068FFF76EFC0028C6D177
:10253000226808F10108D36A0133D362EDE7DA6A51
:10254000C8EB0202DA62E56020682946FFF71AFE4E
:10255000206123687F0130371F44E68067610020D7
:10256000BDE8F0810720BDE8F08100002DE9F041D1
:102570000B7804462F2B0D4601D05C2B00D1013582
:102580000026A6602B781F2B41D82046FFF76BFE54
:102590006661BDE8F08100210D460B4607F1FF3E64
:1025A00008261EF8012F0135202A42D8212A3D4451
:1025B00034BF0422002200297CD00178E52904BF21
:1025C00005210170082E04BF9B00DBB203F003015C
:1025D000012903F00C0308BF42F01002042B08BFCE
:1025E00042F00802C2722046FFF73DFE002835D0B7
:1025F000A369DB7A002851D15A0779D46169CB7A73
:10260000DB0654D523681878FFF7F0FBA0602B7821
:102610002F462F2B05F10105F9D05C2BF7D0A069CF
:10262000034600F10B029342B5D0202103F8011BB1
:10263000F9E72F2ABAD05C2AB8D02E2A3DD0B14271
:1026400038D212F0800F35D1DFF8A88018F801CF0A
:10265000BCF1000F38D09445F8D12BE020682169F7
:10266000FFF7F7FB0028C3D163691A7892B1DA7AD1
:1026700011070AD4A26903F10B06B3420CD013F878
:10268000010B12F8011B8842F7D020460021FFF70A
:10269000EDFEABE70420ABE70020A9E7042827D133
:1026A00013F0040F14BF04200520BDE8F0810520BD
:1026B000BDE8F0810620BDE8F081082EFAD19B002C
:1026C0003146DBB20B266CE7A2F1410CBCF1190FCD
:1026D00002D843F0020308E0A2F1610CBCF1190F2B
:1026E0009EBF203A43F00103D2B24254013158E771
:1026F000BDE8F081723200081FB5019004A840F8CF
:10270000041D00911446FFF743FB011E14DB0D4B23
:1027100053F8210008B100220270019808B100228C
:10272000027043F8210050B1012C07D101A869467D
:102730000022FFF7EBFB02E00B2000E0002004B0DA
:1027400010BD00BF480000202DE9F04F8FB001916F
:1027500017460646002800F0D4800023036001A934
:1027600006A802F01E02FFF7D1FB002840F0E5802A
:1027700003AB06A801990C93FFF7F8FE0B9D0446E6
:1027800010B9002D08BF062417F01C0F07F01F0812
:1027900000F08A80002C38D0042C31D106A8FFF735
:1027A00062FD0446002840F0C48006980A99FFF7AD
:1027B00050FB0446002840F0BC800B9B1B78E52BA7
:1027C00009D106980A99FFF744FB0446C0B90B9B50
:1027D00003F1200206E0002BF3D006A80121FFF749
:1027E00045FEDEE7934203D0002103F8011BF9E721
:1027F0000B220B980C99FFF76BFA069B01221A71BA
:1028000048F008080B9D3CB191E0EB7A13F0110FF2
:1028100040F08C807C0776D418F0080F4DD041230F
:1028200000242B74069F46236B74AC73EC73EC721C
:102830002C776C77AC77EC7738782946FFF7D6FAA7
:102840000123AC76EC762C756C7581463B710028C3
:1028500033D09842D7F82CA057D97B69984254D2EC
:1028600004467B699C4254D238462146FFF795FCCA
:10287000834600284DD0012847D0B0F1FF3F46D015
:10288000214638460022FFF725FD044600284ED198
:102890003B695C46581C1FBF01333B617B7943F0A9
:1028A000010318BF7B71DCE7002C40D1EB7AD9061D
:1028B0003AD4BA0701D5DB0738D4069F18F0080FC1
:1028C000FB6A4FF0000418BF48F02008F36135623E
:1028D00086F80680F47138782946FFF787FA306168
:1028E000AB7FEA7F1B0443EA02632A7F13436A7FBC
:1028F000B46043EA0223F360FB88B4613760B380BD
:1029000015E0092019E0082411E002240FE0012459
:102910000DE0069809F1FF33C3605146FFF799FABD
:1029200004460028C9D002E0042400E00724204621
:1029300003E0042C08BF072462E70FB0BDE8F08F66
:102940002DE9F84F99460023C9F80030044688461F
:102950001646FFF736FA002840F0AD80E0790028EF
:1029600040F0A980A379990740F1A480A368DE42D2
:1029700028BF0026AEB1A368C3F30802002A75D1B0
:1029800020688778013F07EA532717F0FF071CD11B
:1029900013B9216959B900E06169FFF716FD0146D5
:1029A00028B9A368E26893427DD9E3607BE00129FE
:1029B00001D1022002E04A1C03D10120E071BDE8F0
:1029C000F88F2369616103B92161A3795B060DD595
:1029D000214651F8243BA26958780123FEF726FBD3
:1029E0000028EAD1A37923F04003A371D4F800B002
:1029F00061695846FFF7C6FB0028DAD05FEA562A1D
:102A000000EB070523D09BF802300AEB07029A423D
:102A100088BFC7EB030A9BF8010041462A4653468C
:102A2000FEF704FB0028C8D1A169491B51450BD210
:102A300004F1240008EB41214FF40072FFF748F93C
:102A4000A37923F04003A3714FEA4A2520E0A3694C
:102A5000AB4201D1A56109E004F1240304F5097238
:102A60009342F7D0002103F8011BF9E7A068414623
:102A7000C0F30800C0F50075B54228BF35462044B4
:102A800024302A46FFF724F9A37943F04003A371C9
:102A9000A368A8442B44A360D9F80030761B2B44CC
:102AA000C9F8003066E7A379002043F02003A37142
:102AB000BDE8F88F0720BDE8F88F10B50446FFF792
:102AC00080F9002852D1A37903F0200202F0FF0020
:102AD000002A4BD05B060DD5214651F8243BA26954
:102AE00058780123FEF7A2FA00283DD1A37923F0FC
:102AF0004003A3712068E169FFF7ABF9002835D1E5
:102B0000236ADA7A42F02002DA72E2681A77A2893E
:102B1000120A5A77E2899A77E27BDA772269987506
:102B20009A76C2F30721120C1A75120A5A754122BD
:102B30001A764622D976D8755A769874D874A379BD
:102B4000012223F02003A37123681A712468204610
:102B5000FFF75AF9014648B960780A46FEF7C6FA07
:102B6000003018BF012010BD012010BD10BD10B5F0
:102B700086B00191044628B302A801A90022FFF7FC
:102B8000C5F9E0B9029B2046236003ABA36101991C
:102B9000FFF7ECFCE0B9616939B1CB7ADB060DD502
:102BA000029B1878FFF722F9A060029B2046DB8881
:102BB000A380FFF758FB0346042B05D10520002313
:102BC000236008E0092006E0002BF8D1184602E057
:102BD0000428F4D1F2E706B010BD10B50446FFF7A3
:102BE000F0F800B9206010BDF0B585B004460D4680
:102BF000FFF7E7F8064600286CD11DB92046FFF71D
:102C000032FB66E001ABA36104202169D9B12068E1
:102C1000FFF71FF9C0B963691A78002A53D0E52A73
:102C2000DB7A09D02E2A07D003F03F030F2B03D005
:102C300023F02003082B0BD120460021FFF716FCC0
:102C40000028E2D000E018B10023042823613CD121
:102C5000236905F1090263B3636900205F1E17F859
:102C6000011F013020290BD0052908BFE5210928C3
:102C700002BF4FF02E0E82F800E0013211700132D7
:102C80000B28ECD1D97A2972997FD87F090441EABF
:102C90000061187F0143587F41EA00212960587E76
:102CA000197E41EA0021A980D97D9B7D43EA012359
:102CB000EB800025157020462946FFF7D7FB042836
:102CC00007D1256106E00420BEE710B905F109022D
:102CD000EFE70646304605B0F0BD70B506460D4636
:102CE00030462946FFF780FF044658B955B16B7A44
:102CF00043B1F06905F1090122462346FEF7FDFFC5
:102D00000028EDD0204670BD38B50D46C361114690
:102D10000446FFF72CFF28B920462946BDE8384075
:102D2000FFF7DBBF38BD00004FF6FE7302681340AB
:102D300003600023036043608360C360284B9842B4
:102D400001D1284A27E0284B984201D1254A2AE0A0
:102D5000264B984201D1234A2DE0254B984201D1C0
:102D6000204A30E0234B984201D11E4A33E0224BE7
:102D7000984204D11B4A536843F470032EE01F4B62
:102D8000984204D1174A536843F0706326E01C4B05
:102D9000984204D11B4A536843F00F031EE01A4BBC
:102DA000984204D1174A536843F0F00316E0174BDA
:102DB000984204D1134A536843F470630EE0144BF5
:102DC000984204D10F4A536843F4704306E0114B14
:102DD000984204D10B4A536843F470235360704700
:102DE00008000240000002401C0002403000024087
:102DF00044000240580002406C0002408000024043
:102E000008040240000402401C0402403004024056
:102E100044040240580402408A6810B50C6A0368F2
:102E200014430A6923F4FF4314434A6923F07003EF
:102E300014438A691443CA6914434A6A14438A6A68
:102E4000224313430360CB6843600B6883604B6885
:102E5000C36010BD19B1036843F0010303E04FF6EE
:102E6000FE7302681340036070470000C3004CBF4C
:102E7000034B044B1B68034214BF01200020704722
:102E80000004024000000240C27810B503780AB383
:102E9000164A03F16043D4684278E443C4F3022441
:102EA000C4F1040102FA01F10F22E240847803F533
:102EB000614322400A431201D2B283F8002303780F
:102EC0000122590903F01F0302FA03F3084A42F8EA
:102ED000213010BD5A09012103F01F03994002F16E
:102EE0002003034A42F8231010BD00BF00ED00E0AC
:102EF00000E100E008B5154B98420BD14FF480502B
:102F00000121FDF731FBBDE808404FF4805000215E
:102F1000FDF72ABB0E4B984207D14FF480400121A8
:102F2000FDF72EFB4FF4804009E00A4B98420BD18D
:102F30004FF400400121FDF723FB4FF40040002136
:102F4000BDE80840FDF71CBB08BD00BF00300140D4
:102F500000380040003C004003884A8810B503F464
:102F600041540B8813438A881343CA8813430A8940
:102F700013434A8913438A891343CA89134323435A
:102F80009BB20380838B23F400631B041B0C83839D
:102F90000B8A038210BD038819B19BB243F0400332
:102FA00003E023F040031B041B0C0380704783885D
:102FB0009BB20AB1194301E023EA01018180704705
:102FC00081817047808980B27047038819B19BB2B4
:102FD00043F4005303E023F400531B041B0C038051
:102FE00070470389194214BF012000207047000078
:102FF000844641EA000313F0030349D1403A23D346
:103000000B6803604B6843608B688360CB68C36068
:103010000B6903614B6943618B698361CB69C36150
:103020000B6A03624B6A43628B6A8362CB6AC36238
:103030000B6B03634B6B43638B6B8363CB6BC36320
:1030400040304031403ADBD230320BD30B68036062
:103050004B6843608B688360CB68C360103010316D
:10306000103AF3D20C3205D351F8043B40F8043B3C
:10307000043AF9D2043208D0D2071CBF11F8013B40
:1030800000F8013B01D30B8803806046704700BF06
:10309000082A13D38B07B1D010F00303AED0C3F1CD
:1030A0000403D21ADB071CBF11F8013B00F8013BF7
:1030B000A4D331F8023B20F8023B9FE7043AD9D36E
:1030C000013A11F8013B00F8013BF9D20B7803708B
:1030D0004B7843708B78837060467047830710B5D8
:1030E000044610D10268A2F1013323EA020313F06F
:1030F000803F08D150F8042FA2F1013323EA0203E4
:1031000013F0803FF6D003781BB110F8013F002B7D
:10311000FBD100F003F8204610BD00BF80EA010299
:10312000844612F0030F4FD111F0030F32D14DF846
:10313000044D11F0040F51F8043B0BD0A3F1013200
:103140009A4312F0803F04BF4CF8043B51F8043B13
:1031500016D100BF51F8044BA3F101329A4312F08B
:10316000803FA4F101320BD14CF8043BA24312F092
:10317000803F04BF51F8043B4CF8044BEAD023468F
:103180000CF8013B13F0FF0F4FEA3323F8D15DF841
:10319000044B704711F0010F06D011F8012B0CF809
:1031A000012B002A08BF704711F0020FBFD031F881
:1031B000022B12F0FF0F16BF2CF8022B8CF8002008
:1031C00012F47F4FB3D1704711F8012B0CF8012B8B
:1031D000002AF9D1704700BF20F0030110F003006E
:1031E000C0F1000051F8043B00F1040C4FEACC0C94
:1031F0006FF000021CBF22FA0CF213434FF0010CD7
:103200004CEA0C2C4CEA0C4CA3EB0C0222EA030215
:1032100012EACC1204BF51F8043B0430F4D0C2F1DE
:10322000000102EA0102B2FA82F2C2F11F0200EBCF
:10323000D20070470A004D50553630303020004DD6
:1032400050553932353020004F56455253414D507C
:103250004C45440046415354204759524F00464183
:10326000535420414343002D20006C6F672A2E6C7D
:103270006F6700222A2B2C3A3B3C3D3E3F5B5D7C36
:023280007F00CD
:1032840000A24A0400000000000000000102030440
:1032940006070809000000000102030401020304F8
:0C32A40006070809020406080100FFFFED
:0400000508000000EF
:00000001FF
