:020000040800F2
:10000000C0090020C9030008C5030008C503000893
:10001000C5030008C5030008C50300080000000070
:10002000000000000000000000000000C503000800
:10003000C503000800000000C5030008F50F000814
:10004000C5030008C5030008C5030008C503000870
:10005000C5030008C5030008C50300080D1B000800
:10006000C5030008C5030008C5030008C503000850
:10007000B11B0008C5030008C5030008C50300083C
:10008000C5030008C5030008C5030008C503000830
:10009000C5030008C5030008C5030008C503000820
:1000A000C5030008C5030008C5030008C503000810
:1000B000C5030008C5030008C5030008C503000800
:1000C000C5030008C5030008C5030008C5030008F0
:1000D000C50300082D0E0008C5030008C50300086D
:1000E000C5030008C5030008C503000800000000A0
:1000F0000000000000000000000000000000000000
:1001000000000000000000005FF808F1224A0388A8
:1001100090429BB212D002F5006290420ED0B0F134
:10012000804F0BD0A2F59832904207D002F5806242
:10013000904203D002F58062904203D14A8823F0B6
:1001400070031343154A904208D002F58062904232
:100150001FBF23F44073CA889BB2134303808B886C
:1001600083850B8803850C4B98420FD003F5006301
:1001700098420BD003F54063984207D003F58063A3
:10018000984203D003F58063984201D10B7A03862D
:1001900001238382704700BF002C01400010004003
:1001A000038C70B523F001031B041B0C0384028C29
:1001B0008688038B0D8823F073031B041B0C1D43DF
:1001C00022F002020C894B881204120C23431343C1
:1001D000144AB6B290429BB20FD002F50062904230
:1001E0000BD002F54062904207D002F58062904247
:1001F00003D002F5806290420ED14C8923F00803AF
:100200001C438B8824F0040426F4407223438E8917
:10021000CC893443224396B2CA888680058382867D
:10022000038470BD002C0140038C30B523F480534F
:100230001B041B0C0384038C8488828B0D8822F49E
:10024000E6421204120C23F4005342EA05221B0476
:100250000D891B0C43EA05334D88A4B243EA0533EC
:100260000A4D92B2A8429BB203D005F50065A842A0
:1002700005D18D8924F4804444EA8514A4B2848095
:100280008283CA88A0F84020038430BD002C01403E
:10029000038819B19BB243F0010303E023F001038B
:1002A0001B041B0C03807047B0F8443029B16FEA7F
:1002B00043436FEA53439BB201E0C3F30E03A0F83C
:1002C0004430704780F30888704780F31088704787
:1002D000384B82B01A6842F001021A605968364AF7
:1002E0000A405A601A6822F0847222F480321A603E
:1002F0001A6822F480221A605A6822F4FE025A60B8
:100300004FF41F029A600022009201921A6842F490
:1003100080321A601A6802F400320192009A0132A7
:100320000092019A1AB9009AB2F5A06FF2D11A6838
:1003300012F4003218BF01220192019A012A05D05D
:100340001E4B4FF000629A6002B070471C4A116861
:1003500041F010011160116821F003011160116872
:1003600041F0020111605A685A605A685A605A682E
:1003700042F480625A605A6822F47C125A605A68C9
:1003800042F4E8125A601A6842F080721A601968E2
:10039000084A8901FBD5516821F003015160516879
:1003A00041F0020151605A6802F00C02082AFAD1A9
:1003B000C6E700BF001002400000FFF800ED00E0BB
:1003C00000200240FEE7000008B50C4A0C4B0D4926
:1003D0008B4204D252F8040F43F8040BF8E70A48A2
:1003E0000A494FF000028842B8BF40F8042BFADBFC
:1003F000FFF76EFFBDE8084002F0BABCC437000842
:10040000000000202C0000202C000020BC05002053
:1004100008B5264B984206D10121042000F058F976
:10042000002104203CE0224B984206D10121082003
:1004300000F04EF90021082032E01E4B984206D110
:100440000121102000F044F90021102028E01A4B6F
:10045000984206D10121202000F03AF90021202005
:100460001EE0164B984206D10121402000F030F9E1
:100470000021402014E0124B984206D10121802037
:1004800000F026F9002180200AE00E4B98420BD1A3
:1004900001214FF4807000F01BF900214FF48070AF
:1004A000BDE8084000F014B908BD00BF00080140D5
:1004B000000C0140001001400014014000180140F0
:1004C000001C014000200140CA782DE9F041D4060B
:1004D00048BF8C780E8802F00F0348BF234316F004
:1004E000FF0F1ED0016800244FF0010E4FF00F0CDB
:1004F0000EFA04F737EA06050FD1A5000CFA05F845
:1005000021EA080103FA05F5282A41EA050101D18B
:10051000476102E0482A08BF07610134082CE7D18F
:100520000160FF2E20D9416800244FF0010E4FF0EA
:100530000F0C04F108050EFA05F535EA06070FD190
:10054000A7000CFA07F821EA080103FA07F7282A9E
:1005500041EA070101D1456102E0482A08BF05616F
:100560000134082CE5D14160BDE8F081806880B29B
:10057000704701617047416170470AB1016170477E
:100580004161704701F0030301F0FC0101F180417A
:1005900001F5803110B59B008C680F229A4024EA47
:1005A00002028A608A6898401043886010BD00008B
:1005B0000D4B1A6842F001021A6059680B4A0A4052
:1005C0005A601A6822F0847222F480321A601A6823
:1005D00022F480221A605A6822F4FE025A604FF414
:1005E0001F029A60704700BF001002400000FFF831
:1005F000034A536823F0030318435060704700BF59
:10060000001002401C4A10B5536803F00C03042B81
:1006100001D0082B01D0194B0EE053685168C3F389
:100620008343CC0303F1020302D55168890301D54A
:10063000134900E011494B43036053681149C3F368
:100640000313CC5C0368E34043605468C4F30224A2
:100650000C5D23FA04F484605468C4F3C2240C5D76
:10066000E340C3605268C2F381320A44127CB3FB98
:10067000F2F3036110BD00BF0010024000127A00C7
:1006800000093D0014000020044B5A6909B11043D1
:1006900001E022EA00005861704700BF00100240EC
:1006A000044B9A6909B1104301E022EA0000986105
:1006B000704700BF00100240044BDA6909B11043D3
:1006C00001E022EA0000D861704700BF001002403C
:1006D000044BDA6809B1104301E022EA0000D86057
:1006E000704700BF00100240044B1A6909B1104363
:1006F00001E022EA00001861704700BF00100240CC
:10070000044B00221A605A609A60DA60024A5A6109
:10071000704700BF00040140FFFF0F00827970B5F1
:100720000168037942B3CE43184A03F18043156848
:1007300003F58233354015605468344054601C68BA
:100740002143196001689468CD432C409460D368BC
:100750002B40D3604379102B06D193680B439360F1
:10076000D3681943D16070BD03F1804303F5823330
:100770001A681143196070BD03F1804303F5823399
:100780001A6822EA01021A6070BD00BF000401402D
:10079000014B5861704700BF0004014008B5214B70
:1007A00098420BD101214FF48040FFF791FFBDE843
:1007B000084000214FF48040FFF78ABF1A4B98424F
:1007C00008D101214FF40030FFF78EFF00214FF4D4
:1007D000003022E0154B984208D101214FF48020CF
:1007E000FFF782FF00214FF4802016E0104B984263
:1007F00008D101214FF40020FFF776FF00214FF4CC
:1008000000200AE00B4B98420BD101214FF48010DD
:10081000FFF76AFF00214FF48010BDE80840FFF7A2
:1008200063BF08BD0038014000440040004800405C
:10083000004C00400050004070B50E460446038A4C
:10084000CA889BB223F44053134303828289898868
:10085000338992B20B43718922F4B0520B4322F0D8
:100860000C0213439BB28381838AB2899BB223F427
:10087000407386B01343838201A8FFF7C3FE174A73
:10088000039B049D3168944218BF1D4619226A4398
:10089000A389642613F4004F14BF4D008D00B2FBF2
:1008A000F5F5B5FBF6F0A28900010109120406FB7B
:1008B000115307D5D9003231B1FBF6F202F007022D
:1008C000104306E01A013232B2FBF6F303F00F03D5
:1008D000184380B2208106B070BD00BF00380140CF
:1008E0004B8810B50C88028A23438C88C98892B241
:1008F00023430B4322F4706213439BB2038210BD67
:100900000023038043808380C3807047838919B1AB
:100910009BB243F4005303E023F400531B041B0C6D
:1009200083817047012310B5C1F342149C4201F04A
:100930001F0103FA01F101D10C3003E0022C0CBFBE
:100940001030143003680AB1194301E023EA0101B1
:10095000016010BDC1F3080181807047038819420E
:1009600014BF012000207047090A012303FA01F196
:10097000C94389B201807047034B044A5A6002F1AF
:1009800088325A60704700BF00200240230167454B
:10099000FFF7F2BF024A136943F080031361704707
:1009A00000200240FFF7F6BF084BDA68D10709D4F0
:1009B000DA68520708D4DB6813F0100F14BF032065
:1009C0000420704701207047022070470020024039
:1009D00010B50446FFF7E8FF012806D11CB1FFF768
:1009E000E3FF013CF8E7052010BD002C08BF0520FF
:1009F00010BD000070B505464FF400500E46FFF7DD
:100A0000E7FF04280ED1084C4FF40050236943F04F
:100A1000010323612E80FFF7DBFF41F6FE7322699D
:100A20001340236170BD00BF0020024073B5002356
:100A300006464FF400500D460193FFF7C9FF042806
:100A40001AD10E4C4FF40050236943F00103236187
:100A5000ABB23380FFF7BCFF042808D10236019601
:100A6000019B2D0C1D804FF40050FFF7B1FF41F6A4
:100A7000FE7322691340236102B070BD0020024062
:100A800038B505464FF43020FFF7A2FF042812D1F5
:100A9000094C4FF43020236943F002032361656160
:100AA000236943F040032361FFF792FF41F6FD7392
:100AB00022691340236138BD002002404FF6FE73C7
:100AC0000268134003600023036043608360C360D7
:100AD000284B984201D1284A27E0284B984201D15F
:100AE000254A2AE0264B984201D1234A2DE0254B86
:100AF000984201D1204A30E0234B984201D11E4A4E
:100B000033E0224B984204D11B4A536843F47003EC
:100B10002EE01F4B984204D1174A536843F070638C
:100B200026E01C4B984204D11B4A536843F00F0344
:100B30001EE01A4B984204D1174A536843F0F00361
:100B400016E0174B984204D1134A536843F470637C
:100B50000EE0144B984204D10F4A536843F470439B
:100B600006E0114B984204D10B4A536843F47023BA
:100B70005360704708000240000002401C00024021
:100B80003000024044000240580002406C00024025
:100B90008000024008040240000402401C0402409D
:100BA0003004024044040240580402400A6A10B56E
:100BB0008C68036814430A6923F4FF4314434A69A9
:100BC00023F0700314438A691443CA6914434A6AC0
:100BD00014438A6A224313430360CB6843600B6863
:100BE00083604B68C36010BD19B1036843F0010313
:100BF00003E04FF6FE73026813400360704703681A
:100C00000AB1194301E023EA0101016070470000C5
:100C1000C3004CBF014B024B5860704700040240B8
:100C20000000024040F0BF60024B40F40030D8604A
:100C3000704700BF00ED00E0C27810B503780AB33A
:100C4000164A03F16043D1684278C943C1F30221D7
:100C5000C1F1040402FA04F40F22CA40817803F5BA
:100C600061430A4022431201D2B283F80023037881
:100C70000122590903F01F0302FA03F3084A42F85C
:100C8000213010BD5A09012103F01F0301FA03F3BB
:100C90000349203241F8223010BD00BF00ED00E0D2
:100CA00000E100E010B5074C40F225512046FFF767
:100CB0005BFE2046BDE81040012240F22551FFF7BF
:100CC00031BE00BF0038014000EB800043001846F1
:100CD0000138FDD8704738B5044602F01BFC80B2DD
:100CE0000246002330B1013880B2215C2E2908BFB2
:100CF0000346F7E713B9013A202010E0013B202119
:100D000082B29A4205DAA55C0130302D0AD1A15495
:100D1000F6E738BD655C0133302D03D1605499B2DC
:100D20009142F7DB38BDF8B5069C002626700D46CB
:100D3000097875290CD16978632901D101782AE0F5
:100D4000692901D1018826E06C296DD1016822E072
:100D5000732969D16978632902D190F9001007E0FD
:100D6000692902D1B0F9001002E06C295CD1016858
:100D7000A8782B280AD1002903DA2D20207001261B
:100D800008E008BF20202070012604E000294FF071
:100D9000000600DA494210461F464FF0300E002F81
:100DA00006DA013880B2013704F800E03FB2F6E716
:100DB00003EAE373134418BF01379BB218BF3FB275
:100DC0000A204FF02E0C9E4210D2013B9BB2C3EB87
:100DD000020EBE451FBFB1FBF0FE00FB1E113031FD
:100DE000E1540CBF04F803C07146ECE70023A354A0
:100DF0007A21284602F0C8FAB0B1601CFFF76BFFF9
:100E0000204602F087FB012383420CD2E25C202AB9
:100E100006D02278234403F8012C20232370F8BD48
:100E200001339BB2F0E7F8BDF8BD00000A4B1A8809
:100E300092060FD509480A499A8803880988013320
:100E4000C3F3080389B28B4218BF0649D2B21CBF54
:100E5000CA540380704700BF003801401C030020C3
:100E60001E030020A503002010B5044640210548BC
:100E7000FFF774FD0028F9D021460248FFF76AFD0C
:100E8000012010BD0038014010B5441E14F8010FB8
:100E900010B1FFF7E9FFF9E710BD000008B54021E8
:100EA0000248FFF75BFD0028F9D008BD003801407B
:100EB000044B1888044B80B21B889BB2C01A18BF21
:100EC000012070471C0300201E03002010B50948B4
:100ED000094C2188038889B29BB29942054AF8D00F
:100EE00013880133C3F3080313801388034A9BB2AA
:100EF000D05C10BD1E0300201C030020A5030020B1
:100F00001FB5002300900C2269460848ADF8043054
:100F1000ADF80630ADF80830ADF80A20ADF80C3069
:100F2000FFF78AFC05B05DF804FB00BF0038014004
:100F300030B5012185B0274C44F20500FFF7B0FB26
:100F40004FF40073ADF8003003251823694620469E
:100F50008DF803308DF80250FFF7B6FA4FF4806336
:100F60006946ADF80030204648238DF8033004F57B
:100F700040548DF80250FFF7A7FA02A8FFF7C0FC13
:100F800002A92046FFF7ACFC1348FFF7B9FF012583
:100F9000252301A88DF804308DF805508DF80650F2
:100FA0008DF80750FFF748FE0022204640F22551F9
:100FB000FFF7B8FC204640F22551FFF7D5FC074A61
:100FC00000231380064A294620461380FFF79EFC23
:100FD00005B030BD0008014080841E001E030020C3
:100FE0001C03002008B5FFF7A3FFBDE80840FFF78A
:100FF00059BE0000034B01221A805A6801325A6020
:10100000704700BF2C0000200B4B00211980596055
:101010000A4B0B4A1B68F020B3FBF2F34FF47A72D1
:101020005343084A013B5360074B83F823000723CF
:1010300091601360704700BF2C000020000000206A
:1010400040420F0010E000E000ED00E02DE9F84F15
:10105000254B264D01281CBFAA461D46894614462D
:101060002349244A06BF9A4688469046FFF790FCDB
:101070002846FFF705FD0428074630D14FF6FF7BD1
:10108000B9F1000F08BF4FF47A74013405F110066E
:1010900024F001043444C5EB0A0AA64217D0B9F182
:1010A000000F03D13AF8061089B203E0731B4B44DA
:1010B00033F8101C594501D10236EEE7B0450DD981
:1010C0003046FFF797FC04280746F5D007E04FF0BD
:1010D00011312846FFF7AAFC074600E08027FFF7FA
:1010E00061FC3846BDE8F88F00F0000800F4000805
:1010F000FFF70008FFF3000810B5FFF749FC0748A9
:10110000FFF7BEFC0428044603D10548FFF7B8FCEE
:101110000446FFF747FC204610BD00BF00F0000862
:1011200000F400080131C1F34F0100239AB291424B
:101130000AD9B3F5FC7F09D0054A1A445200128837
:1011400020F813200133F1E7042070478020704716
:101150000878000438B50A4604460D4601460020CA
:10116000FFF774FFC0B2042801D080B238BD2A4610
:1011700021460120FFF76AFFC0B238BD38B5164BD3
:101180001D68D3F80044B5F1113F07D1B4F1113F08
:1011900001D104201DE0621C0ED104E06B1C0BD1B8
:1011A000B4F1113F08D1002211460120FFF74EFF94
:1011B000C0B204280DD1ECE7FFF79EFFC0B20428AF
:1011C00007D1013504D1013414BF4020202000E0B4
:1011D000402080B238BD00BF00F00008014608B5CD
:1011E000064802F06BF80121044802F078F8002864
:1011F000F9D0024802F064F8C0B208BD00300140E6
:1012000070B50646094C0D4620460821FFF7B3F994
:1012100046F08000FFF7E2FFFF20FFF7DFFF082125
:1012200028702046FFF7A5F9012070BD0008014095
:1012300073B516460C460DF107011D46FFF7E0FF9A
:101240000121A01B01FA06F201309DF80730013A96
:1012500082401A4042FA00F0287002B070BD0000CF
:1012600070B506460D46094C08212046FFF783F964
:1012700006F07F00FFF7B2FF2846FFF7AFFF2046DA
:101280000821FFF776F9012070BD00BF000801407A
:10129000F7B517460D461E4604460DF10701FFF748
:1012A000AFFF012101FA07F2E81B0130013A9DF876
:1012B0000710824006FA00F0C0B221EA02010240A3
:1012C000114320468DF80710FFF7CAFF03B0F0BDA9
:1012D000054AC000138800F0380023F038031B04CF
:1012E0001B0C0343138070470030014030B50121CF
:1012F00089B04FF48050FFF7D3F90121052008256C
:10130000FFF7CEF901210420FFF7CAF903241023C7
:101310000DEB050134488DF80B30ADF808508DF811
:101320000A40FFF7D1F829462F48FFF722F9A023FA
:101330000DEB0501ADF808302B4818238DF80B3064
:101340008DF80A40FFF7C0F840230DEB0501ADF81A
:101350000830254848238DF80B308DF80A40FFF7F8
:10136000B3F84FF48273ADF80E300223ADF81230AB
:101370004FF40073ADF81630382300240125ADF882
:10138000183003A907231948ADF81C30ADF80C40FC
:10139000ADF81040ADF81450ADF81A4001F05AFF06
:1013A0002146124801F08FFF2946104801F071FFD5
:1013B00002210E4801F093FF0028F9D00B4801F0FC
:1013C0007FFFADF80600BDF8063009489BB2ADF8C6
:1013D0000630FFF773FB0748FFF770FB0121084653
:1013E000FFF752F909B030BD00080140003001405C
:1013F0001C0002403000024001231A4607216B20E6
:10140000FFF746BF01231A4603216A20FFF740BFBA
:101410000023012206216B20FFF73ABF0346032277
:1014200002216B20FFF734BF01461920FFF718BFD8
:1014300001461920FFF7E4BE0346032202211A20C9
:10144000FFF726BF0346032202211A20FFF7F0BE52
:101450000346022204211B20FFF71ABF0346022283
:1014600004211B20FFF7E4BE0346022204211C20B6
:10147000FFF70EBF0346022204211C20FFF7D8BE4F
:1014800010B5044600F00703032202211A20FFF7DB
:10149000FFFEC4F30113022201211B20BDE810400E
:1014A000FFF7F6BE13B5032204460DF10603022131
:1014B0001A20FFF7BDFE0DF10703022201211B20B8
:1014C000FFF7B6FE9DF8063003F00703237002B065
:1014D00010BD10B5044600F00703032202211D20B1
:1014E000FFF7D6FEC4F30013012203211D20BDE83F
:1014F0001040FFF7CDBE13B5032204460DF10603DD
:1015000002211D20FFF794FE0DF1070301220321A4
:101510001D20FFF78DFE9DF807301B0103F0100220
:101520009DF8063003F007031344237002B010BD8A
:1015300010B5094C0023062223701146234675205E
:10154000FFF776FE2378342B04D0382B0CBF022013
:10155000002010BD012010BD980100202DE9F041B0
:1015600080460F4616461D460A209DF81840FFF794
:10157000ABFB4046FFF752FF3846FFF769FF3046A6
:10158000FFF75AFF2846FFF76FFF2046FFF74CFF93
:10159000BDE8F041FFF73CBF73B50C460A20164684
:1015A0001D46FFF791FB0DF10700FFF757FF9DF870
:1015B00007300A20A34214BF02240024FFF784FB53
:1015C0000DF10700FFF73EFF9DF807300A20B342F8
:1015D0001CBF44F00404A4B2FFF776FB0DF1070032
:1015E000FFF748FF9DF807300A20AB4218BF44F0D0
:1015F0000804FFF769FB0DF10700FFF719FF9DF8DD
:1016000007209DF818309A4218BF44F01004204675
:1016100002B070BD2DE9F8438146884617461E4644
:101620000A209DF820509DF82440FFF74DFB4846C6
:10163000FFF7F4FE4046FFF70BFF3846FFF720FFA9
:101640003046FFF711FF2846FFF743FF2046FFF71C
:10165000EBFEBDE8F843FFF7DBBE73B50C460A208E
:1016600016461D46FFF730FB0DF10700FFF7F6FEAB
:101670009DF807300A20A34214BF02240024FFF77C
:1016800023FB0DF10700FFF70DFF9DF807300A203F
:10169000B3421CBF44F00404A4B2FFF715FB0DF1E4
:1016A0000700FFF7E7FE9DF807300A20AB4218BF9E
:1016B00044F00804FFF708FB0DF10700FFF7B8FE40
:1016C0009DF807209DF81C300A209A4218BF44F06C
:1016D0001004FFF7F9FA0DF10700FFF70CFF9DF872
:1016E00007209DF818309A4218BF44F02004204685
:1016F00002B070BD1FB501210846FEF7DDFF0023D3
:10170000ADF80A30ADF806304FF6FF73ADF808308B
:101710000A4B0B4A1B6804A9B3FBF2F3013B21F807
:101720000C3D4FF08040FEF7F1FC01214FF080406E
:10173000FEF7AEFD05B05DF804FB00BF0000002021
:1017400040420F00064A4FF080439B8C91889BB229
:10175000994288BF1168938084BF0131116070473E
:101760002003002008B50120FFF7C4FF4FF080439D
:101770009A8C024B002119609A8008BD200300203A
:1017800007B54FF40073ADF8043018238DF8073017
:1017900001A9032305488DF80630FEF795FE0120C8
:1017A000FFF792FA03B05DF804FB00BF00080140A8
:1017B00007B5FFF773FB0120FFF786FA4FF40073BC
:1017C000ADF8043048238DF8073001A903230448FD
:1017D0008DF80630FEF778FE03B05DF804FB00BF1D
:1017E000000801402DE9F04105460C4600F10E08C5
:1017F000002615F8017B3846FFF736FBA84586EA38
:101800000706F6D12046FFF72FFB86EA0400C0B298
:10181000BDE8F041FFF728BB2DE9F04106468846B8
:1018200005460024AB1BDBB2434506D215F8017B0D
:101830003846FFF719FB7C40F4E72046BDE8F0414D
:10184000FFF712BB054B00221A605A609A60DA60FB
:101850001A825A829A82FFF7C5BB00BF8803002014
:1018600007B54FF44070FFF7DDF9104BE02283F825
:10187000232001210420FEF713FF0423ADF80430D8
:10188000102301A90A488DF8073003238DF806308C
:10189000FEF71AFEFFF7D6FFFFF78AFFFFF762FF9A
:1018A000FFF7B2FB03B05DF804FB00BF00ED00E002
:1018B0000008014008B5114B114C1B68114823600A
:1018C000FEF7A6FD1048FEF7A3FD1048FEF7A0FDA9
:1018D0000F48FEF763FFFEF76BFE0E4B002018600B
:1018E00058609860FEF784FE0120FEF7EEFC0A4B7C
:1018F0001868FEF7E7FC23689847FEE704F0FF1F2F
:10190000A805002000080140000C01400010014023
:101910000038014010E000E000F0FF1F064A138885
:101920004BB14FF080439B8C51885B1A9BB2642B68
:1019300084BF00231380704728030020034B00223C
:101940001A805A809A80DA80704700BF28030020EE
:10195000F0B5304B87B09B78013B032B57D8DFE8BD
:1019600003F0020C2442FFF70BFF2B4B1D78284697
:10197000FFF77AFA294B1C783EE001AEFFF700FF33
:1019800010220021304601F0B1FC002424493046E9
:1019900001F062FD2546375D01343846FFF764FAF1
:1019A000102C85EA0705F6D116E001AEFFF7E8FE38
:1019B00010220021304601F099FC002419493046DC
:1019C00001F04AFD2546375D01343846FFF74CFAF1
:1019D000102C85EA0705F6D12846FFF745FAFFF7F0
:1019E000E7FE012014E0104CFFF7CAFE25782846D8
:1019F000FFF73AFA2488240A2046FFF735FA85EAE9
:101A00000400FFF731FAFFF7D3FE012000E00020C9
:101A100007B0F0BDA2030020B80500203E00002062
:101A20009E360008A436000840000020054A002326
:101A30001380D38013815380538193809381024A12
:101A400013707047B600002074000020284A00235D
:101A500010B51380274A19461380274A1046138071
:101A600002F1C0045180918022F8061FA2424FF07B
:101A70000003F7D1214A2249C0F8C430C0F8C83069
:101A8000C0F8CC30D360136013615360536193602E
:101A9000536293619362D361D362136208461A461C
:101AA0000B8001F1C0044A808A8021F8062F8C4205
:101AB0004FF00003F7D1134AC0F8C43013605360ED
:101AC0009360D36013615361536293619362D361F6
:101AD000D36213620C4AC0F8C830D380C0F8CC304F
:101AE00013801381538053819380938110BD00BF75
:101AF0008C020020A6050020BC0100203403002039
:101B0000C8000020440000208E020020F0B5022012
:101B10008DB0214DFEF73CFE204E214F082121487B
:101B2000FEF729FDBB23284600213B70FFF75CF838
:101B300030460021FFF758F81B4B002401930F2378
:101B400004934FF480530A93184B01A9029328463B
:101B50008023069305940794089409940B940394A6
:101B6000FFF724F8102301A9304603930297069447
:101B7000FFF71CF828460121FFF736F8012130460F
:101B8000FFF732F82020FFF743F801220221284610
:101B9000FFF735F80DB0F0BD1C00024030000240E8
:101BA000AE020020000801400C30014098010020E6
:101BB0002DE9F04F002285B00221B148FFF71FF850
:101BC0002020FFF725F80821AE48FEF7D2FCAE4BE7
:101BD0009A785878D97842EA00201A795C7942EAF2
:101BE00001219A79DD7942EA04221C7A00B244EAA2
:101BF00005240FFA84FA5D7A9C7A09B244EA052436
:101C000024B2DD7A02941C7B12B244EA052424B289
:101C100003945C7B9B7B43EA04230FFA83FB9B4B7F
:101C20009B4C1B88022B40F09C802388012B994BF6
:101C300008D89D69A84205D1DD69A94202D11D6A73
:101C4000AA4245D040F6462843F2A74C0025924FC1
:101C500025809C695D6A7C43054408FB05451C683A
:101C6000DE690CFB0455DFF840E2DC687E430EFBC6
:101C700004559C6AD3F808900C4408FB04645E6821
:101C80006D130CFB06441E690EFB064401941C6A8E
:101C9000DE6A6743164408FB06770CFB097C9C69E7
:101CA000986118685F69D860D869D96159680EFB76
:101CB00007CC196101995C624C13196A4FEA6C37C1
:101CC0001D6098625C60D9621A62C3F814909F60CC
:101CD000724806240588D0F8C83004FB0504B4F91E
:101CE0000410B4F90620591AD0F8CC30B4F902E047
:101CF000684E9A1AD0F8C43001353768CEEB03032A
:101D0000ADB2D6F804E0B6680B2D3B4471443244C2
:101D10006780A4F804E0E68088BF0024C0F8C430DF
:101D2000C0F8C810C0F8CC2094BF05800480032000
:101D300093FBF0F3B3F5004F91FBF0F192FBF0F25F
:101D400004DA57488342B8BF034601E047F6FF7301
:101D500054481BB2B1F5004F0380034680F2B580B2
:101D6000AEE0012B7ED12388072B4A4B09D89D6911
:101D7000A84206D1DD69A94203D11D6AAA4200F03A
:101D8000B48040F6124E40F63419002525801D68B7
:101D90005C6A0EFB05F5D3F818800444444409FB43
:101DA0000455DFF808C1DC68DE690CFB04549D6A49
:101DB000DF6A0D4435445E6817440EFB06F609FBE6
:101DC00005651E6998610CFB06559E6818680196AA
:101DD0001E6AD8603744019E60130EFB06FE09FBA5
:101DE00007EE5F6918600CFB07EED869D961596886
:101DF000E412196169135960196AB4F5004F1A6247
:101E00004FEA6E32C3F824809862D9625E619A60AC
:101E10004FEAE5254FEAEE2E04DA214B9C42B8BF8B
:101E20001C4601E047F6FF741E4B24B2B5F5004F87
:101E30001C8004DA1A4A9542B8BF154601E047F6FD
:101E4000FF752DB2BEF5004F5D8004DA144A964549
:101E5000B8BF964601E047F6FF7E0FFA8EFEA3F864
:101E600004E042E08000B0F5004F4FEA81014FEA04
:101E700082021DDA0A4B9842B8BF18461AE000BF2A
:101E80001C00024000080140980100208C02002044
:101E9000A60500203403002035EEFFFFBC01002022
:101EA0000080FFFF8E02002099E8FFFF51F8FFFF3E
:101EB00047F6FF70164B00B2B1F5004F188004DAF8
:101EC00014488142B8BF014601E047F6FF7109B2EC
:101ED000B2F5004F598004DA0E498A42B8BF0A466B
:101EE00001E047F6FF7212B29A800B4A1388013361
:101EF0001380074BBDF80820DA80BDF80C201A814A
:101F0000A3F80AB0A3F80CA005B0BDE8F08F00BF9D
:101F10008E0200200080FFFFA6050020124B13B5A3
:101F20001B88DB061DD5FEF7EBFB0024062301A86A
:101F30008DF804308DF80740FEF77EFE0220FEF794
:101F400027FC224602210948FEF759FE0C2301A86E
:101F50008DF804308DF80740FEF76EFE2020FEF766
:101F600057FE02B010BD00BF400000201C00024020
:101F70002DE9FF412B4B1B88DB064FD501210820A3
:101F8000FEF78EFB022528230327694626488DF895
:101F90000330ADF800508DF80270FEF795FA01217C
:101FA0000846FEF7EFFA0823002601240DEB030094
:101FB0008DF80D304FF0070802958DF80C608DF804
:101FC0000E40FEF7ABFB0B2328468DF805308DF84D
:101FD00004808DF806608DF80740FEF7D9FB01A854
:101FE000FEF72AFE0C2320208DF804308DF80580A2
:101FF0008DF806608DF80740FEF70AFE01A8FEF78F
:102000001BFE324629460948FEF7F9FD2020FEF75F
:10201000FFFD22463946064801F047F904B0BDE805
:10202000F08100BF40000020000C01401C00024075
:102030000030014008B50A4B1B88DB060FD5102184
:102040003720FFF70DF90220FEF73EFE0121382070
:10205000FFF706F9BDE808400220FEF735BE08BDCF
:1020600040000020084B4FF400521A81DA809A8019
:1020700001210022DA819A815A819A825A821A8237
:10208000DA8219835A8070476603002038B522220D
:10209000FF21234801F02AF9FFF770F8C0B20428A5
:1020A0001F4D0AD02222FF211D4801F01FF9FFF722
:1020B00065F8C0B204280FD107E022212846FFF7B7
:1020C00031F8C0B204280CD0ECE722211448FFF705
:1020D00029F8C0B2042804D02222FF21104801F0C0
:1020E00005F92B880E4C212B19D0FFF7BBFF238855
:1020F000202B08D122212046FFF714F8002363800B
:10210000E382012323832123064907482B8001F022
:10211000A3F9BDE8384022210148FFF71BB838BDBC
:1021200066030020B036000880030020B0F90020CC
:102130000E4B22219A80B0F90220DA80B0F90420F7
:102140001A81B0F906205A81B0F908209A81B0F9B5
:102150000A20DA81B0F90C201A82B0F90E205A82D6
:10216000B0F9102018469A82FEF7F4BF66030020EB
:10217000F7B5214C01210420FEF792FA10234FF409
:1021800080558DF8073001A9022320468DF80630CE
:10219000ADF80450FEF798F9002229462046FEF7D4
:1021A000ECF9012140F60900FEF77AFA4FF40065D8
:1021B0001827032601A92046ADF804508DF80770B2
:1021C0008DF80660FEF780F9002229462046FEF7CA
:1021D000D4F94FF4807501A92046ADF804508DF86C
:1021E00007708DF80660FEF76FF900222946204639
:1021F000FEF7C3F903B0F0BD0008014043F67F636A
:1022000070B588B0ADF808301B4B1C4A1B681C4DDC
:10221000B3FBF2F308A9013B002421F81C3D28463A
:10222000ADF80A40ADF80640FDF770FF6023ADF849
:10223000103040F2DC53012604A92846ADF81630D0
:10224000ADF81C40ADF81E40ADF81840ADF81A408E
:10225000ADF81260ADF81440FDF7E6FF04A928467A
:10226000FDF79EFF31462846FEF71EF83146284608
:10227000FEF70EF808B070BD0000002040420F00CD
:10228000002C0140064B002206215A819A81DA81F6
:10229000198259809A80DA801A81FFF769BF00BFDE
:1022A0009C02002038B5354C6388228A9A4202D0BD
:1022B0002382FFF7A3FF63883049052BA38821D130
:1022C000002B4ED0013B022B2D4D13D0032B11D0F0
:1022D000002B3BD132238B810122A523CB814A8164
:1022E00028484FF48051FEF748F94FF4E163A5F810
:1022F000403036E04B81A523CB8140F21453A5F842
:1023000040302EE06BB3013B022B1D4D12D0032B4E
:1023100016D0DBB932238B810122A523CB814A81E0
:1023200018484FF48051FEF728F940F29E73A5F843
:10233000403016E04B8140F21A43A5F8403010E0DF
:102340004B8140F2DC53A5F840300AE000224A817C
:102350000C484FF48051FEF710F940F2DC53A5F819
:102360004030238943B1013B03EB83035B0003F55A
:102370007A73034A9BB2938638BD00BF9C0200204B
:10238000002C01400008014010B5114C6389F3B1E5
:10239000A3890BB1013BA381A389012B05D10022A5
:1023A0004FF480510B48FEF7E8F8E38913B1084A6F
:1023B000013BD381E389012B02BF40F2DC51064A85
:1023C000A2F84010A28912B90BB9014A538110BD7D
:1023D0009C02002000080140002C0140F7B50121BB
:1023E0000820FEF75DF948238DF8073001A9032383
:1023F000434840248DF80630ADF80440FEF764F8F9
:1024000001210820FEF74CF9202301A93C48ADF832
:102410000430FEF759F83B4B3B4EDB8A012B68D06A
:10242000022B66D00C2B02D10C23338065E00123F4
:10243000338000253248FEF799F8013C420648BF38
:102440000135A4B248BFADB2002CF3D1302D1ED857
:102450000F2D1DD92D4C254648F6B800FEF734FC4B
:10246000B4F90030002B04DA012204212848FEF7D9
:1024700084F848F6B800FEF727FCB5F90030002BC9
:10248000EADA002204212248FEF777F8E4E7012483
:10249000402700251A48FEF769F8013F830648BF28
:1024A0000135BFB248BFADB2002FF3D1302D1ED8D9
:1024B0000F2D20D9154C254648F6B800FEF704FC30
:1024C000B4F90030002B04DA012204211048FEF791
:1024D00054F848F6B800FEF7F7FBB5F90030002BCA
:1024E000EADA002204210A48FEF747F8E4E724B9B3
:1024F0000223338001E0002C96D103B0F0BD00BF71
:10250000000C01406603002042000020280000204B
:102510000008014008B5FFF7B9FDFFF75FFFFEF7C0
:10252000E5FE0A4A0620138843F4004343F01003F3
:102530001380FEF7CDFEFFF779FA054A00231380DA
:10254000044A1380BDE80840FFF79CBE400000200D
:10255000340000206403002030B58BB0FFF7F8F999
:10256000174B9B78762B0AD0772B27D1FFF708F9EA
:1025700012211448FFF750F9FFF71AF91EE0002264
:102580001146114D012355F8120901900AA808447B
:1025900010F8240C545D184218BF44F0800405A8BC
:1025A0005B00112A14549BB206D0802B02BF01316C
:1025B00089B201230132E9E7FFF7B8FD0BB030BD66
:1025C000A20300206A030020870000200A4B5B78EA
:1025D000072B10D1094B1B886BB9094A094B11789D
:1025E00019805178598091789980D1781279D98061
:1025F0001A81FFF757BE7047A2030020B8010020E0
:10260000750000209C0200201D4B10B51B881B0686
:1026100034D572B61B4A1C4B114603F10C0053F81B
:10262000044B834242F8044BF9D11B88138062B6F5
:10263000164B0D221A70164A128812F0020F1A4613
:1026400019D00B884FF67D7103F5FF433F339BB2E2
:102650008B420C480DD8438803F5FF433F339BB2B0
:102660008B4206D8838803F5FF433F339BB28B42EE
:1026700001D905231370074B01221A8010BD00BF3A
:10268000B8050020B60000208E0200207400002053
:10269000400000203400002008B5074B1B881B06B3
:1026A00003D5064B1B88012B04D0FFF7BFF9044B61
:1026B00001221A70072008BDB80500203400002050
:1026C0007400002008B5044B04481978FFF78AF815
:1026D000034B00221A8008BD74000020B6000020C1
:1026E0003400002070B51E468AB00AAC24F81A0DDA
:1026F00005AD134620460A4600950549FEF713FB33
:102700002846FEF7C1FB3046FEF7BEFB0AB070BD9F
:10271000B936000870B53748374C384DFEF7B4FB72
:102720003748FEF7B1FB2B4600220521B4F9000023
:10273000FFF7D8FF3348344EFEF7A6FB2B460022A6
:102740000521B4F91600FFF7CDFF3048FEF79CFBDA
:102750003346B4F9040000220821FFF7C3FF3346D3
:10276000B4F9060000220821FFF7BCFF2B46002227
:102770000821B4F90800FFF7B5FF2548FEF784FBF0
:102780003346B4F90A0000220821FFF7ABFF3346B5
:10279000B4F90C0000220821FFF7A4FF2B46002209
:1027A0000821B4F90E00FFF79DFF1A48FEF76CFBF5
:1027B0003346B4F9100000220821FFF793FF334697
:1027C000B4F9120000220821FFF78CFF2B460022EB
:1027D0000821B4F91400FFF785FF0F48FEF754FBFA
:1027E0002B46B4F9180000220521BDE87040FFF720
:1027F00079BF00BFC336000866030020DD3600083D
:10280000E0360008E936000800370008F436000812
:1028100004370008103700081C370008024B00225C
:102820001A805A809A807047D002002008B5FEF7BF
:102830004DFB064B99884A1C92B2382A19449A805B
:10284000887184BF38229A8008BD00BFD002002062
:102850000A2801D03B2807D1044B00219A88012087
:102860001A4491719980704700207047D00200206F
:10287000044A00239380044A044813805380FEF7DF
:1028800003BB00BFAC050020D00200202D3700089C
:1028900010B5044600F03EFE21460246064800F010
:1028A00067FE38B92046FEF7EFFA0448FEF7ECFA67
:1028B000012010BD002010BDD6020020DD3600082A
:1028C0002DE9F843FEF75CFF7F48FEF7DDFA7F4B0A
:1028D0001B88022B07D00C2B09D0012B0AD17C4876
:1028E000FEF7D2FA06E07B48FEF7CEFA02E07A481D
:1028F000FEF7CAFA7948FEF7C7FAFFF78FFFFFF72E
:10290000B7FF4FF6FF73764E00220421754800256D
:1029100033802F46FDF731FEDFF82082724A13889C
:102920009BB2002BFBD0704B704C002201371A80F9
:102930002760B8F80290B9F1000F04D0002D40F0E4
:10294000AF80C725EAE7FEF7B3FA0028F6D0FFF715
:102950006DFFFFF77DFF0028EBD06548FFF798FF7C
:1029600038B1644B0122A3F80090634B1A80BDE894
:10297000F8836248FFF78CFF20B10123E3802381B5
:10298000FFF776FF5E48FFF783FF28B10223E3805D
:1029900001232381FFF76CFF5A48FFF779FF28B125
:1029A0000323E38001232381FFF762FF5648FFF7EB
:1029B0006FFF28B10423E38001232381FFF758FF31
:1029C0005248FFF765FF28B122215148FEF7AAFBC4
:1029D000FFF74EFF4F48FFF75BFF28B122214C481D
:1029E000FEF7B8FBFFF744FF4B48FFF751FF18B164
:1029F000FFF790FEFFF73CFF4848FFF749FF20B183
:102A0000434B0122DA82FFF733FF4548FFF740FFCF
:102A100020B13F4B0222DA82FFF72AFF4148FFF73D
:102A200037FF20B13A4B0C22DA82FFF721FF3E48F4
:102A3000FFF72EFF20B1364B0022DA82FFF718FF96
:102A40003A48FFF725FF20B1314B01221A83FFF7E7
:102A50000FFF3748FFF71CFF20B12D4B00221A83D0
:102A6000FFF706FF3348FFF713FF58B1284B4FF429
:102A700000521A81DA809A800022DA819A815A8182
:102A8000FFF7F6FE2C48FFF703FF00283FF451AF95
:102A90001F4B00229A825A821A82FFF7E9FE48E70A
:102AA000013DADB2002D7FF439AFB6F90030002BF7
:102AB000BFF634AF0B4AD368DB4303F0040343F49F
:102AC000802313612AE700BF30370008420000204E
:102AD0004B37000853370008A2360008DD360008DF
:102AE00028000020000801402C000020AC05002038
:102AF00042370008B8010020A00300204537000835
:102B00004D370008553700085D3700086537000865
:102B1000660300206E370008743700087D37000810
:102B200087370008913700089B370008A137000855
:102B3000AC370008B7370008BE370008D0020020C5
:102B400043B270B5002B844CBCBF00222280228887
:102B5000052A00F20081DFE812F006004300600061
:102B60008500A300C200D02825D090282AD0002BB1
:102B700080F2F180794A00F00F03158800F07000B0
:102B8000AB4240F0CF807649C2B2FF26102A0A70CD
:102B90004B708E7016D009D8002A40F0C3800223F3
:102BA00023804FF080439B8C638070BD302A10D00F
:102BB000502A40F0B7806B4B00221A806A4B0122EA
:102BC0001A8070BD674B00221A80674B04221A805E
:102BD00070BD644B00221A80634B05221A8070BDC1
:102BE000E388624AD0540133A0889BB28342E380D9
:102BF000C0F09380002319465D1CDBB2834203D2F0
:102C0000D35C59402B46F7E7564A57480023032523
:102C100013800580002941D03EE0514B7628987002
:102C200012D003D80138032802D918E0772816D12A
:102C30004C4A002313804C4A0221238011804FF01C
:102C400080439B8C638070BD032323801723A38064
:102C50000023E3804FF080439B8C638070BD002392
:102C6000238070BDE388414AD0540133A0889BB2D1
:102C70008342E38051D3002319465D1CDBB28342BB
:102C800003D2D35C59402B46F7E7364A3648002337
:102C900002251380058009B10121118023803CE0C9
:102CA000E388042B37D8DFE803F0030D1013160078
:102CB000512802D1052222802DE046282BD0002267
:102CC000228028E04C28FAD125E04128F7D122E0E3
:102CD0005328F4D11FE04828F1D1FEF7EBFDE3883B
:102CE000042B17D8DFE803F003080B0E110051285E
:102CF00010D0002323800DE04D28FAD10AE04F28A0
:102D0000F7D107E04428F4D104E04528F1D1FFF7DA
:102D1000D7FDEEE7E3880133E3804FF080439B8CDF
:102D2000638070BD072B0CD10D49C2B2FF26402A2B
:102D30000A704B708E7004D1012323800623A38078
:102D400086E7702807D1064A9D42537000D013B918
:102D5000042323807CE770BD28030020420000206C
:102D6000A2030020B8010020A0030020750000206D
:102D70002DE9F04F002485B0FEF772FDBA4BDFF865
:102D8000E892B3F90030002B04DA00220421B7489E
:102D9000FDF7F3FBB64BDFF8F882B64DB64EB74FF2
:102DA000DFF8F0A21C80A8F80040AAF800403480A8
:102DB0006C802C80AC803C80FFF7ACFBFEF7BEFD46
:102DC0004FF4004333804FF6FF7300220421A748DD
:102DD000A9F80030FDF7D1FBB9F90030CDF80C802F
:102DE000002BDFF88C82BB4604DA012204219F48C5
:102DF000FDF7C3FBFEF75CF818B1FEF767F8FFF7C5
:102E00009FFEFEF78BFDB8F800309BB2013B062B0E
:102E10002DD8DFE803F004070C11161F2600944B91
:102E20001C80A9E7FFF798FBA8F800401FE0FFF718
:102E3000CDFBA8F800401AE0FFF7E6FBA8F8004039
:102E400015E0FEF79DFC039B1C80FFF725FCA8F80E
:102E500000000CE0039B1C80FFF71EFCA8F800009C
:102E600005E0FFF72FFCFEF7A3FCA8F80040844B19
:102E70001B889BB2002BBDD0814B1C80FEF762FCEF
:102E8000B9F90000002877DD7E4FB0F5FA7F3B8866
:102E900003F101039BB23B8062D17B4A11880C296C
:102EA0005ED8012202FA01F111F4825F2CD111F0F7
:102EB000240F14D111F0120F52D0B3F5FA7F03D1C1
:102EC00004216A48FDF759FB3B88B3F57A7F53D359
:102ED0000022042165483C80FDF74FFB4CE0B3F530
:102EE000FA7F03D104216148FDF747FB3B88B3F526
:102EF0002F7F04D1002204215C48FDF73EFB3B8874
:102F0000B3F5487FE0D125E0B3F5FA7F03D1042182
:102F10005648FDF732FB3B88B3F5167F04D10022FB
:102F200004215248FDF729FB3B88B3F52F7F04D1DC
:102F3000012204214D48FDF720FB3B88B3F5487F73
:102F400004D1002204214948FDF717FB3B88B3F563
:102F5000617FB9D1012204214448FDF70EFBB3E79C
:102F6000834209DB414B414ADB683C80DB4303F091
:102F7000040343F48023136133883F4A23F4FE4162
:102F800089B2B1F5004F60D01DD80C2900F0BB808C
:102F90000DD8032900F0878002D8002958D04DE1D0
:102FA0000A2900F090800B2900F09F8046E10E294D
:102FB00000F0E780C0F0B5800F2900F006811029ED
:102FC00000F025813AE148F20B00814200F08D804B
:102FD00011D848F2020081425ED03DD348F203008E
:102FE000814260D048F20A00814240F02781C3F359
:102FF0000E03138067E048F20E00814200F0BE80AD
:103000000ED848F20C0081427DD048F20D0081427A
:1030100040F01481C3F30E0313801C4B1C8080E02E
:1030200048F20F00814200F0CB8048F2100081424C
:1030300040F00481C3F30E031380FEF7FBFFFEF79D
:1030400097FF0120FEF744F9E1E03223A9F80030B0
:1030500048F20A033380F1E0C3F30E0313804FF408
:10306000FA73A9F80030E9E02800002000080140C8
:10307000A0030020360000203E0000204000002079
:103080002C0000203C0000204200002064030020AF
:10309000B8010020B8050020C3F30E031380642399
:1030A000A9F80030CAE0AB882A8801339BB29A4263
:1030B000AB8080F0C380634B5B886FEA43436FEA69
:1030C00053433380BAE0FEF729FFFEF7BFFC06202A
:1030D000FEF7FEF8FEF790F90A232B800B236B8096
:1030E00048F20303AC803380A8E0C3F30E033380BF
:1030F000FEF78EF901232B800C236B8048F203032B
:10310000AC8033809AE0C3F30E033380FEF77AF984
:1031100001232B800D236B8048F20303AC803380A6
:103120008CE0FEF705FA80B2E8B1BBF80030022867
:1031300023F4F37323F001039BB2434A18BF43F413
:10314000817342490DBF43F4A2731380012313809E
:1031500018BF0B8048F20E0308BF088033806DE073
:1031600048F20E0333803A4A138801339BB20A2B8C
:10317000138063D948F2020333805FE0C3F30E0388
:103180001380BBF8002002F0040292B24AB110236F
:10319000009303230194002202211846FEF73AFA15
:1031A00005E00323009202211846FEF7D7F96423B5
:1031B0002B800F236B8048F20303AC8033803DE00B
:1031C000C3F30E031380224B1C80BBF8002002F0D7
:1031D000040292B24AB11023009303230194002207
:1031E00002211846FEF739FA05E003230092022176
:1031F0001846FEF7D1F90028B2D1BAF8003043F0F2
:103200008003AAF8003048F21003338016E0BAF8C1
:1032100000304FF4967203F080039BB23BB1012360
:103220006B8048F20303AC802A80338006E0AB80D9
:1032300002236B8048F203032A803380FFF7A4F84F
:10324000D8E500BF36000020400000208C0200209E
:103250006403002003880A8810B503F441544B88A6
:1032600013438A881343CA8813430A8913434A893C
:1032700013438A891343CA89134323439BB20380B0
:10328000838B23F400631B041B0C83830B8A038250
:1032900010BD038819B19BB243F0400303E023F053
:1032A00040031B041B0C0380704783889BB20AB148
:1032B000194301E023EA0101818070478181704751
:1032C000808980B27047038819B19BB243F40053E0
:1032D00003E023F400531B041B0C03807047038995
:1032E000194214BF012000207047000070B4840709
:1032F00046D0541E002A41D0CDB2034602E0621EE1
:10330000E4B3144603F8015B9A07F8D1032C2ED9D5
:10331000CDB245EA05250F2C45EA054519D92646C3
:1033200003F11002103E0F2E42F8105C42F80C5CC4
:1033300042F8085C42F8045C02F11002F2D8A4F1F1
:10334000100222F00F0204F00F041032032C134479
:103350000DD91E462246043A032A46F8045BFAD8E1
:10336000221F22F003020432134404F003042CB1A0
:10337000C9B21C4403F8011BA342FBD170BC7047C7
:1033800014460346C2E700BF70B411F0FF0434D006
:1033900085070FD00378002B5AD09C422BD0431CBA
:1033A00005E013F8012B002A4FD0944223D09A074E
:1033B0001846F6D10E0206F47F462643036846EA15
:1033C000064601E050F8043F86EA0305A5F1013204
:1033D000A3F1013122EA050221EA0303134313F0AA
:1033E000803FEFD0037823B932E010F8013F002B83
:1033F0002ED09C42F9D170BC704784070BD0037863
:10340000002BF8D0431C03E002780133002AF2D0ED
:1034100099071846F8D10268A2F1013323EA0203A2
:1034200013F0803F08D150F8042FA2F1013323EAB2
:10343000020313F0803FF6D00378002BDBD010F8A6
:10344000013F002BFBD170BC7047104670BC704729
:10345000184670BC704700BF80EA0102844612F033
:10346000030F4FD111F0030F32D14DF8044D11F07D
:10347000040F51F8043B0BD0A3F101329A4312F030
:10348000803F04BF4CF8043B51F8043B16D100BF09
:1034900051F8044BA3F101329A4312F0803FA4F19A
:1034A00001320BD14CF8043BA24312F0803F04BF21
:1034B00051F8043B4CF8044BEAD023460CF8013B8E
:1034C00013F0FF0F4FEA3323F8D15DF8044B704738
:1034D00011F0010F06D011F8012B0CF8012B002A76
:1034E00008BF704711F0020FBFD031F8022B12F065
:1034F000FF0F16BF2CF8022B8CF8002012F47F4F20
:10350000B3D1704711F8012B0CF8012B002AF9D127
:10351000704700BF20F0030110F00300C0F100006D
:1035200051F8043B00F1040C4FEACC0C6FF00002A0
:103530001CBF22FA0CF213434FF0010C4CEA0C2C86
:103540004CEA0C4CA3EB0C0222EA030212EACC1266
:1035500004BF51F8043B0430F4D0C2F1000102EA88
:103560000102B2FA82F2C2F11F0200EBD2007047F0
:10357000002A3FD040EA010313F00303F0B425D141
:10358000032A23D904680D68AC421FD1043A33D012
:10359000A4F1013525EA040414F0803F2FD1071D62
:1035A0000D1D0DE057F8043B0E68A3F10134B34242
:1035B00024EA03040AD1043A1ED014F0803F21D13A
:1035C000032A2946384605F10405EBD803780C7820
:1035D000013A9C420BD17AB114B915E062B173B1D2
:1035E00010F8013F11F8014F013AA342F6D0181B21
:1035F000F0BC7047104670471046F0BC7047184644
:10360000F0BC70470020F3E72046F1E76D707520AD
:10361000617420535049204F4B0A007563006D7050
:103620007520535220006D707520415220006D703E
:103630007520444C504620006D7075204752200084
:103640004D505536303530004D5055363030300005
:103650004D505539323530004F56455253414D503B
:103660004C45440046415354204759524F0046416F
:10367000535420414343004759524F2046494C542C
:103680004552004143432046494C54455200544C56
:1036900045353031324200464F43002D2000763010
:1036A0002E33330076322E312046313033543800F9
:1036B000656E64580073692B0073692B7A00736C14
:1036C0002B7A00506172616D65746572732073743A
:1036D0006F72656420696E2053657475700D0A0001
:1036E0004C61796F75743A20004D6F64756C654953
:1036F000643A20004163635363616C653A202000A3
:10370000202C20004163635A65726F3A202020000C
:103710004779726F5363616C653A20004170706C39
:103720007941636346696C7465723A20003E2000FB
:103730000D0A48656C6C6F2C204920616D20494D45
:10374000550040510073747265616D31007374727D
:1037500065616D320073747265616D3300737472EC
:1037600065616D34007265747269657665007374A5
:103770006F72650067657473657475700073657446
:103780006964696D7531007365746964696D75325A
:10379000007365746964696D753300636C72696484
:1037A0000073657461636366696C7400636C726155
:1037B000636366696C7400636C7261636300636C5D
:0637C000726779726F00D0
:1037C80000A24A04000000000000000001020304F7
:1037D80006070809000000000102030401020304AF
:0C37E8000607080902040608FFFF0000A5
:0400000508000000EF
:00000001FF
