:020000040800F2
:1000000018290020B9040008B5040008B504000848
:10001000B5040008B5040008B5040008000000009D
:10002000000000000000000000000000B50400080F
:10003000B504000800000000B5040008CD0E00085B
:10004000B5040008B5040008B5040008B5040008AC
:10005000B5040008B5040008B5040008B50400089C
:10006000B5040008B5040008B5040008B50400088C
:10007000B5040008B5040008B5040008B50400087C
:10008000B5040008B5040008B5040008B50400086C
:10009000B5040008B5040008B5040008B50400085C
:1000A000B5040008B5040008B5040008B50400084C
:1000B000B5040008B5040008B5040008B50400083C
:1000C000B5040008B5040008B5040008B50400082C
:1000D000B5040008010D0008B5040008B5040008C7
:1000E000B5040008B5040008B504000800000000CD
:1000F0000000000000000000000000000000000000
:1001000000000000000000005FF808F1224A0388A8
:1001100090429BB212D002F5006290420ED0B0F134
:10012000804F0BD0A2F59832904207D002F5806242
:10013000904203D002F58062904203D14A8823F0B6
:1001400070031343154A904208D002F58062904232
:100150001FBF23F44073CA889BB2134303808B886C
:1001600083850B8803850C4B98420FD003F5006301
:1001700098420BD003F54063984207D003F58063A3
:10018000984203D003F58063984201D10B7A03862D
:1001900001238382704700BF002C01400010004003
:1001A000038C70B523F001031B041B0C0384028C29
:1001B0008688038B0D8823F073031B041B0C1D43DF
:1001C00022F002020C894B881204120C23431343C1
:1001D000144AB6B290429BB20FD002F50062904230
:1001E0000BD002F54062904207D002F58062904247
:1001F00003D002F5806290420ED14C8923F00803AF
:100200001C438B8824F0040426F4407223438E8917
:10021000CC893443224396B2CA888680058382867D
:10022000038470BD002C0140038C30B523F0100313
:100230001B041B0C0384038C8588028B0C8822F41E
:10024000E6421204120C42EA042223F0200394B284
:100250001B040A891B0C43EA02134A88ADB243EA25
:100260000213124A9BB2904203D002F50062904200
:1002700015D123F080034A899BB243EA02124FF65C
:10028000BF7313408A8825F4406543EA02138A89C4
:100290009BB245EA8205CA8945EA8205ADB2CA88A1
:1002A000858004830287038430BD00BF002C014099
:1002B000038C30B523F480731B041B0C0384038C64
:1002C0008488828B0D8822F073021204120C23F4AE
:1002D000007315431B040A891B0C43EA02234A8856
:1002E000A4B243EA0223124A9BB2904203D002F521
:1002F0000062904215D123F400634A899BB243EA1D
:1003000002224FF6FF3313408A8824F4405443EA14
:1003100002238A899BB244EA0214CA8944EA02147D
:10032000A4B2CA88848085838287038430BD00BFDD
:10033000002C0140038C30B523F480531B041B0CAC
:100340000384038C8488828B0D8822F4E642120495
:10035000120C23F4005342EA05221B040D891B0CE6
:1003600043EA05334D88A4B243EA05330A4D92B2FD
:10037000A8429BB203D005F50065A84205D18D893E
:1003800024F4804444EA8514A4B284808283CA8819
:10039000A0F84020038430BD002C0140038819B12F
:1003A0009BB243F0010303E023F001031B041B0C89
:1003B0000380704780F30888704780F31088704787
:1003C000384B82B01A6842F001021A605968364A06
:1003D0000A405A601A6822F0847222F480321A604D
:1003E0001A6822F480221A605A6822F4FE025A60C7
:1003F0004FF41F029A600022009201921A6842F4A0
:1004000080321A601A6802F400320192009A0132B6
:100410000092019A1AB9009AB2F5A06FF2D11A6847
:1004200012F4003218BF01220192019A012A05D06C
:100430001E4B4FF000629A6002B070471C4A116870
:1004400041F010011160116821F003011160116881
:1004500041F0020111605A685A605A685A605A683D
:1004600042F480625A605A6822F47C125A605A68D8
:1004700042F4E8125A601A6842F080721A601968F1
:10048000084A8901FBD5516821F003015160516888
:1004900041F0020151605A6802F00C02082AFAD1B8
:1004A000C6E700BF001002400000FFF800ED00E0CA
:1004B00000200240FEE7000008B50C4A0C4B0D4935
:1004C0008B4204D252F8040F43F8040BF8E70A48B1
:1004D0000A494FF000028842B8BF40F8042BFADB0B
:1004E000FFF76EFFBDE8084003F0E8BD9464000824
:1004F000000000202C0000203000002018250020E3
:1005000008B5264B984206D10121042000F036F9A7
:10051000002104203CE0224B984206D10121082012
:1005200000F02CF90021082032E01E4B984206D141
:100530000121102000F022F90021102028E01A4BA0
:10054000984206D10121202000F018F90021202036
:100550001EE0164B984206D10121402000F00EF912
:100560000021402014E0124B984206D10121802046
:1005700000F004F9002180200AE00E4B98420BD1D4
:1005800001214FF4807000F0F9F800214FF48070E1
:10059000BDE8084000F0F2B808BD00BF0008014007
:1005A000000C0140001001400014014000180140FF
:1005B000001C014000200140CA782DE9F041D4061A
:1005C00048BF8C780E8802F00F0348BF234316F013
:1005D000FF0F1ED0016800244FF0010E4FF00F0CEA
:1005E0000EFA04F737EA06050FD1A5000CFA05F854
:1005F00021EA080103FA05F5282A41EA050101D19B
:10060000476102E0482A08BF07610134082CE7D19E
:100610000160FF2E20D9416800244FF0010E4FF0F9
:100620000F0C04F108050EFA05F535EA06070FD19F
:10063000A7000CFA07F821EA080103FA07F7282AAD
:1006400041EA070101D1456102E0482A08BF05617E
:100650000134082CE5D14160BDE8F081806880B2AA
:10066000704701617047416170470AB1016170478D
:10067000416170470D4B1A6842F001021A605968D7
:100680000B4A0A405A601A6822F0847222F48032BF
:100690001A601A6822F480221A605A6822F4FE0254
:1006A0005A604FF41F029A60704700BF001002406A
:1006B0000000FFF8034A536823F003031843506017
:1006C000704700BF001002401C4A10B5536803F089
:1006D0000C03042B01D0082B01D0194B0EE05368FA
:1006E0005168C3F38343CC0303F1020302D551687D
:1006F000890301D5134900E011494B430360536856
:100700001149C3F30313CC5C0368E34043605468AE
:10071000C4F302240C5D23FA04F484605468C4F327
:10072000C2240C5DE340C3605268C2F381320A44C4
:10073000127CB3FBF2F3036110BD00BF0010024056
:1007400000127A0000093D0014000020044B9A6951
:1007500009B1104301E022EA00009861704700BF30
:1007600000100240044BDA6909B1104301E022EAAB
:100770000000D861704700BF00100240044BDA68E7
:1007800009B1104301E022EA0000D860704700BFC1
:1007900000100240044B1A6909B1104301E022EA3B
:1007A00000001861704700BF0010024008B5214BDF
:1007B00098420BD101214FF48040FFF7DFFFBDE8E5
:1007C000084000214FF48040FFF7D8BF1A4B9842F1
:1007D00008D101214FF40030FFF7DCFF00214FF476
:1007E000003022E0154B984208D101214FF48020BF
:1007F000FFF7D0FF00214FF4802016E0104B984205
:1008000008D101214FF40020FFF7C4FF00214FF46D
:1008100000200AE00B4B98420BD101214FF48010CD
:10082000FFF7B8FF00214FF48010BDE80840FFF744
:10083000B1BF08BD003801400044004000480040FE
:10084000004C00400050004070B50E460446038A3C
:10085000CA889BB223F44053134303828289898858
:10086000338992B20B43718922F4B0520B4322F0C8
:100870000C0213439BB28381838AB2899BB223F417
:10088000407386B01343838201A8FFF71DFF174A08
:10089000039B049D3168944218BF1D4619226A4388
:1008A000A389642613F4004F14BF4D008D00B2FBE2
:1008B000F5F5B5FBF6F0A28900010109120406FB6B
:1008C000115307D5D9003231B1FBF6F202F007021D
:1008D000104306E01A013232B2FBF6F303F00F03C5
:1008E000184380B2208106B070BD00BF00380140BF
:1008F0004B8810B50C88028A23438C88C98892B231
:1009000023430B4322F4706213439BB2038210BD56
:100910000023038043808380C3807047838919B19B
:100920009BB243F4005303E023F400531B041B0C5D
:1009300083817047012310B5C1F342149C4201F03A
:100940001F0103FA01F101D10C3003E0022C0CBFAE
:100950001030143003680AB1194301E023EA0101A1
:10096000016010BDC1F308018180704703881942FE
:1009700014BF012000207047090A012303FA01F186
:10098000C94389B201807047034B044A5A6002F19F
:1009900088325A60704700BF00200240230167453B
:1009A000FFF7F2BF024A136943F0800313617047F7
:1009B00000200240FFF7F6BF084BDA68D10709D4E0
:1009C000DA68520708D4DB6813F0100F14BF032055
:1009D0000420704701207047022070470020024029
:1009E00010B50446FFF7E8FF012806D11CB1FFF758
:1009F000E3FF013CF8E7052010BD002C08BF0520EF
:100A000010BD000070B505464FF400500E46FFF7CC
:100A1000E7FF04280ED1084C4FF40050236943F03F
:100A2000010323612E80FFF7DBFF41F6FE7322698D
:100A30001340236170BD00BF0020024073B5002346
:100A400006464FF400500D460193FFF7C9FF0428F6
:100A50001AD10E4C4FF40050236943F00103236177
:100A6000ABB23380FFF7BCFF042808D102360196F1
:100A7000019B2D0C1D804FF40050FFF7B1FF41F694
:100A8000FE7322691340236102B070BD0020024052
:100A900038B505464FF43020FFF7A2FF042812D1E5
:100AA000094C4FF43020236943F002032361656150
:100AB000236943F040032361FFF792FF41F6FD7382
:100AC00022691340236138BD0020024040F0BF601E
:100AD000024B40F40030D860704700BF00ED00E0EA
:100AE000C27810B503780AB3164A03F16043D1689F
:100AF0004278C943C1F30221C1F1040402FA04F4AB
:100B00000F22CA40817803F561430A402243120153
:100B1000D2B283F8002303780122590903F01F039E
:100B200002FA03F3084A42F8213010BD5A090121A4
:100B300003F01F0301FA03F30349203241F8223086
:100B400010BD00BF00ED00E000E100E010B5074C73
:100B500040F225512046FFF70FFF2046BDE8104028
:100B6000012240F22551FFF7E5BE00BF00380140E9
:100B700000EB8000430018460138FDD8704740283C
:100B800008B5024609D8BDE80840C0EB401002EBAA
:100B90008000C00080B2FFF7EBBF4FF47A70FFF720
:100BA000E7FF013A92B2002AF7D108BD38B50446F2
:100BB00005F0F0F880B20246002330B1013880B26F
:100BC000215C2E2908BF0346F7E713B9013A20201C
:100BD00010E0013B202182B29A4205DAA55C013087
:100BE000302D0AD1A154F6E738BD655C0133302DB4
:100BF00003D1605499B29142F7DB38BDF8B5069C39
:100C0000002626700D46097875290CD1697863296C
:100C100001D101782AE0692901D1018826E06C29F7
:100C20006DD1016822E0732969D16978632902D105
:100C300090F9001007E0692902D1B0F9001002E034
:100C40006C295CD10168A8782B280AD1002903DA25
:100C50002D202070012608E008BF202020700126EA
:100C600004E000294FF0000600DA494210461F4612
:100C70004FF0300E002F06DA013880B2013704F849
:100C800000E03FB2F6E703EAE373134418BF01370D
:100C90009BB218BF3FB20A204FF02E0C9E4210D2DA
:100CA000013B9BB2C3EB020EBE451FBFB1FBF0FE82
:100CB00000FB1E113031E1540CBF04F803C0714633
:100CC000ECE70023A3547A21284604F09DFFB0B13D
:100CD000601CFFF76BFF204605F05CF801238342A0
:100CE0000CD2E25C202A06D02278234403F8012C9F
:100CF00020232370F8BD01339BB2F0E7F8BDF8BDA7
:100D00000A4B1A8892060FD509480A499A8803881F
:100D100009880133C3F3080389B28B4218BF06491F
:100D2000D2B21CBFCA540380704700BF00380140D4
:100D3000A2110020A41100201013002010B50446B9
:100D400040210548FFF712FE0028F9D0214602484D
:100D5000FFF708FE012010BD0038014010B5441E09
:100D600014F8010F10B1FFF7E9FFF9E710BD00001B
:100D700008B540210248FFF7F9FD0028F9D008BD69
:100D800000380140044B1888044B80B21B889BB28A
:100D9000C01A18BF01207047A2110020A411002022
:100DA00010B50948094C2188038889B29BB2994241
:100DB000054AF8D013880133C3F30803138013885E
:100DC000034A9BB2D05C10BDA4110020A2110020E8
:100DD000101300201FB5002300900C22694608481C
:100DE000ADF80430ADF80630ADF80830ADF80A20A3
:100DF000ADF80C30FFF728FD05B05DF804FB00BF2F
:100E00000038014030B5012185B0284C44F205007E
:100E1000FFF79CFC4FF40073ADF800300325182356
:100E2000694620468DF803308DF80250FFF7C4FB69
:100E30004FF480636946ADF80030204648238DF8B2
:100E4000033004F540548DF80250FFF7B5FB02A8BB
:100E5000FFF75EFD02A92046FFF74AFD1448FFF7A1
:100E6000B9FF252301258DF8043001A80F238DF843
:100E700006308DF805508DF80750FFF731FE00223F
:100E8000204640F22551FFF755FD204640F22551FE
:100E9000FFF772FD074A00231380074A29462046C0
:100EA0001380FFF73BFD05B030BD00BF00080140D7
:100EB00080841E00A4110020A211002008B5FFF7B5
:100EC000A1FFBDE80840FFF741BE0000034B01222F
:100ED0001A805A6801325A60704700BF3000002003
:100EE0000B4B0021198059600A4B0B4A1B68F020FC
:100EF000B3FBF2F34FF47A725343084A013B536059
:100F0000074B83F82300072391601360704700BFED
:100F1000300000200000002040420F0010E000E000
:100F200000ED00E02DE9F84F254B264D01281CBFB0
:100F3000AA461D46894614462349244A06BF9A46B6
:100F400088469046FFF72CFD2846FFF7A1FD0428B0
:100F5000074630D14FF6FF7BB9F1000F08BF4FF4C1
:100F60007A74013405F1100624F001043444C5EB11
:100F70000A0AA64217D0B9F1000F03D13AF80610B9
:100F800089B203E0731B4B4433F8101C594501D15F
:100F90000236EEE7B0450DD93046FFF733FD0428A1
:100FA0000746F5D007E04FF011312846FFF746FD20
:100FB000074600E08027FFF7FDFC3846BDE8F88FC4
:100FC00000F0000800F40008FFF70008FFF3000835
:100FD00010B5FFF7E5FC0748FFF75AFD0428044663
:100FE00003D10548FFF754FD0446FFF7E3FC204614
:100FF00010BD00BF00F0000800F400080131C1F38B
:101000004F0100239AB291420AD9B3F5FC7F09D06F
:10101000054A1A445200128820F813200133F1E7E0
:1010200004207047802070470878000438B50A46CD
:1010300004460D4601460020FFF774FFC0B20428A5
:1010400001D080B238BD2A4621460120FFF76AFF51
:10105000C0B238BD38B5164B1D68D3F80044B5F1A1
:10106000113F07D1B4F1113F01D104201DE0621CF2
:101070000ED104E06B1C0BD1B4F1113F08D100225A
:1010800011460120FFF74EFFC0B204280DD1ECE756
:10109000FFF79EFFC0B2042807D1013504D1013407
:1010A00014BF4020202000E0402080B238BD00BFA7
:1010B00000F00008054AC000138800F0380023F053
:1010C00038031B041B0C034313807047003001409E
:1010D00030B5012189B04FF48050FFF737FB012173
:1010E0000520FFF733FB01210420FFF72FFB03242A
:1010F00010234FF4807502A92F488DF80B30ADF8FE
:1011000008508DF80A40FFF757FA29462A48FFF79A
:10111000A8FAA023ADF8083002A9182326488DF8B4
:101120000B308DF80A40FFF747FA4023ADF808303E
:1011300002A9482320488DF80B308DF80A40FFF7AC
:101140003BFA4FF48273ADF80E304FF40063ADF804
:1011500010304FF40073ADF8163038230024012509
:10116000ADF8183003A907231448ADF81C30ADF8CA
:101170000C40ADF81240ADF81450ADF81A4003F031
:101180000BF921460D4803F037F929460B4803F0C7
:1011900022F90221094803F03BF90028F9D0074859
:1011A00003F027F9ADF80600BDF806309BB2ADF8A4
:1011B000063009B030BD00BF0008014000300140DA
:1011C0001FB501214FF40060FFF7C0FA0023ADF80E
:1011D0000A30ADF806304FF6FF73ADF80830094B12
:1011E000094A1B68094CB3FBF2F304A9013B21F83F
:1011F0000C3D2046FEF78AFF01212046FFF7CEF87E
:1012000004B010BD0000002040420F00002C01403F
:10121000064B074A9B8C91889BB2994288BF116804
:10122000938084BF01311160704700BF002C0140E2
:10123000DC11002008B50120FFF7C2FF034B00219D
:101240009A8C034B19609A8008BD00BF002C0140A6
:10125000DC110020024B00229A805A801A807047CD
:10126000221500202DE9F0410646884686B001216E
:101270000720FFF777FA01210D20FFF767FA032413
:101280000823182501A93C48ADF804308DF8075013
:101290008DF80640FFF790F9ADF804408DF807503F
:1012A0008DF80640002506AC01A93448FFF784F903
:1012B00024F8105DADF80C60314E324F20232146EA
:1012C0004FF08040ADF80A30ADF80E50FEF71EFF2B
:1012D00021463046FEF71AFF21463846FEF716FF34
:1012E000602321464FF08040ADF80830ADF814502F
:1012F000ADF81650ADF81050ADF81250ADF80A50D8
:10130000ADF80C50ADF80E80FEF78EFF21464FF081
:101310008040FEF7CDFF21464FF08040FFF70AF8EE
:1013200021463046FEF73CFF21463046FEF77CFF63
:1013300021463046FEF7BCFF21463046FEF7FAFF55
:1013400021463846FEF7B4FF21463846FEF7F2FF45
:101350004FF0804213889BB243F00103138033881F
:101360009BB243F0010333803B889BB243F00103FF
:101370003B8006B0BDE8F08100080140000C014050
:101380000004004000080040154810B5838A5BB98E
:101390000488C18882894FF08043A3F84040A3F8B5
:1013A0003C14A3F8402410BD038803EB4301C3EBB6
:1013B000C10399B2C38803EB4302C3EBC2039AB2E1
:1013C000838903EB4300C3EBC0034FF08040A0F8D8
:1013D000401004499BB28A87A1F8403010BD00BF7D
:1013E00028150020000400402DE9FF414FF0804205
:1013F000138C2949294E0B80338C294D4B802B8C23
:101400000F468B80002313840446338420212B84D1
:10141000DFF89080C8B1ADF8061048F60A211046F2
:10142000ADF8081001A9ADF80A30ADF80430FEF7A8
:101430006DFE01A93046FEF769FE01A92846FEF7B8
:1014400065FE0123A8F8143017E040F20A63ADF8F6
:101450000A00ADF80610ADF8040001A91046ADF879
:101460000830FEF753FE01A93046FEF74FFE01A9F2
:101470002846FEF74BFEA8F81440FFF785FF3A8890
:101480004FF080431A847A88A3F82024BA88A3F8FE
:10149000202804B0BDE8F08122150020000400409F
:1014A000000800402815002038B50B4D00242046C8
:1014B00003F054FF094903F0A5FF02F0B3FF084908
:1014C00003F0A0FF04F064F90134B4F57C7F45F823
:1014D000040FECD138BD00BF3C150020DE40CC3BF2
:1014E00000803848FA28034B28BFFA20A3F8E20FFF
:1014F000704700BF281500201B4B10B5B0F57C7F4E
:10150000A3F8DC0F24BFA0F57C7080B2821DB3F875
:10151000E24F53F822206243120C02F540721A8007
:1015200000F5A87292B2B2F57C7F24BFA0F52870B6
:1015300082B202F5A87080B2B0F57C7F24BFA2F51C
:10154000287080B2911D063053F8211053F82020E6
:1015500061436243090C120C01F5407102F54072BF
:10156000D9809A8110BD00BF281500201349144B63
:10157000B1F8E80F00229A805A801A8020F0070202
:1015800092B2C006A1F8E82F0DD5B1F8EA0F0228F3
:1015900009D84FF48050188042F001024FF488506F
:1015A0005880A1F8E82F19884FF0804211845A889A
:1015B000044B1A840022A3F8202470472815002029
:1015C0002215002000040040064BB3F8E82F20B19C
:1015D00042F01002A3F8E82F704722F01002A3F89F
:1015E000E82F704728150020024BB3F8E80FC0F32E
:1015F0000010704728150020021C08B518BF0122F2
:10160000FFF7F2FF904205D01046FFF7DDFF024BD7
:1016100001221A8008BD00BF50110020054BB3F80D
:10162000EA2F82421FBFA3F8EA0F034B01221A8060
:10163000704700BF2815002050110020044B0030D7
:101640009B8A18BF0120834201D0FFF7CDBE7047AF
:101650002815002008B5FFF7FDFD154B00224FF4BB
:1016600040715A829A82A3F8DC2FA3F8DE2FA3F8E8
:10167000E02FA3F8E22FA3F8E42FA3F8E62FA3F8B6
:10168000E82F0322A3F8EA2FA3F8EC2FA3F8EE2FFC
:101690009981D9801980D9811981598019825981FC
:1016A0009980012240F20A60BDE80840FFF7DABDE8
:1016B0002815002008B5FFF70BFDBDE80840032002
:1016C000FFF7F8BC38B505460C4633484FF4807137
:1016D000FEF7C9FF00BF00BF00BF00BF00BF00BFD3
:1016E00000BF00BF00BF00BF00BF00BF00BF00BF02
:1016F00000BF48F20101294802F079FE0121274884
:1017000002F086FE0028F9D0244802F072FE00BFE5
:1017100000BF00BF00BF00BF00BF00BF00BF00BFD1
:1017200000BF00BF00BF00BF00BF00BF4FF6FF718A
:101730001A4802F05CFE0121184802F069FE0028F8
:10174000F9D0164802F055FE4FF6FF712880134875
:1017500002F04DFE0121114802F05AFE0028F9D096
:101760000E4802F046FE208000BF00BF00BF00BF51
:1017700000BF00BF00BF00BF00BF00BF00BF00BF71
:1017800000BF00BF00BF4FF480710348FEF769FF40
:101790002088C0F3803038BD00080140003001408F
:1017A000024642F2107342F6F82100F480500028FD
:1017B00012BF184600204FF47A7112F4006F18BF60
:1017C0000846130648BF6430510644BF00F10A03BF
:1017D00098B2930644BF013080B27047034640F28E
:1017E0004C4201B20029AEBF4FF47A70002064224F
:1017F00013F4804F08BF10469A0458BF0A30DB0428
:101800005CBF013080B2704770B505460C464C484D
:101810004FF48071FEF727FF00BF00BF00BF00BF7D
:1018200000BF00BF00BF00BF00BF00BF00BF00BFC0
:1018300000BF00BF00BF48F20101424802F0D7FDDF
:101840000121404802F0E4FD0028F9D03D4802F0B3
:10185000D0FD00BF00BF00BF00BF00BF00BF00BF82
:1018600000BF00BF00BF00BF00BF00BF00BF00BF80
:101870004FF6FF71334802F0BAFD0121314802F002
:10188000C7FD0028F9D02F4802F0B3FD4FF6FF71D5
:1018900028802C4802F0ABFD01212A4802F0B8FD57
:1018A0000028F9D0274802F0A4FD208000BF00BF27
:1018B00000BF00BF00BF00BF00BF00BF00BF00BF30
:1018C00000BF00BF00BF00BF00BF4FF480711C48C5
:1018D000FEF7C7FE42F6F8212A8842F2107302F49E
:1018E0008056002E04BF00234FF47A7112F4006F6B
:1018F00018BF0B46160648BF6433510640F24C41F0
:1019000044BF0A339BB2960644BF01339BB2208882
:101910002B802288C0F3803013B2002BAEBF4FF46F
:101920007A730023642112F4804F08BF0B469104A0
:1019300058BF0A33D2045CBF01339BB2238070BD11
:10194000000801400030014038B505460C462B48E0
:101950004FF48071FEF787FE00BF00BF00BF00BFDD
:1019600000BF00BF00BF00BF00BF00BF48F20211B0
:10197000234802F03CFD0121214802F049FD0028E6
:10198000F9D01F4802F035FD00BF00BF00BF00BF07
:1019900000BF00BF00BF00BF00BF00BF4FF6FF7118
:1019A000174802F024FD0121154802F031FD0028FE
:1019B000F9D0134802F01DFD4FF6FF712880104842
:1019C00002F015FD01210E4802F022FD0028F9D099
:1019D0000B4802F00EFD208000BF00BF00BF00BF1B
:1019E00000BF00BF00BF00BF00BF00BF4FF4807149
:1019F0000248FEF736FE012038BD00BF0008014056
:101A00000030014010B54FF4807104462448FEF7C1
:101A10002AFE00BF00BF00BF00BF00BF00BF00BF65
:101A200000BF00BF00BF48F220011E4802F0DFFCEB
:101A300001211C4802F0ECFC0028F9D0194802F002
:101A4000D8FC00BF00BF00BF00BF00BF00BF00BF89
:101A500000BF00BF00BF4FF6FF71124802F0C7FC85
:101A60000121104802F0D4FC0028F9D00D4802F002
:101A7000C0FC208000BF00BF00BF00BF00BF00BF90
:101A800000BF00BF00BF00BF4FF480710448FEF7E5
:101A9000E8FDB4F90030012043F30E03238010BDAC
:101AA000000801400030014010B504461430FFF733
:101AB000A9FFB4F914305A0012B25B02A28023606D
:101AC0002282A36010BD002383828380036003828F
:101AD0008360C382704710B504468388143020F8B1
:101AE000043C50F8143C40F80C3CFFF78BFFB4F971
:101AF0001430218A5A00A280521A6282A2685B02C4
:101B000023609B1AE36010BDB0F90030002B0FD0AA
:101B1000BCBF5B421BB24FF0807292FBF3F38B426F
:101B200001DCC91AFBE7002901DA1944FBE741602F
:101B3000704700002DE9F04F4FEA012E2EF0404E85
:101B40002EF0FF0E0EF1604E8EFB0E45A30F43EA02
:101B50008503BC4E4FEAA57C5A42A3FB064506FB13
:101B60000C26A40F3544B84E44EA8504B74F2644EA
:101B700006FB0CF407FB0C22A3FB0789F517914425
:101B80004FEA987803FB0542B14CA6FB036748EA8D
:101B90008908444404FB0CF51744B60FAD4A46EAE5
:101BA00087064FEAE479324403FB0956A4FB034558
:101BB00002FB0CFCD71735444FEA9478A64E03FB82
:101BC00007C448EA8508A2FB032346448EFB066748
:101BD0002344940FA14A44EA83042244B30FC1F37F
:101BE000815443EA8703022CC3EB020C85B01344F3
:101BF00000F02581032C00F01F81012C08BF9C46BA
:101C000001F1551202F5AA424FEA022A2AF0404A8F
:101C10002AF0FF0A0AF1604A8AFB0A45A30F43EA49
:101C20008503884E4FEAA57E5F42A3FB064506FB6F
:101C30000E76A40F3544844E44EA8504DFF80C8206
:101C4000264406FB0EF408FB0E77A3FB0889F51764
:101C500003FB0545B9444FEA98787D4C48EA89086A
:101C60004444A046A6FB03672F44B50F794E45EACE
:101C700087052E444FEAE479CDE90289B04640F267
:101C8000E22B04FB0EF7039D4FEAE67903FB057791
:101C9000A4FB034506FB0EFECDE9008980FB0C8901
:101CA0003D44019FC2F3815203FB07EC4FEA947E4F
:101CB000694CA6FB03674EEA850E4FEA987374449D
:101CC00043EA89038AFB04450BFB03FB4FEA967E3C
:101CD0006744624E4EEA870EA30F4FEA2B44DFF8AB
:101CE00080B1764443EA850304F54074022AC3EBCD
:101CF000060EABF80040334400F09B80032A00F04E
:101D00009580012A08BF9E4601F1AA1101F52A41DA
:101D10000A0222F0404222F0FF0202F1604282FBFE
:101D20000245A30F43EA8503464E4FEAA57C5F4276
:101D3000A3FB064506FB0C76A40F3544424E44EA4D
:101D40008504DFF80881264406FB0CF408FB0C77B9
:101D5000A3FB0889F51703FB0545B9444FEA9878BA
:101D60003B4C48EA89084444A046A6FB03672F443D
:101D7000B50F384E45EA87052E444FEAE479CDE9A0
:101D80000289B04640F2E22A04FB0CF7039D4FEAB9
:101D9000E67903FB0577A4FB0345CDE900898EFBBB
:101DA000008906FB0CFC3D444FEA947E019F2A4CBF
:101DB0004EEA850E4FEA987503FB07CC7444A6FBE8
:101DC000036745EA890582FB04230AFB05F467449F
:101DD000B60F224D46EA8706920F2414C1F38151B3
:101DE000354442EA830204F540740229A5EB02035C
:101DF000ABF806402A4417D0032913D0012908BFA5
:101E0000134640F2E22283FB0001830F43EA810381
:101E100002FB03F31B1403F54073ABF80C3005B061
:101E2000BDE8F08F5342ECE75B42EAE7C3F1000EF6
:101E30006AE7CEF1000E67E7C3F1000CE0E6CCF1F3
:101E4000000CDDE69D2B16FF60DC780B1CBB8CFCC8
:101E500020B5311D00732BC800C7EAB8C03C412D26
:101E600028150020B1F5803F10B50446084604DC73
:101E7000114B9942B8BF184601E04FF480306368B7
:101E8000D118B4F90030002B01FB03F107DD002865
:101E9000AEBF01F58001A1F58001404206E00028B7
:101EA000AEBFA1F5800101F580014042FFF742FE7F
:101EB000BDE81040FFF768BA0000FFFF07B54FF418
:101EC0000073ADF8043018238DF8073001A90323FF
:101ED00005488DF80630FEF76FFB0120FEF748FE3F
:101EE00003B05DF804FB00BF0008014007B5FEF732
:101EF0003FFF0120FEF73CFE4FF40073ADF80430C5
:101F000048238DF8073001A9032304488DF80630D3
:101F1000FEF752FB03B05DF804FB00BF0008014070
:101F20002DE9F0410646884605460024AB1BDBB28E
:101F3000434506D215F8017B3846FEF7FFFE7C408C
:101F4000F4E72046BDE8F041FEF7F8BE70B5044660
:101F50000D4606783046FEF7F1FE64782046FEF71F
:101F6000EDFE74402846FEF7E9FE85EA0400BDE870
:101F70007040FEF7E3BE0000054B00221A605A6075
:101F80009A60DA601A825A829A82FEF797BF00BF7F
:101F9000E812002007B54FF44070FEF797FD104B94
:101FA000E02283F8232001210420FEF7CFFB022347
:101FB000ADF80430102301A90A488DF80730032337
:101FC0008DF80630FEF7F8FAFFF7D6FFFFF78EFF21
:101FD000FFF730F9FEF784FF03B05DF804FB00BFA4
:101FE00000ED00E00008014008B5114B114C1B68E2
:101FF00011482360FEF784FA1048FEF781FA104872
:10200000FEF77EFA0F48FEF7D1FBFEF733FB0E4BCF
:102010000020186058609860FEF74CFB0120FEF726
:10202000CCF90A4B1868FEF7C5F923689847FEE714
:1020300004F0FF1F1015002000080140000C0140B3
:10204000001001400038014010E000E000F0FF1FE8
:10205000064A138843B1064B51889B8C5B1A9BB28E
:10206000642B84BF00231380704700BFE41100205D
:10207000002C0140034B00221A805A809A80DA809B
:10208000704700BFE4110020F0B5304B87B09B785B
:10209000013B032B57D8DFE803F0020C2442FFF783
:1020A0000DFF2B4B1D782846FEF748FE294B1C7868
:1020B0003EE001AEFFF702FF10220021304603F0A0
:1020C00055FD00242449304603F006FE2546375DC1
:1020D00001343846FEF732FE102C85EA0705F6D1AA
:1020E00016E001AEFFF7EAFE10220021304603F0B1
:1020F0003DFD00241949304603F0EEFD2546375DCD
:1021000001343846FEF71AFE102C85EA0705F6D191
:102110002846FEF713FEFFF7E9FE012014E0104CFD
:10212000FFF7CCFE25782846FEF708FE2488240A0F
:102130002046FEF703FE85EA0400FEF7FFFDFFF7E9
:10214000D5FE012000E0002007B0F0BD0413002000
:10215000201500207E000020EA5E0008F05E0008E6
:1021600080000020034B002207215A809980DA80EA
:102170001A817047D412002038B51222FF21254859
:1021800003F0F4FCFEF766FFC0B20428214C0AD02D
:102190001222FF211F4803F0E9FCFEF75BFFC0B2EB
:1021A00004280FD107E012212046FEF727FFC0B216
:1021B00004280CD0ECE712211648FEF71FFFC0B22E
:1021C000042804D01222FF21124803F0CFFC2388F8
:1021D000104D212B14D0FFF7C5FF2B88202B05D8DD
:1021E00012212846FEF70AFF00236B8021230A49AB
:1021F0000A48238003F070FD12210648FEF716FFFF
:102200006388043B9BB2022B82BF024B00225A80A0
:1022100038BD00BFD4120020FD5E0008DE12002091
:10222000F7B501210420FEF791FA48261023032573
:1022300001A94648ADF8043004248DF807608DF8F4
:102240000650FEF7B9F901210420FEF77FFA0DEBE5
:1022500004013E488DF80760ADF804408DF8065043
:10226000FEF7AAF93A4B3B4E5B88A34268D0052B98
:1022700066D0062B02D10623338065E0348000252A
:1022800040243248FEF7EAF9013CC20648BF013556
:10229000A4B248BFADB2002CF3D1302D1ED80F2D03
:1022A0001DD92D4C254648F6B800FEF761FCB4F95F
:1022B0000030002B04DA012202212448FEF7D5F970
:1022C00048F6B800FEF754FCB5F90030002BEADA06
:1022D000002202211D48FEF7C8F9E4E70124402747
:1022E00000251A48FEF7BAF9013F430748BF0135F8
:1022F000BFB248BFADB2002FF3D1302D1ED80F2D85
:1023000020D9154C254648F6B800FEF731FCB4F943
:102310000030002B04DA012202210C48FEF7A5F957
:1023200048F6B800FEF724FCB5F90030002BEADAD5
:10233000002202210548FEF798F9E4E724B90523B5
:10234000338001E0002C96D103B0F0BD00080140BD
:10235000D4120020820000202800002013B5FFF7CF
:102360000BFFFFF75DFF1C4B1C4C9A8C1C4B1A801B
:102370004FF480532380FFF79DF923880DF1060168
:1023800043F0010301A82380FFF73EFABDF80630B1
:1023900023B9144A138843F0800313801248FFF7CF
:1023A00083FB12480024124B4460D3F806109B882C
:1023B0000380FFF7A9FBFFF74DF9FFF775F80D4B09
:1023C0002046A3F8E24FFFF7FFF80320FFF726F9B6
:1023D000FFF7CCF802B010BD002C014080000020B7
:1023E000A011002020150020C0110020081300209B
:1023F000D41200202815002008B50C4A0C4B128876
:102400009B8C9B1A42F210729BB293420CD9002013
:10241000FFF7F2F8074B1A88012A05D100221A802B
:10242000BDE80840FFF7A2B808BD00BFA01100201A
:10243000002C01405011002008B5044B1B881B06DE
:1024400002D50348FFF747FB142008BD20150020E4
:10245000C011002008B5FFF7C7F8044B10B9962249
:102460001A8008BD4FF4FA721A8008BD28000020B7
:1024700008B5FFF709FE074B9B78752B09D1FFF7CD
:102480001DFD06210448FFF74BFDBDE80840FFF79E
:102490002DBD08BD04130020D8120020F8B5524B02
:1024A0001C8824B1514AD3680133D360F8BD504E23
:1024B000504D30782C8000F04000FFF7BFF83078A6
:1024C00000F01000FFF798F84B4B31461B88042BA7
:1024D0000CD1337813F0010F0CBF03200020FFF75D
:1024E0009DF876788C787000CB781CE0052B0CD1A9
:1024F000337813F0020F0CBF03200020FFF78EF893
:1025000036794C7970008B790DE0062B22D1337827
:1025100013F0040F0CBF03200020FFF77FF8F679BB
:102520000C7A4B7A700004F07F07E401DA0106F0C0
:102530007F0604F47E549B03344403F4FE131C44CE
:1025400002F46072E6023A4407D56FEA04346FEA97
:10255000143402E020464FF4FC720B789B061BD526
:10256000264B274E1B8813F0800F08D03046FFF70C
:10257000B2FA326821462348FFF774FC24E0214A6E
:102580003168536820460B44B2F900105943FFF7F5
:10259000D1FAFEF7F9FE17E0FEF7A4FF194B5868D1
:1025A0004FF47C730013584302EB2030B0F57C7F6E
:1025B00002DBA0F57C70F9E7002802DA00F57C70F8
:1025C000FAE780B2FEF798FFFEF7DEFE2B88012BBC
:1025D00004D1084B00221A80FEF7C8FF0A4B9A8CE0
:1025E0000A4B1A80F8BD00BFF4000020E81200205A
:1025F000A40000205011002082000020201500209F
:10260000C011002008130020002C0140A011002060
:10261000034B1B881B0602D50248FFF75CBA7047C4
:1026200020150020C011002008B50A4B0A4A1B885B
:1026300013F0800F06D0094B9988094B19800523A8
:10264000137004E00548FFF73EFA012313700720DA
:1026500008BD00BF2015002052110020C01100202D
:1026600000130020024B03481978FFF76FBC00BF2E
:10267000521100200013002070B51E468AB00AAC2B
:1026800024F81A0D05AD134620460A460095054963
:10269000FEF7B4FA2846FEF761FB3046FEF75EFB14
:1026A0000AB070BD065F000870B51E468AB00AAC5D
:1026B00044F81C0D05AD134620460A460095054911
:1026C000FEF79CFA2846FEF749FB3046FEF746FB2C
:1026D0000AB070BD0B5F0008074BD88850B11A894B
:1026E00012B90138188101E0013A1A811889B0FA4B
:1026F00080F04009704700BF14150020024A9388FB
:1027000001339380704700BF14150020024B002254
:102710001A81DA809A80704714150020024B00223B
:102720001A805A809A8070475411002008B5FEF72D
:1027300037FB064B99884A1C92B2382A19449A8072
:10274000887184BF38229A8008BD00BF54110020D0
:102750000A2801D03B2807D1044B00219A88012088
:102760001A449171998070470020704754110020DD
:10277000044A00239380044A044813805380FEF7E0
:10278000EDBA00BF1415002054110020105F00089E
:1027900008B5FFF7BBFF044B00221A805A8003489C
:1027A000BDE80840FEF7DABA54110020105F0008B7
:1027B00010B5044603F0EEFA21460246064803F03F
:1027C00017FB38B92046FEF7C9FA0448FEF7C6FAE7
:1027D000012010BD002010BD5A1100202D5F0008FF
:1027E00010B50C46FEF7FAFF2346BDE81040002264
:1027F000052100B2FFF740BF10B50C46FEF7D0FF31
:102800002346BDE810400022062100B2FFF734BF86
:1028100070B51748174D184CFEF7A0FA1748FEF789
:102820009DFA2B4600220521B4F90000FFF724FF92
:102830001348FEF793FA2B4600220521B4F9020053
:10284000FFF71AFF0F48FEF789FA2B4600220A21EC
:10285000B4F90400FFF710FF0B48FEF77FFA2B4690
:10286000D4F8060000220A21BDE87040FFF71CBF23
:10287000135F00082D5F0008D4120020305F0008AD
:10288000395F0008445F0008555F0008002383603B
:1028900043600360C360036143618361C16170474A
:1028A000F0B5891AB1F5004F02DBA1F58031F9E7E7
:1028B000C1F5FF437F331B0C1B040468194481FBE3
:1028C0000445230C846843EA05430161C360BCB13D
:1028D00081FB0445260C46EA05462F14B6F1011F7C
:1028E00077F10001AABF4FF480314661416141692F
:1028F00011F5803FBCBF1049416141690B44C36081
:102900004468B4B1C369D11AB1F5004F02DBA1F537
:102910008031F9E7C1F5FF437F331B0C1B040B44E7
:1029200084FB03458361210CC36841EA05415B1ABE
:10293000C360C261F0BD00BF0000FFFF38B50C4CA2
:10294000002529464FF48040A560FFF7F3F8FEF715
:102950001BFD2368E5601B6825616361A561A58394
:10296000E5832562A584E5842585E56238BD00BF41
:10297000A41200202DE9F8438146884617461E46DA
:10298000194C1A481A4D234600220A210068FFF705
:102990008BFEA8680821234608410022FFF784FE29
:1029A0002868234600220821B0F90400FFF77CFEC6
:1029B0002346484600220821FFF75EFE23460022F8
:1029C00040460821FFF758FE21463846FFF714FF1E
:1029D00021463046FFF704FF0648FEF7BFF9BDE881
:1029E000F843C820FEF7C4B8F05F000814150020B3
:1029F000A41200202D5F000837B5444C4FF48040EE
:102A0000A168E36801F5834103F583430933093184
:102A1000E360A160FFF78EF8FEF7B6FC23681A6842
:102A20006369D31AB3F5000F02DB03F17F4304E0BF
:102A300013F5000FB8BF03F18073216964200B44C4
:102A400023616261FEF794F80DF102016846FEF71A
:102A500039FEBDF80000FEF7A3FE0546BDF80200F2
:102A6000FEF7BCFE05B910B1E36A0133E3626420EE
:102A7000FEF77EF80DF1060101A8FEF765FFBDF92E
:102A80000430A2691A44A261B4F91C209A42C4BF5E
:102A90001E4A9383B4F91E209A42BCBF1B4AD383BB
:102AA000BDF90630226A1A442262B4F924209A42FF
:102AB000C4BF164A9384B4F926209A42BCBF134A75
:102AC000D384238D01332385FFF706FE48B1BDF87B
:102AD0000230BDF80020BDF90610BDF90400FFF773
:102AE00049FF23690A4A03F1FF1303F57F43934229
:102AF00008D94FF480400021FFF71CF8FEF744FC92
:102B0000012000E0002003B030BD00BFA41200206F
:102B1000FEFFFF01F8B5264C264D2748FEF71EF9AB
:102B20002B46B4F91C0000220821FFF7BDFD2B46FF
:102B3000B4F91E0000220821FFF7B6FDA669B4F91A
:102B400028002B4696FBF0F01C4E00220821FFF7D0
:102B5000ABFD3046FEF702F91948FEF7FFF82B46A9
:102B6000B4F9240000220821FFF79EFD2B46B4F99A
:102B7000260000220821FFF797FDB4F92800276AF4
:102B80002B460022082197FBF0F0FFF78DFD304621
:102B9000FEF7E4F80B48FEF7E1F8E06A2B46002266
:102BA0000821FFF781FD3046BDE8F840FEF7D6B8B2
:102BB000A4120020F05F0008665F00082D5F000887
:102BC0006E5F0008765F000838B5084C002529467E
:102BD0004FF48040A560FEF7ADFFFEF7D5FB2368FC
:102BE000E5601B682561636138BD00BFA811002046
:102BF00010B51E4C4FF48040A168E36801F5834195
:102C000003F5834309330931E360A160FEF792FFC6
:102C1000FEF7BAFB236818686369C31AB3F5000F9F
:102C200002DB03F17F4304E013F5000FB8BF03F1AB
:102C3000807322690D491344B3F1807F2361606181
:102C400002DAB3F17F4F0FDCCA68486802F5000270
:102C500092FBF3F3002103804FF48040FEF76AFFFC
:102C6000FEF792FB012010BD002010BDA81100202E
:102C700008B50848FEF772F8074B002258680A2189
:102C8000064BB0F90000FFF70FFDBDE8084004480F
:102C9000FEF764B8805F0008A8110020F05F00080C
:102CA0002D5F000838B5114C00250323E16029464B
:102CB0006382A0606561FEF73DFFFEF765FB236858
:102CC00000221B68A564A3614FF6FF7323820023D3
:102CD000C4E90823C4E90A23C4E90C23C4E90E2388
:102CE0006564256465652565E56438BDF8000020E8
:102CF000214810B5214C224B00220A210068FFF721
:102D0000D3FC6069082108411D4B0022FFF7CCFC71
:102D1000A06908211A4B08410022FFF7C5FC63692E
:102D2000A069181AB0F5000F02DB00F17F4004E043
:102D300010F5000FB8BF00F1807008210841104B5A
:102D40000022FFF7B1FCB4F910000D4B002208215E
:102D5000FFF792FC00221046094B0821FFF78CFC7C
:102D600000221046064B0821FFF786FCBDE8104004
:102D70000448FDF7F3BF00BF14150020F800002041
:102D8000F05F00082D5F0008F8B55F4CE2686369EA
:102D9000002A1344636111DDB3F1807F16DB002349
:102DA0006361238AB4F91200591C09B28842218256
:102DB0000CDC52420233E260238207E0002B05DA8A
:102DC00003F180736361238A013B23826368616935
:102DD000B3F90030A0685943FEF7ACFEFEF7D4FA11
:102DE0002368D4F80CE01B68BEF1000F464EA361C7
:102DF00013DAB6F91020002A0FDA00214FF48040D0
:102E0000FEF798FEFEF7C0FA316CF36C7068194457
:102E10004910FEF779FE0120F8BDB4F910703A4A66
:102E2000002F03DBB2F91210B9420BDC00220023A1
:102E3000C4E90823C4E90A23C4E90C23C4E90E2326
:102E40000020F8BD5569ED1AB5F5000F02DB05F15C
:102E50007F4504E015F5000FB8BF05F18075D4E992
:102E600008014019D4E90C2341EBE571013243F12B
:102E70000003BEF1000F244EC4E90801C4E90C238D
:102E80001EDD02F0ABFC002F306435DDD6E90E23E9
:102E90002D1A002DB8BF6D42D6E90A01401941EB49
:102EA000E571013243F10003C6E90E23C6E90A01C8
:102EB00002F094FCB36C7064AB421DDAB5641BE0A5
:102EC00002F08CFCD6E90E232D1A002DB8BF6D42FE
:102ED000F064D6E90A01401941EBE571013243F192
:102EE0000003C6E90E23C6E90A0102F077FC736D00
:102EF0003065AB42B8BF7565FFF7EEFB10B1FFF769
:102F0000F7FE0020F8BD00BFF8000020F8B5344CF3
:102F10003448FDF723FFE3684FF47A7043431B13F3
:102F20005843314D314B03220A210013FFF7BCFBFC
:102F30002F48FDF713FF2B46206C00220A21FFF7D4
:102F4000B3FB2C4E2B46606C00220A21FFF7ACFB32
:102F50002B4600220A21A06CFFF7A6FB3046FDF7A6
:102F6000FDFE2548FDF7FAFE2B46E06C00220A2103
:102F7000FFF79AFB2B46206D00220A21FFF794FBF6
:102F80002B4600220A21606DFFF78EFB3046FDF7CD
:102F9000E5FE1A48FDF7E2FEE36C206C00221844BF
:102FA0000A212B464010FFF77FFB276CE06C2B4675
:102FB00000220A21381AFFF777FB3046FDF7CEFED4
:102FC0000F48FDF7CBFE60682B46406800220A21BF
:102FD000FFF76AFB3046BDE8F840FDF7BFBE00BF13
:102FE000F80000208E5F0008F05F0008975F00087F
:102FF0009C5F00082D5F0008A75F0008B25F000813
:10300000BD5F0008002230B51446144B1448DA6046
:103010001A615A6115186C6014500832B2F5805F5D
:103020004FF00001F6D101225A834FF400729A83C7
:103030001A688020B2F9042018835A8492FBF0F2B7
:10304000D2019A844FF6FF72D9831984DA841985E4
:10305000D96219635963996330BD00BF40000020F5
:103060005001002038B51A481A4C1B4D2346002247
:103070000A210068FFF718FB2346E86A00220821AE
:10308000FFF712FB2346686B00220821FFF70CFBB9
:103090002346286B00220821FFF706FB2346A86B76
:1030A00000220821FFF700FB2346B5F92600002285
:1030B0000821FFF7F9FAB5F9280023460022082174
:1030C000FFF7F2FABDE838400448FDF747BE00BFFD
:1030D00014150020F05F0008400000202D5F00085C
:1030E00038B5104D104C1148FDF738FE2B46E068FE
:1030F00000220821FFF7D8FA2B4620690022082178
:10310000FFF7D2FA60690A4C2B4600220821FFF72C
:10311000CBFA2046FDF722FE2046BDE83840FDF7F9
:103120001DBE00BFF05F000840000020C45F000823
:103130002D5F00082DE9F041DFF8C0802C4E0025FE
:10314000B8F91C30ACB29C424CDA28B2294B0022B0
:103150000821FFF791FAB8F918006043B0F5004F65
:1031600002DBA0F5803004E010F5004FB8BF00F599
:103170008030204B00220821FFF796FA06EBC407A7
:1031800056F834001B4B00220821FFF78DFA194B2B
:10319000002208217868FFF787FA56F834007B6828
:1031A0004FF0020E184490FBFEF0124B0022082153
:1031B000FFF77AFA56F8344078680E4B002208215F
:1031C000201AFFF771FA002210460A4B0821FFF778
:1031D0006BFA0948FDF7C2FD4FF4FA60FDF7C8FC31
:1031E0000135ADE70448BDE8F041FDF7B7BD00BFCC
:1031F00050010020F05F00082D5F00084000002013
:10320000F8B5954EF58B3446012D21D009D3022D0A
:1032100040F01E81B6F91C100022B6F91A608F48E2
:10322000A0E0B6F9241011B90123F38311E133684A
:10323000203109B2B3F90420B068B184FFF730FB44
:103240003268B3681268D9687068FEF70BFE00E157
:10325000338C13B9C723338401E0013B3384258CBD
:103260007D4B632D6CD81A68B2F904005A6B104478
:103270009A685863D1681A6B11449A6B19630132CA
:103280009A63002D5CD190FBF2F091FBF2F2B3F95E
:103290002610586300291A631ADBB3F91A00884212
:1032A00016DDB3F918100029B3F928106B4BD5BF00
:1032B00003EBC10353F8310059681218D6BF5218F6
:1032C00043F831205A60FFF707FA08B1FFF7CAFE4A
:1032D000B4F91800A18C604B82B211440028A1847B
:1032E000198D15DD0131B3F91C0009B28842198529
:1032F00022DC00211985D98CB3F91A50481C00B280
:103300008542D88418DC524202311A83D98413E0F2
:10331000013909B2002919850EDA998B013919850D
:10332000D98C013909B20029D98405DA52421A83AD
:10333000DA8B0132DA838CE0002323636363A363B7
:103340002368B4F92410B3F90420A068E162FFF700
:10335000A7FA2268A3681268D9686068FEF782FD40
:10336000002576E093B28B4202F101020CDA50F8AC
:10337000335095FBF6F540F8335000EBC3035D681E
:1033800095FBF6F55D60EDE700231D461846334ECC
:10339000E3609AB291420EDD06EBC2077F6856F8F1
:1033A00032200133D21B002AB8BF52429042BCBF28
:1033B00010460125EDE705B1E060E568022395FBC5
:1033C000F3F500231F461E461846DFF890E0E5603F
:1033D00023619AB2914211DD0EEBC20CDCF804C0FD
:1033E0005EF832200133CCEB0202002AB8BF524211
:1033F0009542C2BFB61801300127EAE707B126613E
:103400002369DFF858E093FBF0F000231F461E46C7
:103410001D46206163619AB2914211DD0EEBC20C30
:10342000DCF804C05EF832200133CCEB0202002A43
:10343000B8BF52429042BEBFB61801350127EAE735
:1034400007B16661636993FBF5F30125636100E0F1
:1034500001252846F8BD00BF400000205001002093
:10346000114B4FF48041D9604FF4004119614FF482
:10347000404159614FF480319961A1F5A031D96182
:10348000A1F580411962A1F5804100225962A1F5A0
:1034900080411A815A819962DA64DA659A655A65BF
:1034A0001A65C3F890207047EC11002038B51D480C
:1034B0001D4C1E4D234600220A210068FFF7F4F838
:1034C0002868234600220821B0F90400FFF7ECF831
:1034D0002868234600220821B0F91200FFF7E4F81B
:1034E00042F21073E86C022258430821234600146C
:1034F000FFF7DAF80022234610460821FFF7D4F838
:103500000022234610460821FFF7CEF8002223466A
:1035100010460821FFF7C8F8BDE838400448FDF719
:103520001DBC00BF14150020F05F0008EC11002046
:103530002D5F00082DE9F84F42F21076DFF8D0B188
:103540006F4CDFF8D0915846FDF708FC4B46206DD4
:1035500000220821FFF7A8F84B46606D00220821E1
:10356000FFF7A2F8DFF8B0A14B46A06D00220821BA
:10357000FFF79AF84B4600220821E06DFFF794F818
:103580005046FDF7EBFB5F484EF66025FDF7E6FB86
:10359000206DDFF888817043434601220821001422
:1035A000FFF782F8606D4346704301220821001442
:1035B000FFF77AF8A06D43467043012208210014FA
:1035C000FFF772F8E06D43467043012208210014B2
:1035D000FFF76AF85046FDF7C1FB4B48FDF7BEFB0D
:1035E000206D4A4F68433B46002208210014FFF734
:1035F0005BF8606D3B466843002208210014FFF72A
:1036000053F8A06D3B466843002208210014FFF7E1
:103610004BF8E06D3B466843002208210014FFF799
:1036200043F85046FDF79AFB5846FDF797FB4B468B
:10363000206E00220821FFF737F84B46606E00220B
:103640000821FFF731F84B46A06E00220821FFF752
:103650002BF84B4600220821E06EFFF725F8504674
:10366000FDF77CFB2748FDF779FB206E434670434E
:10367000012208210014FFF717F8606E43467043DB
:10368000012208210014FFF70FF8A06E4346704393
:10369000012208210014FFF707F8E06E434670434B
:1036A000012208210014FEF7FFFF5046FDF756FBEC
:1036B0001548FDF753FB206E3B4668430022082166
:1036C0000014FEF7F1FF606E3B46684300220821BC
:1036D0000014FEF7E9FFA06E3B4668430022082174
:1036E0000014FEF7E1FFE06E3B4668430022001441
:1036F0000821FEF7D9FF5046BDE8F84FFDF72EBB75
:10370000EC110020D65F0008E55F0008EC5F0008C0
:10371000CC5F0008F05F00082D5F0008DE5F000846
:1037200038B5324C012023890F2B5ED84AF6AA22E5
:1037300023FA00F500FA03F31A404ABB45F255524A
:103740001A40002A51D004EB8503D96823686068C9
:103750001A68E164FEF786FBFEF7BEFF08B1FFF7CB
:10376000A5FE6389214A1BB940F2F313538101E09E
:10377000013B538160891D4B08B1002038BD1A8977
:10378000143501321A8143F82500C3F8900038BD82
:103790002368E16C1A686068FEF764FBFEF79CFF23
:1037A00008B1FFF783FE23681435B3F9122054F8EB
:1037B000253061891344D4F890200C48013244F834
:1037C0002530C4F8902019B940F2CF71418101E051
:1037D00001394181608905490028CED1B3FBF2F35C
:1037E0000C8941F8253001340C8138BDEC110020E2
:1037F00038B51C481C4C1D4D234600220A21006888
:10380000FEF752FF2868234600220821B0F9040081
:10381000FEF732FF2868234600220821B0F9120083
:10382000FEF72AFF2868234600220821B0F9140079
:10383000FEF722FF0022234610460821FEF71CFF58
:103840000022234610460821FEF716FF00222346D9
:1038500010460821FEF710FFBDE838400448FDF788
:103860007DBA00BF14150020F05F0008E4000020BE
:103870002D5F000870B5154D2C892E46012C12D0F5
:1038800008D3022C1FD10120FDF7B6FE0124FDF75D
:103890006DFE19E00020FDF7AFFEFDF767FE2B89F6
:1038A00001332B8110E0FEF717FF08B1FFF7A0FFEF
:1038B000FDF768FA044638B1FDF772FA338900243F
:1038C0000133338100E00124204670BDE400002074
:1038D00001380A281DD8DFE800F0061C091C0C1C62
:1038E0000F1C121C15000B4A02230DE0094A042389
:1038F0000AE0084A062307E0064A082304E0054ACE
:103900000A2301E0034A0C23138001235380024A57
:1039100093807047541100201415002008B5534BB4
:103920001B88023B0A2B00F29780DFE803F0069524
:103930001A952D9544955E9574004D4B9B88012BEF
:1039400004D1FEF7FBFFFEF7D9FE85E040F284804C
:10395000FFF752F800287FD0FFF7DCF8FEF718FFDA
:103960007AE0434B9B88012B04D1FFF72DF9FEF73A
:10397000C5FE71E070D9FFF73BF900286CD0FFF766
:1039800077F9FEF705FF67E0394B9B88012B08D1DB
:1039900040F28D614FF48030FFF784F9FEF7AEFE00
:1039A0005AE059D9FFF7F0F9002855D0FFF7AEFAE1
:1039B000FEF7EEFE50E02E4B9B88012B0BD12D4BDA
:1039C0004FF4C8121A6000229A605A60FFF71AFB7F
:1039D000FEF794FE40E03FD9FFF712FC00283BD0F1
:1039E000FFF77EFBFFF7A6FB26E0214B9B88012B10
:1039F00004D1FFF735FDFEF781FE2DE02CD9FFF74E
:103A00008FFE48B3FFF796FDFEF7C2FE1A4A1B4B26
:103A100051681B6816E0164B9A88012A08D1C82104
:103A20001A81D980164B00221A81FEF767FE13E037
:103A300012D9FFF71FFF78B1FEF7AAFE0F4B0E4A0F
:103A4000196853680B44B2F900104FF48040594391
:103A5000FEF770F8FDF798FCFDF794F928B1FDF733
:103A60009FF9BDE80840FEF793BE08BD5411002041
:103A700014150020840000208012002088120020ED
:103A8000E40000202DE9F74FDFF8C091CA46FEF7A9
:103A900015FA5848FDF762F9574B1B88052B07D0DC
:103AA000062B09D0042B0AD15448FDF757F906E03C
:103AB0005348FDF753F902E05248FDF74FF9524FD2
:103AC0005248FDF74BF9FDF7F5FD3846FDF7ECFFE1
:103AD0004F4EFDF7BFFD01204E4CFDF78DFD002040
:103AE000FDF79CFDB3880025D6F8061020462380FC
:103AF0006560FEF709F83846FDF7EDFF3968636841
:103B0000DFF84C810B44B4F900104FF48030594376
:103B1000FEF710F8FDF738FCFDF728FD3968404640
:103B2000FEF7B4FEFEF7FAFDFEF722FE3A4B4FF425
:103B30007A701F605C60394B1F605C60384B1F609F
:103B40005C60384B1F605C60C3F80880364BA84649
:103B50001F605C60354B1F605C60FDF710F86168AA
:103B60003B684FF480400B44B4F90010304F594388
:103B7000FDF7E0FFFDF708FC4FF6FF732A46022130
:103B80002C483B80FCF771FD01972B4A13889BB2B0
:103B9000002BFBD0284B294F002208F101081A48BE
:103BA0001A80C7F80080FDF796FFB9F802B0BBF1A4
:103BB000000F06D0FFF7B2FE002D40F02181C7258F
:103BC000E3E7FDF7DFF80028F4D0FEF7AFFDFEF7DE
:103BD000BFFD0028E9D01A48FEF7EAFD002839D0D9
:103BE000184B0122A3F800B0174B1A8003B0BDE8B0
:103BF000F08F00BFF45F000882000020086000081A
:103C00000E60000813600008881200202D5F000875
:103C1000D412002080120020A4120020A81100203D
:103C2000F800002040000020EC110020E4000020FB
:103C3000280000200008014030000020141500205A
:103C400017600008F4000020021300205411002027
:103C5000840000207448FEF7ABFD00287FF417AF06
:103C60007248FEF7A5FD20B10123FB803B81FEF7E2
:103C70007FFD6F48FEF79CFD28B10223FB800123E6
:103C80003B81FEF775FD6B48FEF792FD28B10323DB
:103C9000FB8001233B81FEF76BFD6748FEF788FD43
:103CA00028B10423FB8001233B81FEF761FD6348BB
:103CB000FEF77EFD50B112216148FDF79FF9B388F0
:103CC0002380D6F806306360FEF752FD5D48FEF7AC
:103CD0006FFD50B123881221B38063685848C6F83D
:103CE0000630FDF7A3F9FEF743FD5748FEF760FDE8
:103CF00018B1FEF78DFDFEF73BFD5448FEF758FD69
:103D000018B1FEF72FFAFEF733FD5148FEF750FDCC
:103D100018B104237380FEF72BFD4E48FEF748FDD3
:103D200018B105237380FEF723FD4B48FEF740FDD5
:103D300018B106237380FEF71BFD4848FEF738FDD7
:103D400018B100237380FEF713FD4548FEF730FDE0
:103D500030B10223AAF800300123AAF80230BB8058
:103D60004048FEF725FD10B10320FFF7B1FD3E48A6
:103D7000FEF71EFD10B10520FFF7AAFD3B48FEF738
:103D800017FD10B10B20FFF7A3FD3948FEF710FD1A
:103D900028B1FEF76DFFFFF7B9F8FEF7E9FC3548EB
:103DA000FEF706FD18B100232380FEF7E1FC324840
:103DB000FEF7FEFC18B100236360FEF7D9FC2F4824
:103DC000FEF7F6FC10B10720FFF782FD2C48FEF746
:103DD000EFFC18B1FFF784F9FEF7CAFC2948FEF79B
:103DE000E7FC10B10920FFF773FD2748FEF7E0FC60
:103DF00000283FF4DAAEFFF79DFBFEF7B9FCD4E6EE
:103E0000013DADB2002D7FF4C0AE019BB3F900308F
:103E1000002BBFF6BAAE1D4AD368DB4303F00203A2
:103E200043F400331361B0E61A6000082260000812
:103E30002A600008326000083A600008426000080A
:103E4000D41200204B600008516000085A6000083E
:103E5000636000086E6000087860000881600008F8
:103E6000876000089D600008A36000088E6000085D
:103E7000946000089B600008A1600008A86000082A
:103E8000AB600008B1600008B460000800080140A1
:103E900043B270B5002B824CBCBF00222280228826
:103EA000052A00F2FB80DFE812F0060054007100E2
:103EB0008700A500C400D0282DD0902832D0002B38
:103EC00080F2EC8000F00F03032B00F070000FD1A4
:103ED0007449C2B2FF25402A0A704B708D7002D01F
:103EE000502A05D117E0012323800B23A3802AE069
:103EF0006D4A1588AB421CD16A49C2B2FF26102A0E
:103F00000A704B708E700DD040F2B580302A00F0F0
:103F1000BB80502A0DD1654B00221A80644B0122D0
:103F20001A8070BD614B00221A80614B04221A80F6
:103F300070BD702840F0B2805A4A9D42537040F0E4
:103F4000AA80042323800023E3805A4B9B8C638048
:103F500070BDE388584AD0540133A0889BB2834295
:103F6000E380C0F08480002319465D1CDBB28342ED
:103F700003D2D35C59402B46F7E74C4A4C48002308
:103F8000032513800580002932D02FE0454B98701F
:103F900078B104284FF0000301D9752809D1434AAC
:103FA00023801380424A0221424B11809B8C638004
:103FB00070BD0023238070BDE3883F4AD054013395
:103FC000A0889BB28342E38051D3002319465D1C35
:103FD000DBB2834203D2D35C59402B46F7E7334A26
:103FE0003348002302251380058009B10121118087
:103FF00023803CE0E388042B37D8DFE803F0030D8F
:1040000010131600512802D1052222802DE04628E7
:104010002BD00022228028E04C28FAD125E041282C
:10402000F7D122E05328F4D11FE04828F1D1FDF761
:10403000DBFFE388042B17D8DFE803F003080B0E3F
:104040001100512810D0002323800DE04D28FAD113
:104050000AE04F28F7D107E04428F4D104E04528CE
:10406000F1D1FFF70FFDEEE7E3880133E380114B59
:104070009B8C638070BD002A7FF45BAF022323809A
:104080000C4B9B8C638070BD084B00221A80084B40
:1040900005221A8070BD002B3FF453AF70BD00BFE6
:1040A000E41100200413002082000020F40000200E
:1040B00002130020002C0140A40000202DE9F84F3D
:1040C0000024FDF767FFA94BDFF8A092B3F9003099
:1040D000002B04DA00220221A548FCF7C6FAA54B02
:1040E000A54E1C80A54FA64BA64DDFF8A8B21C809C
:1040F0003C802C80ABF8004074803480B480FEF7A4
:104100002DF9FDF7B7FF4FF400433B804FF6FF73E7
:10411000002202219648A9F80030FCF7A6FAB9F966
:104120000030AA46002BD84604DA0122022190482A
:10413000FCF79BFAFCF726FE18B1FCF731FEFFF7FF
:10414000A7FEFDF785FFB8F800309BB2013B062BB8
:104150002DD8DFE803F004070C11161F2600ABF87A
:104160000040AEE7FEF784F9A8F800401FE0FEF734
:1041700095F9A8F800401AE0FEF74AFAA8F80040BE
:1041800015E0FDF79BFEAAF80040FEF74DFAA8F8EF
:1041900000000CE0AAF80040FEF746FAA8F800007C
:1041A00005E0FEF75FFAFDF7A1FEA8F80040FEF774
:1041B00023F9754B1B889BB2002BBBD0724B1C8024
:1041C000FDF726F8B9F90000002877DD6F4DB0F54E
:1041D000FA7F2B8803F101039BB22B8062D16C4ADA
:1041E00011880C295ED8012202FA01F111F4825FD4
:1041F0002CD111F0240F14D111F0120F52D0B3F5BD
:10420000FA7F03D102215A48FCF72FFA2B88B3F525
:104210007A7F53D30022022155482C80FCF725FADF
:104220004CE0B3F5FA7F03D102215148FCF71DFAA7
:104230002B88B3F52F7F04D1002202214C48FCF7D4
:1042400014FA2B88B3F5487FE0D125E0B3F5FA7F67
:1042500003D102214648FCF708FA2B88B3F5167FF4
:1042600004D1002202214248FCF7FFF92B88B3F564
:104270002F7F04D1012202213D48FCF7F6F92B885B
:10428000B3F5487F04D1002202213948FCF7EDF94B
:104290002B88B3F5617FB9D1012202213448FCF7A4
:1042A000E4F9B3E7834209DB314B314ADB682C8008
:1042B000DB4303F0020343F4003313613B882F49CF
:1042C00023F4FE4292B2B2F5004F16D007D8012A6D
:1042D00028D018D3032A2FD0142A3DD02AE748F239
:1042E0000200824221D016D348F203039A4223D01F
:1042F00048F214039A422FD01CE7C3F30E030B803D
:104300003223A9F80030FEF797F86FEA40406FEAD1
:10431000504038800EE7C3F30E030B804FF4FA735E
:10432000A9F80030FEF796F804E7C3F30E030B80FC
:104330006423A9F80030FDE6B388328801339BB2CC
:104340009A42B380BFF4F6AE0B4B5B886FEA4343EF
:104350006FEA53433B80EDE64FF4967333800123BD
:10436000738048F20303B4803B80E3E6280000201A
:104370000008014020150020380000207E000020A9
:1043800080000020F4000020300000207C0000208D
:10439000820000200213002003880A8810B503F46D
:1043A00041544B8813438A881343CA8813430A89AC
:1043B00013434A8913438A891343CA891343234306
:1043C0009BB20380838B23F400631B041B0C838349
:1043D0000B8A038210BD038819B19BB243F04003DE
:1043E00003E023F040031B041B0C03807047818112
:1043F0007047808980B27047038819B19BB243F43B
:10440000005303E023F400531B041B0C038070478C
:104410000389194214BF01200020704720F000409A
:10442000704700BF00B51D4A20F00043934283B09F
:1044300019DDB3F1FF4F05DB014600F0D9FE03B0F3
:104440005DF804FB694600F02BF800F0030001283A
:1044500018D002280ED0D0B10199009800F092F93E
:1044600000F10040EBE70022002100F0A3FD03B0C3
:104470005DF804FB01220199009800F09BFD00F11A
:104480000040DCE70199009800F07CF9D7E70122B1
:104490000199009800F08EFDD1E700BFD80F493F89
:1044A0002DE9F04FAA4A20F00044944289B067DD1C
:1044B000A84A0D469442074601461CDC0028A6493E
:1044C00040F3EA8000F094FEA44B24F00F049C42D9
:1044D000064663D0A24900F08BFE014630462960B3
:1044E00000F086FE9E4900F083FE012368601846B6
:1044F00009B0BDE8F08F9B4A944261DDB4F1FF4FF3
:1045000046DAE615863EA4EBC654204601F040F993
:1045100000F024FF034620461946059300F068FE8C
:104520004FF0874100F06EFF804601F031F900F056
:1045300015FF044640462146069400F059FE4FF010
:10454000874100F05FFF0021079001F0EFF800289D
:1045500000F0C3802046002101F0E8F8002814BFD5
:10456000012302238048022101900091324629460E
:1045700005A800F0CBF9002FC0F2A580034603E0A8
:10458000002208604A600023184609B0BDE8F08F99
:1045900000F02EFE002368602860F5E7734900F004
:1045A00027FE7349044600F023FE01462046296099
:1045B00000F01EFE6E4900F01BFE01236860E3E779
:1045C000FFF72CFF6B49804600F01CFF4FF07C5139
:1045D00000F010FE01F0DCF8064600F0BFFE5E4978
:1045E000834600F00FFF0146404600F001FE5C49A3
:1045F0008146584600F006FF1F2E82460146484677
:1046000018DC5D4B721E53F8223024F0FF029A42F0
:1046100010D000F0EDFD8046C5F8008041464846C8
:1046200000F0E6FD514600F0E3FD002F686056DB28
:104630003346A9E700F0DCFDE215C0F3C753D31AF7
:10464000082B8046E8DD49495846039200F0DAFE1F
:1046500080460146484600F0CBFD014604464846E8
:1046600000F0C6FD414600F0C3FD80464049584673
:1046700000F0C8FE414600F0BBFD014682462046E0
:1046800000F0B6FD039AC0F3C753D21A192A804628
:1046900041DC2860A146C1E700F0ACFD2F4B24F0BF
:1046A0000F049C42064623D02D4900F0A3FD01468D
:1046B0003046296000F09CFD294900F09BFD4FF039
:1046C000FF33686060E795E80C0002F1004103F1F8
:1046D0000042296043426A6056E7032342E708F13B
:1046E000004800F10040C5F80080686073424BE765
:1046F0001E4900F07FFD1E49044600F07BFD014687
:104700002046296000F074FD194900F073FD4FF058
:10471000FF33686038E71949584600F073FE0146D8
:104720008046204600F064FD01468146204600F0A8
:104730005FFD414600F05CFD04461149584600F01B
:1047400061FE214600F054FD82460146484660E77E
:10475000D80F493FE3CB1640800FC93FD00FC93F68
:1047600043443537800F49434061000800443537E2
:1047700008A3852E84F9223FC060000800A3852E7F
:1047800032318D242DE9F84320F00044B4F1485F24
:1047900006460F4649DA00F0FBFF002800F09D8036
:1047A0003146304600F02EFE05464E4900F02AFE06
:1047B0004D4900F01FFD294600F024FE4B4900F052
:1047C00017FD294600F01EFE494900F013FD294659
:1047D00000F018FE474900F00BFD294600F012FEDC
:1047E000454900F007FD294600F00CFE80464FF0D9
:1047F0007C51284600F006FE41460446284600F05B
:1048000001FE39460546304600F0FCFD01462846CB
:1048100000F0EEFC0146204600F0EAFC01464FF0B5
:104820007E5000F0E5FCBDE8F883014600F0EAFDAB
:1048300005462C4900F0E6FD2B4900F0DBFC29463B
:1048400000F0E0FD294900F0D3FC294600F0DAFD34
:10485000274900F0CFFC294600F0D4FD254900F09F
:10486000C7FC294600F0CEFD234900F0C3FC2946D1
:1048700000F0C8FD214B80469C42B8DD204B9C4295
:1048800027DC04F17F4421464FF07E5000F0B0FC5D
:1048900081464FF07C51284600F0B4FD214600F0DF
:1048A000A7FC41460446284600F0ACFD39460546C3
:1048B000304600F0A7FD0146284600F099FC01466D
:1048C000204600F095FC0146484600F091FCBDE80A
:1048D000F883DFF834900B4CDBE74FF07E50BDE8F7
:1048E000F88300BF4ED747ADF6740F317CF2933496
:1048F000010DD037610BB63AABAA2A3D9999993E82
:104900000000483F0000903E0000383F2DE9F04F86
:104910001C46DFB00891611E01910A936899BD4B56
:10492000029053F821300793D31E48BF131DDB10AC
:1049300023EAE37319460B930133A2EBC3030693F7
:10494000019A079B8D1A9C1815D42C44013421AE72
:10495000699F08E057F8250000F000FD0135A542E9
:1049600046F8040F07D0002DF4DA01350020A542E7
:1049700046F8040FF7D1079B002B2DDB079B0A9A03
:104980001946019B01EB0208C2EB827B22AA02EBD3
:10499000830602EB88084FEA8B0B49AF019B002B83
:1049A000C0F29D813446029B06EB0B05A3F1040A7D
:1049B0004FF000095AF8041F54F8040900F022FDD2
:1049C0000146484600F016FCAC428146F2D104365E
:1049D000464547F8049FE1D1079B0EA91E4603F107
:1049E0008043023B9B001A1D0A440B440D920C931A
:1049F0005EAB03EB8603002E53F8508C23DD5EABD9
:104A000003EB8604543C0DAD49AF4FF06E51404668
:104A100000F0F8FC00F0BCFE00F0A0FC4FF0874175
:104A2000814600F0EFFC0146404600F0E1FB00F05B
:104A3000AFFE54F8041945F8040F484600F0DAFBBD
:104A4000BC428046E1D14046DDF81880414600F086
:104A50006DFB4FF07851044600F0D4FC00F020FBD1
:104A60004FF0824100F0CEFC0146204600F0C0FB32
:104A7000044600F08DFE074600F070FC014620461B
:104A8000444600F0B5FB002C054640F30F81701E34
:104A90000EAB53F82030C8F1080243FA02F101FAD4
:104AA00002F29B1AC8F1070A0EAA42F820300F44FE
:104AB00043FA0AFABAF1000F30DD002E07F10107C0
:104AC00040F34E82002214460DA907E0C3F5807022
:104AD0000BB108600124013296420BDD51F8043F0E
:104AE000002CF3D00132C3F1FF0396420B604FF06C
:104AF0000104F3DC069B002B0DDD012B00F0DE80B2
:104B0000022B08D1721E0EAB53F822300EA903F00F
:104B10003F0341F82230BAF1020F7DD00021284630
:104B200000F004FE002800F09180079B741EA34251
:104B300010DC06F180430EAA013B0D9802EB8303C3
:104B4000002253F80419834242EA0102F9D1002AF3
:104B500040F0DF80079B0EAA013B52F82330002B68
:104B600040F0FC810C9B012753F804290137002AEF
:104B7000FAD0F219731C9342099240DC0B9AB900E7
:104B800003EB02080A9A08F18048039169991644D8
:104B900008F1FF38B20001EB880822A99B000492BB
:104BA00001EB020A4AAA02EB0309043B0593002623
:104BB00058F8040F00F0D2FB019B4AF8040B002BBD
:104BC0001FDB049B0027F418059BF51822AB1C443F
:104BD0001D44029BA3F1040B5BF8041F54F8040965
:104BE00000F010FC0146384600F004FBAC420746DA
:104BF000F2D1039B04369E4249F8047BD8D1099E2A
:104C0000F6E6039B043600279E4249F8047BCFD189
:104C1000F5E700BF5864000829464FF07E5000F0C9
:104C2000E7FA0546002C3FF479AF06994FF07E5025
:104C300000F07CFA0146284600F0DAFA0546002129
:104C4000284600F073FD00287FF46FAF0297069F9F
:104C50002846794200F06AFA4FF08741044600F096
:104C600083FD002800F081814FF06E51204600F056
:104C7000C9FB00F08DFD00F071FB4FF08741054648
:104C800000F0C0FB0146204600F0B2FA00F080FDC3
:104C90000EAB43F82600284600F07AFD3B46083369
:104CA000741C06930EAB43F8240047E010D1731E2A
:104CB0000EAA52F823304FEA232AFBE6721E0EABEF
:104CC00053F822300EA903F07F0341F8223022E787
:104CD0004FF07C5100F048FD50B982461EE7043683
:104CE0004FF00009464547F8049F7FF457AE73E63E
:104CF000002E07F10107C8BF4FF0020A3FF7E2AEEE
:104D000029464FF07E5000F073FA4FF0020A054634
:104D100004E7069A0EAB53F82430083A029706923D
:104D200063B904F18043013B0EA901EB830353F8FF
:104D30000419013C083A0029F9D0069206994FF06F
:104D40007E5000F0F3F9002C0546C0F21881A30054
:104D50004AAA1F1D02EB030901930EAB1F4409F180
:104D6000040657F8040D00F0F9FA294600F04AFB52
:104D70004FF06E5146F8040D284600F043FB0EAB91
:104D80009F420546EDD1A346DDF81C80A9F1040938
:104D90000027CDF80CA0B8F1000FB8BF002615DB36
:104DA000824CCA4682480026002503E0AF420DDB54
:104DB00054F8040F5AF8041F00F024FB0146304653
:104DC00000F018FA0135A8450646EFDA5EAB03EBB2
:104DD0008703A9F1040943F8A06C48AB994507F192
:104DE0000107D8D1689B5C46DDF80CA0032B5AD88C
:104DF000DFE803F08D5F5F02002C40F3BE80019A74
:104E00005EA98B1836AE53F8A07CB51855F8049CF3
:104E10003946484600F0EEF980460146484600F023
:104E2000E7F9394600F0E6F9286045F8048DAE420E
:104E30004746EBD1012C40F3A080019B5EAAF418F9
:104E4000254602EB030858F8A06C0DF1DC0955F873
:104E5000048C3046414600F0CDF9074601464046F5
:104E600000F0C6F9314600F0C5F9286045F8047D28
:104E7000A9453E46EBD10020043438AD54F8041D5A
:104E800000F0B8F9A542F9D1BAF1000F6AD0369A0C
:104E9000379B00F1004002F1004203F10043089CFF
:104EA000A06022606360029B03F007005FB0BDE872
:104EB000F08F019D36AE04353544002055F8041DB1
:104EC00000F098F9B542F9D1BAF1000F39D0089A3B
:104ED00000F1004301461360369800F089F9002C78
:104EE0000BDD36AE0125013556F8041F00F082F9BE
:104EF000AC42F8DABAF1000F50D0089A00F1004342
:104F00005360029B03F007005FB0BDE8F08F019B88
:104F10005EAA13440020A3F19C05013C55F8041D32
:104F200000F068F9631CF8D1BAF1000F01D000F16C
:104F30000040089B1860029B03F007005FB0BDE8CB
:104F4000F08F089B01461860369800F051F9002C4C
:104F5000D8BF0346C5DC089A5360D2E7012708E6AC
:104F60000024C7E5369A379B99E7204600F010FCED
:104F70000EAB344643F82600E0E6002084E7689B49
:104F8000032B90D801A252F823F000BFA94F0008CC
:104F9000A54F0008A54F00087B4F00080346089A5C
:104FA0005360AEE700208FE70020BDE7646400088F
:104FB0000000C93F2DE9F84320F00043B3F1485FFA
:104FC00004460F46904603DA00F0E2FB002858D072
:104FD0002146204600F016FA05460146204600F01C
:104FE00011FA29490646284600F00CFA274900F034
:104FF000FFF8294600F006FA254900F0FBF829469B
:1050000000F000FA234900F0F3F8294600F0FAF91D
:10501000214900F0EFF88146B8F1000F22D04FF09F
:105020007C51384600F0EEF949468046304600F0A3
:10503000E9F90146404600F0DBF8294600F0E2F9C4
:10504000394600F0D5F815490546304600F0DAF942
:105050000146284600F0CEF80146204600F0C8F888
:10506000BDE8F8830146284600F0CCF90B4900F072
:10507000BFF8314600F0C6F9214600F0BBF8BDE8A4
:10508000F8832046BDE8F883D3C92E2F342FD732BA
:105090001BEF3836010D50398988083CABAA2A3EEF
:1050A0002DE9F04120F00047FC0D7F3C162C054611
:1050B00013DC002C80461BDB194F2741384214D0EB
:1050C000184900F097F8002100F058FB68B1002D56
:1050D0001BDB28EA0700BDE8F081B7F1FF4F04D3DE
:1050E000014600F087F8BDE8F0812846BDE8F08170
:1050F0000C4900F07FF8002100F040FB0028F4D0BC
:10510000002D08DB0020BDE8F0814FF4000343FAD6
:1051100004F4A044DDE7002FE7D00348BDE8F081A8
:10512000FFFF7F00CAF24971000080BF30F00042EB
:1051300038B5034616D0B2F1FF4F0FD2B2F5000FCB
:105140000D4610D30446D20D2A44FE2A2EDC002A36
:105150001DDD24F0FF4444EAC25038BD014600F092
:1051600049F838BD38BD4FF0984100F04BF9184A66
:105170000346954207DBC0F3C7520446193AE3E7FA
:10518000144800F02BF8134900F03CF938BD12F137
:10519000160F13DA4CF2503295421946F0DD0E48E4
:1051A00000F01CF80C4900F02DF938BD19460A48EA
:1051B00000F014F8084900F025F938BD193224F040
:1051C000FF4040EAC2504FF04C5100F01BF938BD8F
:1051D000B03CFFFF6042A20DCAF2497101F00041EC
:1051E00020F000400843704780F0004002E000BF1C
:1051F00081F0004142001FBF5FEA410392EA030FC2
:105200007FEA226C7FEA236C6AD04FEA1262D2EB0B
:105210001363C1BFD218414048404140B8BF5B4210
:10522000192B88BF704710F0004F40F4000020F0A9
:105230007F4018BF404211F0004F41F4000121F0BF
:105240007F4118BF494292EA030F3FD0A2F1010209
:1052500041FA03FC10EB0C00C3F1200301FA03F147
:1052600000F0004302D5494260EB4000B0F5000F6A
:1052700013D3B0F1807F06D340084FEA310102F129
:105280000102FE2A51D2B1F1004F40EBC25008BFDB
:1052900020F0010040EA03007047490040EB0000A5
:1052A00010F4000FA2F10102EDD1B0FA80FCACF1D4
:1052B000080CB2EB0C0200FA0CF0AABF00EBC250D3
:1052C00052421843BCBFD0401843704792F0000FC1
:1052D00081F4000106BF80F400000132013BB5E714
:1052E0004FEA41037FEA226C18BF7FEA236C21D08A
:1052F00092EA030F04D092F0000F08BF08467047EF
:1053000090EA010F1CBF0020704712F07F4F04D1BC
:10531000400028BF40F00040704712F100723CBFCF
:1053200000F50000704700F0004343F0FE4040F4F9
:10533000000070477FEA226216BF08467FEA2363B7
:105340000146420206BF5FEA412390EA010F40F4A2
:10535000800070474FF0000304E000BF10F00043EE
:1053600048BF40425FEA000C08BF704743F09643D5
:1053700001464FF000001CE050EA010208BF7047F0
:105380004FF000030AE000BF50EA010208BF704777
:1053900011F0004302D5404261EB41015FEA010C8C
:1053A00002BF84460146002043F0B64308BFA3F184
:1053B0008053A3F50003BCFA8CF2083AA3EBC25366
:1053C00010DB01FA02FC634400FA02FCC2F1200285
:1053D000BCF1004F20FA02F243EB020008BF20F0BC
:1053E0000100704702F1200201FA02FCC2F1200222
:1053F00050EA4C0021FA02F243EB020008BF20EA17
:10540000DC7070474FF0FF0C1CEAD0521EBF1CEA44
:10541000D15392EA0C0F93EA0C0F6FD01A4480EA32
:10542000010C400218BF5FEA41211ED04FF000631B
:1054300043EA501043EA5111A0FB01310CF0004047
:10544000B1F5000F3EBF490041EAD3715B0040EA6D
:10545000010062F17F02FD2A1DD8B3F1004F40EB3D
:10546000C25008BF20F00100704790F0000F0CF010
:10547000004C08BF49024CEA502040EA51207F3AD4
:10548000C2BFD2F1FF0340EAC250704740F40000AF
:105490004FF00003013A5DDC12F1190FDCBF00F0A0
:1054A00000407047C2F10002410021FA02F1C2F14E
:1054B000200200FA02FC5FEA310040F1000053EAEA
:1054C0004C0308BF20EADC70704792F0000F00F038
:1054D000004C02BF400010F4000F013AF9D040EA3E
:1054E0000C0093F0000F01F0004C02BF490011F4D2
:1054F000000F013BF9D041EA0C018FE70CEAD153D0
:1055000092EA0C0F18BF93EA0C0F0AD030F0004C4F
:1055100018BF31F0004CD8D180EA010000F0004003
:10552000704790F0000F17BF90F0004F084691F0C1
:10553000000F91F0004F14D092EA0C0F01D14202FB
:105540000FD193EA0C0F03D14B0218BF084608D1C4
:1055500080EA010000F0004040F0FE4040F400000E
:10556000704740F0FE4040F4400070474FF0FF0CA1
:105570001CEAD0521EBF1CEAD15392EA0C0F93EAE8
:105580000C0F69D0A2EB030280EA010C49024FEA3A
:10559000402037D04FF0805343EA111143EA1013F3
:1055A0000CF000408B4238BF5B0042F17D024FF4AB
:1055B000000C8B4224BF5B1A40EA0C00B3EB510F86
:1055C00024BFA3EB510340EA5C00B3EB910F24BF6F
:1055D000A3EB910340EA9C00B3EBD10F24BFA3EBF4
:1055E000D10340EADC001B0118BF5FEA1C1CE0D1BC
:1055F000FD2A3FF650AF8B4240EBC25008BF20F06F
:10560000010070470CF0004C4CEA50207F32C2BFC2
:10561000D2F1FF0340EAC250704740F400004FF05F
:105620000003013A37E792F0000F00F0004C02BF90
:10563000400010F4000F013AF9D040EA0C0093F05A
:10564000000F01F0004C02BF490011F4000F013BB4
:10565000F9D041EA0C0195E70CEAD15392EA0C0F1C
:1056600008D142027FF47DAF93EA0C0F7FF470AF54
:10567000084676E793EA0C0F04D14B023FF44CAF97
:1056800008466EE730F0004C18BF31F0004CCAD12C
:1056900030F000427FF45CAF31F000437FF43CAF68
:1056A0005FE700BF4FF0FF3C06E000BF4FF0010C8A
:1056B00002E000BF4FF0010C4DF804CD4FEA40026C
:1056C0004FEA41037FEA226C18BF7FEA236C11D0B6
:1056D00001B052EA530C18BF90EA010F58BFB2EB69
:1056E000030088BFC81738BF6FEAE17018BF40F0E9
:1056F000010070477FEA226C02D15FEA402C05D19D
:105700007FEA236CE4D15FEA412CE1D05DF8040B21
:10571000704700BF844608466146FFE70FB5FFF7B4
:10572000C9FF002848BF10F1000F0FBD4DF808ED6C
:10573000FFF7F4FF0CBF012000205DF808FB00BF5D
:105740004DF808EDFFF7EAFF34BF012000205DF8B7
:1057500008FB00BF4DF808EDFFF7E0FF94BF012004
:1057600000205DF808FB00BF4DF808EDFFF7D2FF01
:1057700094BF012000205DF808FB00BF4DF808ED44
:10578000FFF7C8FF34BF012000205DF808FB00BF11
:105790004FEA4002B2F1FE4F0FD34FF09E03B3EB3E
:1057A00012620DD94FEA002343F0004310F0004F7E
:1057B00023FA02F018BF404270474FF000007047D4
:1057C00012F1610F01D1420205D110F0004008BF73
:1057D0006FF0004070474FF0000070477BB972B91E
:1057E0000029BEBF00204FF0004106E008BF00289E
:1057F0001CBF6FF000414FF0FF3000F0B5B9ADF1C4
:10580000080C6DE904CE002909DB002B1ADB00F03F
:1058100035F8DDF804E0DDE9022304B070474042CA
:1058200061EB4101002B1BDB00F028F8DDF804E000
:10583000DDE9022304B0404261EB4101524263EBD7
:1058400043037047524263EB430300F017F8DDF85F
:1058500004E0DDE9022304B0404261EB41017047FE
:10586000524263EB430300F009F8DDF804E0DDE9A0
:10587000022304B0524263EB430370472DE9F04F1B
:105880008C460C460546099E002B4FD18A4217468E
:105890006BD9B2FA82FEBEF1000F0BD0CEF120051B
:1058A00020FA05F501FA0EF345EA030C02FA0EF7A9
:1058B00000FA0EF5390CBCFBF1F0BAB201FB10C3D3
:1058C00000FB02F84FEA154C4CEA0344A04509D905
:1058D000E41900F1FF3380F02881A04540F22581D2
:1058E00002383C44C8EB0404B4FBF1F301FB134C55
:1058F00003FB02F2ACB244EA0C418A4209D9C9194D
:1059000003F1FF3480F00F818A4240F20C81023BA8
:1059100039448A1A43EA00400021002E63D022FA5B
:105920000EF2002386E80C00BDE8F08F8B4207D909
:10593000002E56D0002186E811000846BDE8F08F01
:10594000B3FA83F1002940F09380A34202D382424C
:1059500000F2FE80851A64EB03039C460120002EB2
:1059600041D086E82010BDE8F08F12B90127B7FBBF
:10597000F2F7B7FA87FEBEF1000F36D1E41B4FEA0B
:1059800017481FFA87F90121B4FBF8F308FB134409
:1059900009FB03F24FEA154C4CEA0444A24207D932
:1059A000E41903F1FF3002D2A24200F2D380034691
:1059B000A41AB4FBF8F008FB104809FB00F9ACB2DC
:1059C00044EA0842914507D9D21900F1FF3402D2C6
:1059D000914500F2BA802046C9EB020240EA03403A
:1059E0009BE731463046BDE8F08F07FA0EF7CEF15F
:1059F000200C24FA0CF34FEA1748B3FBF8FA1FFA0D
:105A000087F908FB1A3520FA0CFC04FA0EF40AFB9D
:105A100009FB4CEA040C4FEA1C4242EA05439B4551
:105A200000FA0EF50AD9DB190AF1FF3280F08B80FB
:105A30009B4540F28880AAF1020A3B44CBEB03036A
:105A4000B3FBF8F008FB103300FB09F41FFA8CFCE1
:105A50004CEA03439C4207D9DB1900F1FF326ED2B6
:105A60009C426CD902383B441C1B40EA0A418BE73C
:105A7000C1F1200E8B4022FA0EFC4CEA030C24FAF2
:105A80000EF74FEA1C49B7FBF9FA1FFA8CF309FB32
:105A90001A7720FA0EF88C400AFB03F548EA040452
:105AA0004FEA144848EA0747BD4202FA01F200FAF9
:105AB00001FB09D917EB0C070AF1FF3041D2BD42B7
:105AC0003FD9AAF1020A67447F1BB7FBF9F509FB2E
:105AD000157705FB03F3A4B244EA0747BB4208D994
