:020000040800F2
:1000000058350020F1F40008EDF40008EDF4000884
:10001000EDF40008EDF40008EDF400080000000025
:10002000000000000000000000000000EDF40008E7
:10003000EDF4000800000000EDF40008910800084D
:10004000EDF40008EDF40008EDF40008EDF400080C
:10005000EDF40008EDF40008EDF40008EDF40008FC
:10006000EDF40008EDF40008EDF40008EDF40008EC
:10007000EDF40008EDF4000819E2000825E200089C
:10008000E5E10008F1E10008EDF40008EDF40008F6
:10009000ED080008EDF40008EDF40008EDF40008A8
:1000A000EDF40008EDF40008EDF400084D1100082F
:1000B000EDF40008EDF40008EDF40008C9E10008D3
:1000C000D5E10008FDE1000809E20008EDF40008B0
:1000D000EDF40008D5210008EDF40008355C0008B7
:1000E000EDF40008EDF40008EDF40008EDF400086C
:1000F000EDF40008EDF40008BD120008EDF400086E
:10010000EDF40008EDF40008ED500008EDF40008EF
:100110000D090008EDF40008EDF40008EDF4000806
:10012000EDF40008EDF40008EDF40008EDF400082B
:100130005FF808F10449054BCA6802F4E062134312
:10014000CB60BFF34F8FFEE700ED00E00400FA053F
:1001500080FB0023F0B5940F0F4E44EA830484FB28
:100160000667B30F0D4E43EA87031E4486FB046700
:100170000B4BB20F42EA8702134483FB0445094B41
:10018000A20F42EA8502134483FB0023900F40EA4A
:10019000830000F18050F0BD00D1249B80812A5F54
:1001A000807EAACBC01BB62810B5104911F0C8FF3D
:1001B0000F49044612F0CCF820B120460D4911F049
:1001C00001FEF5E720460C4912F0A4F828B12046BC
:1001D000084911F0F9FD0446F4E74FF09741204635
:1001E00011F0FAFE12F0BEF810BD00BF0000B443DB
:1001F0000000F0420000C8420000F0C20B885840E6
:1002000080EA0010C0B21B0A83EA101343EA0023FD
:1002100083EAC0030B8070470A1E38B521DD002831
:100220004FEA60034FEA62010DDB591ACD17AB07A5
:100230000244880743EA9101D31712F0D9F8BDE8C8
:100240003840FFF785BF1944CD17821AAB078807DE
:1002500043EA9101D31712F0CBF8FFF779FF404240
:1002600038BD23D000284FEA60014FEA62030EDB5D
:100270001944CD17821AAB07880743EA9101D317B7
:1002800012F0B6F8FFF764FFC0F1804038BDC91A1C
:10029000CD170244AB07880743EA9101D31712F048
:1002A000A7F8FFF755FF00F1404038BD002801DCFA
:1002B00003D138BD4FF0804038BD4FF0404038BDCD
:1002C000B0F1804F2DE9F8436ADAB0F1404F6BDDB1
:1002D00080FB0045A30F43EA8503354CAA175E4215
:1002E00004FB0261A3FB04450D44A10F314C41EA1C
:1002F00085010C4404FB02F14FEAE47903FB091188
:10030000A4FB03450D44A10F2B4C41EA85010C448D
:1003100004FB02F14FEAE47903FB0911A4FB034556
:100320000D44A40F254944EA85042144244C04FBD0
:100330000266A3FB04453544A60F224C46EA850617
:10034000344404FB02F6E71703FB0766A4FB0345EE
:100350003544A60F1C4C46EA850634446243E71731
:1003600003FB0722A4FB03451544A20F42EA8502C2
:1003700002F10052154B994202DC89009200F9E724
:10038000CF17BB074410880743EA9101D31712F037
:100390002FF884FB0001800F40EA8100BDE8F8835C
:1003A0004FF00050BDE8F8834FF06040BDE8F8839F
:1003B00052EDEBFE60643B0EC060D4DE60305F1433
:1003C000548C43FC4045871D400990C613AE47013D
:1003D00070B506460C468D18AC4205D014F8010BDA
:1003E0003146FFF70BFFF7E770BD00EB80004300DD
:1003F00018460138FDD87047402810B5044609D882
:10040000C0EB401004EB8000C00080B2BDE810409B
:10041000FFF7EBBF013C4FF47A70A4B2FFF7E5FFA2
:10042000002CF7D110BD30B5039C30250D7042F281
:100430000F75A84207D90D78A0F51C50013510386A
:100440000D7080B2F3E730211170B0F57A7F06D3DA
:100450001178A0F57A700131117080B2F5E7302281
:100460001A70632805D91A78643801321A7080B27C
:10047000F7E730232370092805D923780A38013398
:10048000237080B2F7E7049B3030187030BD13B58D
:100490000C460028B5BF2D2320230B700B70B8BF6E
:1004A000404201F10403B8BF00B200934B1D019319
:1004B00080B2E31C0131A21CFFF7B5FF0023A3713A
:1004C00002B010BD70B504460E4615460EF0E6F9B2
:1004D00020460EF015FA4BF6FF72032363700223D9
:1004E000E370E3690020A0706660A560DA804FF4D5
:1004F00080625A814FF480429A81044A9880188120
:100500001A6020460EF056F980B270BD00350C001E
:10051000084A08B51388084901339BB21380074A7B
:100520000748136801331360064AFFF7CBFF00202A
:1005300008BD00BFD4090020240E00208C1A002022
:100540002C0200203C0D0020064A0748138807496A
:1005500001339BB21380064A136801331360054AC6
:10056000FFF7B0BFD40900202C020020240E002089
:100570008C1A00203C0D002002480349034AFFF773
:10058000A1BF00BF2C020020240E00203C0D002043
:10059000024A136801331360704700BF8C1A0020B1
:1005A00013B5014690BB082001210FF037FC03234F
:1005B0008DF80630142302AC8DF80730402324F860
:1005C000043D214631480FF023FA04238DF807300B
:1005D00021464FF400632D48ADF804300FF018FAAF
:1005E0000A244021012229480FF067FA0220FFF770
:1005F000FCFE013C2548402100220FF05EFAA4B227
:100600000220FFF7F2FE002CEBD13CE001283AD1AA
:1006100008200FF003FC03238DF80630142302ACEE
:100620008DF807304FF4806324F8043D21461748C5
:100630000FF0EEF904238DF8073021464FF40063E4
:100640001248ADF804300FF0E3F900244FF4806154
:1006500001220E480FF031FA0A20FFF7C6FE0B48C0
:100660004FF4806100220FF028FA0A20FFF7BDFE48
:10067000092C03D80134142CE8D104E003480FF00E
:1006800015FA4305F6D502B010BD00BF000C0140BD
:1006900010B50446064B1B7B012B06D00120FFF74B
:1006A000A4FE013CF6D1012010BD002010BD00BF0A
:1006B0002C02002010B50E4C4000A0600D482260B6
:1006C0006360E1600EF090FB28B10B4A01201368D3
:1006D0000133136010BDBDF80830012B06D142F282
:1006E0001070FFF7D5FF003018BF012010BD00BF0C
:1006F0003C0D00202C0200208C1A002010B50E4C5E
:100700004000A0600D4822606360E1600EF016FBBF
:1007100028B10B4A012013680133136010BDBDF8E6
:100720000830012B06D142F21070FFF7B1FF003004
:1007300018BF012010BD00BF240E00202C02002095
:100740008C1A002037B505460C461346044A294644
:100750001078002200922246FFF7ACFF03B030BDB4
:100760003619002037B505460C461346044A29467B
:100770001078012200922246FFF79CFF03B030BDA3
:100780003619002037B505460C461346044A29465B
:100790001078012200922246FFF7B0FF03B030BD6F
:1007A0003619002008B50122FFF7DCFF20B1034A0B
:1007B000012013680133136008BD00BF8C1A0020AC
:1007C00073B50C461D461646B2B10DF10701FFF791
:1007D000E9FF28B10A4A01201368013313600CE0D5
:1007E0000122A11BB2400131013A9DF807308A4035
:1007F0001A400A412A7000E0104602B070BD00BFE6
:100800008C1A002007B502AB03F8011D194601221E
:10081000FFF7B8FF20B1044A0120136801331360C9
:1008200003B05DF804FB00BF8C1A0020F7B5054645
:100830000C461E4617460AB9002025E00DF10701B7
:10084000FFF7B0FF28B1114A01201368013313608C
:100850001AE0E11B012404FA07F20131013A8A404F
:100860008E409DF80710F6B221EA02013240114392
:1008700028468DF80710FFF7C5FF0028DCD020467A
:10088000024A13682344136003B0F0BD8C1A0020A1
:10089000034B01221A805A6801325A600EF0D0B917
:1008A000BC0700200C4B0021198059600B4B0C4AEF
:1008B0001B68F020B3FBF2F340F2DC525343094AC9
:1008C000013B5360084B83F82300072091601060C0
:1008D00083F82310704700BFBC0700207C02002073
:1008E00040420F0010E000E000ED00E00FF08ABE93
:1008F00008B50EF087FF0EF09DFF0FF017FA0FF00E
:1009000077F8BDE808400EF0A0BF0000194B10B505
:10091000198889B28A060FD5174C18489A882388F7
:1009200000880133C3F3080380B2984292B21FBF1C
:100930001348D2B2C25423800B0619D5114B124A68
:100940001988138889B29BB299420AD0138801335F
:10095000DBB2138013880D4A9BB2D35C054A9380A7
:1009600010BD044A938923F080031B041B0C938160
:1009700010BD00BF004C0040A40F0020A80F0020B5
:10098000701500206E0C0020BA140020861700207D
:100990000B490C4A0B8812880133DBB292B29A429F
:1009A0001FBF094AD054094A0B801FBF93890120F9
:1009B0009BB243F0800314BF93810020704700BFB7
:1009C0006E0C0020BA14002086170020004C004056
:1009D000044B1888044B80B21B889BB2C01A18BF06
:1009E00001207047A40F0020A80F0020084B094ADF
:1009F0001988138889B29BB29942F7D013880133C2
:100A0000C3F3080313801388034A9BB2D05C70477A
:100A1000A40F0020A80F002070150020024A002318
:100A20001380024A13807047A80F0020A40F0020F3
:100A30001FB5002300900C2208486946ADF8043029
:100A4000ADF80630ADF80830ADF80A20ADF80C303E
:100A50000FF09EFA05B05DF804FB00BF004C0040AB
:100A60007FB54FF4002001210FF0E4F92C4C112048
:100A700001210FF0D3F94FF48063ADF80030032566
:100A80001823204669468DF803308DF802500EF089
:100A9000BFFF4FF400636946ADF800308DF8025097
:100AA0004823204D20468DF803300EF0B1FF02A8F8
:100AB0000FF0D4FA02A928460FF0C0FA4FF4E13043
:100AC000FFF7B6FF34238DF8043001260F2301A869
:100AD0008DF805308DF806308DF807600FF0C8FCF2
:100AE000114B00241C80114B284640F226611C80CB
:100AF0000FF00FFB2846224640F227710FF0C0FA94
:100B00000B4B28461C800B4B224640F225511C8083
:100B10000FF0B6FA284631460FF0A6FA04B070BDC1
:100B200000100140004C0040BA1400206E0C002060
:100B3000A80F0020A40F002010B5084CFFF790FF6D
:100B4000204640F225510FF0E4FA2046BDE810405F
:100B500040F2255101220FF093BA00BF004C004033
:100B600001226B2007211346FFF760BE6B20062190
:100B700001220023FFF75ABE034602216B20032205
:100B8000FFF754BE01461920FFF73CBE014619206D
:100B9000FFF708BE034602211A200322FFF746BED4
:100BA000034602211A200322FFF70ABE034604214E
:100BB0001B200222FFF73ABE034604211B2002221B
:100BC000FFF7FEBD034604211C200222FFF72EBEC4
:100BD000034604211C200222FFF7F2BD37B5002393
:100BE00002AC04F8013D0546FFF7D4FF4FF47A70DC
:100BF000FFF7FBFB2046FFF7D3FF4FF47A70FFF7B8
:100C0000F4FB9DF80700431B5842584103B030BD28
:100C100010B50446022104F0070303221A20FFF74F
:100C200005FEC4F301131B2001210222BDE8104080
:100C3000FFF7FCBD13B5032204460DF106030221A4
:100C40001A20FFF7BDFD0DF10703012102221B2031
:100C5000FFF7B6FD9DF8063003F00703237002B0DE
:100C600010BD10B50446022104F0070303221D2025
:100C7000FFF7DCFDC4F300131D2003210122BDE8B2
:100C80001040FFF7D3BD13B5032204460DF1060350
:100C900002211D20FFF794FD0DF10703032101221E
:100CA0001D20FFF78DFD9DF807301B0103F010029A
:100CB0009DF8063003F007031344237002B010BD03
:100CC00038B50B4D0621002475200A462B462C70A2
:100CD000FFF776FD38B92B78342B06D0382B14BFAC
:100CE0002046022038BD204638BD012038BD00BF57
:100CF000700C00202DE9F04180460F4616461D4637
:100D00000A209DF81840FFF770FB4046FFF734FFBC
:100D10003846FFF74BFF3046FFF73CFF2846FFF70A
:100D200051FF2046FFF72EFFBDE8F041FFF71EBF41
:100D300073B50C460A2016461D46FFF756FB0DF10B
:100D40000700FFF739FF9DF807300A20A34214BFC0
:100D500002240024FFF749FB0DF10700FFF720FFF5
:100D60009DF807300A20B3421CBF44F00404A4B22B
:100D7000FFF73BFB0DF10700FFF72AFF9DF8073057
:100D80000A20AB4218BF44F00804FFF72EFB0DF118
:100D90000700FFF7FBFE9DF807209DF818309A42E8
:100DA00018BF44F01004204602B070BD2DE9F8438E
:100DB0008146884617461E460A209DF820509DF819
:100DC0002440FFF712FB4846FFF7D6FE4046FFF7E8
:100DD000EDFE3846FFF71CFF3046FFF7F3FE2846CE
:100DE000FFF73FFF2046FFF7CDFEBDE8F843FFF7D2
:100DF000BDBE73B50C460A2016461D46FFF7F5FA30
:100E00000DF10700FFF7D8FE9DF807300A20A34236
:100E100014BF02240024FFF7E8FA0DF10700FFF7E2
:100E200009FF9DF807300A20B3421CBF44F00404B8
:100E3000A4B2FFF7DAFA0DF10700FFF7C9FE9DF83B
:100E400007300A20AB4218BF44F00804FFF7CDFA80
:100E50000DF10700FFF79AFE9DF807209DF81C3062
:100E60000A209A4218BF44F01004FFF7BEFA0DF1B1
:100E70000700FFF708FF9DF807209DF818309A42F9
:100E800018BF44F02004204602B070BD2DE9F341A4
:100E90000A240A202A4DFFF7A8FA68232B70FFF7CF
:100EA0000FFF86B2A84676B90A20FFF79EFA69239B
:100EB0002B70FFF705FF86B23EBB013CA4B2002CAD
:100EC000E7D12C701EE001270A240025022E009590
:100ED0001DD131462A46012303200195FFF766FF05
:100EE0006420FFF789FA00950195032031462A46D0
:100EF0000123FFF77EFFD8B1013CA4B2002CE4D15E
:100F000088F800400F4B1C6015E00227DCE72A46FA
:100F1000022101230320FFF7EDFE6420FFF76CFAA6
:100F2000009502212A4601230320FFF701FFE2E793
:100F30003C46044B1860204602B0BDE8F08100BF7B
:100F4000361900208C1A002010B5124B1C785A78E4
:100F500042EA042202809C78DA7842EA0422428043
:100F60001C795A7942EA042282809C79DA7942EA31
:100F700004220A80197A5A7A42EA0122C280997AB6
:100F8000DA7A42EA012202811A7B5B7B43EA02237E
:100F9000438110BD700C002008B5074B00221A8059
:100FA0003B2006490E22FFF7CDFB18B1BDE80840F3
:100FB000FFF7EEBA08BD00BFD4090020700C002076
:100FC0002DE9F047254B264D01281CBFA8461D469C
:100FD0001446244A08BF98468946234F18BF17462F
:100FE0000FF0C0F828460FF0F7F8042882462FD1FA
:100FF000B9F1000F08BF4FF4FD64013405F110068C
:1010000024F001043444A64219D0B9F1000F04D1F0
:10101000C5EB0803995B89B203E0731B4B4433F8BB
:10102000101C4FF6FF73994207D0BE420ED23046D5
:101030000FF01AF9042882460AD10236E3E728465F
:101040004FF011310FF0E6F8824601E04FF0800AD0
:101050000FF094F85046BDE8F08700BF00D00708B5
:1010600000D80708FFD70708FFDF070810B50FF003
:1010700079F807480FF0B0F80428044603D1054872
:101080000FF0AAF804460FF079F8204610BD00BF13
:1010900000D0070800D807080131C1F34F01002331
:1010A0009AB28A420AD2B3F57E7F09D0054A1A4421
:1010B0005200128820F813200133F1E70420704712
:1010C0008020704708E8030438B505460C46002028
:1010D00029462246FFF774FFC0B2042801D080B22F
:1010E00038BD294622460120FFF76AFFC0B238BD4D
:1010F00038B5154B1D68D3F80048B5F1113F06D13E
:10110000B4F1113F01D104201CE0621C03E06B1C10
:101110000BD1B4F1113F08D1002101200A46FFF79D
:101120004FFFC0B204280DD1EDE7FFF79FFFC0B21B
:10113000042807D1013504D1013414BF40202020F8
:1011400000E0402080B238BD00D00708F8B5504D0F
:10115000022128462C8C0DF015FB0128A4B22CD1BD
:101160004C4E284602210DF018FB3368DA050ED5E7
:10117000494A28461388013303F01F031380168859
:101180000DF0F0FA454BB6B223F8160015E014F056
:10119000020F434F0BD028460DF0E4FA78803368F5
:1011A00024F0020443F00403A4B2336005E02846AF
:1011B0000DF0D8FA44F002043880354D0421284659
:1011C0000DF0E0FA01283ED1324E284604210DF000
:1011D000E4FA33689B0520D53248334AC36813F4D8
:1011E000007F09D013882A8F4FF4007113449BB2FB
:1011F0002B870EF060FC26E02C490B882E8F3344A1
:101200009BB22B872A4B1B8809885B1A9BB24FF431
:10121000007113800EF04DFC15E014F0200F254FE7
:101220000BD028460DF0A1FA7880336824F0200412
:1012300043F00203A4B2336005E028460DF095FAAE
:1012400044F020043880124808210DF09BFA012850
:101250001AD10F4808210DF0A0FA14F4007F164DA2
:101260000CD00B480DF084FA0A4A6880136824F405
:10127000007443F00103A4B2136005E004480DF0CC
:1012800077FA44F400742880014B1C84F8BD00BF39
:10129000002C0140F40F0020C0140020E20B0020BD
:1012A0006A0F002000080140B8140020D00A002076
:1012B000B418002046080020861A002070B5454D5D
:1012C000022128462C8C0DF05DFA0128A4B21AD117
:1012D000284602210DF061FA14F0020F3E4E0CD0A8
:1012E00028460DF03FFA3D4A7080136824F002044E
:1012F00043F00803A4B2136005E028460DF032FA6B
:1013000044F002043080334804210DF03BFA0128F8
:101310001AD1304804210DF040FA14F0200F304D5E
:101320000CD02C480DF021FA2C4A6880136824F068
:10133000200443F01003A4B2136005E025480DF02B
:1013400014FA44F020042880224808210DF01AFAEB
:1013500001281AD11F4808210DF01FFA14F4007F4C
:10136000204D0CD01B480DF003FA1C4A688013680E
:1013700024F4007443F02003A4B2136005E0154880
:101380000DF0F6F944F400742880124810210DF095
:10139000F9F901281AD10F4810210DF0FEF914F4C3
:1013A000005F114D0CD00B480DF0E5F90B4A688039
:1013B000136824F4005443F04003A4B2136005E022
:1013C00004480DF0D8F944F400542880014B1C84E3
:1013D00070BD00BF00340140D60A0020F40F002089
:1013E000BC140020DC0E00207C14002010B5062860
:1013F00000F2DA80DFE810F007002500430061000A
:101400007F009D00BB00694C0821204600220DF0A2
:10141000D3F872B6238C664A23F400731B041B0CAA
:101420002384136823F00103136062B6614B1A68CA
:1014300022F007021A6064229A8040F2DC525A823B
:1014400010BD5A4C0421204600220DF0B5F872B6AA
:10145000238C574A23F020031B041B0C238413689E
:1014600023F00203136062B6524B1A6822F038026E
:101470001A606422DA8040F2DC529A8210BD4B4C32
:101480000221204600220DF097F872B6238C484ABC
:1014900023F002031B041B0C2384136823F00403B2
:1014A000136062B6434B1A6822F4E0721A60642239
:1014B0001A8140F2DC52DA8210BD3F4C02212046F4
:1014C00000220DF079F872B6238C394A23F002031A
:1014D0001B041B0C2384136823F00803136062B6FB
:1014E000344B1A6822F460621A6064225A8140F216
:1014F000DC521A8310BD304C0421204600220DF02E
:101500005BF872B6238C2A4A23F020031B041B0CC1
:101510002384136823F01003136062B6254B1A6806
:1015200022F4E0421A6064229A8140F2DC525A832B
:1015300010BD214C0821204600220DF03DF872B666
:10154000238C1B4A23F400731B041B0C2384136895
:1015500023F02003136062B6164B1A6822F460323F
:101560001A606422DA8140F2DC529A8310BD124C78
:101570001021204600220DF01FF872B6238C0C4A71
:1015800023F400531B041B0C2384136823F0400333
:10159000136062B6074B1A6822F4E0121A606422E4
:1015A0001A8240F2DC52DA8310BD00BF002C0140E9
:1015B000F40F0020801400200034014010B5174CB7
:1015C0000221204600220CF0F7FF72B6238C144A49
:1015D0009BB243F002032384136823F480731360E7
:1015E00062B6104A002313800F4A002122F813101C
:1015F0000133202BF8D10D4A136823F030631360B8
:101600000B4B64225A801A461A3322F8021B40F20E
:10161000DC5122F8021F9A42F9D110BD002C014082
:10162000F40F0020C0140020E20B002080140020E2
:10163000C81400201FB5214C0421204600220CF0C4
:10164000BBFF72B61E4A136823F40073136062B6C0
:1016500040F2DC5344F620611A4A13801A4B198079
:101660001B8810881B1A9BB21380184A184B194804
:101670001980136804A923F08053136028238DF880
:10168000033003238DF802304FF4007321F8103D2E
:101690000EF0BEF90023ADF80630ADF80A300F2386
:1016A000ADF80C3004A90423012221F80C3D20469A
:1016B000ADF808200CF0BAFF04B010BD002C0140BA
:1016C000F40F0020D00A0020B4180020801400205D
:1016D0008C0D00200008014010B50C46062800F2D1
:1016E000AC80DFE800F0041C344A61788F000129E7
:1016F00004D1524B1B68D90700F19F800020FFF7EF
:1017000075FE012C40F099804C4A4D481368082121
:1017100043F0010313600DF040F8494870E00129DF
:1017200004D1464B1B681A0700F187800120FFF7A0
:101730005DFE012C40F08180404A4148136804213D
:1017400043F0080313600DF028F83D4841E00129FB
:1017500003D13A4B1B685B066FD40220FFF746FEAD
:10176000012C6AD1354A36481368022143F0400300
:1017700013600DF012F8324814E0012903D12F4B09
:101780001B68980559D40320FFF730FE012C54D173
:101790002A4A2C481368022143F4007313600CF0AA
:1017A000FCFF2848022143E0012903D1234B1B6899
:1017B000D90442D40420FFF719FE012C3DD11F4A61
:1017C00020481368042143F4805313600CF0E5FFB4
:1017D0001C4804212CE0012903D1184B1B681A0472
:1017E0002BD40520FFF702FE012C26D1134A154801
:1017F0001368082143F4004313600CF0CEFF114836
:10180000082115E0012903D10C4B1B685B0314D49C
:101810000620FFF7EBFD012C0FD1084A0948136899
:10182000102143F4802313600CF0B7FF054810210A
:101830002246BDE810400CF0BFBE10BD8014002051
:10184000002C014000340140012938B505460C4602
:1018500007D1134B1B88834203D1124B1B68DB015A
:101860001DD4FFF7ABFE012C19D1C5B10D4A0C4BAD
:101870001D80136843F08073136072B60A4A1368C0
:1018800043F48073136062B6084802210CF085FFB0
:101890002246BDE83840054802210CF08DBE38BD17
:1018A000C814002080140020F40F0020002C0140F8
:1018B00030B5012987B005460C4607D12F4B1B8850
:1018C000834203D12E4B1B68DB0054D4FFF7B2FEDA
:1018D000012C50D1294B2B4A1D8040F2DC53138040
:1018E000294B06A91D801B8812884FF400759B1A8E
:1018F000264A9BB2138010238DF8073021F8145D1F
:10190000032323488DF806300EF082F82946002282
:101910001F480EF0D2F83023ADF808301D480023E0
:10192000ADF81430ADF81630ADF81030ADF8123017
:10193000ADF80A30ADF80C300CF021FF00F51C506A
:101940001030ADF80E0002A912480CF06FFD0C4AE1
:10195000136843F08053136072B60F4A13682B4329
:10196000136062B60B4804210CF017FF09480421EC
:1019700022460CF021FE07B030BD00BF8C0D0020C8
:1019800080140020D00A0020B4180020B8140020D1
:1019900000080140002C0140F40F0020624B1A683F
:1019A000D10717D51A68614922F001021A60088828
:1019B0004A88121A40F2EA4092B2A2F27B3189B20E
:1019C000814207D85A494A8264228A800A6842F0D2
:1019D00004020A601A685449920717D50A6822F06F
:1019E00002020A60534908884A88121A40F2EA4003
:1019F00092B2A2F27B3189B2814207D84C498A82E5
:101A00006422CA800A6842F020020A601A684649C5
:101A1000500717D50A6822F004020A604649088870
:101A20004A88121A40F2EA4092B2A2F27B3189B29D
:101A3000814207D83E49CA8264220A810A6842F478
:101A400080720A601A683849120717D50A6822F0AE
:101A500008020A60394908884A88121A40F2EA40A6
:101A600092B2A2F27B3189B2814207D830490A830F
:101A700064224A810A6842F400620A601A682A49AC
:101A8000D00617D50A6822F010020A602C4908888F
:101A90004A88121A40F2EA4092B2A2F27B3189B22D
:101AA000814207D822494A8364228A810A6842F423
:101AB00080420A601A681C49920617D50A6822F00B
:101AC00020020A601F4908884A88121A40F2EA4038
:101AD00092B2A2F27B3189B2814207D814498A833B
:101AE0006422CA810A6842F400320A601B680E4A06
:101AF0005B0617D5136823F040031360124A118860
:101B000053885B1A40F2EA419BB2A3F27B3292B255
:101B10008A4207D8064AD38364231382136843F4A6
:101B200080131360704700BFF40F0020861A002056
:101B300080140020460800206A0F0020D60A0020EA
:101B4000BC140020DC0E00207C1400202DE9F041A4
:101B5000364C86B02568EB0165D5354E30880C28AB
:101B600061D872B6334B344A1B88928C9BB292B2C6
:101B700062B6324F37F81310521A40F6853192B2DE
:101B80008A4250D92E4A118999424CD0138137F894
:101B900013204FF0000E92B21FFA8EF1814216D23E
:101BA00040F2EC48013B03F01F0337F813C01FFA63
:101BB0008CFCCCEB020189B22DF81E10A1F27A3117
:101BC00089B241450EF1010E03D86246E4E70121D6
:101BD00000E00021013B03F01F0337F81330D21A55
:101BE00040F66D7392B29A421DD9164B434303F5EA
:101BF000C34328339A4216DCA9B113494700002396
:101C00009AB282420AD2A7EB43020DF1180E724437
:101C100032F81A2C013321F8022FF1E7642345F042
:101C200000657380256006B0BDE8F0818014002057
:101C3000C8140020C0140020002C0140E20B00203A
:101C4000BC07002086FCFFFFCA140020044B1B6861
:101C5000DB0003D572B6034B188062B6704700BF35
:101C600080140020D00A0020854B10B59A8812B34A
:101C70001868013A92B220F00201012A196001D9D4
:101C80009A8018E000229A80C20744BF41F0020106
:101C900019601A6822F004021A6072B679490A685B
:101CA00022F001020A6078490A8C22F400721204C0
:101CB000120C0A8462B6DA88714912B30C68013AD0
:101CC00092B224F01000012A086001D9CA8018E0FD
:101CD000240744BF40F0100008600022CA801A6840
:101CE00022F020021A6072B666490A6822F00202E7
:101CF0000A6065490A8C22F020021204120C0A8440
:101D000062B61A895E4912B30C68013A92B224F0A5
:101D10008000012A086001D90A8118E000220A81A6
:101D2000620644BF40F0800008601A6822F48072A6
:101D30001A6072B653490A6822F004020A605249D6
:101D40000A8C22F002021204120C0A8462B65A892A
:101D50004B4912B30C68013A92B224F48060012A14
:101D6000086001D94A8118E0A40544BF40F48060AE
:101D7000086000224A811A6822F400621A6072B672
:101D800040490A6822F008020A6040490A8C22F0A1
:101D900002021204120C0A8462B69A89384912B3FC
:101DA0000C68013A92B224F40050012A086001D96B
:101DB0008A8118E000228A81E20444BF40F4005086
:101DC00008601A6822F480421A6072B62D490A68C7
:101DD00022F010020A602D490A8C22F0200212041F
:101DE000120C0A8462B6DA89254912B30C68013AEA
:101DF00092B224F48030012A086001D9CA8118E027
:101E0000240444BF40F4803008600022CA811A686C
:101E100022F400321A6072B61A490A6822F02002CF
:101E20000A601A490A8C22F400721204120C0A8405
:101E300062B61A8A124912B30C68013A92B224F4BB
:101E40000020012A086001D90A8210BD00220A82FE
:101E5000620344BF40F4002008601A6822F4801234
:101E60001A6072B6074A136823F040031360074AEA
:101E7000138C23F400531B041B0C138462B610BD97
:101E800080140020F40F0020002C01400034014099
:101E90000D4810B54288AAB10C4B013A1C6892B2A9
:101EA00024F00071012A196001D9428010BD00227E
:101EB0004280E20144BF41F0007119601A6822F0CB
:101EC00000621A6010BD00BFC814002080140020FA
:101ED000062828D8DFE800F004090E13181D220098
:101EE000124B1868C0F340007047104B1868C0F3DD
:101EF000001070470D4B1868C0F3C01070470B4BB3
:101F00001868C0F380207047084B1868C0F3403051
:101F10007047064B588800F001007047034B186863
:101F2000C0F3C04070470020704700BF80140020FD
:101F3000024B1868C0F34060704700BF8014002057
:101F4000062828D8DFE800F004090E13181D220027
:101F5000124B1868C0F380007047104B1868C0F32C
:101F6000401070470D4B1868C0F3002070470B4BB2
:101F70001868C0F3C0207047084B1868C0F3803061
:101F80007047064B1868C0F340407047034B186811
:101F9000C0F3005070470020704700BF801400203D
:101FA000024B1868C0F3C060704700BF8014002067
:101FB0002DE9F04F8DB00CAE40F6040001214FF436
:101FC000807B0DF02BFF26F820BD00244FF0280C5D
:101FD00003220CAD01274FF00F08754831468DF8EC
:101FE00013C0CDF80CC08DF812200292ADF8264037
:101FF000ADF82870ADF82A40ADF82C800DF008FD42
:1020000025F80C4D6B4829460CF010FB4FF400737B
:1020100067483146ADF810300DF0FAFC04236548EE
:102020002946ADF8243001930CF000FB4FF4806199
:10203000ADF810105E4831460DF0EAFC4FF0080391
:102040005C482946ADF824300CF0F0FA4FF0FF332D
:10205000DFF87CA1ADF81C30DAF80010564B0DF11A
:102060003009B1FBF3F1013929F8181D51484946EF
:10207000ADF81E40ADF81A400CF04AF94D4839460B
:102080000CF08EFA1B2105A88DF814108DF8158020
:102090008DF816408DF817700EF0EAF942F2100034
:1020A00039460DF0BBFE029ADDF80CC08DF8122007
:1020B0004248402231468DF813C0ADF81020ADF8EB
:1020C0002640ADF82870ADF82A40ADF82C800DF010
:1020D0009FFC3B482946ADF824400CF0A7FA80222B
:1020E00036483146ADF810200DF092FC019B344883
:1020F0002946ADF824300CF099FA30483146ADF855
:1021000010B00DF085FC4FF008032D482946ADF8BE
:1021100024300CF08BFA4FF4007328483146ADF8A8
:1021200010300DF075FC0C2325482946ADF82430FD
:102130000CF07CFA4FF0FF331F4AADF81C30DAF890
:1021400000301F48B3FBF2F34946013BADF81830AD
:10215000ADF81E40ADF81A400CF0DAF839461848D0
:102160000CF01EFA2E2305A88DF814308DF815807A
:102170008DF816408DF817700EF07AF9114A124951
:1021800013460C6043F8104B1E3240F2DC5123F82A
:10219000021F9342F9D10D4B03F1180240F2DC51BA
:1021A00023F8021F9342F9D10DB0BDE8F08F00BFB4
:1021B00000080140002C014040420F000010014087
:1021C0000034014080140020F40F0020CA140020C5
:1021D0007C02002010B50C4840F225510DF07AFF2A
:1021E000044609480DF06EFF64B10849084A0B889F
:1021F0001288013303F03F0392B29A421EBF054A90
:102200000B80D05410BD00BF00380140841A00205C
:1022100068080020E4140020044B1888044B80B2A6
:102220001B889BB2C01A18BF01207047841A002077
:1022300068080020084B094A1988138889B29BB2A4
:102240009942F7D01388013303F03F0313801388BA
:10225000034A9BB2D05C7047841A002068080020B3
:10226000E41400201FB5002300900C2208486946A2
:10227000ADF80430ADF80630ADF80830ADF80A20FE
:10228000ADF80C300DF084FE05B05DF804FB00BF26
:102290000038014030B544F2050085B001210DF051
:1022A000BDFD4FF48063ADF8003048231C4C6946F7
:1022B0008DF803301B4803238DF802300DF0A8FB86
:1022C00002A80DF0CBFE02A920460DF0B7FE4FF498
:1022D000E130FFF7C7FF25238DF8043001250F23D8
:1022E00001A88DF805308DF806308DF807500EF0F6
:1022F000BFF8204640F2277100220DF0C1FE0A4BC4
:1023000000221A80094B204640F225511A800DF018
:10231000B7FE204629460DF0A7FE05B030BD00BF30
:10232000003801400008014068080020841A00209D
:1023300008B5124840F2255100220DF0A1FE1048C8
:10234000002210210DF0B9FB0E4B00221A809A8555
:1023500003F16D0003F12D02002102F8011F8242FA
:10236000FAD164229A845984074B03F1200240F287
:10237000DC5123F8021B9342F9D108BD003801401B
:1023800000100140681900206A19002070B5BD4C8A
:102390002388DA0740F1758172B6BB4B5D6862B67F
:1023A000FFF73AFF90B1FFF737FF68B1A68DFFF74F
:1023B00041FFA38D26443E2B9CBFB24A013386F8D1
:1023C0002E0098BF9385EEE7A56270BDA36AED1A53
:1023D000022D40F25681638C43BBA38D102B40F03D
:1023E000D880A31C04F1220240F2DC5123F8021B26
:1023F0009342F9D10021621892F8303092F83120DE
:10240000C3F3830502F2E63203F00303023104EB67
:10241000450502EB03230E299A486B80EBD1642318
:102420008384038843F004030380B2E0012B1FD1AF
:10243000A38D102B40F0AD80221892F8303092F826
:102440003120C3F3C30503F0070302EB03235B1042
:10245000023004EB450503F2E6330E2889496B8010
:10246000EAD164238B840B8843F004030B8090E053
:10247000022B40F08E80E36A844A23F07F4393422C
:1024800040F0878094F84630002B40F0828094F82A
:1024900045301B070FD5A31C04F1220240F2DC518A
:1024A00023F8021B9342F9D16423A384238843F0C9
:1024B000040323806DE094F8303094F82F2003F06B
:1024C000070342EA03236380238E94F83320C3F387
:1024D000CA03A380236B04F12201C3F38A33E38090
:1024E00094F8343003F00F03DB0143EA52032381F5
:1024F000A38E94F83720C3F30A136381636BC3F38D
:10250000CA33A38194F8383003F01F039B0143EAD8
:102510009203E381238F94F83B20C3F34A13238271
:10252000638FC3F30A03638294F83C3003F03F03E4
:102530005B0143EAD203A382E36B94F83F20C3F329
:102540008A13E382E38FC3F34A03238394F8403072
:1025500003F07F031B0143EA12136383236CC3F36D
:10256000CA13A383B4F8423094F84320C3F38A0318
:10257000E38394F84430DB0043EA52132384A21C23
:1025800013885B0803F5777322F8023B8A42F7D180
:102590008AE7628C3B4B032A2CD1998DA1F1090269
:1025A0001C2A6CD893F82E20A82A68D193F82F20E3
:1025B00002F07F02012A62D193F830004200053216
:1025C0008A425CD19A1C1146223340F2DC5521F834
:1025D000025B9942F9D10021CBB2834249D292F8F1
:1025E0002F5092F83030013103EB0523DB1022F835
:1025F000023BF1E7042A42D1DA6A254922F07F4200
:102600008A421AD1991C0A46223340F2DC5022F841
:10261000020B9A42F9D11F4891F82D2091F82E30E3
:1026200003EB02234FF4AF6253431B0B03F54873D4
:1026300021F8023B8142EFD11BE017498A421ED1AB
:10264000981C0246223340F2DC5122F8021B9A42C7
:10265000F9D190F82D1090F82E2002EB01224FF4C2
:10266000AF614A43120B02F5487220F8022B9842E0
:10267000EFD16423A384238843F004032380002341
:10268000A38570BD68190020BC07002019000F0049
:102690001B00A100821900202300A2000D4910B5E3
:1026A0008B8CABB10C88013B24F002029BB292B23E
:1026B000012B0A8001D98B8410BD00238B84E30792
:1026C00044BF42F002020A800B8823F004030B800F
:1026D00010BD00BF68190020012970B505460E46DF
:1026E00038D13D4C2388DB0734D5042826D8DFE8D1
:1026F00000F0030D0F181A0000254FF4E130658437
:10270000FFF7B0FD354810212A4615E001230BE004
:10271000022333486384FFF7A5FD304810210122CE
:102720000AE0032300E004234FF4E1306384FFF761
:1027300099FD2A48102100220DF0BFF901232380C2
:10274000284B03F1200240F2DC5123F8021B934294
:10275000F9D170BDFFF7ECFD012E3BD1042D39D826
:10276000DFE805F0030E101A1C001B4B00244FF489
:10277000E1305C84FFF776FD18481021224617E00F
:1027800001220CE0144B022215485A84FFF76AFD1F
:102790001248102101220BE0032200E004220E4B1C
:1027A0004FF4E1305A84FFF75DFD0C481021002200
:1027B0000DF083F9084B01240B4840F225511C8091
:1027C0000DF0A7FC2246BDE87040074840F22551B5
:1027D0000DF056BC70BD00BF68190020001001400C
:1027E000A08601006A19002000380140124B014602
:1027F0001B88013B092B1ED8DFE803F005070B0DF2
:102800000F1113151719062000E00720C9B2FFF7B2
:102810001BB80820FAE70A20F8E70C20F6E70020AA
:1028200006E0012004E0022002E0032000E0042092
:10283000C9B2FFF751BF7047E00E0020024B188865
:10284000C0F34000704700BF68190020024B188891
:10285000C0F38000704700BF6819002013B5102036
:1028600001210DF0DBFA10240323114801A98DF892
:102870000630ADF804408DF807400DF0C9F8214648
:1028800000220B480DF019F9FFF704FDFFF750FD8A
:10289000084B00211A46998422F8021B223340F289
:1028A000DC5122F8021B9A42F9D102B010BD00BFE0
:1028B000001001406819002010B50B4904460FF0C4
:1028C00029FD20B1204609490FF07EFAF5E72046A0
:1028D00007490FF033FD28B1204604490FF072FA82
:1028E0000446F4E7204610BD000034C30000B443A2
:1028F00000003443024B188BC0F30010704700BF38
:10290000A01C0020044B1B8B03F0100080B208B108
:1029100003F00700704700BFA01C002038B50B4D26
:10292000002420460FF004FB09490FF055FB0DF081
:10293000A5FE08490FF050FB0FF014FD0134B4F56B
:102940007C7F45F8040FECD138BD00BFC81C0020C7
:10295000DE40CC3B00803848FA2828BFFA20FA290C
:10296000044B28BFFA21FA2A28BFFA221884598476
:102970009A847047A01C0020044B1A8B10B142F0BF
:10298000100201E022F010021A837047A01C002000
:1029900000234FF080421384A2F82034A2F820389C
:1029A000024A138B23F0070313837047A01C0020F7
:1029B000754810B5018B21F0070201F0100192B2A9
:1029C00089B20283002900F0D380C38C3BB9418BCC
:1029D000022900F2B28042F001020283A9E0013B29
:1029E000042B00F29F80DFE803F0031E38537500CC
:1029F000438B818B022B9BBF634B42F00102002370
:102A00001A838EBF1A4601234FF4885202295E4C66
:102A100000F2A180218B43F4885341F0020143F07E
:102A20001003218397E0438B574C022B9EBF564BDC
:102A300042F001021A83838B8DBF00214FF488512D
:102A400010220A46022B97BF238B002343F0020378
:102A5000238398BF41F2101333E0438B4A4C022B7F
:102A60009EBF494B42F001021A83838B8DBF002128
:102A700010224FF488510A46022B9FBF238B42F449
:102A8000885243F0020323838CBF002301233CE0E0
:102A9000438B3D49022B9EBF3B4B42F001021A8300
:102AA000828B94BF41F210130023022A87BF0021BA
:102AB0000A460A8B42F002029EBF0A834FF48851F5
:102AC0001022C08B304C022856D843F0010342F448
:102AD000885222E0438B818B022B9ABF2A4B42F013
:102AE00001020023284C97BF1A831A464FF48852DC
:102AF000012302299FBF218B42F0100241F0020105
:102B000021838CBF00214FF48851C08B1E4C0228BA
:102B100032D843F4885343F01003208B40F0040074
:102B2000208329E0438B022B06D8174B42F0010289
:102B30001A8341F2101300E00023828B1249022A0B
:102B40009FBF0A8B43F0010342F002020A838CBF4D
:102B500000224FF48852C18B0B4C02290BD8218BD9
:102B600042F0100241F0040121834FF4885103E048
:102B70000B460A4600E000214FF080400284034AE1
:102B80001384034B198410BDA01C002000040040D6
:102B9000000800400346008859889A88FFF7DCBE89
:102BA00010B5041C18BF0124FFF7A4FEA04206D0F4
:102BB0002046FFF7E1FEBDE81040FFF7F9BE10BD6B
:102BC00070B50D4B05885A8B4488AA4280881A46F6
:102BD00008D19E8BA64205D1DE8B864202D1DB8CCA
:102BE0008B4207D055839483D083BDE87040D18455
:102BF000FFF7DEBE70BD00BFA01C002038B5044644
:102C00002568002128460FF085FB28B12846094990
:102C10000FF0DAF82060F3E72568064928460FF040
:102C20008DFB28B1284603490FF0CCF82060F3E76C
:102C300038BD00BF00007C440368002B03DA03F5B5
:102C40007C730360F8E70368B3F57C7F03DBA3F5CF
:102C50007C730360F7E770474F4B70B5B0F57C7F2E
:102C6000188024BFA0F57C7080B203EB80041E8C1A
:102C7000E46A59807443240C04F54074DC8000F548
:102C8000A874A4B2B4F57C7F24BFA0F5287084B2E8
:102C900003EB8400C56A9A8075432D0C05F54075D9
:102CA0009D8104F5A875ADB2B5F57C7F24BFA4F570
:102CB0002874A5B203EB8504E06AB1F57C7F00FBC4
:102CC00006F028BFA1F57C714FEA104028BF89B2F9
:102CD00000F54070588203EB81005D8CC06A684348
:102CE000000C00F54070188101F5A87080B2B0F5B5
:102CF0007C7F24BFA1F5287188B203EB8001CC6AE8
:102D00006C43240C04F54074DC8100F5A874A4B273
:102D1000B4F57C7F24BFA0F5287084B203EB840057
:102D2000C16AB2F57C7F01FB05F128BFA2F57C7278
:102D30004FEA114128BF92B201F54071998203EB2D
:102D400082019C8CC96A6143090C01F5407159816B
:102D500002F5A87189B2B1F57C7F24BFA2F5287273
:102D600091B203EB8102D06A6043000C00F5407021
:102D7000188201F5A87080B2B0F57C7F24BFA1F560
:102D8000287188B203EB8001CA6A6243120C02F513
:102D90004072DA8270BD00BFA01C0020824A30B5AC
:102DA000118D1346D08C002940F0AD807F49B8B911
:102DB000D388A1F8403093898B87538A0B87138976
:102DC0008B86D1894FF08043A3F84010918A998770
:102DD00050897749A1F84000108A1887D38A1FE0EC
:102DE0000138734A04287DD8DFE800F0031C334B18
:102DF0006400DA888A8698894FF08042A2F8400001
:102E0000588A90871889A1F84000D8898887988ABD
:102E1000088758896649A1F84000188A1087DB8A1C
:102E20008B8730BDD988A2F8401098894FF0804137
:102E30000887588A908718895C4AA2F84000D88988
:102E40009087988A1087588990861A8AA1F840201E
:102E5000E5E7D988A2F8401098894FF080410887AB
:102E6000588A90871889514A9086D889A1F84000DD
:102E7000988A88875989A2F84010198A9187DB8A35
:102E8000DDE1DA884A48A1F840209A898A875A8A7F
:102E90000A871A89A0F84020DC894FF08042148705
:102EA0009C8A848758898886198AA2F84010DB8A10
:102EB000938730BDDA888A8698894FF08042A2F8DD
:102EC0004000588A90871C893948A0F84040DC8926
:102ED00014879A8A82875A89A1F840201A8A8A8799
:102EE000DB8A27E1DA88A1F840209A898A875A8A02
:102EF0000A871A898A86D9894FF08042A2F8401041
:102F0000998A918785E7002840D1D38803EB430154
:102F1000C3EBC10325499BB2A1F84030938903EB71
:102F20004300C3EBC0039BB28B87538A03EB430080
:102F3000C3EBC0039BB20B87138903EB4300C3EBC6
:102F4000C0039BB28B86D38903EB4301C3EBC10360
:102F50009BB24FF08041A1F84030938A03EB4300CD
:102F6000C3EBC0039BB28B87538903EB4300C3EBD6
:102F7000C0030F489BB2A0F84030138A03EB430410
:102F8000C3EBC4039BB20B87D38A99E10138074A8C
:102F90000749042800F25581DFE810F00C005100C9
:102FA0008800CE000D0100BFA01C002000040040DE
:102FB00000080040D98801EB4100C1EBC00189B293
:102FC0009186998901EB4100C1EBC00189B24FF0B4
:102FD0008040A0F84010598A01EB4104C1EBC401C4
:102FE00089B28187198901EB4104C1EBC40189B21F
:102FF000A2F84010D98901EB4104C1EBC40189B2A8
:103000009187998A01EB4104C1EBC40189B2118710
:103010005A8902EB4201C2EBC102AD4992B2A1F85A
:1030200040201A8A02EB4204C2EBC40292B2028729
:10303000DB8A03EB4302C3EBC2039BB2F0E6DA8800
:1030400002EB4200C2EBC00292B2A1F840209A8982
:1030500002EB4200C2EBC00292B24FF08040028706
:103060005A8A02EB4204C2EBC40292B28A871A89DE
:1030700002EB4201C2EBC102964992B2A1F8402094
:10308000DA8902EB4204C2EBC40292B28A879A8ABE
:1030900002EB4204C2EBC40292B20A875A8902EBE5
:1030A0004204C2EBC40292B28A867BE0DA8802EB69
:1030B0004200C2EBC00292B2A1F840209A8902EB12
:1030C0004200C2EBC00292B24FF0804002875A8A9F
:1030D00002EB4204C2EBC40292B28A871A8902EB65
:1030E0004201C2EBC1027B4992B28A86DA8902EBC5
:1030F0004204C2EBC40292B2A0F840209A8A02EBCA
:103100004204C2EBC40292B282875A8902EB4200A7
:10311000C2EBC00292B2A1F840201A8A02EB420030
:10312000C2EBC00292B28A87DB8A03EB4302C3EB95
:10313000C2039BB20B8730BDD988654C01EB4100BF
:10314000C1EBC00189B2A2F84010998901EB41009E
:10315000C1EBC00189B29187598A01EB4100C1EBF3
:10316000C00189B21187198901EB4100C1EBC0018F
:1031700089B2A4F84010D98901EB4100C1EBC0012C
:1031800089B24FF080400187998A01EB4105C1EB7C
:10319000C50189B2A187598901EB4104C1EBC40182
:1031A00089B291861A8A02EB4201C2EBC10292B245
:1031B000A0F8402083E0D98801EB4100C1EBC001B9
:1031C00089B29186998901EB4100C1EBC00189B2B6
:1031D0004FF08040A0F84010598A01EB4104C1EB48
:1031E000C40189B28187198901EB4104C1EBC40193
:1031F000374C89B2A4F84010D98901EB4105C1EBE5
:10320000C50189B20187998A01EB4100C1EBC00178
:1032100089B2A187598901EB4100C1EBC00189B294
:10322000A2F84010198A01EB4100C1EBC00189B23C
:103230009187DB8A03EB4301C3EBC1039BB2138786
:1032400030BDD98801EB4100C1EBC00189B2A2F8C1
:103250004010998901EB4100C1EBC00189B291870F
:10326000598A01EB4100C1EBC00189B2118719896C
:1032700001EB4100C1EBC00189B29186DA8902EB12
:103280004201C2EBC10292B24FF08041A1F840204E
:103290009A8A02EB4200C2EBC00292B28A875A8934
:1032A00002EB4200C2EBC002094892B2A0F84020F3
:1032B0001A8A02EB4204C2EBC40292B20A87DB8A8A
:1032C00003EB4302C3EBC2039BB2838730BD00BF55
:1032D00000080040000400401FB50446FFF758FBFB
:1032E0002022174B6CB1ADF8062048F60A220021C7
:1032F000ADF808200122ADF80A10ADF804101A85C7
:103300000AE0ADF8062040F20A62ADF80A40ADF8D6
:103310000820ADF804401C8501A94FF080400AF058
:10332000F7FF01A907480AF0F3FF074801A90AF0CF
:10333000EFFFFFF733FDFFF73BFB04B010BD00BF0D
:10334000A01C00200004004000080040034B1B8D1F
:103350000BB1002000E00120FFF7BEBFA01C002041
:103360002DE9F041072088B001210CF063FD0D200C
:1033700001210CF053FD0327CE23182469464A4847
:10338000ADF800308DF803408DF802700CF040FB72
:1033900040F2033369464548ADF800308DF80340EC
:1033A0008DF802700CF034FB2023ADF8063040F2AB
:1033B0000A63002408AD3E4E25F81C4DDFF8F88066
:1033C00029464FF08040ADF80830ADF80A400AF0C9
:1033D0009FFF304629460AF09BFF404629460AF0E7
:1033E00097FF4FF44075602304A94FF08040ADF87B
:1033F0001030ADF81C40ADF81E40ADF81840ADF8E7
:103400001A40ADF81240ADF81440ADF816500BF06C
:103410000DF804A94FF080400BF04CF804A94FF0D0
:1034200080400BF089F8304604A90AF0BBFF304613
:1034300004A90AF0FBFF304604A90BF03BF8304624
:1034400004A90BF079F8404604A90BF033F8404684
:1034500004A90BF071F84FF0804213889BB243F03F
:103460000103138033889BB243F001033380B8F823
:1034700000309BB243F00103A8F800300D4B5D8291
:103480009D81DD809D82DD811D81DD821D825D81CA
:103490001C835F839F83DF831C845C849C84DC8427
:1034A0001C8508B0BDE8F08100080140000C014017
:1034B00000040040A01C0020000800402DE9F0435B
:1034C000060226F0404626F0FF0606F1604686FB1F
:1034D0000645A30F43EA8503334CAF17C3F1000E33
:1034E00004FB07ECA3FB044565444FEA947C2F4C96
:1034F0004CEA850C644404FB07FC4FEAE47903FBC7
:1035000009CCA4FB034565444FEA947C284C4CEA63
:10351000850C644404FB07FC4FEAE47903FB09CC07
:10352000A4FB03456544A40FDFF890C044EA85047A
:10353000A444204CC0F3815004FB07EEA3FB0445D8
:103540007544A40FDFF878E044EA8504A644744685
:103550000EFB07F7E51703FB0577AEFB0345164B9C
:103560003D44A40F44EA8504234483FB0667B30F5C
:1035700043EA87030228C3EB0C04634408D0032802
:103580000CD0012801D00C6005E00B60644207E01C
:1035900064420C605B421360BDE8F0835B420B60E9
:1035A0001460BDE8F08300BF9D2B16FF60DC780B34
:1035B00000732BC81CBB8CFC00C7EAB8C03C412D73
:1035C00020B5311D2DE9F84F05464B68886883FB0F
:1035D000038983FB00AB0A69CC684FEA98774FEA0E
:1035E0009A7848EA8B0884FB02AB4FEA9A7141EA69
:1035F0008B0180FB04AB4FEA9A7646EA8B0683FB8D
:1036000002AB88444FEA9A7141EA8B01761A80FB3B
:10361000020183FB04AB82FB0223800F40EA81009E
:10362000910F41EA830147EA89074FEA9A7E4EEA01
:103630008B0E3944CEEB000001F16041FCF7ECFD4C
:103640000EF076FC10490EF0C7FC28604FEA4800E7
:10365000FCF736FE0EF06CFC0C490EF0BDFC84FB52
:103660000423910F41EA8301394401F1604168600C
:103670003046FCF7D1FD0EF05BFC03490EF0ACFCCC
:10368000A860BDE8F88F00BF000034B400003434F7
:103690002DE9F04D8B68CA684C680E6983FB02AB5C
:1036A00084FB066782FB022384FB0445920FA10F73
:1036B00042EA83028046B60F4FEA9A7041EA8501DA
:1036C000114440EA8B0046EA870601F16041801B05
:1036D000FCF7A2FD0EF02CFC03490EF07DFCC8F8AF
:1036E0000000BDE8F08D00BF000034B42DE9F04FBC
:1036F000044687B008688946FCF756FD694601AA6A
:103700004010FFF7DBFED9F80400FCF74DFD02A9DD
:10371000401003AAFFF7D2FE019B0398029A83FB95
:10372000006783FB02AB009BD9F8089083FB000184
:1037300083FB0223B50F4FEA907845EA870548EAF4
:1037400081084FEA9A77960F4846002147EA8B078F
:1037500046EA83060EF0D4FD28B16560A760C4F880
:103760000C8026613FE04846FCF71EFD04A940108E
:1037700005AAFFF7A3FE059B049A85FB03014FEA08
:10378000907E4EEA810E86FB0201800F40EA8100A6
:10379000C0EB0E01616087FB03014FEA907E4EEAA9
:1037A000810E88FB020188FB0389800F40EA8100BB
:1037B000C0EB0E014FEA987040EA890087FB02894E
:1037C00086FB036785FB0223A1604FEA987141EAFB
:1037D00089010144E160920FB10F41EA870142EA99
:1037E00083020A44226107B0BDE8F08F4B68436052
:1037F0008B685B428360CB685B42C3600B695B4252
:10380000036170472DE9F0474F685668D1F808808A
:1038100087FB0667D2F808C04FEA967949EA87091C
:1038200088FB0C67CD68D2F80CE0B60F46EA870635
:10383000B14485FB0E670B691469B60F46EA87062B
:10384000B14483FB0467B60F46EA87064E444660E0
:10385000D1F804A0D2F804908AFB0C674FEA967C5A
:103860004CEA870C88FB0967B60F46EA8706C6EB69
:103870000C0C85FB0467B60F46EA8706C6EB0C0CFA
:1038800083FB0E67B60F46EA8706664486608AFBAE
:103890000E674FEA967E4EEA870E85FB0967D2F8DF
:1038A0000880B50F45EA870583FB0867D1F808C093
:1038B000C5EB0E0EB50F45EA87058CFB0467C5EB1B
:1038C0000E0EB50F45EA87057544C5608AFB0445B1
:1038D000D668A20F42EA850283FB0945A30F43EA9B
:1038E0008503C9688CFB064581FB0889D21AA30FA2
:1038F00043EA8503D21A4FEA987343EA89031A44CC
:103900000261BDE8F0872DE9F0474F685668D1F8AD
:1039100008C087FB0667D2F808804FEA967949EA23
:1039200087098CFB0867D1F80CE0D568B60F46EA2A
:103930008706B1448EFB056713690C69B60F46EA2A
:103940008706B14484FB0367B60F46EA87064E44F8
:103950004660D2F804A0D1F804908CFB0A674FEAC5
:10396000967C4CEA870C89FB0867B60F46EA870607
:10397000C6EB0C0C8EFB0367B60F46EA8706C6EB58
:103980000C0C84FB0567B60F46EA87066644866022
:103990008EFB0A674FEA967E4EEA870E89FB056723
:1039A000D2F80880B50F45EA870584FB0867D1F88F
:1039B00008C0C5EB0E0EB50F45EA87058CFB036703
:1039C000C5EB0E0EB50F45EA87057544C56084FB4F
:1039D0000A45D668A20F42EA850289FB0345A30F78
:1039E00043EA8503C9688CFB064581FB0889D21A26
:1039F000A30F43EA8503D21A4FEA987343EA890377
:103A00001A440261BDE8F08708B50EF091FA4FF054
:103A10004E510EF0E1FA0CF06FFE4FF097410EF0B0
:103A2000DBFA0EF09FFC08BD032130B5002380F8BF
:103A300024104FF08041C3600360836103614360E1
:103A4000C361436143630363C3624FF08072816269
:103A5000436500F15C05002300F1240482600262EA
:103A6000026583650FCC0FC50FCC0FC594E8070026
:103A700085E8070030BD01F1280351F8042B994275
:103A800040F8042BF9D170472DE9F84F0E46074650
:103A90000868896880018901FCF7BEFB0EF048FACE
:103AA0002B490EF099FA3860706806F12404800101
:103AB000FCF706FC0EF03CFA26490EF08DFA0023C6
:103AC0007860BB602046394606F15C05FFF70EFEC4
:103AD0000FCC0FC50FCC0FC594E8070085E8070091
:103AE000F16A706BB26A81FB00AB346B4FEA9A7378
:103AF00043EA8B0382FB04AB4FEA9A7545EA8B05D8
:103B000082FB01895B1B84FB004543F35913B361BE
:103B10004FEA9871A30F41EA890143EA85030B44F8
:103B200043F35913F36182FB022380FB0001920FE0
:103B300042EA8302830F43EA8103134403F16043A3
:103B400043F359133362BB68B365BDE8F88F00BF18
:103B5000000034B4000034342DE9F04FA2F1040B1E
:103B600089460646144659461F46136897B0059382
:103B7000536802F10808069393684FF0000A079310
:103B800051F8042F82FB0223CDE90023009B41451D
:103B90004FEA1362019B42EA03229244F0D150465D
:103BA000FFF732FF05464FF4803100202A46EB171D
:103BB0000EF01EFC5BF8042F82FB0023CDE90023EE
:103BC000009BC3454FEA1362019B42EA0322CBF8F4
:103BD0000020EFD13A68B74B9A4206DC30462146C6
:103BE00017B0BDE8F04FFFF74FBF226AD4F804B01A
:103BF000D4F808E08BFB0201D4F81CC0030E43EAA2
:103C000001238EFB0C01CDE900010099080E0199FA
:103C100040EA0120A1691B1A8EFB0101029323686F
:103C20004FEA106E4EEA012E83FB0201020E42EAB9
:103C3000012283FB0C01C2EB0E02A3690392020E68
:103C400042EA01228BFB0301030E43EA0123D21A4D
:103C50003B8A0492012B40F0B1800022134602A956
:103C600051F82200013280FB0001CDE900010099EA
:103C7000032A4FEA1160019940EA01200344EED182
:103C800083FB0AAB00234FEA1A6E04F1140AD446F0
:103C90001A464EEA0B2E05A951F823005CF8041FC2
:103CA000013380FB0101CDE900010099032B4FEAAC
:103CB0001160019940EA01200244ECD102F17F42F7
:103CC00082EAE273A3EBE27383FB0323CDE90023D3
:103CD000009BF9691A0E019B42EA032281FB022331
:103CE000100E40EA03207044FFF78EFE41464FF06D
:103CF000000E51F8042FCB68514582FB0323CDE918
:103D00000023009B4FEA1362019B42EA0322964480
:103D1000EFD105F17F4383EAE375A5EBE3757B699A
:103D20009D4224DB44F28813BA699A4222DD8EEA6E
:103D3000EE7A3B6AAAEBEE7AC0EB0A0A83FB0AAB87
:103D40004FEA1A6343EA0B230344D91709061806FE
:103D500041EA1321D3170EF04BFBC0F18070B0F194
:103D6000807FA8BF4FF0807020EAE07203E04FF040
:103D7000807200E00022216D8A42ACBF7B6A4E4B0C
:103D8000A2EB0102B5BF82FB03AB83FB02AB4FEAA0
:103D90001A624FEA1A63B5BF42EA0B2243EA0B23C9
:103DA00052185B18B4BF22652365236D4FF0C072B3
:103DB00083FB0223110E41EA032125E07A683F4B81
:103DC0009A421FDD05F17F4383EAE375A5EBE375B6
:103DD000A5F52335A5F55775E917A2F52332A2F508
:103DE00057720906280641EA1521D3170EF000FB89
:103DF000C0F18070B0F1807FA8BF4FF0807020EAE2
:103E0000E07101E04FF080713A686165B2F1C45F22
:103E10000BDC4FEAE17B4FEA0B63080643EA112112
:103E2000D3170EF0E5FA864601E04FF0000E0DF1D3
:103E3000040A524604F1140552F8040F8EFB0001E7
:103E4000030E43EA012358F8041F0B44A8451360EE
:103E5000F2D1BA681A4B9A4201DC00216AE00020D4
:103E60004FF48031D3170EF0C3FA80468B46F868C2
:103E7000A16D0DF0A7FF134907460EF05FFA10B1D0
:103E800038461149F5E7384610490EF043FA28B193
:103E900038460D490DF098FF0746F4E738460C49BF
:103EA0000EF038FAC0B938460A490EF051FAA0B1FE
:103EB000084F12E0B81E050033333300E4D002008F
:103EC00098991900000034430000B443000034C343
:103ED000000048C200004842A84FA94938460EF0E9
:103EE0007BF84FF097410EF077F80EF03BFA04F1B3
:103EF000200155F8042F82FB0023170E47EA032701
:103F0000FB1708FB03FEA8FB072307FB0BEECDE91D
:103F10000023019B8D4273440193009B4FEA13627F
:103F2000019B42EA03225AF8043F1A44CAF80020CF
:103F3000DFD192E702AB53F82120521082FB09AB8C
:103F40004FEA1A6242EA0B2243F821200131032989
:103F5000F0D12546039BDDF808E0D4F82C80D4F896
:103F6000309088FB0E0189FB03AB049FD4F834C06A
:103F7000820F4FEA9A7040EA8B008CFB07AB42EA53
:103F800081025242121A4FEA9A7040EA8B00121ACA
:103F90000C9255F8282F82FB0E014FEA907A4AEADC
:103FA000810A89FB0701CDE900010099880F019979
:103FB00040EA810082448CFB0301CDE900010099B5
:103FC000880F019940EA8100C0EB0A000D9082FB46
:103FD00003014FEA907A4AEA810A88FB0701CDE99A
:103FE00000010099880F019940EA8100C0EB0A0A9C
:103FF0008CFB0E01CDE900010099880F019940EA80
:10400000810050440E9082FB0701870F47EA810729
:1040100088FB0301820F42EA810289FB0E01830FB4
:1040200043EA81033A44D21A0F92002304330BAAC5
:1040300029689A58102B0A4445F8042BF6D104F14C
:1040400024052B4604F13407002253F8040F801195
:1040500080FB00894FEA186040EA0920BB42024415
:10406000F3D14FF4C00082FB0001030E43EA0123A9
:10407000C3F1A07383FB0201020E42EA0122C2F1E6
:10408000F07255F8040F80FB0201030E43EA01238E
:10409000BD422B60F5D1D4F82CE0636BA26A8EFB95
:1040A0000389256B4FEA987141EA890182FB0589F2
:1040B0004FEA987040EA890082FB0E894FEA9877B0
:1040C00047EA890785FB038983FB03AB081A4FEA9C
:1040D000987141EA89014FEA9A7C82FB02894CEA95
:1040E0008B0C8EFB05AB0F444FEA987141EA8901B6
:1040F0004FEA9A7949EA8B0982FB03AB00914000B1
:1041000061447F004FEAA01C01F160414900C4F8FE
:1041100018C04FEAA71CC4F81CC04FEA9A724FEAB5
:10412000A11CC4F820C042EA8B02C2EB0909FCF7CB
:1041300073F80DF0FDFE13490DF04EFF3060384668
:10414000FCF7BEF80DF0F4FE0F490DF045FF85FBBE
:104150000523910F41EA8301009B7060194401F12E
:1041600060414846FCF758F80DF0E2FE05490DF0B5
:1041700033FFB060A06517B0BDE8F08F000048C203
:1041800035FA8E3C000034B400003434172A70B580
:1041900000F251810B2A84BF043292B202F00C0368
:1041A00012F0100F9BB240F09B80042B36D0082BEE
:1041B00063D0002B40F03F8102F00302022A4B68DB
:1041C0008E680C694D6912D0032A1CD0012A05D0D3
:1041D0000A6880E84C00CB68C36012E05B42036071
:1041E0000B686442C46043608660CB6813E05B4246
:1041F0000A684360CB6852425B4202608660C360DB
:104200006442046108E003600B68C4605B42436081
:10421000CB6886605B420361456170BD02F00302BA
:10422000022A4C688D680B694E6912D0032A1AD095
:10423000012A06D080E830000A68C3608260066107
:1042400019E06D4205600A68764244608260C6608B
:1042500010E0644204600A685B426D42C3604560DE
:104260008260734206E005600A68644244608260CE
:10427000C6605B420361CB68DCE002F00302022A05
:104280008C684B6915D0032A1ED0012A07D0046020
:104290000A6842604A68C3608260CB681DE00A68B1
:1042A000524280E814004A688260CA685242C26082
:1042B00013E0644204600A685B42524242604A680A
:1042C000C3608260CB6807E00A68644244600260B1
:1042D0004A688260CA68C2605B4203610B69A9E0F8
:1042E000042B3AD0082B6CD0002B40F0A48002F0B5
:1042F0000302022A4D688C680E694B6916D0032AA6
:1043000020D0012A07D005600A686442C660426076
:104310008460CA681FE00A686442524280E8240050
:10432000CA6884605242C260066182E06D420560E4
:104330000A686442524242607242C260CA68846043
:10434000524208E00A686D420260CA686442C26074
:1043500045608460724202616BE002F00302022A4F
:104360004C688B680E694D6914D0032A1ED0012A4F
:1043700006D080E818000B68C5605B42836013E0DC
:104380006442046043600B6876425B428360C660AF
:10439000056114E05B4203600B6864425B4283602A
:1043A0006B424460C3607642066108E05B42046091
:1043B00043600B68C6605B4283606B420361CB68FD
:1043C00037E002F00302022A8B684C6917D0032AF7
:1043D00023D0012A08D00A6880E80C004B685B42B1
:1043E0008360CB68C36016E05B4203600B68644285
:1043F00043604B68C4605B428360CB6817E05B42FC
:104400000A6843604B6852425B428360CB6802603B
:104410005B42C360644204610AE003600B685B4274
:1044200043604B68C4605B428360CB685B4203615E
:104430000B695B42436170BD01480BF0A6BD00BF34
:1044400000280140024A938801339380704700BFDF
:104450004C0D0020044BDB885843000AB0F5FA6F7E
:104460002CBF80B2002070474C0D002038B51025BD
:104470000024FFF7E1FF013D204484B2ADB24FF4C8
:10448000FA60FBF7B2FF002DF3D12009FFF7E2FF3E
:10449000014B588038BD00BF4C0D002008B5FFF718
:1044A000CBFFFFF7D7FF014B588008BD4C0D002014
:1044B00041F27B51134B5A888A4201D800221DE0F9
:1044C00042F2FB118A4201D8022217E043F2C721CF
:1044D0008A4201D8032211E044F293318A4201D882
:1044E00004220BE045F2FB318A4201D8052205E0A7
:1044F00046F263418A4294BF062207221A80188836
:10450000704700BF4C0D002041F27B5310B50A4CA0
:10451000618899420DD9642202FB00F3208803F5DB
:104520002F639BB2584380B281422CBF00200120F0
:1045300010BD012010BD00BF4C0D002041F27B5288
:104540000E4B10B559881C46914204D84FF47A722C
:104550009A80012010BDFFF7D7FF30B1A388B3F5D3
:104560007A7F03D20133A38000E0A080A088B0F559
:104570007A7F34BF0020012010BD00BF4C0D002009
:1045800070B54FF4004092B00BF0F0FB40F20540E4
:1045900001210BF043FC20230025ADF804306548D1
:1045A000032301A901248DF806308DF807500BF084
:1045B0002FFA4FF46023604802A904938DF80D4050
:1045C000059502958DF818408DF80C500BF04AFCBB
:1045D00059480521224607230BF095FC56482146F1
:1045E0000BF064FC54480BF073FC53480BF075FC63
:1045F0000028FAD150480BF074FC4F480BF076FCC1
:1046000004460028F9D101214B480BF073FC4FF40C
:104610007A70FBF7EAFE494B01204FF4AF62014686
:10462000DA801C809C805C801C810BF0EBFB444892
:104630000BF060FE434B03260793434B404808931F
:1046400080230C934FF480730D934FF480630E938B
:1046500020230F9307A94FF40053109309940A964F
:104660000B9411940BF0BEFE354801210BF0D8FEDF
:1046700040F2112001210BF0D1FB01254FF4602302
:10468000324802A9049302948DF80C508DF80D5015
:1046900005948DF818600BF0E5FB2A4607232B489C
:1046A0000A218DF807408DF806600BF02CFC284895
:1046B00001A9ADF804500BF0ABF9022223480B21FD
:1046C00007230BF020FC0223214801A9ADF8043098
:1046D0000BF09EF932461D480C2107230BF013FC0A
:1046E00004230DEB03011A48ADF804300BF090F9E8
:1046F000164829460BF0E3FB144829460BF0D6FB7D
:1047000012480BF0E5FB11480BF0E7FB0028FAD14B
:104710000E480BF0E6FB0D480BF0E8FB0028FAD141
:1047200001210A480BF0E6FB4FF47A70FBF75DFEBF
:1047300012B070BD00080140002801404C0D00205F
:10474000080002404C240140981A00200024014037
:1047500000100140400003228240D243094BD96D32
:104760001140D965196E11401966596E114059668C
:10477000996E0A409A660022A3F86C20A3F86E2076
:10478000704700BFE00E0020022905D1012814BFA8
:1047900000204FF4FA7017E0032907D101280ED04A
:1047A00002284FF60C6018BF00200DE0012806D04B
:1047B000022807D0032814BF0020FA2004E04FF499
:1047C000FA7001E04FF60C6000B27047044B4200F3
:1047D000DB6D032090401840D04080B2FFF7D4BF7B
:1047E000E00E002010B5074C4200236E03209040DD
:1047F00018404340D040236680B2BDE81040FFF728
:10480000C3BF00BFE00E002008B3072803D90B3850
:104810000F2819D97047012803D10D4B1B88063B7F
:1048200004E0032806D10A4B1B88013B9BB2042BF2
:104830000DD904E0022802D1054B5B883BB9013851
:1048400080B2C9B2FCF748BF0846FDF7CFBF70473A
:10485000E00E002010B500239AB28A4209D00A4A1D
:1048600002EB43029288A2F10B040F2C06D982427C
:1048700008D001330C2BEFD1002010BDA0F10B02AA
:104880000F2AF6D8012010BDE00E0020424B2DE982
:10489000F0411C880646A0427CD0002519462F46D0
:1048A000A84621F8020B03F11A0231F8023F012B4E
:1048B00003D0032B08BF012700E098460B3B0F2BCA
:1048C00098BF01259142F0D1AEB9631E042B06D8E2
:1048D000FCF774FE1FB102200121FCF7FDFEA31FAF
:1048E000042B08D8FDF724FDB8F1000F03D00020F9
:1048F0000121FCF7F1FE731E042B0DD834B9022000
:10490000FCF774FD15B10120FDF770FF631E042B49
:1049100007D9A31F042B08D9063E042E17D9BDE8DA
:10492000F0810120FDF762FFF3E7FDF701FDB8F12B
:10493000000F03D000200121FCF7CEFE0220FCF77F
:1049400055FD002DE8D00120FDF750FFE4E734B914
:104950002046FCF74BFD15B10120FDF747FF631E14
:10496000042B0DD8FCF72AFE1FB102200121FCF711
:10497000B3FE0020FCF73AFD15B10120FDF736FF2C
:10498000063C042C01D9BDE8F0810120BDE8F041CE
:10499000FDF72CBFBDE8F081E00E002038B5184BC4
:1049A00004465A8882422AD01A46002522F8020F6D
:1049B0001A3332F8021F022908BF01259A42F8D1A2
:1049C00044B9FCF737FED5B1BDE8384001200146B7
:1049D000FCF782BE0120FCF709FD012C03D144F253
:1049E0005060214604E0022C06D14FF47A60012188
:1049F000BDE83840FCF75CBF44F62060F7E738BDFF
:104A0000E00E002070B50C46164A4300D1188D8880
:104A10000646AC4224D0A4F10B000F281BD9134446
:104A20002A2C9C8000D9FEE731462846FFF712FF6A
:104A3000014610B92846FFF7E7FE20463146FFF74A
:104A400009FF18B920460121FFF7DEFE3046BDE818
:104A50007040FFF77FBEA5F10B000F28DFD88C80D8
:104A600070BD00BFE00E00202DE9F043002397B099
:104A700000222DF8132001332B2BF9D1694E324639
:104A800006F1180732F8023F2A2B00D9FEE716A9D3
:104A900001EB4303BA424FF0010123F8581CF1D156
:104AA00000253DF915301FFA85F9002B00F095809F
:104AB00009F1FF34282C00F28D80DFE804F0151591
:104AC000151515151525252534343434343434346E
:104AD000343434343434343457575760668B6C8BE9
:104AE00060668B6C8B606600A4B22046FDF728FAE6
:104AF00000286AD02046FDF7EBF900286AD14A4B1E
:104B000003EB4404648A2EE0484BA9F108091FFA1C
:104B100089F933F81940464BA4B21C81A408A4F5C6
:104B20000074A4B257E0434BA9F10B09B3F800801D
:104B30001FFA89F908F1FF33042B48D90024A8F1A2
:104B40000608B8F1040F46D84846FDF77FFE002856
:104B500041D04846FDF772FE00283CD1364B03EBAE
:104B60004909B9F80240A4F2DC54DAE733480AF004
:104B70009DFF10F0080F2DD14FF4FA742BE0304850
:104B80000AF094FF10F4804FF5E72D480AF08EFFED
:104B900010F4004FEFE72A480AF088FF400405D5DB
:104BA00027480AF083FF4104E6D506E024480AF0CE
:104BB0007DFF0204F4D4FA240DE021480AF076FFC8
:104BC000030407D44FF60C6405E0044603E0B9F192
:104BD0000B0F11D900242DF8154001352B2D7FF432
:104BE00060AF36F8023F16AA02EB430333F8583C95
:104BF000BE423383F5D112E04846FDF7D1F960B1EA
:104C00004846FDF795F9002898D10E4B03EB490370
:104C10009C88A4F2DC54A4B291E704468FE717B055
:104C2000BDE8F083E20E002080140020981A0020D6
:104C30004C0D0020E00E00206819002000100140FB
:104C4000000C0140C814002000210B461E4A70B51C
:104C5000D46D5018808B05B2B5F5A77F01DB01201C
:104C60000FE080B2A0F1E006342E01D8032008E066
:104C7000A53080B2B0F5A57F09D915F5A77F02DC74
:104C80000220884002E00320884020400343023194
:104C90001829DED1506E63401840C043916E5066B3
:104CA0001940414003400B405C409166116E234027
:104CB0000B431366B2F86C30D4651BB1024A013B5A
:104CC000A2F86C3070BD00BFE00E00202DE9F74F58
:104CD000604F81468A469346B8460026B988B0B2EE
:104CE0004B1EBD8F292B00F29780DFE803F01515CE
:104CF000151515151528282815151515151515152B
:104D0000151515151515151552545D5252528484FA
:104D10005454548B8B5D5D5D022EBC8B9EBF3AF864
:104D20001630E41AA4B224B2B4F5FA7F4A4BA8BFF5
:104D30004FF4FA749C42B8BF1C46A4B220E0143170
:104D400058F82140B7F91C2044FA0BF3022EA2EBCD
:104D50000303234498BF3AF8162048F8213043FA59
:104D60000BF39CB29CBF9B1A9CB223B2B3F5FA7FA3
:104D7000394CA8BF4FF4FA73A342B8BF23469CB284
:104D8000364B33F81610002947D0FFF71FFD0546B4
:104D900048E0022132E00221FFF724FD002840D044
:104DA0002DB2A72D3BDD37E00221FFF71BFD60B1DF
:104DB000B8F86E30274A01339BB2042B88BF042316
:104DC000A2F86E303223A8F86C30B8F86E00214C8F
:104DD00038B3B4F86C3023BB204A013880B232F8C3
:104DE00016100193FFF7D0FC019B0546A4F86E3026
:104DF000A4F86C3015E0194B33F81610FFF7E6FCF9
:104E000005460EE0154B33F81610FFF7EBFC044691
:104E100038B12DB2854200D10024254602E04FF47E
:104E2000FA752C4629F8165009F11802BD87072398
:104E30009E4203F1010308BF14800B2B02F1020212
:104E4000F6D101360C2E07F102077FF447AF03B00D
:104E5000BDE8F08FE00E00200CFEFFFFAC2F010834
:104E60004FF6FF73984210B504460DD13C4A02F14B
:104E70001801002322F8023F8A42FAD1394A936688
:104E800053661366D36510BDE00704D5354B00208B
:104E90009887FFF75FFCA10705D5324B0022012060
:104EA000DA87FFF757FC620706D52E4B0022022057
:104EB000A3F84020FFF74EFC230706D5294B00221C
:104EC0000320A3F84220FFF745FCE00606D5254B5A
:104ED00000220420A3F84420FFF73CFCA10606D5DD
:104EE000204B00220520A3F84620FFF733FC620682
:104EF00006D51C4B00220620A3F84820FFF72AFC09
:104F0000230606D5174B00220720A3F84A20FFF7F7
:104F100021FCE00506D5134B00220820A3F84C2005
:104F2000FFF718FCA10506D50E4B00220920A3F8B7
:104F30004E20FFF70FFC620506D50A4B00220A201F
:104F4000A3F85020FFF706FC230508D5054B0022E7
:104F5000A3F852200B20BDE81040FFF7FBBB10BDAB
:104F60001A0F0020E00E002013B51C2001210AF0CA
:104F700055FF48238DF80730032302AC8DF8063027
:104F80004FF4804324F8043D184821460AF040FDC0
:104F90004FF4004315482146ADF804300AF038FDBF
:104FA000082313482146ADF804300AF031FD1149B9
:104FB00000200A460230002318288B808B878B83C1
:104FC00001F10201F6D19386D38613875387936646
:104FD00053661366D36513805380136753679367D3
:104FE000D367C2F8803002B010BD00BF000C014092
:104FF00000100140E00E00200E4B042814D8DFE81A
:1050000000F003060A0D100040F2312201E04FF4D7
:10501000EC721A800AE040F2D312FAE740F2C112B1
:10502000F7E744F24F62F4E7800818801A88024BD1
:105030009A857047700F0020000C0040024A1368E8
:1050400023F0080313607047000801404FF6FF7219
:105050002DE9F041204C804623880D469BB29342B7
:1050600037D1032835D8032933D8FFF7E7FF0222C9
:105070001A4B002090452080194E1A80194F05FACE
:1050800002F410D0B8F1030F13D0B8F1010F05D01E
:1050900003203C44FFF7B0FFA3690FE03C44FFF757
:1050A000ABFFA36A0AE004203C44FFF7A5FFA36B13
:1050B00004E001203C44FFF79FFFA36C736073681A
:1050C0001B8833B1BDE8F041012107480A4609F0C9
:1050D00073BABDE8F08100BF400800203410002002
:1050E000700F0020AC2F0108000C004038B51D4C9B
:1050F0000121204609F046FB0128014631D1204616
:1051000009F04BFB184B1A88013A92B21A801A88A0
:1051100092B232BB154A5568154A118889B2481CAB
:1051200080B2108035F8111019801988114B89B29E
:1051300069B9196821F008011960A38923F00103F6
:105140001B041B0CA3814FF6FF73138038BD12881C
:1051500012F0010F1A6814BF42F0080222F0080290
:105160001A6038BD000C004034100020700F002081
:105170004008002000080140F0B501208BB0FFF787
:105180003BFF314C082001210AF054FE052001218B
:105190000AF044FE012514230326204601A98DF8B8
:1051A00007308DF80660ADF804500AF031FC2A464D
:1051B000204629460AF081FC244F0AA921F81C6DDB
:1051C000234E3B8800243046ADF81030ADF8124035
:1051D000ADF80E4009F09CF86023ADF818303B881C
:1051E00006A903EB8303DB103046ADF81E30ADF8A3
:1051F0002440ADF82640ADF82040ADF82240ADF88F
:105200001A50ADF81C4009F0CDF832238DF8083063
:105210000F238DF8093002A802238DF80A308DF88B
:105220000B500BF025F930462946224609F0C4F907
:10523000FFF704FF4FF6FF72064B304629461A80EF
:1052400009F0AEF90BB0F0BD00080140700F00206E
:10525000000C00404008002010B51C4C208900289C
:1052600033D001280DD123685A884FF47A73534301
:1052700040F2DC5293FBF2F3636002232381FEF7DA
:105280002BF86368114AF3B91189136833F81100D8
:105290004FF47A73584340F2DC5390FBF3F0013142
:1052A0005060118120B9BDE810401081FEF714B89C
:1052B00042F21073984202DD0123138110BDBDE854
:1052C0001040FEF743B8013B536010BD2415002089
:1052D000034B1A8912B9012218601A81704700BF66
:1052E00024150020024B00201881FDF7F5BF00BFF8
:1052F00024150020024B002058601881FDF7ECBFF8
:1053000024150020F8B5AC4C1022002120460DF0E9
:105310002BFCAA4920460DF073FD4FF4FA73A4F854
:105320004230A4F84430A4F8463096234FF47A7201
:10533000A4F84830A4F84A30A4F84C3014230025CF
:105340004FF4C8714FF4FC704FF0040C322719264B
:10535000A287E287A4F84020A4F84E30A4F8503089
:10536000A4F85230A4F88C2002230122A4F834C0FF
:10537000E18621876187A4F85E70A4F86E30A4F8F6
:105380007A00A4F87030A4F87C00A4F87230A4F875
:105390007E00A4F85450A4F85A50A4F85650A4F82B
:1053A0005C50A4F85850A4F87450A4F87650A4F8AF
:1053B0007850A4F89060A4F89220A4F896700E2774
:1053C000A4F86870A4F86A70A4F86C700327A4F8B5
:1053D000AA70A4F8AC70A4F8AE7040F20E674FF655
:1053E000067E2820A4F8B4700A27A4F89400A4F834
:1053F000BA701E200527A4F89A00A4F8BC70FA2001
:105400004FF49677A4F89C00A4F8A030A4F8A2204A
:10541000A4F8B020A4F8DE30A4F8EAE0A4F8F00084
:10542000A4F8F610A4F89860A4F89E50A4F8A4502C
:10543000A4F8A650A4F8A850A4F8B250A4F8B65006
:10544000A4F8B850A4F8BE50A4F8C050A4F8C250B4
:10545000A4F8C650A4F8E450A4F8FC70A4F8E03016
:10546000A4F8E230A4F80831A4F80E3140F2DC537D
:10547000A4F8123140F24C43A4F8143140F26C739A
:10548000A4F8ECE0A4F8F200A4F8F810A4F8EEE018
:10549000A4F8F400A4F8FA10A4F80421A4F806C1B2
:1054A000A4F8C850A4F8E650A4F8FE70A4F8CA50B6
:1054B000A4F8E850A4F80071A4F8CC50A4F8025164
:1054C000A4F8CE50A4F8D050A4F80A51A4F80C5176
:1054D000A4F81051A4F8D250A4F8D450A4F8D6508F
:1054E000A4F8D850A4F8DA50A4F8DC50FF21A4F8AE
:1054F0001631A4F81C01A4F82621A4F8242104F5EF
:1055000098708022A4F81851A4F81E51A4F8645091
:10551000A4F82051A4F82251A4F86650A4F86050D1
:10552000A4F86250A4F8C450A4F88050A4F886509F
:10553000A4F88250A4F88850A4F88450A4F88A50A3
:10554000A4F88E60A4F8B051A4F8B251A4F81A518E
:105550000DF00AFB4FF40053A4F8BE31A4F8BC319F
:10556000A4F8BA31A4F8D031A4F8CE31A4F8CC31E3
:105570004723A4F82831A4F8B8514323A4F8B6511E
:10558000A4F8B451A4F8C451A4F8C251A4F8C0516D
:10559000A4F8CA51A4F8C851A4F8C651A4F8D65129
:1055A000A4F8D451A4F8D251A4F82E51A4F82A3169
:1055B000A4F82C51F8BD00BF9C120020734A0108CA
:1055C0000248FF214FF4F0720DF0CEBA9C12002079
:1055D00002484FF4F071FBF777BD00BF9C1200202A
:1055E00002484FF4F071FBF757BD00BF9C1200203A
:1055F000FBF73CBD4FF4F071FBF766BD4FF4F07163
:10560000FBF74ABD0023034A22F8130001337D2B28
:10561000F9D17047D60900207C2897BF034B00239F
:1056200053F820301B880B80704700BF000000201B
:10563000038810B57C2B10D8094A52F823104288F1
:105640000C880A809442074A4FF001000ABF0021EB
:1056500022F8130022F8131010BD002010BD00BF67
:1056600000000020D609002010B500230B4A52F894
:105670002320128820F8132001337D2BF6D1084A0D
:1056800000F1F90300F2791012F8014F03F8014F0D
:105690008342F9D14FF4BD730B8010BD0000002090
:1056A000CB13002030B50023124A52F8231030F8F3
:1056B00013200C880A8094420F4A14BF0121002154
:1056C00022F8131001337D2BEED100230B49A2F8F1
:1056D000F83000F1F90300F2791013F8014F0D785A
:1056E00001F8014BA5421CBF0125A2F8F8508342E6
:1056F000F3D130BD00000020D6090020CC130020DB
:1057000010B504460020FFF77DFF7C2C12D80A4B11
:105710000A4853F824200A4B11881B1AD35A9BB20B
:1057200013809942074B1CBF012223F8142000224A
:10573000A3F8F82010BD00BF000000209C1200203C
:1057400010D00708D609002030B500230C490022EC
:1057500021F813200B4A0C4D52F823000B4A048801
:10576000521B825A92B2944202801CBF012021F83F
:10577000130001337D2BE9D10023A1F8F83030BDAF
:10578000D6090020000000209C12002010D007083D
:1057900038B5FFF715FFFBF7ABFCC0B2042802D009
:1057A000FFF70EFF04E0FFF71BFFC0B20428F7D19C
:1057B000604C638E5F2B7DD0FFF7A4FD638EA3F159
:1057C0005902032A19D8FFF70BFF0023A4F8603011
:1057D000A4F86230B4F82431022B01D1052306E08D
:1057E000052B01D1022302E0062B02D10723A4F8E6
:1057F00024310023A4F8663005E05D3B012B08D876
:10580000FFF7EEFE0023A4F85830A4F85630A4F8B1
:10581000543043F2C823B4F9BA11464A994203DC22
:10582000B2F9BC11994202DD424B00220BE0B2F901
:10583000BE219A42F8DC43F2C823B4F9CC113D4AA8
:10584000994216DC11E0B3F9B401B3F9BA1102259B
:1058500090FBF5F091FBF5F12A44062AA3F8B40178
:10586000A3F8BA112B44EED1E5E7B2F9CE11994273
:1058700002DD304B00220BE0B2F9D0219A42F8DC75
:105880005F232D482D49638601250DF0B9FA12E0FA
:10589000B3F9C601B3F9CC11022590FBF5F091FBE9
:1058A000F5F12A44062AA3F8C601A3F8CC112B442B
:1058B000EED1E5E70025228E1E4BCB2A14D0CB2259
:1058C0001A8603F11F022F33002102F8011F9A42AA
:1058D00002F8101CF8D11A491A480DF091FA1A482A
:1058E0001A490DF08DFA01251648154910220DF0C0
:1058F00013FB28B91448154910220DF00DFB90B187
:10590000134B03F11001002203F8012F8B4203F81F
:10591000102CF8D10A490B480DF072FA0B490A48CD
:105920000DF06EFA00E01DB1BDE83840FFF750BE43
:1059300038BD00BF9C12002074140020804A01086A
:10594000854A0108AC120020BC1200208E4A0108D2
:10595000BB1200200148FFF751BE00BF9E1A002075
:105960000148FFF747BE00BF9E1A002007B5034657
:105970000A464FF6FF7102A820F8021D1946FAF7F1
:1059800027FDBDF8060003B05DF804FB73B50446BF
:105990009DF81850FE2303704570124802AE837ABA
:1059A000ADB2A370013383724FF6FF7326F8023D48
:1059B000E170227130466A1D611CFAF709FD9DF8FD
:1059C0001C003146FAF71AFC6278BDF80630A11DBA
:1059D0008B5462781B0A0A4405F10800537002B028
:1059E00070BD00BFBC0700200A4A0346118E012982
:1059F0000DD0A0F52F71B1F5C86F4FF0010003D89D
:105A0000A3F2DC535382704713B91085704700200E
:105A1000704700BF580D00200A4A0346118E012925
:105A20000DD0A0F52F71B1F5C86F4FF0010003D86C
:105A3000A3F2DC539382704713B95085704700205E
:105A4000704700BF580D00200A4A0346118E0129F5
:105A50000DD0A0F52F71B1F5C86F4FF0010003D83C
:105A6000A3F2DC53D382704713B9908570470020AE
:105A7000704700BF580D002038B5094B0D461B8EEE
:105A80001446012B09D0FFF7AFFF2846FFF7C4FFEC
:105A90002046FFF7D9FF012038BD002038BD00BFE8
:105AA000580D002030B50E4C258E012D16D06160AA
:105AB000D907A26054BF01220022A2819A0754BFD5
:105AC0000122002213F0040F206018BF00234FF0C2
:105AD0000100E2810CBF2082238230BD002030BD56
