:020000040800F2
:10000000082A0020CD200008C9200008C9200008C7
:10001000C9200008C9200008C9200008000000000D
:10002000000000000000000000000000C9200008DF
:10003000C920000800000000C92000080D37000892
:10004000C9200008C9200008C9200008C9200008EC
:10005000C9200008C9200008C9200008C9200008DC
:10006000C9200008C9200008C9200008C9200008CC
:10007000C9200008C92000088D0D0008990D00084E
:10008000590D0008650D0008C9200008C9200008A6
:10009000ED360008C9200008C9200008C920000862
:1000A000C9200008C9200008C9200008B53C000884
:1000B000C9200008C9200008C92000083D0D00081B
:1000C000490D0008710D00087D0D0008C9200008C9
:1000D000C9200008C9200008C9200008993000087C
:1000E000C9200008C9200008C9200008C92000084C
:1000F000C9200008C9200008D13D0008C920000817
:10010000C9200008C920000829670008C920000884
:10011000C9200008C9200008C9200008C92000081B
:10012000C9200008C9200008C9200008C92000080B
:100130005FF808F110B5064C18B9236801221A823D
:1001400010BD044B18680168884720680A3010BD4C
:10015000180C0020140C002010B5064C18B92368A8
:1001600001221A8210BD044B1868816888472068F4
:100170000C3010BD180C0020140C002008B5234AC8
:1001800018B9136802221A8208BD214B0020126898
:100190001880117811F07F0113D1507A00F02002FD
:1001A000D1B209B102221A7000F04003D8B2184B44
:1001B00018B11A7842F001011EE0197821F001010E
:1001C0001AE001291FD002291ED1507900F00F0238
:1001D0004FEA820110F0800F01F1804000F5B84233
:1001E000116803D001F03002102A03E001F44050FE
:1001F000B0F5805F01D101211970064B18680169C3
:100200008847034808BD184608BD00BF180C0020E9
:10021000A6070020140C0020F8B5224B1C68238A86
:10022000267AABB9042E13D11F48017801291F4942
:100230000AD11F4C226894B21E4AA21852001360C1
:1002400030220A80037028E010260E80072624E062
:10025000A58AA169AB428CBF022604269D4228BF15
:100260001D46284688470746002002F019F82A460E
:10027000014638460AF062F92946002002F02CF8BF
:10028000208A638A421BED1808480B4B22823021DA
:100290004FF44052018065821A80024B1868067242
:1002A000F8BD00BF180C00205C070020E607002006
:1002B000505C004002300020E407002010B50A4BDB
:1002C0000A4918684B78C27893420AD3817841B9B9
:1002D000848834B982720648026853689847204679
:1002E00010BD022010BD00BF180C002034010020FA
:1002F000140C002038B50E4A0E4C10682368826931
:10030000D9785879904721688B7A7BB170B9087990
:1003100060B98D7855B9084A1168CB68984720684C
:100320004279C178C2720173284638BD022038BDB7
:10033000F00B0020180C0020140C002010B5324BDC
:100340001B68187810F07F0004D15A7A22F020013F
:10035000597210BD022855D15A88002A53D11979F3
:10036000002950D15A7922F080004FEA800404F12C
:10037000804101F5B8442168244C12F0800F2478A4
:1003800014BF01F0300101F44051A0423AD20029DB
:1003900038D09B7A002B35D0840002F0800204F123
:1003A0008043D1B203F5B844226861B102F0300253
:1003B000102A21D1C4B2204601F03FFF204630214F
:1003C00001F0BEFE18E002F44051B1F5805F13D198
:1003D00028B90F4B93F82C1001F08CFF01E001F0CD
:1003E0001AFF20684BF68F72024082F4405141F4AC
:1003F000004343F08000206006490B68586980473D
:10040000002010BD022010BD180C00203401002077
:10041000E0000020140C002010B51F4B19684A7929
:1004200022F080034FEA830000F1804404F5B840D5
:100430001A4C0068247812F0800F14BF00F03000CE
:1004400000F44050A34224D24C8814BB08B3897AEC
:10045000F9B19B0003F1804102F0800201F5B8433D
:10046000D0B2196828B148F6BF720A4082F0100075
:1004700004E04BF68F720A4082F4805040F4004151
:1004800041F080001860064B1A6891698847002087
:1004900010BD022010BD00BF180C00203401002048
:1004A000140C002008B5064B1868064B427A42F03F
:1004B000200141721868C2699047002008BD00BF42
:1004C000180C0020140C0020054B1A68538A18B928
:1004D0008988CB1A138270470868C018704700BF1C
:1004E000180C002008B50B4B002093F82C1001F0DD
:1004F00001FF09480168087A082806D1074B4FF424
:1005000080521A80064A10211180B0F10903584226
:10051000584108BDE0000020180C0020E40700202E
:10052000E607002070B52E4B1C68207A02284FD0B9
:1005300004284DD0032801D0052843D1A169208A81
:10054000A9B1A0B1A58A854228BF0546284688479B
:10055000228A0646608A531B291861822382002062
:1005600001F0ACFE2A460146304609F0FEFF228A21
:1005700052B11C4B4FF4405018800020014601F04E
:10058000ABFE194A30211180208AA38A1449834284
:1005900002D80B68032202E018B10B6805221A7218
:1005A0000CE00A680623114913720A68104993B2D5
:1005B0005A1853000C491860302008800848016818
:1005C0000B7A06E0072803D10A490A68D3689847DE
:1005D0000823034A10680372BDE87040FFF782BF2A
:1005E000180C0020E4070020E6070020505C0040C3
:1005F00002300020F00B0020944B73B51A68944928
:1006000090B24418934E65002A6835682B7A092BFE
:1006100015D090B2410001F1804404F5C044227825
:100620002A7063786B70A08801F092FE6880208940
:10063000356801F08DFEA880A0893168C880854D9D
:1006400001242B68DA881C725C78002A64D118783F
:1006500010F07F0238D1092C02D1FFF72FFE45E0C0
:10066000052C0FD193F90320002A01DA08214FE06D
:1006700099780029FAD198880028F7D19B7A002B25
:1006800038D0F3E7032C10D1D878012807D0724A6C
:10069000204611684B699847032829D137E09B8889
:1006A000002BF4D1FFF7FEFE20E0012CEFD1D9782A
:1006B0000129ECD198880028E9D15B7A03F0200267
:1006C000D1B20029E3D00AE0012A04D10B2CDED1FB
:1006D000FFF710FE0AE0022AD9D1012C02D1FFF760
:1006E0002DFE03E0032CD2D1FFF796FE10B1CEE72A
:1006F0000028BBD15548594B026891B2C818584BD5
:100700004100002230200A601880062100E0092103
:10071000504A10680172D3E0062C13D11C78610690
:100720007AD19A784C4B012A02D11C68E36969E0BE
:10073000022A02D11868036A64E0032A6CD119689E
:100740004B6A5FE0002C3ED15988002964D158687B
:1007500020F47F42B2F5003F5ED11C7814F07F0098
:1007600004D19888002800F0AE8055E001280CD113
:10077000394A58791468A269904700284CD12B68EF
:10078000997A002940F09F8046E0022844D15B79A5
:1007900003F00F014FEA810202F1804404F5B840F2
:1007A000304C0268207813F0800F14BF02F0300242
:1007B00002F4405281422FD213F0700F2CD1002A44
:1007C00040F0818028E0082C03D119784A067CD0BB
:1007D00022E00A2C20D1187800F07F0101291BD1DA
:1007E0009C7ACCB15988B9B95A6822F47F40B0F5E7
:1007F000803F11D1184C587922689469A04700288D
:1008000065D009E043B113480024016820464C82BA
:100810008B61984720460AE00F4A0E4C1168236806
:100820000A6958789047032801D1236806E0094BEC
:100830004FF6FF711B681A8A8A4201D1092103E031
:10084000022800D082B90821197239E0505C0040BA
:1008500004300020180C0020F00B00200230002093
:10086000E60700203401002093F90000002821DA77
:10087000D98801910198824202D9019A1A8211E025
:100880008A420FD21349086890F82C108A4201D28C
:10089000002105E092FBF1F001FB102212B90121C9
:1008A0000D4801700B49086890F82C209A82FFF7D8
:1008B000B3FC05E003221A72084B4FF44051198033
:1008C000FFF710FE7CBD064B9DE7064B9BE7064BF2
:1008D00099E700BFF00B00205C070020E407002030
:1008E0007D010008350100085901000870B50D4B65
:1008F0001C780023A34210D203F1805202F5B855B0
:10090000A90043F400420E6842F0800540F60F72E1
:1009100032402A430A600133ECE7034940F080008B
:10092000086070BD340100204C5C004010B51449D3
:100930000B680C461A7A022A01D0042A04D1FFF768
:100940006BFC2168087A13E0062A10D15878052834
:1009500009D11978480606D1D878FFF7C7FF094BA7
:100960001A68106A804708490B689A6890470820FF
:10097000034B1A681072BDE81040FFF7B3BD00BF0B
:10098000180C0020140C0020F00B00207047000011
:10099000084B10B553F820400121204602F070F8B2
:1009A0002046002102F06CF820460121BDE81040ED
:1009B00002F05AB878D20008084B10B553F820401E
:1009C0000121204602F05CF82046002102F058F890
:1009D00020460021BDE8104002F046B878D2000859
:1009E0002DE9F341134C8600A3191969054698684F
:1009F00004EB45080843012102F02AF8B8F8187002
:100A000002AC24F8047D0C4F03208DF806001C2254
:100A100057F8250021468DF80720BE1901F0DAFDB0
:100A2000B8F81C30B0682146ADF8043001F0D2FDB2
:100A3000BDE8FC8178D2000800000020F7B50F4F18
:100A4000054607EB4507398B02AC0D4E24F8041D13
:100A5000042003238DF80700214656F825008DF861
:100A6000063006EB850501F0B5FDBA8BA868214676
:100A7000ADF8042001F0AEFDFEBD00BF78D2000845
:100A800000000020F8B5184F8600BF190D46044637
:100A90000121386A01F0D0FF144B00204FF6FF729D
:100AA000DA6018614FF440529861D8619862B86A70
:100AB00080215A62EA075961186007D50C4A102153
:100AC000961999603069194609F060FCAB070AD5A0
:100AD0000748064900EB8404A06900238B60BDE849
:100AE000F84009F053BCF8BD78D20008A8070020F0
:100AF0000000002010B50D4B0C68496812F48042CC
:100B0000D9600B4918BF202201EB8001896A5C6023
:100B10001960102199601A62064B044903EB8000AA
:100B20000069BDE8104009F031BC00BFA8070020F3
:100B300078D200080000002010B50D4B0C68496801
:100B400012F40042D9600B4918BF202201EB80014A
:100B5000896A5C601960002199601A62064B044939
:100B600003EB80008069BDE8104009F00FBC00BFB6
:100B7000A807002078D200080000002038B50446FD
:100B8000C8070D4605D5084B03EB8400006909F042
:100B900085FBA90707D5044901EB8404A069BDE8DA
:100BA000384009F07BBB38BD000000202DE9F3413F
:100BB000414D04462D190E461746984609F011FC82
:100BC00095F8300095F8342095F8321001238DF80F
:100BD000040001A88DF806208DF807308DF8051067
:100BE00009F00EFC720217D495F8380095F83630EB
:100BF00095F83A108DF8050001A88DF804308DF8AD
:100C0000061009F0FDFB2D4A02EB8403186A818867
:100C10008AB242F480738380B8F1020F49D1FB0796
:100C200022D52548011991F8400091F83C2091F80F
:100C30003E308DF8060001A88DF804208DF80530AF
:100C400009F0DEFB1D4901EB84021369186840F0CE
:100C5000020119601A6842F008001860B00503D557
:100C6000196841F004021A60B90722D5124B18190D
:100C700090F8421090F8442090F8463001A88DF882
:100C800004108DF805208DF8063009F0B9FB0B48EB
:100C900000EB8404A1690A6842F002030B60086853
:100CA00040F008020A60F20403D50B6843F0040028
:100CB0000860BDE8FC8100BF78D200080000002079
:100CC0002DE9F7431C4F05467F19984697F83030B9
:100CD00002AC002004F8043D89468DF805008DF82B
:100CE00006008DF807002046164609F089FB19F426
:100CF000800F06D197F8361020468DF8041009F0C1
:100D00007FFBB8F1020F15D1F00708D50A4A501938
:100D100090F83C3002A800F8043D09F071FBB107DF
:100D200008D5054902A84D1995F8422000F8042D70
:100D300009F066FBBDE8FE8378D20008014800F0A8
:100D4000C1BD00BF2800002008B5024800F0B6FB76
:100D5000002008BD28000020014800F023BC00BF8F
:100D600028000020014800F0AFBC00BF2800002090
:100D7000014800F0A7BD00BF4800002008B50248A8
:100D800000F09CFB002008BD48000020014800F056
:100D900009BC00BF48000020014800F095BC00BF1E
:100DA0004800002030B5048C24F001052C04250CEB
:100DB0000584048BA5B225F0F3052A4342EA031308
:100DC000114A048C9042A4B29DB215D002F5006382
:100DD000984211D0B0F1804F0ED0A3F598329042D6
:100DE0000AD002F58063984206D003F580629042F3
:100DF00018BF24F00A0401D124F0020444F00104D5
:100E000021430583018430BD002C014030B5048CA2
:100E100024F010052C04250C0584048B058C24F487
:100E200040742405240D44EA022242EA0333144AA2
:100E3000ADB290429BB212D002F5006290420ED049
:100E4000B0F1804F0BD0A2F59832904207D002F556
:100E50008062904203D002F58062904207D125F073
:100E6000200242F0100545EA011189B204E025F0A4
:100E7000A00545F0100529430383018430BD00BF60
:100E8000002C0140224A038890429BB212D002F506
:100E9000006290420ED0B0F1804F0BD0A2F5983294
:100EA000904207D002F58062904203D002F5806242
:100EB000904203D14A8823F070031343154A9042AD
:100EC00008D002F58062904204D023F44073CA88AF
:100ED0009BB2134303808B880A8883850C4B028561
:100EE00098420FD003F5006290420BD002F54063A8
:100EF000984207D003F58062904203D002F58063E8
:100F0000984201D1097A018601228282704700BF8E
:100F1000002C014000100040038C70B523F001024A
:100F20001404250C0584068C8388028B9CB222F065
:100F300073052B040D881A0C26F0020633042A438D
:100F40004E880D891B0C3543ADB22B43134DA8427F
:100F50000FD005F50065A8420BD005F54065A84205
:100F600007D005F58065A84203D005F58065A84245
:100F70000ED123F008064B898D881E4326F004030A
:100F80002B43CE898D8924F440743543ADB22C4374
:100F9000C988848002838186038470BD002C01404F
:100FA000038C30B523F010021404250C0584038C47
:100FB0008288048B23F0200324F4E6452C040D885A
:100FC000240C44EA05241D042B0C0D8992B243EA3B
:100FD00005134D88A4B243EA0513124D9BB2A842F3
:100FE00003D005F50065A84215D14D8923F0800393
:100FF0009BB243EA05134FF6BF751D408B8822F460
:10100000406245EA0315ABB28D8942EA8502CD897B
:1010100042EA850292B2C9888280048301870384F0
:1010200030BD00BF002C0140038C30B523F480722A
:101030001404250C0584038C8288848B23F40073AC
:1010400024F073052C040D88240C2C431D042B0C58
:101050000D8992B243EA05234D8843EA0523124DD8
:101060009BB2A84203D005F50065A84215D14D8971
:1010700023F400639BB243EA05234FF6FF351D407E
:101080008B8822F4405245EA0325ABB28D8942EAAF
:101090000512CD8942EA051292B2C9888280848302
:1010A0008187038430BD00BF002C0140038C30B524
:1010B00023F480521404250C0584038C8288858BCC
:1010C00094B225F4E64215042A0C0D8823F400534B
:1010D00042EA05221D042B0C0D8992B243EA053326
:1010E0004D8843EA05330A4D9BB2A84203D005F56B
:1010F0000065A84205D18D8924F4804444EA851412
:10110000A4B2C98884808283A0F84010038430BDD3
:10111000002C0140038819B199B241F0010303E0AA
:1011200023F001010A04130C0380704783899BB2EA
:101130000AB1194301E023EA010181817047038B61
:1011400023F00C0213041A0C0283038B9AB211438E
:1011500001837047038B23F4406213041A0C02834B
:10116000038B9AB242EA01218BB203837047838BCF
:1011700023F00C0213041A0C8283838B9AB211435E
:1011800081837047838B23F4406213041A0C82839B
:10119000838B9AB242EA01218BB2838370470000AD
:1011A000F8B50B880D4604464988AA8843B92B89AF
:1011B000FFF7F8FDE9882046BDE8F840FFF7BFBF1C
:1011C000042B08D12B89FFF721FEE9882046BDE8D2
:1011D000F840FFF7BFBF082B0E462F89008C3BD18C
:1011E00020F480731804030C2384A08B83B223F0B3
:1011F000F30343EA0717374B208CBFB29C4280B2FF
:1012000047EA020212D003F500639C420ED0B4F10B
:10121000804F0BD0A3F598339C4207D003F5806331
:101220009C4203D003F580639C4207D120F40070F8
:1012300040EA06218BB243F4807305E020F420607D
:1012400041F4807140EA0103E9882046A2832384A7
:10125000BDE8F840FFF78BBF20F480531804030C5F
:101260002384A38B208C23F440731B051B0D43EABE
:10127000022242EA0733174A80B294429BB212D04C
:1012800002F5006294420ED0B4F1804F0BD0A2F56B
:101290009832944207D002F58062944203D002F55E
:1012A0008062944207D120F4005040EA063291B2A5
:1012B00041F4805205E047F6FF52024041F480516C
:1012C0000A43E9882046A3832284BDE8F840FFF75B
:1012D00059BF00BF002C0140808E80B27047008F44
:1012E00080B27047808F80B27047B0F8400080B203
:1012F0007047038A828911EA030092B203D0114237
:101300000CBF002001207047C9438AB20282704797
:101310004FF0FF3282611021FF220173026101F060
:10132000D7BF000038B5037B0446012B05D0007BF6
:10133000102802D0217B002966D12078334A52F848
:1013400020502B8823F001010A04130C2B80FFF797
:1013500075FB2078FFF730FBE078022803D1207876
:101360006178FFF70BFC2078FFF712FB2078FFF77E
:1013700037FB264D217855F82100028893B243F0BF
:1013800001010180E16909F06FF86269D00207D5B7
:10139000207855F82030198888B240F04001198033
:1013A000D10714D52078194B53F82030998988B289
:1013B00040F001019981988920F0FE010804010C98
:1013C0009981988981B202F0FE000143998153000E
:1013D00009D520780D4B53F82010088820F480633D
:1013E0001804030C0B80E178022903D1207861787E
:1013F000FFF748FB207862786169E378FFF7D6FB56
:1014000001222273002038BD012038BD20000020B9
:10141000037B10B5012B044604D0007B102801D0BB
:10142000217B11BB2078FFF709FB2078104A52F886
:1014300020100B8823F0010213041A0C0A80FFF716
:10144000BBFAE078022803D120786178FFF796FB99
:10145000207861696278E378FFF732FC00204FF072
:10146000FF3120732061A16110BD012010BD00BFBC
:10147000200000200F4A10B54BF6FF74D4804FF4C3
:10148000806454810C494FF48044034694810020C9
:1014900003241081116090804FF0FF315C700224B2
:1014A000187398701861DC70586098605861996181
:1014B000DA6110BDD4070020A0860100837810B542
:1014C000012B3CD141684A68002A38D1037B012BAB
:1014D00002D0017B062932D10178314B4FF2FF0255
:1014E00053F82110C3788A82012B57D18A8822F4BD
:1014F00000731A04130C8B808A8822F480631A0408
:10150000130C06228B8082610B8B03F0020293B2D4
:101510002BB18269012A02D083695A1CF4D18169F6
:10152000012902D08269531C03D1BDE81040FFF7A6
:10153000EFBE4FF0FF330121836101732EE0047889
:10154000174A52F82430998A01F47062026110211E
:101550004FF2FF0201739A820169CA050AD51A88FF
:101560006FEA42416FEA514291B219801A885104E0
:101570004A0C1A80016989050AD51A886FEA424126
:101580006FEA514291B219801A8851044A0C1A80AC
:10159000036903690169204601F072FE002010BD55
:1015A000200000204FF0FF3370B5414A836103787B
:1015B000404952F8234051F823502268154258D030
:1015C0004668002171604669720466D48278002AF8
:1015D00063D1394951F82320918821F4006109042D
:1015E000090C918005218161918A01F0040189B281
:1015F00029B98169012902D081690131F4D1816958
:1016000001291FD0816901311CD04FF0FF31816168
:1016100031021ED4118889B241F400711180062173
:101620008161118B01F0020189B229B1816901291F
:1016300002D081690131F4D18169012902D0816927
:10164000013103D1BDE87040FFF762BE4FF0FF36B5
:1016500086611A4951F823100E6826F001060E60C3
:10166000918821F400710904090C91800122027310
:1016700013E0134A216852F8232011420DD1114A78
:10168000216852F82320114207D00C4A102101731F
:1016900052F8231040684A6842600948094A50F8E5
:1016A000231052F823300D431D436560002070BDA8
:1016B00068000020E8D20008200000201000002070
:1016C000E0D20008D8D200084FF0FF3370B5384A96
:1016D00083610378374952F8234051F82350226838
:1016E000154246D08268002151604269110454D4E9
:1016F0008178002951D1304A52F82320118889B2CB
:1017000041F400711180918821F400610904090CF1
:10171000918006218161118B01F0020189B229B10A
:101720008169012902D081690131F4D181690129DE
:1017300002D08169013103D1BDE87040FFF7E8BDF7
:101740001E494FF0FF3651F8231086610E6826F0CF
:1017500001060E60918821F400710904090C918042
:10176000918821F480510904090C918001220273AF
:1017700013E0134A216852F8232011420DD1114A77
:10178000216852F82320114207D00C4A102101731E
:1017900052F8231080684A6842600948094A50F8A4
:1017A000231052F823300D431D436560002070BDA7
:1017B00068000020D0D2000820000020180000207F
:1017C000C8D20008C0D2000810B500240D4BE05864
:1017D00098B1816959B94FF0FF32102382610373C8
:1017E000016951B9FF22026101F072FD05E08269D1
:1017F000531C02D08369591E81610434082CE5D141
:1018000010BD00BF7000002038B5C3780446012B1E
:1018100002D0022B4AD109E00078274B53F8201060
:101820008A8890B240F480638B8043E00078224D38
:1018300055F82020938823F400731B041B0C93801D
:1018400093889BB243F400639380227B062A01D0E5
:1018500001290ED161686269FFF74CF9207855F8CB
:1018600020108A8822F480531A04130C8B80134BA7
:1018700015E0237B0A2B01D002291BD1A1686269E4
:10188000FFF75AF9A17841B920780B4A52F8203075
:10189000998888B240F480529A802078084B53F897
:1018A0002000016841F00102026003E01020207373
:1018B000012038BD002038BD20000020100000208D
:1018C0001800002013B50278044693480023ADF8B1
:1018D000063050F82230A078998A01F0DF02ADF886
:1018E0000620002840F06B81BDF80610C8071DD502
:1018F000E0694FF0FF328189A261B1F5804F40F07D
:101900005E81227B052A07D1A068816841F001022F
:10191000D0B218820A2305E06068816801F0FE02F7
:101920001A82062323730423A36148E1BDF806202D
:1019300002F0020080B200286CD0E278022A0BD1BB
:10194000207B062801D1606803E0217B0A2903D1AE
:10195000A0684168481C01E04FF0FF30A061217B86
:101960000A290DD1012A0BD1A068406840B9198815
:1019700089B241F400711980998A1B8B22731FE18F
:10198000237B0A2B05D1012A03D120460221FFF730
:101990003BFF2278604951F82200828A028B237B28
:1019A0000A2B0ED1A268516801290AD1038823F4B9
:1019B000806211040B0C0380028891B241F4007321
:1019C00003806269D10300F1FA80217B06291CD1D2
:1019D00092031AD4636803211A7B0282A161838A6D
:1019E00003F0800291B229B9A369012B02D0A26948
:1019F0000132F4D1A069012800F0CD80A1694B1C0F
:101A000000F0C9804FF0FF33A36120460321FFF7A8
:101A1000FBFED4E0BDF8061001F0800291B200296F
:101A20004FD0227B062A4CD1E178012940F0C780B3
:101A30006268516861B111680C781C825368013B7F
:101A400053605368002B00F0BA8001311160B7E099
:101A5000606910F4000004D11A8891B241F4007258
:101A60001A80998821F4007211040A0C9A809988CE
:101A700021F4806211040A0C06219A80A16180B9C8
:101A8000998A01F0840090B1A269012A0FD0A1695E
:101A90004A1CF5D10BE0A069012808D0A2690132E7
:101AA00005D0988A00F0800291B20029F3D1A36991
:101AB000012B70D0A069431C6DD04FF0FF32A261A2
:101AC0007BE0BDF8060000F040018AB2002A76D023
:101AD000207B0A2873D1E178012970D1A06842687F
:101AE000022A02681AD1188A0B4B1070217853F819
:101AF0002120108820F480610B04180C10801188BC
:101B00008BB243F40070A16810804A680868531EC5
:101B1000421C4B600A600DE02000002041681B8AD7
:101B200001291370A06802D00268511C016043684B
:101B30005A1E4260A1684B68002B40D12078214A90
:101B400052F820108B8823F400700204130C8B8051
:101B5000888820F480621304180C88808A8A0A8A94
:101B60006269900204D522F4001302206361E070E0
:101B70000622A2610B8B03F0020082B22AB1A36994
:101B8000012B02D0A069421CF4D1A269012A02D023
:101B9000A3695A1C03D12046FFF7BAFB10E04FF0AF
:101BA000FF30A0610A8893B243F4806008800A88FD
:101BB00022F400631804020C0A8001212173002022
:101BC0001CBD00BF20000020037B10B59A0704460F
:101BD00000F1D880007B032800F0D480217B052908
:101BE00000F0D080227B002A00F0CC80237B102BD9
:101BF00000F0C88062690220D30120731BD42078D2
:101C0000614B0621A16153F82010088B00F00203FC
:101C100098B228B1A369012B02D0A069431CF4D16A
:101C2000A169012900F08580A369013300F081805A
:101C30004FF0FF30A061E178022907D1A36858680E
:101C4000012803D142F400126261E0706269D0039E
:101C500078D4A178002975D120784B4B53F8200017
:101C600001888BB243F480711F230180A361818AB4
:101C7000C90705D4A369012B02D0A1690131F6D1AE
:101C8000A369012B55D0A169013152D0E1694FF010
:101C9000FF33A3618B89B3F5804F1AD1A1688B689C
:101CA00003F0FE0104230182A361818A01F0020393
:101CB00099B229B9A369012B02D0A1690131F4D1EC
:101CC000A369012B35D0A169013132D04FF0FF3328
:101CD000A361818A018B0321A161838A03F08001C2
:101CE0008BB22BB9A169012902D0A369591CF4D187
:101CF000A16901291DD0A369591C1AD04FF0FF31E9
:101D00009203A16124D4A2680321137B0382A16101
:101D1000828A02F0800399B229B9A269012A02D00D
:101D2000A3695A1CF4D1A069012802D0A1694B1CF7
:101D300004D12046BDE81040FFF7EABA4FF0FF3269
:101D4000A26105E0E178022902D12046FFF75CFD9F
:101D5000A0780523237350B921780B4A52F821301B
:101D6000188881B241F480721A801F23A361207801
:101D7000054951F820309A8890B240F4007199805A
:101D8000002010BD012010BD20000020037B10B5F5
:101D90009B0704464FD4007B03284CD0217B0529A8
:101DA00049D0227B002A46D0237B102B43D0636985
:101DB00002202073D8011ED42078204A0621A16178
:101DC00052F82010088B00F0020290B228B1A269EC
:101DD000012A02D0A069421CF4D1A169012902D0D4
:101DE000A269013204D12046BDE81040FFF790BA45
:101DF0004FF0FF30A061A17891B920780F4A52F8D6
:101E0000200001888AB242F480710180D90303D591
:101E100020460121FFF7F8FC03231F202373A06154
:101E20002278064951F82230988882B242F4007133
:101E30009980002010BD012010BD00BF20000020AF
:101E400037B50023ADF806305848594B026891B2B7
:101E50001204198040F1A8801888564900F00F023A
:101E60000A70002A6ED1544C2568AAB2534D2A80BC
:101E70002988534A01F03000108029884BF6BF7240
:101E800001F44050288021680A4082F4005080F01C
:101E9000200141F4004242F0800020601B8803F0E2
:101EA00010018AB23AB9226848F60F7010402060DB
:101EB000FEF73CFD1DE0206883B2ADF80630BDF8AA
:101EC000061001F4006290B238B1216840F68F73B9
:101ED0000B402360FEF790FB0BE0BDF8063019B213
:101EE0000029B1DA226840F68F7010402060FEF7BA
:101EF00019FB21682A884BF6BF7302F480500B400F
:101F000081B209B183F480532C4A108800F4005147
:101F10008AB20AB183F400532948018801F0100203
:101F200091B209B183F01003008800F0200291B251
:101F300009B183F0200343F400401F4A40F08001C0
:101F4000116031E0930003F1804000F5B843196857
:101F500088B2ADF80600BDF8061008B2002809DA0C
:101F6000186840F68F7101401960164B013A53F81A
:101F700022008047BDF8061001F0800293B2002BCA
:101F80003FF462AF0B480278910001F1804303F502
:101F9000B841086848F60F7303400B600A49013ADC
:101FA00051F8220080474FE73EBD00BF445C00402F
:101FB00004260020F40B0020005C0040E407002011
:101FC000E6070020F00200200C0300203A4B82B00C
:101FD0001A6842F0010018605968384A0A405A608D
:101FE000186820F0847121F480321A60186820F497
:101FF000802119605A684FF41F0122F4FE0000226C
:102000005860996000920192186840F4803119601C
:10201000294B1A6802F40030019000994A1C009282
:10202000019818B90099B1F5A06FF1D11B6813F4AC
:10203000003218BF012201920198012805D0204BDF
:102040004FF000629A6002B070471E490B6843F07F
:1020500010020A60086820F003030B600A68A1F50B
:10206000805342F002000860596859605A685A600B
:10207000586840F4806159605A6822F47C105860B6
:10208000596841F4E8125A60186840F0807119608C
:102090001868094A8101FBD5536823F00301516098
:1020A000506840F002035360034A516801F00C008D
:1020B0000828F9D1C3E700BF001002400000FFF874
:1020C00000ED00E000200240FEE7000008B500231C
:1020D0000C4A0D499818884204D20C481958995056
:1020E0000433F5E70A480B494FF000028842B8BFB5
:1020F00040F8042BFFF6FAAFFFF768FFBDE8084091
:1021000006F032BE000000205C070020E8DC00087A
:102110005C070020082600204FF6F873014A0340B0
:1021200013607047505C0040800000F1804202F56F
:10213000B842106848F68F13034019431160704786
:10214000800000F1804202F5B842106848F6BF7383
:10215000034001F0100080B208B99BB201E083F0A7
:10216000100301F0200188B208B183F0200343F48A
:10217000004141F0800010607047800000F1804213
:1021800002F5B84210684BF68F73034001F480509B
:1021900080B208B99BB201E083F4805301F400518E
:1021A00088B208B183F4005343F4004141F0800049
:1021B00010607047800000F1804202F5B84001686D
:1021C00048F6BF730B4083F0300242F4004141F007
:1021D000800303607047800000F1804202F5B84040
:1021E00001684BF68F730B4083F4405242F4004178
:1021F00041F0800303607047800000F1804202F5E7
:10220000B840016840F60F630B4043F4004242F0CF
:10221000800101607047800000F1804303F5B84001
:102220000268510408D5016840F60F730B4043F46F
:10223000404242F0800101607047800000F180431D
:1022400003F5B8431A68500608D5196840F60F70B0
:10225000084040F4004242F0C0011960704700009D
:10226000064B49081A6893B203EBC00000F1005214
:1022700002F5405358004A0002607047505C00402D
:10228000054B49081A6893B2044A03EBC00083184F
:1022900058004A0002607047505C00400430002043
:1022A000054B19688AB202EBC00000F1005303F538
:1022B00040514A0010887047505C0040044B196838
:1022C000044B8AB202EBC000C1184A001088704764
:1022D000505C004004300020044B1A6893B2044A5A
:1022E00003EBC0008318580001607047505C004049
:1022F000023000200C4B1A6893B20C4A03EBC0006A
:1023000083185A003E2908D94B09C90601D1581E25
:1023100083B2990241F4004104E04B08C80748BF6A
:102320000133990211607047505C00400630002074
:10233000054B1968054B8AB202EBC000C1184A0070
:1023400010688305980D7047505C004006300020EF
:10235000C3B2000A40EA0320704710B501310023E0
:1023600093420ED0040F092C01D8303400E03734EA
:1023700001F8014C01330024000101F8024BDBB2EB
:10238000EEE710BD38B5114B1C685968402C8AB275
:1023900005D94031403C59601C60402504E00819D3
:1023A000A5B2002458601C6001241C72084BC02197
:1023B00098182A4608F0C2F820462946FFF78CFFF5
:1023C0002046BDE83840FFF7F5BE00BF600700209B
:1023D000E807002007B50820012100F039FB0320A1
:1023E000142120238DF806008DF80710034801A959
:1023F000ADF8043000F0EEF80EBD00BF000C014057
:10240000002008B500F0C4FA4FF400000121BDE837
:10241000084000F029BB07B54FF4A06007F0E6FFC5
:10242000022014238DF805008DF80600012101A873
:102430008DF804308DF8071007F0E2FF0EBD0000A4
:1024400018B10448202100F018B90248202100F0FA
:1024500016B900BF000C01400A4A0B4B111D186849
:1024600010B514680B6818180AD008220749FFF73E
:1024700074FF074920460422BDE81040FFF76DBFF6
:1024800010BD00BFECF7FF1FE8F7FF1F8E00002014
:102490009E00002070B500239AB28A4210D2094CE7
:1024A0002588EA0502F50005EA0D074D2D88ADB235
:1024B000954205D0C65C054D0133AE542280EBE752
:1024C00070BD00BFEA0B0020E8090020EA090020E7
:1024D000054B1A7A012A05D1186808B91872704795
:1024E000FFF750BF704700BF600700200D4B1A7AFE
:1024F000012A15D05868B0F5007F01D1002159603C
:102500005868DB68074A984202D10021117270476F
:102510008CBFC0F50070C0EB03001060FFF732BF46
:10252000704700BF60070020054B0649DA688854F1
:10253000501CB0F5007F08BF0020D860704700BF76
:1025400060070020E807002070B505460E4600240D
:10255000A3B2B34204D2285DFFF7E6FF0134F7E7E8
:1025600070BD0000044B054A1888138881B298B2E8
:10257000081A18BF01207047EA0B0020E809002064
:10258000094B1988094B88B21A8891B28842F7D052
:102590001888C20502F50001C80D18801B88044A7E
:1025A00099B2505C704700BFEA0B0020E809002098
:1025B000EA0900200449054A0548002313800B60FE
:1025C00003804B60CB60704760070020E809002063
:1025D000EA0B0020CB78F0B5DA0648BF8A78098884
:1025E00003F00F0548BF154311F0FF0F1ED004681C
:1025F0000022012707FA02F707EA0106BE4211D1BD
:1026000097004FF00F0C0CFA07FC05FA07F724EAC5
:102610000C04282B44EA070401D1466102E0482B50
:1026200008BF06610132082AE3D10460FF2920D9DE
:102630004468002202F10806012707FA06F707EAB4
:102640000106BE4211D197004FF00F0C0CFA07FCA7
:1026500005FA07F724EA0C04282B44EA070401D101
:10266000466102E0482B08BF06610132082AE1D129
:102670004460F0BD806880B270470161704741617D
:1026800070470AB101617047416170470028174BDC
:1026900030B500F44014B4BFDB695B68B4F5401F8B
:1026A00082B207D1114C23F07063656825F0706524
:1026B00065600FE0C40205D5C0F30344032505FAA5
:1026C00004F403E0440D240102FA04F423EA0403B1
:1026D00043F0706321B1410D090102FA01F2134385
:1026E00000280248B4BFC361436030BD0000014010
:1026F000034B987A10B1034905220A60704700BF66
:10270000F80B002074070020014B04221A60704768
:1027100074070020034B1A78202A01D1002018707A
:10272000704700BF7007002070470000212810B5D7
:1027300008D111480368197801F07F02212A11D0CD
:10274000022010BD2028FBD10B4B19680A780B49D9
:1027500002F07F030A4A212B0CBF0B4600231070A6
:102760000BB9EDE7074B044C2068002483614482D9
:1027700020469847204610BD180C0020D527000899
:1027800070070020BD270008074B19680A7802F07F
:102790007F03212B05D1022801D100207047222878
:1027A000FBD00220704700BF180C002009B10220A6
:1027B00070470128FBD808467047000020B9034B3A
:1027C000082219680A82704701487047180C0020D7
:1027D000A800002020B9034B082219680A8270471C
:1027E00001487047180C0020A8000020054B19680C
:1027F000CA78042A04D8044B03EBC201FDF764BE77
:1028000000207047180C0020B00000200149FDF79F
:102810005BBE00BFD00000200149FDF755BE00BFE0
:10282000D8000020334A344BD179186810B5002401
:1028300041728472C4722046FFF76EFC20464FF44A
:102840000071FFF771FC10212046FFF779FC402151
:102850002046FFF715FD80212046FFF701FD2046A9
:10286000FFF7CAFC254B204693F86410FFF742FDA2
:102870002046FFF7B0FC01202146FFF755FC012060
:10288000C021FFF7EDFC01202021FFF759FC0120BA
:102890002146FFF772FC02204FF4C061FFF744FCB1
:1028A00002204FF48071FFF7DBFC02202146FFF786
:1028B00064FC02202021FFF743FC03202146FFF7A0
:1028C00033FC03204FF48871FFF7DAFC032040212A
:1028D000FFF710FD03204FF44051FFF74EFC03209B
:1028E0002146FFF72DFC2046FEF700F8044A0120A0
:1028F000106010BD4CD30008180C0020A800002068
:102900007407002010B5FFF7A7FD054B00241868D9
:10291000847200F009F800F023FA02490C6010BD3F
:10292000180C00207407002008B50120FFF788FD6F
:10293000064B0749012200201A601860086005490B
:102940004FF4E0520A801A6008BD00BF405C0040AE
:10295000445C00401C0C002008B5074A074B0220CD
:10296000136018720649074B0748084A0B6010604D
:102970001B68984708BD00BF180C0020F80B00200A
:10298000F00B0020E000002010010020140C0020BB
:10299000014B1860704700BFD8004242034B5A6891
:1029A00022F4404108435860704700BF00100240C5
:1029B0001D4B10B55A6802F00C01042901D00829FA
:1029C00002D01A4A02600EE05C685968C4F3834280
:1029D000941CC90302D55B689B0301D5144900E030
:1029E00012494C430460104A124B5468C4F303115B
:1029F0005C5C016821FA04F141605468C4F302246C
:102A00001C5D21FA04F484605468C4F3C2241C5D84
:102A100021FA04F1C1605268C2F381329B181A7C1A
:102A2000B1FBF2F1016110BD0010024000127A000A
:102A300000093D0038010020044B5A6909B11043D8
:102A400001E022EA00005861704700BF0010024018
:102A5000044B9A6909B1104301E022EA0000986131
:102A6000704700BF00100240044BDA6909B11043FF
:102A700001E022EA0000D861704700BF0010024068
:102A8000044B1A6909B1104301E022EA0000186101
:102A9000704700BF00100240426810B522F4702356
:102AA0000A6823F4807444EA02030C7943EA04229E
:102AB0004260CB688A6884681A43084B23401343FA
:102AC0004A7943EA42038360097CC26A4B1E22F4BE
:102AD0007002D9B242EA0152C26210BDFDF7F1FFA5
:102AE000836811B143F0010101E023F0010181602D
:102AF0007047836811B143F4807101E023F4807161
:102B000081607047836843F0080181607047806886
:102B1000C0F3C0007047836843F0040181607047D0
:102B20008068C0F380007047836811B143F4A0014E
:102B300001E023F4A00181607047092970B54FF0CE
:102B400003040CD94C4307251E3C05FA04F503FA8F
:102B500004F3C66826EA05052B43C3600BE04C432B
:102B6000072505FA04F503FA04F3066926EA0505C4
:102B700045EA03040461062A4FF005030DD8013A23
:102B800053431F2202FA03F201FA03F1446B24EAD1
:102B9000020242EA0103436370BD0C2A0DD853437D
:102BA0001F22233B02FA03F201FA03F1046B24EA29
:102BB000020242EA0103036370BD53431F22413BFB
:102BC00002FA03F201FA03F1C46A24EA0202114391
:102BD000C16270BDC06C80B270470000038A30B51E
:102BE0000D460446EA8898B220F4405111432182F0
:102BF000A3892889A98823F4B05340EA010268898F
:102C000023F00C0102430804030C1A4391B2A18182
:102C1000A08AAA8983B223F4407187B01143A182AC
:102C200001A8FFF7C5FE1848A38984420CBF049889
:102C3000039819B200294FF019032A6803FB00F02A
:102C400001DA510000E09100B0FBF1F16423B1FB27
:102C5000F3F21201100903FB1011A08900B2002841
:102C600006DAC9003231B1FBF3F303F0070005E0E7
:102C700009013231B1FBF3F303F00F00024390B2CC
:102C8000208107B030BD00BF003801400B8810B56F
:102C90004C88028A23438C88C98892B223430B4311
:102CA00022F4706213439BB2038210BD00230380A1
:102CB00043808380C3807047838919B199B241F4FE
:102CC000005303E023F400510A04130C838170477E
:102CD000C1F3421310B5012401F01F01A34204FA0D
:102CE00001F101D10C3004E0022B01D1103000E0E1
:102CF0001430036812B143EA010201E023EA010241
:102D0000026010BDC905CA0D828070478088C10568
:102D1000C80D7047038819420CBF0020012070477E
:102D200010B5C1F34214012201F01F03012C02FA75
:102D300003F201D1838903E0022C0CBF038A838A4A
:102D40009BB20088134082B243B1090A012303FAFF
:102D500001F010420CBF0020012010BD184610BD2C
:102D6000044B00201860044A044B4FF406411180C4
:102D700019607047445C00401C0C0020405C00401F
:102D800070B500F07F0528460E46FFF7D1FA0446DD
:102D90002846FFF793FA22460146304607F0E5FB46
:102DA000204670BD034A044B02F188305A605860D7
:102DB000704700BF2301674500200240024B1A699B
:102DC00042F080001861704700200240084BDA682A
:102DD000D20709D4D868400708D4D96811F0100F79
:102DE0000CBF042003207047012070470220704769
:102DF0000020024010B50446FFF7E8FF012806D185
:102E00001CB1FFF7E3FF013CF8E7052010BD002CE3
:102E100008BF052010BD000070B505464FF40050F6
:102E20000E46FFF7E7FF04280ED1084C236943F054
:102E3000010020612E804FF40050FFF7DBFF226974
:102E400041F6FE711140216170BD00BF00200240BB
:102E500073B5002306464FF400500D460193FFF76B
:102E6000C9FF04281AD10E4CAAB2206940F0010112
:102E700021614FF400503280FFF7BCFF042808D1D5
:102E800002360196019B2D0C1D804FF40050FFF778
:102E9000B1FF216941F6FE720A4022617CBD00BF8C
:102EA0000020024038B505464FF43020FFF7A2FF5E
:102EB000042812D1094C236943F0020020616561A6
:102EC00021694FF4302041F040022261FFF792FF68
:102ED000216941F6FD730B40236138BD002002409B
:102EE0000D4B10B518800D48026842F080710160EA
:102EF00072B60B4C236843F48070206062B6094CB4
:102F000002212046FEF700FA204602210122BDE8F8
:102F10001040FEF70BB900BF560F0020180D00201F
:102F200014100020002C01400A23434318460138A6
:102F3000FDD8704710B504460AF06EF9002283B23E
:102F400033B1591E8BB2E15C2E2908BF1A46F7E750
:102F500092B1501E834207DAE15C302910D1202063
:102F6000E05401339BB2F4E710BDE25C302A07D194
:102F70002021E15401339BB282B2511E8B42F4DB1B
:102F800010BDF8B5069C002525700E78752E0AD167
:102F90004E78632E01D106782BE0692E01D06C2E7D
:102FA0005FD1068825E0732E5BD14D78632D03D168
:102FB00090F90060B6B206E0692D01D1068802E002
:102FC0006C2D4ED1FAE78D7830B22B2D0BD1002825
:102FD00003DA2D252570012508E00EB125703EE0AD
:102FE000202727703BE00025002801DA7642B6B2A0
:102FF000B6B210461F46002F08DA013880B24FF0F3
:10300000300C013704F800C03FB2F4E703EAE37381
:1030100002EB030083B209D001373FB206E0581E2D
:1030200083B2D01AB84204D12E20E054AB42F6D875
:1030300009E04FF00A0EB6FBFEF00EFB10663036CC
:10304000E65486B2F2E700230846A3547A210AF038
:1030500007F830B12046BDE8F840FFF76BBF012507
:10306000C6E7F8BD10B5044605484021FFF752FEFB
:103070000028F9D002482146BDE81040FFF742BEC3
:103080000048004010B5441E14F8010F10B1FFF7BE
:10309000E9FFF9E710BD000010B50C4840F22551DA
:1030A000FFF73EFE04460948FFF730FE6CB1084AC0
:1030B0001388D90501F500030649DB0D098889B29B
:1030C000994202D004491380C85410BD0048004002
:1030D000B80F0020BA0F00201C220020044B054A24
:1030E0001888138881B298B2081A18BF0120704757
:1030F000B80F0020BA0F0020094B1988094B88B27D
:103100001A8891B28842F7D01888C20502F50001EA
:10311000C80D18801B88044A99B2505C704700BFE4
:10312000B80F0020BA0F00201C2200201FB500237A
:1031300000900C2207486946ADF80430ADF806301F
:10314000ADF80830ADF80A20ADF80C30FFF746FDB9
:1031500005B000BD0048004070B54FF4802088B035
:103160000121FFF781FC11200121FFF771FC2C4C9C
:103170002C480121FFF78AFA18204FF480630325B9
:103180008DF8030069462046ADF800308DF80250F6
:10319000FFF720FA4FF4006148222046ADF80010F6
:1031A0008DF802506946204D8DF80320FFF712FA82
:1031B00002A8FFF77BFD284602A9FFF767FD002460
:1031C0000C234FF4E136284604A9ADF81A300496D2
:1031D000ADF81440ADF81640ADF81840ADF81C40FD
:1031E000FFF7FCFC28460121FFF766FD27200F2191
:1031F0008DF80400012601A88DF805108DF8061041
:103200008DF8076007F0FCF83246284640F2255159
:10321000FFF75EFD054A064B14801C8008B070BDA8
:10322000001001401000140000480040BA0F0020B8
:10323000B80F002070B504460D461646FEF7E8F8B4
:103240002046FEF717F903236370E369002002218B
:103250004BF6FF72A070E1706560A660DA80074AE5
:10326000988018814FF480414FF480605881998193
:103270001A602046FEF756F880B270BD00350C008B
:103280000D4B58B919884A1C90B2188059684A1CCD
:103290005A600A4B0A4918680A4A0AE05A88501CC0
:1032A00081B259809A680849501C9860034B074ABC
:1032B0005868FFF7BFBF00BF780700204C0100200F
:1032C00078240020881000208824002098100020F6
:1032D000027808B50E4B5AB91A88501C81B2198071
:1032E0005A680C49501C58600B4B0C4A18680AE08D
:1032F0005888411C8AB25A809868094A411C9960D2
:10330000054B08495868FFF795FF002008BD00BF2E
:1033100078070020782400204C010020881000202D
:10332000981000208824002070B5084E084D094CE4
:10333000294622463068FFF77DFF706805F11001CD
:1033400004F11002BDE87040FFF774BF4C0100208B
:103350007824002088100020034B00211A7B03EB07
:1033600082004160704700BF78070020034B1A7B42
:1033700003EB820041684B1C4360704778070020D4
:10338000024B00211A7B23F81210704778070020A7
:1033900013B5014690BB08200121FFF759FB02AC91
:1033A000402024F8040D03221423214634488DF8CC
:1033B00006208DF80730FFF70DF904218DF807106E
:1033C0004FF4006221462E48ADF80420FFF702F9C1
:1033D0000A24402101222A48FFF753F90220FFF76F
:1033E000A3FD274840210022FFF74BF90220FFF7F9
:1033F0009BFD631E9CB2002CEBD140E001283ED126
:103400000820FFF725FB02AC4FF4806124F8041D6F
:103410001420032321468DF8070019488DF8063043
:10342000FFF7D8F804224FF40063214614488DF8C2
:103430000720ADF80430FFF7CDF8002401224FF447
:1034400080610F48FFF71DF90A20FFF76DFD00228C
:103450000B484FF48061FFF714F90A20FFF764FD71
:10346000092C04D80134A4B2142CE7D107E0044895
:10347000FFF700F900F4806081B20029F2D01CBD92
:10348000000C014010B50446084B09481A7B50F85F
:1034900022100B7B012B06D00120FFF745FD013CDC
:1034A000F2D1012010BD002010BD00BF7807002020
:1034B0004C010020F8B5134CDFF850E0267B4000AB
:1034C00037010EEB07056B600F4BA8604EF8072025
:1034D000E96053F82600FEF777FB38B1227B04EB56
:1034E00082046068431C63600120F8BDBDF81810B9
:1034F000012906D142F21070FFF7C4FF003018BF57
:103500000120F8BD780700204C0100208810002021
:10351000F8B5134CDFF850E0267B400037010EEB86
:1035200007056B600F4BA8604EF80720E96053F861
:103530002600FEF72BFC38B1227B04EB8204606886
:10354000431C63600120F8BDBDF81810012906D1A5
:1035500042F21070FFF796FF003018BF0120F8BD4F
:10356000780700204C0100207824002037B513464E
:10357000064A05460C46107B05490022085C00926D
:1035800029462246FFF796FF3EBD00BF7807002080
:103590001010002037B51346064A05460C46107B2E
:1035A00005490122085C009229462246FFF782FF66
:1035B0003EBD00BF780700201010002037B513462D
:1035C000064A05460C46107B05490122085C00921C
:1035D00029462246FFF79CFF3EBD00BF780700202A
:1035E0001010002008B50122FFF7D4FF38B1044BBA
:1035F0001A7B03EB820041684B1C4360012008BD2D
:103600007807002073B50E461D461446E2B10DF151
:103610000701FFF7E7FF40B10C48037B00EB830194
:103620004A68501C486001200FE00123311B03FA57
:1036300004F44A1C013C04FA02F49DF807100C4003
:1036400044FA02F22A7000E010467CBD78070020A0
:1036500007B502AB03F8011D19460122FFF7AEFFC3
:1036600038B10448027B00EB82014B68581C48606B
:1036700001200EBD78070020F7B506460D461F460F
:1036800014460AB900202DE00DF10701FFF7AAFF4B
:1036900040B115490A7B01EB82035868411C59600F
:1036A00001201FE02A1B012505FA04F4501C07FA2B
:1036B00000F1013C04FA00F4CBB29DF8071030464B
:1036C00021EA04011C4021438DF80710FFF7C0FFD9
:1036D0000028D7D00448027B00EB82014B685819C0
:1036E00048602846FEBD00BF7807002006F050BFA6
:1036F00008B5FEF76FFEFEF783FEFEF78CFEFFF7C0
:103700002BF9BDE80840FEF755BF0000064B01222B
:10371000DA811869411C19615A6912B15869411E50
:103720005961FEF751B800BF780700200D4A0E49D5
:10373000002310B5D3810C68136153610B4A1846FE
:10374000B4FBF2F140F2DC546143094A01395160A3
:103750000849F02481F8234093600723136081F81F
:10376000230010BD780700207800002040420F00A1
:1037700010E000E000ED00E001226B20072113467D
:10378000FFF77ABF6B20062101220023FFF774BFE9
:10379000034602216B200322FFF76EBF014619206A
:1037A000FFF756BF01461920FFF71CBF0346022151
:1037B0001A200322FFF760BF034602211A200322CA
:1037C000FFF720BF034604211B200222FFF754BF4E
:1037D000034604211B200222FFF714BF03460421E5
:1037E0001C200222FFF748BF034604211C200222AE
:1037F000FFF708BF13B50446FFF7D8FF4FF47A7000
:10380000FFF792FB0DF10700FFF7D6FF4FF47A7038
:10381000FFF78AFB9DF80700031B594251EB030099
:103820001CBD0000F8B50C4F0E263B7B0B4C7343C0
:1038300000250621E55475200A46E318FFF7E2FE4D
:1038400040B9387B4643A15DB1F13402534253EB9A
:103850000200F8BD2846F8BD78070020E40F0020DC
:103860002DE9F04104460A200D46164698469DF87B
:103870001870FFF759FB2046FFF78AFF2846FFF72D
:10388000A1FF3046FFF792FF4046FFF7A7FF3846FB
:10389000FFF784FFBDE8F041FFF774BF73B50A205E
:1038A0000C4616461D46FFF73FFB0DF10700FFF7DC
:1038B0008FFF9DF807300A20A34214BF0224002482
:1038C000FFF732FB0DF10700FFF776FF9DF80700C9
:1038D000B04203D0002C14BF062404240A20FFF7B2
:1038E00023FB0DF10700FFF77FFF9DF80710A942AA
:1038F00018BF44F008040A20FFF716FB0DF107007B
:10390000FFF750FF9DF807209DF818309A4218BF26
:1039100044F0100420467CBD73B50A24204E0A20D2
:10392000FFF702FB1F4D337B6822EA54FFF77AFF53
:1039300078B90A20FFF7F8FA307B69212954FFF79C
:1039400071FF40B9013CA4B2002CE7D1367BAC55E5
:1039500023E0012600E002260A24002502212A464F
:103960002B4603200095FFF77BFF48F2A060FFF78E
:10397000DBFA0095032002212A462B46FFF78EFF33
:1039800040B1631E9CB2002CE7D1054A0549107B6B
:103990000C5402E0FFF7E0FC00E0264630467CBD18
:1039A000780700201010002010B5344B344A187BE3
:1039B00088B0115C682901D1324802E0692958D1E8
:1039C000314803ACFFF75EFB0DF10B00FFF7EAFE99
:1039D000032200232D490DF10B000094FFF7D1FACB
:1039E0002B48FFF74FFB2046FFF74CFB0A20FFF761
:1039F00039FB0DF10B00FFF7F7FE032200232349EB
:103A00000DF10B000094FFF7BCFA2248FFF73AFBD8
:103A10002046FFF737FB0A20FFF724FB0DF10B00D0
:103A2000FFF7CAFE0322002318490DF10B00009492
:103A3000FFF7A7FA1848FFF725FB2046FFF722FB00
:103A40000A20FFF70FFB0DF10B00FFF7C1FE0F4936
:103A5000032200230DF10B000094FFF792FA0F48A8
:103A6000FFF710FB2046FFF70DFB0A20FFF7FAFADD
:103A700002E00B48FFF706FB08B010BD78070020F6
:103A800010100020ECD70008FFD7000822D800084B
:103A900025D800082DD8000835D800083FD80008E0
:103AA00013D8000808B5FFF76BFC074B0E22197BF3
:103AB000064B3B2002FB0131FFF758FD18B1BDE872
:103AC0000840FFF753BC08BD78070020E40F002032
:103AD000124B0E221B7B12495A438B18895C5A7871
:103AE00042EA01210180DA78997842EA0121418095
:103AF0005A79197942EA012181805A7A197A42EA7F
:103B00000121C180DA7A997A42EA012101811A7B86
:103B10005B7B43EA02214181704700BF78070020A8
:103B2000E40F00202DE9F047254B264E01280F46D3
:103B300092462549254A14BF9946B14608BF1E46FC
:103B400014BF88469046FFF72DF93046FFF7AAF9D3
:103B5000042805462ED1002F08BF4FF4FD6A0AF154
:103B6000010A06F110044FEA6A0004EB400A5445CA
:103B700018D027B9C6EB0902115B89B203E0BD1B5F
:103B80002B1933F8101C4FF6FF70814201D102341B
:103B9000EDE744450DD22046FFF73EF904280546DF
:103BA000F5D007E030464FF01131FFF751F90546E7
:103BB00000E08025FFF702F92846BDE8F08700BF46
:103BC00000D8070800D00708FFD70708FFDF07085D
:103BD00010B5FFF7E7F80748FFF764F90428044633
:103BE00003D10548FFF75EF90446FFF7E7F82046E2
:103BF00010BD00BF00D0070800D8070801314908F0
:103C000000239AB28A420AD2B3F57E7F09D0064ACF
:103C10009A185200128820F813200133F1E704208B
:103C200070478020704700BF08E8030438B5054698
:103C30000C46002029462246FFF774FFC0B2042834
:103C400001D080B238BD012029462246FFF76AFF25
:103C5000C0B238BD38B5164B1D68D3F80048B5F171
:103C6000113F06D1B4F1113F01D1042038BD631CCE
:103C700003E0681C0BD1B4F1113F08D100210120F1
:103C80000A46FFF74FFFC0B2042805D1EDE7FFF762
:103C90009FFFC0B2042801D080B238BD691C05D195
:103CA000B4F1FF3F14BF4020202038BD402038BD74
:103CB00000D00708F8B53F4D022128462C8CFDF7AF
:103CC00018FB0128A4B22DD13B4E02212846FDF756
:103CD0001BFB3368DA050ED5384E31884A1C02F0DA
:103CE0001F033380308886B22846FDF7F5FA344941
:103CF00021F8160016E004F0020081B2314F59B1EC
:103D000024F00202284694B2FDF7E6FA7880336880
:103D100043F00400306005E02846FDF7DDFA44F08A
:103D20000204388004212348FDF7E3FA01281BD15F
:103D300004F020051F480421FDF7E6FAAAB2224D3F
:103D400062B11C48FDF7CBFA1B4B6880186824F061
:103D5000200440F00201A4B2196005E01548FDF707
:103D6000BEFA44F02004288008211248FDF7C1FA69
:103D700001281BD104F400750E480821FDF7C4FA90
:103D8000AAB2124D62B10B48FDF7ACFA0A4B68803B
:103D9000186824F4007440F00101A4B2196005E031
:103DA0000448FDF79FFA44F400742880014A148403
:103DB000F8BD00BF002C014014100020E8210020B5
:103DC000EA0E0020B20F00201C0D002098240020D5
:103DD00070B5474D022128462C8CFDF78AFA012840
:103DE000A4B21BD128460221FDF78EFA04F002038B
:103DF00098B2404E60B124F0020128468CB2FDF723
:103E00006BFA3D4B70801A6842F00800186005E0BC
:103E10002846FDF761FA44F002043080042134485A
:103E2000FDF767FA01281BD1042104F02005304872
:103E3000FDF76AFAA9B2314D61B12D48FDF74FFA8D
:103E40002D4B68801A6824F0200442F01000A4B2C0
:103E5000186005E02648FDF742FA44F02004288067
:103E600008212348FDF745FA01281BD1082104F455
:103E700000751F48FDF748FAA9B2214D61B11C48F1
:103E8000FDF730FA1C4B68801A6824F4007442F085
:103E90002000A4B2186005E01548FDF723FA44F4A9
:103EA0000074288010211248FDF723FA01281BD145
:103EB000102104F400550E48FDF726FAA9B2114D61
:103EC00061B10B48FDF711FA0B4B68801A6824F4B6
:103ED000005442F04000A4B2186005E00448FDF729
:103EE00004FA44F40054288001490C8470BD00BFDA
:103EF00000340140BE0E002014100020E4210020F8
:103F0000AA0F0020FE110020694B1A68D10719D5AD
:103F10001868684A20F00101196013885088C11A96
:103F20008BB2A3F27B3290B240F2EA41884209D8C8
:103F3000614A624913800A68614B6420188042F02C
:103F4000040008605A4B19688A0719D51A685D4938
:103F500022F0020018600B884A88D01A83B2A3F2BC
:103F60007B3188B240F2EA42904209D8524964203B
:103F70004B805249524B0A68588042F0200008603A
:103F80004B4B1968480719D51A684F4922F00400AD
:103F900018600B884A88D01A83B2A3F27B3188B2AA
:103FA00040F2EA42904209D8434964208B80434959
:103FB000434B0A68988042F4807008603C4B196853
:103FC000090719D51A68414922F0080018600B88C2
:103FD0004A88D01A83B2A3F27B3188B240F2EA4217
:103FE000904209D834496420CB803449344B0A6864
:103FF000D88042F4006008602D4B1968CA0619D5B4
:104000001A68334922F0100018600B884A88D01AC9
:1040100083B2A3F27B3188B240F2EA42904209D8DF
:10402000254964200B812549254B0A68188142F4F3
:10403000804008601E4B1968880619D51A68254902
:1040400022F0200018600B884A88D01A83B2A3F2AD
:104050007B3188B240F2EA42904209D81649642086
:104060004B811649164B0A68588142F400300860AB
:104070000F4B1968490619D51A68174922F04000F4
:1040800018600B884A88D01A83B2A3F27B3188B2B9
:1040900040F2EA42904209D8074964208B810749DF
:1040A000074B0A68988142F480100860704700BF8F
:1040B000141000209824002066240020180D0020F1
:1040C000C80E00201C0D0020B20F0020BE0E0020E4
:1040D000E4210020AA0F0020FE110020F0B5354B8E
:1040E00087B01C68E00163D5334802880A2A5FD88C
:1040F00072B6324932480D88818CABB28DB262B64D
:10410000304931F813002D1AADB240F685308542A2
:104110004ED92D48058B9D424AD031F813100383A8
:1041200088B200218DB2954215D25E1E254F06F051
:104130001F0337F8135001AFADB2461BB6B227F8D4
:104140001160A6F27A36B6B240F2EC470131BE42B7
:1041500003D82846E6E7012100E00021013B194D84
:1041600003F01F0335F81330C01A80B240F66D73A8
:1041700098421DD9154B534303F5C343283383425B
:1041800016DBA9B101AD002105EB42050B4698B243
:104190000239904205D26E5A0D4820F8136001335F
:1041A000F5E70C4B0349642244F000641A800C606C
:1041B00007B0F0BD180D0020560F0020E8210020A8
:1041C000002C0140EA0E00207807002086FCFFFF4B
:1041D00034100020040D0020854A10B5148814B353
:1041E000844B013C1868A4B220F00201012C196034
:1041F000148018D800241480C20744BF41F0020183
:1042000019601A6822F00400186072B67A4B7B4A73
:10421000196821F001041C60108C20F4007319044B
:104220000C0C148462B6724A548814B3714B013C6E
:104230001868A4B220F01001012C1960548018D81D
:1042400000245480040744BF41F0100119601A682B
:1042500022F02000186072B6674B684A196821F096
:1042600002041C60108C20F0200319040C0C148430
:1042700062B65F4A948814B35E4B013C1868A4B2DE
:1042800020F08001012C1960948018D80024400689
:1042900044BF41F08001196094801A6822F4807054
:1042A000186072B6544B554A196821F004041C601A
:1042B000108C20F0020319040C0C148462B64C4AD2
:1042C000D48814B34B4B013C1868A4B220F480612D
:1042D000012C1960D48018D80024D480820544BFF2
:1042E00041F4806119601A6822F40060186072B6A7
:1042F000414B434A196821F008041C60108C20F0DF
:10430000020319040C0C148462B6394A148914B3DC
:10431000384B013C1868A4B220F40051012C1960FC
:10432000148118D800241481C40444BF41F40051FE
:1043300019601A6822F48040186072B62E4B304A19
:10434000196821F010041C60108C20F0200319045F
:104350000C0C148462B6264A548914B3254B013CD4
:104360001868A4B220F48031012C1960548118D847
:104370000024000444BF41F48031196054811A685C
:1043800022F40030186072B61B4B1D4A196821F0E8
:1043900020041C60108C20F4007319040C0C14848D
:1043A00062B6134A948914B3124B013C1868A4B244
:1043B00020F40021012C1960948118D800249481E4
:1043C000420344BF41F4002119601A6822F48010AE
:1043D000186072B6084B0A48196821F040021A604A
:1043E000038C23F400510A04130C038462B610BD3D
:1043F000C80E0020180D002014100020002C0140D1
:10440000003401400C4A10B51488A4B10B4B013C98
:104410001868A4B220F00071012C196014800AD829
:104420000024C00144BF41F00071196014801A6873
:1044300022F00060186010BD040D0020180D00204F
:1044400010B5062800F2E180DFE810F00700260032
:10445000450064008300A200C1006C4C0821204686
:104460000022FCF763FE72B6208C20F400710A046F
:10447000130C67482384016821F00102026062B6D0
:10448000644B6422186820F005011960624B63498F
:1044900000201A80088010BD5C4C042120460022B8
:1044A000FCF744FE72B6228C22F020031804010CA3
:1044B000574B21841A6822F00200186062B65549F1
:1044C00064200B6823F028020A60544B52490022F2
:1044D00048805A8010BD4D4C022120460022FCF736
:1044E00025FE72B6208C20F002010A04130C484805
:1044F0002384016821F00402026062B6454B642205
:10450000186820F4A0711960434B444900209A8038
:10451000888010BD424C022120460022FCF706FE96
:1045200072B6218C21F002031804020C384922844F
:104530000B6823F00800086062B6364964200A68F8
:1045400022F420630B603449344B0022C880DA80A7
:1045500010BD334C042120460022FCF7E7FD72B663
:10456000228C22F0200001040B0C294823840268CD
:1045700022F01001016062B6264B6421186820F415
:10458000A0421A60244B254A00201981108110BDD9
:10459000234C082120460022FCF7C8FD72B6218C6E
:1045A00021F400731A04100C194920840B6823F0BD
:1045B00020020A6062B617486422016821F42033A1
:1045C00003601548154B00214281598110BD144CE0
:1045D000102120460022FCF7A9FD72B6238C23F49B
:1045E000005001040A0C0A4B2284186820F0400194
:1045F000196062B6074B64211A6822F4A010186093
:10460000054B064800229981828110BD002C014093
:1046100014100020180D0020C80E00206624002071
:104620000034014010B5164C022120460022FCF750
:104630007DFD72B6238C98B240F00201114B2184AB
:104640001A6822F48070186062B600220E490023B6
:1046500021F812300132202AF8D10C48016821F0EB
:10466000106202600A490B4A6420088013800A49DC
:1046700040F2DC5058520233142BF8D110BD00BF69
:10468000002C014014100020EA0E0020180D00201C
:10469000040D0020560F00203410002010B50C46E9
:1046A000062800F2AE80DFE800F0041C344C637A88
:1046B0009100012904D1534B1868C10700F1A18072
:1046C0000020FFF7BDFE012C40F09B804D494E4875
:1046D0000A6842F001030B600821FCF715FE4A4806
:1046E00072E0012904D147490B681A0700F189805B
:1046F0000120FFF7A5FE012C40F0838041480268AD
:1047000042F00801016040480421FCF7FDFD3E48ED
:1047100043E0012903D13B4801684B0671D4FFF700
:1047200081FF0220FFF78CFE012C6AD1354B02215C
:104730001A6842F0400018603348FCF7E5FD324843
:1047400014E0012903D12F4B1868800559D40320A8
:10475000FFF776FE012C54D12A492C480A6842F40E
:1047600000730B600221FCF7CFFD2848022143E0D3
:10477000012903D123490B68D90442D40420FFF74F
:104780005FFE012C3DD11F48026842F48051016058
:104790001E480421FCF7B8FD1C4804212CE0012927
:1047A00003D1184801680A042BD40520FFF748FEFE
:1047B000012C26D1134B08211A6842F400401860DE
:1047C0001248FCF7A1FD1148082115E0012903D189
:1047D0000C4B1868430314D40620FFF731FE012C5C
:1047E0000FD1084909480A6842F480230B60102160
:1047F000FCF78AFD054810212246BDE81040FCF771
:1048000095BC10BD180D0020002C01400034014063
:10481000012938B504460D4606D10A4B1868C00177
:1048200002D509490C8038BD0220FFF709FEFFF7C9
:10483000F9FE012D05D124B12046BDE83840FEF730
:104840004FBB38BD180D0020560F0020062828D871
:10485000DFE800F004090E13181D2200134B18683E
:1048600010F0020F1CE011490A6812F0100F17E057
:104870000E4B186810F0800F12E00C490A6812F411
:10488000806F0DE0094B186810F4005F08E00749DD
:104890000A6812F4803F03E0044B186810F4002FFC
:1048A00001D1002070470120704700BF180D002083
:1048B000024B1868C0F34060704700BF180D00201D
:1048C000062828D8DFE800F004090E13181D22007E
:1048D000134B186810F0040F1CE011490A6812F01D
:1048E000200F17E00E4B186810F4807F12E00C497F
:1048F0000A6812F4006F0DE0094B186810F4804F3D
:1049000008E007490A6812F4003F03E0044B186806
:1049100010F4801F01D1002070470120704700BFB4
:10492000180D0020024B1868C0F3C060704700BF2C
:10493000180D00202DE9F04F01218DB040F6040044
:10494000FEF786F80CAE4FF4807026F8200D002498
:104950004FF0280C03220CAD01274FF00F097548CA
:1049600031468DF813C0CDF80CC08DF8122002929C
:10497000ADF82640ADF82870ADF82A40ADF82C907F
:10498000FDF728FE25F80C4D6B482946FCF708FC7E
:104990004FF4007A67483146ADF810A0FDF71AFED3
:1049A0000421ADF8241064482946FCF7F9FBDFF830
:1049B000A8B14FF480635F483146ADF81030FDF781
:1049C00009FE08225C482946ADF82420FCF7E8FBE4
:1049D000DBF8001059480DF13008B1FBF0F2511E20
:1049E00028F8181D4FF6FF7353484146ADF81C30A8
:1049F0000193ADF81E40ADF81A40FCF743FA4E485B
:104A00003946FCF787FB0F2000221B2301218DF87C
:104A1000150005A88DF816208DF814308DF81710A4
:104A200005F0EEFC42F210003946FEF711F8DDF811
:104A30000CC0029B4020ADF81000314640488DF874
:104A400013C08DF81230ADF82640ADF82870ADF8DF
:104A50002A40ADF82C90FDF7BDFD3A482946ADF847
:104A60002440FCF79DFB802235483146ADF81020EC
:104A7000FDF7B0FD0421ADF8241032482946FCF7BB
:104A80008FFB4FF480732E483146ADF81030FDF7A0
:104A9000A1FD0820ADF8240029462A48FCF780FB38
:104AA00027483146ADF810A0FDF794FD0C222548AB
:104AB0002946ADF82420FCF773FBDBF800301F48D3
:104AC0000199B3FBF0FAADF81C101E4841460AF1FB
:104AD000FF3AADF81E40ADF81A40ADF818A0FCF74B
:104AE000D1F918483946FCF715FB01202E220F2179
:104AF00000238DF8170005A88DF814208DF81510E7
:104B00008DF8163005F07CFC0F4B104A10491460EC
:104B10000C601C805C809C80DC801C815C819C81A2
:104B20000C4A0020A0520234142CF9D10DB0BDE87B
:104B3000F08F00BF00080140002C014040420F00F0
:104B4000001001400034014066240020180D0020B0
:104B500014100020341000207800002010B500242C
:104B6000204608F037F8094908F088F805F0B2FE49
:104B7000074908F083F808F047FA064B43F8240089
:104B80000134B4F57C7FEBD110BD00BFDE40CC3BDF
:104B90000080384810120020064BFA2828BFFA205F
:104BA000FA2928BFFA21FA2A28BFFA229883D98342
:104BB0001A847047FA21002000234FF080421384AA
:104BC000A2F82034A2F82038704700001C48418A1F
:104BD00049B3828AC38A6AB9008B41F21011022B51
:104BE00094BF0B460023022814D843F001034FF46E
:104BF00088520FE0022B02D900231A4602E001235B
:104C00004FF488520E49088B02289CBF43F4885306
:104C100043F010030A49488B022807D842F01002DB
:104C20004FF4885103E00B460A4600E000214FF0A4
:104C300080400284034A1384034B1984704700BFE9
:104C4000FA21002000040040000800400346598873
:104C500000889A88FFF7A0BF054B00305A8A18BF1A
:104C60000120824202D05882FFF7B0BF704700BFD8
:104C7000FA21002070B50E4B0488DA8AA2421A4647
:104C80000AD11E8B4588AE4206D15E8B8588AE4226
:104C900002D19B8A8B4209D043888088D4821383B7
:104CA00050839182BDE87040FFF790BF70BD00BF98
:104CB000FA21002038B5044625680021284608F06E
:104CC0007BF928B12846094907F0D0FE2060F3E7B8
:104CD00025680649284608F083F928B12846034983
:104CE00007F0C2FE2060F3E738BD00BF00007C443F
:104CF0000368002B03DA03F57C730360F8E70168AF
:104D0000B1F57C7F03DBA1F57C720260F7E77047A9
:104D100070B5B0F57C7F28BFA0F57C704A4D4B4E36
:104D200028BF80B2AC8B56F8203063431B0C03F5D0
:104D300040732B8000F5A8739BB2B3F57C7F24BF32
:104D4000A0F5287083B256F823006043000C00F5EC
:104D50004070E88003F5A875A8B2B0F57C7F28BF45
:104D6000A3F52873394D28BF98B255F820305C431D
:104D7000240CB1F57C7F28BFA1F57C71324B28BF94
:104D800089B204F5407055F821509881D88B45437D
:104D90002C0C04F540755D8001F5A8739BB2B3F54A
:104DA0007C7F28BFA1F52871284C28BF8BB254F80E
:104DB0002310254D4143090C01F54071298103F56C
:104DC000A87189B2B1F57C7F24BFA3F5287399B28D
:104DD00054F821305843000C00F54074B2F57C7F44
:104DE00028BFA2F57C721848EC81184C28BF92B2FB
:104DF000018C54F822304B431B0C03F54073838025
:104E000002F5A8739BB2B3F57C7F24BFA2F528728C
:104E100093B254F823204A43120C02F540724281A7
:104E200003F5A87082B2B2F57C7F24BFA3F5287386
:104E30009AB2064B53F82200034B4143090C01F58B
:104E400040721A8270BD00BFFA21002010120020AB
:104E5000174B184A998A79B91988A2F84010D8884E
:104E60009087998911875888908619894FF08042D8
:104E7000A2F84010DB890EE05888A2F8400019899A
:104E80009187D889108719889186D8884FF08042F9
:104E9000A2F840009B899387054B074A98884FF0FA
:104EA0008041A2F84000588908871B8A9387704781
:104EB000FA2100200004004000080040F0B507205F
:104EC00089B00121FDF7D0FD0D200121FDF7C0FDC6
:104ED0001825CE2303243F486946ADF800308DF8ED
:104EE00003508DF80240FDF775FB40F2033008AF28
:104EF000ADF800008DF802403748002469468DF86F
:104F00000350FDF767FB354D27F81C4D202140F27B
:104F10000A62334EADF806104FF080403946ADF8C6
:104F20000820ADF80A40FBF7ADFF28463946FBF7ED
:104F3000A9FF30463946FBF7A5FF4FF440706023C8
:104F4000ADF8160004A94FF08040ADF81030ADF870
:104F50001C40ADF81E40ADF81840ADF81A40ADF851
:104F60001240ADF81440FCF71BF84FF0804004A944
:104F7000FCF75AF84FF0804004A9FCF797F8284650
:104F800004A9FBF7C9FF284604A9FCF709F828463D
:104F900004A9FCF749F8284604A9FCF787F830462D
:104FA00004A9FCF741F8304604A9FCF77FF84FF05C
:104FB00080410A8893B243F00100088029888AB2B0
:104FC00042F001032B80308881B241F0010232802F
:104FD00009B0F0BD00080140000C01400004004091
:104FE0000008004003782DE9F74F04460F4623BB25
:104FF0000868594907F042FE054605F06BFC606001
:10500000284605F02FFCA0607868534907F036FE6B
:10501000054605F05FFCE060284605F023FC2061B2
:10502000B8684D4907F02AFE054605F053FC60615B
:10503000284605F017FCA0618BE0022B40F0898028
:105040000868464907F01AFE054605F043FC064687
:10505000284605F007FC41490546786807F00EFE32
:10506000804605F037FC8246404605F0FBFBBF68F2
:1050700081460021384607F095FF98B149462846F9
:1050800007F0FCFD51466060284607F0F7FD4946F1
:10509000A060304607F0F2FD5146E060304607F070
:1050A000EDFD55E02D49384607F0E8FD804605F056
:1050B00011FC0746404605F0D5FB49468046284688
:1050C00007F0DCFD51460190304607F0D7FD414620
:1050D0008346019807F0D2FD3946024658460092B1
:1050E00007F0CCFD0146009807F0BEFC4146606029
:1050F000284607F0C3FD394603463046009307F0C3
:10510000BDFD009A0146104607F0AEFC514607F07F
:10511000B5FD4146A060304607F0B0FD3946064671
:10512000284607F0ABFD0146304607F09FFC494694
:1051300007F0A4FD4146E060584607F09FFD394660
:105140000546019807F09AFD0146284607F08EFCB7
:105150002061BDE8FE8F00BF35FA8E3C35FA0E3C6B
:1051600038B504460D460846002107F043FF38B124
:105170002046294607F036FEBDE8384005F046BA1D
:105180002846002107F018FFC0B12046002107F093
:1051900027FF48B12946204607F024FE05F036FADD
:1051A0000E4907F063FC38BD2946204607F01AFE79
:1051B00005F02CFA094907F057FC38BD20460021BC
:1051C00007F018FF30B92046002107F0F5FE18B1AE
:1051D000034838BD014838BD002038BDDB0F4940C9
:1051E000DB0F49C010B50A49044607F047FD0146E8
:1051F000084807F039FC0146204607F03FFD01460C
:10520000054807F031FC4FF0785107F037FD10BD2D
:1052100000004040000020410000704100234FF09A
:105220007E520221C3600360836103614360C361F6
:1052300043618260026280F82410826243630363E8
:10524000C362426583650365704700002DE9F0473E
:105250000C46054608688968FFF782FF294907F070
:105260000DFD2860606805F071FB274907F006FD19
:105270000023AB606860294604F12400FFF7B2FE0A
:10528000A76AD4F8309007F10040494607F0F6FCD1
:10529000666BD4F82C8082463146404607F0EEFC1F
:1052A0000146504607F0E2FB014607F0DFFB4146AE
:1052B000A061384607F0E2FC31468046484607F0D8
:1052C000DDFC0146404607F0D1FB014607F0CEFB6E
:1052D0003946E061384607F0D1FC31460746304692
:1052E00007F0CCFC0146384607F0C0FB4FF07C517C
:1052F00007F0BAFB014607F0B9FB2062A8682065F9
:10530000BDE8F087E02E65C2E02E65422DE9F04F42
:105310000746106899B0D2F8048096680491014657
:1053200014461D46CDF82C800C960A9007F0A6FC7A
:10533000002107F09BFB41468146404607F09EFC5A
:105340000146484607F092FB31468046304607F05A
:1053500095FC0146404607F089FB059005F046FBA9
:1053600006463146206807F03DFD31462060824602
:10537000606807F037FD314603466060A06801931E
:1053800007F030FDA0608346A049286807F01EFEA4
:10539000019B20B138462146FFF758FFB8E2226A48
:1053A000184611460392019307F068FCD4F81C805C
:1053B00081464146584607F061FC0146484607F0E1
:1053C00053FBD4F81890034607904946584600937B
:1053D00007F054FC03998346504607F04FFC014602
:1053E000584607F041FB414608908346504607F077
:1053F00045FC49468246019807F040FC014650466C
:1054000007F032FB4FF07E5109908246A86907F001
:10541000C9FD0099002800F0BC80084607F02EFC6A
:10542000002107F023FB594602465846019207F037
:1054300025FC019B0146184607F018FB51468346A0
:10544000504607F01BFC0146584607F00FFB494643
:1054500082460A9807F012FC002107F007FB41463C
:1054600081460B9807F00AFC0146484607F0FEFA11
:10547000039980460C9807F001FC0146404607F06E
:10548000F5FA4FF07E5107F0EFFA059920F0004B46
:10549000504607F0F3FB696A8246584607F0EEFB78
:1054A000594607F0EBFB0146504607F0DFFA05F0DE
:1054B0009DFAA1698046E06807F0E0FB002107F053
:1054C000D5FAE1698146206907F0D8FB01464846D4
:1054D00007F0CCFA216A8346606907F0CFFB0146EA
:1054E000584607F0C3FA4FF07E518246304607F027
:1054F000BBFAE96920F0004007F05EFD38BB2E6A78
:105500004249304607F058FDF8B941462AF00040BC
:1055100007F0AAFAA96A07F0B1FB0146404607F076
:10552000A5FA314607F05EFC01464FF07E5007F0C9
:105530009BFA0021064607F03FFD30B930464FF098
:105540007E5107F057FD10B903E0002601E04FF04F
:105550007E56D4F854803046414607F02DFD28B1E0
:105560004146304607F080FA294904E0414630467A
:1055700007F07AFAE96A07F081FB0146404607F036
:1055800075FA6065606D4FF07F5107F077FB064656
:105590002EE0D5F80C801F49404607F00DFD28BBD2
:1055A00030464FF07E5107F05FFA1B4920F0004073
:1055B00007F05AFA18490646404607F055FA0146E0
:1055C000304607F00FFC01464FF07E5007F04CFAD2
:1055D0000021064607F0F0FC30B930464FF07E510E
:1055E00007F008FD10B903E0002601E04FF07E56F9
:1055F000D5F80090A6654846084907F0FBFC78B945
:105600004946304607F0EEFB81460BE06F12833AC5
:10561000CDCC4C3E5839343C0AD7233C0000C44121
:105620004FF000092E696A49304607F0C5FC30B9D1
:105630004FF07E50314607F0D5FB804601E04FF039
:10564000000800260DF11C0A56F80A10484607F01B
:1056500015FB04EB060B0146DBF80C0007F006FA1D
:105660004AF8060004360C2EECD14046002107F023
:10567000C1FC002840F0948004984FF07C5107F062
:10568000FDFAE26A079E0546314602F100400192AA
:1056900007F0F4FADDF82080D4F830A00346414644
:1056A0005046009307F0EAFA0146009807F0DCF94B
:1056B000DDF82490D4F834B00246494658460092AA
:1056C00007F0DCFA009B0146184607F0CDF92946A1
:1056D00007F0D4FAA26A0E9031461046009207F005
:1056E000CDFA494684465046CDF808C007F0C6FAC0
:1056F000DDF808C00146604607F0B8F94146844627
:105700005846CDF808C007F0B9FADDF808C00146E0
:10571000604607F0A9F9294607F0B0FA00990F9002
:105720000846414607F0AAFA494684460198CDF852
:1057300008C007F0A3FADDF808C00146604607F08C
:1057400093F9314684465846CDF808C007F096FADA
:10575000DDF808B00146584607F088F9294607F0F9
:105760008DFA1090009B4946184607F087FA019A77
:1057700041468146104607F081FA0146484607F047
:1057800075F931468046504607F078FA01464046A2
:1057900007F06AF9294607F071FA0025119019E01F
:1057A0006869216D07F060F90025814661198969F2
:1057B000404607F063FA494607F060FA07AE014633
:1057C000A85907F053F9705104350C2DEED153E769
:1057D0006F12833A18A966194B19B06A53F8281C3E
:1057E00007F044F90435102DB062F3D100250026EE
:1057F0006019806A0435014607F040FA01463046D8
:1058000007F034F9102D0646F2D1FFF7EBFC002526
:1058100082466619B06A514607F030FA0435102DF9
:10582000B062F6D1666BD4F82C903146484607F04A
:1058300025FAA56AD4F8308083464146284607F009
:105840001DFA0146584607F00FF9014607F00EF918
:1058500049460246A0612846009207F00FFA3146F9
:105860008246404607F00AFA0146504607F0FEF825
:10587000014607F0FBF829468346E061284607F019
:10588000FDF931468246304607F0F8F901465046A8
:1058900007F0ECF84FF07C5107F0E6F8014607F00E
:1058A000E5F84146034620624846019307F0E6F9D1
:1058B00031468146284607F0E1F90146484607F09F
:1058C000D3F8019A0099054608461146FFF748FCAF
:1058D000114907F0D3F93860584605F037F80F49F9
:1058E00007F0CCF941467860404607F0C7F9014619
:1058F000504607F0BBF84FF07C5107F0B5F8014671
:105900002846FFF72DFC044907F0B8F9B860206578
:1059100019B0BDE8F08F00BFE02E65C2E02E6542F1
:10592000172A10B500F2B7810B2A01D9043292B2BE
:1059300002F0100402F00C03A4B29BB2002C40F061
:10594000C880042B45D0082B00F08380002B40F04A
:10595000A28102F00303022B1BD0032B29D0012BC1
:1059600009D00A684B68026043608A68CB6882602D
:10597000C3600B692AE04A6802F1004303600A68C9
:105980008B6842600A69836002F10043C360CB68A0
:105990001CE00A6802F100434A68036002F1004318
:1059A00043608A68CB68826003F10042C2600B6981
:1059B0000AE04A6802600B6803F1004242600A692B
:1059C0008B68C2608360CB6803F10043036149695F
:1059D00060E102F00303022B1BD0032B29D0012B23
:1059E00009D04A688B68026043600A680B6982606C
:1059F000C3604B692AE08A6802F100434A68036089
:105A00000B6842604A69836002F10043C3600B691E
:105A10001CE04A6802F100438A68036002F1004317
:105A200043600A680B69826003F10042C2604B69FF
:105A30000AE08A684B68026003F100420B6842602A
:105A40004A6983600B69C26003F100430361C9685E
:105A500020E102F00302022A1BD0032A29D0012AE6
:105A600009D08B6803600A6842604A694B68C2606B
:105A70008360CA682AE00B6803F100428B68026009
:105A800043604A68CB68826003F10042C2604A69A1
:105A90001CE08B6803F1004202600B6803F10042D6
:105AA00042604B684A69836002F10043C360CA6880
:105AB0000AE08A680B68036002F1004343604A68A9
:105AC000CB6882604A69C36002F1004202610969E1
:105AD000E0E0042B4DD0082B00F09380002B40F029
