:020000040800F2
:10000000004C00206D3F0008693F0008693F000870
:10001000693F0008693F0008693F000800000000D0
:10002000000000000000000000000000693F000820
:10003000693F000800000000693F0008851B0008B8
:10004000693F0008693F0008693F0008693F0008F0
:10005000693F0008693F0008693F0008693F0008E0
:10006000693F0008693F0008693F0008693F0008D0
:10007000693F0008693F0008693F0008693F0008C0
:100080003505000841050008693F0008693F000880
:10009000693F0008693F0008693F0008693F0008A0
:1000A000693F0008693F0008693F0008693F000890
:1000B000693F0008693F0008693F0008190500080A
:1000C00025050008693F0008693F0008693F0008EE
:1000D000693F0008ED090008693F0008693F000812
:1000E000693F0008693F0008693F00080000000000
:1000F0000000000000000000000000000000000000
:1001000000000000000000005FF808F17F2810B533
:1001100016D931B1FF2812D80A4B803833F81000B5
:1001200010BD084A32F811408BB2844203D001312D
:100130008029F7D10B4603F18000C0B210BD00202A
:1001400010BD00BFD060000810B5002307495A0059
:1001500001F5807434F8134034B1844201D0013386
:10016000F4E78B18B3F8E00210BD00BFD0600008C0
:10017000084B10B553F820400121204604F070F8D8
:100180002046002104F06CF82046BDE81040012113
:1001900004F04EB890650008084B10B553F82040A5
:1001A0000121204604F05CF82046002104F058F8B4
:1001B0002046BDE81040002104F03AB890650008E0
:1001C0002DE9F3410746134C8500631998681B69B4
:1001D0000121184304F020F803238DF8063004EBC6
:1001E00047041C238DF80730238B02AEDFF82880EC
:1001F00026F8043D314658F8270003F037FF454400
:10020000A38B3146A868ADF8043003F02FFF02B08D
:10021000BDE8F0819065000800000020F7B50746B2
:100220000E4E032306EB40068DF8063004238DF8AE
:100230000730338B02AD0A4C25F8043D294654F8AB
:10024000200003F013FF04EB8704B38B2946A0685A
:10025000ADF8043003F00AFF03B0F0BD906500086C
:100260000000002070B5184C85002C440E46206A12
:10027000012103F0C5FF4FF6FF7314498022CB60C4
:1002800000230B618B61CB618B62A36A4A6116F01C
:10029000010F4FF440524A620B600C4606D0102307
:1002A0008B600B4B2B44186905F0FCFBB30709D599
:1002B0000023A360064B05491D44A869BDE87040B2
:1002C00005F0F0BB70BD00BF906500082001002064
:1002D0000000002010B40C4B0C6849688000D96005
:1002E0000A4912F480420144896A18BF20221A6226
:1002F00010225C6019609A60054B0349184400693C
:1003000010BC05F0CFBB00BF2001002090650008A5
:100310000000002010B40C4B0C6849688000D960C4
:100320000A4912F400420144896A18BF20221A6265
:1003300000225C6019609A60054B0349184480698B
:1003400010BC05F0AFBB00BF200100209065000885
:1003500000000020CA0738B504460D4605D5084BF5
:1003600003EB8003186905F025FBAB0707D50448AC
:1003700000EB84008069BDE8384005F01BBB38BD48
:10038000000000202DE9F74305460F46404C9046FB
:100390006619994605F0C0FB01238DF8073096F8E1
:1003A000303001A88DF8043096F832308DF80530E1
:1003B00096F834308DF8063005F0BCFB780217D47F
:1003C00096F8363001A88DF8043096F838308DF85C
:1003D000053096F83A308DF8063005F0ABFB2D4B22
:1003E00003EB85031A6A93889BB243F4807393806E
:1003F000B9F1020F49D118F0010F21D0631993F818
:100400003C2001A88DF8042093F83E2093F840305A
:100410008DF805208DF8063005F08CFB1D4BB905D5
:1004200003EB85031B691A6842F002021A601A681E
:1004300042F008021A6042BF1A6842F004021A60D1
:1004400018F0020F21D0631993F8422001A88DF80B
:10045000042093F8442093F846308DF805208DF859
:10046000063005F067FB0B4B03EB8505AB691A689B
:1004700042F002021A601A6842F008021A60FA0496
:1004800042BF1A6842F004021A6003B0BDE8F0836C
:1004900090650008000000202DE9F3478A461D4EB4
:1004A0009946371800238DF805308DF806308DF801
:1004B000073097F8303002AC04F8043D054620467A
:1004C000904605F037FB1AF4800F06D197F83630C6
:1004D00020468DF8043005F02DFBB9F1020F15D13F
:1004E00018F0010F07D0731993F83C3020468DF8AF
:1004F000043005F01FFB18F0020F07D0354495F8C3
:10050000423020468DF8043005F014FB02B0BDE8FF
:10051000F08700BF90650008014803F033BB00BFBF
:100520002800002008B5024803F006F8002008BDA6
:1005300028000020014803F06FB800BF2800002009
:10054000014803F0F7B800BF28000020224A0388C2
:1005500090429BB212D002F5006290420ED0B0F1F0
:10056000804F0BD0A2F59832904207D002F58062FE
:10057000904203D002F58062904203D14A8823F072
:1005800070031343154A904208D002F580629042EE
:100590001FBF23F44073CA889BB2134303808B8828
:1005A00083850B8803850C4B98420FD003F50063BD
:1005B00098420BD003F54063984207D003F580635F
:1005C000984203D003F58063984201D10B7A0386E9
:1005D00001238382704700BF002C014000100040BF
:1005E000038819B19BB243F0010303E023F0010338
:1005F0001B041B0C0380704710B5074C40F22551BB
:10060000204603F01FFF2046BDE81040012240F2C3
:10061000255103F0F5BE00BF0038014000EB80001B
:10062000430018460138FDD87047402808B50246F7
:1006300009D8BDE80840C0EB401002EB8000C000C4
:1006400080B2FFF7EBBF4FF47A70FFF7E7FF013A94
:1006500092B2002AF7D108BD0288838810B5541CD5
:10066000234044889C421FBF8468A154038001201A
:1006700008BF002010BD70B50646013A4D1E8C180B
:10068000A54205D015F8011F3046FFF7E5FFF7E753
:1006900070BD428803889B1A9BB21A0441BF8088B0
:1006A00001301B1898B258BF18467047418803881C
:1006B00080885B1A99B20BB2002BBEBF421C8B180C
:1006C0001BB2C01A80B2704738B5044605F084FCEE
:1006D00080B20246002330B1013880B2215C2E295D
:1006E00008BF0346F7E713B9013A202010E0013BA9
:1006F000202182B29A4205DAA55C0130302D0AD160
:10070000A154F6E738BD655C0133302D03D1605448
:1007100099B29142F7DB38BD10B530240C706328D4
:1007200005D90C78643801340C70C0B2F7E7302179
:100730001170092805D911780A3801311170C0B239
:10074000F7E73030187010BD70B542F20F763025E3
:10075000049C0D70B04207D90D78A0F51C500135EE
:1007600010380D7080B2F5E730211170B0F57A7F46
:1007700006D31178A0F57A700131117080B2F5E7D7
:1007800030221A70632805D91A78643801321A7039
:1007900080B2F7E730232370092805D923780A3877
:1007A0000133237080B2F7E7059B3030187070BDBD
:1007B00010B50C468B1C4A1CFFF7AEFF0023E370FC
:1007C00010BD13B50B1D0193CB1C00934A1C8B1C51
:1007D0000C46FFF7B9FF0023637102B010BD030997
:1007E000092B00F00F0094BF3033373309280B700A
:1007F00094BF30303730002348708B70704713B58A
:100800000A46044601A9C0B2FFF7E9FF200A1146D3
:10081000FFF7E5FF9DF8043093709DF80530D37025
:100820009DF80630137102B010BD13B50A46044698
:1008300001A9C0B2FFF7D3FF9DF8043001A993715D
:100840009DF80530C4F30720D371FFF7C8FF9DF86A
:10085000043001A913719DF80530C4F307405371AA
:10086000FFF7BDFF9DF8043001A993709DF8053096
:10087000200ED370FFF7B3FF9DF8043013709DF87E
:10088000053053700023137202B010BDF8B50E4648
:10089000069C002121703178752927D17578632D48
:1008A00001D1017807E0692D01D1018803E06C2DA9
:1008B00040F08A800168B778682F3BD1632D05D15D
:1008C0002146BDE8F8400078FFF789BF692D05D1C2
:1008D0002146BDE8F8400088FFF791BF6C2D29D173
:1008E0002146BDE8F8400068FFF79FBF73296BD130
:1008F0007178632902D190F9001007E0692902D1CB
:10090000B0F9001002E06C295ED10168B0782B28A4
:100910000AD1002903DA2D202070012008E008BF49
:1009200020202070012006E000294FF0000002DAAC
:10093000494200E0002017461D464FF0300E002DC2
:1009400006DA013FBFB2013504F807E02DB2F6E741
:1009500003EAE373134418BF01359BB218BF2DB2ED
:100960000A274FF02E0C984210D2013B9BB2C3EBEA
:10097000020EAE451FBFB1FBF7FE07FB1E11303163
:10098000E1540CBF04F803C07146ECE70023A35404
:100990007A21304605F05AFAB0B1601CFFF794FE98
:1009A000204605F019FB012383420CD2E25C202A89
:1009B00006D02278234403F8012C20232370F8BDAD
:1009C00001339BB2F0E7F8BDF8BD002110B5044635
:1009D00008468BB2E25C013132B100EB800302EBDE
:1009E0004303303B98B2F4E710BD00000A4B1A886D
:1009F00092060FD509480A499A8803880988013365
:100A0000C3F30C0389B28B4218BF0649D2B21CBF94
:100A1000CA540380704700BF0038014078070020A7
:100A20007A070020CE27002010B504464021054853
:100A300003F002FD0028F9D02146024803F0F8FC3B
:100A4000012010BD0038014010B5441E14F8010FFC
:100A500010B1FFF7E9FFF9E710BD000008B540212C
:100A6000024803F0E9FC0028F9D008BD0038014035
:100A7000044B1888044B80B21B889BB2C01A18BF65
:100A800001207047780700207A07002010B5094838
:100A9000094C2188038889B29BB29942054AF8D053
:100AA00013880133C3F30C0313801388034A9BB2EA
:100AB000D05C10BD7A07002078070020CE270020E8
:100AC0001FB5002300900C2269460848ADF8043099
:100AD000ADF80630ADF80830ADF80A20ADF80C30AE
:100AE00003F018FC05B05DF804FB00BF00380140BE
:100AF00030B5012185B0284C44F2050003F08CFB91
:100B00004FF40073ADF800300325182369462046E2
:100B10008DF803308DF8025003F0A8FA4FF480638B
:100B20006946ADF80030204648238DF8033004F5BF
:100B300040548DF8025003F099FA02A803F04EFCDD
:100B400002A9204603F03AFC1448FFF7B9FF252319
:100B500001258DF8043001A80F238DF806308DF89B
:100B600005508DF8075004F0E5FF0022204640F2C2
:100B7000255103F045FC204640F2255103F062FC6C
:100B8000074A00231380074A29462046138003F0B2
:100B90002BFC05B030BD00BF0008014080841E0062
:100BA0007A0700207807002008B5FFF7A1FFBDE80D
:100BB0000840FFF721BD0000014608B5064805F0D2
:100BC00055F80121044805F062F80028F9D00248E0
:100BD00005F04EF8C0B208BD00300140FF20FFF71D
:100BE000EBBFFFF7FBBF000008B51021034803F07F
:100BF00092FABDE80840FFF7F4BF00BF00080140CB
:100C000010B5064C32232360FFF7EBFFFFF7E6FF3A
:100C1000FF2802D02368002BF8D110BD84000020EB
:100C2000020638B504460D4607D500217720FFF7A8
:100C3000F7FF01283AD804F07F0410211C4803F084
:100C40006AFA10211A4803F068FAFFF7D9FFFF2863
:100C500026D12046FFF7B0FF280EFFF7ADFFC5F302
:100C60000740FFF7A9FFC5F30720FFF7A5FFE8B28C
:100C7000FFF7A2FF402C15D0482C14BF012087207D
:100C8000FFF79AFF4C2C01D1FFF7ABFF0A24FFF7C7
:100C9000A5FF03060AD5013C14F0FF04F7D138BDC7
:100CA000FF2038BD9520FFF787FFEFE738BD00BF75
:100CB000000801404FF6FF7310B58CB0ADF802305C
:100CC000244B00245A6842F0F0025A605A6842F4F9
:100CD00070625A60A3F54F43F43B01934FF44053C5
:100CE00004910A930290802301A91B48069305945E
:100CF0000794089409940B94039404F0D3FE0DF127
:100D00000203029301A9102314480393069404F0EC
:100D1000C9FE0121104804F0E3FE01210F4804F050
:100D2000DFFE012203210E4804F097FF202004F08B
:100D3000F1FE0028FAD000220321094804F08DFFBB
:100D40000021054804F0CCFE0021044804F0C8FE50
:100D50000CB010BD000002401C00024030000240F8
:100D6000003001400E4B70B505460E461C460A2267
:100D70005A60FFF733FFFF2803D160680028F8D1DD
:100D800070BDFE2809D1B1B22846FFF793FFFFF7E7
:100D900028FFFFF726FF012070BD002070BD00BFB7
:100DA000840000204FF6FF7330B50D4604468DB029
:100DB0002348ADF8023004F0FDFD224804F0FAFDAE
:100DC000214B4FF4405201930A9200230DF102028D
:100DD00001A91B48029207930893059309930B936B
:100DE00003930693049504F05DFE1023039301A979
:100DF000802314480693029404F054FE0121104805
:100E000004F06EFE01210F4804F06AFE0122032166
:100E10000E4804F022FF202004F07CFE0028FAD0C7
:100E20000021074804F05CFE0021064804F058FE4B
:100E300000220321054804F010FF0DB030BD00BFB3
:100E40001C000240300002400C30014000300140E4
:100E500070B506460D46FFF7D3FEFF28044617D1AE
:100E60002846FFF7A9FEFD2D14D04FF4007130463F
:100E7000FFF798FF2046FFF79FFE2046FFF79CFEF6
:100E8000FFF7ACFE00F01F00431F5842584170BDF1
:100E9000002070BD012070BD054AC000138800F01D
:100EA000380023F038031B041B0C034313807047E6
:100EB0000030014030B5012189B04FF4805003F07B
:100EC000ABF90121052003F0A7F90121042003F06B
:100ED000A3F91025032402A93348ADF808508DF872
:100EE0000B508DF80A4003F0C1F829462E4803F054
:100EF00012F9A023ADF8083002A918232A488DF86A
:100F00000B308DF80A4003F0B1F84023ADF80830FB
:100F100002A9482324488DF80B308DF80A4003F0CD
:100F2000A5F84FF48273ADF80E300223ADF81230FD
:100F30004FF40073ADF81630382300240125ADF8C6
:100F4000183003A907231948ADF81C30ADF80C4040
:100F5000ADF81040ADF81450ADF81A4004F052FE50
:100F60002146124804F087FE2946104804F069FE25
:100F700002210E4804F08BFE0028F9D00B4804F043
:100F800077FEADF80600BDF8063009489BB2ADF813
:100F9000063004F00FFD074804F00CFD012108465F
:100FA00003F02EF909B030BD0008014000300140C7
:100FB0001C0002403000024037B50E4C0E4D10218F
:100FC000204603F0A8F8284604F0EAFD2846002150
:100FD00004F037FEE023ADF8043028238DF8073005
:100FE00001A9032320468DF8063003F03FF803B033
:100FF00030BD00BF000801400030014010B5094C71
:101000002378DB0707D41021074803F086F8FFF7A1
:10101000F7FDFFF7E9FDFFF7CFFF237843F001036A
:10102000237010BD5800002000080140F7B50028CB
:1010300040F08980454B1A781E4612F0020F02D00C
:101040001878C0B280E0424D19236B606B68002BAA
:10105000FCD1FFF72FFF0720FFF71EFF0A24013CFA
:10106000FFF7BFFD14F0FF04F9D121464020FFF740
:10107000D7FD012855D164234FF4D57148206B600A
:10108000FFF7CEFD012830D101AFFFF7A7FD38559E
:101090000134042CF9D19DF80630012B41D19DF883
:1010A0000730AA2B3DD16B681BB96B68002B38D079
:1010B00007E04FF08041E920FFF7B2FD0028F2D1B0
:1010C000F3E700217A20FFF7ABFD50BB0446FFF7A2
:1010D00085FD38550134042CF9D19DF8043013F006
:1010E000400F14BF0C2404241CE02146E920FFF724
:1010F00097FD022835BF02240124E92741276B68A8
:1011000013B96B686BB106E000213846FFF788FD24
:101110000028F4D1F5E74FF400715020FFF780FD6F
:1011200000B100242C72FFF75FFD3CB13378012041
:1011300003F0FE033370FFF7AFFE01E0FFF75EFF41
:101140003078C0B200E0012003B0F0BD58000020AC
:101150008400002018B9034B1878C0B270470120F2
:10116000704700BF5800002038B50D461C46114698
:1011700080BB7BB3194B1B78DA072DD4184B1B7A35
:101180001B0758BF4902012C0CD15120FFF748FD25
:10119000D0B94FF400712846FFF7E4FDB0FA80F4AF
:1011A000640911E05220FFF73BFD68B94FF400716C
:1011B0002846FFF7D7FD18B1013C05F50075F5D1BC
:1011C00000214C20FFF72CFDFFF70EFD201C18BF5F
:1011D000012038BD042038BD032038BD5800002050
:1011E0008400002070B50D4616461C4600283DD1EF
:1011F000002B3BD0204B1A78D00739D41B785907E5
:1012000038D41E4B1B7A1A0758BF7602012C0CD11A
:1012100031465820FFF704FD08BBFE212846FFF7A2
:1012200017FEB0FA80F464091AE013F0060F03D039
:101230002146D720FFF7F4FC31465920FFF7F0FC98
:1012400070B9FC212846FFF703FE18B1013C05F5F3
:101250000075F6D1FD210020FFF7FAFD00B9012449
:10126000FFF7C2FC201C18BF012070BD042070BD18
:10127000032070BD022070BD5800002084000020B3
:101280007FB515460446002840F01781052917D17F
:101290001378012B0AD005D3022B40F00E810123D5
:1012A00053700DE1FFF7AAFE204609E1854B192294
:1012B0005A605C68002CFCD1FFF7FCFD2046FFE083
:1012C000814B1B78DB0700F1FA800E2900F2F080D9
:1012D000DFE811F00F001A0058005D00EE00EE008C
:1012E000EE00EE00EE00EE00B100B600BE00CD0054
:1012F000DD001021754802F010FFFFF781FCB0F10E
:10130000FF0418BF0124D4E000214920FFF788FC26
:10131000044608B10124CCE010216846FFF722FD05
:101320000028F7D09DF800309DF808109B09012B8C
:101330009DF8093006D1013303EB012189B28902FE
:101340002960B6E09DF807209DF80500920002EBA9
:1013500091119DF806200131920202F4406211447D
:101360009DF80A2000F00F0000EBD2105A00023066
:1013700002F006028318DBB289B2093B01FA03F3DB
:101380002B6096E04FF400731380002491E04D4EE3
:10139000337A03F0040303F0FF01DBB10021CD2019
:1013A000FFF73EFC0028B5D1FFF71BFC1021684673
:1013B000FFF7D8FC0028ADD03024013CFFF711FC2A
:1013C00014F0FF04F9D19DF80A301A091023934054
:1013D0002B606EE04920FFF723FC0446002899D1DA
:1013E00010216846FFF7BEFC002893D0367A9DF89E
:1013F0000A2006F0020606F0FF009DF80B306EB1E1
:10140000520002F07E0202EBD3135A1C9DF80D30FD
:101410009B09013B02FA03F32B604AE0D90001F07B
:101420001801C2F3840201EB5311531C01FB033377
:1014300004462B603DE0234B00241B7A137038E0F8
:1014400000214920FFF7ECFB00287FF463AF06E0A2
:1014500000214A20FFF7E4FB00287FF45BAF102156
:101460002846FFF77FFCB0FA80F4640921E00021F0
:101470007A20FFF7D5FB00287FF44CAF2C1DFFF737
:10148000ADFB05F8010BA542F9D1002411E00021C4
:10149000CD20FFF7C5FB00287FF43CAFFFF7A1FB91
:1014A00040212846FFF75EFCB0FA80F4640900E0B2
:1014B0000424FFF799FB204602E0042000E003200B
:1014C00004B070BD840000205800002000080140D6
:1014D0000D4A536813F0FF031EBF03F1FF33DBB265
:1014E0005360136813F0FF031FBF03F1FF33064976
:1014F000DBB20B60D3680021D16023B9034A1378B3
:1015000003F0F90313707047840000205800002096
:1015100070B504460E46154601F0B8FF204601F0AE
:10152000E7FF4BF6FF72032363700223E370E36966
:101530000020A0706660A560DA804FF480625A8156
:101540004FF480429A81044A988018811A6020469C
:1015500001F02AFF80B270BDA0860100084A08B5DC
:101560001388084901339BB21380074A0748136860
:1015700001331360064AFFF7CBFF002008BD00BF10
:101580008003002018070020DC47002028000020EE
:1015900008070020064A07491388074801339BB211
:1015A0001380064A136801331360054AFFF7B0BF82
:1015B000800300201807002028000020DC470020BE
:1015C00008070020024A03490348FFF7A1BF00BFF4
:1015D000080700201807002028000020024A13688E
:1015E00001331360704700BFDC47002037B5044665
:1015F00000284FD10121082002F00EFE03238DF8B0
:101600000630142302AD8DF80730402325F8043D41
:1016100029464D4802F02AFD04238DF8073029465B
:101620004FF400634848ADF8043002F01FFD01227A
:101630004021454802F073FD0A20FEF7EFFF00222B
:101640004021414802F06BFD0A20FEF7E7FF092C1C
:101650001BD93D4802F05CFD020616D5012240214F
:10166000394802F05CFD0A20FEF7D8FF00228021F5
:10167000354802F054FD0A20FEF7D0FF324801221F
:10168000802102F04CFD01205CE00134142CCED10D
:10169000002057E00128FBD10146082002F0BCFDE4
:1016A00003238DF80630142302AC8DF807304FF475
:1016B000806324F8043D2146234802F0D7FC04232C
:1016C0008DF8073021464FF400631F48ADF8043011
:1016D00002F0CCFC002401224FF480611A4802F091
:1016E0001EFD0A20FEF79AFF00224FF48061164883
:1016F00002F015FD0A20FEF791FF092C1ED91248B1
:1017000002F006FD030519D501224FF480610E4851
:1017100002F005FD0A20FEF781FF00224FF4006170
:10172000094802F0FCFC0A20FEF778FF0648012277
:101730004FF4006102F0F3FC012003E00134142CAB
:10174000C9D1A5E703B030BD000C0140024608B581
:1017500006490B7B012B06D00120FEF75FFF013A03
:10176000F7D1012008BD002008BD00BF28000020DF
:1017700010B50E4C4000A0600D4822606360E1602F
:1017800002F02AF928B10B4A0120136801331360D3
:1017900010BDBDF80830012B06D142F21070FFF7E2
:1017A000D5FF003018BF012010BD00BF0807002082
:1017B00028000020DC47002010B50E4C4000A0603F
:1017C0000D4822606360E16002F0B0F828B10B4A76
:1017D000012013680133136010BDBDF80830012BE0
:1017E00006D142F21070FFF7B1FF003018BF0120A0
:1017F00010BD00BF1807002028000020DC47002093
:1018000013B5064B1C780123009313460A46014684
:101810002046FFF7ADFF02B010BD00BFD447002047
:1018200013B5064B1C780123009313460A46014664
:101830002046FFF7C1FF02B010BD00BFD447002013
:1018400008B50122FFF7DCFF20B1034A012013682D
:101850000133136008BD00BFDC470020F7B50C461C
:101860001E46174612B93270104613E00DF10701FB
:10187000FFF7E6FF012560B96119C9B2BD40C91B78
:10188000013D9DF807308D401D4045FA01F1317052
:1018900000E0284603B0F0BD07B502AB03F8011D18
:1018A00001221946FFF7BCFF20B1044A012013684A
:1018B0000133136003B05DF804FB00BFDC47002078
:1018C0002DE9F34106460F469846154602B30DF141
:1018D0000701FFF7B5FF0124C0B93919C9B2AC40FF
:1018E000491B013C8C409DF8073008FA01F1C9B250
:1018F00023EA04030C4043EA040130468DF8071044
:10190000FFF7CAFF003018BF012002E0204600E0C8
:10191000104602B0BDE8F0810346012206210220F4
:10192000FFF7CEBF0346012206210220FFF796BF34
:101930002DE9F8439846BDF824300A240D46B3FB40
:10194000F4F104FB1133BDF8209003EB01110746BD
:10195000C9B200201646FFF79FFFB9FBF4F104FB64
:10196000119909EB0111C9B20120FFF795FFB8FBEE
:10197000F4F104FB118808EB0111C9B20220FFF752
:101980008BFFB6FBF4F104FB116606EB0111C9B243
:101990000420FFF781FFB5FBF4F104FB115505EBC3
:1019A0000111A7F5FA67C9B20520FFF775FF97FB8C
:1019B000F4F104FB117404EB0111C9B20620BDE877
:1019C000F843FFF769BF000038B50024084D07222F
:1019D000084920462C80FFF713FF20B92B889BB2C3
:1019E0001BB1288038BD204638BD012038BD00BF5E
:1019F00080030020D5470020024608B50A20FEF7E4
:101A00000DFE1046FFF788FFBDE8084042F2107057
:101A1000FEF704BE73B506460C4C0A20002525804F
:101A2000FEF7FCFD0DF10700FFF77CFF9DF80700B6
:101A30002388801B9BB218BF01202BB16FEA404066
:101A40006FEA5040258080B202B070BD8003002054
:101A500038B544F62060FEF7E1FD134B68221D46C1
:101A60001A700A246420FEF7D9FDFFF7ADFF20B9F4
:101A7000013CA4B2002CF5D10EE00A240020FFF7AF
:101A8000BBFF6420FEF7D1FD0020FFF7C3FF30B19C
:101A9000013CA4B2002CF1D10020287038BD034BCA
:101AA0001860012038BD00BFD4470020DC4700206B
:101AB00038B5334D0446294607220020FFF7A0FE23
:101AC000294600284ED12B78C3F3021202EB820282
:101AD00003F00F0303EB420323806B78C3F302127E
:101AE00002EB820203F00F0303EB42036380A8784A
:101AF00010F0400F4FEA201300F00F020AD003F05D
:101B000001039D002B4402EB4303820608D50C33EE
:101B1000A38006E003F0030303EB830302EB43031C
:101B2000A3800B79C3F3011202EB820203F00F03CF
:101B300003EB4203E3804B79C3F3001082000244BD
:101B400003F00F0303EB420323818B7901201A0971
:101B500003F00F0302EB820203F5FA6303EB420387
:101B6000638138BD40F2E27300206381012320804D
:101B70006080A0802381E380FFF730FD38BD00BF87
:101B8000D547002010B50D4C012323826369013332
:101B9000636101F04DFE238B9BB213B909232383AC
:101BA00003E0238B013B9BB22383238B9BB21BB9A6
:101BB000BDE81040FFF78CBC10BD00BF84000020C2
:101BC0000C4B0021198259610B4B0C4A1B68F02009
:101BD000B3FBF2F34FF47A725343094A013B53606B
:101BE000084B83F8230007209160106083F82310CE
:101BF000704700BF840000205C00002040420F00BE
:101C000010E000E000ED00E01FB501214FF400609E
:101C100002F002FB0023ADF80A30ADF806304FF6B3
:101C2000FF73ADF80830094B094A1B68094CB3FB38
:101C3000F2F304A9013B21F80C3D2046FEF786FC97
:101C400001212046FEF7CCFC04B010BD5C00002052
:101C500040420F00002C014072B6064B9B8C9BB299
:101C600062B6054A91889380994282BF116801311A
:101C700011607047002C01408807002072B6074BA6
:101C80009B8C9BB262B6064A91881068994284BFC9
:101C900001301060938003EB00407047002C01403E
:101CA0008807002008B50120FFF7AEFF034B002195
:101CB0009A8C034B19609A8008BD00BF002C01402C
:101CC0008807002007B54FF40073ADF804301823DF
:101CD0008DF8073001A9032305488DF8063002F07E
:101CE000C5F90120FEF79AFC03B05DF804FB00BFC4
:101CF0000008014007B5FEF7B1FE0120FEF78EFC9B
:101D00004FF40073ADF8043048238DF8073001A973
:101D1000032304488DF8063002F0A8F903B05DF8FB
:101D200004FB00BF00080140054B00221A605A6006
:101D30009A60DA601A825A829A82FEF735BF00BF33
:101D40009C27002007B54FF4407003F0E9FE104BCC
:101D5000E02283F823200121042002F05DFA04230D
:101D6000ADF80430102301A90A488DF80730032389
:101D70008DF8063002F07AF9FFF7D6FFFFF7BAFFC9
:101D8000FFF790FFFFF71CFF03B05DF804FB00BFF7
:101D900000ED00E00008014008B5114B114C1B6834
:101DA0001148236002F006F9104802F003F91048C8
:101DB00002F000F90F4802F05FFA02F0B5F90E4B9D
:101DC000002018605860986002F0CEF9012001F000
:101DD000DEFA0A4B186801F0D7FA23689847FEE745
:101DE00004F0FF1FD047002000080140000C014014
:101DF000001001400038014010E000E000F0FF1F3B
:101E0000034B00221A805A809A80DA80704700BF04
:101E100090070020F0B5304B87B09B78013B032B37
:101E200057D8DFE803F0020C2442FFF74BFF2B4B9F
:101E30001D782846FEF7F8FD294B1C783EE001AEE0
:101E4000FFF740FF10220021304603F091FF0024ED
:101E50002449304604F062F82546375D013438469F
:101E6000FEF7E2FD102C85EA0705F6D116E001AE7B
:101E7000FFF728FF10220021304603F079FF0024ED
:101E80001949304604F04AF82546375D0134384692
:101E9000FEF7CAFD102C85EA0705F6D12846FEF7A5
:101EA000C3FDFFF727FF012014E0104CFFF70AFFE6
:101EB00025782846FEF7B8FD2488240A2046FEF738
:101EC000B3FD85EA0400FEF7AFFDFFF713FF012025
:101ED00000E0002007B0F0BDBC270020EC47002048
:101EE0007A030020A2660008A86600087C03002090
:101EF000074A50B1138801339BB20A2B138005D9CE
:101F000048F20202034B1A8070471080704700BFEE
:101F1000040700207A030020014B1868704700BFB7
:101F2000B827002010B542EA4112BDF80C40A0F2DB
:101F3000BC7042EA4020BDF80820640844EA42141C
:101F400044EAC3239BB203EB004010BD30B5BDF89B
:101F5000104042EA41116508BDF80C40A0F2BC7087
:101F600045EA441444EAC32341EA40219BB2024AB1
:101F700003EB0143136030BDB82700202DE9F34186
:101F80000E46044690461F462C4D002303702946FA
:101F900003F03CFF69463046294EFEF712FC0DF176
:101FA0000101204603F032FF3146204603F02EFFA8
:101FB00069465FFA88F0FEF7FBFB0DF10101204650
:101FC00003F024FF3146204603F020FF6946F8B2B3
:101FD000FEF7EEFB0DF10101204603F017FF294645
:101FE000204603F013FF174D69469DF82000FEF7C9
:101FF000DFFB0DF10101204603F008FF29462046D2
:1020000003F004FF69469DF82400FEF7D1FB0DF1B3
:102010000101204603F0FAFE2946204603F0F6FEB1
:1020200069469DF82800FEF7C3FB0DF1010120462B
:1020300003F0ECFE02B0BDE8F08100BFB46600081A
:10204000B6660008B86600082DE9F047274B284D12
:10205000284AAB612723EB6129460346264803F053
:1020600099FCA84600283DD10446DFF89090D8F8A6
:102070001860337883B3304603F0AEFF032825D9C8
:10208000F378303B092B21D800273D46304603F03A
:10209000A3FF1FFA87FA50450BD916F80A3001370B
:1020A000A3F13002092A9EBF6A1C05F8093095B2D7
:1020B000ECE7042D28BF0425002305F809300F485C
:1020C000FEF783FCA04238BF204684B208490A4884
:1020D00003F03EFC0028CAD0074803F023FB20464B
:1020E000BDE8F0870020BDE8F08700BF9E0000201B
:1020F000840300203D670008A40300209C07002003
:1021000010B51148FEF7D2FA0C281BD945210E480C
:10211000FEF7A2FA0D4C09210B48FEF79DFA0422A6
:102120000B490948FEF7A7FA21780748FEF794FA09
:1021300061780548FEF790FAA1780348BDE81040A1
:10214000FEF78ABA10BD00BFC0270020BC270020C0
:10215000000700202DE9F043C84D8FB02846FEF758
:10216000A5FA3D2840F2488252212846C44C2E88C8
:10217000FEF772FA00212846FEF76EFA0422C149E2
:102180002846FEF778FA21782846FEF765FA617846
:102190002846FEF761FAA1782846FEF75DFA237813
:1021A000402B40F0CC806378032B21D1B6490B78CB
:1021B0009B0618D44B78CA785B004B708B7803EB86
:1021C000C2134B800B798A795B000B714B7903EB5F
:1021D000C213A1F80530CB794A7A5B00CB710B7A38
:1021E00003EBC2130B810A222846FEF744FAF3E1FF
:1021F000072B24D1A44C012221462846FEF73BFAA6
:102200000122A1182846FEF736FA0122A11C284611
:10221000FEF731FA0122E11C2846FEF72CFA237959
:102220002BB1013B03EB83035B0003F57A730222BE
:1022300005A99248ADF81430FEF71DFACCE10B2B3E
:1022400040F0CA819149002208688B8801901046AD
:10225000ADF80830A1F1240401230EA9014411F8BE
:10226000341C175D194218BF47F0800705A95B00B1
:10227000232A57549BB206D0802B02BF013080B274
:1022800001230132E9E715227C48FEF7F4F99DF8B5
:102290003530BDF9292003F00F0303EB02130422AC
:1022A0000DEB020175480193FEF7E5F99DF8363014
:1022B000BDF92B2003F00F0303EB021304220DEBF7
:1022C00002016E480193FEF7D6F99DF83730BDF94B
:1022D0002D2003F00F0303EB021304220DEB020188
:1022E00066480193FEF7C7F99DF83530BDF92F20F8
:1022F0001B0903EB021304220DEB02015F4801935B
:10230000FEF7B9F99DF83630BDF931201B0903EB12
:10231000021304220DEB020158480193FEF7ABF9BA
:102320009DF83730BDF933201B0903EB021304225B
:102330000DEB020151480193FEF79DF94CE1002B92
:1023400040F04A8162780B2A40F04681A2782A2A1E
:1023500014D8282A25D2242A00F0BD80252A00F08E
:10236000DC80232A40F03881DFF824911F4639F8B9
:102370000C290124ADF81420984691E02D2A34D080
:1023800057D32E2A00F0EC807F2A40F02581DFF819
:1023900004911C4639F80E290127ADF814209846FF
:1023A00000E11F469846DFF8EC90012439F80E2929
:1023B000ADF814200EAB434413F8243C17F8091071
:1023C000234218BF41F080012C48FEF745F9640014
:1023D0000D2FA4B200F00081802C02BF08F101088B
:1023E0001FFA88F801240137E4E71F469846DFF812
:1023F000A890012439F80729ADF814200EAB434406
:1024000013F8243C17F80910234218BF41F080014B
:102410001A48FEF721F96400062FA4B200F0DC8010
:10242000802C02BF08F101081FFA88F80124013747
:10243000E4E71F469846DFF86490012439F80D2937
:10244000ADF814200EAB434413F8243C17F80910E0
:10245000234218BF41F080010848FEF7FDF86400F0
:102460000C2FA4B200F0B880802C02BF08F1010844
:102470001FFA88F801240137E4E700BFC0270020D5
:10248000BC270020000700200006002024060020B2
:102490000C0600200E060020070600200D06002076
:1024A0000EAB434413F8243C17F80910234218BF1D
:1024B00041F080015248FEF7CFF864000B2FA4B220
:1024C00000F08A80802C02BF08F101081FFA88F80A
:1024D00001240137E4E71F469846DFF828910124DC
:1024E00059F8160905900EAB434413F8243C17F82D
:1024F0000910234218BF41F080014148FEF7ACF8B3
:102500006400152FA4B267D0802C02BF08F1010827
:102510001FFA88F801240137E5E71C469846DFF8E2
:10252000E890012739F80A29ADF814200EAB43448E
:1025300013F8243C14F809103B4218BF41F0800105
:102540002F48FEF789F87F00092CBFB244D0802FB6
:1025500002BF08F101081FFA88F801270134E5E7F6
:102560001C469846DFF8A490012759F812090590F7
:102570000EAB434413F8243C14F809103B4218BF37
:1025800041F080011E48FEF767F87F00112CBFB2B2
:1025900022D0802F02BF08F101081FFA88F8012716
:1025A0000134E5E70EAB434413F8243C14F809105A
:1025B0003B4218BF41F080011148FEF74DF87F0003
:1025C0000D2CBFB208D0802F02BF08F101081FFAFE
:1025D00088F801270134E5E72B889B1B9AB213B2D8
:1025E000002B04DA064B9B88013313441BB2AA88E4
:1025F00001361640AA6893550FB0BDE8F08300BFBE
:10260000C0270020160600200A060020120600201F
:1026100073B50121082001F0FFFD0123ADF804305E
:10262000482301A925488DF8073003238DF806308B
:1026300001F01CFD224B0B221A80224B64221A80CF
:1026400041F6FF72204B00251D80204B204E1D803F
:10265000204B214C9A80214A5D801D809A60FEF7B4
:10266000B1FF682325803370FFF7F2F90128054692
:1026700004D11B48FFF71CFA00B125802488164DB1
:10268000BCB9FA20FDF7D1FF2046FEF7AFFFFA20D4
:10269000FDF7CBFFFEF796FF68232C803370FFF722
:1026A000D7F90128044604D10D48FFF701FA00B11B
:1026B0002C800C4800F0EAFE02B070BD000C014016
:1026C0007E03002028070020CC2700209A07002046
:1026D000D4470020C0270020980700209C07002036
:1026E0007C0700202800002013B50D4C2046FDF784
:1026F000D0FFB0F5805F10D9A068618801AB4FF4BE
:1027000080520144074802F0B3FEFFF7F1FB6388F3
:1027100003F58052A3881340638002B010BD00BF50
:10272000C02700205401002030B5012287B036496F
:10273000364802F089FC002863D1354B1B88CBB9A1
:102740003448FFF781FC0130334980B2FEF739F895
:102750003249334803F0E2FB32496FF48063C81812
:1027600003F054FB30492E4803F050FB2F4A304B06
:102770001A6023E02F4C2088E38822896189029027
:1027800060880190A08800902348FFF7F7FB234959
:10279000234803F0C3FB2049A1F5806003F036FB1A
:1027A00021491F4803F032FB2588A388E28821894C
:1027B0006089019564880094FFF7C8FB184C0A22D1
:1027C00021461D4802F068FCD8B91C4904F5806018
:1027D00003F0A4FB04F5806003F0FEFB84F8010421
:1027E00004F5806003F0F8FB05AB024604F5806158
:1027F000114802F03DFE20B9114B5880188001208D
:1028000000E0022007B030BD3D670008CC03002087
:1028100098070020BA6600089C0B0020C1660008DB
:102820009C0700209D0B0020BE6600080000214C84
:10283000B82700207C07002054010020C56600084E
:10284000C027002008B5094B1A881AB941F64B5227
:102850001A8001E0013A1A801B8833B9044802F05B
:10286000C7FEBDE80840FFF743BB08BDCC270020EA
:102870005401002030B589B0FFF7CCFA254B9B7886
:10288000732B39D1244B1B88002B35D000221146E5
:10289000224C34F80739ADF81030012308AD0D444F
:1028A00015F8105C105D1D4218BF40F0800002ADAD
:1028B0005B00062A50559BB206D0802B02BF013127
:1028C00089B201230132E9E7FEF77CFE9DF80E4054
:1028D000134B68221A7001949DF80D40BDF8080052
:1028E0009DF80C309DF80B209DF80A100094FFF71E
:1028F0001FF80C4800F0CAFD0B4B1B8823B109B030
:10290000BDE83040FFF7FCBB09B0BDE83040FFF741
:1029100021BC00BFBC27002098070020070600202C
:10292000D44700202800002006070020034B1B8806
:102930000BB1FFF7E5BBFFF70DBC00BF060700209A
:1029400070B51E468AB00AAC24F81A0D05AD1346C0
:1029500020460A4600950549FDF798FF2846FEF7F0
:1029600073F83046FEF770F80AB070BDEA660008EA
:1029700070B51E468AB00AAC44F81C0D05AD13466E
:1029800020460A4600950549FDF780FF2846FEF7D8
:102990005BF83046FEF758F80AB070BDEF660008E5
:1029A00070B50E468AB00AAC04F8190D05AD0023C7
:1029B0000522084920460095FDF768FF7820FEF7BC
:1029C00033F82846FEF740F83046FEF73DF80AB0E7
:1029D00070BD00BFF4660008024B00221A81DA8045
:1029E0009A807047E0470020024B00221A805A80EC
:1029F0009A8070472C07002008B5FEF747F8064B71
:102A000099884A1C92B2382A19449A80887184BFE6
:102A100038229A8008BD00BF2C0700200A2801D068
:102A20003B2807D1044B00219A8801201A44917158
:102A300099807047002070472C070020044A00232B
:102A40009380044A044813805380FDF7FDBF00BF04
:102A5000E04700202C070020F866000808B5FFF7C3
:102A6000BBFF044B00221A805A800348BDE808408F
:102A7000FDF7EABF2C070020F866000810B50446F1
:102A800003F0AAFA21460246064803F0D3FA38B901
:102A90002046FDF7D9FF0448FDF7D6FF012010BD01
:102AA000002010BD320700203B67000808B5FDF785
:102AB000DFFF28B1FDF7EAFFBDE80840FFF7CEBF12
:102AC00008BD00002DE9F047002094B0FEF78EFD10
:102AD000FEF778FD7F4B68221A70FEF7B9FF0028D9
:102AE00000F0EE807C4C072221460020FEF788FE95
:102AF000002840F0E1802378A278C3F3021A0AEBA1
:102B00008A0A03F00F0303EB4A0A637812F0400FBE
:102B1000C3F3021909EB890903F00F0303EB490919
:102B200002F00F064FEA22130AD003F001039900C6
:102B30000B4406EB4306930608D50C36B6B205E007
:102B400003F0030303EB830306EB43062379634897
:102B5000C3F3011808EB880803F00F0303EB4808E0
:102B60006379C3F30017BA00174403F00F0303EBB4
:102B70004707A3791D0903F00F0303F5FA6305EB7B
:102B8000850503EB4505FDF75FFF5548FDF75CFF45
:102B9000544B002220780421FFF7D2FE94F9000064
:102BA0005149FFF7FDFE4F4B002260780421FFF7EB
:102BB000C7FE94F901004C49FFF7F2FE494B002291
:102BC000A0780421FFF7BCFE94F902004649FFF704
:102BD000E7FE444B0022E0780421FFF7B1FE94F9B0
:102BE00003004149FFF7DCFE3E4B0022207904211F
:102BF000FFF7A6FE94F904003B49FFF7D1FE394BDD
:102C0000002260790421FFF79BFE94F90500364904
:102C1000FFF7C6FE334B002260790421FFF790FED8
:102C2000324994F90600FFF7BBFEADB23048FDF71C
:102C30000BFF28B22C4B00220721FFF781FE3846FC
:102C4000294B00220721FFF77BFE284B002207219A
:102C50004046FFF775FE2748FDF7F6FE30B2224BDF
:102C600000220721FFF76CFE48461F4B0022072178
:102C7000FFF766FE50461D4B00220721FFF760FE5E
:102C800043463A46294604A88DE84006FFF776F900
:102C900004A8FDF7D9FE1548FDF7D6FE3346424697
:102CA00039468DE800062846FFF73CF90F4B002215
:102CB0000E21FFF75DFE06E00F48FDF7C5FE02E0BE
:102CC0000E48FDF7C1FE0E4800F0E0FB14B0BDE871
:102CD000F08700BFD4470020D5470020FB660008DE
:102CE0000C67000815670008136700083B670008B9
:102CF0001767000820670008296700083E6700087A
:102D0000280000202DE9F041434FFEF7DBFF434848
:102D1000FDF79AFE4248FDF797FEFFF765FEFFF7C5
:102D20008DFE4FF6FF733F4D002204213E480024E4
:102D30006B80264601F0F3F93C4A138A9BB2002BC4
:102D4000FBD03A4B00221A82394B01361E60B7F88D
:102D50000280B8F1000F05D0FFF7A8FE002C4AD181
:102D6000C724E9E7FDF784FE0028F5D0FFF744FE0D
:102D7000FFF754FE0028EAD02E48FFF77FFE38B157
:102D80002D4B0122A3F800802C4B1A80BDE8F08166
:102D90002B48FFF773FE0028B7D12A48FFF76EFED5
:102DA00020B12948FDF750FEFFF748FE2748FFF7FE
:102DB00065FE20B12448FDF747FEFFF73FFE24489B
:102DC000FFF75CFE20B12048FDF73EFEFFF736FE20
:102DD0002048FFF753FE20B11B48FDF735FEFFF7F3
:102DE0002DFE1D48FFF74AFE0028B0D0FFF76AFE0F
:102DF000FFF724FEABE7013CA4B2002C9CD1B5F94F
:102E00000230002B98DA084AD368DB4303F004034E
:102E100043F4802313618FE72C0700205A670008D2
:102E20003B67000858000020000801408400002093
:102E3000E04700207167000806070020B427002043
:102E4000746700087C6700088567000895670008BC
:102E50009B670008A4670008AD67000842B270B520
:102E6000002A984EBCBF0023338033880546032BCD
:102E7000944C00F0B68003D8012B4CD009D967E000
:102E8000052B00F0EB80C0F0CA80642B00F00881B5
:102E900070BD002A80F21581FEF7F0FE8A4B8B4A46
:102EA000186005F07003FF2105F00F05302B13703B
:102EB0005570917009D003D823B3102B05D0F6E0DC
:102EC000402B06D0502B40F0F280BDE87040FFF759
:102ED00041B9072D08D00B2D0AD0032D40F0F18009
:102EE000012333800B2306E00123238006235EE0C9
:102EF000012333802B23B3800023F380744B9B8CFE
:102F0000738070BD0B2D724B0CBF02226422228095
:102F10009B8C638070BDE3886E4AD0540133A088D7
:102F20009BB28342E380C0F0B780002319465C1C4B
:102F3000DBB2834203D2D35C59402346F7E7664AAB
:102F400066480023032413800480002965D062E0D2
:102F50005E4B2A2898701AD8282825D2232831D0E9
:102F60000DD8451E032D39D85B4A002313805B4AD8
:102F700023800221564B11809B8C638070BD2428D6
:102F800024D025282AD1032333800D23B3E72D280D
:102F900020D013D373281DD07F2805D02E281DD113
:102FA000032333801723A6E7032323801123A38061
:102FB0000023E380464B9B8C638070BD03232380FA
:102FC0001023F4E7032323800F23F0E70323238058
:102FD0001B23ECE7032323800A23E8E70023338045
:102FE00070BDE3883B4AD0540133A0889BB2834232
:102FF000E38051D3002319465C1CDBB2834203D229
:10300000D35C59402346F7E7334A3448002302246F
:103010001380048009B10121118033803CE0E388F2
:10302000042B37D8DFE803F0030D101316005128E6
:1030300002D1052232802DE046282BD0002232809A
:1030400028E04C28FAD125E04128F7D122E0532886
:10305000F4D11FE04828F1D1FEF79EFEE388042B4F
:1030600017D8DFE803F003080B0E1100512810D029
:10307000002333800DE04D28FAD10AE04F28F7D124
:1030800007E04428F4D104E04528F1D1FFF73AFEE7
:10309000EEE7F3880133F3800D4B9B8C738070BD9A
:1030A0000A4B9870FFF756F80023238070BD702BF1
:1030B00007D10B4B1B88AB4200D015B904233380DA
:1030C0001AE770BD9007002000070020BC270020F1
:1030D000002C01400006002006070020B427002035
:1030E0007E0300202DE9F84F0024FEF72BFE9B4BBA
:1030F000DFF86892B3F90230002B04DA00220421D1
:10310000974801F00CF8974B974E1C80974F984BBF
:10311000984DDFF870B21C803C802C80ABF80040EA
:1031200074803480B480FFF773FAFEF769FE4FF4C1
:1031300000433B804FF6FF73002204218848A9F822
:10314000023000F0ECFFB9F90230AA46002BD84655
:1031500004DA01220421824800F0E1FF0725FDF78F
:1031600087FC18B1FDF792FCFFF778FEFFF7BCFA79
:10317000B8F800309BB2013B062B22D8DFE803F001
:1031800004070C1F11181D00ABF80040ADE7FFF756
:1031900071FBA8F8004014E0FFF7C8FBA8F8004056
:1031A0000FE0FEF78FFDAAF80040A8F8005008E0F5
:1031B000AAF80040A8F8005003E0FEF79BFDA8F82D
:1031C00000406D4B1B8A9BB2002BC8D06A4B1C82FF
:1031D000FEF742FDB9F90200002877DD674DB0F532
:1031E000FA7F2B8803F101039BB22B8062D1644AE2
:1031F00011880C295ED8012202FA01F111F4825FD4
:103200002CD111F0240F14D111F0120F52D0B3F5BC
:10321000FA7F03D10421524800F081FF2B88B3F5D7
:103220007A7F53D3002204214D482C8000F077FF91
:103230004CE0B3F5FA7F03D10421494800F06FFF59
:103240002B88B3F52F7F04D100220421444800F0DD
:1032500066FF2B88B3F5487FE0D125E0B3F5FA7F10
:1032600003D104213E4800F05AFF2B88B3F5167FA6
:1032700004D1002204213A4800F051FF2B88B3F515
:103280002F7F04D101220421354800F048FF2B880C
:10329000B3F5487F04D100220421314800F03FFFFC
:1032A0002B88B3F5617FB9D1012204212C4800F0AD
:1032B00036FFB3E7834209DB294B294ADB682C80C0
:1032C000DB4303F0040343F4802313613B88274965
:1032D00023F4FE4292B2B2F5004F10D005D8012A75
:1032E00022D012D3032A29D038E748F202008242C2
:1032F0001DD012D348F203039A421FD02EE7C3F326
:103300000E030B803223A9F80230FFF70DFA6FEAA3
:1033100040406FEA5040388020E7C3F30E030B8033
:103320004FF4FA73A9F80230FFF78CFA16E7C3F3EB
:103330000E030B806423A9F802300FE7B3883288AC
:1033400001339BB29A42B380BFF408AF064B5B884F
:103350006FEA43436FEA53433B80FFE65800002087
:1033600000080140EC4700204C0100207A030020B7
:103370007C03002006070020840000207803002042
:103380007E030020B427002080F30888704780F374
:10339000108870474FF0FF32826110220273FF22C3
:1033A0000261FEF7DBB80000037B70B5012B044619
:1033B00005D0037B102B02D0037B002B62D1207839
:1033C000314D55F82020138823F001031B041B0CFA
:1033D0001380FCF723FF2078FCF7DEFEE378022B56
:1033E00003D161782078FCF7B5FF2078FCF7C0FEA8
:1033F0002078FCF7E5FE2378E16955F8230003887F
:103400009BB243F00103038002F048FC626920781C
:1034100012F4801F07D01C4B53F820100B889BB26E
:1034200043F040030B80D10712D555F8201002F06D
:10343000FE068B899BB243F001038B818B8923F0BD
:10344000FE031B041B0C8B818B899BB233438B8146
:10345000530007D555F820100B8823F480631B0414
:103460001B0C0B80E378022B02D16178FCF7FAFE8B
:10347000E378207862786169FCF784FF0123237385
:10348000002070BD012070BD20000020037B10B51E
:10349000012B044604D0037B102B01D0037B13BB0C
:1034A0002078FCF7BBFE2078104B53F820201388BF
:1034B00023F001031B041B0C1380FCF76DFEE37863
:1034C000022B03D161782078FCF744FFE378207861
:1034D00062786169FCF7E0FF00204FF0FF33207352
:1034E0002061A36110BD012010BD00BF200000209D
:1034F0000F4A1049034611604BF6FF71D1804FF41B
:10350000806151814FF4804100209181032110811D
:10351000908059700221D9704FF0FF311873987064
:1035200018615860986058619961DA61704700BF0E
:10353000F0470020A0860100837810B5012B0478A5
:10354000344B38D142685268002A34D1027B012AB8
:1035500002D0027B062A2ED153F824204FF2FF031B
:103560009382C378012B53D1938823F400731B04F7
:103570001B0C9380938823F480631B041B0C9380A3
:1035800006238361138B9C0705D58369012B02D029
:1035900083690133F6D18369012B02D0836901333A
:1035A00003D1BDE81040FFF7F5BE4FF0FF33836154
:1035B000012303732CE053F824309A8A02F47062DA
:1035C0000261102202734FF2FF029A820269D10552
:1035D0000AD51A886FEA42426FEA524292B21A80C2
:1035E0001A88C2F30E021A80026992050AD51A8857
:1035F0006FEA42426FEA524292B21A801A88C2F3CC
:103600000E021A800369036901692046FDF7C2FFB3
:10361000002010BD200000204FF0FF3370B43F4A5F
:10362000836103783E4952F8234051F823502268C1
:103630002A4253D04268466900215160720461D425
:103640008278002A5ED1374A52F82320918821F4EB
:1036500000610904090C918005218161918A490763
:1036600005D48169012902D081690131F6D18169CE
:1036700001291DD0816901311AD04FF0FF31360286
:1036800081611BD4118889B241F400711180062137
:103690008161118B890705D58169012902D0816972
:1036A0000131F6D18169012902D08169013102D14C
:1036B00070BCFFF76FBE4FF0FF3181611A4951F8BE
:1036C0002360316821F001013160918821F400719B
:1036D0000904090C91800122027313E0134A216846
:1036E00052F8232011420DD1114A216852F82320AB
:1036F000114207D00C49102251F823100273496877
:1037000042685160094A0A4952F8232051F823308F
:103710002A4313436360002070BC704748000020B8
:10372000006600082000002010000020F865000856
:10373000F06500084FF0FF3370B4374A83610378B7
:10374000364952F8234051F8235022682A4243D088
:103750008268002151604269160451D48278002A9F
:103760004ED12F4A52F82320118889B241F40071BA
:103770001180918821F400610904090C91800621CF
:103780008161118B890705D58169012902D0816981
:103790000131F6D18169012902D08169013102D15B
:1037A00070BCFFF7F7BD4FF0FF3181611D4951F843
:1037B0002360316821F001013160918821F40071AA
:1037C0000904090C9180918821F480510904090CA5
:1037D00091800122027313E0134A216852F82320DA
:1037E00011420DD1114A216852F82320114207D00D
:1037F0000C49102251F82310027349688268516005
:10380000094A0A4952F8232051F823302A43134326
:103810006360002070BC704748000020E865000825
:103820002000002018000020E0650008D86500088E
:10383000F8B50F4D00244FF0FF36102755F824003F
:1038400088B1836943B98661077303695BB9FF2354
:103850000361FDF783FE06E0836901331EBF8369C0
:1038600003F1FF3383610134022CE7D1F8BD00BFBF
:103870005000002038B5C3780446012B02D0022B3B
:103880000AD047E00278264B53F8222093889BB257
:1038900043F48063938041E00078214D55F8202067
:1038A000938823F400731B041B0C938093889BB2B2
:1038B00043F400639380237B062B01D001290ED1B2
:1038C00062696168FCF706FD227855F822108B8842
:1038D00023F480531B041B0C8B80124B13E0237BBF
:1038E0000A2B01D0022919D16269A168FCF712FDE7
:1038F000A378227833B955F822108B889BB243F411
:1039000080538B80084B53F82220136843F0010347
:10391000136003E010230373012038BD002038BD7D
:1039200020000020100000201800002038B5037B84
:10393000044698074BD4237B032B48D0237B052BCD
:1039400045D0237B002B42D0237B102B3FD06269D4
:10395000022312F0807F23731E4D23781AD1062193
:1039600055F82300A161018B890705D5A1690129BB
:1039700002D0A1690131F6D1A169012902D0A16962
:10398000013104D12046BDE83840FFF703BD4FF0B8
:10399000FF31A161A17881B955F823100B889BB242
:1039A00043F480730B80D30303D501212046FFF736
:1039B00061FF032323731F23A3612378002055F89D
:1039C000232093889BB243F40073938038BD012079
:1039D00038BD00BF2000002038B5037B044699079E
:1039E00000F1CB80037B032B00F0C780037B052B0A
:1039F00000F0C380037B002B00F0BF80037B102B03
:103A000000F0BB800223037343695D4D13F0807F98
:103A100016D106228261027855F822100A8B92078D
:103A200005D5A269012A02D0A2690132F6D1A269A4
:103A3000012A7CD0A269013279D04FF0FF32A26115
:103A4000E278022A07D1A2685268012A02BF43F431
:103A500000136361E2706169CB0371D4A378002B1A
:103A60006ED1237855F823301A8892B242F48072CE
:103A70001A801F22A2619A8AD00705D4A269012A5E
:103A800002D0A2690132F6D1A269012A4FD0A269FF
:103A900001324CD04FF0FF32A261E2699289B2F557
:103AA000804F18D1A268926802F0FE021A820422A6
:103AB000A2619A8A920705D4A269012A02D0A2695A
:103AC0000132F6D1A269012A31D0A26901322ED089
:103AD0004FF0FF32A2619A8A1A8B0322A2619A8A5E
:103AE000100605D4A269012A02D0A2690132F6D1DA
:103AF000A269012A1BD0A269013218D04FF0FF320F
:103B00008903A26122D4A268127B1A820322A261D5
:103B10009A8A120605D4A269012A02D0A26901324A
:103B2000F6D1A369012B02D0A369013304D1204649
:103B3000BDE83840FFF72EBC4FF0FF33A36105E02E
:103B4000E178022902D12046FFF794FE0523237372
:103B5000A378227843B955F822100B889BB243F41E
:103B600080730B801F23A36155F8222000209388C7
:103B70009BB243F40073938038BD012038BD00BF71
:103B80002000002073B50023ADF80630914E037875
:103B9000044656F823309A8A02F0DF02ADF8062078
:103BA0008278FAB9BDF80620D5071DD54FF0FF324F
:103BB0008261C2699289B2F5804F13D1027B052AD6
:103BC00007D18268926842F00102D2B21A820A23B7
:103BD00005E04268926802F0FE021A82062323730F
:103BE0000423A361002542E1BDF8062002F0020291
:103BF00092B2002A69D0C17802290BD1027B062A31
:103C000001D1426803E0027B0A2A03D1826852682C
:103C1000013201E04FF0FF32A261227B0A2A0DD16E
:103C200001290BD1A268556845B91A8892B242F4AD
:103C300000721A809A8A1B8B217318E1237B0A2B4E
:103C400005D1012903D102212046FFF713FE237875
:103C500056F823309A8A1A8B227B0A2A0ED1A26840
:103C60005268012A0AD11A8822F480621204120CC6
:103C70001A801A8892B242F400721A80626912F4B1
:103C80008035AFD1217B06291AD1900318D4626800
:103C9000127B1A820322A2619A8A110605D4A269B4
:103CA000012A02D0A2690132F6D1A369012B00F0EA
:103CB000C980A369013300F0C5804FF0FF33A361D1
:103CC00003212046FFF7D6FDD1E0BDF806100A0615
:103CD0004BD5017B062948D1C178012982D14168A1
:103CE0004D6865B1086804781C824B68013B4B60E5
:103CF0004B68002B3FF476AF0130086072E74269F1
:103D000012F4000101BF1A8892B242F400721A80C4
:103D10009A8822F400721204120C9A809A8822F473
:103D200080621204120C9A800622826181B99A8AFA
:103D300002F084027AB1A269012A0CD0A269013290
:103D4000F5D108E0A269012A05D0A269013202D0AA
:103D50009A8A1606F6D4A369012B73D0A36901339E
:103D600070D04FF0FF33A3617FE0BDF8062050060E
:103D70007FF538AF227B0A2A7FF434AFE278012A3C
:103D80007FF430AFA1684A68022A0A6817D11B8AFB
:103D90001370237856F82320138823F480631B04C0
:103DA0001B0C138013889BB243F400731380A36829
:103DB0005A68013A5A601A6801321A6013E0496879
:103DC0001B8A0129137007D1A2685368013B536015
:103DD00009E000BF20000020A3681A6801321A60C1
:103DE0005A68013A5A60A3685D68002D7FF4FAAE04
:103DF000237856F823309A8822F400721204120CA9
:103E00009A809A8822F480621204120C9A809A8A0C
:103E10001A8A6269910241BF22F400126261022291
:103E2000E2700622A2611A8B920705D5A269012AC7
:103E300002D0A2690132F6D1A269012A02D0A26998
:103E4000013204D12046FFF7A5FA05460FE04FF0F6
:103E5000FF32A2611A8892B242F480621A801A88F4
:103E600022F400621204120C1A80012323732846E4
:103E700002B070BD384B82B01A6842F001021A607D
:103E80005968364A0A405A601A6822F0847222F44D
:103E900080321A601A6822F480221A605A6822F46A
:103EA000FE025A604FF41F029A60002200920192B3
:103EB0001A6842F480321A601A6802F400320192E1
:103EC000009A01320092019A1AB9009AB2F5A06FD5
:103ED000F2D11A6812F4003218BF01220192019A3D
:103EE000012A05D01E4B4FF000629A6002B0704765
:103EF0001C4A116841F010011160116821F00301A2
:103F00001160116841F0020111605A685A605A68E4
:103F10005A605A6842F480625A605A6822F47C12ED
:103F20005A605A6842F4E8125A601A6842F0807285
:103F30001A601968084A8901FBD5516821F003010C
:103F40005160516841F0020151605A6802F00C0260
:103F5000082AFAD1C6E700BF001002400000FFF8AF
:103F600000ED00E000200240FEE7000008B50C4A2A
:103F70000C4B0D498B4204D252F8040F43F8040B4A
:103F8000F8E70A480A494FF000028842B8BF40F8F3
:103F9000042BFADBFFF76EFFBDE80840FFF7A2B87D
:103FA00050680008000000208400002084000020E9
:103FB0000048002008B5264B984206D10121042074
:103FC00000F042F9002104203CE0224B984206D147
:103FD0000121082000F038F90021082032E01E4BB2
:103FE000984206D10121102000F02EF90021102066
:103FF00028E01A4B984206D10121202000F024F934
:10400000002120201EE0164B984206D101214020BD
:1040100000F01AF90021402014E0124B984206D11A
:104020000121802000F010F9002180200AE00E4BD1
:1040300098420BD101214FF4807000F005F9002166
:104040004FF48070BDE8084000F0FEB808BD00BF26
:1040500000080140000C0140001001400014014024
:1040600000180140001C014000200140CA782DE9E1
:10407000F041D40648BF8C780E8802F00F0348BF89
:10408000234316F0FF0F1ED0016800244FF0010EED
:104090004FF00F0C0EFA04F737EA06050FD1A50012
:1040A0000CFA05F821EA080103FA05F5282A41EA85
:1040B000050101D1476102E0482A08BF07610134C8
:1040C000082CE7D10160FF2E20D9416800244FF071
:1040D000010E4FF00F0C04F108050EFA05F535EA54
:1040E00006070FD1A7000CFA07F821EA080103FA26
:1040F00007F7282A41EA070101D1456102E0482A71
:1041000008BF05610134082CE5D14160BDE8F081AC
:10411000806880B2704701617047416170470AB1A1
:1041200001617047416170470D4B1A6842F001020E
:104130001A6059680B4A0A405A601A6822F0847261
:1041400022F480321A601A6822F480221A605A68B7
:1041500022F4FE025A604FF41F029A60704700BFBB
:10416000001002400000FFF8034A536823F00303E5
:1041700018435060704700BF001002401C4A10B541
:10418000536803F00C03042B01D0082B01D0194B0A
:104190000EE053685168C3F38343CC0303F1020379
:1041A00002D55168890301D5134900E011494B43F9
:1041B000036053681149C3F30313CC5C0368E34005
:1041C00043605468C4F302240C5D23FA04F4846051
:1041D0005468C4F3C2240C5DE340C3605268C2F368
:1041E00081320A44127CB3FBF2F3036110BD00BFBD
:1041F0000010024000127A0000093D00700000200B
:10420000044B5A6909B1104301E022EA00005861E9
:10421000704700BF00100240044B9A6909B1104377
:1042200001E022EA00009861704700BF00100240E0
:10423000044BDA6909B1104301E022EA0000D861B9
:10424000704700BF00100240044BDA6809B1104308
:1042500001E022EA0000D860704700BF0010024071
:10426000044B1A6909B1104301E022EA0000186109
:10427000704700BF0010024008B5214B98420BD197
:1042800001214FF48040FFF7DFFFBDE80840002127
:104290004FF48040FFF7D8BF1A4B984208D1012154
:1042A0004FF40030FFF7DCFF00214FF4003022E034
:1042B000154B984208D101214FF48020FFF7D0FF21
:1042C00000214FF4802016E0104B984208D10121C4
:1042D0004FF40020FFF7C4FF00214FF400200AE054
:1042E0000B4B98420BD101214FF48010FFF7B8FF20
:1042F00000214FF48010BDE80840FFF7B1BF08BDB2
:10430000003801400044004000480040004C00409C
:104310000050004070B50E460446038ACA889BB21E
:1043200023F440531343038282898988338992B2EC
:104330000B43718922F4B0520B4322F00C02134359
:104340009BB28381838AB2899BB223F4407386B087
:104350001343838201A8FFF711FF174A039B049DB3
:104360003168944218BF1D4619226A43A389642606
:1043700013F4004F14BF4D008D00B2FBF5F5B5FBF3
:10438000F6F0A28900010109120406FB115307D5BA
:10439000D9003231B1FBF6F202F00702104306E019
:1043A0001A013232B2FBF6F303F00F03184380B266
:1043B000208106B070BD00BF003801404B8810B5A9
:1043C0000C88028A23438C88C98892B223430B430A
:1043D00022F4706213439BB2038210BD002303805A
:1043E00043808380C3807047838919B19BB243F4B3
:1043F000005303E023F400531B041B0C838170471C
:10440000012310B5C1F342149C4201F01F0103FACD
:1044100001F101D10C3003E0022C0CBF103014303C
:1044200003680AB1194301E023EA0101016010BDEC
:10443000C1F30801818070470388194214BF01202D
:1044400000207047090A012303FA01F1C94389B228
:104450000180704701380A44914204D011F8013BB1
:1044600000F8013FF8E7704700F10B010023DA0183
:1044700042EA530310F8012B1344884203F0FF0370
:10448000F5D118467047000003685A1C02601B787B
:1044900098B2A0F16102192A02D8203880B2704780
:1044A0007F2882BF024A9B1813F8800C704700BF18
:1044B000B5670008F0B585B004AC44F80C1D05469E
:1044C0001E46114639B12046FFF7DEFF01390028AC
:1044D000F8D100203BE02B78002B32D1002E30D0D9
:1044E000012034E02A2B0FD002A8FFF7CDFF0746AA
:1044F0002046FFF7C9FF874201461BD1002FEFD0AE
:10450000029B1B783F2BEDD100231A460299481CD1
:1045100002900C7849783F2C0CBF013201233F29CF
:10452000F4D02A29F2D00399FFF7C4FF0028D7D18D
:10453000039B197801A8FFF7A7FF002EC9D0002917
:10454000C7D0019B04AC029544F8043DD8E705B000
:10455000F0BD026810B58AB111460B4611F8014B47
:104560001F2C09D93A2CF8D1511C8B4206D1127854
:10457000302A03D101330360002010BD4FF0FF301B
:1045800010BD08B580B1036873B11A7862B1D988DB
:104590008288914208D15878FCF7DCFD10F0010FB9
:1045A00014BF0320002008BD092008BDCA7E8B7EF1
:1045B000032843EA022301BF487D0A7D42EA002224
:1045C00043EA024318467047F8B5037904460BB92D
:1045D0000020F8BDC56A00F1300701232A4639469C
:1045E0004078FCF7FFFD90B9236AA269EB1A934269
:1045F0002071EDD2E678012EEAD9A36939461D442F
:104600002A4601236078FCF7EDFD013EF3E7012027
:10461000F8BDC36A70B58B4206460D4611D0FFF750
:10462000D3FF044670B92A46012306F130017078A1
:10463000FCF79AFD00281CBF4FF0FF350124F562FE
:1046400000E00024204670BD002310B503714FF038
:10465000FF33C3620446FFF7DCFFC0B994F82F2292
:1046600094F82E3243EA02234AF65522934210D19F
:10467000D4F86630084A23F07F4393420AD0D4F836
:10468000820020F07F40801A18BF012010BD032057
:1046900010BD022010BD00BF464154002DE9FF416E
:1046A00000230360804608461546FFF752FF071EA9
:1046B000C0F2F180814E56F82740002C00F0ED80CA
:1046C000C8F80040237883B16078FCF743FDC10748
:1046D0000BD4002D00F0E38000F0040303F0FF0092
:1046E000002B00F0E8800A20E5E00023F8B22370F8
:1046F0006070FCF79BFCC20700F1D3800DB143074B
:10470000F1D400212046FFF79FFF01281CD104F5BA
:10471000FB71002211F8043C03B10B684DF8223004
:104720000132042A01F11001F4D100275DF827506D
:104730002DB129462046FFF787FF08B90BE002207C
:104740000137042FF2D1AEE0032800F0AF8008B1AA
:104750000D20B0E0054694F83C2094F83B3043EA45
:104760000223B3F5007FF3D194F8463094F8470064
:1047700094F8407053EA002008BF606D7B1E012B47
:10478000A061E770E4D894F83D30A370002BDFD02F
:104790005A1E1A42DCD194F842E094F8412042EAD1
:1047A0000E2E1EF00F0FA4F808E0D1D194F844109B
:1047B00094F8432094F83FC052EA012294F83E1046
:1047C00008BF226D51EA0C21C2D000FB07F801EBB3
:1047D0001E1CC4446245BBD3CCEB0202B2FBF3F314
:1047E000002BB5D040F6F572934203F1020701EBBE
:1047F00005020CEB050110D94FF6F57C634557D93E
:104800006761E5612262A162BEF1000FA0D1E36D94
:104810004FF0030C6362BB0018E04FF0010C6761BE
:10482000E5612262A162BEF1000F91D0BCF1020FDE
:104830004FEA470318BFDB19424418BF07F00107CE
:1048400062621CBF07EB53034FF0010C03F2FF132E
:10485000B0EB532FFFF47CAF4FF0FF332361E360E5
:1048600080236371B38894F8592001339BB2B380DD
:10487000E38094F8583084F800C043EA0223A4F897
:10488000303294F8612094F86030002043EA02232B
:10489000A4F832320FE00B200DE00C200BE028468C
:1048A00009E0032007E003287FF452AF012002E073
:1048B0004FF0020CB3E704B0BDE8F081C80000205F
:1048C00043690239023B99423DBF8378806A01FB0C
:1048D0000300002070470129F8B506460C465DD953
:1048E000436999425AD20378022B29D0032B39D03D
:1048F000012B53D101EB5105016A01EB5521FFF763
:1049000088FE10B14FF0FF30F8BD316A6F1CC5F35F
:104910000805354401EB5721304695F83050FFF734
:1049200078FE0028EED1C7F308073E4496F8300021
:10493000E30745EA00204CBF0009C0F30B00F8BDB7
:10494000016A01EB1421FFF764FE0028DAD164004C
:1049500004F4FF74331993F8310093F8303043EACC
:104960000020F8BD016A01EBD411FFF752FE0028C8
:10497000C8D1A30003F4FE7404F1300333449878E3
:10498000DA7800045B7840EA0260344440EA0320AD
:1049900094F83030184320F07040F8BD0120F8BD85
:1049A00070B5044682680D46012AE18001D10220DB
:1049B00070BD036859698A42F9D252B9197803293E
:1049C00001D1596A21B919898D42F0D2586A15E08E
:1049D0000A469E783601B542114620680CD3FFF78F
:1049E0007AFF431C024618D00128E0D923685B698E
:1049F0009842DCD2AD1BEEE7FFF762FFE2600028D1
:104A0000D5D0236800EB1510303305F00F0503EB0C
:104A1000451520616561002070BD012070BD012930
:104A20002DE9F04106460C4615466ED94369994278
:104A30006BD20378022B3AD0032B48D0012B64D1E0
:104A400001EB5107016A01EB5721FFF7E2FD002856
:104A50005CD107F10108C7F3080714F001043744DB
:104A600017BF97F83030EBB203F00F0343EA05139A
:104A700018BFDBB287F83030316A0123337101EBA4
:104A800058213046FFF7C5FD00283FD1C8F308087C
:104A9000B04414B1C5F3071506E098F83020C5F30B
:104AA000032522F00F02154388F8305029E0016AEF
:104AB00001EB1421FFF7ADFD40BB640004F4FF746B
:104AC000331983F830502D1283F8315019E0016A00
:104AD00001EBD411FFF79DFDC0B9A40004F4FE74EE
:104AE00004F130033344DA783444120602F07042A1
:104AF00015432A1284F830505A702A0C2D0E9A70E1
:104B0000DD7001233371BDE8F0810220BDE8F08142
:104B1000F8B505460F4631B9C66896B143699E425D
:104B200028BF01260EE0FFF7D6FE01283FD9441C1E
:104B300002D14FF0FF30F8BD6B69984238D33E4642
:104B400000E0012634466B6901349C4204D3012EF7
:104B500001D80020F8BD022421462846FFF7BBFEFD
:104B600030B1411CE5D0012821D0B442EBD1F0E7AF
:104B70006FF0704221462846FFF751FFA8B957B998
:104B80002B69EC605A1C0ED0013B2B616B7943F012
:104B900001036B7107E0224639462846FFF73FFFC5
:104BA0000028EDD001E02046F8BD0128C1D0012049
:104BB000F8BD2DE9F843C68804460136B3B20F4666
:104BC00013B90420BDE8F8830369002BF9D016F06F
:104BD0000F085CD1C16801330361006819B903890A
:104BE0009E42EED253E08378013B13EA16134ED176
:104BF000FFF771FE0128054602D80220BDE8F883C0
:104C0000421C02D10120BDE8F883206843699D421F
:104C100037D3002FD5D0E168FFF77AFF054600288B
:104C20003ED00128E9D0431CECD02068FFF7CCFC33
:104C30000028E7D1236803F1300203F50C739A4290
:104C400002D002F8010BFAE7226829461046FFF766
:104C500037FE0027D0624FF0010923689A78974207
:104C60000CD283F804902068FFF7AEFC0028C9D16D
:104C700022680137D36A0133D362EEE7DA6AD71BC1
:104C8000DF62E56029462068FFF71AFE206123688D
:104C9000E680303303EB481363610020BDE8F883FE
:104CA0000720BDE8F88300002DE9F74F4FF6FF79A4
:104CB0004FF0FF0806464446A0F82090316930685E
:104CC000FFF7A7FC002840F0818075692B78002B46
:104CD00073D0E52B65D0E97A0F0701F03F0202D5CA
:104CE0000F2A5ED101E00F2A47D1D6F81CB0BBF1E4
:104CF000000F5BD0580605D503F0BF04F3886A7B2C
:104D0000338402E0A34250D1424695F80D8090458D
:104D10004AD12F78012027F040077B1E0D275F43E3
:104D20004FF0000A2B4B1AF803106A1892F801E0B2
:104D30006A5C42EA0E2288B11046FBF705FA272F7B
:104D4000019032D87A1C3BF817000092FBF7FCF96F
:104D50000199814229D1009A174601E04A4524D1A0
:104D60000AF1010ABAF10D0FDCD12B7859062AD5C8
:104D700048B33BF8173033B317E024B92846FFF7A0
:104D800073FB40451BD0B369DA7AD20709D405F129
:104D90000B00854215D015F8011B13F8012B914229
:104DA000F7D0A6F8209000E09046FF24002130467E
:104DB000FFF7FFFE002881D008E0042006E020462F
:104DC00004E0002002E0013CE4B2EFE703B0BDE8FC
:104DD000F08F00BF356800082DE9F74F0B780746C4
:104DE0002F2B884601D05C2B01D108F1010800244B
:104DF000BC6098F800301F2B60D821463846FFF77A
:104E0000CFFD7C6116E100213BF81120202A00F043
:104E1000A6802E2A00F0A38009B144F003040246C4
:104E200032F8020D2E2801D0013EF9D14FF0000AD0
:104E300055464FF008093BF811004A1C002840F085
:104E40009080BB691A78E52A04BF05221A70B9F16F
:104E5000080F04BFAD00EDB205F00C030C2B00F001
:104E6000CD8005F00302032A00F0C880A10709D411
:104E700005F00305012D08BF44F01004042B08BF02
:104E800044F00804BB690021DC723846FFF788FD56
:104E900010B93846FFF708FFBB69DB7A002840F0FD
:104EA000B0805A0700F1C6807969CB7ADB0640F101
:104EB000AF803B681878FFF779FBB86098F800304E
:104EC00044462F2B08F10108F8D05C2BF6D0D7F818
:104ED0001CB004F1FF39ABF10205002619F8010FEF
:104EE00006F101081F281AD92F2818D05C2816D0DF
:104EF000B8F1290F00F098800121FBF707F900288D
:104F000000F092807F2806D84C4911F8012F12B189
:104F10009042FAD188E025F8020F4646DEE72028C5
:104F2000A0440BEB460234BF04240024002E7BD0A7
:104F300032F8021D202901D02E2901D1013EF5E7CA
:104F400000222BF81620BA690BEB460002F10B0584
:104F5000202195423FF457AF02F8011BF9E70131D8
:104F600052E7202803D02E2805D1B24208D044F0C1
:104F7000030411465FE7CA4504D2B24218D155E096
:104F8000CA4553D3B9F10B0F04D144F003044FF0D9
:104F90000B0956E7B24203D044F003043FF651AF89
:104FA000AD00EDB232464FF00B094FF0080AE0E7D2
:104FB0007F280CD900210192FBF7A8F8019A18B1BB
:104FC0001F4B184410F8800C44F0020428B11D4B0C
:104FD00013F8011F29B18842FAD144F003045F207D
:104FE00006E0A0F1410189B2192913D845F0020564
:104FF000B96901F80A000AF1010ABAE744F00204AB
:1050000034E7042816D113F0040F08BF052011E07F
:1050100005200FE0A0F1610189B219299EBF203857
:1050200045F0010580B2E3E7062003E0B9F10B0F7C
:10503000B6D1AAE703B0BDE8F08F00BF4168000811
:10504000B56700084A6800081FB5019004A840F839
:10505000041D00911446FFF77CFA011E14DB0D4B72
:1050600053F8210008B100220270019808B1002213
:10507000027043F8210050B1012C07D1002269468B
:1050800001A8FFF70BFB02E00B2000E0002004B0BA
:1050900010BD00BFC80000202DE9F04F95B0019170
:1050A00014460546002800F0A6810023036002F0A4
:1050B0001E0201A90AA8FFF7F1FA002840F0D481E6
:1050C00004AB1093B64B01990AA81193FFF784FE25
:1050D0000F9F10B9002F08BF062014F01C0F04F01A
:1050E0001F0600F06181002800F0FF80042840F0D6
:1050F000BB81109C0C22214607A8119FFFF7AAF93B
:105100009DF82730DB0765D50023E3724FF00108D7
:1051100011930B2207A92046FFF79CF9B8F1050F60
:1051200001D8434615E04346B81E30F8022F82B13D
:10513000102102F0010E0EEB430313F4803F1CBF5D
:1051400083F4883383F0210301394FEA5202F0D10E
:10515000EBE7072203F00F0000F13001392988BF87
:1051600000F13701013A02A810441B094170F1D146
:1051700014A97E20114401F8480C9A4204D0E15C45
:10518000202901D00133F8E72344072A9DBF14A941
:10519000891811F8481C202103F8011BA3EB040116
:1051A00098BF01320729F0D900210AA8FFF7F8FBC0
:1051B00048B90AA8FFF778FD28B908F10108B8F145
:1051C000640FA6D14FE1042840F019819DF82730E3
:1051D000E37211979DF827309C070AD5002437F811
:1051E00014300BB10134FAE719340D23B4FBF3F496
:1051F00000E0012400210AA8FFF7D2FB002840F0BC
:10520000FC8007460E990A98FFF703FA002840F041
:10521000F4800F9B1B78E52B00D033B90137BC42DB
:1052200004D1013C00F0F18007E0074601210AA803
:10523000FFF7BFFC0028E5D0DFE0BDF82E100AA87C
:10524000091BFFF7ADFB002840F00E811098FFF717
:105250000BF94FF00F0800900E990A98FFF7D9F953
:105260008646002840F000810F9B9DF80020E1B2A7
:10527000DDF844905A7318739876D8764A1E0D203C
:1052800042434FF6FF7A704683F80B80454F5045F6
:1052900018BF39F812001EF807C00EF1010E03F80E
:1052A0000C0018BF01324FEA102B9C44002808BFA5
:1052B0005046BEF10D0F8CF801B0E7D14FF6FF7EDE
:1052C000704502D039F812200AB941F04001197036
:1052D0000A9B01221A7100210AA8FFF76AFC002824
:1052E00040F0C280013CB7D18FE0FB7A13F0110F80
:1052F00040F0B980600700F1A480310761D5FCF768
:105300000BFE03124FF00008B873FB730A9C030CEA
:10531000000E3B7487F80B8087F81C8087F81D808F
:1053200087F81E8087F81F80787420783946FFF749
:105330003DF9012387F81A8087F81B8087F81480CD
:1053400087F8158023718046002838D098427AD992
:105350006369984277D28246D4F82C9063699A4563
:1053600075D251462046FFF7B6FA834600286ED024
:10537000012868D0B0F1FF3F67D000225146204697
:10538000FFF74DFB00286FD123695A1C05D001336C
:105390002361637943F001036371DA46DEE700BFFE
:1053A000CE0000203568000800285DD1FB7AD806C1
:1053B00057D4A10701D5DA0755D4330701D546F0F4
:1053C0002006DDF828800024D8F82C302F62EB610D
:1053D000AE71EC7198F800003946FFF7E7F82861E4
:1053E000FB692046EB60B8F80630AC60AC61C5F8EC
:1053F0000080AB8038E0092036E0042833D0002854
:1054000032D146F008060F9F77E70E990A98FFF70A
:1054100000F948BB0F9B03F120029A4202D003F827
:10542000010BFAE70B2210990F98FFF713F8109B66
:105430000F9ADB7A03F0180313730A9B01221A7187
:10544000DFE7082010E002200EE001200CE00A98BF
:1054500008F1FF33C3604946FFF7DBF80028ACD002
:1054600002E0042000E0072015B0BDE8F08F00BF87
:105470002DE9F74F9A460023CAF8003004468946C2
:105480001746FFF77EF8002840F0AF80E07900284B
:1054900040F0AB80A379990740F1A680A368FB4256
:1054A0005DD204F509730093019041E001295ED0BB
:1054B0004A1C5ED02369616103B92161A3795B064F
:1054C0005AD4D4F800B061695846FFF7F9F90028BA
:1054D0004DD07D0A00EB06085DD09BF802307219B2
:1054E0009A4288BF9D1B2B46424649469BF80100C5
:1054F000FBF778FE00283CD1A169C8EB01018D4281
:105500000BD94FF4007209EB412104F12400FEF79E
:10551000A1FFA37923F04003A3716D02A368A944FE
:105520002B44A360DAF800307F1B2B44CAF800300C
:10553000AFB1A368C3F30802002A3CD12068867883
:10554000013E06EA532616F0FF06B7D16BB9216972
:105550000029ABD1FFF7DCFA01460028A6D1A368E9
:10556000E26893423AD9E36038E06169F2E70220E9
:1055700000E00120E07138E020680123A26904F115
:1055800024014078FBF72EFE0028F2D1A37923F006
:105590004003A37195E7A369984502D1C4F8188028
:1055A00009E004F12403009A9342F7D09DF8042007
:1055B00003F8012BF7E7A0684946C0F30800C0F5DF
:1055C0000075BD4228BF3D4620442A462430FEF7E0
:1055D00041FFA37943F04003A3719FE7A379002023
:1055E00043F02003A37100E0072003B0BDE8F08F73
:1055F00070B50546FEF7C5FF002855D1AB7903F01D
:10560000200202F0FF00002A4ED05B060DD528686C
:105610000123AA6905F124014078FBF7E3FD002886
:1056200040D1AB7923F04003AB71E9692868FEF7FC
:10563000F0FF0446002837D12E6AF37A43F02003A6
:10564000F372EB683377EB681B127377EB89B377F0
:10565000EB7BF3772B691A12B3761B0C33751B1295
:10566000F2767375FCF758FC0312B075F375030CF2
:10567000000E70763376B474F474AB79012223F0A3
:105680002003AB712B681A712C682046FEF79CFF33
:1056900050B9024601466078FBF7F2FD003018BFB2
:1056A000012070BD012070BD70BD000010B586B036
:1056B0000191044640B3002201A902A8FEF7EEFFC3
:1056C000F8B9029B0199236003ABA361144B2046F8
:1056D000E361FFF781FBE8B9616939B1CB7ADB0699
:1056E0000ED5029B1878FEF761FFA060029B002197
:1056F000DB882046A380FFF753F90428034605D131
:1057000005200023236008E0092006E0002BF8D1E3
:10571000184602E00428F3D0F3E706B010BD00BF3E
:10572000CE00002010B50446FEF72BFF00B9206024
:1057300010BD00002DE9F04F85B004460E46FEF77F
:1057400020FF0746002840F0FB8026B9014620468E
:10575000FFF726F9E7E04FF0FF08454601ABA361EC
:10576000794BDFF8E891E36104202169002966D0D4
:105770002068FEF74EFF002862D163691A78002A7C
:1057800063D0E52A53D02E2A51D0D97A01F03F01B7
:1057900021F0200008284AD00F293ED1510606D515
:1057A00002F0BF05E28893F80D80228401E0AA424E
:1057B0003DD15A7B42453AD14FF6FF7A1A780D21F6
:1057C00002F03F02013A4A43E0694FF0010C4FF00A
:1057D000000E1EF8091003EB010B9BF801B0595C99
:1057E00041EA0B21BCF1000F06D0272A1FD820F870
:1057F00012108C46013201E0514518D10EF1010E14
:10580000BEF10D0FE5D11B785B0640F18E80272A93
:105810000DD8002320F8123087E025B91846FEF78E
:1058200023FE404512D04FF6FF7323840EE0FF2580
:1058300000212046FFF7BDF9002896D000E028B1EE
:105840000023042823616ED177E02061236906F1EB
:105850000902002B34D0616900204D1E4FF02E0E3E
:1058600015F8013F0130202B1AD0052B60D00928F4
:1058700002D182F800E00132A3F1410CBCF1190F12
:105880000CD8082891F80C808CBF4FF0100C4FF00A
:10589000080C18EA0C0F1CBF2033DBB21370013266
:1058A0000B28DDD1CB7A3372CB693360487E0B7E17
:1058B00043EA0023B380C87D8B7D43EA0023F38055
:1058C00000251570D6F81880B8F1000F22D0236992
:1058D0000BB900251BE0F369002BFAD04FF6FF73DC
:1058E000228C9A42F5D0D4F81CA008F1FF393AF87E
:1058F000150060B10021FAF709FC0028E9D0F3692E
:10590000013BAB42E5D9013509F8010FEFE7002370
:1059100008F8053000212046FFF74BF9042802D192
:10592000002323610CE007460AE0013DEDB27FE76A
:1059300009284FF0E503B1D19BE706F10902BFE763
:10594000384605B0BDE8F08FCE000020356800086D
:10595000F8B506460C4601F1090721463046FFF727
:10596000E9FE0546A0B99CB1637A8BB1A16941B942
:1059700000231A463946706AFEF79CFD0028ECD0D9
:1059800006E003460246706AFEF794FD0028EFD059
:105990002846F8BD38B50D46436211460446FFF768
:1059A00085FE28B929462046BDE83840FFF7D0BF1C
:1059B00038BD00004FF6FE730268134003600023F9
:1059C000036043608360C360284B984201D1284A3A
:1059D00027E0284B984201D1254A2AE0264B9842DD
:1059E00001D1234A2DE0254B984201D1204A30E0D5
:1059F000234B984201D11E4A33E0224B984204D1F6
:105A00001B4A536843F470032EE01F4B984204D1A5
:105A1000174A536843F0706326E01C4B984204D148
:105A20001B4A536843F00F031EE01A4B984204D1FF
:105A3000174A536843F0F00316E0174B984204D11D
:105A4000134A536843F470630EE0144B984204D138
:105A50000F4A536843F4704306E0114B984204D157
:105A60000B4A536843F470235360704708000240A8
:105A7000000002401C00024030000240440002408E
:105A8000580002406C0002408000024008040240BE
:105A9000000402401C04024030040240440402405E
:105AA000580402400A6A10B58C68036814430A69F6
:105AB00023F4FF4314434A6923F0700314438A69B3
:105AC0001443CA6914434A6A14438A6A224313433B
:105AD0000360CB6843600B6883604B68C36010BD94
