:020000040800F2
:10000000080B002001100008FD0F0008FD0F00087C
:10001000FD0F0008FD0F0008FD0F000800000000A4
:10002000000000000000000000000000FD0F0008BC
:10003000FD0F000800000000FD0F0008651D00080E
:10004000FD0F0008FD0F0008FD0F0008FD0F000860
:10005000FD0F0008FD0F0008FD0F0008FD0F000850
:10006000FD0F0008FD0F0008FD0F0008FD0F000840
:10007000FD0F0008FD0F0008050500081105000828
:10008000D1040008DD040008FD0F0008FD0F000882
:10009000FD0F0008FD0F0008FD0F0008FD0F000810
:1000A000FD0F0008FD0F0008FD0F0008FD0F000800
:1000B000FD0F0008FD0F0008FD0F0008B504000843
:1000C000C1040008E9040008F5040008FD0F000859
:1000D000FD0F0008251A0008FD0F0008FD0F00089D
:1000E000FD0F0008FD0F0008FD0F000800000000D4
:1000F0000000000000000000000000000000000000
:1001000000000000000000005FF808F1084B10B587
:1001100053F820400121204601F0E0F8204600215C
:1001200001F0DCF82046BDE81040012101F0BEB826
:10013000302F0008084B10B553F82040012120460D
:1001400001F0CCF82046002101F0C8F82046BDE8B7
:100150001040002101F0AAB8302F00082DE9F3412A
:100160000746134C8500631998681B6901211843E1
:1001700001F090F803238DF8063004EB47041C23AC
:100180008DF80730238B02AEDFF8288026F8043D77
:10019000314658F8270000F0B3FF4544A38B3146A1
:1001A000A868ADF8043000F0ABFF02B0BDE8F08104
:1001B000302F000800000020F7B507460E4E03233D
:1001C00006EB40068DF8063004238DF80730338B9C
:1001D00002AD0A4C25F8043D294654F8200000F0F1
:1001E0008FFF04EB8704B38B2946A068ADF8043079
:1001F00000F086FF03B0F0BD302F000800000020A3
:1002000070B5184C85002C440E46206A012101F07F
:1002100035F84FF6FF7314498022CB6000230B6141
:100220008B61CB618B62A36A4A6116F0010F4FF4B8
:1002300040524A620B600C4606D010238B600B4B79
:100240002B44186901F0B2F9B30709D50023A36064
:10025000064B05491D44A869BDE8704001F0A6B9E8
:1002600070BD00BF302F00082401002000000020D6
:1002700010B40C4B0C6849688000D9600A4912F42C
:1002800080420144896A18BF20221A6210225C60F1
:1002900019609A60054B03491844006910BC01F0CD
:1002A00085B900BF24010020302F00080000002085
:1002B00010B40C4B0C6849688000D9600A4912F4EC
:1002C00000420144896A18BF20221A6200225C6041
:1002D00019609A60054B03491844806910BC01F00D
:1002E00065B900BF24010020302F00080000002065
:1002F000CA0738B504460D4605D5084B03EB800305
:10030000186901F0DBF8AB0707D5044800EB84005F
:100310008069BDE8384001F0D1B838BD0000002048
:100320002DE9F74305460F46404C9046661999461D
:1003300001F05AF901238DF8073096F8303001A802
:100340008DF8043096F832308DF8053096F8343058
:100350008DF8063001F056F9780217D496F8363049
:1003600001A88DF8043096F838308DF8053096F8ED
:100370003A308DF8063001F045F92D4B03EB85033B
:100380001A6A93889BB243F480739380B9F1020F89
:1003900049D118F0010F21D0631993F83C2001A82E
:1003A0008DF8042093F83E2093F840308DF8052016
:1003B0008DF8063001F026F91D4BB90503EB8503D6
:1003C0001B691A6842F002021A601A6842F00802B9
:1003D0001A6042BF1A6842F004021A6018F0020F55
:1003E00021D0631993F8422001A88DF8042093F8D6
:1003F000442093F846308DF805208DF8063001F042
:1004000001F90B4B03EB8505AB691A6842F0020258
:100410001A601A6842F008021A60FA0442BF1A68A9
:1004200042F004021A6003B0BDE8F083302F0008E8
:10043000000000202DE9F3478A461D4E99463718E3
:1004400000238DF805308DF806308DF8073097F8C9
:10045000303002AC04F8043D05462046904601F0D9
:10046000D1F81AF4800F06D197F8363020468DF86F
:10047000043001F0C7F8B9F1020F15D118F0010FDF
:1004800007D0731993F83C3020468DF8043001F002
:10049000B9F818F0020F07D0354495F842302046DD
:1004A0008DF8043001F0AEF802B0BDE8F08700BF6F
:1004B000302F0008014800F0AFBB00BF280000202B
:1004C00008B5024800F058F9002008BD28000020B7
:1004D000014800F0C1B900BF28000020014800F029
:1004E00049BA00BF28000020014800F095BB00BFBA
:1004F0004800002008B5024800F03EF9002008BD81
:1005000048000020014800F0A7B900BF48000020C3
:10051000014800F02FBA00BF48000020224A03889B
:1005200090429BB212D002F5006290420ED0B0F120
:10053000804F0BD0A2F59832904207D002F580622E
:10054000904203D002F58062904203D14A8823F0A2
:1005500070031343154A904208D002F5806290421E
:100560001FBF23F44073CA889BB2134303808B8858
:1005700083850B8803850C4B98420FD003F50063ED
:1005800098420BD003F54063984207D003F580638F
:10059000984203D003F58063984201D10B7A038619
:1005A00001238382704700BF002C014000100040EF
:1005B000038819B19BB243F0010303E023F0010368
:1005C0001B041B0C0380704780F30888704780F37E
:1005D000108870474FF0FF32826110220273FF22B1
:1005E000026101F0F7BA0000037B70B5012B0446ED
:1005F00005D0037B102B02D0037B002B62D1207827
:10060000314D55F82020138823F001031B041B0CE7
:100610001380FFF7D1FD2078FFF78CFDE378022BE4
:1006200003D161782078FFF763FE2078FFF76EFD35
:100630002078FFF793FD2378E16955F823000388BC
:100640009BB243F00103038001F012F86269207845
:1006500012F4801F07D01C4B53F820100B889BB25C
:1006600043F040030B80D10712D555F8201002F05B
:10067000FE068B899BB243F001038B818B8923F0AB
:10068000FE031B041B0C8B818B899BB233438B8134
:10069000530007D555F820100B8823F480631B0402
:1006A0001B0C0B80E378022B02D16178FFF7A8FDC9
:1006B000E378207862786169FFF732FE01232373C3
:1006C000002070BD012070BD20000020037B10B50C
:1006D000012B044604D0037B102B01D0037B13BBFA
:1006E0002078FFF769FD2078104B53F820201388FD
:1006F00023F001031B041B0C1380FFF71BFDE378A1
:10070000022B03D161782078FFF7F2FDE37820789F
:1007100062786169FFF78EFE00204FF0FF3320738F
:100720002061A36110BD012010BD00BF200000208A
:100730000F4A1049034611604BF6FF71D1804FF408
:10074000806151814FF4804100209181032110810B
:10075000908059700221D9704FF0FF311873987052
:1007600018615860986058619961DA61704700BFFC
:1007700050010020A0860100837810B5012B047879
:10078000344B38D142685268002A34D1027B012AA6
:1007900002D0027B062A2ED153F824204FF2FF0309
:1007A0009382C378012B53D1938823F400731B04E5
:1007B0001B0C9380938823F480631B041B0C938091
:1007C00006238361138B9C0705D58369012B02D017
:1007D00083690133F6D18369012B02D08369013328
:1007E00003D1BDE81040FFF7F5BE4FF0FF33836142
:1007F000012303732CE053F824309A8A02F47062C8
:100800000261102202734FF2FF029A820269D1053F
:100810000AD51A886FEA42426FEA524292B21A80AF
:100820001A88C2F30E021A80026992050AD51A8844
:100830006FEA42426FEA524292B21A801A88C2F3B9
:100840000E021A80036903690169204601F0EEF97E
:10085000002010BD200000204FF0FF3370B43F4A4D
:10086000836103783E4952F8234051F823502268AF
:100870002A4253D04268466900215160720461D413
:100880008278002A5ED1374A52F82320918821F4D9
:1008900000610904090C918005218161918A490751
:1008A00005D48169012902D081690131F6D18169BC
:1008B00001291DD0816901311AD04FF0FF31360274
:1008C00081611BD4118889B241F400711180062125
:1008D0008161118B890705D58169012902D0816960
:1008E0000131F6D18169012902D08169013102D13A
:1008F00070BCFFF76FBE4FF0FF3181611A4951F8AC
:100900002360316821F001013160918821F4007188
:100910000904090C91800122027313E0134A216833
:1009200052F8232011420DD1114A216852F8232098
:10093000114207D00C49102251F823100273496864
:1009400042685160094A0A4952F8232051F823307D
:100950002A4313436360002070BC70476800002086
:10096000A02F00082000002010000020982F000871
:10097000902F00084FF0FF3370B4374A836103783B
:10098000364952F8234051F8235022682A4243D076
:100990008268002151604269160451D48278002A8D
:1009A0004ED12F4A52F82320118889B241F40071A8
:1009B0001180918821F400610904090C91800621BD
:1009C0008161118B890705D58169012902D081696F
:1009D0000131F6D18169012902D08169013102D149
:1009E00070BCFFF7F7BD4FF0FF3181611D4951F831
:1009F0002360316821F001013160918821F4007198
:100A00000904090C9180918821F480510904090C92
:100A100091800122027313E0134A216852F82320C7
:100A200011420DD1114A216852F82320114207D0FA
:100A30000C49102251F823100273496882685160F2
:100A4000094A0A4952F8232051F823302A43134314
:100A50006360002070BC704768000020882F000889
:100A60002000002018000020802F0008782F0008A8
:100A7000F8B50F4D00244FF0FF36102755F824002D
:100A800088B1836943B98661077303695BB9FF2342
:100A9000036101F09FF806E0836901331EBF83699B
:100AA00003F1FF3383610134022CE7D1F8BD00BFAD
:100AB0007000002038B5C3780446012B02D0022B09
:100AC0000AD047E00278264B53F8222093889BB245
:100AD00043F48063938041E00078214D55F8202055
:100AE000938823F400731B041B0C938093889BB2A0
:100AF00043F400639380237B062B01D001290ED1A0
:100B000062696168FFF7B4FB227855F822108B8880
:100B100023F480531B041B0C8B80124B13E0237BAC
:100B20000A2B01D0022919D16269A168FFF7C0FB25
:100B3000A378227833B955F822108B889BB243F4FE
:100B400080538B80084B53F82220136843F0010335
:100B5000136003E010230373012038BD002038BD6B
:100B600020000020100000201800002038B5037B72
:100B7000044698074BD4237B032B48D0237B052BBB
:100B800045D0237B002B42D0237B102B3FD06269C2
:100B9000022312F0807F23731E4D23781AD1062181
:100BA00055F82300A161018B890705D5A1690129A9
:100BB00002D0A1690131F6D1A169012902D0A16950
:100BC000013104D12046BDE83840FFF703BD4FF0A6
:100BD000FF31A161A17881B955F823100B889BB230
:100BE00043F480730B80D30303D501212046FFF724
:100BF00061FF032323731F23A3612378002055F88B
:100C0000232093889BB243F40073938038BD012066
:100C100038BD00BF2000002073B50023ADF80630BA
:100C2000914E0378044656F823309A8A02F0DF0288
:100C3000ADF806208278FAB9BDF80620D5071DD593
:100C40004FF0FF328261C2699289B2F5804F13D1B1
:100C5000027B052A07D18268926842F00102D2B273
:100C60001A820A2305E04268926802F0FE021A82A4
:100C7000062323730423A361002542E1BDF8062067
:100C800002F0020292B2002A69D0C17802290BD187
:100C9000027B062A01D1426803E0027B0A2A03D1C3
:100CA00082685268013201E04FF0FF32A261227B7C
:100CB0000A2A0DD101290BD1A268556845B91A88B5
:100CC00092B242F400721A809A8A1B8B217318E147
:100CD000237B0A2B05D1012903D102212046FFF7EE
:100CE000E9FE237856F823309A8A1A8B227B0A2A47
:100CF0000ED1A2685268012A0AD11A8822F48062B1
:100D00001204120C1A801A8892B242F400721A80ED
:100D1000626912F48035AFD1217B06291AD1900384
:100D200018D46268127B1A820322A2619A8A110681
:100D300005D4A269012A02D0A2690132F6D1A369C1
:100D4000012B00F0C980A369013300F0C5804FF08A
:100D5000FF33A36103212046FFF7ACFED1E0BDF8CD
:100D600006100A064BD5017B062948D1C178012916
:100D700082D141684D6865B1086804781C824B686F
:100D8000013B4B604B68002B3FF476AF01300860AD
:100D900072E7426912F4000101BF1A8892B242F46C
:100DA00000721A809A8822F400721204120C9A803F
:100DB0009A8822F480621204120C9A8006228261C0
:100DC00081B99A8A02F084027AB1A269012A0CD010
:100DD000A2690132F5D108E0A269012A05D0A26911
:100DE000013202D09A8A1606F6D4A369012B73D079
:100DF000A369013370D04FF0FF33A3617FE0BDF8EA
:100E0000062050067FF538AF227B0A2A7FF434AFE4
:100E1000E278012A7FF430AFA1684A68022A0A68A2
:100E200017D11B8A1370237856F82320138823F4D4
:100E300080631B041B0C138013889BB243F4007364
:100E40001380A3685A68013A5A601A6801321A601E
:100E500013E049681B8A0129137007D1A2685368FF
:100E6000013B536009E000BF20000020A3681A681E
:100E700001321A605A68013A5A60A3685D68002D11
:100E80007FF4FAAE237856F823309A8822F4007261
:100E90001204120C9A809A8822F480621204120CB6
:100EA0009A809A8A1A8A6269910241BF22F40012DA
:100EB00062610222E2700622A2611A8B920705D5B6
:100EC000A269012A02D0A2690132F6D1A269012ADF
:100ED00002D0A269013204D12046FFF77BFB054610
:100EE0000FE04FF0FF32A2611A8892B242F48062A2
:100EF0001A801A8822F400621204120C1A8001234C
:100F00002373284602B070BD384B82B01A6842F095
:100F100001021A605968364A0A405A601A6822F07B
:100F2000847222F480321A601A6822F480221A60D5
:100F30005A6822F4FE025A604FF41F029A6000229F
:100F4000009201921A6842F480321A601A6802F420
:100F500000320192009A01320092019A1AB9009A65
:100F6000B2F5A06FF2D11A6812F4003218BF012254
:100F70000192019A012A05D01E4B4FF000629A603F
:100F800002B070471C4A116841F0100111601168ED
:100F900021F003011160116841F0020111605A68EB
:100FA0005A605A685A605A6842F480625A605A68B5
:100FB00022F47C125A605A6842F4E8125A601A68A5
:100FC00042F080721A601968084A8901FBD551689D
:100FD00021F003015160516841F0020151605A68EB
:100FE00002F00C02082AFAD1C6E700BF0010024046
:100FF0000000FFF800ED00E000200240FEE70000E6
:1010000008B50C4A0C4B0D498B4204D252F8040F20
:1010100043F8040BF8E70A480A494FF000028842F7
:10102000B8BF40F8042BFADBFFF76EFFBDE80840BD
:1010300001F0C0BD3C46000800000020AC000020CC
:10104000AC0000200807002008B5264B984206D1C6
:101050000121042000F036F9002104203CE0224B5D
:10106000984206D10121082000F02CF90021082027
:1010700032E01E4B984206D10121102000F022F9E7
:101080000021102028E01A4B984206D1012120208F
:1010900000F018F9002120201EE0164B984206D1DE
:1010A0000121402000F00EF90021402014E0124BF5
:1010B000984206D10121802000F004F9002180200F
:1010C0000AE00E4B98420BD101214FF4807000F0E2
:1010D000F9F800214FF48070BDE8084000F0F2B844
:1010E00008BD00BF00080140000C01400010014095
:1010F0000014014000180140001C01400020014084
:10110000CA782DE9F041D40648BF8C780E8802F0E9
:101110000F0348BF234316F0FF0F1ED001680024C1
:101120004FF0010E4FF00F0C0EFA04F737EA0605E8
:101130000FD1A5000CFA05F821EA080103FA05F51C
:10114000282A41EA050101D1476102E0482A08BF87
:1011500007610134082CE7D10160FF2E20D94168D6
:1011600000244FF0010E4FF00F0C04F108050EFAA9
:1011700005F535EA06070FD1A7000CFA07F821EAB2
:10118000080103FA07F7282A41EA070101D145615E
:1011900002E0482A08BF05610134082CE5D141600E
:1011A000BDE8F0810D4B1A6842F001021A605968DF
:1011B0000B4A0A405A601A6822F0847222F4803284
:1011C0001A601A6822F480221A605A6822F4FE0219
:1011D0005A604FF41F029A60704700BF001002402F
:1011E0000000FFF8034A536823F0030318435060DC
:1011F000704700BF001002401C4A10B5536803F04E
:101200000C03042B01D0082B01D0194B0EE05368BE
:101210005168C3F38343CC0303F1020302D5516841
:10122000890301D5134900E011494B43036053681A
:101230001149C3F30313CC5C0368E3404360546873
:10124000C4F302240C5D23FA04F484605468C4F3EC
:10125000C2240C5DE340C3605268C2F381320A4489
:10126000127CB3FBF2F3036110BD00BF001002401B
:1012700000127A0000093D008C000020044B5A69DE
:1012800009B1104301E022EA00005861704700BF35
:1012900000100240044B9A6909B1104301E022EAB0
:1012A00000009861704700BF00100240044BDA69EB
:1012B00009B1104301E022EA0000D861704700BF85
:1012C00000100240044BDA6809B1104301E022EA41
:1012D0000000D860704700BF00100240044B1A693C
:1012E00009B1104301E022EA00001861704700BF15
:1012F0000010024008B5214B98420BD101214FF458
:101300008040FFF7DFFFBDE8084000214FF4804038
:10131000FFF7D8BF1A4B984208D101214FF4003093
:10132000FFF7DCFF00214FF4003022E0154B98421C
:1013300008D101214FF48020FFF7D0FF00214FF4A6
:10134000802016E0104B984208D101214FF4002074
:10135000FFF7C4FF00214FF400200AE00B4B984236
:101360000BD101214FF48010FFF7B8FF00214FF49B
:101370008010BDE80840FFF7B1BF08BD003801404C
:101380000044004000480040004C00400050004035
:1013900070B50E460446038ACA889BB223F44053B4
:1013A0001343038282898988338992B20B437189FE
:1013B00022F4B0520B4322F00C0213439BB2838100
:1013C000838AB2899BB223F4407386B0134383822D
:1013D00001A8FFF711FF174A039B049D316894424F
:1013E00018BF1D4619226A43A389642613F4004FCF
:1013F00014BF4D008D00B2FBF5F5B5FBF6F0A289E8
:1014000000010109120406FB115307D5D90032313E
:10141000B1FBF6F202F00702104306E01A01323285
:10142000B2FBF6F303F00F03184380B2208106B03D
:1014300070BD00BF003801404B8810B50C88028A8F
:1014400023438C88C98892B223430B4322F47062F1
:1014500013439BB2038210BD00230380438083802B
:10146000C3807047838919B19BB243F4005303E0F2
:1014700023F400531B041B0C83817047012310B518
:10148000C1F342149C4201F01F0103FA01F101D1A2
:101490000C3003E0022C0CBF1030143003680AB18A
:1014A000194301E023EA0101016010BD090A01238B
:1014B00003FA01F1C94389B2018070474FF6FE7308
:1014C0000268134003600023036043608360C360CD
:1014D000284B984201D1284A27E0284B984201D155
:1014E000254A2AE0264B984201D1234A2DE0254B7C
:1014F000984201D1204A30E0234B984201D11E4A44
:1015000033E0224B984204D11B4A536843F47003E2
:101510002EE01F4B984204D1174A536843F0706382
:1015200026E01C4B984204D11B4A536843F00F033A
:101530001EE01A4B984204D1174A536843F0F00357
:1015400016E0174B984204D1134A536843F4706372
:101550000EE0144B984204D10F4A536843F4704391
:1015600006E0114B984204D10B4A536843F47023B0
:101570005360704708000240000002401C00024017
:101580003000024044000240580002406C0002401B
:101590008000024008040240000402401C04024093
:1015A0003004024044040240580402400A6A10B564
:1015B0008C68036814430A6923F4FF4314434A699F
:1015C00023F0700314438A691443CA6914434A6AB6
:1015D00014438A6A224313430360CB6843600B6859
:1015E00083604B68C36010BD4FF4A06000F000B88A
:1015F00040F0BF60024B40F40030D860704700BF3D
:1016000000ED00E0C27810B503780AB3164A03F182
:101610006043D1684278C943C1F30221C1F1040497
:1016200002FA04F40F22CA40817803F561430A40AC
:1016300022431201D2B283F8002303780122590910
:1016400003F01F0302FA03F3084A42F8213010BDE9
:101650005A09012103F01F0301FA03F30349203261
:1016600041F8223010BD00BF00ED00E000E100E0D5
:1016700070B586B00446868801A80D46FFF7BCFD0C
:10168000039A2E4826F03F06B2FBF0F03604360CE3
:1016900081B20E43A6802388294E23F001031B0448
:1016A0001B0C23802B68B3420AD85B00B2FBF3F318
:1016B00001319BB2032B89B298BF0423218423E01C
:1016C0004BF6FF71EE888E421BBF19214B4303EB93
:1016D0004303B2FBF3F30BBFB2FBF3F39BB29BB23A
:1016E00043F48043C3F30B020AB943F001034FF400
:1016F000967101FB00F24FF47A7192FBF1F2013224
:1017000092B243F400432284A3832388A9889BB226
:1017100043F00103238023886A8923F4816323F043
:1017200002031B040A431B0C13439BB22380AA89A8
:101730002B8913439BB2238106B070BD40420F003A
:10174000A086010010B5074C40F225512046FFF756
:10175000ADFE2046BDE81040012240F22551FFF7C2
:101760008DBE00BF0038014000EB800043001846EA
:101770000138FDD8704738B5044601F0ABFB80B2A4
:101780000246002330B1013880B2215C2E2908BF07
:101790000346F7E713B9013A202010E0013B20216E
:1017A00082B29A4205DAA55C0130302D0AD1A154EB
:1017B000F6E738BD655C0133302D03D1605499B232
:1017C0009142F7DB38BD0309092B00F00F0094BFED
:1017D0003033373309280B7094BF30303730002353
:1017E00048708B70704713B50A46044601A9C0B211
:1017F000FFF7E9FF200A1146FFF7E5FF9DF80430E7
:1018000093709DF80530D3709DF80630137102B0C7
:1018100010BD13B50A46044601A9C0B2FFF7D3FFB5
:101820009DF8043001A993719DF80530C4F3072099
:10183000D371FFF7C8FF9DF8043001A913719DF81B
:101840000530C4F307405371FFF7BDFF9DF8043026
:1018500001A993709DF80530200ED370FFF7B3FFF8
:101860009DF8043013709DF80530537000231372F7
:1018700002B010BDF8B50E46069C002121703178EB
:10188000752927D17578632D01D1017807E0692D7D
:1018900001D1018803E06C2D40F08A800168B7789F
:1018A000682F3BD1632D05D12146BDE8F840007873
:1018B000FFF789BF692D05D12146BDE8F8400088B2
:1018C000FFF791BF6C2D29D12146BDE8F840006893
:1018D000FFF79FBF73296BD17178632902D190F90B
:1018E000001007E0692902D1B0F9001002E06C296C
:1018F0005ED10168B0782B280AD1002903DA2D20A7
:101900002070012008E008BF20202070012006E0A0
:1019100000294FF0000002DA494200E0002017469B
:101920001D464FF0300E002D06DA013FBFB20135E3
:1019300004F807E02DB2F6E703EAE373134418BF97
:1019400001359BB218BF2DB20A274FF02E0C9842DA
:1019500010D2013B9BB2C3EB020EAE451FBFB1FBE1
:10196000F7FE07FB1E113031E1540CBF04F803C031
:101970007146ECE70023A3547A21304601F0E4F9E4
:10198000B0B1601CFFF7F7FE204601F0A3FA012377
:1019900083420CD2E25C202A06D02278234403F84A
:1019A000012C20232370F8BD01339BB2F0E7F8BD72
:1019B000F8BD00001FB501214FF40060FFF76AFC7D
:1019C0000023ADF80A30ADF806304FF6FF73ADF8DE
:1019D0000830094B094A1B68094CB3FBF2F304A910
:1019E000013B21F80C3D2046FEF798FD01212046E1
:1019F000FEF7DEFD04B010BD7800002040420F006D
:101A0000002C014008B50120FFF7D4FF034B002153
:101A10009A8C034B19609A8008BD00BF002C0140CE
:101A2000B4050020094B1A8892060ED508480949CA
:101A30009A88038809880133DBB289B28B4218BFC8
:101A40000549D2B21CBFCA54038070470038014018
:101A5000B0050020B2050020E0050020044B1888E6
:101A6000044B80B21B889BB2C01A18BF012070477C
:101A7000B0050020B205002010B50948094C2188A6
:101A8000038889B29BB29942054AF8D01388013382
:101A9000DBB213801388044A9BB2D05C10BD00BF38
:101AA000B2050020B0050020E00500201FB500238E
:101AB00000900C2269460848ADF80430ADF80630B5
:101AC000ADF80830ADF80A20ADF80C30FFF760FC37
:101AD00005B05DF804FB00BF0038014030B50121BE
:101AE00085B044F20500FFF7D5FB4FF48063ADF8F5
:101AF000003048231C4C69468DF803301B480323F3
:101B00008DF80230FFF7FCFA02A8FFF7A5FC02A946
:101B10002046FFF791FC4FF4E130FFF7C7FF252384
:101B20008DF8043001250F2301A88DF805308DF8BC
:101B300006308DF80750FFF765FD0022204640F281
:101B40002551FFF79BFC204640F22551FFF7AEFCE4
:101B5000074A00231380074A294620461380FFF7CF
:101B600081FC05B030BD00BF0038014000080140D5
:101B7000B2050020B005002008B5FFF7AFFFBDE8B3
:101B80000840FFF7DFBD000070B504460E4615465D
:101B9000FEF79CFD2046FEF7CBFD4BF6FF720323BC
:101BA00063700223E370E3690020A0706660A560A3
:101BB000DA804FF480625A814FF480429A81044A5D
:101BC000988018811A602046FEF70EFD80B270BD25
:101BD000801A0600027808B50E480F4B62B91A88C1
:101BE0000E49013292B21A805A68006801325A6076
:101BF0000B4AFFF7C9FF0BE05A880A49013292B23B
:101C00005A809A68406801329A60074AFFF7BCFF21
:101C1000002008BDA0000020AC000020E806002045
:101C2000C0050020F8060020D005002010B40E4B9F
:101C30000E4C60B91A882068013292B21A805A6834
:101C40000B4901325A6010BC0A4AFFF79DBF5A88FF
:101C50006068013292B25A809A68074901329A60EC
:101C600010BC064AFFF790BFAC000020A000002087
:101C7000E8060020C0050020F8060020D00500205E
:101C800070B5084E084D094C324629462068FFF7CA
:101C90007BFF06F1100205F110016068BDE870409D
:101CA000FFF772BFC0050020E8060020A00000205A
:101CB000024610B50849094C237B51F823301B7BA1
:101CC000012B06D00120FFF74FFD013AF4D101208E
:101CD00010BD002010BD00BFA0000020AC000020FF
:101CE000F8B5134CDFF850E0267B400037010EEBCF
:101CF00007056B600F4BA8604EF80720E96053F8AA
:101D00002600FEF733FF38B1237B012004EB830468
:101D1000636801336360F8BDBDF81830012B06D14C
:101D200042F21070FFF7C4FF003018BF0120F8BD69
:101D3000AC000020A0000020E806002013B5074BEF
:101D4000074C1B7BE45C0123009313460A460146C3
:101D50002046FFF7C5FF02B010BD00BFAC00002059
:101D6000BC050020034B0122DA811A6901321A6195
:101D7000FEF77EBEAC0000200C4B0021D98119611A
:101D80000B4B0C4A1B68F020B3FBF2F34FF47A7252
:101D90005343094A013B5360084B83F82300072053
:101DA0009160106083F82310704700BFAC000020E2
:101DB0007800002040420F0010E000E000ED00E05D
:101DC00007B501210420FFF765FA0123ADF80430BF
:101DD00010238DF8073001A9032304488DF806303D
:101DE000FFF78EF903B05DF804FB00BF0008014067
:101DF00007B501210820FFF74DFA0C23ADF8043098
:101E0000102301A908488DF8073003238DF8063008
:101E1000FFF776F9FFF7B0FEFFF732FFFFF7ACFFF1
:101E200003B05DF804FB00BF000C014008B5114B86
:101E3000114C1B6811482360FFF706F91048FFF7A3
:101E400003F91048FFF700F90F48FFF753FAFFF7BF
:101E5000A9F90E4B0020186058609860FFF7C2F98E
:101E60000120FEF7B4FB0A4B1868FEF7ADFB2368B0
:101E70009847FEE704F0FF1FE0060020000801403D
:101E8000000C0140001001400038014010E000E06B
:101E900000F0FF1F10B5FFF7E1FD002855D02B4CD7
:101EA0006388062B51D8DFE803F004131921505042
:101EB0003600FFF7E1FDFB2803D10123A071638009
:101EC00010BD462841D1062363800023A38010BDA6
:101ED000FFF7D2FD0223E071638010BDFFF7CCFD58
:101EE0000023A38020720323638010BDFFF7C4FD8D
:101EF000A388164A1F2B02D90023638010BD591CEA
:101F000013449872D37989B201338B4291801CDAE1
:101F10000423538010BDFFF7AFFDA38801339BB2AC
:101F2000A380013B032B10D8DFE803F00205080B68
:101F30004C28E1D110BD4128DED110BD5328DBD1A2
:101F400010BD4828D8D1FFF771FF10BD60010020F7
:101F500008B5FFF783FD10B1FFF79CFFF9E708BD57
:101F6000044B5A88042A03BF052201205A8000200E
:101F7000704700BF60010020024B00221A805A8087
:101F8000704700BF6001002070B50A4E0A4C012363
:101F90003C251F220949002033736570FFF7CEFEF0
:101FA00038B9257030731F220449BDE87040FFF72F
:101FB000C5BE70BDAC000020BC050020A82F0008E5
:101FC00007B502228DF804008DF80510002001A944
:101FD000FFF7B4FE03B05DF804FB000007B5074B44
:101FE000062253F81F0F69469B8800900020ADF829
:101FF0000430FFF7A3FE03B05DF804FBA82F000830
:1020000008B52F21D920FFF7DBFFBDE808400021EC
:10201000DB20FFF7D5BF08B5F121D920FFF7D0FFAE
:102020004021DB20FFF7CCFFBDE80840CF21812015
:10203000FFF7C6BF01468120FFF7C2BF10B50D4CA8
:10204000A38AB3B1FFF7CAFF04F11E014FF4806207
:102050004020FFF773FE238844F62060E382638804
:1020600063830023A3832383A382BDE81040FFF78B
:102070007BBB10BD8C0100200D4B4022988020F0CE
:10208000020001284FF0800116BF19801A805A8083
:102090001A8808BF5980DA825A8800215A83054875
:1020A0004FF4806299831983998200F0FFBD00BFCD
:1020B0008C010020AA0100207F2870B530D83F296C
:1020C0002ED8184B05B2B3F916600CB2AE42B3F974
:1020D0001A60C8BFDD82AE42C4BF124E7583B3F929
:1020E0001850A542BCBF0F4D2C83B3F91C50A5421C
:1020F000BCBF0C4DAC8301249C820A4DCB0800EB85
:10210000C31001F00701284412F0010F04FA01F492
:10211000817F02D00C43847770BD21EA0404847768
:1021200070BD00BF8C010020144BB3F91600198854
:102130000028C4BF0020D8820139B3F91A0009B2BF
:102140008842C8BF0D485A88C8BF4183B3F91810E8
:10215000013A0029BEBF094900200883B3F91C10C9
:1021600012B29142B8BF05490548B8BF8A8301221F
:102170009A8200214FF4806200F098BD8C0100200B
:10218000AA0100200B46144900B5898803291DD8EF
:10219000DFE801F01C020A14C3F17F0381B25DF88D
:1021A00004EB98B2FFF788BFC3F13F01C0F17F0095
:1021B00089B280B25DF804EBFFF77EBFC0F13F014A
:1021C00089B298B25DF804EBFFF776BF99B280B29E
:1021D0005DF804EBFFF770BF8C0100202DE9F04F94
:1021E00087B09146BDF940204FF008080292BDF833
:1021F000442000250392DA1D92FBF8F282468B46BA
:102200002F462C46009207EB0B0212B20299019264
:102210003AB2914220DD09EB05020026049232B267
:102220009A4215DAB0B2410705BF92FBF8F2049961
:1022300064008C5C18BFE4B2220607D55044039AB0
:10224000019900B20593FFF79DFF059B0136E6E774
:10225000009A01371544D6E707B0BDE8F08F2DE9A5
:10226000F041141E05460E461F464FF000080FDAD7
:1022700064421FFA88F0A04208DA281A3A4631462A
:1022800000B2FFF77FFF08F10108F2E7BDE8F08137
:102290001FFA88F0A04208DA28443A46314600B2D4
:1022A000FFF770FF08F10108F2E7BDE8F0812DE9C2
:1022B000F041141E05460E461F464FF000080FDA87
:1022C00064421FFA88F1A14208DA711A3A4609B24B
:1022D0002846FFF757FF08F10108F2E7BDE8F08153
:1022E0001FFA88F1A14208DA31443A4609B2284679
:1022F000FFF748FF08F10108F2E7BDE8F0812DE99A
:10230000F04782460F461646B3F10008BDF820900C
:10231000B4BF08F1010508F1FF35002AAABF02F198
:10232000FF30541C04B24B4650462DB2B8BF24B205
:10233000FFF795FF79194B463246504609B2FFF731
:102340008EFF4B46424639465046FFF7B0FF0AEB38
:1023500004004B4642463946BDE8F04700B2FFF75D
:10236000A6BF2DE9F041002B06461746BDF81880A0
:102370008CB201EB03050CDAAC4208DD21B2434616
:102380003A463046013CFFF76AFFA4B2F4E7BDE8E5
:10239000F081AC4208DA21B243463A463046013475
:1023A000FFF75DFFA4B2F4E7BDE8F0812DE9F04F3F
:1023B0009B468A46154693B2C3F10104C3EBC3336F
:1023C0005B0085B01BB20193002300930BF0040364
:1023D000DBB2BDF8387024B202931FFA80F8BDF961
:1023E0000030AB4280F28680002C08DB019B013D6F
:1023F00002339BB21AB21C442DB2019224B2BDF832
:102400000060029B04EB4604033424B2C3B1ABB2B8
:102410001FFA8AF908F1010009EB030130443A463A
:1024200009B200B20393FFF7ADFE039B09F101016E
:10243000314408EB03003A4609B200B2FFF7A2FEAE
:102440001BF0020F18D0ABB21FFA8AF908F1010095
:10245000C3EB090130443A4609B200B20393FFF7D7
:1024600091FE039B09F1FF31891B08EB03003A46FB
:1024700009B200B2FFF786FE1BF0080F19D01FFA51
:102480008AF9ABB209F1010EC3EB080006EB0E01AD
:102490003A4609B200B20393FFF774FE039B08F1BA
:1024A000FF3003EB0901801B3A4609B200B2FFF787
:1024B00069FE1BF0010F19D01FFA8AF9ABB209F1BE
:1024C000FF3EC3EB0800C6EB0E013A4609B200B26C
:1024D0000393FFF757FE039B08F1FF30C3EB09019D
:1024E000801B3A4609B200B2FFF74CFE009B013355
:1024F000009374E705B0BDE8F08F0000024AD3886E
:102500001844D080704700BF8C0100200A282DE9B4
:10251000F84F09D1224A00231189D38053890B44F3
:1025200008331381BDE8F88F1F2836D91C4B20389B
:10253000B3F90620198806328A42C0B206DB0022AF
:102540001989DA805A890A4408321A81B3F8068058
:102550001A8908F10601D980124B062505FB0035C2
:10256000971F0232BFB24FF0000996B23C4608EB0B
:10257000090B15F809A00FFA8BFB21B20134524662
:102580005846A4B2FFF7FEFDA6424FEA5A0AF4D11C
:1025900009F10109B9F1060FE8D1BDE8F88F00BFD4
:1025A0008C010020CD2F00082DE9F04F394B0A286F
:1025B000196985B08D7A1A4607D10022DA801A8906
:1025C00015445A8915441D8161E00B7A98425ED307
:1025D0004C7A84425BD34E680C68C01A06EBC0018B
:1025E00091F9057091F804800194CB788C7891F979
:1025F00006E091891FFA84FA8844B2F906101FFA9E
:1026000088F839440C4411888C4206DD0021D180C1
:1026100011890D4451890D441581D18836F83090C7
:1026200008EB01040026D48035463446B2F908C0D0
:102630000F440CEB0E020292B2B2934227D90299D8
:102640004FF000080A440FFA82FB1FFA88F02A189C
:10265000824592B217D9510701BF019909F10102D0
:1026600011F809401FFA82F9220607D538440122E1
:10267000594600B20393FFF785FD039B6400A4B2A3
:1026800008F10108E1E75544ADB20136D4E705B0E1
:10269000BDE8F08F8C010020F8B5104B1969A9B185
:1026A0000D7A4E7A9F89421E002012F8013F63B1D5
:1026B0009D42FAD89E42F8D34C685B1B04EBC303DF
:1026C0001B793B44184480B2EFE7F8BD00F002FCF0
:1026D00000EB4000400080B2F8BD00BF8C0100203C
:1026E000034B1B690BB1FFF75FBFFFF70FBF00BFC5
:1026F0008C01002010B5441E14F8010F10B1FFF733
:10270000EFFFF9E710BD000010B50446FFF7C4FF66
:10271000054A1388181A022390FBF3F0D080204654
:10272000BDE81040FFF7E6BF8C01002038B50B4C28
:10273000FFF72AFC802323804023002563800123A8
:10274000A382A580FFF7F0FCFFF778FC0623E58065
:10275000238125616581A58138BD00BF8C010020E2
:10276000064B1B894BB1064B00221A616122DA80AD
:1027700004483F221A81FFF7BDBF7047A000002028
:102780008C010020C44500082DE9F743484DFFF7B0
:10279000CBFC484C484F2B7D27618BB14FF6FE7325
:1027A0000026A38105F114000C232381E680FFF7A6
:1027B000A1FF0620FFF7A2FE5620FFF791FFA6819A
:1027C000AB8E1BB301252B462A460D2151200095C7
:1027D000FFF7ECFD2B4602220E2151200095FFF75A
:1027E000E5FD2B4606220E2151200095FFF7DEFD68
:1027F0002B460A220E2151200095FFF7D7FD0E220D
:1028000000952B4611465120FFF7D0FD4FF00108EF
:102810000F231B2200216220CDF80080FFF76FFDFF
:10282000032209231146CDF800807C20FFF767FDC5
:10283000224B0025B3F90A209946002A01DB6426C1
:1028400008E06523E3801E480A2325612381FFF702
:1028500051FF11E0B9F90A20ABB2934205F101052D
:102860000ADA30B2CDF800800B23052202210636A9
:10287000FFF777FDB6B2EDE7B4F90020122101238E
:102880000020FFF7ECFC25230E4823812761FFF78A
:102890003BFF0D4B0D4823613C232381FFF734FFA1
:1028A000FFF75EFF03B0BDE8F043FFF7C7BB00BF13
:1028B000AC0000208C01002008320008A00000209D
:1028C00016460008E2000020143200080201002031
:1028D00038B50A4A00230A4C0A4D53810A4A294650
:1028E00004F11400A386138000F096FA294604F13F
:1028F0005600BDE8384000F08FBA00BFA0000020AD
:10290000AC000020C9450008AE05002008B5FFF75F
:10291000DFFF0449044800F07FFABDE80840FFF7F4
:1029200033BF00BFCA450008E200002008B5FFF72A
:10293000CFFF0449044800F06FFABDE80840FFF7F4
:1029400023BF00BFD2450008E200002030B54F4C45
:102950004F4A638A89B0C3F300239386A38A642213
:10296000323393FBF2F308A804AD20F8123D0422A1
:10297000012348490095FEF77DFF9DF81030294658
:10298000302B08BF2023444808BF8DF8103000F0DA
:1029900043FAA28A64235343228B3233B3FBF2F30C
:1029A0009BB25D2B3D4A02D9042353810EE0562B86
:1029B00002D90323538109E04E2B02D9022353810C
:1029C00004E0472B8CBF012300235381E589E906EE
:1029D00044BF4FF6FF735381A389022B04D83049BB
:1029E000304800F019FA06E0062B0CBF2E492F499B
:1029F0002C4800F011FAE38A03F00703013B062B91
:102A000005D8DFE803F0090E13181D222700284916
:102A1000284800F001FA21E02749264800F0FCF997
:102A20001CE02649234800F0F7F917E02449214823
:102A300000F0F2F912E023491E4800F0EDF90DE034
:102A400021491C4800F0E8F908E02049194800F045
:102A5000E3F903E01E49174800F0DEF96A0705D5DF
:102A60001C49104800F0D8F91B4906E02B060AD58E
:102A700018490C4800F0D0F918490E4809B0BDE8D3
:102A8000304000F0C9B909B030BD00BF600100207E
:102A9000AC000020DA450008C0000020A0000020A3
:102AA000DD450008E2000020E7450008ED4500088C
:102AB000F845000802010020FD4500080346000813
:102AC000094600080F460008134600081A46000889
:102AD00020460008244600082A460008354600081B
:102AE0002DE9F3412E4F3E88B846002E54D02D4C90
:102AF000258815B1013D25804EE0012E16D1FFF746
:102B00007FFA2846FFF796FA40230093264A294683
:102B100020200196FFF762FBFFF790FA234B1D8000
:102B200002233B804FF49673238035E0022E12D1AE
:102B30001E4D042328882380013080B22880C0B233
:102B4000FFF778FA2B88FE2B26D903233B804FF41E
:102B5000FA73238020E0032E0FD1144D0426288819
:102B60002680013880B22880C0B2FFF763FA2B8834
:102B700093B964233E8023800EE0042E0CD10C4BCD
:102B80001B8813B1FFF700FE01E0FFF7BFFEFFF760
:102B900042FA0023A8F8003002B0BDE8F08100BF7F
:102BA000BE050020E406002020320008AC0500200D
:102BB000600100202DE9F84F002441F288352646B7
:102BC000A346FFF715F9334FFFF7FAF8FEF71AFFA0
:102BD000FFF7D2F9FFF7AAFD0020FFF74DFA012316
:102BE0003B802D4BDFF8B480DFF8BC901C80B8F838
:102BF0000E309BB2002BFAD0284BA3F80EB0FFF793
:102C00006FFF76B1013EB6B26EB9D9F80C3013F051
:102C1000010F0CBF4FF001134FF48033C9F810308F
:102C200001E040F22B1664B1013CA4B254B9FFF7A5
:102C300005FA3B8833B91A4A13891BB1013B13814A
:102C400000E03124FFF784F9FFF78AF9B8B14FF0BB
:102C50000003DFF850A09AF80820AAF80230D52A1D
:102C600001D0072A0BD1FFF771FE3A880AB9FFF7A6
:102C70008BFD0122AAF800204FF4FA6501E0002D37
:102C8000B5D0013DADB2002DB1D1064B1D80FFF78F
:102C90004DFEACE7BE050020E4060020AC0000209D
:102CA000A0000020600100200008014070B48407EB
:102CB00046D0541E002A41D0CDB2034602E0621E27
:102CC000E4B3144603F8015B9A07F8D1032C2ED91C
:102CD000CDB245EA05250F2C45EA054519D926460A
:102CE00003F11002103E0F2E42F8105C42F80C5C0B
:102CF00042F8085C42F8045C02F11002F2D8A4F138
:102D0000100222F00F0204F00F041032032C1344BF
:102D10000DD91E462246043A032A46F8045BFAD827
:102D2000221F22F003020432134404F003042CB1E6
:102D3000C9B21C4403F8011BA342FBD170BC70470D
:102D400014460346C2E700BF70B411F0FF0434D04C
:102D500085070FD00378002B5AD09C422BD0431C00
:102D600005E013F8012B002A4FD0944223D09A0794
:102D70001846F6D10E0206F47F462643036846EA5B
:102D8000064601E050F8043F86EA0305A5F101324A
:102D9000A3F1013122EA050221EA0303134313F0F0
:102DA000803FEFD0037823B932E010F8013F002BC9
:102DB0002ED09C42F9D170BC704784070BD00378A9
:102DC000002BF8D0431C03E002780133002AF2D034
:102DD00099071846F8D10268A2F1013323EA0203E9
:102DE00013F0803F08D150F8042FA2F1013323EAF9
:102DF000020313F0803FF6D00378002BDBD010F8ED
:102E0000013F002BFBD170BC7047104670BC70476F
:102E1000184670BC704700BF80EA0102844612F079
:102E2000030F4FD111F0030F32D14DF8044D11F0C3
:102E3000040F51F8043B0BD0A3F101329A4312F076
:102E4000803F04BF4CF8043B51F8043B16D100BF4F
:102E500051F8044BA3F101329A4312F0803FA4F1E0
:102E600001320BD14CF8043BA24312F0803F04BF67
:102E700051F8043B4CF8044BEAD023460CF8013BD4
:102E800013F0FF0F4FEA3323F8D15DF8044B70477E
:102E900011F0010F06D011F8012B0CF8012B002ABC
:102EA00008BF704711F0020FBFD031F8022B12F0AB
:102EB000FF0F16BF2CF8022B8CF8002012F47F4F66
:102EC000B3D1704711F8012B0CF8012B002AF9D16E
:102ED000704700BF20F0030110F00300C0F10000B4
:102EE00051F8043B00F1040C4FEACC0C6FF00002E7
:102EF0001CBF22FA0CF213434FF0010C4CEA0C2CCD
:102F00004CEA0C4CA3EB0C0222EA030212EACC12AC
:102F100004BF51F8043B0430F4D0C2F1000102EACE
:102F20000102B2FA82F2C2F11F0200EBD200704736
:102F30000000200000004000080000000800000021
:102F400008000000080000004000000480000008A5
:102F50000100000001000000105400401058004023
:102F60001F2102020000202200000000100E0101BB
:102F70000000110F0101000000000008000008001F
:102F80000000000400000400000000020000020035
:102F900000008000008000000000400000400000B1
:102FA0000000200000200000AED580A83FD30040E4
:102FB0008D142000A1C8DA1281CFD9F1DB40A4A67C
:102FC000AF21007F22000721007F220007000000C0
:102FD0000000000000002F000000000700070000B4
:102FE000147F147F1400242A7F2A120062640813BD
:102FF0002300364955225000000503000000001C44
:10300000224100000041221C000014083E08140068
:1030100008083E0808000000A06000000808080832
:1030200008000060600000002010080402003E510B
:1030300049453E0000427F40000042615149460040
:103040002141454B31001814127F1000274545459A
:1030500039003C4A494930000171090503003649ED
:1030600049493600064949291E000036360000004D
:1030700000563600000008142241000014141414F5
:1030800014000041221408000201510906003249CF
:1030900059513E007C1211127C007F49494936008B
:1030A0003E41414122007F4141221C007F49494964
:1030B00041007F09090901003E4149497A007F0822
:1030C00008087F0000417F4100002040413F01008F
:1030D0007F08142241007F40404040007F020C02E4
:1030E0007F007F0408107F003E4141413E007F0980
:1030F000090906003E4151215E007F091929460059
:1031000046494949310001017F0101003F404040EB
:103110003F001F2040201F003F4038403F00631405
:10312000081463000708700807006151494543000F
:10313000007F41410000552A552A55000041417F3A
:103140000000040201020400404040404000000131
:10315000020400002054545478007F48444438004E
:10316000384444442000384444487F003854545480
:103170001800087E0901020018A4A4A47C007F089E
:103180000404780000447D4000004080847D0000FD
:103190007F102844000000417F4000007C04180498
:1031A00078007C0804047800384444443800FC2447
:1031B0002424180018242418FC007C0804040800A7
:1031C000485454542000043F444020003C404020D8
:1031D0007C001C2040201C003C4030403C00442827
:1031E000102844001CA0A0A07C004464544C44005F
:1031F00000087741000000006300000000417708EC
:10320000000008040808040078420008803F000815
:10321000207E1200983B0008A0380008207E120093
:1032200000000000000000000000003FC10000009E
:10323000000000FFC0C00000000003FFC0F000005D
:1032400000000FFFC0F8000000001FFFC07E00005C
:1032500000007FFFE07F00000000FFFFE07F8000B4
:103260000001FFFFE03FC0000003FFFFE03FE00080
:103270000003FFFFE03FE0000007FFFFE03FF0003A
:10328000000FFFFFE03FF800000FFFFFE01FF80016
:10329000001FFFFFE01FF800001FFFE0E01FFC0021
:1032A000001FFF00001FFC00003FFC00001FFE008D
:1032B000003FF000001FFE00003FE000001FFE0086
:1032C000003F8000001FFE00007F0000001FFE0086
:1032D000007E0000003FFE00007C0000003FFE007A
:1032E00000780000003FFE0000700080003FFE00FC
:1032F00000700380007FFE000060078000FFFE007A
:1033000000001F8001FFFE0000003FC003FFFE0021
:1033100000007FC003FFFC000001FFE001FFFC0094
:103320000003FFF0007FFC00000FFFF8001FF80013
:10333000000FFFFC0003F800000FFFFE0000F0008C
:103340000007FFFF800020000007FFFFE0000000F3
:103350000003FFFFF80000000001FFFFFF00000076
:103360000000FFFFFFF0800000007FFFFFFF000074
:1033700000003FFFFFFC000000000FFFFFF800000F
:10338000000007FFFFE00000000001FFFF00000059
:103390000000001FF8000000000000000000000016
:1033A000000000000000000000000000000000001D
:1033B000000000000000000000000000000000000D
:1033C00000000000000000001F3FE0001C1C7C3ECD
:1033D0003F3FC0001E3C7E7F700600001E7C0E0733
:1033E000700E0F8D9E7C0E07380E1F8FBED87C0688
:1033F0003E0C39CE33D8700E0E0C38CC33981C18D6
:10340000070C31DC33181C70071C319830381CE075
:10341000FE1C3F987031F9FCFC181F186033F1FC5A
:103420000000000000018300000800200020780058
:103430000043FF0000CFFF80019E03E0019860E0A1
:103440000391F8700393F9380397F9380387F93833
:1034500003C3F33803E0073801F80F3801FFFF30EA
:1034600000FFFE70207FFC60103FF0C00C0FC38097
:1034700007000F0001E0FC00003FE000000000003A
:10348000000000000000000000000000000000003C
:10349000000000000000000000000000000000002C
:1034A00000000000000000000000000007C0000055
:1034B00000000003FFFF80000000001FC01FF0009D
:1034C000000000F800007C00000003E0000007009E
:1034D000000007807FC000C000001E03FFF800301E
:1034E00000003C1FFFFF00080000783FFFFFC00402
:1034F0000000F0FFFFFFE0000001F1FFFFFFF00020
:103500000003E3FF807FF8000003E3FC000FFC00F2
:103510000007E7F00003FE000007C7E0FF00FF0020
:10352000000FC7C3FF847F80000FC78FFFC67F8057
:10353000000FC78FFFE23F80000FC71FFFE31FC0D0
:10354000000FE71FFFE71FC0000FE31FFFE78FC05B
:10355000000FE31FFFC78FC0000FF11FFFC78FC011
:10356000000FF81FFF8F8FC0000FF80FFE1F8FC0D6
:10357000000FFE03F83F8FC0000FFF00007F8FC0D9
:103580000007FFC001FF8FC00007FFF80FFF0FC04B
:103590000003FFFFFFFF1F800003FFFFFFFE1F80F0
:1035A0002001FFFFFFFE3F001000FFFFFFFC3F0078
:1035B0000C007FFFFFF87E000E003FFFFFF0FC00D5
:1035C00007001FFFFFC1FC0003C00FFFFF83F800CF
:1035D00001E003FFFE0FF00000F8007FF01FC000C5
:1035E000007E000000FF8000001FC00007FE0000FA
:1035F000000FFC007FFC00000003FFFFFFF0000055
:103600000000FFFFFF80000000001FFFFC00000023
:103610000000007F0000000000000000000000002B
:10362000000000000000000000000000000000009A
:1036300000000000000000001E7F00007060F070BD
:103640003F7F000070E1F8F8330C000070E319CC04
:1036500030181E1B71E0198C38187F1ED9E0F00C51
:103660001C18639CD9E0F0180E18C198DB6038383C
:103670000718C198DB6018702318C198DF6618E03E
:103680006330E3318E6739C07F307F318E63F3FC66
:103690001C303C318C61E3FC0000000000000000A5
:1036A000000000000000000000000000000000001A
:1036B00000000001FFFF00000000001F800FE0007D
:1036C0000000007800003C00000001C0000007007E
:1036D000000007003F8000C000001E03FFF800202C
:1036E00000003C0FFFFE00080000783FFFFF800055
:1036F0000000F07FFFFFE0000001E1FFFFFFF000AE
:103700000001E1FF003FF8000003E3FC0007FC00BC
:103710000007C3F00001FE000007C7E0FF00FF0044
:103720000007C7C3FF847F00000FC78FFFC03F8023
:10373000000FC70FFFE23F80000FC71FFFE31FC04E
:10374000000FC31FFFE31FC0000FE31FFFE78FC081
:10375000000FE01FFFC78FC0000FF11FFFC78FC012
:10376000000FF01FFF8F8FC0000FF80FFE0F8FC0EC
:10377000000FFC03F81F8FC00007FF00007F8FC001
:103780000007FFC000FF8FC00007FFF007FF0F809A
:103790000003FFFFFFFF0F800001FFFFFFFE1F8000
:1037A0002001FFFFFFFC1F001000FFFFFFFC3F0098
:1037B00008007FFFFFF87E0004003FFFFFE0FC00F1
:1037C00007001FFFFFC1F800038007FFFF03F000A1
:1037D00001E003FFFC07E00000F8007FF01FC000DD
:1037E000003E0000007F8000001F800003FE0000FC
:1037F000000FF8003FF800000003FFFFFFE00000AB
:1038000000007FFFFF80000000000FFFF8000000B5
:1038100000000000000000000000000000000000A8
:103820000000000000000000000000000000000098
:103830000000000000000000000000000000000088
:103840000000000000000000000000000000000078
:103850000000000000000000000000000000000068
:103860000000000000000000000000000000000058
:103870000000000000000000000000000000000048
:103880000000000000000000000000000000000038
:103890000000000000000000000000000000000028
:1038A000000000000B0001000000030B0B04F600F9
:1038B000050007050B02F6000A00080C0B01F600D4
:1038C0001600070E0B02F5002300070B0B02F60093
:1038D0002D00080A0B01F700370003050B04F60062
:1038E0003900040E0B05F6004000040E0B02F60032
:1038F000470008070B02F6004E0008090B02F8000B
:10390000570003050B03FF00590009020B01FB00E0
:103910005C0002020B04FF005D00070F0B02F400C5
:103920006B00070C0B02F5007600070B0B02F6008C
:103930008000080C0B01F5008C00080C0B02F50050
:103940009800070A0B02F700A100090B0B01F60013
:10395000AE00080C0B02F500BA00080B0B01F600D4
:10396000C500070C0B02F500D000080C0B02F50097
:10397000DC0002080B04F900DE00030B0B03F90066
:10398000E30009080B01F800EC0009060B01F9003F
:10399000F30009080B01F800FC00080B0B02F6000D
:1039A0000701090F0B01F50018010B0B0B00F600C6
:1039B00028010A0B0B01F6003601090B0B01F6007A
:1039C00043010A0B0B00F6005101090B0B01F60035
:1039D0005E01090B0B01F6006B010A0B0B01F600EF
:1039E0007901090B0B01F6008601060B0B03F600AB
:1039F0008F010A0B0B01F6009D010A0B0B01F6006B
:103A0000AB01090B0B01F600B8010B0B0B00F60024
:103A1000C8010B0B0B00F600D8010B0B0B00F600D6
:103A2000E801090B0B01F600F5010B0E0B00F60087
:103A30000902090B0B01F6001602090B0B01F60037
:103A40002302090B0B01F60030020B0B0B00F600F2
:103A500040020B0B0B00F60050020A0B0B00F600A5
:103A60005E020A0B0B00F6006C020A0B0B00F6005C
:103A70007A02080B0B02F6008502040E0B05F60015
:103A80008C02070F0B02F4009A02040E0B02F600E0
:103A9000A10207060B02F500A7020B020B000300B0
:103AA000AA0203030B03F500AC0209080B01F9009D
:103AB000B5020A0B0B00F600C30209080B01F9005E
:103AC000CC020A0B0B01F600DA0209080B01F9001F
:103AD000E302080B0B02F600EE02090C0B01F900E1
:103AE000FC02090B0B01F6000903080B0B02F600A0
:103AF0001403060F0B02F6002003090B0B01F6005E
:103B00002D03080B0B02F60038030B080B00F9001D
:103B1000430309080B01F9004C0309080B01F900E4
:103B200055030B0C0B00F90066030B0C0B00F9009E
:103B3000770309080B01F900800308080B02F9005C
:103B40008803080B0B01F600930309080B01F90029
:103B50009C030B080B00F900A7030B080B00F900EE
:103B6000B20309080B01F900BB030A0C0B00F900B2
:103B7000CA0307080B02F900D103040E0B03F60079
:103B8000D803020E0B05F600DC03040E0B04F6004E
:103B9000E30309040B01FA00FFFFD21F80EC891236
:103BA00024403636367F7F36FFFF3C3C3C0018FF12
:103BB000FE3C1F1F83468DF0C1830061224486674F
:103BC0003711224C703C7E6060307BDFCEFF7FC9B6
:103BD000243766CCCCCC6631CE6633333366C81816
:103BE00018FFFF3C3C66181818FFFF181818186BD0
:103BF00048FFFFC0F0020C1860C3060C3061830C54
:103C000018200038FBBE3C78F1E3C7DDF1C038F383
:103C100060C183060C18FDF83CFEC70303060C18B0
:103C200070E3FFFF7CFE0303031E1E070303FE7CFD
:103C30001C38B164D9BFFF3E7C7E3F180FC7F31C10
:103C40000603C3FF9F800F3F306060DCFEE3C36369
:103C50007E3CFFFFC3030606060C0C0C1838FB1E47
:103C60003C6F9F63C78FF1C03C7EE6C3C3E77F3BD9
:103C7000060EFCF0F00F6C001AD2000183870E0FC5
:103C800080E01C03FFFFC0000FFFFCC0780F01E0C5
:103C9000F9E3C1807CFEC7030E1C00000030301E1B
:103CA0001F1CDC6C767B6DB6DB6FF3FC0633F8789B
:103CB0003C07C0380581B0360FE1FC71DF7FEF8033
:103CC000FF3FE619867F1FE61D8360FFFFF01FBFE1
:103CD000D8F83C0603018061BFC7C0FE3FE61983E8
:103CE00060D8360D8361BFEFE0FFFFD86DB7C3E149
:103CF000B0C361FFFFE0FFFFD86DB7C3E1B0C060A4
:103D00007C3E001F9FE61B06C0300C7F1FE19FE337
:103D1000F0F7FBD8CC6633F9FCC6637BFDE0FFF31C
:103D20000C30C30C33FFC01FC7F0300C0300CC3382
:103D30000CC73F87C0F7BDE661B0781F06E1986306
:103D40003CFF3CFC7E0C06030180C66331FFFFE0B4
:103D5000E0FE3DC73DE7BCD79BB37660DE3FC78042
:103D6000E1FE3DE33C66CCDD99B31E63DE3BC30060
:103D70001F07F1C7707C0780F01F0771C7F07C0038
:103D8000FE7F986C361BF9F8C0607C3E001F07F17F
:103D9000C7707C0780F01F0771C7F07C0C33FE7F73
:103DA00080FC7F18CC6673F1F0CC637DFE603FBF72
:103DB000F0780F03F83F83C3FFBF80FFFFF67B3D22
:103DC00098C06030183F1F80F1FE3D8330660CC103
:103DD00098330660C7F07C00FBFF7DC318C318361C
:103DE00006C0500E01C01000FBFEF60D936EDBB74F
:103DF000ADEE7B8EE318F3FCF738FC1E0301E0CC3C
:103E000073BCFF3CF3FCF738CC1E0780C0300C0FAE
:103E1000C3F0FEFEC6CC18183063C3FFFFFFCCCC46
:103E2000CCCCCCFF010306060C0C181830306060B7
:103E3000C080FF3333333333FF1071E36C7040FFC6
:103E4000FFFC88807E3F8FCFEE361BFEFFE03806FA
:103E500001BC7F9C760D8371FFEEF03FBFF8783C8C
:103E60000705FE7E0380E018F67FB8EC1B06E39F93
:103E7000F3FC3E3FB0FFFFFE01FE7E1F3F307E7E23
:103E800030303030FEFE3FBFF9D86C3739FC760356
:103E9000018FC7C0E070180DC7F3998CC6637BFD16
:103EA000E0181800787818181818FFFF18603FFC01
:103EB00030C30C30C30FFF80E070180DE6F3E1E073
:103EC000F86E73F9E0787818181818181818FFFFAA
:103ED000FD9FF99B33666CCDBDFFBFEE7F98CC662E
:103EE000331BDFEF3E3FB8F83C1F1DFC7CEF1FF992
:103EF000C3B03606E1DFF378600C03E07C001EEF10
:103F0000FF87606C0DC39FF0F600C0180F81F0773B
:103F1000BFCF06030183F9FC3FFFC3FC3FC3FFFC97
:103F2000606060FEFE606060617F3EE77398CC6613
:103F30003319FE7FFBFF7CC618C1B036038070F1D9
:103F4000FE3DBB3763F8770EE18CF7FBCD8383C36F
:103F5000BBDFEFF3FCF618CC330781E0300C060F23
:103F6000C3F0FFFF30C30C7FFF376666CC66667315
:103F7000FFFFFFF0CE6666336666EC707CF3C0C070
:103F8000000000000B0001000000020B0B04F60013
:103F9000030006050B02F6000700070C0B02F600F3
:103FA0001200080C0B01F6001E00070B0B02F600B6
:103FB0002800070A0B02F700310003050B04F60086
:103FC0003300020D0B05F6003700020D0B04F6005E
:103FD0003B0007070B02F600420007070B02F80040
:103FE000490003050B02FF004B0009010B01FB0018
:103FF0004D0002020B04FF004E00070D0B02F500FE
:104000005A00070B0B02F6006400050B0B03F600C9
:104010006B00070B0B02F6007500080B0B01F60096
:104020008000060B0B03F6008900070B0B02F6005D
:104030009300070B0B02F6009D00070B0B02F60026
:10404000A700070B0B02F600B100070B0B02F600EE
:10405000BB0002080B04F900BD00030B0B03F900C1
:10406000C20008080B01F800CA0009040B01FA009D
:10407000CF0009080B01F800D800070A0B02F7006F
:10408000E100080C0B02F600ED000B0A0B00F70034
:10409000FB00090A0B01F7000701090A0B01F700F1
:1040A0001301090A0B01F7001F01090A0B01F700B0
:1040B0002B01090A0B01F70037010A0A0B01F7006F
:1040C0004401090A0B01F7005001050A0B03F70030
:1040D0005701080A0B02F7006101090A0B01F700FA
:1040E0006D01080A0B02F70077010B0A0B00F700BD
:1040F0008501090A0B01F7009101090A0B01F7007C
:104100009D01080A0B01F700A701090D0B01F7003B
:10411000B601090A0B01F700C201070A0B02F700FA
:10412000CB01090A0B01F700D701090A0B01F700BF
:10413000E3010B0A0B00F700F1010B0A0B00F7007B
:10414000FF01090A0B01F7000B02090A0B01F70036
:104150001702070A0B02F7002002020D0B05F600FA
:104160002402070D0B02F5003002020D0B04F600CD
:10417000340207050B02F60039020B010B000200A6
:104180003B0203030B03F5003D0209080B01F90094
:104190004602090B0B01F600530207080B02F90057
:1041A0005A02090B0B01F600670208080B01F9001F
:1041B0006F02060B0B03F6007802090B0B01F900E6
:1041C0008502090B0B01F6009202070A0B02F700A9
:1041D0009B02050D0B03F700A402080B0B02F6006F
:1041E000AF02070B0B02F600B90209080B01F90038
:1041F000C20209080B01F900CB0209080B01F90002
:10420000D402090B0B01F900E102090B0B01F900C3
:10421000EE0207080B03F900F50207080B02F9008C
:10422000FC02080A0B02F700060308080B01F9005C
:104230000E0309080B01F900170309080B01F90027
:10424000200309080B01F9002903090B0B01F900F0
:10425000360307080B02F9003D03030D0B04F600BB
:104260004203010D0B05F6004403030D0B04F60099
:10427000490307030B02FA00AAA80CED2492482474
:1042800048912FE4897F28512240083E6240300E39
:104290000181C3BE08087112238023B80E22447026
:1042A000388102061A6546C8ECE9245AAAA940A931
:1042B000555A8010224BE3051100102047F10204EB
:1042C000006B48FF00F002081060810408204102E2
:1042D0000800388A0C183060C18288E02728421014
:1042E00084213E388A08102082086103F87C060287
:1042F000021C06010101423C18A2928A28BF082133
:10430000C07C8103E44040810388E01E41040B9897
:10431000B0C1C288E0FE0408204082040820403872
:104320008A0C14471141838CE0388A1C1868CE81AE
:104330000413C0F00F6C00D2D200030418606018A0
:104340000403FF80001FF040180300602060C0805D
:104350003D840830C2000000303C46828EB2A2A2EA
:104360009F8080403C3C014028090110420FC1045D
:10437000409E3CFE21904867E209028141FF803E59
:10438000B0F0300804020080608F80FE2190681435
:104390000A050283437F00FF20900887C221008125
:1043A00040FFC0FFA0500887C22100804078001E57
:1043B000986C0A008020F80B026087C0E3A0904848
:1043C00027F20904824171C0F90842108427C01FF6
:1043D00002020202028282C678E3A111090583214A
:1043E00008844170C0E04040404040414141FFE00E
:1043F000EC194528A4A494911202405C1CC3B0940B
:104400004A249249148A4370801E319050180C0639
:104410000282630F00FE434141427C404040F01C59
:10442000319050180C060282631F04079230FE215F
:1044300090482423E110844170C03ACD0A030180E2
:10444000C1C778FFC462210080402010081F00E32C
:10445000A090482412090482220E00F1E810821074
:104460004210220480500C0080F1E809112544A874
:10447000550CA18C318430E3A088828080C09044A8
:104480004171C0E3A088828140402010081F00FDD8
:104490000A208104102183FCEAAAAAC080810302B9
:1044A0000404080810102020D55555C010512228AA
:1044B00020FFE088807E008047EC140A0CFBC020BF
:1044C000100BC61205028140B0B7803A8E0C08105E
:1044D000109E03008047A4340A050281218F603CAE
:1044E0004381FF8080613E3D043E410410410F80C6
:1044F0003DA1A0502814090C7A01018780C020102A
:104500000BC6320904824120B8E01001C0810204C8
:104510000811FC103E10842108423F00C040404F6B
:10452000445870484442C770204081020408102358
:10453000F8B7646231188C4623915E31904824129A
:104540000905C73E31A030180C058C7CDE30902860
:10455000140A0584BC402038003DA1A0502814094D
:104560000C7A010080E0CEA1820408107C3A8D0B09
:1045700080F070DE4040FC4040404040413EC3413E
:1045800041414141433DE3A090844220A05010E3CB
:10459000C0924B2592A99844E331050101411105D0
:1045A000C7E3A090844240A0601010083E00FD08C0
:1045B00020820810BF2924A24926FFF889248A49AD
:1045C0002C61243076302E31300057454C434F4D0E
:1045D00045006E6F20646174610073690043414C53
:1045E00049425241544500524541445900494E49BF
:1045F0005449414C495A45004C4F434B00702D687B
:104600002D6800682D702D6800702D702D68005089
:10461000414E00464F4C4C4F5700682D702D700096
:10462000414952004641554C54004C4556454C209A
:104630004641494C004D4F544F5253204F4646007F
:10464000000C0140000C0140000C0140000C014036
:104650006C000240440002408000024058000240CA
:104660000054004000580040000300020000000019
:10467000000000000000000000000000000000003A
:10468000FFFFFFFF00000000010300020000000028
:10469000000000000000000000000000000000001A
:1046A000FFFFFFFF0000000000000240000002408A
:1046B000280000204800002000A24A04000000005A
:1046C00000000000010203040607080900000000C2
:1046D0000102030401020304060708090204060894
:0C46E00028000020480000201400030007
:0400000508000000EF
:00000001FF
