:020000040800F2
:1000000048090020C9030008C5030008C50300080B
:10001000C5030008C5030008C50300080000000070
:10002000000000000000000000000000C503000800
:10003000C503000800000000C5030008B90C000853
:10004000C5030008C5030008C5030008C503000870
:10005000C5030008C50300085D170008C5030008B4
:10006000C5030008C5030008C5030008C503000850
:1000700001180008C5030008C5030008C5030008EF
:10008000C5030008C5030008C5030008C503000830
:10009000C5030008C5030008C5030008C503000820
:1000A000C5030008C5030008C5030008C503000810
:1000B000C5030008C5030008C5030008C503000800
:1000C000C5030008C5030008C5030008C5030008F0
:1000D000C50300080D0B0008C5030008C503000890
:1000E000C5030008C5030008C503000800000000A0
:1000F0000000000000000000000000000000000000
:1001000000000000000000005FF808F1224A0388A8
:1001100090429BB212D002F5006290420ED0B0F134
:10012000804F0BD0A2F59832904207D002F5806242
:10013000904203D002F58062904203D14A8823F0B6
:1001400070031343154A904208D002F58062904232
:100150001FBF23F44073CA889BB2134303808B886C
:1001600083850B8803850C4B98420FD003F5006301
:1001700098420BD003F54063984207D003F58063A3
:10018000984203D003F58063984201D10B7A03862D
:1001900001238382704700BF002C01400010004003
:1001A000038C70B523F001031B041B0C0384028C29
:1001B0008688038B0D8823F073031B041B0C1D43DF
:1001C00022F002020C894B881204120C23431343C1
:1001D000144AB6B290429BB20FD002F50062904230
:1001E0000BD002F54062904207D002F58062904247
:1001F00003D002F5806290420ED14C8923F00803AF
:100200001C438B8824F0040426F4407223438E8917
:10021000CC893443224396B2CA888680058382867D
:10022000038470BD002C0140038C30B523F480534F
:100230001B041B0C0384038C8488828B0D8822F49E
:10024000E6421204120C23F4005342EA05221B0476
:100250000D891B0C43EA05334D88A4B243EA0533EC
:100260000A4D92B2A8429BB203D005F50065A842A0
:1002700005D18D8924F4804444EA8514A4B2848095
:100280008283CA88A0F84020038430BD002C01403E
:10029000038819B19BB243F0010303E023F001038B
:1002A0001B041B0C03807047B0F8443029B16FEA7F
:1002B00043436FEA53439BB201E0C3F30E03A0F83C
:1002C0004430704780F30888704780F31088704787
:1002D000384B82B01A6842F001021A605968364AF7
:1002E0000A405A601A6822F0847222F480321A603E
:1002F0001A6822F480221A605A6822F4FE025A60B8
:100300004FF41F029A600022009201921A6842F490
:1003100080321A601A6802F400320192009A0132A7
:100320000092019A1AB9009AB2F5A06FF2D11A6838
:1003300012F4003218BF01220192019A012A05D05D
:100340001E4B4FF000629A6002B070471C4A116861
:1003500041F010011160116821F003011160116872
:1003600041F0020111605A685A605A685A605A682E
:1003700042F480625A605A6822F47C125A605A68C9
:1003800042F4E8125A601A6842F080721A601968E2
:10039000084A8901FBD5516821F003015160516879
:1003A00041F0020151605A6802F00C02082AFAD1A9
:1003B000C6E700BF001002400000FFF800ED00E0BB
:1003C00000200240FEE7000008B50C4A0C4B0D4926
:1003D0008B4204D252F8040F43F8040BF8E70A48A2
:1003E0000A494FF000028842B8BF40F8042BFADBFC
:1003F000FFF76EFFBDE8084001F0FCBD9427000840
:10040000000000202C0000202C00002044050020CB
:1004100008B5264B984206D10121042000F054F97A
:10042000002104203CE0224B984206D10121082003
:1004300000F04AF90021082032E01E4B984206D114
:100440000121102000F040F90021102028E01A4B73
:10045000984206D10121202000F036F90021202009
:100460001EE0164B984206D10121402000F02CF9E5
:100470000021402014E0124B984206D10121802037
:1004800000F022F9002180200AE00E4B98420BD1A7
:1004900001214FF4807000F017F900214FF48070B3
:1004A000BDE8084000F010B908BD00BF00080140D9
:1004B000000C0140001001400014014000180140F0
:1004C000001C014000200140CA782DE9F041D4060B
:1004D00048BF8C780E8802F00F0348BF234316F004
:1004E000FF0F1ED0016800244FF0010E4FF00F0CDB
:1004F0000EFA04F737EA06050FD1A5000CFA05F845
:1005000021EA080103FA05F5282A41EA050101D18B
:10051000476102E0482A08BF07610134082CE7D18F
:100520000160FF2E20D9416800244FF0010E4FF0EA
:100530000F0C04F108050EFA05F535EA06070FD190
:10054000A7000CFA07F821EA080103FA07F7282A9E
:1005500041EA070101D1456102E0482A08BF05616F
:100560000134082CE5D14160BDE8F081016170479C
:10057000416170470AB1016170474161704701F004
:10058000030301F0FC0101F1804101F5803110B558
:100590009B008C680F229A4024EA02028A608A68D3
:1005A00098401043886010BD0D4B1A6842F001025C
:1005B0001A6059680B4A0A405A601A6822F084721D
:1005C00022F480321A601A6822F480221A605A6873
:1005D00022F4FE025A604FF41F029A60704700BF77
:1005E000001002400000FFF8034A536823F00303A1
:1005F00018435060704700BF001002401C4A10B5FD
:10060000536803F00C03042B01D0082B01D0194BC5
:100610000EE053685168C3F38343CC0303F1020334
:1006200002D55168890301D5134900E011494B43B4
:10063000036053681149C3F30313CC5C0368E340C0
:1006400043605468C4F302240C5D23FA04F484600C
:100650005468C4F3C2240C5DE340C3605268C2F323
:1006600081320A44127CB3FBF2F3036110BD00BF78
:100670000010024000127A0000093D001400002022
:10068000044B5A6909B1104301E022EA00005861A5
:10069000704700BF00100240044B9A6909B1104333
:1006A00001E022EA00009861704700BF001002409C
:1006B000044BDA6909B1104301E022EA0000D86175
:1006C000704700BF00100240044BDA6809B11043C4
:1006D00001E022EA0000D860704700BF001002402D
:1006E000044B1A6909B1104301E022EA00001861C5
:1006F000704700BF00100240044B00221A605A608D
:100700009A60DA60024A5A61704700BF00040140F3
:10071000FFFF0F00827970B50168037942B3CE43C1
:10072000184A03F18043156803F58233354015609C
:100730005468344054601C6821431960016894680F
:10074000CD432C409460D3682B40D3604379102B69
:1007500006D193680B439360D3681943D16070BD91
:1007600003F1804303F582331A681143196070BDA9
:1007700003F1804303F582331A6822EA01021A600A
:1007800070BD00BF00040140014B5861704700BFBD
:100790000004014008B5214B98420BD101214FF4D0
:1007A0008040FFF791FFBDE8084000214FF48040F2
:1007B000FFF78ABF1A4B984208D101214FF400304D
:1007C000FFF78EFF00214FF4003022E0154B9842D6
:1007D00008D101214FF48020FFF782FF00214FF460
:1007E000802016E0104B984208D101214FF40020E0
:1007F000FFF776FF00214FF400200AE00B4B9842F0
:100800000BD101214FF48010FFF76AFF00214FF454
:100810008010BDE80840FFF763BF08BD0038014005
:100820000044004000480040004C004000500040A0
:1008300070B50E460446038ACA889BB223F440531F
:100840001343038282898988338992B20B43718969
:1008500022F4B0520B4322F00C0213439BB283816B
:10086000838AB2899BB223F4407386B01343838298
:1008700001A8FFF7C3FE174A039B049D3168944209
:1008800018BF1D4619226A43A389642613F4004F3A
:1008900014BF4D008D00B2FBF5F5B5FBF6F0A28953
:1008A00000010109120406FB115307D5D9003231AA
:1008B000B1FBF6F202F00702104306E01A013232F1
:1008C000B2FBF6F303F00F03184380B2208106B0A9
:1008D00070BD00BF003801404B8810B50C88028AFB
:1008E00023438C88C98892B223430B4322F470625D
:1008F00013439BB2038210BD002303804380838097
:10090000C3807047838919B19BB243F4005303E05D
:1009100023F400531B041B0C83817047012310B583
:10092000C1F342149C4201F01F0103FA01F101D10D
:100930000C3003E0022C0CBF1030143003680AB1F5
:10094000194301E023EA0101016010BDC1F3080170
:10095000818070470388194214BF0120002070472E
:10096000090A012303FA01F1C94389B201807047E2
:100970004FF6FE7302681340036000230360436078
:100980008360C360284B984201D1284A27E0284B56
:10099000984201D1254A2AE0264B984201D1234AA8
:1009A0002DE0254B984201D1204A30E0234B98425C
:1009B00001D11E4A33E0224B984204D11B4A5368AE
:1009C00043F470032EE01F4B984204D1174A53683A
:1009D00043F0706326E01C4B984204D11B4A5368D5
:1009E00043F00F031EE01A4B984204D1174A536894
:1009F00043F0F00316E0174B984204D1134A5368B2
:100A000043F470630EE0144B984204D10F4A5368CC
:100A100043F4704306E0114B984204D10B4A5368EB
:100A200043F4702353607047080002400000024006
:100A30001C000240300002404400024058000240C6
:100A40006C000240800002400804024000040240A2
:100A50001C04024030040240440402405804024096
:100A60000A6A10B58C68036814430A6923F4FF43CB
:100A700014434A6923F0700314438A691443CA6912
:100A800014434A6A14438A6A224313430360CB68BF
:100A900043600B6883604B68C36010BD19B1036885
:100AA00043F0010303E04FF6FE7302681340036056
:100AB000704703680AB1194301E023EA01010160AC
:100AC00070470000C3004CBF014B024B5860704799
:100AD000000402400000024010B5074C40F22551CE
:100AE0002046FFF73DFF2046BDE81040012240F2BE
:100AF0002551FFF713BF00BF0038014000EB800015
:100B0000430018460138FDD8704700000A4B1A8888
:100B100092060FD509480A499A8803880988013343
:100B2000C3F3080389B28B4218BF0649D2B21CBF77
:100B3000CA540380704700BF00380140CE02002035
:100B4000D00200203803002010B50446402105489B
:100B5000FFF700FF0028F9D021460248FFF7F6FE14
:100B6000012010BD0038014008B540210248FFF7C0
:100B7000F1FE0028F9D008BD00380140044B188868
:100B8000044B80B21B889BB2C01A18BF012070476B
:100B9000CE020020D002002010B50948094C21885F
:100BA000038889B29BB29942054AF8D01388013371
:100BB000C3F3080313801388034A9BB2D05C10BDB3
:100BC000D0020020CE020020380300201FB50023F1
:100BD00000900C2269460848ADF80430ADF80630A4
:100BE000ADF80830ADF80A20ADF80C30FFF720FE64
:100BF00005B05DF804FB00BF0038014030B50121AD
:100C000085B0244C44F20500FFF746FD4FF4007315
:100C1000ADF8003003251823694620468DF80330CF
:100C20008DF80250FFF750FC4FF480636946ADF831
:100C300000308DF802504823174D20468DF80330C0
:100C4000FFF742FC02A8FFF757FE02A92846FFF76C
:100C500043FE1248FFF7BAFF0124252301A88DF8AF
:100C600004308DF805408DF806408DF8074001F0FE
:100C700025FC0B4B00221A800A4B284640F22551D6
:100C80001A80FFF74BFE21462846FFF73BFE05B0D2
:100C900030BD00BF000801400038014080841E00C4
:100CA000D0020020CE02002008B5FFF7A7FFBDE864
:100CB0000840FFF711BF0000034B01221A805A6859
:100CC00001325A60704700BF2C0000200B4B0021FE
:100CD000198059600A4B0B4A1B68F020B3FBF2F3F2
:100CE0004FF47A725343084A013B5360074B83F831
:100CF0002300072391601360704700BF2C00002081
:100D00000000002040420F0010E000E000ED00E095
:100D1000014608B5064801F03BFC0121044801F0FA
:100D200048FC0028F9D0024801F034FCC0B208BDEC
:100D30000030014070B50646094C0D462046102192
:100D4000FFF716FC46F08000FFF7E2FFFF20FFF7F9
:100D5000DFFF102128702046FFF708FC012070BD3E
:100D60000008014073B516460C460DF107011D46FB
:100D7000FFF7E0FF0121A01B01FA06F201309DF808
:100D80000730013A82401A4042FA00F0287002B05F
:100D900070BD000070B506460D46094C1021204676
:100DA000FFF7E6FB06F07F00FFF7B2FF2846FFF7EC
:100DB000AFFF20461021FFF7D9FB012070BD00BF17
:100DC00000080140F7B517460D461E4604460DF1D2
:100DD0000701FFF7AFFF012101FA07F2E81B01301D
:100DE000013A9DF80710824006FA00F0C0B221EAED
:100DF00002010240114320468DF80710FFF7CAFF99
:100E000003B0F0BD054AC000138800F0380023F09D
:100E100038031B041B0C0343138070470030014050
:100E200030B5012189B04FF48050FFF735FC012126
:100E30000520FFF731FC01210420FFF72DFC1025D0
:100E4000032402A93448ADF808508DF80B508DF8F2
:100E50000A40FFF739FB29462F48FFF787FBA023FD
:100E6000ADF8083002A918232B488DF80B308DF807
:100E70000A40FFF729FB4023ADF8083002A94823B8
:100E800025488DF80B308DF80A40FFF71DFB4FF415
:100E90008273ADF80E300223ADF812304FF40073B8
:100EA000ADF81630382300240125ADF8183003A919
:100EB00007231A48ADF81C30ADF80C40ADF81040CF
:100EC000ADF81450ADF81A4001F02EFB214613483E
:100ED00001F063FB2946114801F045FB02210F4850
:100EE00001F067FB0028F9D00C4801F053FBC0B2B9
:100EF0008DF807009DF807300948DBB28DF8073000
:100F0000FFF736FD0748FFF733FD01210846FFF7DD
:100F1000B7FB09B030BD00BF000801400030014000
:100F20001C0002403000024001231A4607216B20BA
:100F3000FFF748BF01231A4603216A20FFF742BF8B
:100F40000023012206216B20FFF73CBF034603224A
:100F500002216B20FFF736BF01461920FFF71ABFA9
:100F600001461920FFF7E6BE0346032202211A209C
:100F7000FFF728BF0346032202211A20FFF7F2BE23
:100F80000346022204211B20FFF71CBF0346022256
:100F900004211B20FFF7E6BE0346022204211C2089
:100FA000FFF710BF0346022204211C20FFF7DABE20
:100FB00010B5044600F00703032202211A20FFF7B0
:100FC00001FFC4F30113022201211B20BDE81040E0
:100FD000FFF7F8BE13B5032204460DF10603022104
:100FE0001A20FFF7BFFE0DF10703022201211B208B
:100FF000FFF7B8FE9DF8063003F00703237002B038
:1010000010BD10B5044600F00703032202211D2085
:10101000FFF7D8FEC4F30013012203211D20BDE811
:101020001040FFF7CFBE13B5032204460DF10603AF
:1010300002211D20FFF796FE0DF107030122032177
:101040001D20FFF78FFE9DF807301B0103F01002F3
:101050009DF8063003F007031344237002B010BD5F
:1010600010B5094C00230622237011462346752033
:10107000FFF778FE2378342B04D0382B0CBF0220E6
:10108000002010BD012010BD980100202DE9F04185
:1010900080460F4616461D460A209DF81840FFF769
:1010A0002DFD4046FFF752FF3846FFF769FF3046F7
:1010B000FFF75AFF2846FFF76FFF2046FFF74CFF68
:1010C000BDE8F041FFF73CBF73B50C460A20164659
:1010D0001D46FFF713FD0DF10700FFF757FF9DF8C1
:1010E00007300A20A34214BF02240024FFF706FDA4
:1010F0000DF10700FFF73EFF9DF807300A20B342CD
:101100001CBF44F00404A4B2FFF7F8FC0DF1070083
:10111000FFF748FF9DF807300A20AB4218BF44F0A4
:101120000804FFF7EBFC0DF10700FFF719FF9DF82E
:1011300007209DF818309A4218BF44F0100420464A
:1011400002B070BD2DE9F8438146884617461E4619
:101150000A209DF820509DF82440FFF7CFFC484618
:10116000FFF7F4FE4046FFF70BFF3846FFF720FF7E
:101170003046FFF711FF2846FFF743FF2046FFF7F1
:10118000EBFEBDE8F843FFF7DBBE73B50C460A2063
:1011900016461D46FFF7B2FC0DF10700FFF7F6FEFD
:1011A0009DF807300A20A34214BF02240024FFF751
:1011B000A5FC0DF10700FFF70DFF9DF807300A2091
:1011C000B3421CBF44F00404A4B2FFF797FC0DF136
:1011D0000700FFF7E7FE9DF807300A20AB4218BF73
:1011E00044F00804FFF78AFC0DF10700FFF7B8FE92
:1011F0009DF807209DF81C300A209A4218BF44F041
:101200001004FFF77BFC0DF10700FFF70CFF9DF8C2
:1012100007209DF818309A4218BF44F02004204659
:1012200002B070BD4FF080439A8C054B92B2598842
:101230005A80914282BF198801311980704700BFDE
:10124000D20200201FB501210846FFF731FA4FF600
:10125000FF73ADF808300F4B0F4A1B6804A9B3FBAE
:10126000F2F3013B002421F80C3D4FF08040ADF833
:101270000A40ADF80640FEF749FF01214FF08040DB
:10128000FFF706F8054B4FF080421C80928C5A8085
:1012900004B010BD0000002040420F00D202002028
:1012A00007B54FF40073ADF8043018238DF80730FC
:1012B00001A9032305488DF80630FFF705F9012041
:1012C000FFF71CFC03B05DF804FB00BF0008014001
:1012D00007B5FFF749FC0120FFF710FC4FF400733E
:1012E000ADF8043048238DF8073001A903230448E2
:1012F0008DF80630FFF7E8F803B05DF804FB00BF97
:10130000000801402DE9F04105460C4600F10E08A9
:10131000002615F8017B3846FFF716FCA84586EA3B
:101320000706F6D12046FFF70FFC86EA0400C0B29C
:10133000BDE8F041FFF708BC07B54FF4407001F07D
:10134000B3F8104BE02283F8232001210420FFF79B
:10135000A3F90423ADF80430102301A90A488DF83D
:10136000073003238DF80630FFF7AEF8FFF79CFC3B
:10137000FFF7AEFFFFF766FFFFF7A8FC03B05DF8CD
:1013800004FB00BF00ED00E00008014008B5114B70
:10139000114C1B6811482360FFF73AF81048FFF71B
:1013A00037F81048FFF734F80F48FFF7F3F9FFF765
:1013B000FBF80E4B0020186058609860FFF714F996
:1013C0000120FEF782FF0A4B1868FEF77BFF2368B7
:1013D0009847FEE704F0FF1F3C050020000801408D
:1013E000000C0140001001400038014010E000E016
:1013F00000F0FF1F42B2002A5D4BB8BF002170B55C
:10140000B8BF19801988042900F2B180DFE801F023
:1014100003344C587600D02824D0902806D1554B60
:1014200000221A800422544B1A8070BD002A80F2D8
:101430009E80524900F00F020D8800F07000AA4211
:101440007AD14F4CC1B2FF26102921706270A6706C
:10145000E5D003D800296FD102224DE0302906D013
:10146000502969D1434B00221A800122DBE7414B0E
:1014700000221A800522D6E7DA8842499C888854DF
:10148000013292B2A242DA8051D300221046551C9A
:10149000D2B2A24203D28A5C50402A46F7E73549CD
:1014A00000220A80032522E0354A90700138032883
:1014B0004FF00002B8D82F4902200A802E491AE0C6
:1014C000DA8830499C888854013292B2A242DA808C
:1014D0002DD300221046551CD2B2A24203D28A5C00
:1014E00050402A46F7E7234900220A800225224C71
:1014F000258008B1012008801A8018E0DA88042AC3
:1015000013D8DFE802F003080A0C0E0046280CD0BE
:101510000021198009E04C28F9E74128F7E7532812
:10152000F5E74828F4D1FFF731FF0132DA804FF0B8
:101530008042928C5A8070BD072A0CD1104CC1B2E7
:10154000FF26402921706270A67004D101221A8002
:1015500006229A8007E0702809D1094995424A700D
:1015600003D104221A800022E0E7002AF9D070BDDE
:10157000D6020020BA010020300300203C000020E9
:101580003203002073000020064A13884BB14FF04D
:1015900080439B8C51885B1A9BB2642B84BF0023D1
:1015A00013807047D6020020F0B52E4B87B09B7891
:1015B000013B032B52D8DFE803F0020C243DFFF778
:1015C0006FFE294B1D782846FFF7BEFA274B1C7883
:1015D00039E001AEFFF764FE10220021304600F032
:1015E000EFFF00242249304601F038F82546375DE8
:1015F00001343846FFF7A8FA102C85EA0705F6D122
:1016000016E001AEFFF74CFE10220021304600F03C
:10161000D7FF00241749304601F020F82546375DF2
:1016200001343846FFF790FA102C85EA0705F6D109
:1016300028460DE0104CFFF733FE25782846FFF7CB
:1016400083FA2488240A2046FFF77EFA85EA0400FC
:10165000FFF77AFAFFF73CFE012000E0002007B018
:10166000F0BD00BF320300204005002038000020FC
:10167000862700088C2700083A000020054A00232E
:101680001380D38013815380538193809381024AC6
:1016900013707047B400002072000020284A002315
:1016A00010B51380274A19461380274A1046138025
:1016B00002F1C0045180918022F8061FA2424FF02F
:1016C0000003F7D1214A2249C0F8C430C0F8C8301D
:1016D000C0F8CC30D36013601361536053619360E2
:1016E000536293619362D361D362136208461A46D0
:1016F0000B8001F1C0044A808A8021F8062F8C42B9
:101700004FF00003F7D1134AC0F8C43013605360A0
:101710009360D36013615361536293619362D361A9
:10172000D36213620C4AC0F8C830D380C0F8CC3002
:1017300013801381538053819380938110BD00BF28
:101740008C02002038050020BC010020E4020020AB
:10175000C8000020400000208E020020F0B50120CB
:101760008DB0214DFFF710F8204E214F1021214858
:10177000FEF7FEFEBB23284600213B70FFF78EF9E3
:1017800030460021FFF78AF91B4B002401930F23F9
:1017900004934FF480530A93184B01A902932846EF
:1017A0008023069305940794089409940B9403945A
:1017B000FFF756F9102301A93046039302970694C8
:1017C000FFF74EF928460121FFF768F9012130465D
:1017D000FFF764F92020FFF775F90122022128465E
:1017E000FFF767F90DB0F0BD1C0002403000024069
:1017F000AE020020000801400C300140980100209A
:101800002DE9F04F002285B00221B448FFF751F9CD
:101810002020FFF757F91021B148FEF7A7FEB14B82
:101820009A785878D97842EA00201A795C7942EAA5
:1018300001219A79DD7942EA04221C7A00B244EA55
:1018400005240FFA84FA5D7A9C7A09B244EA0524E9
:1018500024B2DD7A02941C7B12B244EA052424B23D
:1018600003945C7B9B7B43EA04230FFA83FB9E4B30
:101870009E4C1B88022B40F0AF802388012B9C4B91
:1018800008D89D69A84205D1DD69A94202D11D6A27
:10189000AA4245D040F6462843F2A74C0025954F72
:1018A00025809C695D6A7C43054408FB05451C68EE
:1018B000DE690CFB0455DFF84CE2DC687E430EFB6E
:1018C00004559C6AD3F808900C4408FB04645E68D5
:1018D0006D130CFB06441E690EFB064401941C6A42
:1018E000DE6A6743164408FB06770CFB097C9C699B
:1018F000986118685F69D860D869D96159680EFB2A
:1019000007CC196101995C624C13196A4FEA6C3774
:101910001D6098625C60D9621A62C3F814909F607F
:10192000754806240588D0F8C83004FB0504B4F9CE
:101930000410B4F90620591AD0F8CC30B4F902E0FA
:101940006B4E9A1AD0F8C43001353768CEEB0303DA
:10195000ADB2D6F804E0B6680B2D3B447144324476
:101960006780A4F804E0E68088BF0024C0F8C43093
:10197000C0F8C810C0F8CC2094BF058004800320B4
:1019800093FBF0F3B3F5004F91FBF0F192FBF0F213
:1019900004DA5A488342B8BF034601E047F6FF73B2
:1019A00057481BB2B1F5004F0380034604DA534891
:1019B0008142B8BF014601E047F6FF7109B2B2F5B6
:1019C000004F598004DA4D498A42B8BF0A4601E007
:1019D00047F6FF7212B29CE0012B40F097802388FB
:1019E000072B434B09D89D69A84206D1DD69A9425E
:1019F00003D11D6AAA4200F08D8040F6124E40F6D7
:101A00003419002525801D685C6A0EFB05F5D3F8A6
:101A100018800444444409FB0455DFF8ECC0DC683A
:101A2000DE690CFB04549D6ADF6A0D4435445E6830
:101A300017440EFB06F609FB05651E6998610CFB51
:101A400006559E68186801961E6AD8603744019E44
:101A500060130EFB06FE09FB07EE5F6918600CFBC6
:101A600007EED869D9615968E412196169135960A0
:101A7000196AB4F5004F1A624FEA6E32C3F8248037
:101A80009862D9625E619A604FEAE5254FEAEE2ED0
:101A900004DA1A4B9C42B8BF1C4601E047F6FF74BB
:101AA000174B24B2B5F5004F1C8004DA134A954257
:101AB000B8BF154601E047F6FF752DB2BEF5004FE1
:101AC0005D8004DA0D4A9645B8BF964601E047F6B8
:101AD000FF7E0FFA8EFEA3F804E01BE01C0002401C
:101AE00000080140980100208C02002038050020E9
:101AF000E402002035EEFFFFBC0100200080FFFF64
:101B00008E02002099E8FFFF51F8FFFF0A4B188072
:101B100059809A80094A138801331380064BBDF817
:101B20000820DA80BDF80C201A81A3F80AB0A3F8C7
:101B30000CA005B0BDE8F08F8E0200203805002013
:101B40000F4B13B51B88DB0618D5FEF7D5FD002417
:101B5000062301A88DF804308DF8074000F0AEFC94
:101B60000120FEF711FE0C2301A88DF804308DF83A
:101B7000074000F0A3FC2020FEF7A4FF02B010BD38
:101B80003A0000207FB52A4B1B88DB064ED5012189
:101B90000420FEF781FD01242823032669462548F9
:101BA0008DF80330ADF800408DF80260FEF78CFC34
:101BB00000210846FEF7E3FC082300250DEB030097
:101BC0008DF80D3002948DF80C508DF80E40FEF714
:101BD000A1FD06238DF8043020460B238DF8053037
:101BE0008DF806508DF80740FEF7CEFD01A800F0F5
:101BF00065FC0C238DF80430202007238DF8053078
:101C00008DF806508DF80740FEF75CFF01A800F044
:101C100055FC2A4602210848FEF74BFF2020FEF71C
:101C200051FF22463146054800F0A9FC04B070BDC2
:101C30003A000020000801401C0002400030014032
:101C400008B50A4B1B88DB060FD510213720FFF79C
:101C5000A1F80220FEF752FF01213820FFF79AF881
:101C6000BDE808400220FEF749BF08BD3A00002049
:101C7000F7B5214C01210420FEF70EFD10234FF48F
:101C800080558DF8073001A9022320468DF80630D3
:101C9000ADF80450FEF718FC002229462046FEF756
:101CA00069FC012140F60900FEF7F6FC4FF40065DF
:101CB0001827032601A92046ADF804508DF80770B7
:101CC0008DF80660FEF700FC002229462046FEF74C
:101CD00051FC4FF4807501A92046ADF804508DF8F1
:101CE00007708DF80660FEF7EFFB002229462046BC
:101CF000FEF740FC03B0F0BD0008014043F67F63EF
:101D000070B588B0ADF808301B4B1C4A1B681C4DE1
:101D1000B3FBF2F308A9013B002421F81C3D28463F
:101D2000ADF80A40ADF80640FEF7F0F96023ADF8D3
:101D3000103040F2DC53012604A92846ADF81630D5
:101D4000ADF81C40ADF81E40ADF81840ADF81A4093
:101D5000ADF81260ADF81440FEF766FA04A9284603
:101D6000FEF71EFA31462846FEF79EFA314628460F
:101D7000FEF78EFA08B070BD0000002040420F0050
:101D8000002C0140064B002206215A819A81DA81FB
:101D9000198259809A80DA801A81FFF769BF00BFE3
:101DA0009C02002038B52E4C6388228A9A4202D0C9
:101DB0002382FFF7A3FF63882949052BA3881CD141
:101DC000002B41D0013B022B264D10D0032B0ED00F
:101DD0007BBB32238B810122A523CB814A81224800
:101DE0004FF48051FEF7C6FB4FF4E1632AE04B81CC
:101DF000A523CB8140F2145324E02BB3013B022BEB
:101E0000184D10D0032B12D09BB932238B810122A5
:101E1000A523CB814A8114484FF48051FEF7AAFBD9
:101E200040F29E730EE04B8140F21A430AE04B8170
:101E300006E000224A810C484FF48051FEF79AFBDD
:101E400040F2DC53A5F84030238943B1013B03EB5A
:101E500083035B0003F57A73024A9BB2938638BD15
:101E60009C020020002C01400008014010B5114CDC
:101E70006389F3B1A3890BB1013BA381A389012B32
:101E800005D100224FF480510B48FEF773FBE38924
:101E900013B1084A013BD381E389012B02BF40F211
:101EA000DC51064AA2F84010A28912B90BB9014AC6
:101EB000538110BD9C02002000080140002C01400D
:101EC00007B5FEF7ADFF01210420FEF7E5FB08236F
:101ED000ADF80430482301A98DF807300E480323DC
:101EE0008DF80630FEF7F0FA0C4A0620138843F00E
:101EF000100313800A4B0C221A80FEF783FFFFF7B2
:101F0000BDFB084A00231380074A1380FFF73AFFFE
:101F100003B05DF804FB00BF000801403A00002058
:101F20003C00002034000020140300200A4B5B78A2
:101F3000072B10D1094B1B886BB9094A094B117843
:101F400019805178598091789980D1781279D98007
:101F50001A81FFF727BF704732030020BA01002023
:101F6000730000209C0200200C4B1B881B0613D51D
:101F700072B60B4B0B4A03F10C0153F8040B8B4266
:101F800042F8040BF9D11B88138062B6064B0D2270
:101F90001A70064B01221A80704700BF40050020CE
:101FA0008E020020B40000207200002034000020C7
:101FB00008B5064B1B881B0603D5054B1B88012B58
:101FC00001D0FFF75BFB072008BD00BF40050020E4
:101FD0003400002008B5044B04481978FFF792F943
:101FE000034B00221A8008BD72000020B4000020BC
:101FF000340000202DE9F74FDFF80CB3DFF80CA315
:10200000B64CDFF80C83DFF80C930025FFF794F94A
:10201000AAF80050A8F800502580A9F80050FFF752
:102020004FFFAF4BAF4E1D804FF4004323804FF660
:10203000FF732A460421AC483380FEF79BFAB6F9B9
:1020400000305746AB4204DA01220421A648FEF7CD
:1020500091FA0025FEF792FD18B1FEF79DFDFFF7FE
:10206000C9F9FFF791FA3B889BB2013B062B1FD8B9
:10207000DFE803F004080B0E111319000023AAF87F
:102080000030BBE7FFF790FA11E0FFF74FFF0EE0DB
:10209000FFF76AFF0BE0FFF703F9ABF80050FFF71B
:1020A00087FF388004E0FFF795FFFFF711F93D80C7
:1020B0008E4B1B889BB2002BCCD08C4B00221A80FD
:1020C000FFF7B0F8B6F90000002876DD884DB0F5CE
:1020D000FA7F2B8803F101039BB22B805DD1854AE7
:1020E00011880C2959D8012202FA01F111F4825FFA
:1020F0002BD111F0240F14D111F0120F4DD0B3F5E4
:10210000FA7F03D104217848FEF734FA2B88B3F51F
:102110007A7F52D30022042173482A80FEF72AFADC
:102120004BE0B3F5FA7F03D104216F48FEF722FAA2
:102130002B88B3F52F7F04D1002204216A48FEF7D3
:1021400019FA2B88B3F5487F24E0B3F5FA7F03D161
:1021500004216548FEF70EFA2B88B3F5167F04D1EB
:10216000002204216048FEF705FA2B88B3F52F7F83
:1021700004D1012204215C48FEF7FCF92B88B3F559
:10218000487F04D1002204215748FEF7F3F92B8839
:10219000B3F5617FBAD10122B4E783420DDB00239E
:1021A0002B8003F1804303F58433DB684E4ADB4325
:1021B00003F0040343F4802313612388474A23F484
:1021C000FE4189B2B1F5004F65D01CD80C2900F052
:1021D000C3800CD803296FD002D800295DD053E109
:1021E0000A2900F099800B2900F0A7804CE10E2904
:1021F00000F0EC80C0F0BD800F2900F00B811029A9
:1022000000F0298140E148F20B00814200F0958006
:1022100013D848F20200814248D041D348F203006B
:10222000814249D048F20A00814240F02D81C3F337
:102230000E031380322333806EE048F20E00814299
:1022400000F0C18010D848F20C00814200F0848078
:1022500048F20D00814240F01781C3F30E03138052
:10226000254B00221A8084E048F20F00814200F0E2
:10227000CB8048F21000814240F00681C3F30E0388
:102280001380C8233380FFF7DBFCFFF77BFC0120C2
:10229000FEF7B8FDDFE03223338048F20A03F2E0B4
:1022A000C3F30E0313804FF4FA7303E0C3F30E037A
:1022B000138064233380E7E0104A138801339BB214
:1022C00013800F4A12889A4280F0DE800D4B1B88E3
:1022D0006FEA43436FEA5343D5E000BF3800002064
:1022E000D602002028000020000801402C00002019
:1022F000360000203C00002014030020B80100201C
:10230000DE02002070000020BA010020300300200F
:10231000400500203A000020FFF712FCFFF7BEF94D
:102320000620FEF76FFDFEF7FFFD594B00221A80D5
:10233000584B0A221A800B220BE0C3F30E032380B2
:10234000FEF7FEFD524B00221A80524B01221A80EA
:102350000C22514B1A8094E0C3F30E032380FEF746
:10236000E9FD4B4B00221A804A4B01221A800D22B4
:10237000EFE7FEF775FE80B2D8B1B9F80030022859
:1023800023F4F37323F001039BB2444A18BF43F4D0
:10239000817343490DBF43F4A2731380012313805B
:1023A00014BF0B80088048F20E036CE048F20E0365
:1023B00023803C4A138801339BB20A2B138063D9D4
:1023C00048F202035FE0C3F30E031380B9F8002064
:1023D00002F0040292B24AB11023002200930323B8
:1023E000019202211846FEF7ADFE05E0032300929C
:1023F00002211846FEF74AFE254B00221A80254B83
:1024000064221A800F22A4E7C3F30E031380254B26
:1024100000221A80B9F8002002F0040292B24AB1F8
:102420001023002200930323019202211846FEF795
:10243000ACFE05E00323009202211846FEF744FE9D
:102440000028B3D1B8F8003043F08003A8F800307A
:1024500048F2100317E0B8F800300D4803F080038D
:102460009BB20C490C4A33B1002303804FF496739E
:102470000B80012304E003804FF496730B8002234A
:10248000138048F203032380FFF7F0FCE1E500BF6F
:10249000B8010020DE020020700000203A00002079
:1024A0008C0200201403002040F0BF60024B40F477
:1024B0000030D860704700BF00ED00E0C27810B572
:1024C00003780AB3164A03F16043D1684278C943DE
:1024D000C1F30221C1F1040402FA04F40F22CA403C
:1024E000817803F561430A4022431201D2B283F896
:1024F000002303780122590903F01F0302FA03F3B2
:10250000084A42F8213010BD5A09012103F01F0387
:1025100001FA03F30349203241F8223010BD00BF15
:1025200000ED00E000E100E003880A8810B503F444
:1025300041544B8813438A881343CA8813430A893A
:1025400013434A8913438A891343CA891343234394
:102550009BB20380838B23F400631B041B0C8383D7
:102560000B8A038210BD038819B19BB243F040036C
:1025700003E023F040031B041B0C03807047838897
:102580009BB20AB1194301E023EA0101818070473F
:1025900081817047808980B27047038819B19BB2EE
:1025A00043F4005303E023F400531B041B0C03808B
:1025B00070470389194214BF0120002070470000B2
:1025C00070B4840746D0541E002A41D0CDB20346D1
:1025D00002E0621EE4B3144603F8015B9A07F8D1E7
:1025E000032C2ED9CDB245EA05250F2C45EA054529
:1025F00019D9264603F11002103E0F2E42F8105C46
:1026000042F80C5C42F8085C42F8045C02F11002EB
:10261000F2D8A4F1100222F00F0204F00F041032DD
:10262000032C13440DD91E462246043A032A46F8C9
:10263000045BFAD8221F22F003020432134404F090
:1026400003042CB1C9B21C4403F8011BA342FBD103
:1026500070BC704714460346C2E700BF80EA01021F
:10266000844612F0030F4FD111F0030F32D14DF811
:10267000044D11F0040F51F8043B0BD0A3F10132CB
:102680009A4312F0803F04BF4CF8043B51F8043BDE
:1026900016D100BF51F8044BA3F101329A4312F056
:1026A000803FA4F101320BD14CF8043BA24312F05D
:1026B000803F04BF51F8043B4CF8044BEAD023465A
:1026C0000CF8013B13F0FF0F4FEA3323F8D15DF80C
:1026D000044B704711F0010F06D011F8012B0CF8D4
:1026E000012B002A08BF704711F0020FBFD031F84C
:1026F000022B12F0FF0F16BF2CF8022B8CF80020D3
:1027000012F47F4FB3D1704711F8012B0CF8012B55
:10271000002AF9D1704700BF6D7075206174205395
:102720005049204F4B0A007563006D70752053525D
:1027300020006D707520415220006D707520444C52
:10274000504620006D707520475220004D50553680
:10275000303530004D505536303030004D50553901
:10276000323530004F56455253414D504C45440090
:1027700046415354204759524F004641535420413B
:102780004343002D200076302E33310076312E3039
:082790002046313033543800BB
:1027980000A24A0400000000000000000102030437
:1027A80006070809000000000102030401020304EF
:0C27B8000607080902040608FFFF0000E5
:0400000508000000EF
:00000001FF
