:020000040800F2
:1000000008070020E5030008E1030008E1030008F9
:10001000E1030008E1030008E1030008000000001C
:10002000000000000000000000000000E1030008E4
:10003000E103000800000000E1030008750D00085E
:10004000E1030008E1030008E1030008E103000800
:10005000E1030008E1030008E1030008E1030008F0
:10006000E1030008E1030008E1030008E1030008E0
:10007000E1030008E1030008E1030008E1030008D0
:10008000E1030008E1030008E1030008E1030008C0
:10009000E1030008E1030008E1030008E1030008B0
:1000A000E1030008E1030008E1030008E1030008A0
:1000B000E1030008E1030008E1030008E103000890
:1000C000E1030008E1030008E1030008E103000880
:1000D000E1030008C90B0008E1030008E103000880
:1000E000E1030008E1030008E1030008000000004C
:1000F0000000000000000000000000000000000000
:1001000000000000000000005FF808F1224A0388A8
:1001100090429BB212D002F5006290420ED0B0F134
:10012000804F0BD0A2F59832904207D002F5806242
:10013000904203D002F58062904203D14A8823F0B6
:1001400070031343154A904208D002F58062904232
:100150001FBF23F44073CA889BB2134303808B886C
:1001600083850B8803850C4B98420FD003F5006301
:1001700098420BD003F54063984207D003F58063A3
:10018000984203D003F58063984201D10B7A03862D
:1001900001238382704700BF002C01400010004003
:1001A000038C30B523F010031B041B0C0384038C59
:1001B0008588028B0C8822F4E6421204120C42EA73
:1001C000042223F0200394B21B040A891B0C43EA87
:1001D00002134A88ADB243EA0213124A9BB290421C
:1001E00003D002F50062904215D123F080034A89C2
:1001F0009BB243EA02124FF6BF7313408A8825F47C
:10020000406543EA02138A899BB245EA8205CA899E
:1002100045EA8205ADB2CA888580048302870384DB
:1002200030BD00BF002C0140038C30B523F4807337
:100230001B041B0C0384038C8488828B0D8822F0A2
:1002400073021204120C23F4007315431B040A8971
:100250001B0C43EA02234A88A4B243EA0223124A4F
:100260009BB2904203D002F50062904215D123F474
:1002700000634A899BB243EA02224FF6FF331340E0
:100280008A8824F4405443EA02238A899BB244EAD0
:100290000214CA8944EA0214A4B2CA8884808583FD
:1002A0008287038430BD00BF002C0140038819B150
:1002B0009BB243F0010303E023F001031B041B0C7A
:1002C00003807047B0F8443029B16FEA43436FEAC6
:1002D00053439BB201E0C3F30E03A0F844307047D0
:1002E00080F30888704780F310887047384B82B0DD
:1002F0001A6842F001021A605968364A0A405A6088
:100300001A6822F0847222F480321A601A6822F489
:1003100080221A605A6822F4FE025A604FF41F02CB
:100320009A600022009201921A6842F480321A60A8
:100330001A6802F400320192009A01320092019A86
:100340001AB9009AB2F5A06FF2D11A6812F400320D
:1003500018BF01220192019A012A05D01E4B4FF0CD
:1003600000629A6002B070471C4A116841F01001A7
:100370001160116821F003011160116841F0020160
:1003800011605A685A605A685A605A6842F480622A
:100390005A605A6822F47C125A605A6842F4E81291
:1003A0005A601A6842F080721A601968084A890116
:1003B000FBD5516821F003015160516841F0020101
:1003C00051605A6802F00C02082AFAD1C6E700BF51
:1003D000001002400000FFF800ED00E000200240A5
:1003E000FEE7000008B50C4A0C4B0D498B4204D2C5
:1003F00052F8040F43F8040BF8E70A480A494FF093
:1004000000028842B8BF40F8042BFADBFFF76EFF0A
:10041000BDE8084001F098BCD02200080000002090
:100420002C0000202C0000200803002008B5264BDB
:10043000984206D10121042000F072F90021042025
:100440003CE0224B984206D10121082000F068F9D7
:100450000021082032E01E4B984206D101211020D5
:1004600000F05EF90021102028E01A4B984206D1D6
:100470000121202000F054F9002120201EE0164B1D
:10048000984206D10121402000F04AF90021402085
:1004900014E0124B984206D10121802000F040F96F
:1004A000002180200AE00E4B98420BD101214FF42D
:1004B000807000F035F900214FF48070BDE80840ED
:1004C00000F02EB908BD00BF00080140000C01403B
:1004D000001001400014014000180140001C0140C0
:1004E00000200140CA782DE9F041D40648BF8C783D
:1004F0000E8802F00F0348BF234316F0FF0F1ED0F3
:10050000016800244FF0010E4FF00F0C0EFA04F7B3
:1005100037EA06050FD1A5000CFA05F821EA080113
:1005200003FA05F5282A41EA050101D1476102E0F5
:10053000482A08BF07610134082CE7D10160FF2E6B
:1005400020D9416800244FF0010E4FF00F0C04F148
:1005500008050EFA05F535EA06070FD1A7000CFAD3
:1005600007F821EA080103FA07F7282A41EA0701F8
:1005700001D1456102E0482A08BF05610134082C19
:10058000E5D14160BDE8F081806880B270470161CB
:100590007047416170470AB101617047416170471E
:1005A0000028164A30B500F44015B4BFD36953682B
:1005B000B5F5401F84B206D1556823F0706325F06D
:1005C000706555600EE0C20255BF420D0322120154
:1005D000C0F303454CBFAA4004FA02F223EA020327
:1005E00043F0706319B1420D120194402343034A52
:1005F0000028B4BFD361536030BD00BF000001408C
:100600000D4B1A6842F001021A6059680B4A0A4001
:100610005A601A6822F0847222F480321A601A68D2
:1006200022F480221A605A6822F4FE025A604FF4C3
:100630001F029A60704700BF001002400000FFF8E0
:10064000034A536823F0030318435060704700BF08
:10065000001002401C4A10B5536803F00C03042B31
:1006600001D0082B01D0194B0EE053685168C3F339
:100670008343CC0303F1020302D55168890301D5FA
:10068000134900E011494B43036053681149C3F318
:100690000313CC5C0368E34043605468C4F3022452
:1006A0000C5D23FA04F484605468C4F3C2240C5D26
:1006B000E340C3605268C2F381320A44127CB3FB48
:1006C000F2F3036110BD00BF0010024000127A0077
:1006D00000093D0014000020044B5A6909B1104381
:1006E00001E022EA00005861704700BF001002409C
:1006F000044B9A6909B1104301E022EA00009861B5
:10070000704700BF00100240044BDA6909B1104382
:1007100001E022EA0000D861704700BF00100240EB
:10072000044BDA6809B1104301E022EA0000D86006
:10073000704700BF00100240044B1A6909B1104312
:1007400001E022EA00001861704700BF001002407B
:1007500008B5214B98420BD101214FF48040FFF79F
:10076000DFFFBDE8084000214FF48040FFF7D8BF0D
:100770001A4B984208D101214FF40030FFF7DCFFFB
:1007800000214FF4003022E0154B984208D101219E
:100790004FF48020FFF7D0FF00214FF4802016E0B7
:1007A000104B984208D101214FF40020FFF7C4FFFD
:1007B00000214FF400200AE00B4B98420BD101219D
:1007C0004FF48010FFF7B8FF00214FF48010BDE810
:1007D0000840FFF7B1BF08BD0038014000440040A9
:1007E00000480040004C00400050004070B50E46EC
:1007F0000446038ACA889BB223F4405313430382FE
:1008000082898988338992B20B43718922F4B0526C
:100810000B4322F00C0213439BB28381838AB2897B
:100820009BB223F4407386B01343838201A8FFF781
:1008300011FF174A039B049D3168944218BF1D465F
:1008400019226A43A389642613F4004F14BF4D0094
:100850008D00B2FBF5F5B5FBF6F0A28900010109A8
:10086000120406FB115307D5D9003231B1FBF6F261
:1008700002F00702104306E01A013232B2FBF6F32F
:1008800003F00F03184380B2208106B070BD00BF93
:10089000003801404B8810B50C88028A23438C88AD
:1008A000C98892B223430B4322F4706213439BB274
:1008B000038210BD0023038043808380C380704780
:1008C000838919B19BB243F4005303E023F400532E
:1008D0001B041B0C83817047012310B5C1F3421424
:1008E0009C4201F01F0103FA01F101D10C3003E039
:1008F000022C0CBF1030143003680AB1194301E018
:1009000023EA0101016010BDC1F308018180704735
:100910000388194214BF012000207047090A0123EF
:1009200003FA01F1C94389B2018070474FF6FE73A3
:100930000268134003600023036043608360C36068
:10094000284B984201D1284A27E0284B984201D1F0
:10095000254A2AE0264B984201D1234A2DE0254B17
:10096000984201D1204A30E0234B984201D11E4ADF
:1009700033E0224B984204D11B4A536843F470037E
:100980002EE01F4B984204D1174A536843F070631E
:1009900026E01C4B984204D11B4A536843F00F03D6
:1009A0001EE01A4B984204D1174A536843F0F003F3
:1009B00016E0174B984204D1134A536843F470630E
:1009C0000EE0144B984204D10F4A536843F470432D
:1009D00006E0114B984204D10B4A536843F470234C
:1009E0005360704708000240000002401C000240B3
:1009F0003000024044000240580002406C000240B7
:100A00008000024008040240000402401C0402402E
:100A10003004024044040240580402400A6A10B5FF
:100A20008C68036814430A6923F4FF4314434A693A
:100A300023F0700314438A691443CA6914434A6A51
:100A400014438A6A224313430360CB6843600B68F4
:100A500083604B68C36010BD19B1036843F00103A4
:100A600003E04FF6FE730268134003607047000016
:100A7000C3004CBF034B044B1B68034214BF01204F
:100A8000002070470004024000000240FFF7F0BF62
:100A9000C27810B503780AB3164A03F16043D168EF
:100AA0004278C943C1F30221C1F1040402FA04F4FB
:100AB0000F22CA40817803F561430A4022431201A4
:100AC000D2B283F8002303780122590903F01F03EF
:100AD00002FA03F3084A42F8213010BD5A090121F5
:100AE00003F01F0301FA03F30349203241F82230D7
:100AF00010BD00BF00ED00E000E100E003880A88BF
:100B000010B503F441544B8813438A881343CA88B1
:100B100013430A8913434A8913438A891343CA89B1
:100B2000134323439BB20380838B23F400631B0492
:100B30001B0C83830B8A038210BD038819B19BB2FF
:100B400043F0400303E023F040031B041B0C03802D
:100B5000704783889BB20AB1194301E023EA01017F
:100B60008180704781817047808980B27047038897
:100B700019B19BB243F4005303E023F400531B0468
:100B80001B0C038070470389194214BF0120002009
:100B90007047000010B5074C40F225512046FFF782
:100BA000BDFE2046BDE81040012240F22551FFF76E
:100BB00093BE00BF0038014000EB800043001846A0
:100BC0000138FDD8704700000A4B1A8892060FD5ED
:100BD00009480A499A88038809880133C3F308033E
:100BE00089B28B4218BF0649D2B21CBFCA540380D7
:100BF000704700BF00380140CA000020CC00002030
:100C00000001002010B5044640210548FFF780FE92
:100C10000028F9D021460248FFF776FE012010BDDA
:100C20000038014008B540210248FFF771FE002856
:100C3000F9D008BD00380140044B1888044B80B23D
:100C40001B889BB2C01A18BF01207047CA00002041
:100C5000CC00002010B50948094C2188038889B2CE
:100C60009BB29942054AF8D013880133C3F30803B5
:100C700013801388034A9BB2D05C10BDCC000020C7
:100C8000CA000020000100201FB5002300900C22A4
:100C900069460848ADF80430ADF80630ADF80830C4
:100CA000ADF80A20ADF80C30FFF7A0FD05B05DF8F7
:100CB00004FB00BF0038014030B5012185B0244C51
:100CC00044F20500FFF714FD4FF40073ADF8003057
:100CD00003251823694620468DF803308DF802500D
:100CE000FFF700FC4FF480636946ADF800308DF8E3
:100CF00002504823174D20468DF80330FFF7F2FBD2
:100D000002A8FFF7D7FD02A92846FFF7C3FD124846
:100D1000FFF7BAFF0124252301A88DF804308DF8D0
:100D200005408DF806408DF80740FFF7B1FE0B4BEC
:100D300000221A800A4B284640F225511A80FFF7FC
:100D4000CBFD21462846FFF7BBFD05B030BD00BFF7
:100D5000000801400038014080841E00CC000020C3
:100D6000CA00002008B5FFF7A7FFBDE80840FFF75D
:100D700011BF0000034B01221A805A6801325A60E9
:100D8000704700BF2C0000200B4B002119805960D8
:100D90000A4B0B4A1B68F020B3FBF2F34FF47A7254
:100DA0005343084A013B5360074B83F82300072352
:100DB00091601360704700BF2C00002000000020ED
:100DC00040420F0010E000E000ED00E0014608B5F1
:100DD0000648FFF7C7FE01210448FFF7D4FE0028AC
:100DE000F9D00248FFF7C0FEC0B208BD0030014094
:100DF00030B51F4B8DB0ADF8020058681D4D40F066
:100E0000F00058605868002440F470605860A3F502
:100E10004F43F43B01934FF4805301320A93029104
:100E2000802301A928460492059407940894099404
:100E30000B9403940693FFF7F1FD06940E4C0DF10D
:100E40000203029301A9102320460393FFF7E6FD56
:100E500028460121FFF700FE20460121FFF7FCFD97
:100E6000012203210548FFF774FE0DB030BD00BF1D
:100E7000000002401C0002403000024000300140EF
:100E800008B52020FFF702FE70B1002203210748B9
:100E9000FFF75FFE00210648FFF7DEFD0021054851
:100EA000FFF7DAFD002008BD012008BD0030014039
:100EB0001C0002403000024008B500220321064811
:100EC000FFF747FE00210548FFF7C6FD0021044853
:100ED000FFF7C2FD002008BD003001401C000240A9
:100EE0003000024070B50646094C0D4620461021E0
:100EF000FFF74FFB46F08000FFF768FFFF20FFF78A
:100F000065FF102128702046FFF741FB012070BDCE
:100F10000008014073B516460C460DF107011D4649
:100F2000FFF7E0FF0121A01B01FA06F201309DF856
:100F30000730013A82401A4042FA00F0287002B0AD
:100F400070BD000070B506460D46094C10212046C4
:100F5000FFF71FFB06F07F00FFF738FF2846FFF77B
:100F600035FF20461021FFF712FB012070BD00BFA6
:100F700000080140F7B517460D461E4604460DF120
:100F80000701FFF7AFFF012101FA07F2E81B01306B
:100F9000013A9DF80710824006FA00F0C0B221EA3B
:100FA00002010240114320468DF80710FFF7CAFFE7
:100FB00003B0F0BD054AC000138800F0380023F0EC
:100FC00038031B041B0C034313807047003001409F
:100FD00030B5012189B04FF48050FFF789FB012122
:100FE0000520FFF785FB01210420FFF781FB102579
:100FF000032402A93448ADF808508DF80B508DF841
:101000000A40FFF76FFA29462F48FFF7C0FAA023DE
:10101000ADF8083002A918232B488DF80B308DF855
:101020000A40FFF75FFA4023ADF8083002A94823D1
:1010300025488DF80B308DF80A40FFF753FA4FF42E
:101040008273ADF80E300223ADF812304FF4007306
:10105000ADF81630382300240125ADF8183003A967
:1010600007231A48ADF81C30ADF80C40ADF810401D
:10107000ADF81450ADF81A40FFF740FD2146134873
:10108000FFF775FD29461148FFF757FD02210F486C
:10109000FFF779FD0028F9D00C48FFF765FDC0B2D5
:1010A0008DF807009DF807300948DBB28DF807304E
:1010B000FFF73CFC0748FFF739FC01210846FFF722
:1010C0000BFB09B030BD00BF0008014000300140FB
:1010D0001C0002403000024001231A4607216B2009
:1010E000FFF748BF01231A4603216A20FFF742BFDA
:1010F0000023012206216B20FFF73CBF0346032299
:1011000002216B20FFF736BF01461920FFF71ABFF7
:1011100001461920FFF7E6BE0346032202211A20EA
:10112000FFF728BF0346032202211A20FFF7F2BE71
:101130000346022204211B20FFF71CBF03460222A4
:1011400004211B20FFF7E6BE0346022204211C20D7
:10115000FFF710BF0346022204211C20FFF7DABE6E
:1011600010B5044600F00703032202211A20FFF7FE
:1011700001FFC4F30113022201211B20BDE810402E
:10118000FFF7F8BE13B5032204460DF10603022152
:101190001A20FFF7BFFE0DF10703022201211B20D9
:1011A000FFF7B8FE9DF8063003F00703237002B086
:1011B00010BD10B5044600F00703032202211D20D4
:1011C000FFF7D8FEC4F30013012203211D20BDE860
:1011D0001040FFF7CFBE13B5032204460DF10603FE
:1011E00002211D20FFF796FE0DF1070301220321C6
:1011F0001D20FFF78FFE9DF807301B0103F0100242
:101200009DF8063003F007031344237002B010BDAD
:1012100010B5094C00230622237011462346752081
:10122000FFF778FE2378342B04D0382B0CBF022034
:10123000002010BD012010BD940000202DE9F041D8
:1012400080460F4616461D460A209DF81840FFF7B7
:10125000B3FC4046FFF752FF3846FFF769FF3046C0
:10126000FFF75AFF2846FFF76FFF2046FFF74CFFB6
:10127000BDE8F041FFF73CBF73B50C460A201646A7
:101280001D46FFF799FC0DF10700FFF757FF9DF88A
:1012900007300A20A34214BF02240024FFF78CFC6D
:1012A0000DF10700FFF73EFF9DF807300A20B3421B
:1012B0001CBF44F00404A4B2FFF77EFC0DF107004C
:1012C000FFF748FF9DF807300A20AB4218BF44F0F3
:1012D0000804FFF771FC0DF10700FFF719FF9DF8F7
:1012E00007209DF818309A4218BF44F01004204699
:1012F00002B070BD2DE9F8438146884617461E4668
:101300000A209DF820509DF82440FFF755FC4846E0
:10131000FFF7F4FE4046FFF70BFF3846FFF720FFCC
:101320003046FFF711FF2846FFF743FF2046FFF73F
:10133000EBFEBDE8F843FFF7DBBE73B50C460A20B1
:1013400016461D46FFF738FC0DF10700FFF7F6FEC5
:101350009DF807300A20A34214BF02240024FFF79F
:101360002BFC0DF10700FFF70DFF9DF807300A2059
:10137000B3421CBF44F00404A4B2FFF71DFC0DF1FE
:101380000700FFF7E7FE9DF807300A20AB4218BFC1
:1013900044F00804FFF710FC0DF10700FFF7B8FE5A
:1013A0009DF807209DF81C300A209A4218BF44F08F
:1013B0001004FFF701FC0DF10700FFF70CFF9DF88B
:1013C00007209DF818309A4218BF44F020042046A8
:1013D00002B070BD054B9A8C054B92B259885A8069
:1013E000914282BF1988013119807047002C014059
:1013F000CE00002030B5012185B04FF40060FFF72A
:1014000077F94FF6FF73ADF808300E4B0E4A1B68A4
:101410000E4CB3FBF2F304A9013B002521F80C3D6F
:101420002046ADF80A50ADF80650FEF76FFE0121D8
:101430002046FEF73BFF064B1D80A28C5A8005B06C
:1014400030BD00BF0000002040420F00002C0140D2
:10145000CE00002007B54FF40073ADF80430182318
:101460008DF8073001A9032305488DF80630FFF7F2
:1014700039F80120FFF7A0FB03B05DF804FB00BFC3
:101480000008014007B5FFF7CDFB0120FFF794FBF3
:101490004FF40073ADF8043048238DF8073001A9EC
:1014A000032304488DF80630FFF71CF803B05DF8FD
:1014B00004FB00BF000801402DE9F04105460C4641
:1014C00000F10E08002615F8017B3846FFF79AFB5D
:1014D000A84586EA0706F6D12046FFF793FB86EA81
:1014E0000400C0B2BDE8F041FFF78CBB07B5012195
:1014F0000920FFF7FDF801210D48FFF751F80823F7
:10150000ADF80430102301A90A488DF807300323F1
:101510008DF80630FEF7E6FFFFF724FCFFF7B2FF79
:10152000FFF768FFFFF730FC03B05DF804FB00BF76
:1015300000023000000C014008B5114B114C1B6833
:1015400011482360FEF772FF1048FEF76FFF104846
:10155000FEF76CFF0F48FFF7FBF8FFF751F80E4B53
:101560000020186058609860FFF76AF80120FEF7C5
:10157000BAFE0A4B1868FEF7B3FE23689847FEE7E9
:1015800004F0FF1F0003002000080140000C014090
:10159000001001400038014010E000E000F0FF1FA3
:1015A00042B2002A5D4BB8BF002170B5B8BF1980A8
:1015B0001988042900F2B080DFE801F003344C58A8
:1015C0007600D02824D0902806D1554B00221A80CE
:1015D0000422544B1A8070BD002A80F29D8052492B
:1015E00000F00F020D8800F07000AA4279D14F4C34
:1015F000C1B2FF26102921706270A670E5D003D811
:1016000000296ED102224DE0302906D0502968D140
:10161000434B00221A800122DBE7414B00221A8053
:101620000522D6E7DA8842499C888854013292B272
:10163000A242DA8051D300221046551CD2B2A242F7
:1016400003D28A5C50402A46F7E7354900220A80D7
:10165000032522E0354A9070013803284FF000023C
:10166000B8D82F4902200A802E491AE0DA8830497A
:101670009C888854013292B2A242DA802DD3002293
:101680001046551CD2B2A24203D28A5C50402A4670
:10169000F7E7234900220A800225224C258008B161
:1016A000012008801A8018E0DA88042A13D8DFE8BD
:1016B00002F003080A0C0E0046280CD00021198005
:1016C00009E04C28F9E74128F7E75328F5E74828CF
:1016D000F4D1FFF731FF0132DA80164A928C5A803A
:1016E00070BD072A0CD1114CC1B2FF2640292170D0
:1016F0006270A67004D101221A8006229A8007E047
:10170000702809D1094995424A7003D104221A80F0
:101710000022E1E7002AF9D070BD00BFD20000200E
:10172000B6000020F80000203C000020FA00002055
:1017300041000020002C0140064A138843B1064BAB
:1017400051889B8C5B1A9BB2642B84BF002313804F
:10175000704700BFD2000020002C0140F0B52E4B96
:1017600087B09B78013B032B52D8DFE803F0020CD3
:10177000243DFFF76FFE294B1D782846FFF742FAFC
:10178000274B1C7839E001AEFFF764FE10220021E0
:10179000304600F0B3FC00242249304600F0FCFC47
:1017A0002546375D01343846FFF72CFA102C85EAC0
:1017B0000705F6D116E001AEFFF74CFE102200211E
:1017C000304600F09BFC00241749304600F0E4FC52
:1017D0002546375D01343846FFF714FA102C85EAA8
:1017E0000705F6D128460DE0104CFFF733FE2578AB
:1017F0002846FFF707FA2488240A2046FFF702FA52
:1018000085EA0400FFF7FEF9FFF73CFE012000E047
:10181000002007B0F0BD00BFFA0000200403002044
:1018200038000020C2220008C82200083A00002028
:10183000054A00231380D380138153805381938002
:101840009381024A137070478200002040000020FC
:1018500037B50D4C01210420FEF74AFF10234FF449
:1018600080758DF8073001A9022320468DF80630D7
:10187000ADF80450FEF736FE002229462046FEF75A
:101880008AFE03B030BD00BF000801402DE9F041E1
:10189000012188B00920FEF72BFF01210420FEF76B
:1018A00033FF43F67F63ADF808302A4B2A4A1B68A2
:1018B0002A4DB3FBF2F308A9013B002421F81C3D9B
:1018C0002846ADF80A40ADF80640FEF71FFC60233D
:1018D000ADF8103040F2DC53ADF81C40ADF81E40BE
:1018E000ADF81840ADF81A40ADF814401C4C012674
:1018F00004A92846ADF816304FF018080327ADF8B4
:101900001260FEF74DFC802369462046ADF800309A
:101910008DF803808DF80270FEF7E4FD04A92846D7
:10192000FEF782FC4FF4807369462046ADF8003024
:101930008DF803808DF80270FEF7D4FD31462846FD
:10194000FEF7C0FC31462846FEF7B0FC08B0BDE803
:10195000F08100BF0000002040420F00000800405E
:10196000000C0140054B002206215A819A81DA8140
:10197000198259809A80DA801A817047B800002055
:1019800038B52F4C6388228A9A4204D02382FFF70D
:101990005FFFFFF77BFF63882949052BA3881CD1D4
:1019A000002B40D0013B022B264D10D0032B0ED034
:1019B0007BBB32238B810122A523CB814A81224824
:1019C0004FF48071FEF7E7FD4FF4E1632AE04B81AD
:1019D000A523CB8140F2145324E023B3013B022B17
:1019E000184D10D0032B12D09BB932238B810122CA
:1019F000A523CB814A8114484FF48071FEF7CBFDBB
:101A000040F29E730EE04B8140F21A430AE04B8194
:101A100006E000224A810C484FF48071FEF7BBFDBE
:101A200040F2DC532B87238943B1013B03EB830353
:101A30005B0003F57A73034A9BB2938738BD00BFFE
:101A4000B8000020000800400008014010B5114C0B
:101A50006389EBB1A3890BB1013BA381A389012B5E
:101A600005D100224FF480710B48FEF794FDE38905
:101A700013B1084A013BD381E389012B02BF40F235
:101A8000DC51064A1187A28912B90BB9014A538168
:101A900010BD00BFB8000020000801400008004051
:101AA000F7B501242546FFF793FA01210820FEF738
:101AB0001FFE4FF40073ADF8043048238DF8073053
:101AC00001A9032340488DF80630FEF70BFD0121E4
:101AD0000420FEF70DFE3D4E04230DEB03013C48B0
:101AE000ADF804304027FEF7FDFC34803648FEF7A1
:101AF0004BFD820548BF0135354848BFADB2FEF702
:101B000043FD013F430748BF0134BFB248BFA4B201
:101B1000002FEBD1302D1ED80F2D1FD92D4C25466F
:101B200048F6B800FFF748F8B4F90030002B04DAA3
:101B3000012208212448FEF72EFD48F6B800FFF7E1
:101B40003BF8B5F90030002BEADA002208211E48E4
:101B5000FEF721FDE4E7302C04D830E0302C0FD91B
:101B6000022333800620FFF725FAFFF761FE1A4AA9
:101B700000231380194A1380FFF7F4FE03B0F0BD71
:101B80000F2CEFD9134C254648F6B800FFF714F890
:101B9000B4F90030002B04DA012208210A48FEF7CC
:101BA000FAFC48F6B800FFF707F8B5F90030002B4B
:101BB000EADA002208210448FEF7EDFCE4E70F2CE6
:101BC000E0D80C23CDE700BF000C01403C00002012
:101BD000000801402800002034000020DE00002022
:101BE0000A4B5B78072B10D1094B1B886BB9094A4C
:101BF000094B117819805178598091789980D17862
:101C00001279D9801A81FFF7BBBE7047FA00002015
:101C1000B600002041000020B8000020134B10B592
:101C20001B881B0620D5124B1A881C46012A08D196
:101C300010211048FEF7ABFCFFF73EF90220FEF73B
:101C4000BBFF10210B48FEF7A4FC0E220A49BB2063
:101C5000FFF7CEF801232380084BBDE810409A8C93
:101C6000074B1A80FFF7E4BD10BD00BF040300203E
:101C7000340000200008014094000020002C0140A6
:101C8000DC00002008B5074B1B881B0603D5064B5C
:101C90001B88012B03D0FFF7CBFD072008BD0620D2
:101CA00008BD00BF040300203400002008B5FFF782
:101CB000E7F8002830D100F18040102100F5843091
:101CC000FEF765FC154B164A5878997841EA0021D1
:101CD0001180D878197941EA002151805879997991
:101CE00041EA00219180D879197A41EA0021918155
:101CF000587A997A41EA0021D180D87A197B41EA51
:101D000000211181597B9B7B072043EA01235381EA
:101D1000044B0D221A7008BD062008BD9400002057
:101D2000820000204000002008B5044B04481978C8
:101D3000FFF7C2FB034B00221A8008BD40000020C1
:101D400082000020340000202DE9F74FDFF8D4B2E4
:101D5000DFF8D4A2A74CA84FDFF8C482FFF7C6FB78
:101D600000260223AAF800603E802680A8F80030F2
:101D7000FFF796FEA14BA24D1E804FF40043238037
:101D80004FF6FF73324608219E482B80FEF703FC76
:101D9000B5F90030B342564604DA012208219948C9
:101DA000FEF7F9FB4FF00009FEF746FF18B1FEF70A
:101DB00051FFFFF7F5FBFFF7BFFC33889BB2013BF8
:101DC000062B25D8DFE803F004080B0E11181E00BF
:101DD0000023AAF80030BBE7FFF7C0FC16E0FFF7CE
:101DE000FFFE13E0FFF71AFF10E0FFF733FBABF83D
:101DF0000090FFF747FF03E0ABF80090FFF756FFB6
:101E0000308005E0FFF790FFFFF73CFBA6F800905D
:101E10007D4B1B889BB2002BC6D07B4B00201880CB
:101E2000FFF7D8FAB5F90010002910DD774A1388BA
:101E300001339BB28B42A5BF1080724A1380D368D6
:101E4000A1BFDB4303F0080343F40023136123889D
:101E5000684A23F4FE4189B2B1F5004F5DD01AD82B
:101E60000C2900F098800AD8032967D002D80029ED
:101E700055D037E10A2972D00B297DD032E10E29E5
:101E800000F0DA80C0F094800F2900F0F58010296E
:101E900000F0108126E148F20B0081426CD013D88B
:101EA00048F20200814243D03CD348F20300814211
:101EB00044D048F20A00814240F01481C3F30E037B
:101EC000138032232B804AE048F20E00814200F05A
:101ED000AD800FD848F20C0081425CD048F20D0072
:101EE000814240F0FF80C3F30E031380484B002271
:101EF0001A805DE048F20F00814200F0BA8048F29B
:101F00001000814240F0EE80C3F30E0313800120E5
:101F1000C8232B80FFF74EF8CCE032232B8048F209
:101F20000A03DEE0C3F30E0313804FF4FA7303E0F9
:101F3000C3F30E03138064232B80D3E0354A138848
:101F400001339BB21380344A12889A4280F0CA80CF
:101F5000324B1B886FEA43436FEA5343C1E00620CC
:101F6000FFF728F8FFF7B8F82A4B00221A802A4B0F
:101F70000A221A800B220BE0C3F30E032380FFF723
:101F8000B7F8244B00221A80234B01221A800C221E
:101F9000224B1A80A3E0C3F30E032380FFF7A2F8BD
:101FA0001C4B00221A801C4B01221A800D22EFE7E5
:101FB000FFF72EF980B290B1B8F80030022823F074
:101FC00007039BB2164A0CBF43F0040343F002031D
:101FD000138048F20E0384E048F20E0323800C4A7B
:101FE000138801339BB20A2B13807BD948F202037A
:101FF00077E000BF3800002004030020D20000205A
:1020000028000020000C01402C0000203600002099
:10201000DE000020B4000020DA0000203E00002096
:102020003A000020B6000020F8000020C3F30E03A1
:1020300013802E4B00221A80B8F8002002F0040210
:1020400092B242B1002201920092012302210320A8
:10205000FFF750F905E00092012302210320FFF76A
:10206000EDF8234B00221A80224B64221A800F22A3
:102070008EE7C3F30E031380B8F8002002F00402C9
:1020800092B242B100220192009201230221032068
:10209000FFF753F905E00092012302210320FFF727
:1020A000EBF8002898D13B8843F080033B8048F24E
:1020B000100316E03B880E4803F080039BB20D49E5
:1020C0000D4A33B1002303804FF496730B80012334
:1020D00004E003804FF496730B800223138048F2D0
:1020E00003032380FFF7B2FC5CE600BFDE000020A4
:1020F000B4000020DA0000203E00002070B4840705
:1021000046D0541E002A41D0CDB2034602E0621EE2
:10211000E4B3144603F8015B9A07F8D1032C2ED9D7
:10212000CDB245EA05250F2C45EA054519D92646C5
:1021300003F11002103E0F2E42F8105C42F80C5CC6
:1021400042F8085C42F8045C02F11002F2D8A4F1F3
:10215000100222F00F0204F00F041032032C13447B
:102160000DD91E462246043A032A46F8045BFAD8E3
:10217000221F22F003020432134404F003042CB1A2
:10218000C9B21C4403F8011BA342FBD170BC7047C9
:1021900014460346C2E700BF80EA0102844612F0FB
:1021A000030F4FD111F0030F32D14DF8044D11F050
:1021B000040F51F8043B0BD0A3F101329A4312F003
:1021C000803F04BF4CF8043B51F8043B16D100BFDC
:1021D00051F8044BA3F101329A4312F0803FA4F16D
:1021E00001320BD14CF8043BA24312F0803F04BFF4
:1021F00051F8043B4CF8044BEAD023460CF8013B61
:1022000013F0FF0F4FEA3323F8D15DF8044B70470A
:1022100011F0010F06D011F8012B0CF8012B002A48
:1022200008BF704711F0020FBFD031F8022B12F037
:10223000FF0F16BF2CF8022B8CF8002012F47F4FF2
:10224000B3D1704711F8012B0CF8012B002AF9D1FA
:10225000704700BF6D707520617420535049204F46
:102260004B0A007563006D707520535220006D702D
:102270007520415220006D707520444C504620005E
:102280006D707520475220004D5055363035300066
:102290004D505536303030004D50553932353000C4
:1022A0004F56455253414D504C45440046415354BE
:1022B000204759524F004641535420414343002D7B
:1022C000200076302E3239004343334420463130EB
:0422D0003343420052
:1022D40000A24A0400000000000000000102030400
:1022E40006070809000000000102030401020304B8
:0C22F4000607080902040608FFFF0000AE
:0400000508000000EF
:00000001FF
