:020000040800F2
:10000000D03300202D020008290200082902000830
:100010002902000829020008290200080000000047
:10002000000000000000000000000000290200089D
:1000300029020008000000002902000869380008B1
:1000400029020008290200082902000829020008E4
:1000500029020008290200082902000829020008D4
:1000600029020008290200082902000829020008C4
:100070002902000829020008511600085D16000830
:100080001D16000829160008290200082902000888
:10009000C5380008290200082902000829020008C2
:1000A0002902000829020008290200084D3F000823
:1000B0002902000829020008290200080116000888
:1000C0000D16000835160008411600082902000820
:1000D00029020008D54F000829020008B18800084D
:1000E0002902000829020008290200082902000844
:1000F0002902000829020008BD4000082902000862
:100100002902000829020008257F000829020008AA
:10011000E538000829020008290200082902000821
:100120002902000829020008290200082902000803
:100130005FF808F1384B82B01A6842F001021A6089
:100140005968364A0A405A601A6822F0847222F4CA
:1001500080321A601A6822F480221A605A6822F4E7
:10016000FE025A604FF41F029A6000220092019230
:100170001A6842F480321A601A6802F4003201925E
:10018000009A01320092019A1AB9009AB2F5A06F52
:10019000F2D11A6812F4003218BF01220192019ABA
:1001A000012A05D01E4B4FF000629A6002B07047E2
:1001B0001C4A116841F010011160116821F003011F
:1001C0001160116841F0020111605A685A605A6862
:1001D0005A605A6842F480625A605A6822F47C126B
:1001E0005A605A6842F4E8125A601A6842F0807203
:1001F0001A601968084A8901FBD5516821F003018A
:100200005160516841F0020151605A6802F00C02DD
:10021000082AFAD1C6E700BF001002400000FFF82C
:1002200000ED00E000200240FEE7000008B50C4AA7
:100230000C4B0D498B4204D252F8041F43F8041BA7
:10024000F7E70A480A494FF000028842B8BF40F871
:10025000042BFADBFFF76EFFBDE808400DF014BA7F
:10026000344A010800000020B4070020B407002031
:10027000CC2F002010B5064C18B9236801221A8231
:1002800010BD044B1B681B68984720680A3010BDDE
:10029000240800202008002010B5064C18B9236857
:1002A00001221A8210BD044B1B689B689847206886
:1002B0000C3010BD240800202008002010B5204A72
:1002C00018B9136802221A8210BD1E481468002350
:1002D00003802178024611F07F010DD1637A9906DF
:1002E00044BF0221017013F0400F037814BF43F0A4
:1002F000010323F0010314E0012920D002291DD1BC
:10030000617901F00F039B0003F1804303F5B843CB
:1003100011F0800F1B6806D003F03003102B07D1BB
:100320000123137004E003F44053B3F5805FF6E754
:10033000054B1B681B699847024810BD184610BD45
:1003400024080020F2070020200800202DE9F843AF
:10035000234FDFF8A0803D682B8A2E7ABBB9042E8C
:1003600015D120480278012A0CD11F4A11681F4A72
:1003700089B20A445200138053803022A8F800202A
:10038000037029E01023A8F80030072624E0AC8A87
:10039000A34294BF042602269C4228BF1C46AB6998
:1003A000204698478146002000F0F6FC2246014690
:1003B000484600F0EFFE0020214600F00DFD2B8A9C
:1003C0004FF440521B1B2B826B8A23446B823023D9
:1003D000A8F80030064B1A803B681E72BDE8F8830F
:1003E00024080020B4070020505C004002300020A8
:1003F000F4070020F607002010B50A4B0A491B68D5
:100400004978DA7891420AD3997841B99C8834B90D
:100410009A72064B1B685B689847204610BD022005
:1004200010BD00BF24080020BC00002020080020D0
:1004300038B50E4A0E4D12682B6892695879D978F2
:1004400090472B689A7A7AB170B91A7962B99C7818
:1004500054B9084B1B68DB6898472B6820465A79CB
:10046000DA72DA781A7338BD022038BDFC07002032
:10047000240800202008002038B5314B1B6818786C
:1004800010F07F0004D15A7A22F020025A7238BD4F
:10049000022853D15A88002A51D11A79002A4ED104
:1004A0005979284D21F08000840004F1804202F542
:1004B000B84212682D7811F0800F14BF02F030029C
:1004C00002F44052A84239D2002A37D09B7A002B3E
:1004D00034D004F1804404F5B8440A0623680CD5EE
:1004E00003F03003102B23D1C4B2204600F021FCCE
:1004F0002046302100F0A2FB1AE003F44053B3F58C
:10050000805F15D128B9104B93F82C1000F072FCC5
:1005100001E000F0FBFB236823F4804323F0700329
:100520009BB283F4405343F4004343F080032360C1
:10053000064B1B685B699847002038BD022038BD18
:1005400024080020BC0000203800002020080020E3
:1005500038B51F4B1F4D18682D78417921F0800464
:10056000A30003F1804202F5B842126811F0800F37
:1005700014BF02F0300202F44052AC4225D244884B
:100580001CBB12B3827A02B303F1804303F5B84374
:100590001A6809064BBF22F4E04222F4804222F09E
:1005A000400222F070024BBF92B292B282F010026F
:1005B00082F4805242F4004242F080021A60064BFC
:1005C0001B689B699847002038BD022038BD00BFDA
:1005D00024080020BC0000202008002008B5064B9D
:1005E0001A68537A43F020035372044B1B68DB698B
:1005F0009847002008BD00BF2408002020080020E4
:10060000054B10B51C68628A18B98B889B1A238227
:1006100010BD0868104410BD2408002008B50C4B1C
:10062000002093F82C1000F0E5FB0A4B1B68187AA9
:10063000082801BF084B4FF480521A80074B04BFB3
:1006400010221A80A0F109035842584108BD00BF8A
:100650003800002024080020F4070020F6070020BE
:10066000F7B5954E954B3268954D92B213442F686D
:100670005B001C683B7A092B15D0A4B2640004F11E
:10068000804404F5C04423783B7063787B70A08875
:1006900000F0E0FB788020892F6800F0DBFBB88059
:1006A000A2892B68DA802B6801221A72DA885C78BA
:1006B000002A5FD11A7812F07F0237D1092C02D1BB
:1006C000FFF79AFE41E0052C0FD193F90320002A91
:1006D00001DA08234BE09A78002AFAD19A88002A96
:1006E000F7D19B7A002B34D0F3E7032C10D1DA78C2
:1006F000012A07D0734B20461B685B699847032883
:1007000025D133E09B88002BF4D1FFF767FF1CE075
:10071000012CEFD1DA78012AECD19A88002AE9D1AC
:100720005B7A9906E6D5FFF7A7FE0EE0012A04D111
:100730000B2CDFD1FFF77CFE07E0022ADAD1012C77
:10074000F1D0032CD6D1FFF703FF10B1D2E7002878
:10075000BFD132685C4B92B213445B0000221A8016
:100760005A805A4B30221A80062300E009232A6857
:100770001372CDE0062C13D11A78520675D19A78EF
:10078000504B012A02D11B68DB6965E0022A02D1C5
:100790001B681B6A60E0032A67D11B685B6A5BE029
:1007A000002C3AD1598800295FD15A6822F47F423F
:1007B000B2F5003F59D11A7812F07F0204D19B881C
:1007C000002B00F0A98050E0012A0AD13D4A587957
:1007D000126892699047002847D1394B1B689B7A71
:1007E00018E0022A41D15A79394802F00F018B00F2
:1007F00003F1804303F5B8431B68007812F0800FC3
:1008000014BF03F0300303F4405381422DD212F0A1
:10081000700F2AD1002B7FD127E0082C03D11B7841
:100820005B067BD021E00A2C1FD11A7802F07F02F0
:10083000012A1AD19A7AC2B15988B1B95A6822F4F8
:100840007F42B2F5803F10D11E4A587912689269F2
:100850009047002864D008E03BB12A680024548205
:1008600093612046984720460AE0164B2A681B6889
:1008700050781B699847032802D1114B1B6805E08B
:100880004FF6FF712B681A8A8A4201D1092203E0D0
:10089000022800D012B908221A7239E093F9001028
:1008A00000292FDAD988074C01910198824211D989
:1008B000019A1A821FE000BF505C00400430002003
:1008C00024080020FC07002002300020F60700204A
:1008D000BC0000208A420ED2216891F82C0082428E
:1008E00001D2002105E092FBF0F100FB112212B9C8
:1008F00001210C4A1170226892F82C209A82FFF78D
:1009000025FD05E003221A72074B4FF440521A806E
:10091000FFF784FE03B0F0BD044B9EE7044B9CE759
:10092000044B9AE7B4070020F4070020BD0200083A
:100930007502000899020008F8B52C4D2C68237A3E
:10094000022B4CD0042B4AD0032B01D0052B40D1D5
:10095000A169238AA9B1A3B1A68A9E4228BF1E46D7
:1009600030468847238A07469B1B2382638A0020E0
:100970003344638200F020FA32460146384600F0E4
:1009800021FC238A53B11A4B00204FF440520146F8
:100990001A8000F021FA174B30221A80A38A228A8B
:1009A00093422B6801D8032201E012B105221A728A
:1009B0000CE006211972104B1968104B89B20B44D8
:1009C0005B001A805A800B4B30221A802B681B7AEE
:1009D00006E0072B03D10A4B1B68DB689847082306
:1009E0002A681372BDE8F840FFF718BE24080020FB
:1009F000F4070020F6070020505C00400230002081
:100A0000FC07002070B50D4B00221D78AA4210D2C1
:100A100040F60F7102F1805303F5B8539B001E6836
:100A200042F4004444F08004314021431960013213
:100A3000ECE7034B40F08000186070BDBC00002064
:100A40004C5C004010B5134C23681A7A022A01D07E
:100A5000042A04D1FFF77AFC23681B7A13E0062AE4
:100A600010D15A78052A09D11A78520606D1D878B9
:100A7000FFF7C8FF084B1B681B6A9847074B1B68AA
:100A80009B689847082322681372BDE81040FFF75F
:100A9000C5BD00BF2408002020080020FC0700205E
:100AA0007047000073B50023ADF80630504B514A33
:100AB0001B6899B21B04118040F1978013884E4C3B
:100AC00003F00F032370002B61D14C4C4C4D236875
:100AD0004C4E9BB22B802B8803F0300333802B8845
:100AE00003F440532B804BF6BF7321680B4083F413
:100AF000005383F0200343F4004343F0800323605A
:100B00001388D80607D448F60F7322681340236071
:100B1000FFF798FF1BE023689BB2ADF80630BDF8E5
:100B20000630190507D540F68F73226813402360FD
:100B3000FFF796FD0BE0BDF806301BB2002BB5DACF
:100B400040F68F73226813402360FFF7F5FE4BF6E3
:100B5000BF73226813402A88D2042A8848BF83F4CE
:100B600080539404328848BF83F40053D0063288FF
:100B700048BF83F01003910648BF83F0200343F47D
:100B8000004343F080031D4A9BB213602DE09A009E
:100B900002F1804202F5B842116889B2ADF8061040
:100BA000BDF8061009B2002909DA40F68F71106805
:100BB000013B01401160144A52F823309847BDF8B8
:100BC00006301A067FF572AF48F60F71227893004F
:100BD00003F1804303F5B8431868013A01401960F6
:100BE0000A4B53F82230984760E702B070BD00BF4F
:100BF000445C00406A08002000080020005C0040BF
:100C0000F4070020F6070020C0000020DC000020D0
:100C10004FF6F873014A034013607047505C004080
:100C2000800000F1804000F5B840036823F4EC43F5
:100C300023F07003194389B201607047800000F10E
:100C4000804000F5B8400368CA0623F4E04323F06F
:100C500040039BB248BF83F010038A0648BF83F06D
:100C6000200343F4004343F0800303607047800097
:100C700000F1804000F5B8400368CA0423F48043C3
:100C800023F070039BB248BF83F480538A0448BFAB
:100C900083F4005343F4004343F080030360704740
:100CA000800000F1804000F5B840036823F4E04381
:100CB00023F040039BB283F0300343F4004343F03E
:100CC000800303607047800000F1804000F5B84069
:100CD000036823F4804323F070039BB283F44053F2
:100CE00043F4004343F0800303607047800000F149
:100CF000804000F5B840036823F4F8731B051B0D12
:100D000043F4004343F0800303607047800000F128
:100D1000804000F5B84003685B0441BF40F60F73A4
:100D20000268134043F4404344BF43F08003036030
:100D30007047800000F1804000F5B84003685B0612
:100D400041BF40F60F730268134043F4004344BFB1
:100D500043F0C00303607047064B49081B68490015
:100D60009BB203EBC00000F1005000F54050400082
:100D700001607047505C0040054B49081B68490002
:100D80009BB203EBC000034B03445B001960704748
:100D9000505C004004300020064B1B689BB203EB04
:100DA000C00000F1005000F540504000006880B2E3
:100DB000704700BF505C0040054B1B689BB203EBC3
:100DC000C000044B03445B00186880B2704700BF4A
:100DD000505C004004300020044B1B689BB203EBC6
:100DE000C000034B03445B0019607047505C004037
:100DF000023000200D4B3E291B689BB203EBC00064
:100E00000B4B03444FEA430209D94B09C80604BF00
:100E100003F1FF339BB29B0243F4004304E04B0811
:100E2000C90748BF01339B0213607047505C004004
:100E300006300020054B1B689BB203EBC000044B3F
:100E400003445B001868C0F309007047505C004021
:100E500006300020C3B2000A40EA032070470000B9
:100E6000034B9B7A13B1034B05221A60704700BFF6
:100E700004080020B8070020014B04221A607047C4
:100E8000B8070020034B1A78202A04BF00221A70EA
:100E9000704700BFB507002070470000212810B53B
:100EA00008D1114B1B681B7803F07F03212B10D056
:100EB000022010BD2028FBD10B4B0C4A1B681B786D
:100EC000107003F07F03212B094B18BF00230BB9CF
:100ED000EEE7084B044A00241268204693615482CE
:100EE0009847204610BD00BF24080020B507002009
:100EF000450F00082D0F0008074B1B681B7803F0F7
:100F00007F03212B06D100F0DF00022814BF02204E
:100F100000207047022070472408002021B90128D2
:100F20008CBF0220002070470220704720B9034B7D
:100F300008221B681A827047014870472408002065
:100F40003000002020B9034B08221B681A8270472A
:100F500001487047240800203000002010B502F03E
:100F60006DF8054B00241B689C7200F095F800F0AA
:100F7000C5F8024B1C6010BD24080020B8070020F3
:100F8000334B344A1B68D27910B500245A729C72D4
:100F9000DC722046FFF73CFE20464FF40071FFF75D
:100FA0003FFE20461021FFF749FE20464021FFF773
:100FB000E3FE80212046FFF7CFFE2046FFF796FE96
:100FC000254B204693F83410FFF714FF2046FFF717
:100FD0007AFE01202146FFF723FE0120C021FFF702
:100FE000BBFE01202021FFF729FE01202146FFF74B
:100FF0003EFE02204FF4C061FFF712FE02204FF4C4
:101000008071FFF7A9FE02202146FFF730FE022083
:101010002021FFF713FE03202146FFF701FE0320E6
:101020004FF48871FFF7A8FE03204021FFF7E2FE8E
:1010300003204FF44051FFF71AFE03202146FFF72B
:10104000FDFD2046FFF7DEFC044B01221A6010BDB7
:1010500024080020801D010830000020B80700206F
:101060000149FFF7CDBA00BF680000200149FFF732
:10107000C7BA00BF70000020054B1B68DB78042B4B
:1010800004D8044901EBC301FFF7BABA0020704746
:10109000240800207800002008B5012001F0C2FFDC
:1010A000064B01221A60064A0020064918601060AB
:1010B0004FF4E0520A801A6008BD00BF405C004057
:1010C000445C004028080020064B074A074913608B
:1010D00002221A72064B074A1360074A1B68116006
:1010E000184700BF040800202408002098000020B2
:1010F00038000020FC07002020080020044B0020BE
:10110000044A18604FF406431380034A1360704783
:10111000445C004028080020405C004070B500F0AE
:101120007F0528460E46FFF785FE04462846FFF752
:1011300043FE22460146304600F044F8204670BD8A
:1011400001F0B4BF10B5074C03202146FFF7E6FFBE
:10115000C1B2204601F08CFFBDE810400320FFF72C
:10116000B2BD00BF2A080020084B1B68052B0BD11D
:10117000074B1A68052A02F1010101D01960704776
:1011800000221A6001F0A0BF704700BFB80700201E
:10119000BC07002030B501F10051013201F540518A
:1011A000521049000023934200F1020009D010F8C8
:1011B000015C10F8024C44EA052421F82340013375
:1011C000F1E730BD10B501F10051013201F5405198
:1011D000521049000023934205D051F8234020F8D3
:1011E00013400133F7E710BD70B5164C164B22685B
:1011F000164D92B21A8019882A881E460A4012F4A7
:10120000007F09D04FF6FF53114A23601378013352
:10121000DBB21370FFF7A8FF32882B8813401A0443
:1012200001D5FFF73FFC32882B8813405B0507D5BB
:101230004FF6FF332360074BBDE870405B681847EB
:1012400070BD00BF445C00406A08002028080020F0
:10125000C007002038000020084B10B553F820408C
:101260000121204601F044FB2046002101F040FB13
:101270002046BDE81040012101F02EBBD81D010819
:10128000084B10B553F820400121204601F030FBF7
:101290002046002101F02CFB2046BDE81040002133
:1012A00001F01ABBD81D01082DE9F3410746134C84
:1012B0008600A31998681B690121184301F000FBFF
:1012C00003238DF8063004EB47041C238DF8073008
:1012D000238B02ADDFF8288025F8043D58F827005D
:1012E000294601F034FA4644A38BB0682946ADF88C
:1012F000043001F02CFA02B0BDE8F081D81D0108DD
:10130000F8000020F7B507460E4E032306EB400613
:101310008DF8063004238DF80730338B02AC0A4D6C
:1013200024F8043D55F82000214601F010FA05EBA1
:101330008705B38BA8682146ADF8043001F007FAA1
:1013400003B0F0BDD81D0108F800002070B5184C9E
:1013500085002C440E46206A012101F0A5FA4FF6C3
:10136000FF7314498022CB6000230B618B61CB613A
:101370008B62A36A4A6116F0010F4FF440524A6231
:101380000B600C4606D010238B600B4B2B44186966
:1013900001F02EFDB30709D50023A360064B0549D4
:1013A0001D44A869BDE8704001F022BD70BD00BFBA
:1013B000D81D01086C080020F800002010B50C4B67
:1013C0000C6849688000D9600A4912F480420144DF
:1013D000896A18BF20221A6210225C6019609A6024
:1013E000054B034918440069BDE8104001F000BDF9
:1013F0006C080020D81D0108F800002010B50C4B27
:101400000C6849688000D9600A4912F4004201441E
:10141000896A18BF20221A6200225C6019609A60F3
:10142000054B034918448069BDE8104001F0E0BC59
:101430006C080020D81D0108F8000020CA0738B544
:1014400004460D4605D5084B03EB8003186901F0EF
:1014500057FCAB0707D5044800EB84008069BDE862
:10146000384001F04DBC38BDF80000202DE9F743AD
:1014700005460F46404C90466619994600F06AFEB4
:1014800001238DF8073096F8303001A88DF804302C
:1014900096F832308DF8053096F834308DF80630F5
:1014A00000F066FE780217D496F8363001A88DF861
:1014B000043096F838308DF8053096F83A308DF8CB
:1014C000063000F055FE2D4B03EB85031A6A938816
:1014D0009BB243F480739380B9F1020F49D118F0A5
:1014E000010F21D0631993F83C2001A88DF8042046
:1014F00093F83E2093F840308DF805208DF80630A3
:1015000000F036FE1D4BB90503EB85031B691A6815
:1015100042F002021A601A6842F008021A6042BFE2
:101520001A6842F004021A6018F0020F21D0631901
:1015300093F8422001A88DF8042093F8442093F8F2
:1015400046308DF805208DF8063000F011FE0B4B6B
:1015500003EB8505AB691A6842F002021A601A684B
:1015600042F008021A60FA0442BF1A6842F004020C
:101570001A6003B0BDE8F083D81D0108F800002010
:101580002DE9F3478A461D4E9946371800238DF8FA
:1015900005308DF806308DF8073097F8303002AC02
:1015A00004F8043D05462046904600F0E1FD1AF49B
:1015B000800F06D197F8363020468DF8043000F0C1
:1015C000D7FDB9F1020F15D118F0010F07D073192B
:1015D00093F83C3020468DF8043000F0C9FD18F037
:1015E000020F07D0354495F8423020468DF804307C
:1015F00000F0BEFD02B0BDE8F08700BFD81D0108B5
:10160000014800F02BBC00BF2001002008B50248B3
:1016100000F0FEF8002008BD20010020014800F085
:1016200067B900BF20010020014800F0EFB900BFFA
:1016300020010020014800F011BC00BF4001002043
:1016400008B5024800F0E4F8002008BD4001002081
:10165000014800F04DB900BF40010020014800F0F2
:10166000D5B900BF400100204FF0FF328261102247
:101670000273FF22026101F037BF0000037B70B5E7
:10168000012B044605D0037B102B02D0037B002BDB
:1016900064D12078324D55F82020138823F00103BF
:1016A0001B041B0C1380FFF72DFE2078FFF7E8FDCD
:1016B000E378022B03D120786178FFF7BFFE207812
:1016C000FFF7CAFD2078FFF7EFFD2378E16955F8B1
:1016D000230003889BB243F00103038001F0C0FBA9
:1016E0006269207812F4801F1FBF1D4B53F8201031
:1016F0000B889BB21CBF43F040030B80D10712D56F
:1017000055F8201002F0FE068B899BB243F00103CE
:101710008B818B8923F0FE031B041B0C8B818B892F
:101720009BB233438B81530041BF55F820100B8887
:1017300023F480631B0444BF1B0C0B80E378022B53
:1017400002D16178FFF702FE2078E3786169627860
:10175000FFF78CFE01232373002070BD012070BDB4
:1017600018010020037B10B5012B044604D0037B35
:10177000102B01D0037B13BB2078FFF7C3FD20782B
:10178000104B53F82020138823F001031B041B0C7B
:101790001380FFF775FDE378022B03D12078617881
:1017A000FFF74CFE2078E37861696278FFF7E8FE86
:1017B00000204FF0FF3320732061A36110BD012092
:1017C00010BD00BF180100200F4A104903461160E8
:1017D0004BF6FF71D1804FF4806151814FF480410D
:1017E0000020918103211081908059700221D970CD
:1017F0004FF0FF3118739870186158609860586105
:101800009961DA61704700BF98080020A086010046
:10181000837810B5012B0478344B38D14268526874
:10182000002A34D1027B012A02D0027B062A2ED163
:1018300053F824204FF2FF039382C378012B53D136
:10184000938823F400731B041B0C9380938823F468
:1018500080631B041B0C938006238361138B9C07FE
:1018600005D58369012B02D083690133F6D18369E1
:10187000012B02D08369013303D1BDE81040FFF78B
:10188000F3BE4FF0FF338361012303732CE053F861
:1018900024309A8A02F470620261102202734FF2BD
:1018A000FF029A820269D1050AD51A886FEA42427C
:1018B0006FEA524292B21A801A88C2F30E021A805C
:1018C000026992050AD51A886FEA42426FEA5242CB
:1018D00092B21A801A88C2F30E021A800369036951
:1018E0000169204601F01CFE002010BD18010020F7
:1018F0004FF0FF3370B53F4A836103783E4952F899
:10190000234051F823502268154254D0426846695A
:1019100000215160720462D48278002A5FD1374A74
:1019200052F82320918821F400610904090C918068
:1019300005218161918A490705D48169012902D075
:1019400081690131F6D1816901291DD08169013197
:101950001AD04FF0FF31360281611CD4118889B250
:1019600041F40071118006218161118B890705D531
:101970008169012902D081690131F6D1816901298A
:1019800002D08169013103D1BDE87040FFF76CBE20
:101990004FF0FF3181611A4951F82360316821F01D
:1019A00001013160918821F400710904090C9180D2
:1019B0000122027313E0134A216852F823201142D6
:1019C0000DD1114A216852F82320114207D00C4949
:1019D000102251F823100273496842685160094A85
:1019E000094952F8232051F823302A4313436360F6
:1019F000002070BD60010020481E01081801002071
:101A000008010020401E0108381E01084FF0FF3376
:101A100070B5374A83610378364952F8234051F84C
:101A200023502268154244D08268002151604269E7
:101A3000160452D48278002A4FD12F4A52F823201C
:101A4000118889B241F400711180918821F40061FC
:101A50000904090C918006218161118B890705D544
:101A60008169012902D081690131F6D18169012999
:101A700002D08169013103D1BDE87040FFF7F4BDA8
:101A80004FF0FF3181611D4951F82360316821F029
:101A900001013160918821F400710904090C9180E1
:101AA000918821F480510904090C9180012202736C
:101AB00013E0134A216852F8232011420DD1114A34
:101AC000216852F82320114207D00C49102251F806
:101AD00023100273496882685160094A094952F823
:101AE000232051F823302A4313436360002070BD44
:101AF00060010020301E01081801002010010020A4
:101B0000281E0108201E010810B500240E4B53F8B2
:101B10002400A0B183695BB94FF0FF3383611023C8
:101B2000037303695BB9FF23036101F0DDFC06E089
:101B3000836901331EBF836903F1FF3383610CB9ED
:101B40000124E3E710BD00BF6801002038B5C37869
:101B50000446012B02D0022B0AD047E00278264B24
:101B600053F8222093889BB243F48063938041E032
:101B70000078214D55F82020938823F400731B042E
:101B80001B0C938093889BB243F400639380237B68
:101B9000062B01D001290ED161686269FFF70EFCA6
:101BA000227855F822108B8823F480531B041B0CD9
:101BB0008B80124B13E0237B0A2B01D0022919D111
:101BC0006269A168FFF71AFCA378227833B955F847
:101BD00022108B889BB243F480538B80084B53F8C0
:101BE0002220136843F00103136003E01023037302
:101BF000012038BD002038BD180100200801002058
:101C00001001002038B5037B044698074BD4237B92
:101C1000032B48D0237B052B45D0237B002B42D0C0
:101C2000237B102B3FD06269022312F0807F237345
:101C30001E4D23781AD1062155F82300A161018B8E
:101C4000890705D5A169012902D0A1690131F6D121
:101C5000A169012902D0A169013104D12046BDE862
:101C60003840FFF701BD4FF0FF31A161A17881B984
:101C700055F823100B889BB243F480730B80D30379
:101C800003D520460121FFF761FF032323731F23A0
:101C9000A3612378002055F8232093889BB243F456
:101CA0000073938038BD012038BD00BF18010020AB
:101CB00038B5037B0446990700F1CB80037B032BE7
:101CC00000F0C780037B052B00F0C380037B002B53
:101CD00000F0BF80037B102B00F0BB800223037356
:101CE00043695D4D13F0807F16D106228261027830
:101CF00055F822100A8B920705D5A269012A02D055
:101D0000A2690132F6D1A269012A7CD0A26901320E
:101D100079D04FF0FF32A261E278022A07D1A2689F
:101D20005268012A02BF43F400136361E2706169E3
:101D3000CB0371D4A378002B6ED1237855F82330D0
:101D40001A8892B242F480721A801F22A2619A8A83
:101D5000D00705D4A269012A02D0A2690132F6D1C6
:101D6000A269012A4FD0A26901324CD04FF0FF3254
:101D7000A261E2699289B2F5804F18D1A268926897
:101D800002F0FE021A820422A2619A8A920705D406
:101D9000A269012A02D0A2690132F6D1A269012A00
:101DA00031D0A26901322ED04FF0FF32A2619A8A5F
:101DB0001A8B0322A2619A8A100605D4A269012A0D
:101DC00002D0A2690132F6D1A269012A1BD0A26910
:101DD000013218D04FF0FF328903A26122D4A268E9
:101DE000127B1A820322A2619A8A120605D4A26982
:101DF000012A02D0A2690132F6D1A369012B02D0D7
:101E0000A369013304D12046BDE83840FFF72CBC5C
:101E10004FF0FF33A36105E0E178022902D12046AB
:101E2000FFF794FE05232373A378227843B955F86E
:101E300022100B889BB243F480730B801F23A36195
:101E400055F82220002093889BB243F400739380BE
:101E500038BD012038BD00BF1801002073B5002334
:101E6000ADF806308C4E0378044656F823309A8A33
:101E700002F0DF02ADF80620827802BBBDF8062032
:101E8000D5071ED54FF0FF328261C2699289B2F543
:101E9000804F14D1027B052A0BBF8268426892688A
:101EA000926805BF42F00102D2B202F0FE021A822D
:101EB00016BF1A820A2306230373042383610025B5
:101EC00044E1BDF8062002F0020292B2002A69D075
:101ED000C17802290BD1027B062A01D1426803E0B6
:101EE000027B0A2A03D182685268013201E04FF076
:101EF000FF32A261227B0A2A0DD101290BD1A268EF
:101F0000556845B91A8892B242F400721A809A8ACA
:101F10001B8B21731AE1237B0A2B05D1012903D1E5
:101F200020460221FFF712FE237856F823309A8AC2
:101F30001A8B227B0A2A0ED1A2685268012A0AD182
:101F40001A8822F480621204120C1A801A8892B243
:101F500042F400721A80626912F48035AFD1217B9D
:101F600006291AD1900318D46268127B1A820322C0
:101F7000A2619A8A110605D4A269012A02D0A26937
:101F80000132F6D1A369012B00F0CB80A3690133A4
:101F900000F0C7804FF0FF33A36120460321FFF715
:101FA000D5FDD3E0BDF806100A064BD5017B062906
:101FB00048D1C178012982D141684D6865B108686E
:101FC00004781C824B68013B4B604B68002B3FF44C
:101FD00076AF0130086072E7426912F4000101BF78
:101FE0001A8892B242F400721A809A8822F400721F
:101FF0001204120C9A809A8822F480621204120C45
:102000009A800622826181B99A8A02F084027AB1AA
:10201000A269012A0CD0A2690132F5D108E0A269B7
:10202000012A05D0A269013202D09A8A1606F6D496
:10203000A369012B75D0A369013372D04FF0FF3330
:10204000A36181E0BDF8062050067FF538AF227B02
:102050000A2A7FF434AFE278012A7FF430AFA16816
:102060004A68022A0A6819D11B8A1370237856F825
:102070002320138823F480631B041B0C1380138814
:102080009BB243F400731380A3685A68013A5A6004
:102090001A6801321A6015E01801002049681B8A8D
:1020A0000129137015BFA368A2681A6853681DBF81
:1020B00001321A605A6803F1FF3316BF02F1FF3292
:1020C00053605A60A3685D68002D7FF4F8AE2378F2
:1020D00056F823309A8822F400721204120C9A8067
:1020E0009A8822F480621204120C9A809A8A1A8AC0
:1020F0006269910241BF22F4001262610222E27021
:102100000622A2611A8B920705D5A269012A02D084
:10211000A2690132F6D1A269012A02D0A269013274
:1021200004D12046FFF7A0FA05460FE04FF0FF323A
:10213000A2611A8892B242F480621A801A8822F44C
:1021400000621204120C1A8001232373284602B085
:1021500070BD00BF4FF4A06000F000B840F0BF6059
:10216000024B40F40030D860704700BF00ED00E043
:10217000C27810B503780AB3164A03F16043D468F5
:102180004278E443C4F30224C4F1040102FA01F1E9
:102190000F22E240847803F5614322400A43120192
:1021A000D2B283F8002303780122590903F01F03F8
:1021B00002FA03F3084A42F8213010BD5A090121FE
:1021C00003F01F03994002F12003034A42F8231051
:1021D00010BD00BF00ED00E000E100E030B5058C6F
:1021E00025F001052D042D0C0584058B048CADB262
:1021F00025F0F3052A4342EA03139AB2104BA4B226
:10220000984212D003F5006398420ED0B0F1804F8F
:102210000BD0A3F59833984207D003F5806398421A
:1022200003D003F58063984202D124F0020401E058
:1022300024F00A0444F0010421430283018430BDE8
:10224000002C014030B5048C24F010042404240C2C
:102250000484058B048C25F440752D052D0D45EA6D
:10226000022242EA0333144AA4B290429BB212D033
:1022700002F5006290420ED0B0F1804F0BD0A2F573
:102280009832904207D002F58062904203D002F566
:102290008062904207D124F0200545F0100545EA00
:1022A000011189B204E024F0A00444F01004214399
:1022B0000383018430BD00BF002C0140224A038803
:1022C00090429BB212D002F5006290420ED0B0F163
:1022D000804F0BD0A2F59832904207D002F5806271
:1022E000904203D002F58062904203D14A8823F0E5
:1022F00070031343154A904208D002F58062904261
:102300001FBF23F44073CA889BB2134303808B889A
:1023100083850B8803850C4B98420FD003F500632F
:1023200098420BD003F54063984207D003F58063D1
:10233000984203D003F58063984201D10B7A03865B
:1023400001238382704700BF002C01400010004031
:10235000038C70B523F001031B041B0C0384028C57
:102360008688038B0D8823F073031B041B0C1D430D
:1023700022F002024C880B891204120C23431343EF
:10238000144AB6B290429BB20FD002F5006290425E
:102390000BD002F54062904207D002F58062904275
:1023A00003D002F5806290420ED14C8923F00803DD
:1023B0001C438B8824F0040426F440722343CE8906
:1023C0008C893443224396B2CA88868005838286EC
:1023D000038470BD002C0140038C30B523F0100342
:1023E0001B041B0C0384038C8588028B0C8822F44D
:1023F000E6421204120C42EA042223F0200394B2B3
:102400001B040A891B0C43EA02134A88ADB243EA53
:102410000213124A9BB2904203D002F5006290422E
:1024200015D123F080034A899BB243EA02124FF68A
:10243000BF7313408A8825F4406543EA02138A89F2
:102440009BB245EA8205CA8945EA8205ADB2CA88CF
:10245000858004830287038430BD00BF002C0140C7
:10246000038C30B523F480731B041B0C0384038C92
:102470008488828B0D8822F073021204120C23F4DC
:10248000007315431B040A891B0C43EA02234A8884
:10249000A4B243EA0223124A9BB2904203D002F54F
:1024A0000062904215D123F400634A899BB243EA4B
:1024B00002224FF6FF3313408A8824F4405443EA43
:1024C00002238A899BB244EA0214CA8944EA0214AC
:1024D000A4B2CA88848085838287038430BD00BF0C
:1024E000002C0140038C30B523F480531B041B0CDB
:1024F0000384038C8488828B0D8822F4E6421204C4
:10250000120C23F4005342EA05221B040D891B0C14
:1025100043EA05334D88A4B243EA05330A4D92B22B
:10252000A8429BB203D005F50065A84205D18D896C
:1025300024F4804444EA8514A4B284808283CA8847
:10254000A0F84020038430BD002C0140038819B15D
:102550009BB243F0010303E023F001031B041B0CB7
:102560000380704783899BB20AB1194301E023EAD3
:10257000010181817047038B23F00C031B041B0CAA
:102580000383038B9BB2194301837047038B23F4AE
:1025900040631B041B0C0383038B9BB243EA0121A2
:1025A00089B201837047838B23F00C031B041B0C3F
:1025B0008383838B9BB2194381837047838B23F47E
:1025C00040631B041B0C8383838B9BB243EA012172
:1025D00089B2818370470000F8B50D460E88044625
:1025E0004988AA882B893EB9FFF7F8FD2046E9887B
:1025F000BDE8F840FFF7BFBF042E07D1FFF722FE6A
:102600002046E988BDE8F840FFF7C0BF082E008CDF
:10261000EE883AD120F480700004000C2084A78B4F
:10262000208CBFB227F0F30747EA0317374BBFB23E
:102630009C4280B242EA070212D003F500639C423A
:102640000ED0B4F1804F0BD0A3F598339C4207D045
:1026500003F580639C4203D003F580639C4207D15D
:1026600020F4007040EA012080B240F4807004E061
:1026700020F4206341F480701843A2833146208403
:102680002046BDE8F840FFF78EBF20F480500004DC
:10269000000C2084A78BB4F820E027F440752D05AA
:1026A0002D0D45EA022242EA0333184A1FFA8EFE34
:1026B00094429BB212D002F5006294420ED0B4F163
:1026C000804F0BD0A2F59832944207D002F5806279
:1026D000944203D002F58062944207D12EF4005058
:1026E00040EA013080B240F4805006E047F6FF52E5
:1026F00041F480500EEA02021043A3833146208445
:102700002046BDE8F840FFF759BF00BF002C01404C
:10271000808E80B27047008F80B27047808F80B209
:102720007047B0F8400080B27047808C80B270472C
:10273000038A828911EA030092B203D0114214BFC6
:10274000012000207047C94389B201827047CA78CE
:10275000F0B5D40648BF8C780D8802F00F0348BF4F
:10276000234315F0FF0F1DD0016800240126A64069
:1027700006EA0507B74211D14FEA840E0F2606FA82
:102780000EF621EA0601282A03FA0EF641EA0601AE
:1027900001D1476102E0482A08BF07610134082CD3
:1027A000E4D10160FF2D1FD94168002404F108071E
:1027B0000126BE4006EA0507B74211D14FEA840E52
:1027C0000F2606FA0EF621EA0601282A03FA0EF66B
:1027D00041EA060101D1476102E0482A08BF0761CA
:1027E0000134082CE2D14160F0BD806880B27047AE
:1027F00001617047416170470AB1016170474161F1
:1028000070470000014B1860704700BFD80042427B
:10281000034A536823F4404318435060704700BF95
:10282000001002401C4A10B5536803F00C03042B3F
:1028300001D0082B01D0194B0EE053685168C3F347
:102840008343CC0303F1020302D55168890301D508
:10285000134900E011494B43036053681149C3F326
:102860000313CC5C0368E34043605468C4F3022460
:102870000C5D23FA04F484605468C4F3C2240C5D34
:10288000E340C3605268C2F381320A44127CB3FB56
:10289000F2F3036110BD00BF0010024000127A0085
:1028A00000093D0070010020044B5A6909B1104332
:1028B00001E022EA00005861704700BF00100240AA
:1028C000044B9A6909B1104301E022EA00009861C3
:1028D000704700BF00100240044BDA6909B1104391
:1028E00001E022EA0000D861704700BF00100240FA
:1028F000044B1A6909B1104301E022EA0000186193
:10290000704700BF00100240436810B523F47022E6
:102910000B6822F4807213430A7943EA022343606E
:102920008A68CB6884681A43084B234013434A796A
:1029300043EA42038360C36A23F470020B7C013BC9
:10294000DBB242EA0353C36210BD00BFFDF7F1FFE3
:10295000836811B143F0010301E023F001038360B8
:102960007047836811B143F4807301E023F48073EE
:1029700083607047836843F0080383607047806812
:10298000C0F3C0007047836843F00403836070475E
:102990008068C0F380007047836811B143F4A003DE
:1029A00001E023F4A00383607047092970B50CD9B6
:1029B000A1F10A04C66804EB44040725A54026EAF1
:1029C0000505A3402B43C36009E0056901EB4106FF
:1029D0000724B44025EA0404B34023430361062AD4
:1029E0000BD8013A446B02EB82021F23934024EA86
:1029F000030391401943416370BD0C2A0BD8073A79
:102A0000046B02EB82021F23934024EA03039140EC
:102A10001943016370BD0D3AC46A02EB82021F23A1
:102A2000934024EA030391401943C16270BDC06C16
:102A300080B2704770B50E460446038ACA889BB2BE
:102A400023F440531343038282890989B38892B2E5
:102A50000B43718922F4B0520B4322F00C02134352
:102A60009BB28381838AB2899BB223F4407386B080
:102A70001343838201A8FFF7D5FE039B049D174AE9
:102A80003168944218BF1D46A38919226A431BB2BC
:102A9000002BB4BF4D008D00B2FBF5F56426B5FBED
:102AA000F6F00001010906FB1153A28912B2002AB7
:102AB000ADBF1A01D90032313232B5BFB1FBF6F2E7
:102AC000B2FBF6F302F0070203F00F03B4BF1043AA
:102AD000184380B2208106B070BD00BF00380140AD
:102AE0000B8810B54C88028A23438C88C98892B21F
:102AF00023430B4322F4706213439BB2038210BD45
:102B00000023038043808380C3807047838919B189
:102B10009BB243F4005303E023F400531B041B0C4B
:102B20008381704710B5C1F34214012301F01F01E6
:102B3000012C03FA01F301D10C3003E0022C0CBF8D
:102B40001030143012B10268134302E0026822EA26
:102B50000303036010BD838A9BB20AB1194301E0ED
:102B600023EA0101818270478088C0F30800704722
:102B7000C94389B201807047012310B5C1F34214E3
:102B800001F01F029C4203FA02F201D1838903E0A3
:102B9000022C0CBF038A838A9BB21340028892B234
:102BA0003BB1090A01238B40134214BF01200020CE
:102BB00010BD184610BD090A01238B40DB439BB2B0
:102BC00003807047034B044A5A6002F188325A600E
:102BD000704700BF0020024023016745024A136985
:102BE00043F080031361704700200240084BDA680D
:102BF000D10709D4DA68520708D4DB6813F0100F44
:102C000014BF032004207047012070470220704742
:102C10000020024010B50446FFF7E8FF012806D166
:102C20001CB1FFF7E3FF013CF8E7052010BD002CC5
:102C300008BF052010BD000038B505464FF4302010
:102C4000FFF7E8FF042812D1094C4FF43020236924
:102C500043F0020323616561236943F0400323616C
:102C6000FFF7D8FF41F6FD7322691340236138BD99
:102C70000020024073B5002306464FF400500D4675
:102C80000193FFF7C7FF04281AD10E4C4FF40050F0
:102C9000236943F001032361ABB23380FFF7BAFF2E
:102CA000042808D102360196019B2D0C1D804FF49B
:102CB0000050FFF7AFFF41F6FE7322691340236116
:102CC00002B070BD0020024070B505464FF40050C0
:102CD0000E46FFF79FFF04280ED1084C4FF400501A
:102CE000236943F0010323612E80FFF793FF41F630
:102CF000FE7322691340236170BD00BF00200240B3
:102D00004FF6FE73026813400360002303604360C4
:102D10008360C360284B984201D1284A27E0284BA2
:102D2000984201D1254A2AE0264B984201D1234AF4
:102D30002DE0254B984201D1204A30E0234B9842A8
:102D400001D11E4A33E0224B984204D11B4A5368FA
:102D500043F470032EE01F4B984204D1174A536886
:102D600043F0706326E01C4B984204D11B4A536821
:102D700043F00F031EE01A4B984204D1174A5368E0
:102D800043F0F00316E0174B984204D1134A5368FE
:102D900043F470630EE0144B984204D10F4A536819
:102DA00043F4704306E0114B984204D10B4A536838
:102DB00043F4702353607047080002400000024053
:102DC0001C00024030000240440002405800024013
:102DD0006C000240800002400804024000040240EF
:102DE0001C040240300402404404024058040240E3
:102DF0008A6810B50C6A036814430A6923F4FF4318
:102E000014434A6923F0700314438A691443CA695E
:102E100014434A6A14438A6A224313430360CB680B
:102E200043600B6883604B68C36010BD19B10368D1
:102E300043F0010303E04FF6FE73026813400360A2
:102E400070470000C3004CBF034B044B1B68034298
:102E500014BF01200020704700040240000002401F
:102E600070B586B00446868801A80D46FFF7DAFCE7
:102E7000039A2E4826F03F06B2FBF0F03604360CDB
:102E800081B20E43A6802388294E23F001031B0440
:102E90001B0C23802B68B3420AD85B00B2FBF3F310
:102EA00001319BB2032B89B298BF0423218423E014
:102EB0004BF6FF71EE888E421BBF19214B4303EB8B
:102EC0004303B2FBF3F30BBFB2FBF3F39BB29BB232
:102ED00043F48043C3F30B020AB943F001034FF4F8
:102EE000967101FB00F24FF47A7192FBF1F201321C
:102EF00092B243F400432284A383238869899BB25E
:102F000043F0010323802388AA8823F4816323F0FC
:102F100002031B040A431B0C13439BB223802A8920
:102F2000AB8913439BB2238106B070BD40420F00B2
:102F3000A086010030B50024E3B293420DD2030F06
:102F4000092B94BF3033373301F81430002501EBDF
:102F5000440300015D700134EEE730BD38B5124B1B
:102F600001241A6859683C2A9DBF95B252185A60CC
:102F70003C3A98BF002288B283BF3C3159601A6046
:102F80001A601C72094B88BF3C2518442A46C02190
:102F9000FEF700F920462946FDF71EFF2046BDE852
:102FA0003840FDF77DBE00BFC4070020A808002000
:102FB00007B508200121FFF783FC2023ADF804307A
:102FC00003238DF806300548142301A98DF8073036
:102FD000FFF7BDFB03B05DF804FB00BF000C014030
:102FE00008B50020FFF70EFCBDE808404FF40000D4
:102FF0000121FFF771BC07B54FF4A060FFF7AEF8F1
:1030000014238DF8043002238DF805308DF8063036
:1030100001A801238DF80730FFF7AAF803B05DF887
:1030200004FB000018B104482021FFF7E1BB02486F
:103030002021FFF7DFBB00BF000C0140094B10B59A
:1030400018685C6808331B6818180AD006490822FB
:10305000FFF770FF2046BDE8104004490422FFF747
:1030600069BF10BDE8F7FF1F1600002026000020F2
:10307000024670B5131A9BB28B420FD2084D094C11
:103080002B8824880133C3F30803A4B29C4205D0E3
:1030900012F8016B044CE6542B80EBE770BD00BFC7
:1030A000AA0C0020A80A0020AA0A0020054B1A7AC0
:1030B000012A05D11A680AB91A727047FFF74EBF84
:1030C000704700BFC40700200C4B1A7A012A14D0A5
:1030D0005A680A49B2F5007F04BF00225A605A6854
:1030E000DB689A4202D100230B7270478CBFC2F595
:1030F00000729A1A0A60FFF731BF7047C4070020B8
:10310000064B10B5D968064C4A1CB2F5007FDA6050
:10311000605404BF0022DA6010BD00BFC407002065
:10312000A8080020013938B5451E4418A54204D02E
:1031300015F8010FFFF7E4FFF8E738BD044B1888D6
:10314000044B80B21B889BB2C01A18BF0120704785
:10315000AA0C0020A80A0020084B094A19881388E5
:1031600089B29BB29942F7D013880133C3F30803A5
:1031700013801388034A9BB2D05C7047AA0C0020CE
:10318000A80A0020AA0A0020044A00231380044A47
:103190001380044A13605360D3607047A80A00206C
:1031A000AA0C0020C40700200449054BCA6802F499
:1031B000E0621343CB60BFF34F8FFEE700ED00E00A
:1031C0000400FA0580FB0023F0B5940F0F4E44EA8B
:1031D000830484FB0667B30F0D4E43EA87031E4446
:1031E00086FB04670B4BB20F42EA8702134483FB52
:1031F0000445094BA20F42EA8502134483FB0023D6
:10320000900F40EA830000F18050F0BD00D1249B74
:1032100080812A5F807EAACBC01BB62810B51049DA
:103220000DF06AFE0F4904460DF06EFF20B12046F6
:103230000D490DF0A3FCF5E720460C490DF046FFC3
:1032400028B1204608490DF09BFC0446F4E74FF0F6
:10325000974120460DF09CFD0DF060FF10BD00BFB2
:103260000000B4430000F0420000C8420000F0C279
:103270000B88584080EA0010C0B21B0A83EA101382
:1032800043EA002383EAC0030B8070470A1E38B567
:1032900021DD00284FEA60034FEA62010DDB591A75
:1032A000CD17AB070244880743EA9101D3170DF00D
:1032B0007BFFBDE83840FFF785BF1944CD17821A60
:1032C000AB07880743EA9101D3170DF06DFFFFF7B5
:1032D00079FF404238BD23D000284FEA60014FEA11
:1032E00062030EDB1944CD17821AAB07880743EA45
:1032F0009101D3170DF058FFFFF764FFC0F1804034
:1033000038BDC91ACD170244AB07880743EA9101BB
:10331000D3170DF049FFFFF755FF00F1404038BDCE
:10332000002801DC03D138BD4FF0804038BD4FF09C
:10333000404038BDB0F1804F2DE9F8436ADAB0F172
:10334000404F6BDD80FB0045A30F43EA8503354CFE
:10335000AA175E4204FB0261A3FB04450D44A10FC2
:10336000314C41EA85010C4404FB02F14FEAE47957
:1033700003FB0911A4FB03450D44A10F2B4C41EAAB
:1033800085010C4404FB02F14FEAE47903FB0911C7
:10339000A4FB03450D44A40F254944EA85042144B8
:1033A000244C04FB0266A3FB04453544A60F224CC3
:1033B00046EA8506344404FB02F6E71703FB07667A
:1033C000A4FB03453544A60F1C4C46EA850634444D
:1033D0006243E71703FB0722A4FB03451544A20F32
:1033E00042EA850202F10052154B994202DC890043
:1033F0009200F9E7CF17BB074410880743EA910111
:10340000D3170DF0D1FE84FB0001800F40EA81004C
:10341000BDE8F8834FF00050BDE8F8834FF06040FE
:10342000BDE8F88352EDEBFE60643B0EC060D4DE75
:1034300060305F14548C43FC4045871D400990C6A2
:1034400013AE470170B506460C468D18AC4205D048
:1034500014F8010B3146FFF70BFFF7E770BD00EBE7
:103460008000430018460138FDD87047402810B549
:10347000044609D8C0EB401004EB8000C00080B2C5
:10348000BDE81040FFF7EBBF013C4FF47A70A4B2E7
:10349000FFF7E5FF002CF7D110BD000070B5044622
:1034A0000E461546FEF75EF92046FEF78DF94BF6FF
:1034B000FF72032363700223E370E3690020A070AE
:1034C0006660A560DA804FF480625A814FF48042D2
:1034D0009A81044A988018811A602046FEF7CEF837
:1034E00080B270BD00350C00084A08B51388084941
:1034F00001339BB21380074A0748136801331360F6
:10350000064AFFF7CBFF002008BD00BF780E002061
:1035100084110020BC1D002020010020301100205B
:10352000064A07481388074901339BB21380064AAD
:10353000136801331360054AFFF7B0BF780E00200F
:103540002001002084110020BC1D0020301100202B
:1035500002480349034AFFF7A1BF00BF2001002032
:103560008411002030110020024A136801331360D7
:10357000704700BFBC1D002013B5014690BB08205A
:103580000121FFF79DF903238DF80630142302ACC7
:103590008DF80730402324F8043D21463148FFF7D9
:1035A000D6F804238DF8073021464FF400632D48E8
:1035B000ADF80430FFF7CBF80A2440210122294856
:1035C000FFF71AF90220FFF74AFF013C2548402186
:1035D0000022FFF711F9A4B20220FFF740FF002CF0
:1035E000EBD13CE001283AD10820FFF769F9032329
:1035F0008DF80630142302AC8DF807304FF4806349
:1036000024F8043D21461748FFF7A1F804238DF85C
:10361000073021464FF400631248ADF80430FFF73D
:1036200096F800244FF4806101220E48FFF7E4F879
:103630000A20FFF714FF0B484FF480610022FFF7C8
:10364000DBF80A20FFF70BFF092C03D80134142CF8
:10365000E8D104E00348FFF7C8F84305F6D502B007
:1036600010BD00BF000C014010B50446064B1B7B8B
:10367000012B06D00120FFF7F2FE013CF6D101201C
:1036800010BD002010BD00BF2001002010B50E4C61
:103690004000A0600D4822606360E160FEF708FB17
:1036A00028B10B4A012013680133136010BDBDF827
:1036B0000830012B06D142F21070FFF7D5FF003021
:1036C00018BF012010BD00BF3011002020010020D4
:1036D000BC1D002010B50E4C4000A0600D482260BB
:1036E0006360E160FEF78EFA28B10B4A012013688F
:1036F0000133136010BDBDF80830012B06D142F232
:103700001070FFF7B1FF003018BF012010BD00BFDF
:103710008411002020010020BC1D002037B5054683
:103720000C461346044A294610780022009222468D
:10373000FFF7ACFF03B030BD661C002037B505466F
:103740000C461346044A294610780122009222466C
:10375000FFF79CFF03B030BD661C002037B505465F
:103760000C461346044A294610780122009222464C
:10377000FFF7B0FF03B030BD661C002008B5012282
:10378000FFF7DCFF20B1034A012013680133136007
:1037900008BD00BFBC1D002073B50C461D46164673
:1037A000B2B10DF10701FFF7E9FF28B10A4A012084
:1037B0001368013313600CE00122A11BB2400131F8
:1037C000013A9DF807308A401A400A412A7000E009
:1037D000104602B070BD00BFBC1D002007B502AB93
:1037E00003F8011D19460122FFF7B8FF20B1044A72
:1037F000012013680133136003B05DF804FB00BFC0
:10380000BC1D0020F7B505460C461E4617460AB9F2
:10381000002025E00DF10701FFF7B0FF28B1114AA4
:1038200001201368013313601AE0E11B012404FA3C
:1038300007F20131013A8A408E409DF80710F6B236
:1038400021EA02013240114328468DF80710FFF7A4
:10385000C5FF0028DCD02046024A136823441360C9
:1038600003B0F0BDBC1D0020034B01221A805A6832
:1038700001325A60FEF748B9D40700200C4B0021F2
:10388000198059600B4B0C4A1B68F020B3FBF2F314
:1038900040F2DC525343094A013B5360084B83F822
:1038A000230007209160106083F82310704700BF49
:1038B000D40700200000002040420F0010E000E08C
:1038C00000ED00E0FDF790BC08B5FFF771FBFFF7D6
:1038D00087FBFDF7F9FBFFF757FCBDE80840FFF752
:1038E0008ABB0000194B10B5198889B28A060FD51A
:1038F000174C18489A88238800880133C3F30803BB
:1039000080B2984292B21FBF1348D2B2C2542380F1
:103910000B0619D5114B124A1988138889B29BB22C
:1039200099420AD013880133DBB2138013880D4A01
:103930009BB2D35C054A938010BD044A938923F05F
:1039400080031B041B0C938110BD00BF004C004082
:10395000EC120020F0120020A0180020841000209B
:10396000EE170020B61A00200B490C4A0B8812886B
:103970000133DBB292B29A421FBF094AD054094ABE
:103980000B801FBF938901209BB243F0800314BFBB
:1039900093810020704700BF84100020EE170020A4
:1039A000B61A0020004C0040044B1888044B80B22B
:1039B0001B889BB2C01A18BF01207047EC12002070
:1039C000F0120020084B094A1988138889B29BB26B
:1039D0009942F7D013880133C3F308031380138887
:1039E000034A9BB2D05C7047EC120020F01200201A
:1039F000A01800201FB5002300900C22084869463B
:103A0000ADF80430ADF80630ADF80830ADF80A2056
:103A1000ADF80C30FFF70EF805B05DF804FB00BF01
:103A2000004C00407FB54FF400200121FEF754FF09
:103A30002C4C11200121FEF743FF4FF48063ADF8B9
:103A4000003003251823204669468DF803308DF891
:103A50000250FEF77CFE4FF400636946ADF800307B
:103A60008DF802504823204D20468DF80330FEF794
:103A70006EFE02A8FFF744F802A92846FFF730F8C7
:103A80004FF4E130FFF7B6FF34238DF80430012600
:103A90000F2301A88DF805308DF806308DF80760EA
:103AA000FEF766FB114B00241C80114B284640F2A8
:103AB00026611C80FFF77FF82846224640F22771D6
:103AC000FFF730F80B4B28461C800B4B224640F288
:103AD00025511C80FFF726F828463146FFF716F8D7
:103AE00004B070BD00100140004C0040EE170020F3
:103AF00084100020F0120020EC12002010B5084CB9
:103B0000FFF790FF204640F22551FFF754F820467A
:103B1000BDE8104040F225510122FFF703B800BF75
:103B2000004C004001226B2007211346FFF76ABEBC
:103B30006B20062101220023FFF764BE0346022109
:103B40006B200322FFF75EBE01461920FFF746BE39
:103B500001461920FFF712BE034602211A20032254
:103B6000FFF750BE034602211A200322FFF714BEBE
:103B7000034604211B200222FFF744BE0346042112
:103B80001B200222FFF708BE034604211C2002224C
:103B9000FFF738BE034604211C200222FFF7FCBDBC
:103BA00037B5002302AC04F8013D0546FFF7D4FF0A
:103BB0004FF47A70FFF753FC2046FFF7D3FF4FF422
:103BC0007A70FFF74CFC9DF80700431B58425841A0
:103BD00003B030BD38B50B4D0621002475200A46D0
:103BE0002B462C70FFF7D8FD38B92B78342B06D034
:103BF000382B14BF2046022038BD204638BD012096
:103C000038BD00BF401300202DE9F04180460F462B
:103C100016461D460A209DF81840FFF720FC404636
:103C2000FFF78CFF3846FFF7A3FF3046FFF794FFFE
:103C30002846FFF7A9FF2046FFF786FFBDE8F041C1
:103C4000FFF776BF73B50C460A2016461D46FFF7F0
:103C500006FC0DF10700FFF791FF9DF807300A20E1
:103C6000A34214BF02240024FFF7F9FB0DF1070063
:103C7000FFF778FF9DF807300A20B3421CBF44F0DD
:103C80000404A4B2FFF7EBFB0DF10700FFF782FF7E
:103C90009DF807300A20AB4218BF44F00804FFF734
:103CA000DEFB0DF10700FFF753FF9DF807209DF89D
:103CB00018309A4218BF44F01004204602B070BD7C
:103CC000F7B50A240A201E4DFFF7C9FB68232B70A5
:103CD000FFF780FF2F4668B90A20FFF7C0FB692372
:103CE0002B70FFF777FF38B9013CA4B2002CE9D163
:103CF0002C7020E0012600E002260A240025022183
:103D00002A462B4603200095FFF77EFF6420FFF72D
:103D1000ADFB0095032002212A462B46FFF792FFB8
:103D200028B1013CA4B2002CE8D13C7003E0054B63
:103D30003446186001E0034B1C60204603B0F0BD20
:103D4000661C0020BC1D002010B5124B1C785A7850
:103D500042EA042202809C78DA7842EA0422428015
:103D60001C795A7942EA042282809C79DA7942EA03
:103D700004220A80197A5A7A42EA0122C280997A88
:103D8000DA7A42EA012202811A7B5B7B43EA022350
:103D9000438110BD4013002008B5074B00221A8054
:103DA0003B2006490E22FFF7B9FC18B1BDE80840D8
:103DB000FFF7DABB08BD00BF780E002040130020DB
:103DC0002DE9F047254B264D01281CBFA8461D466E
:103DD0001446244A08BF98468946234F18BF174601
:103DE000FEF7F0FE2846FEF727FF042882462FD173
:103DF000B9F1000F08BF4FF4FD64013405F110065E
:103E000024F001043444A64219D0B9F1000F04D1C2
:103E1000C5EB0803995B89B203E0731B4B4433F88D
:103E2000101C4FF6FF73994207D0BE420ED23046A7
:103E3000FEF74AFF042882460AD10236E3E7284605
:103E40004FF01131FEF716FF824601E04FF0800A75
:103E5000FEF7C4FE5046BDE8F08700BF00D007085B
:103E600000D80708FFD70708FFDF070810B5FEF7DF
:103E7000A9FE0748FEF7E0FE0428044603D10548E2
:103E8000FEF7DAFE0446FEF7A9FE204610BD00BF8D
:103E900000D0070800D807080131C1F34F01002303
:103EA0009AB28A420AD2B3F57E7F09D0054A1A44F3
:103EB0005200128820F813200133F1E704207047E4
:103EC0008020704708E8030438B505460C460020FA
:103ED00029462246FFF774FFC0B2042801D080B201
:103EE00038BD294622460120FFF76AFFC0B238BD1F
:103EF00038B5154B1D68D3F80048B5F1113F06D110
:103F0000B4F1113F01D104201CE0621C03E06B1CE2
:103F10000BD1B4F1113F08D1002101200A46FFF76F
:103F20004FFFC0B204280DD1EDE7FFF79FFFC0B2ED
:103F3000042807D1013504D1013414BF40202020CA
:103F400000E0402080B238BD00D00708F8B5504DE1
:103F5000022128462C8CFEF7EBFB0128A4B22CD1C1
:103F60004C4E28460221FEF7EEFB3368DA050ED5EB
:103F7000494A28461388013303F01F03138016882B
:103F8000FEF7C6FB454BB6B223F8160015E014F059
:103F9000020F434F0BD02846FEF7BAFB78803368F8
:103FA00024F0020443F00403A4B2336005E0284681
:103FB000FEF7AEFB44F002043880354D042128465C
:103FC000FEF7B6FB01283ED1324E28460421FEF70B
:103FD000BAFB33689B0520D53248334AC36813F4D3
:103FE000007F09D013882A8F4FF4007113449BB2CD
:103FF0002B87FEF7FFFB26E02C490B882E8F3344DE
:104000009BB22B872A4B1B8809885B1A9BB24FF403
:1040100000711380FEF7ECFB15E014F0200F254F24
:104020000BD02846FEF777FB7880336824F0200415
:1040300043F00203A4B2336005E02846FEF76BFBB1
:1040400044F02004388012480821FEF771FB012853
:104050001AD10F480821FEF776FB14F4007F164DA5
:104060000CD00B48FEF75AFB0A4A6880136824F408
:10407000007443F00103A4B2136005E00448FEF7A6
:104080004DFB44F400742880014B1C84F8BD00BF34
:10409000002C014060130020F417002002100020C3
:1040A000C812002000080140EC170020740F002007
:1040B000E41B0020F60C0020B61D002070B5454D15
:1040C000022128462C8CFEF733FB0128A4B21AD11A
:1040D00028460221FEF737FB14F0020F3E4E0CD0AB
:1040E0002846FEF715FB3D4A7080136824F0020451
:1040F00043F00803A4B2136005E02846FEF708FB6E
:1041000044F00204308033480421FEF711FB0128FB
:104110001AD130480421FEF716FB14F0200F304D61
:104120000CD02C48FEF7F7FA2C4A6880136824F06C
:10413000200443F01003A4B2136005E02548FEF705
:10414000EAFA44F02004288022480821FEF7F0FA19
:1041500001281AD11F480821FEF7F5FA14F4007F50
:10416000204D0CD01B48FEF7D9FA1C4A6880136812
:1041700024F4007443F02003A4B2136005E0154852
:10418000FEF7CCFA44F40074288012481021FEF7A0
:10419000CFFA01281AD10F481021FEF7D4FA14F4EF
:1041A000005F114D0CD00B48FEF7BBFA0B4A68803C
:1041B000136824F4005443F04003A4B2136005E0F4
:1041C0000448FEF7AEFA44F400542880014B1C84E6
:1041D00070BD00BF00340140780F00206013002044
:1041E000F01700203C120020C817002010B5062848
:1041F00000F2DA80DFE810F00700250043006100DC
:104200007F009D00BB00694C082120460022FEF77C
:10421000A9F972B6238C664A23F400731B041B0CA5
:104220002384136823F00103136062B6614B1A689C
:1042300022F007021A6064229A8040F2DC525A820D
:1042400010BD5A4C042120460022FEF78BF972B6AD
:10425000238C574A23F020031B041B0C2384136870
:1042600023F00203136062B6524B1A6822F0380240
:104270001A606422DA8040F2DC529A8210BD4B4C04
:10428000022120460022FEF76DF972B6238C484ABF
:1042900023F002031B041B0C2384136823F0040384
:1042A000136062B6434B1A6822F4E0721A6064220B
:1042B0001A8140F2DC52DA8210BD3F4C02212046C6
:1042C0000022FEF74FF972B6238C394A23F002031D
:1042D0001B041B0C2384136823F00803136062B6CD
:1042E000344B1A6822F460621A6064225A8140F2E8
:1042F000DC521A8310BD304C042120460022FEF708
:1043000031F972B6238C2A4A23F020031B041B0CBC
:104310002384136823F01003136062B6254B1A68D8
:1043200022F4E0421A6064229A8140F2DC525A83FD
:1043300010BD214C082120460022FEF713F972B669
:10434000238C1B4A23F400731B041B0C2384136867
:1043500023F02003136062B6164B1A6822F4603211
:104360001A606422DA8140F2DC529A8310BD124C4A
:10437000102120460022FEF7F5F872B6238C0C4A75
:1043800023F400531B041B0C2384136823F0400305
:10439000136062B6074B1A6822F4E0121A606422B6
:1043A0001A8240F2DC52DA8310BD00BF002C0140BB
:1043B00060130020CC1700200034014010B5174CCA
:1043C000022120460022FEF7CDF872B6238C144A53
:1043D0009BB243F002032384136823F480731360B9
:1043E00062B6104A002313800F4A002122F81310EE
:1043F0000133202BF8D10D4A136823F0306313608A
:104400000B4B64225A801A461A3322F8021B40F2E0
:10441000DC5122F8021F9A42F9D110BD002C014054
:1044200060130020F417002002100020CC17002099
:10443000F61700201FB5214C042120460022FEF76C
:1044400091F872B61E4A136823F40073136062B6C3
:1044500040F2DC5344F620611A4A13801A4B19804B
:104460001B8810881B1A9BB21380184A184B1948D6
:104470001980136804A923F08053136028238DF852
:10448000033003238DF802304FF4007321F8103D00
:10449000FEF75DF90023ADF80630ADF80A300F23C2
:1044A000ADF80C3004A90423012221F80C3D20466C
:1044B000ADF80820FEF790F804B010BD002C0140C4
:1044C00060130020740F0020E41B0020CC17002094
:1044D000801100200008014010B50C46062800F2AB
:1044E000AC80DFE800F0041C344A61788F000129B9
:1044F00004D1524B1B68D90700F19F800020FFF7C1
:1045000075FE012C40F099804C4A4D4813680821F3
:1045100043F001031360FEF716F9494870E00129E2
:1045200004D1464B1B681A0700F187800120FFF772
:104530005DFE012C40F08180404A4148136804210F
:1045400043F008031360FEF7FEF83D4841E00129FF
:1045500003D13A4B1B685B066FD40220FFF746FE7F
:10456000012C6AD1354A36481368022143F04003D2
:104570001360FEF7E8F8324814E0012903D12F4B0D
:104580001B68980559D40320FFF730FE012C54D145
:104590002A4A2C481368022143F400731360FEF783
:1045A000D2F82848022143E0012903D1234B1B689C
:1045B000D90442D40420FFF719FE012C3DD11F4A33
:1045C00020481368042143F480531360FEF7BBF8BE
:1045D0001C4804212CE0012903D1184B1B681A0444
:1045E0002BD40520FFF702FE012C26D1134A1548D3
:1045F0001368082143F400431360FEF7A4F8114840
:10460000082115E0012903D10C4B1B685B0314D46E
:104610000620FFF7EBFD012C0FD1084A094813686B
:10462000102143F480231360FEF78DF80548102114
:104630002246BDE81040FDF795BF10BDCC17002005
:10464000002C014000340140012938B505460C46D4
:1046500007D1134B1B88834203D1124B1B68DB012C
:104660001DD4FFF7ABFE012C19D1C5B10D4A0C4B7F
:104670001D80136843F08073136072B60A4A136892
:1046800043F48073136062B608480221FEF75BF8BA
:104690002246BDE8384005480221FDF763BF38BD1A
:1046A000F6170020CC17002060130020002C0140DA
:1046B00030B5012987B005460C4607D12F4B1B8822
:1046C000834203D12E4B1B68DB0054D4FFF7B2FEAC
:1046D000012C50D1294B2B4A1D8040F2DC53138012
:1046E000294B06A91D801B8812884FF400759B1A60
:1046F000264A9BB2138010238DF8073021F8145DF1
:10470000032323488DF80630FEF721F829460022BE
:104710001F48FEF771F83023ADF808301D4800231C
:10472000ADF81430ADF81630ADF81030ADF81230E9
:10473000ADF80A30ADF80C30FDF7F7FF00F51C506E
:104740001030ADF80E0002A91248FDF745FE0C4AE4
:10475000136843F08053136072B60F4A13682B43FB
:10476000136062B60B480421FDF7EDFF09480421F0
:104770002246FDF7F7FE07B030BD00BF80110020D4
:10478000CC170020740F0020E41B0020EC17002041
:1047900000080140002C014060130020624B1A68A1
:1047A000D10717D51A68614922F001021A600888FA
:1047B0004A88121A40F2EA4092B2A2F27B3189B2E0
:1047C000814207D85A494A8264228A800A6842F0A4
:1047D00004020A601A685449920717D50A6822F041
:1047E00002020A60534908884A88121A40F2EA40D5
:1047F00092B2A2F27B3189B2814207D84C498A82B7
:104800006422CA800A6842F020020A601A68464997
:10481000500717D50A6822F004020A604649088842
:104820004A88121A40F2EA4092B2A2F27B3189B26F
:10483000814207D83E49CA8264220A810A6842F44A
:1048400080720A601A683849120717D50A6822F080
:1048500008020A60394908884A88121A40F2EA4078
:1048600092B2A2F27B3189B2814207D830490A83E1
:1048700064224A810A6842F400620A601A682A497E
:10488000D00617D50A6822F010020A602C49088861
:104890004A88121A40F2EA4092B2A2F27B3189B2FF
:1048A000814207D822494A8364228A810A6842F4F5
:1048B00080420A601A681C49920617D50A6822F0DD
:1048C00020020A601F4908884A88121A40F2EA400A
:1048D00092B2A2F27B3189B2814207D814498A830D
:1048E0006422CA810A6842F400320A601B680E4AD8
:1048F0005B0617D5136823F040031360124A118832
:1049000053885B1A40F2EA419BB2A3F27B3292B227
:104910008A4207D8064AD38364231382136843F478
:1049200080131360704700BF60130020B61D002085
:10493000CC170020F60C0020C8120020780F0020B1
:10494000F01700203C120020C81700202DE9F0418C
:10495000364C86B02568EB0165D5354E30880C287D
:1049600061D872B6334B344A1B88928C9BB292B298
:1049700062B6324F37F81310521A40F6853192B2B0
:104980008A4250D92E4A118999424CD0138137F866
:1049900013204FF0000E92B21FFA8EF1814216D210
:1049A00040F2EC48013B03F01F0337F813C01FFA35
:1049B0008CFCCCEB020189B22DF81E10A1F27A31E9
:1049C00089B241450EF1010E03D86246E4E70121A8
:1049D00000E00021013B03F01F0337F81330D21A27
:1049E00040F66D7392B29A421DD9164B434303F5BC
:1049F000C34328339A4216DCA9B113494700002368
:104A00009AB282420AD2A7EB43020DF1180E724409
:104A100032F81A2C013321F8022FF1E7642345F014
:104A200000657380256006B0BDE8F081CC170020DA
:104A3000F6170020F4170020002C0140021000207F
:104A4000D407002086FCFFFFF8170020044B1B68EA
:104A5000DB0003D572B6034B188062B6704700BF07
:104A6000CC170020740F0020854B10B59A8812B324
:104A70001868013A92B220F00201012A196001D9A6
:104A80009A8018E000229A80C20744BF41F00201D8
:104A900019601A6822F004021A6072B679490A682D
:104AA00022F001020A6078490A8C22F40072120492
:104AB000120C0A8462B6DA88714912B30C68013AA2
:104AC00092B224F01000012A086001D9CA8018E0CF
:104AD000240744BF40F0100008600022CA801A6812
:104AE00022F020021A6072B666490A6822F00202B9
:104AF0000A6065490A8C22F020021204120C0A8412
:104B000062B61A895E4912B30C68013A92B224F077
:104B10008000012A086001D90A8118E000220A8178
:104B2000620644BF40F0800008601A6822F4807278
:104B30001A6072B653490A6822F004020A605249A8
:104B40000A8C22F002021204120C0A8462B65A89FC
:104B50004B4912B30C68013A92B224F48060012AE6
:104B6000086001D94A8118E0A40544BF40F4806080
:104B7000086000224A811A6822F400621A6072B644
:104B800040490A6822F008020A6040490A8C22F073
:104B900002021204120C0A8462B69A89384912B3CE
:104BA0000C68013A92B224F40050012A086001D93D
:104BB0008A8118E000228A81E20444BF40F4005058
:104BC00008601A6822F480421A6072B62D490A6899
:104BD00022F010020A602D490A8C22F020021204F1
:104BE000120C0A8462B6DA89254912B30C68013ABC
:104BF00092B224F48030012A086001D9CA8118E0F9
:104C0000240444BF40F4803008600022CA811A683E
:104C100022F400321A6072B61A490A6822F02002A1
:104C20000A601A490A8C22F400721204120C0A84D7
:104C300062B61A8A124912B30C68013A92B224F48D
:104C40000020012A086001D90A8210BD00220A82D0
:104C5000620344BF40F4002008601A6822F4801206
:104C60001A6072B6074A136823F040031360074ABC
:104C7000138C23F400531B041B0C138462B610BD69
:104C8000CC17002060130020002C014000340140AC
:104C90000D4810B54288AAB10C4B013A1C6892B27B
:104CA00024F00071012A196001D9428010BD002250
:104CB0004280E20144BF41F0007119601A6822F09D
:104CC00000621A6010BD00BFF6170020CC1700204C
:104CD000062828D8DFE800F004090E13181D22006A
:104CE000124B1868C0F340007047104B1868C0F3AF
:104CF000001070470D4B1868C0F3C01070470B4B85
:104D00001868C0F380207047084B1868C0F3403023
:104D10007047064B588800F001007047034B186835
:104D2000C0F3C04070470020704700BFCC17002080
:104D3000024B1868C0F34060704700BFCC170020DA
:104D4000062828D8DFE800F004090E13181D2200F9
:104D5000124B1868C0F380007047104B1868C0F3FE
:104D6000401070470D4B1868C0F3002070470B4B84
:104D70001868C0F3C0207047084B1868C0F3803033
:104D80007047064B1868C0F340407047034B1868E3
:104D9000C0F3005070470020704700BFCC170020C0
:104DA000024B1868C0F3C060704700BFCC170020EA
:104DB0002DE9F04F8DB00CAE40F6040001214FF408
:104DC000807BFDF77DFD26F820BD00244FF0280CE8
:104DD00003220CAD01274FF00F08754831468DF8BE
:104DE00013C0CDF80CC08DF812200292ADF8264009
:104DF000ADF82870ADF82A40ADF82C80FDF7A7FC7F
:104E000025F80C4D6B482946FDF7E6FB4FF400737F
:104E100067483146ADF81030FDF799FC042365482A
:104E20002946ADF824300193FDF7D6FB4FF480619D
:104E3000ADF810105E483146FDF789FC4FF00803CD
:104E40005C482946ADF82430FDF7C6FB4FF0FF3330
:104E5000DFF87CA1ADF81C30DAF80010564B0DF1EC
:104E60003009B1FBF3F1013929F8181D51484946C1
:104E7000ADF81E40ADF81A40FDF720FA4D4839460E
:104E8000FDF764FB1B2105A88DF814108DF8158023
:104E90008DF816408DF81770FDF76AF942F2100090
:104EA0003946FDF70DFD029ADDF80CC08DF8122091
:104EB0004248402231468DF813C0ADF81020ADF8BD
:104EC0002640ADF82870ADF82A40ADF82C80FDF7EB
:104ED0003EFC3B482946ADF82440FDF77DFB80228F
:104EE00036483146ADF81020FDF731FC019B3448BF
:104EF0002946ADF82430FDF76FFB30483146ADF858
:104F000010B0FDF724FC4FF008032D482946ADF8FA
:104F10002430FDF761FB4FF4007328483146ADF8AB
:104F20001030FDF714FC0C2325482946ADF8243039
:104F3000FDF752FB4FF0FF331F4AADF81C30DAF893
:104F400000301F48B3FBF2F34946013BADF818307F
:104F5000ADF81E40ADF81A40FDF7B0F939461848D3
:104F6000FDF7F4FA2E2305A88DF814308DF815807E
:104F70008DF816408DF81770FDF7FAF8114A1249AE
:104F800013460C6043F8104B1E3240F2DC5123F8FC
:104F9000021F9342F9D10D4B03F1180240F2DC518C
:104FA00023F8021F9342F9D10DB0BDE8F08F00BF86
:104FB00000080140002C014040420F000010014059
:104FC00000340140CC17002060130020F8170020A7
:104FD0000000002010B50C4840F22551FDF7CCFD33
:104FE00004460948FDF7C0FD64B10849084A0B882A
:104FF0001288013303F03F0392B29A421EBF054A62
:105000000B80D05410BD00BF00380140B41D0020FB
:105010000C0D002012180020044B1888044B80B29D
:105020001B889BB2C01A18BF01207047B41D002016
:105030000C0D0020084B094A1988138889B29BB2CD
:105040009942F7D01388013303F03F03138013888C
:10505000034A9BB2D05C7047B41D00200C0D0020A9
:10506000121800201FB5002300900C220848694642
:10507000ADF80430ADF80630ADF80830ADF80A20D0
:10508000ADF80C30FDF7D6FC05B05DF804FB00BFB1
:105090000038014030B544F2050085B00121FDF72C
:1050A0000FFC4FF48063ADF8003048231C4C694678
:1050B0008DF803301B4803238DF80230FDF747FBC2
:1050C00002A8FDF71DFD02A92046FDF709FD4FF4DA
:1050D000E130FFF7C7FF25238DF8043001250F23AA
:1050E00001A88DF805308DF806308DF80750FDF7D2
:1050F0003FF8204640F227710022FDF713FD0A4BCE
:1051000000221A80094B204640F225511A80FDF7F3
:1051100009FD20462946FDF7F9FC05B030BD00BF6A
:1051200000380140000801400C0D0020B41D002093
:1051300008B5124840F225510022FDF7F3FC104853
:1051400000221021FDF758FB0E4B00221A809A8591
:1051500003F16D0003F12D02002102F8011F8242CC
:10516000FAD164229A845984074B03F1200240F259
:10517000DC5123F8021B9342F9D108BD00380140ED
:1051800000100140981C00209A1C002070B5BD4CF6
:105190002388DA0740F1758172B6BB4B5D6862B651
:1051A000FFF73AFF90B1FFF737FF68B1A68DFFF721
:1051B00041FFA38D26443E2B9CBFB24A013386F8A3
:1051C0002E0098BF9385EEE7A56270BDA36AED1A25
:1051D000022D40F25681638C43BBA38D102B40F00F
:1051E000D880A31C04F1220240F2DC5123F8021BF8
:1051F0009342F9D10021621892F8303092F83120B0
:10520000C3F3830502F2E63203F00303023104EB39
:10521000450502EB03230E299A486B80EBD16423EA
:105220008384038843F004030380B2E0012B1FD181
:10523000A38D102B40F0AD80221892F8303092F8F8
:105240003120C3F3C30503F0070302EB03235B1014
:10525000023004EB450503F2E6330E2889496B80E2
:10526000EAD164238B840B8843F004030B8090E025
:10527000022B40F08E80E36A844A23F07F439342FE
:1052800040F0878094F84630002B40F0828094F8FC
:1052900045301B070FD5A31C04F1220240F2DC515C
:1052A00023F8021B9342F9D16423A384238843F09B
:1052B000040323806DE094F8303094F82F2003F03D
:1052C000070342EA03236380238E94F83320C3F359
:1052D000CA03A380236B04F12201C3F38A33E38062
:1052E00094F8343003F00F03DB0143EA52032381C7
:1052F000A38E94F83720C3F30A136381636BC3F35F
:10530000CA33A38194F8383003F01F039B0143EAAA
:105310009203E381238F94F83B20C3F34A13238243
:10532000638FC3F30A03638294F83C3003F03F03B6
:105330005B0143EAD203A382E36B94F83F20C3F3FB
:105340008A13E382E38FC3F34A03238394F8403044
:1053500003F07F031B0143EA12136383236CC3F33F
:10536000CA13A383B4F8423094F84320C3F38A03EA
:10537000E38394F84430DB0043EA52132384A21CF5
:1053800013885B0803F5777322F8023B8A42F7D152
:105390008AE7628C3B4B032A2CD1998DA1F109023B
:1053A0001C2A6CD893F82E20A82A68D193F82F20B5
:1053B00002F07F02012A62D193F8300042000532E8
:1053C0008A425CD19A1C1146223340F2DC5521F806
:1053D000025B9942F9D10021CBB2834249D292F8C3
:1053E0002F5092F83030013103EB0523DB1022F807
:1053F000023BF1E7042A42D1DA6A254922F07F42D2
:105400008A421AD1991C0A46223340F2DC5022F813
:10541000020B9A42F9D11F4891F82D2091F82E30B5
:1054200003EB02234FF4AF6253431B0B03F54873A6
:1054300021F8023B8142EFD11BE017498A421ED17D
:10544000981C0246223340F2DC5122F8021B9A4299
:10545000F9D190F82D1090F82E2002EB01224FF494
:10546000AF614A43120B02F5487220F8022B9842B2
:10547000EFD16423A384238843F004032380002313
:10548000A38570BD981C0020D407002019000F00D0
:105490001B00A100B21C00202300A2000D4910B582
:1054A0008B8CABB10C88013B24F002029BB292B210
:1054B000012B0A8001D98B8410BD00238B84E30764
:1054C00044BF42F002020A800B8823F004030B80E1
:1054D00010BD00BF981C0020012970B505460E467E
:1054E00038D13D4C2388DB0734D5042826D8DFE8A3
:1054F00000F0030D0F181A0000254FF4E130658409
:10550000FFF7B0FD354810212A4615E001230BE0D6
:10551000022333486384FFF7A5FD304810210122A0
:105520000AE0032300E004234FF4E1306384FFF733
:1055300099FD2A4810210022FDF75EF901232380FE
:10554000284B03F1200240F2DC5123F8021B934266
:10555000F9D170BDFFF7ECFD012E3BD1042D39D8F8
:10556000DFE805F0030E101A1C001B4B00244FF45B
:10557000E1305C84FFF776FD18481021224617E0E1
:1055800001220CE0144B022215485A84FFF76AFDF1
:105590001248102101220BE0032200E004220E4BEE
:1055A0004FF4E1305A84FFF75DFD0C4810210022D2
:1055B000FDF722F9084B01240B4840F225511C80CD
:1055C000FDF7F9FA2246BDE87040074840F2255140
:1055D000FDF7A8BA70BD00BF981C00200010014064
:1055E000A08601009A1C002000380140124B0146A1
:1055F0001B88013B092B1ED8DFE803F005070B0DC4
:105600000F1113151719062000E00720C9B2FFF784
:105610001BB80820FAE70A20F8E70C20F6E700207C
:1056200006E0012004E0022002E0032000E0042064
:10563000C9B2FFF751BF704740120020024B1888D3
:10564000C0F34000704700BF981C0020024B188830
:10565000C0F38000704700BF981C002013B51020D5
:105660000121FDF72DF910240323114801A98DF81C
:105670000630ADF804408DF80740FDF768F8214684
:1056800000220B48FDF7B8F8FFF704FDFFF750FDC7
:10569000084B00211A46998422F8021B223340F25B
:1056A000DC5122F8021B9A42F9D102B010BD00BFB2
:1056B00000100140981C002010B50B4904460BF067
:1056C00005FD20B1204609490BF05AFAF5E72046BE
:1056D00007490BF00FFD28B1204604490BF04EFAA4
:1056E0000446F4E7204610BD000034C30000B44374
:1056F00000003443024B188BC0F30010704700BF0A
:10570000D01F0020044B1B8B03F0100080B208B1A7
:1057100003F00700704700BFD01F002038B50B4DC5
:10572000002420460BF0E0FA09490BF031FB09F0A8
:1057300081FE08490BF02CFB0BF0F0FC0134B4F5B2
:105740007C7F45F8040FECD138BD00BFF81F002066
:10575000DE40CC3B00803848FA2828BFFA20FA29DE
:10576000044B28BFFA21FA2A28BFFA221884598448
:105770009A847047D01F0020044B1A8B10B142F05E
:10578000100201E022F010021A837047D01F00209F
:1057900000234FF080421384A2F82034A2F820386E
:1057A000024A138B23F0070313837047D01F002096
:1057B000754810B5018B21F0070201F0100192B27B
:1057C00089B20283002900F0D380C38C3BB9418B9E
:1057D000022900F2B28042F001020283A9E0013BFB
:1057E000042B00F29F80DFE803F0031E385375009E
:1057F000438B818B022B9BBF634B42F00102002342
:105800001A838EBF1A4601234FF4885202295E4C38
:1058100000F2A180218B43F4885341F0020143F050
:105820001003218397E0438B574C022B9EBF564BAE
:1058300042F001021A83838B8DBF00214FF48851FF
:1058400010220A46022B97BF238B002343F002034A
:10585000238398BF41F2101333E0438B4A4C022B51
:105860009EBF494B42F001021A83838B8DBF0021FA
:1058700010224FF488510A46022B9FBF238B42F41B
:10588000885243F0020323838CBF002301233CE0B2
:10589000438B3D49022B9EBF3B4B42F001021A83D2
:1058A000828B94BF41F210130023022A87BF00218C
:1058B0000A460A8B42F002029EBF0A834FF48851C7
:1058C0001022C08B304C022856D843F0010342F41A
:1058D000885222E0438B818B022B9ABF2A4B42F0E5
:1058E00001020023284C97BF1A831A464FF48852AE
:1058F000012302299FBF218B42F0100241F00201D7
:1059000021838CBF00214FF48851C08B1E4C02288C
:1059100032D843F4885343F01003208B40F0040046
:10592000208329E0438B022B06D8174B42F001025B
:105930001A8341F2101300E00023828B1249022ADD
:105940009FBF0A8B43F0010342F002020A838CBF1F
:1059500000224FF48852C18B0B4C02290BD8218BAB
:1059600042F0100241F0040121834FF4885103E01A
:105970000B460A4600E000214FF080400284034AB3
:105980001384034B198410BDD01F00200004004075
:10599000000800400346008859889A88FFF7DCBE5B
:1059A00010B5041C18BF0124FFF7A4FEA04206D0C6
:1059B0002046FFF7E1FEBDE81040FFF7F9BE10BD3D
:1059C00070B50D4B05885A8B4488AA4280881A46C8
:1059D00008D19E8BA64205D1DE8B864202D1DB8C9C
:1059E0008B4207D055839483D083BDE87040D18427
:1059F000FFF7DEBE70BD00BFD01F002038B50446E3
:105A00002568002128460BF061FB28B1284609498A
:105A10000BF0B6F82060F3E72568064928460BF03E
:105A200069FB28B1284603490BF0A8F82060F3E78A
:105A300038BD00BF00007C440368002B03DA03F587
:105A40007C730360F8E70368B3F57C7F03DBA3F5A1
:105A50007C730360F7E770474F4B70B5B0F57C7F00
:105A6000188024BFA0F57C7080B203EB80041E8CEC
:105A7000E46A59807443240C04F54074DC8000F51A
:105A8000A874A4B2B4F57C7F24BFA0F5287084B2BA
:105A900003EB8400C56A9A8075432D0C05F54075AB
:105AA0009D8104F5A875ADB2B5F57C7F24BFA4F542
:105AB0002874A5B203EB8504E06AB1F57C7F00FB96
:105AC00006F028BFA1F57C714FEA104028BF89B2CB
:105AD00000F54070588203EB81005D8CC06A68431A
