:020000040800F2
:10000000B8160020C1040008BD040008BD040008A3
:10001000BD040008BD040008BD0400080000000085
:10002000000000000000000000000000BD04000807
:10003000BD04000800000000BD0400081908000805
:10004000BD040008BD040008BD040008BD0400088C
:10005000BD040008BD040008BD040008BD0400087C
:10006000BD040008BD040008BD040008BD0400086C
:10007000BD040008BD040008BD040008BD0400085C
:10008000BD040008BD040008BD040008BD0400084C
:10009000BD040008BD040008BD040008BD0400083C
:1000A000BD040008BD040008BD040008BD0400082C
:1000B000BD040008BD040008BD040008BD0400081C
:1000C000BD040008BD040008BD040008BD0400080C
:1000D000BD04000875060008BD040008BD04000842
:1000E000BD040008BD040008BD04000800000000B5
:1000F0000000000000000000000000000000000000
:1001000000000000000000005FF808F1224A0388A8
:1001100090429BB212D002F5006290420ED0B0F134
:10012000804F0BD0A2F59832904207D002F5806242
:10013000904203D002F58062904203D14A8823F0B6
:1001400070031343154A904208D002F58062904232
:1001500004D023F44073CA889BB2134303808B8876
:100160000A8883850C4B028598420FD003F5006204
:1001700090420BD002F54063984207D003F58062AD
:10018000904203D002F58063984201D1097A01863A
:1001900001228282704700BF002C01400010004005
:1001A000038C70B523F001021404250C0584068C21
:1001B0008388028B9CB222F073052B040D881A0CE5
:1001C00026F0020633042A434E880D891B0C354362
:1001D000ADB22B43134DA8420FD005F50065A842E0
:1001E0000BD005F54065A84207D005F58065A8420B
:1001F00003D005F58065A8420ED123F008064B898F
:100200008D881E4326F004032B43CE898D8924F468
:1002100040743543ADB22C43C98884800283818603
:10022000038470BD002C0140038C30B523F0100214
:100230001404250C0584038C8288048B23F020038E
:1002400024F4E6452C040D88240C44EA05241D04FE
:100250002B0C0D8992B243EA05134D88A4B243EAF0
:100260000513124D9BB2A84203D005F50065A842C4
:1002700015D14D8923F080039BB243EA05134FF655
:10028000BF751D408B8822F4406245EA0315ABB26E
:100290008D8942EA8502CD8942EA850292B2C988F7
:1002A000828004830187038430BD00BF002C01409D
:1002B000038C30B523F480721404250C0584038C60
:1002C0008288848B23F4007324F073052C040D883A
:1002D000240C2C431D042B0C0D8992B243EA0523F8
:1002E0004D8843EA0523124D9BB2A84203D005F581
:1002F0000065A84215D14D8923F400639BB243EAFF
:1003000005234FF6FF351D408B8822F4405245EA05
:100310000325ABB28D8942EA0512CD8942EA051266
:1003200092B2C988828084838187038430BD00BFF4
:10033000002C0140038C30B523F480521404250CAA
:100340000584038C8288858B94B225F4E6421504DB
:100350002A0C0D8823F4005342EA05221D042B0CBD
:100360000D8992B243EA05334D8843EA05330A4DBD
:100370009BB2A84203D005F50065A84205D18D893E
:1003800024F4804444EA8514A4B2C988848082831A
:10039000A0F84010038430BD002C0140038819B13F
:1003A00099B241F0010303E023F001010A04130CA8
:1003B0000380704780F30888704780F31088704787
:1003C0003A4B82B01A6842F0010018605968384A06
:1003D0000A405A60186820F0847121F480321A6053
:1003E000186820F4802119605A684FF41F0122F424
:1003F000FE0000225860996000920192186840F453
:1004000080311960294B1A6802F40030019000997C
:100410004A1C0092019818B90099B1F5A06FF1D16A
:100420001B6813F4003218BF0122019201980128C1
:1004300005D0204B4FF000629A6002B070471E4911
:100440000B6843F010020A60086820F003030B6099
:100450000A68A1F5805342F00200086059685960AB
:100460005A685A60586840F4806159605A6822F4AA
:100470007C105860596841F4E8125A60186840F0DE
:10048000807119601868094A8101FBD5536823F00F
:1004900003015160506840F002035360034A516801
:1004A00001F00C000828F9D1C3E700BF001002409A
:1004B0000000FFF800ED00E000200240FEE7000031
:1004C00008B500230C4A0D499818884204D20C48FC
:1004D000195899500433F5E70A480B494FF00002C8
:1004E0008842B8BF40F8042BFFF6FAAFFFF768FF69
:1004F000BDE8084000F070BE000000202C00002085
:100500006C3400082C000020B812002008B5234BE2
:10051000984205D10420012100F0C4FF042036E0F8
:100520001F49884205D10820012100F0BBFF0820A7
:100530002DE01C4A904205D11020012100F0B2FFAD
:10054000102024E0184B984205D12020012100F012
:10055000A9FF20201BE01549884205D14020012138
:1005600000F0A0FF402012E0114A904205D1802007
:10057000012100F097FF802009E00E4B98420BD13B
:100580004FF48070012100F08DFF4FF48070002146
:10059000BDE8084000F086BF08BD00BF000801406C
:1005A000000C0140001001400014014000180140FF
:1005B000001C014000200140CB78F0B5DA0648BFAE
:1005C0008A78098803F00F0548BF154311F0FF0F23
:1005D0001ED004680022012707FA02F707EA010685
:1005E000BE4211D197004FF00F0C0CFA07FC05FA30
:1005F00007F724EA0C04282B44EA070401D14661DA
:1006000002E0482B08BF06610132082AE3D10460EA
:10061000FF2920D94468002202F10806012707FAC1
:1006200006F707EA0106BE4211D197004FF00F0C02
:100630000CFA07FC05FA07F724EA0C04282B44EA15
:10064000070401D1466102E0482B08BF0661013270
:10065000082AE1D14460F0BD806880B270470AB1D9
:1006600001617047416170470A23434318460138CE
:10067000FDD870470B4B1A8802F0200081B279B187
:10068000094A9B881188D8B2CB0503F50001CB0D30
:100690000649098889B2994202D00549C854138095
:1006A000704700BF003801409A0000209C000020E5
:1006B000C000002008B50348402100F0EBFF0028EF
:1006C000F9D008BD00380140044B054A188813884A
:1006D00081B298B2081A18BF012070479A00002012
:1006E0009C000020094B1988094B88B21A8891B2E6
:1006F0008842F7D01888C20502F50001C80D18809D
:100700001B88044A99B2505C704700BF9A000020D1
:100710009C000020C00000201FB5002300900C2288
:1007200007486946ADF80430ADF80630ADF808303A
:10073000ADF80A20ADF80C3000F018FF05B000BD90
:100740000038014030B5012185B0254C44F2050048
:1007500000F090FE18204FF4007303258DF803007D
:1007600069462046ADF800308DF80250FFF724FFAF
:100770004FF480614822ADF80010204669468DF89C
:10078000032004F540548DF80250FFF715FF02A82E
:1007900000F054FF02A9204600F040FF1148FFF787
:1007A000BBFF0F20252301258DF8060001A88DF839
:1007B00004308DF805508DF8075000F079FF0A4994
:1007C00000220A4B0A80204640F225511A8000F090
:1007D00047FF2046294600F037FF05B030BD00BF77
:1007E0000008014080841E009C0000209A00002028
:1007F00038B5084D40F22554FFF7A4FF284621469E
:1008000000F04EFF284621460122BDE8384000F0A6
:1008100027BF00BF00380140034B01221A805868EF
:10082000411C5960704700BF2C0000200B4B0C4846
:1008300000221A8001685A600A4BB1FBF3F04FF4B2
:100840007A714843084B013808495860F02081F814
:1008500023009A6007221A60704700BF2C00002016
:100860000000002040420F0010E000E000ED00E03A
:10087000064B074A988C118883B29942114603D9D6
:10088000044A1088013010800B807047002C014012
:10089000420000204000002030B54FF4006085B0D9
:1008A000012100F0E7FD1048104902684FF6FF7380
:1008B000B2FBF1F4ADF80830631E0D4C04A900251D
:1008C00021F80C3D2046ADF80A50ADF80650FFF770
:1008D0001DFC20460121FFF761FD06480649058001
:1008E000A28C0A8005B030BD0000002040420F00FD
:1008F000002C01404000002042000020024B188BD9
:10090000C0F30010704700BFC802002038B50024B3
:10091000204602F083F9094902F0D4F900F0FCFE08
:10092000074902F0CFF902F093FB064D05EB840571
:100930000134B4F57C7FE862EAD138BDDE40CC3BBF
:1009400000803848C8020020024BFA2828BFFA204D
:1009500018847047C8020020044B1A8B10B142F073
:10096000100001E022F0100018837047C802002038
:1009700000234FF0804205481384A2F82034A2F8E7
:100980002038018B21F0070303837047C802002041
:100990000E4B1A8B22F0070102F0100288B291B2BE
:1009A000188341B15A8B022A05D840F00100188300
:1009B00040F2111300E0002300224FF080410A842E
:1009C000A1F82034024B1A84704700BFC8020020EF
:1009D00000080040044B1A88012A03D10020188027
:1009E000FFF7D6BF704700BF9000002010B5041C71
:1009F00018BF0124FFF782FFA04205D02046FFF771
:100A0000ABFF024B01221A8010BD00BF90000020F6
:100A1000044B5A8B824203D003495883012008803B
:100A2000704700BFC8020020900000201A4BB0F5AC
:100A30007C7F188024BFA0F57C7080B203EB80011E
:100A40001A8CC96A5143090C01F54071D98000F52F
:100A5000A8739BB2B3F57C7F28BFA0F528700E4920
:100A600028BF83B201EB8300C06A5043000C00F53D
:100A70004070888103F5A87080B2B0F57C7F24BFF8
:100A8000A3F5287398B201EB8003D86A4243120C95
:100A900002F540734B827047C80200200C4B0D4A90
:100AA000198D31B9D8889086998911875B8A938787
:100AB0007047D8881721484380B290869889484368
:100AC00080B210875B8A594389B29187704700BF13
:100AD000C8020020000400401FB50446FFF748FF8D
:100AE0002022174B6CB10021ADF80620012048F6FA
:100AF0000A22ADF80A10ADF80820ADF804101885E8
:100B00000AE040F20A60ADF80A40ADF80620ADF800
:100B10000800ADF804401C854FF0804001A9FFF7A4
:100B2000F5FA084801A9FFF7F1FA01A90648FFF70D
:100B3000EDFAFFF7B3FF054B012119801FBD00BF80
:100B4000C80200200004004000080040900000207F
:100B5000044B0030198D18BF0120814201D0FFF7EE
:100B6000BBBF7047C80200202DE9F041072088B0C4
:100B7000012100F08BFC0D20012100F07BFC4FF0E7
:100B80000308C02318244A486946ADF800308DF8A0
:100B900003408DF80280FFF70FFD012008ADADF88E
:100BA00000008DF80340434800246946424E8DF80A
:100BB0000280FFF701FD25F81C4D202140F20A625A
:100BC0003E4FADF806104FF080402946ADF80820A2
:100BD000ADF80A40FFF79AFA29463046FFF796FA31
:100BE00029463846FFF792FA4FF4407560234FF0DC
:100BF000804004A9ADF81030ADF81C40ADF81E409F
:100C0000ADF81840ADF81A40ADF81240ADF81440F8
:100C1000ADF81650FFF708FB4FF0804004A9FFF72E
:100C200047FB4FF0804004A9FFF784FB304604A93E
:100C3000FFF7B6FA304604A9FFF7F6FA304604A9E2
:100C4000FFF736FB304604A9FFF774FB384604A9CA
:100C5000FFF72EFB384604A9FFF76CFB4FF08040EE
:100C600001888AB242F001030380308881B241F0EA
:100C7000010232803B88124A98B240F0010139806B
:100C800055829581D5809582D5811581D582158231
:100C900055811483A2F81A80A2F81C80A2F81E8045
:100CA000148454849484D484148508B0BDE8F081FD
:100CB00000080140000C0140000400400008004012
:100CC000C802002007B5182003214FF400738DF8E7
:100CD00007008DF80610054801A9ADF80430FFF7AC
:100CE0006BFC0120FFF7C0FC0EBD00BF00080140F7
:100CF00007B5FFF7DFFC0120FFF7B6FC4820032112
:100D00004FF400738DF807008DF80610034801A911
:100D1000ADF80430FFF750FC0EBD00BF00080140E5
:100D200007B50420012100F0A5FB102003210223B8
:100D30008DF807008DF80610084801A9ADF80430B9
:100D4000FFF73AFCFFF754FDFFF7D2FFFFF70CFF68
:100D5000FFF7A2FDFFF76AFD0EBD00BF00080140CE
:100D6000114B10B51868114C20601148FFF7CEFBED
:100D70001048FFF7CBFB1048FFF7C8FB0F4800F007
:100D8000A9FB00F009FB0E4900200860486088605C
:100D900000F022FB0120FFF710FB0A4A1068FFF762
:100DA00009FB2468A047FEE704F0FF1FC0020020F3
:100DB00000080140000C01400010014000380140D3
:100DC00010E000E000F0FF1FC1B211F0800F38B555
:100DD0004F4B01D000221A801C884D4A042C00F28F
:100DE0009580DFE804F003374F547700D02819D0FE
:100DF000902806D1474900200880042246480280F6
:100E000038BD0A061AD500F00F01032916D1434A4E
:100E100000F07003FF25402B13705170957006D0C1
:100E2000502B0BD13B4B00251D800122E6E73848B3
:100E300001230B2503808580002207E0F02865D17F
:100E4000364800224270324804210180C280344A70
:100E5000918C3DE0DD88334A99885055681C85B2F5
:100E60008D42DD8031D300231C468C4205D22D4AB1
:100E7000155D01346B40E4B2F7E7264A0025158082
:100E800003241BE0254900238870138038BDDA88CD
:100E900024498854501C998885B28D42DD8014D332
:100EA00000231C468C4205D21E48025D013453408B
:100EB000E4B2F7E7174A002515800224164804809B
:100EC0000BB101231380124A1580154D1048A98CCF
:100ED000418038BDDD88042D13D8DFE805F0030517
:100EE00007090C00462804E04C2802E0412800E0F5
:100EF000532804D105E0482801D1FFF731FF002035
:100F00001080691C064BD1809D8C558038BD00BF78
:100F10009E0000208A000020B8000020BA000020B7
:100F2000002C014044000020064B1A8842B10648BC
:100F30005A88818C881A81B2642901D900221A80CA
:100F4000704700BF9E000020002C014073B50420B4
:100F5000012100F08FFA4825102303244A4801A9F3
:100F6000ADF804308DF807508DF80640FFF724FBEC
:100F70000420012100F07EFA082001A9ADF8040048
:100F800041488DF807508DF80640FFF715FBFFF735
:100F9000BDFC0020FFF7E0FC2046FFF739FD3B4990
:100FA0003B4E00250D84FFF7F3FC042232804026DF
:100FB0003548FFF751FB00F0100398B208B1013536
:100FC000ADB2741EA6B2002EF2D1302D1DD80F2D59
:100FD0001DD9304D48F6B800FFF746FBB5F90010B3
:100FE000002904DA284802210122FFF738FB48F6DD
:100FF000B800FFF739FBB5F90020002AE9DA2248EA
:1010000002210022FFF72BFBE3E7012500E0354634
:10101000402600241C48FFF71FFB00F0080398B28D
:1010200008B10134A4B2013EB6B2002EF2D1302C88
:1010300026D80F2C1BD9174D48F6B800FFF714FB24
:10104000B5F90010002904DA0F4802210122FFF748
:1010500006FB48F6B800FFF707FBB5F90020002AA9
:10106000E9DA094802210022FFF7F9FAE3E715B1AE
:101070000620074B1880084908488A8C02807CBDEE
:10108000002DF8D10520F4E700080140C802002037
:101090003400002014000020002C014098000020A3
:1010A000094808B5094B01889A8C42F21070531A0E
:1010B0009AB2824206D90020FFF798FCBDE80840AA
:1010C000FFF788BC08BD00BF98000020002C01403D
:1010D00008B5FFF713FC044B08B9962201E04FF462
:1010E000FA721A8008BD00BF1400002038B5334BD7
:1010F0001D8825B132480268511C016038BD314C51
:1011000031482178058001F04000FFF721FD227869
:1011100002F01000FFF76AFC2C4B188804280FD14E
:10112000207810F0010F0CBF03200020FFF770FCA7
:101130006178E2784B00D8B202F00701A47826E08B
:10114000052811D1237803F00200C2B2002A0CBF97
:1011500003200020FFF75CFC2179A2794B00D8B274
:1011600002F00701647912E0062815D1217801F018
:101170000402D3B2002B0CBF03200020FFF748FC71
:10118000E079627A4100247AC8B202F0070104F0E3
:101190007F0404EBC11402E028464FF4FC74FFF70F
:1011A000D3FB2046FFF742FCFFF778FCFFF712FC69
:1011B0000748084B818C198038BD00BF8A00002089
:1011C0009400002044000020900000203400002003
:1011D000002C01409800002038B5FFF7A1FD614DBB
:1011E000614B62486249634A00241C8004802C8061
:1011F0000C801480FFF7AAFE4FF400432B805E4D55
:101200004FF6FF700221288022465C48FFF727FA3C
:10121000B5F90010A14204DA584802210122FFF773
:101220001EFAFFF751FA18B1FFF75CFAFFF7CCFD91
:101230004D4CFFF779FE2288204693B25D1E062DA5
:1012400016D8DFE805F0041307130A0C1100002478
:101250000480C2E7FFF74AFF08E0FFF733FD484A82
:1012600000211180072302E0FFF742FD00232380C5
:10127000444DFFF715FF288881B20029D1D0002402
:101280002C80FFF7F5FA3C4AB2F90050A5420FDD79
:101290003D4B1888411C8AB2AA421A8008DB1C8088
:1012A000364CE568EB4303F0020040F40031216165
:1012B0002C4A148824F4FE45ABB2B3F5004F18D085
:1012C00007D8012B22D017D3032B28D0142BA8D159
:1012D00038E048F2020083421BD010D348F20302E8
:1012E00093421CD0113293429BD1234C3221218056
:1012F00028E0214D32242C8048F2140420E01E4BBB
:1013000024F400454FF4FA7015801880FFF7E0FED2
:1013100087E724F4004111809625174B1FE01B48F6
:101320001B4D02882B88511C8CB2A3420480BFF451
:1013300078AF184802886FEA42410A4A6FEA51447E
:1013400014806EE7114B0025114A124C1D804FF49A
:1013500096700121034B1080218048F203051D8007
:101360005FE700BF3A000020B8000020C402002060
:101370003C0000209E0000201400002000080140D6
:101380008A0000202C000020380000208800002067
:10139000AC0000203E0000200D4B1A6842F0010016
:1013A000186059680B4A0A405A60186820F0847126
:1013B00021F480321A60186820F4802119605A687C
:1013C0004FF41F0122F4FE0058609960704700BF7F
:1013D000001002400000FFF8034B5A6822F003019E
:1013E00008435860704700BF001002401D4B10B505
:1013F0005A6802F00C01042901D0082902D01A4AC7
:1014000002600EE05C685968C4F38342941CC9030F
:1014100002D55B689B0301D5144900E012494C4397
:101420000460104A124B5468C4F303115C5C0168F9
:1014300021FA04F141605468C4F302241C5D21FACE
:1014400004F484605468C4F3C2241C5D21FA04F1DE
:10145000C1605268C2F381329B181A7CB1FBF2F171
:10146000016110BD0010024000127A0000093D0029
:1014700016000020044B9A6909B1104301E022EAEA
:1014800000009861704700BF00100240044BDA6909
:1014900009B1104301E022EA0000D861704700BFA3
:1014A00000100240044BDA6809B1104301E022EA5F
:1014B0000000D860704700BF00100240044B1A695A
:1014C00009B1104301E022EA00001861704700BF33
:1014D0000010024008B5204B98420BD101214FF477
:1014E0008040FFF7DFFF4FF480400021BDE8084057
:1014F000FFF7D8BF1949884207D14FF400300121C6
:10150000FFF7DCFF4FF400301FE0154A904207D18F
:101510004FF480200121FFF7D1FF4FF4802014E029
:10152000104B984207D14FF400200121FFF7C6FF6E
:101530004FF4002009E00C4988420BD14FF4801091
:101540000121FFF7BBFF4FF480100021BDE80840E8
:10155000FFF7B4BF08BD00BF0038014000440040A1
:1015600000480040004C004000500040038A30B565
:101570000D460446EA8898B220F440511143218276
:10158000A3892889A98823F4B05340EA0102688915
:1015900023F00C0102430804030C1A4391B2A18109
:1015A000A08AAA8983B223F4407187B01143A18233
:1015B00001A8FFF71BFF1848A38984420CBF0498B9
:1015C000039819B200294FF019032A6803FB00F0B1
:1015D00001DA510000E09100B0FBF1F16423B1FBAE
:1015E000F3F21201100903FB1011A08900B20028C8
:1015F00006DAC9003231B1FBF3F303F0070005E06E
:1016000009013231B1FBF3F303F00F00024390B252
:10161000208107B030BD00BF003801400B8810B5F5
:101620004C88028A23438C88C98892B223430B4397
:1016300022F4706213439BB2038210BD0023038027
:1016400043808380C3807047838919B199B241F484
:10165000005303E023F400510A04130C8381704704
:10166000C1F3421310B5012401F01F01A34204FA93
:1016700001F101D10C3004E0022B01D1103000E067
:101680001430036812B143EA010201E023EA0102C7
:10169000026010BD038819420CBF00200120704772
:1016A000090A012303FA01F3DA4391B2018070477A
:1016B000C37810B503B3164CE168CB43C3F30224DF
:1016C0004178C4F1040201FA02F10F2222FA04F275
:1016D0008478037822400A43110103F16043CAB2BF
:1016E00003F5614181F800230078012200F01F0317
:1016F000410902FA03F007E00078012200F01F031D
:10170000410902FA03F02031024B43F8210010BDD9
:1017100000ED00E000E100E000B540F6D87320F0F5
:101720000042C3F649739A4283B0014616DDB2F116
:10173000FF4F03DB01F0BCF903B000BD694600F0C8
:1017400027F800F00300012815D002280BD0B8B903
:1017500000980199012201F073F8EDE700210022C1
:1017600001F06EF8E8E700980199012201F068F8AD
:1017700000F10040E0E70098019900F0B5F9DBE7DF
:101780000098019900F0B0F900F10040D4E700BFE3
:101790002DE9F04F40F6D87320F00044C3F64973AA
:1017A0009C4289B006460D4640F38B804CF6E331EF
:1017B000C4F216018C4226DC4FF478610028C3F68F
:1017C000C97140F32B8101F073F94FF47D6224F06D
:1017D0000F04C3F6C9729442064600F0818044F2B9
:1017E0004341C3F2357101F063F901462860304688
:1017F00001F05EF944F24341C3F2357101F058F94A
:101800000127686061E04FF47867C4F24937BC4251
:1018100040F38180B4F1FF4F5BDA4FEAE459A9F15C
:101820008609A4EBC954204601F012FC01F0F6F938
:10183000024601462046059201F03AF94FF08741F1
:1018400001F040FA074601F003FC01F0E7F9014618
:1018500004463846069401F02BF94FF0874101F019
:1018600031FA0021079001F0C1FB002800F0F6805A
:101870000327204600210DF11808013F01F0B6FBB7
:1018800040B158F8044D00212046013F01F0AEFB65
:101890000028F6D1924B02200090019305A83B4608
:1018A00029464A4600F0FCF9002E07460DDA95E875
:1018B0000C0002F1004103F1004229606A604742D6
:1018C00003E00023286000274B60384609B0BDE8DC
:1018D000F08F014601F0ECF8002768602860F4E71B
:1018E0004FF48841C3F2357101F0E2F84AF2083151
:1018F000C2F68561044601F0DBF801462860204607
:1019000001F0D6F84AF20831C2F6856101F0D0F84C
:1019100001276860D9E701F013F84FF68411C3F688
:101920002271804601F0CEF94FF07C5101F0C2F8EF
:1019300001F08EFB074601F071F94FF47861C3F6B0
:10194000C971834601F0BEF90146404601F0B0F886
:1019500044F243418146C3F23571584601F0B2F971
:101960001F2F8246514648461FDC5E4B7A1E53F8B5
:10197000223024F0FF029A4217D001F099F88046F5
:10198000C5F800804146484601F092F8514601F002
:101990008FF8002E686098DA08F1004800F10041E5
:1019A000C5F8008069607F428FE701F081F8E31598
:1019B0008046C0F3C750191A0829E1DD4FF4884169
:1019C000C3F235715846039301F07CF982465146C3
:1019D000484601F06DF804462146484601F068F893
:1019E000514601F065F84AF208318146C2F6856138
:1019F000584601F067F9494601F05AF882465146C7
:101A0000204601F055F8039BC0F3C7528046981A50
:101A1000192841DCC5F80080A146B3E701F04AF877
:101A20004FF47D6724F00F04C3F6C977BC42064625
:101A300016D044F24341C3F2357101F03BF8014640
:101A40002860304601F034F844F24341C3F2357166
:101A500001F030F84FF0FF37686036E7032719E7E9
:101A60004FF48841C3F2357101F024F84AF208318D
:101A7000C2F68561044601F01DF801462860204643
:101A800001F016F84AF20831C2F6856101F012F849
:101A90004FF0FF37686018E74FF42341C2F68561C5
:101AA000584601F00FF980464146204601F000F803
:101AB00081464946204600F0FBFF414600F0F8FF12
:101AC00043F232110446C2F28D41584601F0FAF851
:101AD000214600F0EDFF8246514648464DE700BFE3
:101AE0001C3100089C3000082DE9F84320F0004626
:101AF000B6F1485F05460F465BDA01F0A9FA002807
:101B000000F0CA802946284601F0DCF84DF24E71FB
:101B1000CAF64751044601F0D5F847F2F641C3F240
:101B20000F1100F0C7FF214601F0CCF84FF27C21E5
:101B3000C3F2934100F0BCFF214601F0C3F840F628
:101B40000151C3F2D07100F0B5FF214601F0BAF89F
:101B500040F66131C3F6B62100F0AAFF214601F03C
:101B6000B1F84AF6AB21C3F62A5100F0A3FF214693
:101B700001F0A8F8804620464FF07C5101F0A2F811
:101B800041460646204601F09DF83946044628465F
:101B900001F098F80146204600F08AFF01463046E1
:101BA00000F086FF01464FF07E5000F081FFBDE857
:101BB000F883014601F086F84DF24E71CAF647519E
:101BC000044601F07FF847F2F641C3F20F1100F02E
:101BD00071FF214601F076F84FF27C21C3F2934168
:101BE00000F066FF214601F06DF840F60151C3F2A6
:101BF000D07100F05FFF214601F064F840F66131DA
:101C0000C3F6B62100F054FF214601F05BF84AF616
:101C1000AB21C3F62A5100F04DFF214601F052F8E6
:101C200049F69913C3F699639E428046A3DD0020CE
:101C3000C3F64870864227DC06F17F464FF07E509F
:101C4000314600F035FF814620464FF07C5101F0CF
:101C500039F8314600F02CFF41460646204601F097
:101C600031F839460446284601F02CF80146204652
:101C700000F01EFF0146304600F01AFF01464846BC
:101C800000F016FFBDE8F8834FF000090026C3F608
:101C90003879C3F69066D7E74FF07E50BDE8F883F9
:101CA0002DE9F04FDFB00C930C9D224B689C0A91FC
:101CB000691ED61E48BF161D834653F82400F71030
:101CC00027EAE7730890049104980D93089DDC437C
:101CD000DDF834C002EBC40241190792C0EB0C07D7
:101CE00050D47E18699BC7EB06090136002F03EB21
:101CF000870522AC09F0010AC0F2FE82286800F0D4
:101D00008DFF0137B74220604FF004083AD0BAF196
:101D1000000F26D0002FC0F2F18255F8080000F025
:101D20007DFF0137B74244F8080008F1040818D1D4
:101D300028E000BF3434000855F8080000F06EFFBA
:101D4000013708F1040944F8080013D455F80900D4
:101D500000F064FF0137B74244F8090009F10408B4
:101D600010D0002FE8DA0020013708F1040944F808
:101D70000800EBD501370020B74244F8090009F10B
:101D80000408EED1089A002AC0F2458508990C9EF5
:101D90008D004AAB5C19039549AF02944FEA860A5D
:101DA000049A002AC0F296820DF1880808EB860595
:101DB00055F8041CAAF10403DBF80000C3F3800902
:101DC00000F080FF0146002000F074FE0424043D72
:101DD000544580462BD0B9F1000F0DD055F8041DA5
:101DE000DBF8040000F06EFF0146404600F062FEA2
:101DF0000824544580461AD055F8041C5BF80400AA
:101E000000F060FF0146404600F054FE0434804676
:101E100055F8081C5BF8040000F054FF01464046EA
:101E200000F048FE0434083D54458046E4D1029851
:101E300047F8048F01368742B2D1039F0EA9CE190D
:101E40000996089EB2005EAB9D18002E029255F8CE
:101E5000509C7DDD0DF5947C4FF06E5148460DACE5
:101E6000A7180CEB020500F02DFF01F0F1F800F0CF
:101E7000D5FE4FF08741019000F024FF014648460F
:101E800000F016FE01F0E4F80EAC20600198014667
:101E900055F8040D00F00EFEBC428146C7F38001E8
:101EA00056D0E9B14FF06E5100F00CFF01F0D0F8C0
:101EB00000F0B4FE4FF08741019000F003FF0146AF
:101EC000484600F0F5FD01F0C3F8019A0FAC206020
:101ED000114655F8040D00F0EDFDBC42814637D0A7
:101EE0004FF06E51484600F0EDFE01F0B1F800F001
:101EF00095FE4FF08741804600F0E4FE01464846DB
:101F000000F0D6FD01F0A4F84146606055F8040DDC
:101F100000F0D0FD4FF06E51814600F0D3FE01F08D
:101F200097F800F07BFE4FF08741804600F0CAFE34
:101F30000146484600F0BCFD01F08AF84146A06029
:101F400055F8040D00F0B6FD0834BC428146C7D1F7
:101F50000799484600F042FD4FF07851054600F0E1
:101F6000B1FE00F0F1FC4FF0824100F0ABFE014603
:101F7000284600F09DFD074601F06AF8814600F012
:101F80004DFE0146384600F093FD079907460029AB
:101F900040F33981721E0EAC079D54F82230C5F112
:101FA000080043FA00F101FA00F0C5F107041B1A1A
:101FB00043FA04F40DF1380C89444CF82230002C1B
:101FC00055DD002E09F1010940F39481029D0EAB0D
:101FD000DDF808C053F8042B281F0DF1380E00253A
:101FE0000EEB0C01C0F3800022B1C2F5807243F801
:101FF000042C01258B4226D060B10F9A0433002DAA
:1020000040F0F38022B1C2F5807543F8045C0125ED
:102010008B4218D053F8042B002D40F0EC80C2F511
:10202000807012B143F8040C012553F8042B002DE5
:1020300040F0DB80C2F58070002AE9D001258B4298
:1020400043F8040CE6D1079900290DDD012900F0C1
:10205000E280022908D1701E0DF1380E5EF82020B2
:1020600002F03F034EF82030022C00F0E0803846AA
:10207000002100F0BBFF002800F0F3800898751ED7
:10208000A84225DC029B0DF1380E0EEB03010B4636
:10209000DDF824C053F8042DCCEB0100011F63458B
:1020A000C1F3800011D030B153F8041DDDF824E0F5
:1020B0000A43734509D0099F53F8040D53F8041DD2
:1020C0000243BB4242EA0102F6D1002A40F01A81E3
:1020D000089F0EAD781E55F82020002A40F0108190
:1020E00005EB8004012354F8041D01330029FAD0C4
:1020F000F018771C87420B9075DCDDF810E00D9D21
:102100000B9B0C9C0EEB0702DDF808C0699F991B26
:1021100006EB05094AA8A61922AB07EB890900EBD3
:102120000C05571C8A0003EB860102950692059167
:10213000002659F8040F00F071FD059CA051049889
:1021400000285EDB22AD05EB8702AAF10403C3F38E
:10215000800452F8041CDBF800000394141F00F004
:10216000B1FD0146002000F0A5FC4FF00408D04569
:1021700005462DD0039971B154F8041DDBF8040015
:1021800000F0A0FD0146284600F094FC4FF008083E
:10219000D04505461CD054F8041C5BF8080000F03C
:1021A00091FD0146284600F085FC08F1040805462B
:1021B00054F8081C5BF8080000F084FD014628462E
:1021C00000F078FC08F10408083CD0450546E2D14F
:1021D000DDF808E0069804364EF8045F01378642C1
:1021E000CDF808E0A5D10B9E2CE6C2F1FF0243F822
:1021F000042C01250CE7C2F1FF0543F8045C01251E
:1022000013E70025E4E75ED1701E0DF1380E5EF88D
:1022100020301C12D3E6711E0DF1380C5CF8210041
:10222000022C00F07F024CF821207FF420AF3946C9
:102230004FF07E5000F03CFC0746002D3FF417AFF6
:1022400007994FF07E5000F0C9FB0146384600F078
:102250002FFC07463846002100F0C8FE00287FF416
:102260000DAF0294079C38466142CDF8109000F003
:10227000B5FB4FF08741054600F0D6FE002800F080
:10228000D2824FF06E51284600F01CFD00F0E0FEB7
:1022900000F0C4FC4FF08741074600F013FD0146F3
:1022A000284600F005FC00F0D3FE0EA941F82600F8
:1022B000384600F0CDFE079A013608320EAC079280
:1022C00044F8260034E04FF07C5100F0ADFE58B9E0
:1022D0000024CCE64FF00008029847F8048F01363E
:1022E00087427FF45DADA8E50224002E09F10109C3
:1022F0003FF76CAE0025A6E6002002E5002010E5C1
:102300000123F5E6079A0EAE56F82530083ACDF8C7
:10231000109002940792002B40F08E8206EB850409
:102320002E4654F8045D013E083A002DF9D007927C
:102330004FF07E50079900F051FB002E0446C0F28A
:10234000AC804FEA860AC6EB867B0EAF4FEA8B095C
:102350005744C9F100034AA9386801EB0A08C3F3DE
:10236000800B00F05BFC214600F0ACFC4FF06E519E
:10237000C8F80000204600F0A5FCA9F104096FF0A0
:10238000030ACA45054631D0BBF1000F0BD057F800
:10239000040C00F043FC294600F094FC6FF0070A9F
:1023A00048F8040C1AE057F80A0000F037FC2946F8
:1023B00000F088FC4FF06E5148F80A00284600F003
:1023C00081FCAAF104040546385900F027FC29468F
:1023D00000F078FCAAF1080A48F8040028464FF0FB
:1023E0006E5100F06FFCCA450546DCD1701CDFF869
:1023F0004C94DDF820A0039000270596BAF1000F59
:10240000C0F20582002FC0F20282002600241AF0DA
:10241000010F354620D0D8F80010D9F8000000F0A0
:1024200051FC0146204600F045FB0125AA45044623
:1024300026DB0426BD420FDD22E0BB4520DC58F838
:10244000021059F8020000F03DFC0146204600F061
:1024500031FBBD42044613DC58F8061059F806005B
:1024600000F030FC0146204600F024FB05F1010B92
:1024700006F104020235DA45044602F10406DCDA0C
:102480005EABDDF80CC003EB87010137674541F80F
:10249000A04CA8F10408B1D1059E689C032C16D865
:1024A000DFE814F085011F011F011B0000230299C2
:1024B000002900F00B81379C369804F100420A9CF9
:1024C00000F1004503F1004325606260A360049DB4
:1024D00005F007005FB0BDE8F08F002EE6DD06F1E5
:1024E000FF3836AF07EB88094D4655F804290DF142
:1024F000D40AD5F808B010465946019200F0DAFA2D
:1025000080464146019800F0D3FA0146584600F053
:10251000D1FA5545C9F38003A860C5F8048044D0BA
:10252000BBB155F80429D5F808B0104659460192B8
:1025300000F0C0FA019980460846414600F0B8FA1A
:102540000146584600F0B6FA5545C5F80480A86023
:102550002BD02C4654F80439D4F808B01846594604
:10256000019300F0A7FA80464146019800F0A0FAD6
:102570000146584600F09EFAC4F80480A06055F861
:1025800004BC251FD5F808805846414600F092FA51
:1025900004462146584600F08BFA0146404600F0BA
:1025A00089FA55456C60A860D3D1012E7FF77EAFC4
:1025B0004D4655F804B9C7EB090ED5F808A05846A2
:1025C0005146AEF1040900F075FA8046414658467E
:1025D00000F06EFA0146504600F06CFABD42C9F3B5
:1025E0008009C5F80480A86043D0B9F1000F15D068
:1025F00055F804A9D5F808905046494600F05AFA13
:1026000080464146504600F053FA0146484600F0E5
:1026100051FABD42C5F80480A8602AD02C4654F86F
:1026200004A9D4F808905046494600F043FA804681
:102630004146504600F03CFA0146484600F03AFA5E
:10264000C4F80480A06055F8049C251FD5F80880C4
:102650004846414600F02EFA04462146484600F01E
:1026600027FA0146404600F025FABD426C60A8609A
:10267000D4D1013607EB860708353E467A1B131F77
:1026800056F8041D0020C3F3800700F013FAAE4291
:1026900003463FF40CAF3FB156F8041D00F00AFAB0
:1026A000AE4203463FF403AF184656F8041C341FED
:1026B00000F000FA083E54F8041C00F0FBF9AE42AA
:1026C000F3D10299034600297FF4F5AEDDF828C066
:1026D00036993798CCF80010CCF80400CCF80830C4
:1026E000F5E60023002E29DB36AF751C07EB8504C9
:1026F0002546E21B55F8041DA2F1040E0020CEF37E
:10270000800800F0D7F9BD42034617D0B8F1000F9A
:1027100006D055F8041D00F0CDF9BD4203460DD09A
:10272000184655F8041C2C1F00F0C4F9083D54F855
:10273000041C00F0BFF9BD42F3D103460299002901
:1027400067D003F10040DDF828C01946CCF800003E
:10275000369800F0ADF9002E034621DD36AF07EBC9
:102760008606F51B2A1F3799C2F3800700F0A2F9ED
:1027700037ACB442034613D037B1616800F09AF920
:1027800038ACB44203460BD0184654F8041F00F08E
:1027900091F954F8041F00F08DF9B442F5D10346C5
:1027A000029909B103F100430A9C63608FE6002E91
:1027B00040DB36AF013607EB86000546C21B55F8F5
:1027C000041D0020141F00F075F9BD42C4F38006FB
:1027D000034615D036B155F8041D00F06BF9BD4223
:1027E00003460DD0184655F8041C2C1F00F062F962
:1027F000083D54F8041C00F05DF9BD42F3D10346D6
:10280000029909B103F100430A9C23605FE60024AA
:1028100036E6184697E7DDF830E0900003904FEA7F
:102820008E0AFFF70ABB284600F012FC0EAB43F8F5
:1028300026007DE50023E3E72E4679E540340008D5
:102840002DE9F84320F00043B3F1485F04460F46FA
:10285000904603DA00F0FCFB002859D021462046C0
:1028600000F030FA2146054600F02CFA4CF6D31160
:10287000C2F62E710646284600F024FA42F634715C
:10288000C3F2D72100F014F9294600F01BFA4EF6E6
:102890001B71C3F2386100F00DF9294600F012FAFD
:1028A00040F60151C3F6501100F002F9294600F03C
:1028B00009FA48F68901C3F6084100F0FBF88146A1
:1028C000B8F1000F27D04FF07C51384600F0FAF9EC
:1028D00049468046304600F0F5F90146404600F092
:1028E000E7F8294600F0EEF9394600F0E1F84AF63B
:1028F000AB210546C3F62A61304600F0E3F90146F4
:10290000284600F0D7F80146204600F0D1F80446EA
:102910002046BDE8F8830146284600F0D3F94AF680
:10292000AB21C3F62A6100F0C3F8314600F0CAF9C2
:102930000146204600F0BEF804462046BDE8F88374
:1029400020F00040704700BFF8B520F00046F50DBC
:102950007F3D162D014604461BDC002D074620DB7B
:102960004FF6FF73C0F27F0343FA05F606420ED01E
:102970004FF2CA21C7F2491100F09CF8002100F083
:102980005DFB18B1002C1BDB27EA06042146084634
:10299000F8BDB6F1FF4FFAD300F08CF801460846B7
:1029A000F8BD4FF2CA21C7F2491100F083F80021A7
:1029B00000F044FB0028E9D0002C07DB0024E5E709
:1029C0004FF4000040FA05F56719DDE70021CBF66A
:1029D0008071002E18BF0C46D8E700BF38B530F024
:1029E0000044034602460D460FD0B4F1FF4F0ED20D
:1029F000B4F5000F11D3E40D6419FE2C33DC002C68
:102A00001BDD22F0FF4141EAC453184638BD0146A0
:102A100000F050F80346184638BD4FF0984100F0DA
:102A200051F943F6B041CFF6FF718D42034612DBF8
:102A3000C0F3C7540246193CDEE714F1160F21DA41
:102A40004CF25032954219460EDC44F26020C0F63A
:102A5000A25000F023F844F26021C0F6A25100F029
:102A600031F90346D1E719464FF2CA20C7F249109F
:102A700000F014F84FF2CA21C7F2491100F022F910
:102A80000346C2E722F0FF4304F1190043EAC050B5
:102A90004FF04C5100F016F90346B6E701F0004143
:102AA00020F000400843704780F0004002E000BF83
:102AB00081F0004142001FBF5FEA410392EA030F29
:102AC0007FEA226C7FEA236C6AD04FEA1262D2EB73
:102AD0001363C1BFD218414048404140B8BF5B4278
:102AE000192B88BF704710F0004F40F4000020F011
:102AF0007F4018BF404211F0004F41F4000121F027
:102B00007F4118BF494292EA030F3FD0A2F1010270
:102B100041FA03FC10EB0C00C3F1200301FA03F1AE
:102B200000F0004302D5494260EB4000B0F5000FD1
:102B300013D3B0F1807F06D340084FEA310102F190
:102B40000102FE2A51D2B1F1004F40EBC25008BF42
:102B500020F0010040EA03007047490040EB00000C
:102B600010F4000FA2F10102EDD1B0FA80FCACF13B
:102B7000080CB2EB0C0200FA0CF0AABF00EBC2503A
:102B800052421843BCBFD0401843704792F0000F28
:102B900081F4000106BF80F400000132013BB5E77B
:102BA0004FEA41037FEA226C18BF7FEA236C21D0F1
:102BB00092EA030F04D092F0000F08BF0846704756
:102BC00090EA010F1CBF0020704712F07F4F04D124
:102BD000400028BF40F00040704712F100723CBF37
:102BE00000F50000704700F0004343F0FE4040F461
:102BF000000070477FEA226216BF08467FEA23631F
:102C00000146420206BF5FEA412390EA010F40F409
:102C1000800070474FF0000304E000BF10F0004355
:102C200048BF40425FEA000C08BF704743F096433C
:102C300001464FF000001CE050EA010208BF704757
:102C40004FF000030AE000BF50EA010208BF7047DE
:102C500011F0004302D5404261EB41015FEA010CF3
:102C600002BF84460146002043F0B64308BFA3F1EB
:102C70008053A3F50003BCFA8CF2083AA3EBC253CD
:102C800010DB01FA02FC634400FA02FCC2F12002EC
:102C9000BCF1004F20FA02F243EB020008BF20F023
:102CA0000100704702F1200201FA02FCC2F1200289
:102CB00050EA4C0021FA02F243EB020008BF20EA7E
:102CC000DC7070474FF0FF0C1CEAD0521EBF1CEAAC
:102CD000D15392EA0C0F93EA0C0F6FD01A4480EA9A
:102CE000010C400218BF5FEA41211ED04FF0006383
:102CF00043EA501043EA5111A0FB01310CF00040AF
:102D0000B1F5000F3EBF490041EAD3715B0040EAD4
:102D1000010062F17F02FD2A1DD8B3F1004F40EBA4
:102D2000C25008BF20F00100704790F0000F0CF077
:102D3000004C08BF49024CEA502040EA51207F3A3B
:102D4000C2BFD2F1FF0340EAC250704740F4000016
:102D50004FF00003013A5DDC12F1190FDCBF00F007
:102D600000407047C2F10002410021FA02F1C2F1B5
:102D7000200200FA02FC5FEA310040F1000053EA51
:102D80004C0308BF20EADC70704792F0000F00F09F
:102D9000004C02BF400010F4000F013AF9D040EAA5
:102DA0000C0093F0000F01F0004C02BF490011F439
:102DB000000F013BF9D041EA0C018FE70CEAD15337
:102DC00092EA0C0F18BF93EA0C0F0AD030F0004CB7
:102DD00018BF31F0004CD8D180EA010000F000406B
:102DE000704790F0000F17BF90F0004F084691F029
:102DF000000F91F0004F14D092EA0C0F01D1420263
:102E00000FD193EA0C0F03D14B0218BF084608D12B
:102E100080EA010000F0004040F0FE4040F4000075
:102E2000704740F0FE4040F4400070474FF0FF0C08
:102E30001CEAD0521EBF1CEAD15392EA0C0F93EA4F
:102E40000C0F69D0A2EB030280EA010C49024FEAA1
:102E5000402037D04FF0805343EA111143EA10135A
:102E60000CF000408B4238BF5B0042F17D024FF412
:102E7000000C8B4224BF5B1A40EA0C00B3EB510FED
:102E800024BFA3EB510340EA5C00B3EB910F24BFD6
:102E9000A3EB910340EA9C00B3EBD10F24BFA3EB5B
:102EA000D10340EADC001B0118BF5FEA1C1CE0D123
:102EB000FD2A3FF650AF8B4240EBC25008BF20F0D6
:102EC000010070470CF0004C4CEA50207F32C2BF2A
:102ED000D2F1FF0340EAC250704740F400004FF0C7
:102EE0000003013A37E792F0000F00F0004C02BFF8
:102EF000400010F4000F013AF9D040EA0C0093F0C2
:102F0000000F01F0004C02BF490011F4000F013B1B
:102F1000F9D041EA0C0195E70CEAD15392EA0C0F83
:102F200008D142027FF47DAF93EA0C0F7FF470AFBB
:102F3000084676E793EA0C0F04D14B023FF44CAFFE
:102F400008466EE730F0004C18BF31F0004CCAD193
:102F500030F000427FF45CAF31F000437FF43CAFCF
:102F60005FE700BF4FF0FF3C06E000BF4FF0010CF1
:102F700002E000BF4FF0010C4DF804CD4FEA4002D3
:102F80004FEA41037FEA226C18BF7FEA236C11D01D
:102F900001B052EA530C18BF90EA010F58BFB2EBD0
:102FA000030088BFC81738BF6FEAE17018BF40F050
:102FB000010070477FEA226C02D15FEA402C05D104
:102FC0007FEA236CE4D15FEA412CE1D05DF8040B89
:102FD000704700BF844608466146FFE70FB5FFF71C
:102FE000C9FF002848BF10F1000F0FBD4DF808EDD4
:102FF000FFF7F4FF0CBF012000205DF808FB00BFC5
:103000004DF808EDFFF7EAFF34BF012000205DF81E
:1030100008FB00BF4DF808EDFFF7E0FF94BF01206B
:1030200000205DF808FB00BF4DF808EDFFF7D2FF68
:1030300094BF012000205DF808FB00BF4DF808EDAB
:10304000FFF7C8FF34BF012000205DF808FB00BF78
:103050004FEA4002B2F1FE4F0FD34FF09E03B3EBA5
:1030600012620DD94FEA002343F0004310F0004FE5
:1030700023FA02F018BF404270474FF0000070473B
:1030800012F1610F01D1420205D110F0004008BFDA
:103090006FF0004070474FF000007047000FC93FCD
:1030A000000F494000CB9640000FC9400053FB4041
:1030B00000CB164100ED2F41000F49410031624124
:1030C00000537B41003A8A4100CB9641005CA3410A
:1030D00000EDAF41007EBC41000FC94100A0D541C9
:1030E0000031E24100C2EE410053FB4100F20342D5
:1030F000003A0A420083104200CB164200141D42DF
:10310000005C234200A5294200ED2F4200363642E2
:10311000007E3C4200C74242000F4942A20000002C
:10312000F9000000830000006E0000004E00000067
:10313000440000001500000029000000FC00000011
:103140002700000057000000D1000000F50000003B
:1031500034000000DD000000C0000000DB000000C3
:103160006200000095000000990000003C00000093
:10317000430000009000000041000000FE0000003D
:103180005100000063000000AB000000DE00000002
:10319000BB000000C500000061000000B700000097
:1031A000240000006E0000003A0000004200000011
:1031B0004D000000D2000000E0000000060000000A
:1031C000490000002E000000EA0000000900000095
:1031D000D1000000920000001C000000FE00000072
:1031E0001D000000EB0000001C000000B10000000A
:1031F00029000000A70000003E000000E8000000D9
:103200008200000035000000F50000002E000000E4
:10321000BB0000004400000084000000E900000042
:103220009C0000007000000026000000B4000000B8
:103230005F0000007E000000410000003900000037
:1032400091000000D600000039000000830000005B
:103250005300000039000000F40000009C00000052
:10326000840000005F0000008B000000BD00000033
:10327000F9000000280000003B0000001F000000D3
:10328000F800000097000000FF000000DE000000D2
:1032900005000000980000000F000000EF00000093
:1032A0002F000000110000008B0000005A000000F9
:1032B0000A0000006D0000001F0000006D0000000B
:1032C000360000007E000000CF0000002700000054
:1032D000CB00000009000000B70000004F00000014
:1032E000460000003F000000660000009E00000055
:1032F0005F000000EA0000002D00000075000000E3
:1033000027000000BA000000C7000000EB0000002A
:10331000E5000000F10000007B0000003D0000001F
:103320000700000039000000F70000008A000000DC
:103330005200000092000000EA0000006B00000054
:10334000FB0000005F000000B10000001F00000053
:103350008D0000005D000000080000005600000025
:10336000030000003000000046000000FC000000E8
:103370007B0000006B000000AB000000F0000000CC
:10338000CF000000BC000000200000009A000000F8
:10339000F4000000360000001D000000A90000003D
:1033A000E300000091000000610000005E000000EA
:1033B000E60000001B00000008000000650000009F
:1033C00099000000850000005F000000140000006C
:1033D000A000000068000000400000008D00000018
:1033E000FF000000D8000000800000004D00000039
:1033F00073000000270000003100000006000000FC
:10340000060000001500000056000000CA00000081
:1034100073000000A8000000C90000006000000068
:10342000E20000007B000000C00000008C000000F3
:103430006B0000000400000007000000090000000D
:103440000000C93F0000F0390000DA370000A23365
:103450000000842E0000502B0000C2270000D02264
:0C3460000000C41F0000C61B0000441741
:10346C0000A24A0400000000000000000102030456
:10347C0006070809FFFF0000000001020304010217
:0C348C00030406070809020406080000FB
:0400000508000000EF
:00000001FF
